{
  "_format": "hh-sol-artifact-1",
  "contractName": "RewardsV2",
  "sourceName": "contracts/RewardsV2.sol",
  "abi": [
    {
      "inputs": [
        {
          "internalType": "address",
          "name": "_vault",
          "type": "address"
        }
      ],
      "stateMutability": "nonpayable",
      "type": "constructor"
    },
    {
      "anonymous": false,
      "inputs": [
        {
          "indexed": false,
          "internalType": "address",
          "name": "account",
          "type": "address"
        }
      ],
      "name": "Paused",
      "type": "event"
    },
    {
      "anonymous": false,
      "inputs": [
        {
          "indexed": true,
          "internalType": "bytes32",
          "name": "role",
          "type": "bytes32"
        },
        {
          "indexed": true,
          "internalType": "bytes32",
          "name": "previousAdminRole",
          "type": "bytes32"
        },
        {
          "indexed": true,
          "internalType": "bytes32",
          "name": "newAdminRole",
          "type": "bytes32"
        }
      ],
      "name": "RoleAdminChanged",
      "type": "event"
    },
    {
      "anonymous": false,
      "inputs": [
        {
          "indexed": true,
          "internalType": "bytes32",
          "name": "role",
          "type": "bytes32"
        },
        {
          "indexed": true,
          "internalType": "address",
          "name": "account",
          "type": "address"
        },
        {
          "indexed": true,
          "internalType": "address",
          "name": "sender",
          "type": "address"
        }
      ],
      "name": "RoleGranted",
      "type": "event"
    },
    {
      "anonymous": false,
      "inputs": [
        {
          "indexed": true,
          "internalType": "bytes32",
          "name": "role",
          "type": "bytes32"
        },
        {
          "indexed": true,
          "internalType": "address",
          "name": "account",
          "type": "address"
        },
        {
          "indexed": true,
          "internalType": "address",
          "name": "sender",
          "type": "address"
        }
      ],
      "name": "RoleRevoked",
      "type": "event"
    },
    {
      "anonymous": false,
      "inputs": [
        {
          "indexed": false,
          "internalType": "address",
          "name": "account",
          "type": "address"
        }
      ],
      "name": "Unpaused",
      "type": "event"
    },
    {
      "inputs": [],
      "name": "DEFAULT_ADMIN_ROLE",
      "outputs": [
        {
          "internalType": "bytes32",
          "name": "",
          "type": "bytes32"
        }
      ],
      "stateMutability": "view",
      "type": "function"
    },
    {
      "inputs": [
        {
          "internalType": "address",
          "name": "_token",
          "type": "address"
        }
      ],
      "name": "addPool",
      "outputs": [],
      "stateMutability": "nonpayable",
      "type": "function"
    },
    {
      "inputs": [],
      "name": "capl",
      "outputs": [
        {
          "internalType": "address",
          "name": "",
          "type": "address"
        }
      ],
      "stateMutability": "view",
      "type": "function"
    },
    {
      "inputs": [
        {
          "internalType": "address",
          "name": "_token",
          "type": "address"
        }
      ],
      "name": "claimRewards",
      "outputs": [],
      "stateMutability": "nonpayable",
      "type": "function"
    },
    {
      "inputs": [
        {
          "internalType": "address",
          "name": "_token",
          "type": "address"
        },
        {
          "internalType": "uint256",
          "name": "_amount",
          "type": "uint256"
        }
      ],
      "name": "depositStake",
      "outputs": [],
      "stateMutability": "nonpayable",
      "type": "function"
    },
    {
      "inputs": [
        {
          "internalType": "address",
          "name": "_token",
          "type": "address"
        },
        {
          "internalType": "uint256",
          "name": "_amount",
          "type": "uint256"
        }
      ],
      "name": "depositStakeNew",
      "outputs": [],
      "stateMutability": "nonpayable",
      "type": "function"
    },
    {
      "inputs": [],
      "name": "getPools",
      "outputs": [],
      "stateMutability": "nonpayable",
      "type": "function"
    },
    {
      "inputs": [
        {
          "internalType": "bytes32",
          "name": "role",
          "type": "bytes32"
        }
      ],
      "name": "getRoleAdmin",
      "outputs": [
        {
          "internalType": "bytes32",
          "name": "",
          "type": "bytes32"
        }
      ],
      "stateMutability": "view",
      "type": "function"
    },
    {
      "inputs": [],
      "name": "getUserInfo",
      "outputs": [
        {
          "components": [
            {
              "internalType": "uint256",
              "name": "pendingRewards",
              "type": "uint256"
            },
            {
              "internalType": "uint256",
              "name": "rewardDebt",
              "type": "uint256"
            },
            {
              "internalType": "uint256",
              "name": "claimedRewards",
              "type": "uint256"
            },
            {
              "internalType": "uint256[]",
              "name": "stakeKeys",
              "type": "uint256[]"
            }
          ],
          "internalType": "struct RewardsV2.User",
          "name": "",
          "type": "tuple"
        }
      ],
      "stateMutability": "nonpayable",
      "type": "function"
    },
    {
      "inputs": [
        {
          "internalType": "bytes32",
          "name": "role",
          "type": "bytes32"
        },
        {
          "internalType": "address",
          "name": "account",
          "type": "address"
        }
      ],
      "name": "grantRole",
      "outputs": [],
      "stateMutability": "nonpayable",
      "type": "function"
    },
    {
      "inputs": [
        {
          "internalType": "bytes32",
          "name": "role",
          "type": "bytes32"
        },
        {
          "internalType": "address",
          "name": "account",
          "type": "address"
        }
      ],
      "name": "hasRole",
      "outputs": [
        {
          "internalType": "bool",
          "name": "",
          "type": "bool"
        }
      ],
      "stateMutability": "view",
      "type": "function"
    },
    {
      "inputs": [],
      "name": "lockingThreshold",
      "outputs": [
        {
          "internalType": "uint256",
          "name": "",
          "type": "uint256"
        }
      ],
      "stateMutability": "view",
      "type": "function"
    },
    {
      "inputs": [],
      "name": "paused",
      "outputs": [
        {
          "internalType": "bool",
          "name": "",
          "type": "bool"
        }
      ],
      "stateMutability": "view",
      "type": "function"
    },
    {
      "inputs": [
        {
          "internalType": "bytes32",
          "name": "role",
          "type": "bytes32"
        },
        {
          "internalType": "address",
          "name": "account",
          "type": "address"
        }
      ],
      "name": "renounceRole",
      "outputs": [],
      "stateMutability": "nonpayable",
      "type": "function"
    },
    {
      "inputs": [
        {
          "internalType": "bytes32",
          "name": "role",
          "type": "bytes32"
        },
        {
          "internalType": "address",
          "name": "account",
          "type": "address"
        }
      ],
      "name": "revokeRole",
      "outputs": [],
      "stateMutability": "nonpayable",
      "type": "function"
    },
    {
      "inputs": [
        {
          "internalType": "address",
          "name": "_token",
          "type": "address"
        },
        {
          "internalType": "uint256",
          "name": "_stakeId",
          "type": "uint256"
        }
      ],
      "name": "setStaticLock",
      "outputs": [],
      "stateMutability": "nonpayable",
      "type": "function"
    },
    {
      "inputs": [
        {
          "internalType": "bytes4",
          "name": "interfaceId",
          "type": "bytes4"
        }
      ],
      "name": "supportsInterface",
      "outputs": [
        {
          "internalType": "bool",
          "name": "",
          "type": "bool"
        }
      ],
      "stateMutability": "view",
      "type": "function"
    },
    {
      "inputs": [
        {
          "internalType": "address",
          "name": "_token",
          "type": "address"
        }
      ],
      "name": "unclaimedRewards",
      "outputs": [],
      "stateMutability": "nonpayable",
      "type": "function"
    },
    {
      "inputs": [
        {
          "internalType": "uint256",
          "name": "_duration",
          "type": "uint256"
        }
      ],
      "name": "updateTimelockDuration",
      "outputs": [],
      "stateMutability": "nonpayable",
      "type": "function"
    },
    {
      "inputs": [
        {
          "internalType": "address",
          "name": "_token",
          "type": "address"
        }
      ],
      "name": "withdrawAllStake",
      "outputs": [],
      "stateMutability": "nonpayable",
      "type": "function"
    },
    {
      "inputs": [
        {
          "internalType": "address",
          "name": "_destination",
          "type": "address"
        }
      ],
      "name": "withdrawMATIC",
      "outputs": [],
      "stateMutability": "nonpayable",
      "type": "function"
    },
    {
      "inputs": [
        {
          "internalType": "address",
          "name": "_token",
          "type": "address"
        },
        {
          "internalType": "uint256",
          "name": "_stake",
          "type": "uint256"
        },
        {
          "internalType": "uint256",
          "name": "_amount",
          "type": "uint256"
        }
      ],
      "name": "withdrawStake",
      "outputs": [],
      "stateMutability": "nonpayable",
      "type": "function"
    },
    {
      "inputs": [
        {
          "internalType": "address",
          "name": "_token",
          "type": "address"
        },
        {
          "internalType": "uint256",
          "name": "_amount",
          "type": "uint256"
        },
        {
          "internalType": "address",
          "name": "_destination",
          "type": "address"
        }
      ],
      "name": "withdrawToken",
      "outputs": [],
      "stateMutability": "nonpayable",
      "type": "function"
    }
  ],
  "bytecode": "0x608060405263082bdcb46004553480156200001957600080fd5b50604051620022c3380380620022c383398181016040528101906200003f9190620002db565b60008060006101000a81548160ff02191690831515021790555080600660006101000a81548173ffffffffffffffffffffffffffffffffffffffff021916908373ffffffffffffffffffffffffffffffffffffffff16021790555080600760006101000a81548173ffffffffffffffffffffffffffffffffffffffff021916908373ffffffffffffffffffffffffffffffffffffffff160217905550620000f06000801b33620000f760201b60201c565b506200030d565b6200010982826200010d60201b60201c565b5050565b6200011f8282620001fe60201b60201c565b620001fa57600180600084815260200190815260200160002060000160008373ffffffffffffffffffffffffffffffffffffffff1673ffffffffffffffffffffffffffffffffffffffff16815260200190815260200160002060006101000a81548160ff0219169083151502179055506200019f6200026960201b60201c565b73ffffffffffffffffffffffffffffffffffffffff168173ffffffffffffffffffffffffffffffffffffffff16837f2f8788117e7eff1d82e926ec794901d17c78024a50270940304540a733656f0d60405160405180910390a45b5050565b60006001600084815260200190815260200160002060000160008373ffffffffffffffffffffffffffffffffffffffff1673ffffffffffffffffffffffffffffffffffffffff16815260200190815260200160002060009054906101000a900460ff16905092915050565b600033905090565b600080fd5b600073ffffffffffffffffffffffffffffffffffffffff82169050919050565b6000620002a38262000276565b9050919050565b620002b58162000296565b8114620002c157600080fd5b50565b600081519050620002d581620002aa565b92915050565b600060208284031215620002f457620002f362000271565b5b60006200030484828501620002c4565b91505092915050565b611fa6806200031d6000396000f3fe608060405234801561001057600080fd5b506004361061014d5760003560e01c8063673a2a1f116100c3578063d547741f1161007c578063d547741f14610360578063d914cd4b1461037c578063df67e96214610398578063e7e67e62146103b6578063eef380ad146103d2578063ef5cfb8c146103ee5761014d565b8063673a2a1f146102b457806384957191146102be57806391d14854146102da578063949813b81461030a578063976a9e2214610326578063a217fddf146103425761014d565b806330e7e7431161011557806330e7e7431461020857806336568abe146102245780633ccdbb28146102405780635410f3651461025c5780635c975abb146102785780635d8d1585146102965761014d565b806301ffc9a71461015257806314777cb614610182578063184466c9146101a0578063248a9ca3146101bc5780632f2ff15d146101ec575b600080fd5b61016c60048036038101906101679190611394565b61040a565b60405161017991906113dc565b60405180910390f35b61018a610484565b6040516101979190611410565b60405180910390f35b6101ba60048036038101906101b59190611457565b61048a565b005b6101d660048036038101906101d191906114ba565b61048d565b6040516101e391906114f6565b60405180910390f35b6102066004803603810190610201919061156f565b6104ad565b005b610222600480360381019061021d91906115af565b6104d6565b005b61023e6004803603810190610239919061156f565b6104d9565b005b61025a600480360381019061025591906115dc565b61055c565b005b6102766004803603810190610271919061162f565b610561565b005b610280610565565b60405161028d91906113dc565b60405180910390f35b61029e61057b565b6040516102ab9190611790565b60405180910390f35b6102bc610586565b005b6102d860048036038101906102d391906115af565b610588565b005b6102f460048036038101906102ef919061156f565b61058b565b60405161030191906113dc565b60405180910390f35b610324600480360381019061031f91906115af565b6105f6565b005b610340600480360381019061033b919061162f565b6105f9565b005b61034a6105fd565b60405161035791906114f6565b60405180910390f35b61037a6004803603810190610375919061156f565b610604565b005b610396600480360381019061039191906115af565b61062d565b005b6103a0610630565b6040516103ad91906117c1565b60405180910390f35b6103d060048036038101906103cb91906117dc565b610656565b005b6103ec60048036038101906103e7919061162f565b61065b565b005b610408600480360381019061040391906115af565b610a9f565b005b60007f7965db0b000000000000000000000000000000000000000000000000000000007bffffffffffffffffffffffffffffffffffffffffffffffffffffffff1916827bffffffffffffffffffffffffffffffffffffffffffffffffffffffff1916148061047d575061047c82610aa2565b5b9050919050565b60035481565b50565b600060016000838152602001908152602001600020600101549050919050565b6104b68261048d565b6104c7816104c2610b0c565b610b14565b6104d18383610bb1565b505050565b50565b6104e1610b0c565b73ffffffffffffffffffffffffffffffffffffffff168173ffffffffffffffffffffffffffffffffffffffff161461054e576040517f08c379a0000000000000000000000000000000000000000000000000000000008152600401610545906118b2565b60405180910390fd5b6105588282610c91565b5050565b505050565b5050565b60008060009054906101000a900460ff16905090565b6105836112a5565b90565b565b50565b60006001600084815260200190815260200160002060000160008373ffffffffffffffffffffffffffffffffffffffff1673ffffffffffffffffffffffffffffffffffffffff16815260200190815260200160002060009054906101000a900460ff16905092915050565b50565b5050565b6000801b81565b61060d8261048d565b61061e81610619610b0c565b610b14565b6106288383610c91565b505050565b50565b600260009054906101000a900473ffffffffffffffffffffffffffffffffffffffff1681565b505050565b600760009054906101000a900473ffffffffffffffffffffffffffffffffffffffff1673ffffffffffffffffffffffffffffffffffffffff1663999126d7836040518263ffffffff1660e01b81526004016106b691906117c1565b6020604051808303816000875af11580156106d5573d6000803e3d6000fd5b505050506040513d601f19601f820116820180604052508101906106f991906118fe565b15610739576040517f08c379a000000000000000000000000000000000000000000000000000000000815260040161073090611977565b60405180910390fd5b60006040518060e00160405280600081526020018473ffffffffffffffffffffffffffffffffffffffff1681526020018381526020014281526020016000815260200160001515815260200160011515815250905060606000604051806080016040528060008152602001600081526020016000815260200183815250905080600860003373ffffffffffffffffffffffffffffffffffffffff1673ffffffffffffffffffffffffffffffffffffffff16815260200190815260200160002060008201518160000155602082015181600101556040820151816002015560608201518160030190805190602001906108329291906112cd565b50905050600860003373ffffffffffffffffffffffffffffffffffffffff1673ffffffffffffffffffffffffffffffffffffffff16815260200190815260200160002060030160009080600181540180825580915050600190039060005260206000200160009091909190915055600560003373ffffffffffffffffffffffffffffffffffffffff1673ffffffffffffffffffffffffffffffffffffffff1681526020019081526020016000208390806001815401808255809150506001900390600052602060002090600602016000909190919091506000820151816000015560208201518160010160006101000a81548173ffffffffffffffffffffffffffffffffffffffff021916908373ffffffffffffffffffffffffffffffffffffffff16021790555060408201518160020155606082015181600301556080820151816004015560a08201518160050160006101000a81548160ff02191690831515021790555060c08201518160050160016101000a81548160ff0219169083151502179055505050610a0933600660009054906101000a900473ffffffffffffffffffffffffffffffffffffffff16868873ffffffffffffffffffffffffffffffffffffffff16610d73909392919063ffffffff16565b600760009054906101000a900473ffffffffffffffffffffffffffffffffffffffff1673ffffffffffffffffffffffffffffffffffffffff166332a9caba86866040518363ffffffff1660e01b8152600401610a66929190611997565b600060405180830381600087803b158015610a8057600080fd5b505af1158015610a94573d6000803e3d6000fd5b505050505050505050565b50565b60007f01ffc9a7000000000000000000000000000000000000000000000000000000007bffffffffffffffffffffffffffffffffffffffffffffffffffffffff1916827bffffffffffffffffffffffffffffffffffffffffffffffffffffffff1916149050919050565b600033905090565b610b1e828261058b565b610bad57610b438173ffffffffffffffffffffffffffffffffffffffff166014610dfc565b610b518360001c6020610dfc565b604051602001610b62929190611ad2565b6040516020818303038152906040526040517f08c379a0000000000000000000000000000000000000000000000000000000008152600401610ba49190611b56565b60405180910390fd5b5050565b610bbb828261058b565b610c8d57600180600084815260200190815260200160002060000160008373ffffffffffffffffffffffffffffffffffffffff1673ffffffffffffffffffffffffffffffffffffffff16815260200190815260200160002060006101000a81548160ff021916908315150217905550610c32610b0c565b73ffffffffffffffffffffffffffffffffffffffff168173ffffffffffffffffffffffffffffffffffffffff16837f2f8788117e7eff1d82e926ec794901d17c78024a50270940304540a733656f0d60405160405180910390a45b5050565b610c9b828261058b565b15610d6f5760006001600084815260200190815260200160002060000160008373ffffffffffffffffffffffffffffffffffffffff1673ffffffffffffffffffffffffffffffffffffffff16815260200190815260200160002060006101000a81548160ff021916908315150217905550610d14610b0c565b73ffffffffffffffffffffffffffffffffffffffff168173ffffffffffffffffffffffffffffffffffffffff16837ff6391f5c32d9c69d2a47ea670b442974b53935d1edc7fd64eb21e047a839171b60405160405180910390a45b5050565b610df6846323b872dd60e01b858585604051602401610d9493929190611b78565b604051602081830303815290604052907bffffffffffffffffffffffffffffffffffffffffffffffffffffffff19166020820180517bffffffffffffffffffffffffffffffffffffffffffffffffffffffff8381831617835250505050611038565b50505050565b606060006002836002610e0f9190611bde565b610e199190611c38565b67ffffffffffffffff811115610e3257610e31611c8e565b5b6040519080825280601f01601f191660200182016040528015610e645781602001600182028036833780820191505090505b5090507f300000000000000000000000000000000000000000000000000000000000000081600081518110610e9c57610e9b611cbd565b5b60200101907effffffffffffffffffffffffffffffffffffffffffffffffffffffffffffff1916908160001a9053507f780000000000000000000000000000000000000000000000000000000000000081600181518110610f0057610eff611cbd565b5b60200101907effffffffffffffffffffffffffffffffffffffffffffffffffffffffffffff1916908160001a90535060006001846002610f409190611bde565b610f4a9190611c38565b90505b6001811115610fea577f3031323334353637383961626364656600000000000000000000000000000000600f861660108110610f8c57610f8b611cbd565b5b1a60f81b828281518110610fa357610fa2611cbd565b5b60200101907effffffffffffffffffffffffffffffffffffffffffffffffffffffffffffff1916908160001a905350600485901c945080610fe390611cec565b9050610f4d565b506000841461102e576040517f08c379a000000000000000000000000000000000000000000000000000000000815260040161102590611d62565b60405180910390fd5b8091505092915050565b600061109a826040518060400160405280602081526020017f5361666545524332303a206c6f772d6c6576656c2063616c6c206661696c65648152508573ffffffffffffffffffffffffffffffffffffffff166110ff9092919063ffffffff16565b90506000815111156110fa57808060200190518101906110ba91906118fe565b6110f9576040517f08c379a00000000000000000000000000000000000000000000000000000000081526004016110f090611df4565b60405180910390fd5b5b505050565b606061110e8484600085611117565b90509392505050565b60608247101561115c576040517f08c379a000000000000000000000000000000000000000000000000000000000815260040161115390611e86565b60405180910390fd5b6111658561122b565b6111a4576040517f08c379a000000000000000000000000000000000000000000000000000000000815260040161119b90611ef2565b60405180910390fd5b6000808673ffffffffffffffffffffffffffffffffffffffff1685876040516111cd9190611f59565b60006040518083038185875af1925050503d806000811461120a576040519150601f19603f3d011682016040523d82523d6000602084013e61120f565b606091505b509150915061121f82828661123e565b92505050949350505050565b600080823b905060008111915050919050565b6060831561124e5782905061129e565b6000835111156112615782518084602001fd5b816040517f08c379a00000000000000000000000000000000000000000000000000000000081526004016112959190611b56565b60405180910390fd5b9392505050565b6040518060800160405280600081526020016000815260200160008152602001606081525090565b828054828255906000526020600020908101928215611309579160200282015b828111156113085782518255916020019190600101906112ed565b5b509050611316919061131a565b5090565b5b8082111561133357600081600090555060010161131b565b5090565b600080fd5b60007fffffffff0000000000000000000000000000000000000000000000000000000082169050919050565b6113718161133c565b811461137c57600080fd5b50565b60008135905061138e81611368565b92915050565b6000602082840312156113aa576113a9611337565b5b60006113b88482850161137f565b91505092915050565b60008115159050919050565b6113d6816113c1565b82525050565b60006020820190506113f160008301846113cd565b92915050565b6000819050919050565b61140a816113f7565b82525050565b60006020820190506114256000830184611401565b92915050565b611434816113f7565b811461143f57600080fd5b50565b6000813590506114518161142b565b92915050565b60006020828403121561146d5761146c611337565b5b600061147b84828501611442565b91505092915050565b6000819050919050565b61149781611484565b81146114a257600080fd5b50565b6000813590506114b48161148e565b92915050565b6000602082840312156114d0576114cf611337565b5b60006114de848285016114a5565b91505092915050565b6114f081611484565b82525050565b600060208201905061150b60008301846114e7565b92915050565b600073ffffffffffffffffffffffffffffffffffffffff82169050919050565b600061153c82611511565b9050919050565b61154c81611531565b811461155757600080fd5b50565b60008135905061156981611543565b92915050565b6000806040838503121561158657611585611337565b5b6000611594858286016114a5565b92505060206115a58582860161155a565b9150509250929050565b6000602082840312156115c5576115c4611337565b5b60006115d38482850161155a565b91505092915050565b6000806000606084860312156115f5576115f4611337565b5b60006116038682870161155a565b935050602061161486828701611442565b92505060406116258682870161155a565b9150509250925092565b6000806040838503121561164657611645611337565b5b60006116548582860161155a565b925050602061166585828601611442565b9150509250929050565b611678816113f7565b82525050565b600081519050919050565b600082825260208201905092915050565b6000819050602082019050919050565b60006116b6838361166f565b60208301905092915050565b6000602082019050919050565b60006116da8261167e565b6116e48185611689565b93506116ef8361169a565b8060005b8381101561172057815161170788826116aa565b9750611712836116c2565b9250506001810190506116f3565b5085935050505092915050565b6000608083016000830151611745600086018261166f565b506020830151611758602086018261166f565b50604083015161176b604086018261166f565b506060830151848203606086015261178382826116cf565b9150508091505092915050565b600060208201905081810360008301526117aa818461172d565b905092915050565b6117bb81611531565b82525050565b60006020820190506117d660008301846117b2565b92915050565b6000806000606084860312156117f5576117f4611337565b5b60006118038682870161155a565b935050602061181486828701611442565b925050604061182586828701611442565b9150509250925092565b600082825260208201905092915050565b7f416363657373436f6e74726f6c3a2063616e206f6e6c792072656e6f756e636560008201527f20726f6c657320666f722073656c660000000000000000000000000000000000602082015250565b600061189c602f8361182f565b91506118a782611840565b604082019050919050565b600060208201905081810360008301526118cb8161188f565b9050919050565b6118db816113c1565b81146118e657600080fd5b50565b6000815190506118f8816118d2565b92915050565b60006020828403121561191457611913611337565b5b6000611922848285016118e9565b91505092915050565b7f5468697320706f6f6c20616c7265616479206578697374732e00000000000000600082015250565b600061196160198361182f565b915061196c8261192b565b602082019050919050565b6000602082019050818103600083015261199081611954565b9050919050565b60006040820190506119ac60008301856117b2565b6119b96020830184611401565b9392505050565b600081905092915050565b7f416363657373436f6e74726f6c3a206163636f756e7420000000000000000000600082015250565b6000611a016017836119c0565b9150611a0c826119cb565b601782019050919050565b600081519050919050565b60005b83811015611a40578082015181840152602081019050611a25565b83811115611a4f576000848401525b50505050565b6000611a6082611a17565b611a6a81856119c0565b9350611a7a818560208601611a22565b80840191505092915050565b7f206973206d697373696e6720726f6c6520000000000000000000000000000000600082015250565b6000611abc6011836119c0565b9150611ac782611a86565b601182019050919050565b6000611add826119f4565b9150611ae98285611a55565b9150611af482611aaf565b9150611b008284611a55565b91508190509392505050565b6000601f19601f8301169050919050565b6000611b2882611a17565b611b32818561182f565b9350611b42818560208601611a22565b611b4b81611b0c565b840191505092915050565b60006020820190508181036000830152611b708184611b1d565b905092915050565b6000606082019050611b8d60008301866117b2565b611b9a60208301856117b2565b611ba76040830184611401565b949350505050565b7f4e487b7100000000000000000000000000000000000000000000000000000000600052601160045260246000fd5b6000611be9826113f7565b9150611bf4836113f7565b9250817fffffffffffffffffffffffffffffffffffffffffffffffffffffffffffffffff0483118215151615611c2d57611c2c611baf565b5b828202905092915050565b6000611c43826113f7565b9150611c4e836113f7565b9250827fffffffffffffffffffffffffffffffffffffffffffffffffffffffffffffffff03821115611c8357611c82611baf565b5b828201905092915050565b7f4e487b7100000000000000000000000000000000000000000000000000000000600052604160045260246000fd5b7f4e487b7100000000000000000000000000000000000000000000000000000000600052603260045260246000fd5b6000611cf7826113f7565b91506000821415611d0b57611d0a611baf565b5b600182039050919050565b7f537472696e67733a20686578206c656e67746820696e73756666696369656e74600082015250565b6000611d4c60208361182f565b9150611d5782611d16565b602082019050919050565b60006020820190508181036000830152611d7b81611d3f565b9050919050565b7f5361666545524332303a204552433230206f7065726174696f6e20646964206e60008201527f6f74207375636365656400000000000000000000000000000000000000000000602082015250565b6000611dde602a8361182f565b9150611de982611d82565b604082019050919050565b60006020820190508181036000830152611e0d81611dd1565b9050919050565b7f416464726573733a20696e73756666696369656e742062616c616e636520666f60008201527f722063616c6c0000000000000000000000000000000000000000000000000000602082015250565b6000611e7060268361182f565b9150611e7b82611e14565b604082019050919050565b60006020820190508181036000830152611e9f81611e63565b9050919050565b7f416464726573733a2063616c6c20746f206e6f6e2d636f6e7472616374000000600082015250565b6000611edc601d8361182f565b9150611ee782611ea6565b602082019050919050565b60006020820190508181036000830152611f0b81611ecf565b9050919050565b600081519050919050565b600081905092915050565b6000611f3382611f12565b611f3d8185611f1d565b9350611f4d818560208601611a22565b80840191505092915050565b6000611f658284611f28565b91508190509291505056fea264697066735822122073eba54e9f04e07be3952ccb9e7ea6696d3e6aabbfa797fb8de48e003e93c4b864736f6c634300080b0033",
  "linkReferences": {},
  "deployedLinkReferences": {}
}