{
  "_format": "hh-sol-artifact-1",
  "contractName": "RewardsV2",
  "sourceName": "contracts/RewardsV2.sol",
  "abi": [
    {
      "inputs": [
        {
          "internalType": "address",
          "name": "_vault",
          "type": "address"
        }
      ],
      "stateMutability": "nonpayable",
      "type": "constructor"
    },
    {
      "anonymous": false,
      "inputs": [
        {
          "indexed": false,
          "internalType": "address",
          "name": "account",
          "type": "address"
        }
      ],
      "name": "Paused",
      "type": "event"
    },
    {
      "anonymous": false,
      "inputs": [
        {
          "indexed": true,
          "internalType": "bytes32",
          "name": "role",
          "type": "bytes32"
        },
        {
          "indexed": true,
          "internalType": "bytes32",
          "name": "previousAdminRole",
          "type": "bytes32"
        },
        {
          "indexed": true,
          "internalType": "bytes32",
          "name": "newAdminRole",
          "type": "bytes32"
        }
      ],
      "name": "RoleAdminChanged",
      "type": "event"
    },
    {
      "anonymous": false,
      "inputs": [
        {
          "indexed": true,
          "internalType": "bytes32",
          "name": "role",
          "type": "bytes32"
        },
        {
          "indexed": true,
          "internalType": "address",
          "name": "account",
          "type": "address"
        },
        {
          "indexed": true,
          "internalType": "address",
          "name": "sender",
          "type": "address"
        }
      ],
      "name": "RoleGranted",
      "type": "event"
    },
    {
      "anonymous": false,
      "inputs": [
        {
          "indexed": true,
          "internalType": "bytes32",
          "name": "role",
          "type": "bytes32"
        },
        {
          "indexed": true,
          "internalType": "address",
          "name": "account",
          "type": "address"
        },
        {
          "indexed": true,
          "internalType": "address",
          "name": "sender",
          "type": "address"
        }
      ],
      "name": "RoleRevoked",
      "type": "event"
    },
    {
      "anonymous": false,
      "inputs": [
        {
          "indexed": false,
          "internalType": "address",
          "name": "account",
          "type": "address"
        }
      ],
      "name": "Unpaused",
      "type": "event"
    },
    {
      "inputs": [],
      "name": "DEFAULT_ADMIN_ROLE",
      "outputs": [
        {
          "internalType": "bytes32",
          "name": "",
          "type": "bytes32"
        }
      ],
      "stateMutability": "view",
      "type": "function"
    },
    {
      "inputs": [
        {
          "internalType": "address",
          "name": "_token",
          "type": "address"
        }
      ],
      "name": "addPool",
      "outputs": [],
      "stateMutability": "nonpayable",
      "type": "function"
    },
    {
      "inputs": [],
      "name": "capl",
      "outputs": [
        {
          "internalType": "address",
          "name": "",
          "type": "address"
        }
      ],
      "stateMutability": "view",
      "type": "function"
    },
    {
      "inputs": [
        {
          "internalType": "address",
          "name": "_token",
          "type": "address"
        }
      ],
      "name": "claimRewards",
      "outputs": [],
      "stateMutability": "nonpayable",
      "type": "function"
    },
    {
      "inputs": [
        {
          "internalType": "address",
          "name": "_token",
          "type": "address"
        },
        {
          "internalType": "uint256",
          "name": "_amount",
          "type": "uint256"
        }
      ],
      "name": "depositStake",
      "outputs": [],
      "stateMutability": "nonpayable",
      "type": "function"
    },
    {
      "inputs": [
        {
          "internalType": "address",
          "name": "_token",
          "type": "address"
        },
        {
          "internalType": "uint256",
          "name": "_amount",
          "type": "uint256"
        }
      ],
      "name": "depositStakeNew",
      "outputs": [],
      "stateMutability": "nonpayable",
      "type": "function"
    },
    {
      "inputs": [],
      "name": "getPools",
      "outputs": [],
      "stateMutability": "nonpayable",
      "type": "function"
    },
    {
      "inputs": [
        {
          "internalType": "bytes32",
          "name": "role",
          "type": "bytes32"
        }
      ],
      "name": "getRoleAdmin",
      "outputs": [
        {
          "internalType": "bytes32",
          "name": "",
          "type": "bytes32"
        }
      ],
      "stateMutability": "view",
      "type": "function"
    },
    {
      "inputs": [],
      "name": "getUserInfo",
      "outputs": [
        {
          "components": [
            {
              "internalType": "uint256",
              "name": "pendingRewards",
              "type": "uint256"
            },
            {
              "internalType": "uint256",
              "name": "rewardDebt",
              "type": "uint256"
            },
            {
              "internalType": "uint256",
              "name": "claimedRewards",
              "type": "uint256"
            },
            {
              "internalType": "uint256[]",
              "name": "stakeKeys",
              "type": "uint256[]"
            }
          ],
          "internalType": "struct RewardsV2.User",
          "name": "",
          "type": "tuple"
        }
      ],
      "stateMutability": "nonpayable",
      "type": "function"
    },
    {
      "inputs": [
        {
          "internalType": "bytes32",
          "name": "role",
          "type": "bytes32"
        },
        {
          "internalType": "address",
          "name": "account",
          "type": "address"
        }
      ],
      "name": "grantRole",
      "outputs": [],
      "stateMutability": "nonpayable",
      "type": "function"
    },
    {
      "inputs": [
        {
          "internalType": "bytes32",
          "name": "role",
          "type": "bytes32"
        },
        {
          "internalType": "address",
          "name": "account",
          "type": "address"
        }
      ],
      "name": "hasRole",
      "outputs": [
        {
          "internalType": "bool",
          "name": "",
          "type": "bool"
        }
      ],
      "stateMutability": "view",
      "type": "function"
    },
    {
      "inputs": [],
      "name": "lockingThreshold",
      "outputs": [
        {
          "internalType": "uint256",
          "name": "",
          "type": "uint256"
        }
      ],
      "stateMutability": "view",
      "type": "function"
    },
    {
      "inputs": [],
      "name": "paused",
      "outputs": [
        {
          "internalType": "bool",
          "name": "",
          "type": "bool"
        }
      ],
      "stateMutability": "view",
      "type": "function"
    },
    {
      "inputs": [
        {
          "internalType": "bytes32",
          "name": "role",
          "type": "bytes32"
        },
        {
          "internalType": "address",
          "name": "account",
          "type": "address"
        }
      ],
      "name": "renounceRole",
      "outputs": [],
      "stateMutability": "nonpayable",
      "type": "function"
    },
    {
      "inputs": [
        {
          "internalType": "bytes32",
          "name": "role",
          "type": "bytes32"
        },
        {
          "internalType": "address",
          "name": "account",
          "type": "address"
        }
      ],
      "name": "revokeRole",
      "outputs": [],
      "stateMutability": "nonpayable",
      "type": "function"
    },
    {
      "inputs": [
        {
          "internalType": "address",
          "name": "_token",
          "type": "address"
        },
        {
          "internalType": "uint256",
          "name": "_stakeId",
          "type": "uint256"
        }
      ],
      "name": "setStaticLock",
      "outputs": [],
      "stateMutability": "nonpayable",
      "type": "function"
    },
    {
      "inputs": [
        {
          "internalType": "bytes4",
          "name": "interfaceId",
          "type": "bytes4"
        }
      ],
      "name": "supportsInterface",
      "outputs": [
        {
          "internalType": "bool",
          "name": "",
          "type": "bool"
        }
      ],
      "stateMutability": "view",
      "type": "function"
    },
    {
      "inputs": [
        {
          "internalType": "address",
          "name": "_token",
          "type": "address"
        }
      ],
      "name": "unclaimedRewards",
      "outputs": [],
      "stateMutability": "nonpayable",
      "type": "function"
    },
    {
      "inputs": [
        {
          "internalType": "uint256",
          "name": "_duration",
          "type": "uint256"
        }
      ],
      "name": "updateTimelockDuration",
      "outputs": [],
      "stateMutability": "nonpayable",
      "type": "function"
    },
    {
      "inputs": [
        {
          "internalType": "address",
          "name": "_token",
          "type": "address"
        }
      ],
      "name": "withdrawAllStake",
      "outputs": [],
      "stateMutability": "nonpayable",
      "type": "function"
    },
    {
      "inputs": [
        {
          "internalType": "address",
          "name": "_destination",
          "type": "address"
        }
      ],
      "name": "withdrawMATIC",
      "outputs": [],
      "stateMutability": "nonpayable",
      "type": "function"
    },
    {
      "inputs": [
        {
          "internalType": "address",
          "name": "_token",
          "type": "address"
        },
        {
          "internalType": "uint256",
          "name": "_stake",
          "type": "uint256"
        },
        {
          "internalType": "uint256",
          "name": "_amount",
          "type": "uint256"
        }
      ],
      "name": "withdrawStake",
      "outputs": [],
      "stateMutability": "nonpayable",
      "type": "function"
    },
    {
      "inputs": [
        {
          "internalType": "address",
          "name": "_token",
          "type": "address"
        },
        {
          "internalType": "uint256",
          "name": "_amount",
          "type": "uint256"
        },
        {
          "internalType": "address",
          "name": "_destination",
          "type": "address"
        }
      ],
      "name": "withdrawToken",
      "outputs": [],
      "stateMutability": "nonpayable",
      "type": "function"
    }
  ],
  "bytecode": "0x608060405263082bdcb46004553480156200001957600080fd5b50604051620025553803806200255583398181016040528101906200003f9190620002db565b60008060006101000a81548160ff02191690831515021790555080600660006101000a81548173ffffffffffffffffffffffffffffffffffffffff021916908373ffffffffffffffffffffffffffffffffffffffff16021790555080600760006101000a81548173ffffffffffffffffffffffffffffffffffffffff021916908373ffffffffffffffffffffffffffffffffffffffff160217905550620000f06000801b33620000f760201b60201c565b506200030d565b6200010982826200010d60201b60201c565b5050565b6200011f8282620001fe60201b60201c565b620001fa57600180600084815260200190815260200160002060000160008373ffffffffffffffffffffffffffffffffffffffff1673ffffffffffffffffffffffffffffffffffffffff16815260200190815260200160002060006101000a81548160ff0219169083151502179055506200019f6200026960201b60201c565b73ffffffffffffffffffffffffffffffffffffffff168173ffffffffffffffffffffffffffffffffffffffff16837f2f8788117e7eff1d82e926ec794901d17c78024a50270940304540a733656f0d60405160405180910390a45b5050565b60006001600084815260200190815260200160002060000160008373ffffffffffffffffffffffffffffffffffffffff1673ffffffffffffffffffffffffffffffffffffffff16815260200190815260200160002060009054906101000a900460ff16905092915050565b600033905090565b600080fd5b600073ffffffffffffffffffffffffffffffffffffffff82169050919050565b6000620002a38262000276565b9050919050565b620002b58162000296565b8114620002c157600080fd5b50565b600081519050620002d581620002aa565b92915050565b600060208284031215620002f457620002f362000271565b5b60006200030484828501620002c4565b91505092915050565b612238806200031d6000396000f3fe608060405234801561001057600080fd5b506004361061014d5760003560e01c8063673a2a1f116100c3578063d547741f1161007c578063d547741f14610360578063d914cd4b1461037c578063df67e96214610398578063e7e67e62146103b6578063eef380ad146103d2578063ef5cfb8c146103ee5761014d565b8063673a2a1f146102b457806384957191146102be57806391d14854146102da578063949813b81461030a578063976a9e2214610326578063a217fddf146103425761014d565b806330e7e7431161011557806330e7e7431461020857806336568abe146102245780633ccdbb28146102405780635410f3651461025c5780635c975abb146102785780635d8d1585146102965761014d565b806301ffc9a71461015257806314777cb614610182578063184466c9146101a0578063248a9ca3146101bc5780632f2ff15d146101ec575b600080fd5b61016c60048036038101906101679190611529565b61040a565b6040516101799190611571565b60405180910390f35b61018a610484565b60405161019791906115a5565b60405180910390f35b6101ba60048036038101906101b591906115ec565b61048a565b005b6101d660048036038101906101d1919061164f565b61048d565b6040516101e3919061168b565b60405180910390f35b61020660048036038101906102019190611704565b6104ad565b005b610222600480360381019061021d9190611744565b6104d6565b005b61023e60048036038101906102399190611704565b6104d9565b005b61025a60048036038101906102559190611771565b61055c565b005b610276600480360381019061027191906117c4565b610561565b005b610280610565565b60405161028d9190611571565b60405180910390f35b61029e61057b565b6040516102ab9190611925565b60405180910390f35b6102bc610586565b005b6102d860048036038101906102d39190611744565b610588565b005b6102f460048036038101906102ef9190611704565b61058b565b6040516103019190611571565b60405180910390f35b610324600480360381019061031f9190611744565b6105f6565b005b610340600480360381019061033b91906117c4565b6105f9565b005b61034a6105fd565b604051610357919061168b565b60405180910390f35b61037a60048036038101906103759190611704565b610604565b005b61039660048036038101906103919190611744565b61062d565b005b6103a0610630565b6040516103ad9190611956565b60405180910390f35b6103d060048036038101906103cb9190611971565b610656565b005b6103ec60048036038101906103e791906117c4565b61065b565b005b61040860048036038101906104039190611744565b610ae5565b005b60007f7965db0b000000000000000000000000000000000000000000000000000000007bffffffffffffffffffffffffffffffffffffffffffffffffffffffff1916827bffffffffffffffffffffffffffffffffffffffffffffffffffffffff1916148061047d575061047c82610ae8565b5b9050919050565b60035481565b50565b600060016000838152602001908152602001600020600101549050919050565b6104b68261048d565b6104c7816104c2610b52565b610b5a565b6104d18383610bf7565b505050565b50565b6104e1610b52565b73ffffffffffffffffffffffffffffffffffffffff168173ffffffffffffffffffffffffffffffffffffffff161461054e576040517f08c379a000000000000000000000000000000000000000000000000000000000815260040161054590611a47565b60405180910390fd5b6105588282610cd7565b5050565b505050565b5050565b60008060009054906101000a900460ff16905090565b61058361143a565b90565b565b50565b60006001600084815260200190815260200160002060000160008373ffffffffffffffffffffffffffffffffffffffff1673ffffffffffffffffffffffffffffffffffffffff16815260200190815260200160002060009054906101000a900460ff16905092915050565b50565b5050565b6000801b81565b61060d8261048d565b61061e81610619610b52565b610b5a565b6106288383610cd7565b505050565b50565b600260009054906101000a900473ffffffffffffffffffffffffffffffffffffffff1681565b505050565b600760009054906101000a900473ffffffffffffffffffffffffffffffffffffffff1673ffffffffffffffffffffffffffffffffffffffff1663999126d7836040518263ffffffff1660e01b81526004016106b69190611956565b6020604051808303816000875af11580156106d5573d6000803e3d6000fd5b505050506040513d601f19601f820116820180604052508101906106f99190611a93565b15610739576040517f08c379a000000000000000000000000000000000000000000000000000000000815260040161073090611b0c565b60405180910390fd5b60006040518060e00160405280600081526020018473ffffffffffffffffffffffffffffffffffffffff1681526020018381526020014281526020016000815260200160001515815260200160011515815250905060606000604051806080016040528060008152602001600081526020016000815260200183815250905080600860003373ffffffffffffffffffffffffffffffffffffffff1673ffffffffffffffffffffffffffffffffffffffff1681526020019081526020016000206000820151816000015560208201518160010155604082015181600201556060820151816003019080519060200190610832929190611462565b50905050600860003373ffffffffffffffffffffffffffffffffffffffff1673ffffffffffffffffffffffffffffffffffffffff1681526020019081526020016000206003016000908060018154018082558091505060019003906000526020600020016000909190919091505582600560003373ffffffffffffffffffffffffffffffffffffffff1673ffffffffffffffffffffffffffffffffffffffff1681526020019081526020016000206000815481106108f3576108f2611b2c565b5b90600052602060002090600602016000820151816000015560208201518160010160006101000a81548173ffffffffffffffffffffffffffffffffffffffff021916908373ffffffffffffffffffffffffffffffffffffffff16021790555060408201518160020155606082015181600301556080820151816004015560a08201518160050160006101000a81548160ff02191690831515021790555060c08201518160050160016101000a81548160ff021916908315150217905550905050610a00600660009054906101000a900473ffffffffffffffffffffffffffffffffffffffff16858773ffffffffffffffffffffffffffffffffffffffff16610db99092919063ffffffff16565b610a4f33600660009054906101000a900473ffffffffffffffffffffffffffffffffffffffff16868873ffffffffffffffffffffffffffffffffffffffff16610f08909392919063ffffffff16565b600760009054906101000a900473ffffffffffffffffffffffffffffffffffffffff1673ffffffffffffffffffffffffffffffffffffffff166332a9caba86866040518363ffffffff1660e01b8152600401610aac929190611b5b565b600060405180830381600087803b158015610ac657600080fd5b505af1158015610ada573d6000803e3d6000fd5b505050505050505050565b50565b60007f01ffc9a7000000000000000000000000000000000000000000000000000000007bffffffffffffffffffffffffffffffffffffffffffffffffffffffff1916827bffffffffffffffffffffffffffffffffffffffffffffffffffffffff1916149050919050565b600033905090565b610b64828261058b565b610bf357610b898173ffffffffffffffffffffffffffffffffffffffff166014610f91565b610b978360001c6020610f91565b604051602001610ba8929190611c96565b6040516020818303038152906040526040517f08c379a0000000000000000000000000000000000000000000000000000000008152600401610bea9190611d1a565b60405180910390fd5b5050565b610c01828261058b565b610cd357600180600084815260200190815260200160002060000160008373ffffffffffffffffffffffffffffffffffffffff1673ffffffffffffffffffffffffffffffffffffffff16815260200190815260200160002060006101000a81548160ff021916908315150217905550610c78610b52565b73ffffffffffffffffffffffffffffffffffffffff168173ffffffffffffffffffffffffffffffffffffffff16837f2f8788117e7eff1d82e926ec794901d17c78024a50270940304540a733656f0d60405160405180910390a45b5050565b610ce1828261058b565b15610db55760006001600084815260200190815260200160002060000160008373ffffffffffffffffffffffffffffffffffffffff1673ffffffffffffffffffffffffffffffffffffffff16815260200190815260200160002060006101000a81548160ff021916908315150217905550610d5a610b52565b73ffffffffffffffffffffffffffffffffffffffff168173ffffffffffffffffffffffffffffffffffffffff16837ff6391f5c32d9c69d2a47ea670b442974b53935d1edc7fd64eb21e047a839171b60405160405180910390a45b5050565b6000811480610e43575060008373ffffffffffffffffffffffffffffffffffffffff1663dd62ed3e30856040518363ffffffff1660e01b8152600401610e00929190611d3c565b602060405180830381865afa158015610e1d573d6000803e3d6000fd5b505050506040513d601f19601f82011682018060405250810190610e419190611d7a565b145b610e82576040517f08c379a0000000000000000000000000000000000000000000000000000000008152600401610e7990611e19565b60405180910390fd5b610f038363095ea7b360e01b8484604051602401610ea1929190611b5b565b604051602081830303815290604052907bffffffffffffffffffffffffffffffffffffffffffffffffffffffff19166020820180517bffffffffffffffffffffffffffffffffffffffffffffffffffffffff83818316178352505050506111cd565b505050565b610f8b846323b872dd60e01b858585604051602401610f2993929190611e39565b604051602081830303815290604052907bffffffffffffffffffffffffffffffffffffffffffffffffffffffff19166020820180517bffffffffffffffffffffffffffffffffffffffffffffffffffffffff83818316178352505050506111cd565b50505050565b606060006002836002610fa49190611e9f565b610fae9190611ef9565b67ffffffffffffffff811115610fc757610fc6611f4f565b5b6040519080825280601f01601f191660200182016040528015610ff95781602001600182028036833780820191505090505b5090507f30000000000000000000000000000000000000000000000000000000000000008160008151811061103157611030611b2c565b5b60200101907effffffffffffffffffffffffffffffffffffffffffffffffffffffffffffff1916908160001a9053507f78000000000000000000000000000000000000000000000000000000000000008160018151811061109557611094611b2c565b5b60200101907effffffffffffffffffffffffffffffffffffffffffffffffffffffffffffff1916908160001a905350600060018460026110d59190611e9f565b6110df9190611ef9565b90505b600181111561117f577f3031323334353637383961626364656600000000000000000000000000000000600f86166010811061112157611120611b2c565b5b1a60f81b82828151811061113857611137611b2c565b5b60200101907effffffffffffffffffffffffffffffffffffffffffffffffffffffffffffff1916908160001a905350600485901c94508061117890611f7e565b90506110e2565b50600084146111c3576040517f08c379a00000000000000000000000000000000000000000000000000000000081526004016111ba90611ff4565b60405180910390fd5b8091505092915050565b600061122f826040518060400160405280602081526020017f5361666545524332303a206c6f772d6c6576656c2063616c6c206661696c65648152508573ffffffffffffffffffffffffffffffffffffffff166112949092919063ffffffff16565b905060008151111561128f578080602001905181019061124f9190611a93565b61128e576040517f08c379a000000000000000000000000000000000000000000000000000000000815260040161128590612086565b60405180910390fd5b5b505050565b60606112a384846000856112ac565b90509392505050565b6060824710156112f1576040517f08c379a00000000000000000000000000000000000000000000000000000000081526004016112e890612118565b60405180910390fd5b6112fa856113c0565b611339576040517f08c379a000000000000000000000000000000000000000000000000000000000815260040161133090612184565b60405180910390fd5b6000808673ffffffffffffffffffffffffffffffffffffffff16858760405161136291906121eb565b60006040518083038185875af1925050503d806000811461139f576040519150601f19603f3d011682016040523d82523d6000602084013e6113a4565b606091505b50915091506113b48282866113d3565b92505050949350505050565b600080823b905060008111915050919050565b606083156113e357829050611433565b6000835111156113f65782518084602001fd5b816040517f08c379a000000000000000000000000000000000000000000000000000000000815260040161142a9190611d1a565b60405180910390fd5b9392505050565b6040518060800160405280600081526020016000815260200160008152602001606081525090565b82805482825590600052602060002090810192821561149e579160200282015b8281111561149d578251825591602001919060010190611482565b5b5090506114ab91906114af565b5090565b5b808211156114c85760008160009055506001016114b0565b5090565b600080fd5b60007fffffffff0000000000000000000000000000000000000000000000000000000082169050919050565b611506816114d1565b811461151157600080fd5b50565b600081359050611523816114fd565b92915050565b60006020828403121561153f5761153e6114cc565b5b600061154d84828501611514565b91505092915050565b60008115159050919050565b61156b81611556565b82525050565b60006020820190506115866000830184611562565b92915050565b6000819050919050565b61159f8161158c565b82525050565b60006020820190506115ba6000830184611596565b92915050565b6115c98161158c565b81146115d457600080fd5b50565b6000813590506115e6816115c0565b92915050565b600060208284031215611602576116016114cc565b5b6000611610848285016115d7565b91505092915050565b6000819050919050565b61162c81611619565b811461163757600080fd5b50565b60008135905061164981611623565b92915050565b600060208284031215611665576116646114cc565b5b60006116738482850161163a565b91505092915050565b61168581611619565b82525050565b60006020820190506116a0600083018461167c565b92915050565b600073ffffffffffffffffffffffffffffffffffffffff82169050919050565b60006116d1826116a6565b9050919050565b6116e1816116c6565b81146116ec57600080fd5b50565b6000813590506116fe816116d8565b92915050565b6000806040838503121561171b5761171a6114cc565b5b60006117298582860161163a565b925050602061173a858286016116ef565b9150509250929050565b60006020828403121561175a576117596114cc565b5b6000611768848285016116ef565b91505092915050565b60008060006060848603121561178a576117896114cc565b5b6000611798868287016116ef565b93505060206117a9868287016115d7565b92505060406117ba868287016116ef565b9150509250925092565b600080604083850312156117db576117da6114cc565b5b60006117e9858286016116ef565b92505060206117fa858286016115d7565b9150509250929050565b61180d8161158c565b82525050565b600081519050919050565b600082825260208201905092915050565b6000819050602082019050919050565b600061184b8383611804565b60208301905092915050565b6000602082019050919050565b600061186f82611813565b611879818561181e565b93506118848361182f565b8060005b838110156118b557815161189c888261183f565b97506118a783611857565b925050600181019050611888565b5085935050505092915050565b60006080830160008301516118da6000860182611804565b5060208301516118ed6020860182611804565b5060408301516119006040860182611804565b50606083015184820360608601526119188282611864565b9150508091505092915050565b6000602082019050818103600083015261193f81846118c2565b905092915050565b611950816116c6565b82525050565b600060208201905061196b6000830184611947565b92915050565b60008060006060848603121561198a576119896114cc565b5b6000611998868287016116ef565b93505060206119a9868287016115d7565b92505060406119ba868287016115d7565b9150509250925092565b600082825260208201905092915050565b7f416363657373436f6e74726f6c3a2063616e206f6e6c792072656e6f756e636560008201527f20726f6c657320666f722073656c660000000000000000000000000000000000602082015250565b6000611a31602f836119c4565b9150611a3c826119d5565b604082019050919050565b60006020820190508181036000830152611a6081611a24565b9050919050565b611a7081611556565b8114611a7b57600080fd5b50565b600081519050611a8d81611a67565b92915050565b600060208284031215611aa957611aa86114cc565b5b6000611ab784828501611a7e565b91505092915050565b7f5468697320706f6f6c20616c7265616479206578697374732e00000000000000600082015250565b6000611af66019836119c4565b9150611b0182611ac0565b602082019050919050565b60006020820190508181036000830152611b2581611ae9565b9050919050565b7f4e487b7100000000000000000000000000000000000000000000000000000000600052603260045260246000fd5b6000604082019050611b706000830185611947565b611b7d6020830184611596565b9392505050565b600081905092915050565b7f416363657373436f6e74726f6c3a206163636f756e7420000000000000000000600082015250565b6000611bc5601783611b84565b9150611bd082611b8f565b601782019050919050565b600081519050919050565b60005b83811015611c04578082015181840152602081019050611be9565b83811115611c13576000848401525b50505050565b6000611c2482611bdb565b611c2e8185611b84565b9350611c3e818560208601611be6565b80840191505092915050565b7f206973206d697373696e6720726f6c6520000000000000000000000000000000600082015250565b6000611c80601183611b84565b9150611c8b82611c4a565b601182019050919050565b6000611ca182611bb8565b9150611cad8285611c19565b9150611cb882611c73565b9150611cc48284611c19565b91508190509392505050565b6000601f19601f8301169050919050565b6000611cec82611bdb565b611cf681856119c4565b9350611d06818560208601611be6565b611d0f81611cd0565b840191505092915050565b60006020820190508181036000830152611d348184611ce1565b905092915050565b6000604082019050611d516000830185611947565b611d5e6020830184611947565b9392505050565b600081519050611d74816115c0565b92915050565b600060208284031215611d9057611d8f6114cc565b5b6000611d9e84828501611d65565b91505092915050565b7f5361666545524332303a20617070726f76652066726f6d206e6f6e2d7a65726f60008201527f20746f206e6f6e2d7a65726f20616c6c6f77616e636500000000000000000000602082015250565b6000611e036036836119c4565b9150611e0e82611da7565b604082019050919050565b60006020820190508181036000830152611e3281611df6565b9050919050565b6000606082019050611e4e6000830186611947565b611e5b6020830185611947565b611e686040830184611596565b949350505050565b7f4e487b7100000000000000000000000000000000000000000000000000000000600052601160045260246000fd5b6000611eaa8261158c565b9150611eb58361158c565b9250817fffffffffffffffffffffffffffffffffffffffffffffffffffffffffffffffff0483118215151615611eee57611eed611e70565b5b828202905092915050565b6000611f048261158c565b9150611f0f8361158c565b9250827fffffffffffffffffffffffffffffffffffffffffffffffffffffffffffffffff03821115611f4457611f43611e70565b5b828201905092915050565b7f4e487b7100000000000000000000000000000000000000000000000000000000600052604160045260246000fd5b6000611f898261158c565b91506000821415611f9d57611f9c611e70565b5b600182039050919050565b7f537472696e67733a20686578206c656e67746820696e73756666696369656e74600082015250565b6000611fde6020836119c4565b9150611fe982611fa8565b602082019050919050565b6000602082019050818103600083015261200d81611fd1565b9050919050565b7f5361666545524332303a204552433230206f7065726174696f6e20646964206e60008201527f6f74207375636365656400000000000000000000000000000000000000000000602082015250565b6000612070602a836119c4565b915061207b82612014565b604082019050919050565b6000602082019050818103600083015261209f81612063565b9050919050565b7f416464726573733a20696e73756666696369656e742062616c616e636520666f60008201527f722063616c6c0000000000000000000000000000000000000000000000000000602082015250565b60006121026026836119c4565b915061210d826120a6565b604082019050919050565b60006020820190508181036000830152612131816120f5565b9050919050565b7f416464726573733a2063616c6c20746f206e6f6e2d636f6e7472616374000000600082015250565b600061216e601d836119c4565b915061217982612138565b602082019050919050565b6000602082019050818103600083015261219d81612161565b9050919050565b600081519050919050565b600081905092915050565b60006121c5826121a4565b6121cf81856121af565b93506121df818560208601611be6565b80840191505092915050565b60006121f782846121ba565b91508190509291505056fea2646970667358221220c0b3c6f8f8d73ebe7d37722b7c73ea4d5361c53de8d5c293d5e648a5f49dcb0f64736f6c634300080b0033",
  "linkReferences": {},
  "deployedLinkReferences": {}
}