{
  "_format": "hh-sol-artifact-1",
  "contractName": "RewardsV2",
  "sourceName": "contracts/standard/rewards/Rewards.sol",
  "abi": [
    {
      "inputs": [
        {
          "internalType": "address",
          "name": "_vault",
          "type": "address"
        },
        {
          "internalType": "address",
          "name": "_capl",
          "type": "address"
        }
      ],
      "stateMutability": "nonpayable",
      "type": "constructor"
    },
    {
      "anonymous": false,
      "inputs": [
        {
          "indexed": false,
          "internalType": "address",
          "name": "_token",
          "type": "address"
        },
        {
          "indexed": false,
          "internalType": "uint256",
          "name": "_rewardsPerBlock",
          "type": "uint256"
        }
      ],
      "name": "AddPool",
      "type": "event"
    },
    {
      "anonymous": false,
      "inputs": [
        {
          "indexed": true,
          "internalType": "address",
          "name": "_token",
          "type": "address"
        },
        {
          "indexed": true,
          "internalType": "address",
          "name": "_user",
          "type": "address"
        },
        {
          "indexed": false,
          "internalType": "uint256",
          "name": "_amount",
          "type": "uint256"
        }
      ],
      "name": "Claim",
      "type": "event"
    },
    {
      "anonymous": false,
      "inputs": [
        {
          "indexed": true,
          "internalType": "address",
          "name": "_token",
          "type": "address"
        },
        {
          "indexed": true,
          "internalType": "address",
          "name": "_user",
          "type": "address"
        },
        {
          "indexed": false,
          "internalType": "uint256",
          "name": "_amount",
          "type": "uint256"
        }
      ],
      "name": "Deposit",
      "type": "event"
    },
    {
      "anonymous": false,
      "inputs": [
        {
          "indexed": false,
          "internalType": "address",
          "name": "account",
          "type": "address"
        }
      ],
      "name": "Paused",
      "type": "event"
    },
    {
      "anonymous": false,
      "inputs": [
        {
          "indexed": true,
          "internalType": "address",
          "name": "_token",
          "type": "address"
        },
        {
          "indexed": false,
          "internalType": "uint256",
          "name": "_block",
          "type": "uint256"
        }
      ],
      "name": "PoolUpdated",
      "type": "event"
    },
    {
      "anonymous": false,
      "inputs": [
        {
          "indexed": true,
          "internalType": "bytes32",
          "name": "role",
          "type": "bytes32"
        },
        {
          "indexed": true,
          "internalType": "bytes32",
          "name": "previousAdminRole",
          "type": "bytes32"
        },
        {
          "indexed": true,
          "internalType": "bytes32",
          "name": "newAdminRole",
          "type": "bytes32"
        }
      ],
      "name": "RoleAdminChanged",
      "type": "event"
    },
    {
      "anonymous": false,
      "inputs": [
        {
          "indexed": true,
          "internalType": "bytes32",
          "name": "role",
          "type": "bytes32"
        },
        {
          "indexed": true,
          "internalType": "address",
          "name": "account",
          "type": "address"
        },
        {
          "indexed": true,
          "internalType": "address",
          "name": "sender",
          "type": "address"
        }
      ],
      "name": "RoleGranted",
      "type": "event"
    },
    {
      "anonymous": false,
      "inputs": [
        {
          "indexed": true,
          "internalType": "bytes32",
          "name": "role",
          "type": "bytes32"
        },
        {
          "indexed": true,
          "internalType": "address",
          "name": "account",
          "type": "address"
        },
        {
          "indexed": true,
          "internalType": "address",
          "name": "sender",
          "type": "address"
        }
      ],
      "name": "RoleRevoked",
      "type": "event"
    },
    {
      "anonymous": false,
      "inputs": [
        {
          "indexed": false,
          "internalType": "address",
          "name": "account",
          "type": "address"
        }
      ],
      "name": "Unpaused",
      "type": "event"
    },
    {
      "anonymous": false,
      "inputs": [
        {
          "indexed": true,
          "internalType": "address",
          "name": "_token",
          "type": "address"
        },
        {
          "indexed": true,
          "internalType": "address",
          "name": "_user",
          "type": "address"
        },
        {
          "indexed": false,
          "internalType": "uint256",
          "name": "_amount",
          "type": "uint256"
        }
      ],
      "name": "Withdraw",
      "type": "event"
    },
    {
      "anonymous": false,
      "inputs": [
        {
          "indexed": false,
          "internalType": "address",
          "name": "destination",
          "type": "address"
        },
        {
          "indexed": false,
          "internalType": "uint256",
          "name": "amount",
          "type": "uint256"
        }
      ],
      "name": "WithdrawMATIC",
      "type": "event"
    },
    {
      "inputs": [],
      "name": "DEFAULT_ADMIN_ROLE",
      "outputs": [
        {
          "internalType": "bytes32",
          "name": "",
          "type": "bytes32"
        }
      ],
      "stateMutability": "view",
      "type": "function"
    },
    {
      "inputs": [],
      "name": "MINTER",
      "outputs": [
        {
          "internalType": "bytes32",
          "name": "",
          "type": "bytes32"
        }
      ],
      "stateMutability": "view",
      "type": "function"
    },
    {
      "inputs": [
        {
          "internalType": "address",
          "name": "_token",
          "type": "address"
        },
        {
          "internalType": "uint256",
          "name": "_rewardsPerBlock",
          "type": "uint256"
        }
      ],
      "name": "addPool",
      "outputs": [],
      "stateMutability": "nonpayable",
      "type": "function"
    },
    {
      "inputs": [
        {
          "internalType": "address",
          "name": "_token",
          "type": "address"
        },
        {
          "internalType": "address",
          "name": "_user",
          "type": "address"
        }
      ],
      "name": "claim",
      "outputs": [],
      "stateMutability": "nonpayable",
      "type": "function"
    },
    {
      "inputs": [
        {
          "internalType": "address",
          "name": "_token",
          "type": "address"
        },
        {
          "internalType": "uint256",
          "name": "_amount",
          "type": "uint256"
        }
      ],
      "name": "deposit",
      "outputs": [],
      "stateMutability": "nonpayable",
      "type": "function"
    },
    {
      "inputs": [
        {
          "internalType": "bytes32",
          "name": "role",
          "type": "bytes32"
        }
      ],
      "name": "getRoleAdmin",
      "outputs": [
        {
          "internalType": "bytes32",
          "name": "",
          "type": "bytes32"
        }
      ],
      "stateMutability": "view",
      "type": "function"
    },
    {
      "inputs": [
        {
          "internalType": "bytes32",
          "name": "role",
          "type": "bytes32"
        },
        {
          "internalType": "address",
          "name": "account",
          "type": "address"
        }
      ],
      "name": "grantRole",
      "outputs": [],
      "stateMutability": "nonpayable",
      "type": "function"
    },
    {
      "inputs": [
        {
          "internalType": "bytes32",
          "name": "role",
          "type": "bytes32"
        },
        {
          "internalType": "address",
          "name": "account",
          "type": "address"
        }
      ],
      "name": "hasRole",
      "outputs": [
        {
          "internalType": "bool",
          "name": "",
          "type": "bool"
        }
      ],
      "stateMutability": "view",
      "type": "function"
    },
    {
      "inputs": [],
      "name": "paused",
      "outputs": [
        {
          "internalType": "bool",
          "name": "",
          "type": "bool"
        }
      ],
      "stateMutability": "view",
      "type": "function"
    },
    {
      "inputs": [
        {
          "internalType": "address",
          "name": "_token",
          "type": "address"
        },
        {
          "internalType": "address",
          "name": "_user",
          "type": "address"
        }
      ],
      "name": "pendingRewards",
      "outputs": [
        {
          "internalType": "uint256",
          "name": "pending",
          "type": "uint256"
        }
      ],
      "stateMutability": "nonpayable",
      "type": "function"
    },
    {
      "inputs": [
        {
          "internalType": "bytes32",
          "name": "role",
          "type": "bytes32"
        },
        {
          "internalType": "address",
          "name": "account",
          "type": "address"
        }
      ],
      "name": "renounceRole",
      "outputs": [],
      "stateMutability": "nonpayable",
      "type": "function"
    },
    {
      "inputs": [
        {
          "internalType": "bytes32",
          "name": "role",
          "type": "bytes32"
        },
        {
          "internalType": "address",
          "name": "account",
          "type": "address"
        }
      ],
      "name": "revokeRole",
      "outputs": [],
      "stateMutability": "nonpayable",
      "type": "function"
    },
    {
      "inputs": [
        {
          "internalType": "bytes4",
          "name": "interfaceId",
          "type": "bytes4"
        }
      ],
      "name": "supportsInterface",
      "outputs": [
        {
          "internalType": "bool",
          "name": "",
          "type": "bool"
        }
      ],
      "stateMutability": "view",
      "type": "function"
    },
    {
      "inputs": [
        {
          "internalType": "address",
          "name": "_token",
          "type": "address"
        }
      ],
      "name": "updatePool",
      "outputs": [
        {
          "components": [
            {
              "internalType": "uint256",
              "name": "totalPooled",
              "type": "uint256"
            },
            {
              "internalType": "uint256",
              "name": "rewardsPerBlock",
              "type": "uint256"
            },
            {
              "internalType": "uint256",
              "name": "accCaplPerShare",
              "type": "uint256"
            },
            {
              "internalType": "uint256",
              "name": "lastRewardBlock",
              "type": "uint256"
            }
          ],
          "internalType": "struct IPool.Pool",
          "name": "pool",
          "type": "tuple"
        }
      ],
      "stateMutability": "nonpayable",
      "type": "function"
    },
    {
      "inputs": [
        {
          "internalType": "address",
          "name": "_token",
          "type": "address"
        },
        {
          "internalType": "address",
          "name": "_user",
          "type": "address"
        }
      ],
      "name": "withdraw",
      "outputs": [],
      "stateMutability": "nonpayable",
      "type": "function"
    },
    {
      "inputs": [],
      "name": "withdrawMATIC",
      "outputs": [],
      "stateMutability": "nonpayable",
      "type": "function"
    },
    {
      "inputs": [
        {
          "internalType": "address",
          "name": "_token",
          "type": "address"
        },
        {
          "internalType": "uint256",
          "name": "_amount",
          "type": "uint256"
        },
        {
          "internalType": "address",
          "name": "_destination",
          "type": "address"
        }
      ],
      "name": "withdrawToken",
      "outputs": [],
      "stateMutability": "nonpayable",
      "type": "function"
    }
  ],
  "bytecode": "0x6080604052670de0b6b3a764000060055562093a806006553480156200002457600080fd5b50604051620034533803806200345383398181016040528101906200004a91906200035a565b60008060006101000a81548160ff02191690831515021790555081600260006101000a81548173ffffffffffffffffffffffffffffffffffffffff021916908373ffffffffffffffffffffffffffffffffffffffff16021790555080600460006101000a81548173ffffffffffffffffffffffffffffffffffffffff021916908373ffffffffffffffffffffffffffffffffffffffff16021790555081600360006101000a81548173ffffffffffffffffffffffffffffffffffffffff021916908373ffffffffffffffffffffffffffffffffffffffff1602179055506200013c6000801b336200017660201b60201c565b6200016e7ff0887ba65ee2024ea881d91b74c2450ef19e1557f03bed3ea9f16b037cbe2dc9336200017660201b60201c565b5050620003a1565b6200018882826200018c60201b60201c565b5050565b6200019e82826200027d60201b60201c565b6200027957600180600084815260200190815260200160002060000160008373ffffffffffffffffffffffffffffffffffffffff1673ffffffffffffffffffffffffffffffffffffffff16815260200190815260200160002060006101000a81548160ff0219169083151502179055506200021e620002e860201b60201c565b73ffffffffffffffffffffffffffffffffffffffff168173ffffffffffffffffffffffffffffffffffffffff16837f2f8788117e7eff1d82e926ec794901d17c78024a50270940304540a733656f0d60405160405180910390a45b5050565b60006001600084815260200190815260200160002060000160008373ffffffffffffffffffffffffffffffffffffffff1673ffffffffffffffffffffffffffffffffffffffff16815260200190815260200160002060009054906101000a900460ff16905092915050565b600033905090565b600080fd5b600073ffffffffffffffffffffffffffffffffffffffff82169050919050565b60006200032282620002f5565b9050919050565b620003348162000315565b81146200034057600080fd5b50565b600081519050620003548162000329565b92915050565b60008060408385031215620003745762000373620002f0565b5b6000620003848582860162000343565b9250506020620003978582860162000343565b9150509250929050565b6130a280620003b16000396000f3fe608060405234801561001057600080fd5b506004361061010b5760003560e01c80635c975abb116100a2578063a217fddf11610071578063a217fddf146102c6578063d547741f146102e4578063d99f666814610300578063f940e3851461030a578063fe6d8124146103265761010b565b80635c975abb146102185780637b46c54f1461023657806380ac82281461026657806391d14854146102965761010b565b806332a9caba116100de57806332a9caba146101a857806336568abe146101c45780633ccdbb28146101e057806347e7ef24146101fc5761010b565b806301ffc9a71461011057806321c0b34214610140578063248a9ca31461015c5780632f2ff15d1461018c575b600080fd5b61012a6004803603810190610125919061203b565b610344565b6040516101379190612083565b60405180910390f35b61015a600480360381019061015591906120fc565b6103be565b005b61017660048036038101906101719190612172565b610644565b60405161018391906121ae565b60405180910390f35b6101a660048036038101906101a191906121c9565b610664565b005b6101c260048036038101906101bd919061223f565b61068d565b005b6101de60048036038101906101d991906121c9565b610736565b005b6101fa60048036038101906101f5919061227f565b6107b9565b005b6102166004803603810190610211919061223f565b6107d4565b005b610220610deb565b60405161022d9190612083565b60405180910390f35b610250600480360381019061024b91906122d2565b610e01565b60405161025d9190612363565b60405180910390f35b610280600480360381019061027b91906120fc565b6110c8565b60405161028d919061238d565b60405180910390f35b6102b060048036038101906102ab91906121c9565b611361565b6040516102bd9190612083565b60405180910390f35b6102ce6113cc565b6040516102db91906121ae565b60405180910390f35b6102fe60048036038101906102f991906121c9565b6113d3565b005b6103086113fc565b005b610324600480360381019061031f91906120fc565b6114dd565b005b61032e611767565b60405161033b91906121ae565b60405180910390f35b60007f7965db0b000000000000000000000000000000000000000000000000000000007bffffffffffffffffffffffffffffffffffffffffffffffffffffffff1916827bffffffffffffffffffffffffffffffffffffffffffffffffffffffff191614806103b757506103b68261178b565b5b9050919050565b60006103c983610e01565b90506000600260009054906101000a900473ffffffffffffffffffffffffffffffffffffffff1673ffffffffffffffffffffffffffffffffffffffff166392a576e685856040518363ffffffff1660e01b815260040161042a9291906123b7565b6000604051808303816000875af1158015610449573d6000803e3d6000fd5b505050506040513d6000823e3d601f19601f8201168201806040525081019061047291906126b8565b905060006005548360400151836000015161048d9190612730565b61049791906127b9565b905060008260200151826104ab91906127ea565b9050600260009054906101000a900473ffffffffffffffffffffffffffffffffffffffff1673ffffffffffffffffffffffffffffffffffffffff16638a5bff6b8787856040518463ffffffff1660e01b815260040161050c9392919061281e565b600060405180830381600087803b15801561052657600080fd5b505af115801561053a573d6000803e3d6000fd5b5050505060008111156105d757600460009054906101000a900473ffffffffffffffffffffffffffffffffffffffff1673ffffffffffffffffffffffffffffffffffffffff166340c10f1986836040518363ffffffff1660e01b81526004016105a4929190612855565b600060405180830381600087803b1580156105be57600080fd5b505af11580156105d2573d6000803e3d6000fd5b505050505b8473ffffffffffffffffffffffffffffffffffffffff168673ffffffffffffffffffffffffffffffffffffffff167f70eb43c4a8ae8c40502dcf22436c509c28d6ff421cf07c491be56984bd98706883604051610634919061238d565b60405180910390a3505050505050565b600060016000838152602001908152602001600020600101549050919050565b61066d82610644565b61067e816106796117f5565b6117fd565b610688838361189a565b505050565b6000801b6106a28161069d6117f5565b6117fd565b600260009054906101000a900473ffffffffffffffffffffffffffffffffffffffff1673ffffffffffffffffffffffffffffffffffffffff166332a9caba84846040518363ffffffff1660e01b81526004016106ff929190612855565b600060405180830381600087803b15801561071957600080fd5b505af115801561072d573d6000803e3d6000fd5b50505050505050565b61073e6117f5565b73ffffffffffffffffffffffffffffffffffffffff168173ffffffffffffffffffffffffffffffffffffffff16146107ab576040517f08c379a00000000000000000000000000000000000000000000000000000000081526004016107a290612901565b60405180910390fd5b6107b5828261197a565b5050565b6000801b6107ce816107c96117f5565b6117fd565b50505050565b600260009054906101000a900473ffffffffffffffffffffffffffffffffffffffff1673ffffffffffffffffffffffffffffffffffffffff1663999126d7836040518263ffffffff1660e01b815260040161082f9190612921565b602060405180830381865afa15801561084c573d6000803e3d6000fd5b505050506040513d601f19601f82011682018060405250810190610870919061293c565b6108af576040517f08c379a00000000000000000000000000000000000000000000000000000000081526004016108a6906129b5565b60405180910390fd5b60006108ba83610e01565b905060006005548260400151846108d19190612730565b6108db91906127b9565b9050600260009054906101000a900473ffffffffffffffffffffffffffffffffffffffff1673ffffffffffffffffffffffffffffffffffffffff1663b6f867a885336040518363ffffffff1660e01b815260040161093a9291906123b7565b602060405180830381865afa158015610957573d6000803e3d6000fd5b505050506040513d601f19601f8201168201806040525081019061097b919061293c565b610a1757600260009054906101000a900473ffffffffffffffffffffffffffffffffffffffff1673ffffffffffffffffffffffffffffffffffffffff1663f5b5d237853386856040518563ffffffff1660e01b81526004016109e094939291906129d5565b600060405180830381600087803b1580156109fa57600080fd5b505af1158015610a0e573d6000803e3d6000fd5b50505050610d31565b600260009054906101000a900473ffffffffffffffffffffffffffffffffffffffff1673ffffffffffffffffffffffffffffffffffffffff1663d2456a95853386856040518563ffffffff1660e01b8152600401610a7894939291906129d5565b600060405180830381600087803b158015610a9257600080fd5b505af1158015610aa6573d6000803e3d6000fd5b505050506000600260009054906101000a900473ffffffffffffffffffffffffffffffffffffffff1673ffffffffffffffffffffffffffffffffffffffff16639338b7c986336040518363ffffffff1660e01b8152600401610b099291906123b7565b6080604051808303816000875af1158015610b28573d6000803e3d6000fd5b505050506040513d601f19601f82011682018060405250810190610b4c9190612a1a565b9050610b5b8160200151611a5c565b15610bf657600260009054906101000a900473ffffffffffffffffffffffffffffffffffffffff1673ffffffffffffffffffffffffffffffffffffffff1663dfc2d1ba8633876040518463ffffffff1660e01b8152600401610bbf9392919061281e565b600060405180830381600087803b158015610bd957600080fd5b505af1158015610bed573d6000803e3d6000fd5b50505050610d2f565b6000600260009054906101000a900473ffffffffffffffffffffffffffffffffffffffff1673ffffffffffffffffffffffffffffffffffffffff166312229f1387336040518363ffffffff1660e01b8152600401610c559291906123b7565b6020604051808303816000875af1158015610c74573d6000803e3d6000fd5b505050506040513d601f19601f82011682018060405250810190610c989190612a47565b9050600260009054906101000a900473ffffffffffffffffffffffffffffffffffffffff1673ffffffffffffffffffffffffffffffffffffffff16631b2aa575873388856040518563ffffffff1660e01b8152600401610cfb94939291906129d5565b600060405180830381600087803b158015610d1557600080fd5b505af1158015610d29573d6000803e3d6000fd5b50505050505b505b610d8033600360009054906101000a900473ffffffffffffffffffffffffffffffffffffffff16858773ffffffffffffffffffffffffffffffffffffffff16611a75909392919063ffffffff16565b3373ffffffffffffffffffffffffffffffffffffffff168473ffffffffffffffffffffffffffffffffffffffff167f5548c837ab068cf56a2c2479df0882a4922fd203edb7517321831d95078c5f6285604051610ddd919061238d565b60405180910390a350505050565b60008060009054906101000a900460ff16905090565b610e09611fa7565b6000600260009054906101000a900473ffffffffffffffffffffffffffffffffffffffff1673ffffffffffffffffffffffffffffffffffffffff1663bbe4f6db846040518263ffffffff1660e01b8152600401610e669190612921565b6080604051808303816000875af1158015610e85573d6000803e3d6000fd5b505050506040513d601f19601f82011682018060405250810190610ea99190612aec565b90506000600260009054906101000a900473ffffffffffffffffffffffffffffffffffffffff1673ffffffffffffffffffffffffffffffffffffffff1663f2866c78856040518263ffffffff1660e01b8152600401610f089190612921565b6020604051808303816000875af1158015610f27573d6000803e3d6000fd5b505050506040513d601f19601f82011682018060405250810190610f4b9190612a47565b9050600082606001514311156110bf576000821115610fb9576000836060015143610f7691906127ea565b90506000846020015182610f8a9190612730565b90508360055482610f9b9190612730565b610fa591906127b9565b8560400151610fb49190612b19565b925050505b60004390506000600260009054906101000a900473ffffffffffffffffffffffffffffffffffffffff1673ffffffffffffffffffffffffffffffffffffffff1663695c0bb88885856040518463ffffffff1660e01b815260040161101f93929190612b6f565b6080604051808303816000875af115801561103e573d6000803e3d6000fd5b505050506040513d601f19601f820116820180604052508101906110629190612aec565b90508673ffffffffffffffffffffffffffffffffffffffff167f2f4ae87a584f00dc35b043dd1c5ac839c1f41cd3a66e834d4e13faa6251634e6836040516110aa919061238d565b60405180910390a280955050505050506110c3565b5050505b919050565b600080600260009054906101000a900473ffffffffffffffffffffffffffffffffffffffff1673ffffffffffffffffffffffffffffffffffffffff1663bbe4f6db856040518263ffffffff1660e01b81526004016111269190612921565b6080604051808303816000875af1158015611145573d6000803e3d6000fd5b505050506040513d601f19601f820116820180604052508101906111699190612aec565b90506000600260009054906101000a900473ffffffffffffffffffffffffffffffffffffffff1673ffffffffffffffffffffffffffffffffffffffff166392a576e686866040518363ffffffff1660e01b81526004016111ca9291906123b7565b6000604051808303816000875af11580156111e9573d6000803e3d6000fd5b505050506040513d6000823e3d601f19601f8201168201806040525081019061121291906126b8565b90506000826040015190506000600260009054906101000a900473ffffffffffffffffffffffffffffffffffffffff1673ffffffffffffffffffffffffffffffffffffffff1663f2866c78886040518263ffffffff1660e01b815260040161127a9190612921565b6020604051808303816000875af1158015611299573d6000803e3d6000fd5b505050506040513d601f19601f820116820180604052508101906112bd9190612a47565b90508360600151431180156112d3575060008114155b156113295760008460600151436112ea91906127ea565b905060008560200151826112fe9190612730565b9050826005548261130f9190612730565b61131991906127b9565b846113249190612b19565b935050505b82602001516005548385600001516113419190612730565b61134b91906127b9565b61135591906127ea565b94505050505092915050565b60006001600084815260200190815260200160002060000160008373ffffffffffffffffffffffffffffffffffffffff1673ffffffffffffffffffffffffffffffffffffffff16815260200190815260200160002060009054906101000a900460ff16905092915050565b6000801b81565b6113dc82610644565b6113ed816113e86117f5565b6117fd565b6113f7838361197a565b505050565b6000801b6114118161140c6117f5565b6117fd565b60004711611454576040517f08c379a000000000000000000000000000000000000000000000000000000000815260040161144b90612bf2565b60405180910390fd5b60004790503373ffffffffffffffffffffffffffffffffffffffff166108fc829081150290604051600060405180830381858888f1935050505015801561149f573d6000803e3d6000fd5b507f43b2a2d6daf661162c8c435ac5820ea5b1e0046355c5faac17d06ecb4f60f15333826040516114d1929190612855565b60405180910390a15050565b60006114e883610e01565b90506000600260009054906101000a900473ffffffffffffffffffffffffffffffffffffffff1673ffffffffffffffffffffffffffffffffffffffff166392a576e685856040518363ffffffff1660e01b81526004016115499291906123b7565b6000604051808303816000875af1158015611568573d6000803e3d6000fd5b505050506040513d6000823e3d601f19601f8201168201806040525081019061159191906126b8565b90506000600260009054906101000a900473ffffffffffffffffffffffffffffffffffffffff1673ffffffffffffffffffffffffffffffffffffffff16630122a7e886866040518363ffffffff1660e01b81526004016115f29291906123b7565b6020604051808303816000875af1158015611611573d6000803e3d6000fd5b505050506040513d601f19601f820116820180604052508101906116359190612a47565b9050600060055484604001518361164c9190612730565b61165691906127b9565b836020015161166591906127ea565b9050600260009054906101000a900473ffffffffffffffffffffffffffffffffffffffff1673ffffffffffffffffffffffffffffffffffffffff16637bfe950c878785856040518563ffffffff1660e01b81526004016116c894939291906129d5565b600060405180830381600087803b1580156116e257600080fd5b505af11580156116f6573d6000803e3d6000fd5b505050508473ffffffffffffffffffffffffffffffffffffffff168673ffffffffffffffffffffffffffffffffffffffff167f9b1bfa7fa9ee420a16e124f794c35ac9f90472acc99140eb2f6447c714cad8eb84604051611757919061238d565b60405180910390a3505050505050565b7ff0887ba65ee2024ea881d91b74c2450ef19e1557f03bed3ea9f16b037cbe2dc981565b60007f01ffc9a7000000000000000000000000000000000000000000000000000000007bffffffffffffffffffffffffffffffffffffffffffffffffffffffff1916827bffffffffffffffffffffffffffffffffffffffffffffffffffffffff1916149050919050565b600033905090565b6118078282611361565b6118965761182c8173ffffffffffffffffffffffffffffffffffffffff166014611afe565b61183a8360001c6020611afe565b60405160200161184b929190612d24565b6040516020818303038152906040526040517f08c379a000000000000000000000000000000000000000000000000000000000815260040161188d9190612d97565b60405180910390fd5b5050565b6118a48282611361565b61197657600180600084815260200190815260200160002060000160008373ffffffffffffffffffffffffffffffffffffffff1673ffffffffffffffffffffffffffffffffffffffff16815260200190815260200160002060006101000a81548160ff02191690831515021790555061191b6117f5565b73ffffffffffffffffffffffffffffffffffffffff168173ffffffffffffffffffffffffffffffffffffffff16837f2f8788117e7eff1d82e926ec794901d17c78024a50270940304540a733656f0d60405160405180910390a45b5050565b6119848282611361565b15611a585760006001600084815260200190815260200160002060000160008373ffffffffffffffffffffffffffffffffffffffff1673ffffffffffffffffffffffffffffffffffffffff16815260200190815260200160002060006101000a81548160ff0219169083151502179055506119fd6117f5565b73ffffffffffffffffffffffffffffffffffffffff168173ffffffffffffffffffffffffffffffffffffffff16837ff6391f5c32d9c69d2a47ea670b442974b53935d1edc7fd64eb21e047a839171b60405160405180910390a45b5050565b60004360065483611a6d9190612b19565b109050919050565b611af8846323b872dd60e01b858585604051602401611a969392919061281e565b604051602081830303815290604052907bffffffffffffffffffffffffffffffffffffffffffffffffffffffff19166020820180517bffffffffffffffffffffffffffffffffffffffffffffffffffffffff8381831617835250505050611d3a565b50505050565b606060006002836002611b119190612730565b611b1b9190612b19565b67ffffffffffffffff811115611b3457611b336123f6565b5b6040519080825280601f01601f191660200182016040528015611b665781602001600182028036833780820191505090505b5090507f300000000000000000000000000000000000000000000000000000000000000081600081518110611b9e57611b9d612db9565b5b60200101907effffffffffffffffffffffffffffffffffffffffffffffffffffffffffffff1916908160001a9053507f780000000000000000000000000000000000000000000000000000000000000081600181518110611c0257611c01612db9565b5b60200101907effffffffffffffffffffffffffffffffffffffffffffffffffffffffffffff1916908160001a90535060006001846002611c429190612730565b611c4c9190612b19565b90505b6001811115611cec577f3031323334353637383961626364656600000000000000000000000000000000600f861660108110611c8e57611c8d612db9565b5b1a60f81b828281518110611ca557611ca4612db9565b5b60200101907effffffffffffffffffffffffffffffffffffffffffffffffffffffffffffff1916908160001a905350600485901c945080611ce590612de8565b9050611c4f565b5060008414611d30576040517f08c379a0000000000000000000000000000000000000000000000000000000008152600401611d2790612e5e565b60405180910390fd5b8091505092915050565b6000611d9c826040518060400160405280602081526020017f5361666545524332303a206c6f772d6c6576656c2063616c6c206661696c65648152508573ffffffffffffffffffffffffffffffffffffffff16611e019092919063ffffffff16565b9050600081511115611dfc5780806020019051810190611dbc919061293c565b611dfb576040517f08c379a0000000000000000000000000000000000000000000000000000000008152600401611df290612ef0565b60405180910390fd5b5b505050565b6060611e108484600085611e19565b90509392505050565b606082471015611e5e576040517f08c379a0000000000000000000000000000000000000000000000000000000008152600401611e5590612f82565b60405180910390fd5b611e6785611f2d565b611ea6576040517f08c379a0000000000000000000000000000000000000000000000000000000008152600401611e9d90612fee565b60405180910390fd5b6000808673ffffffffffffffffffffffffffffffffffffffff168587604051611ecf9190613055565b60006040518083038185875af1925050503d8060008114611f0c576040519150601f19603f3d011682016040523d82523d6000602084013e611f11565b606091505b5091509150611f21828286611f40565b92505050949350505050565b600080823b905060008111915050919050565b60608315611f5057829050611fa0565b600083511115611f635782518084602001fd5b816040517f08c379a0000000000000000000000000000000000000000000000000000000008152600401611f979190612d97565b60405180910390fd5b9392505050565b6040518060800160405280600081526020016000815260200160008152602001600081525090565b6000604051905090565b600080fd5b600080fd5b60007fffffffff0000000000000000000000000000000000000000000000000000000082169050919050565b61201881611fe3565b811461202357600080fd5b50565b6000813590506120358161200f565b92915050565b60006020828403121561205157612050611fd9565b5b600061205f84828501612026565b91505092915050565b60008115159050919050565b61207d81612068565b82525050565b60006020820190506120986000830184612074565b92915050565b600073ffffffffffffffffffffffffffffffffffffffff82169050919050565b60006120c98261209e565b9050919050565b6120d9816120be565b81146120e457600080fd5b50565b6000813590506120f6816120d0565b92915050565b6000806040838503121561211357612112611fd9565b5b6000612121858286016120e7565b9250506020612132858286016120e7565b9150509250929050565b6000819050919050565b61214f8161213c565b811461215a57600080fd5b50565b60008135905061216c81612146565b92915050565b60006020828403121561218857612187611fd9565b5b60006121968482850161215d565b91505092915050565b6121a88161213c565b82525050565b60006020820190506121c3600083018461219f565b92915050565b600080604083850312156121e0576121df611fd9565b5b60006121ee8582860161215d565b92505060206121ff858286016120e7565b9150509250929050565b6000819050919050565b61221c81612209565b811461222757600080fd5b50565b60008135905061223981612213565b92915050565b6000806040838503121561225657612255611fd9565b5b6000612264858286016120e7565b92505060206122758582860161222a565b9150509250929050565b60008060006060848603121561229857612297611fd9565b5b60006122a6868287016120e7565b93505060206122b78682870161222a565b92505060406122c8868287016120e7565b9150509250925092565b6000602082840312156122e8576122e7611fd9565b5b60006122f6848285016120e7565b91505092915050565b61230881612209565b82525050565b60808201600082015161232460008501826122ff565b50602082015161233760208501826122ff565b50604082015161234a60408501826122ff565b50606082015161235d60608501826122ff565b50505050565b6000608082019050612378600083018461230e565b92915050565b61238781612209565b82525050565b60006020820190506123a2600083018461237e565b92915050565b6123b1816120be565b82525050565b60006040820190506123cc60008301856123a8565b6123d960208301846123a8565b9392505050565b600080fd5b6000601f19601f8301169050919050565b7f4e487b7100000000000000000000000000000000000000000000000000000000600052604160045260246000fd5b61242e826123e5565b810181811067ffffffffffffffff8211171561244d5761244c6123f6565b5b80604052505050565b6000612460611fcf565b905061246c8282612425565b919050565b600080fd5b60008151905061248581612213565b92915050565b61249481612068565b811461249f57600080fd5b50565b6000815190506124b18161248b565b92915050565b600080fd5b600067ffffffffffffffff8211156124d7576124d66123f6565b5b602082029050602081019050919050565b600080fd5b600060808284031215612503576125026123e0565b5b61250d6080612456565b9050600061251d84828501612476565b600083015250602061253184828501612476565b602083015250604061254584828501612476565b6040830152506060612559848285016124a2565b60608301525092915050565b6000612578612573846124bc565b612456565b9050808382526020820190506080840283018581111561259b5761259a6124e8565b5b835b818110156125c457806125b088826124ed565b84526020840193505060808101905061259d565b5050509392505050565b600082601f8301126125e3576125e26124b7565b5b81516125f3848260208601612565565b91505092915050565b600060c08284031215612612576126116123e0565b5b61261c60c0612456565b9050600061262c84828501612476565b600083015250602061264084828501612476565b602083015250604061265484828501612476565b6040830152506060612668848285016124a2565b606083015250608061267c848285016124a2565b60808301525060a082015167ffffffffffffffff8111156126a05761269f612471565b5b6126ac848285016125ce565b60a08301525092915050565b6000602082840312156126ce576126cd611fd9565b5b600082015167ffffffffffffffff8111156126ec576126eb611fde565b5b6126f8848285016125fc565b91505092915050565b7f4e487b7100000000000000000000000000000000000000000000000000000000600052601160045260246000fd5b600061273b82612209565b915061274683612209565b9250817fffffffffffffffffffffffffffffffffffffffffffffffffffffffffffffffff048311821515161561277f5761277e612701565b5b828202905092915050565b7f4e487b7100000000000000000000000000000000000000000000000000000000600052601260045260246000fd5b60006127c482612209565b91506127cf83612209565b9250826127df576127de61278a565b5b828204905092915050565b60006127f582612209565b915061280083612209565b92508282101561281357612812612701565b5b828203905092915050565b600060608201905061283360008301866123a8565b61284060208301856123a8565b61284d604083018461237e565b949350505050565b600060408201905061286a60008301856123a8565b612877602083018461237e565b9392505050565b600082825260208201905092915050565b7f416363657373436f6e74726f6c3a2063616e206f6e6c792072656e6f756e636560008201527f20726f6c657320666f722073656c660000000000000000000000000000000000602082015250565b60006128eb602f8361287e565b91506128f68261288f565b604082019050919050565b6000602082019050818103600083015261291a816128de565b9050919050565b600060208201905061293660008301846123a8565b92915050565b60006020828403121561295257612951611fd9565b5b6000612960848285016124a2565b91505092915050565b7f506f6f6c20646f6573206e6f7420657869737400000000000000000000000000600082015250565b600061299f60138361287e565b91506129aa82612969565b602082019050919050565b600060208201905081810360008301526129ce81612992565b9050919050565b60006080820190506129ea60008301876123a8565b6129f760208301866123a8565b612a04604083018561237e565b612a11606083018461237e565b95945050505050565b600060808284031215612a3057612a2f611fd9565b5b6000612a3e848285016124ed565b91505092915050565b600060208284031215612a5d57612a5c611fd9565b5b6000612a6b84828501612476565b91505092915050565b600060808284031215612a8a57612a896123e0565b5b612a946080612456565b90506000612aa484828501612476565b6000830152506020612ab884828501612476565b6020830152506040612acc84828501612476565b6040830152506060612ae084828501612476565b60608301525092915050565b600060808284031215612b0257612b01611fd9565b5b6000612b1084828501612a74565b91505092915050565b6000612b2482612209565b9150612b2f83612209565b9250827fffffffffffffffffffffffffffffffffffffffffffffffffffffffffffffffff03821115612b6457612b63612701565b5b828201905092915050565b6000606082019050612b8460008301866123a8565b612b91602083018561237e565b612b9e604083018461237e565b949350505050565b7f6e6f206d6174696320746f207769746864726177000000000000000000000000600082015250565b6000612bdc60148361287e565b9150612be782612ba6565b602082019050919050565b60006020820190508181036000830152612c0b81612bcf565b9050919050565b600081905092915050565b7f416363657373436f6e74726f6c3a206163636f756e7420000000000000000000600082015250565b6000612c53601783612c12565b9150612c5e82612c1d565b601782019050919050565b600081519050919050565b60005b83811015612c92578082015181840152602081019050612c77565b83811115612ca1576000848401525b50505050565b6000612cb282612c69565b612cbc8185612c12565b9350612ccc818560208601612c74565b80840191505092915050565b7f206973206d697373696e6720726f6c6520000000000000000000000000000000600082015250565b6000612d0e601183612c12565b9150612d1982612cd8565b601182019050919050565b6000612d2f82612c46565b9150612d3b8285612ca7565b9150612d4682612d01565b9150612d528284612ca7565b91508190509392505050565b6000612d6982612c69565b612d73818561287e565b9350612d83818560208601612c74565b612d8c816123e5565b840191505092915050565b60006020820190508181036000830152612db18184612d5e565b905092915050565b7f4e487b7100000000000000000000000000000000000000000000000000000000600052603260045260246000fd5b6000612df382612209565b91506000821415612e0757612e06612701565b5b600182039050919050565b7f537472696e67733a20686578206c656e67746820696e73756666696369656e74600082015250565b6000612e4860208361287e565b9150612e5382612e12565b602082019050919050565b60006020820190508181036000830152612e7781612e3b565b9050919050565b7f5361666545524332303a204552433230206f7065726174696f6e20646964206e60008201527f6f74207375636365656400000000000000000000000000000000000000000000602082015250565b6000612eda602a8361287e565b9150612ee582612e7e565b604082019050919050565b60006020820190508181036000830152612f0981612ecd565b9050919050565b7f416464726573733a20696e73756666696369656e742062616c616e636520666f60008201527f722063616c6c0000000000000000000000000000000000000000000000000000602082015250565b6000612f6c60268361287e565b9150612f7782612f10565b604082019050919050565b60006020820190508181036000830152612f9b81612f5f565b9050919050565b7f416464726573733a2063616c6c20746f206e6f6e2d636f6e7472616374000000600082015250565b6000612fd8601d8361287e565b9150612fe382612fa2565b602082019050919050565b6000602082019050818103600083015261300781612fcb565b9050919050565b600081519050919050565b600081905092915050565b600061302f8261300e565b6130398185613019565b9350613049818560208601612c74565b80840191505092915050565b60006130618284613024565b91508190509291505056fea264697066735822122045cb7a4bc5f284f6cf2bf5266b0f7ae03d31da62f1f086b1a2c4b0b8549eb85764736f6c634300080b0033",
  "linkReferences": {},
  "deployedLinkReferences": {}
}