{
  "_format": "hh-sol-artifact-1",
  "contractName": "RewardsV2",
  "sourceName": "contracts/standard/rewards/Rewards.sol",
  "abi": [
    {
      "inputs": [
        {
          "internalType": "address",
          "name": "_vault",
          "type": "address"
        },
        {
          "internalType": "address",
          "name": "_capl",
          "type": "address"
        }
      ],
      "stateMutability": "nonpayable",
      "type": "constructor"
    },
    {
      "anonymous": false,
      "inputs": [
        {
          "indexed": false,
          "internalType": "address",
          "name": "_token",
          "type": "address"
        },
        {
          "indexed": false,
          "internalType": "uint256",
          "name": "_rewardsPerBlock",
          "type": "uint256"
        }
      ],
      "name": "AddPool",
      "type": "event"
    },
    {
      "anonymous": false,
      "inputs": [
        {
          "indexed": true,
          "internalType": "address",
          "name": "_token",
          "type": "address"
        },
        {
          "indexed": true,
          "internalType": "address",
          "name": "_user",
          "type": "address"
        },
        {
          "indexed": false,
          "internalType": "uint256",
          "name": "_amount",
          "type": "uint256"
        }
      ],
      "name": "Claim",
      "type": "event"
    },
    {
      "anonymous": false,
      "inputs": [
        {
          "indexed": true,
          "internalType": "address",
          "name": "_token",
          "type": "address"
        },
        {
          "indexed": true,
          "internalType": "address",
          "name": "_user",
          "type": "address"
        },
        {
          "indexed": false,
          "internalType": "uint256",
          "name": "_amount",
          "type": "uint256"
        }
      ],
      "name": "Deposit",
      "type": "event"
    },
    {
      "anonymous": false,
      "inputs": [
        {
          "indexed": false,
          "internalType": "address",
          "name": "account",
          "type": "address"
        }
      ],
      "name": "Paused",
      "type": "event"
    },
    {
      "anonymous": false,
      "inputs": [
        {
          "indexed": true,
          "internalType": "address",
          "name": "_token",
          "type": "address"
        },
        {
          "indexed": false,
          "internalType": "uint256",
          "name": "_block",
          "type": "uint256"
        }
      ],
      "name": "PoolUpdated",
      "type": "event"
    },
    {
      "anonymous": false,
      "inputs": [
        {
          "indexed": true,
          "internalType": "bytes32",
          "name": "role",
          "type": "bytes32"
        },
        {
          "indexed": true,
          "internalType": "bytes32",
          "name": "previousAdminRole",
          "type": "bytes32"
        },
        {
          "indexed": true,
          "internalType": "bytes32",
          "name": "newAdminRole",
          "type": "bytes32"
        }
      ],
      "name": "RoleAdminChanged",
      "type": "event"
    },
    {
      "anonymous": false,
      "inputs": [
        {
          "indexed": true,
          "internalType": "bytes32",
          "name": "role",
          "type": "bytes32"
        },
        {
          "indexed": true,
          "internalType": "address",
          "name": "account",
          "type": "address"
        },
        {
          "indexed": true,
          "internalType": "address",
          "name": "sender",
          "type": "address"
        }
      ],
      "name": "RoleGranted",
      "type": "event"
    },
    {
      "anonymous": false,
      "inputs": [
        {
          "indexed": true,
          "internalType": "bytes32",
          "name": "role",
          "type": "bytes32"
        },
        {
          "indexed": true,
          "internalType": "address",
          "name": "account",
          "type": "address"
        },
        {
          "indexed": true,
          "internalType": "address",
          "name": "sender",
          "type": "address"
        }
      ],
      "name": "RoleRevoked",
      "type": "event"
    },
    {
      "anonymous": false,
      "inputs": [
        {
          "indexed": false,
          "internalType": "address",
          "name": "account",
          "type": "address"
        }
      ],
      "name": "Unpaused",
      "type": "event"
    },
    {
      "anonymous": false,
      "inputs": [
        {
          "indexed": true,
          "internalType": "address",
          "name": "_token",
          "type": "address"
        },
        {
          "indexed": true,
          "internalType": "address",
          "name": "_user",
          "type": "address"
        },
        {
          "indexed": false,
          "internalType": "uint256",
          "name": "_amount",
          "type": "uint256"
        }
      ],
      "name": "Withdraw",
      "type": "event"
    },
    {
      "anonymous": false,
      "inputs": [
        {
          "indexed": false,
          "internalType": "address",
          "name": "destination",
          "type": "address"
        },
        {
          "indexed": false,
          "internalType": "uint256",
          "name": "amount",
          "type": "uint256"
        }
      ],
      "name": "WithdrawMATIC",
      "type": "event"
    },
    {
      "inputs": [],
      "name": "DEFAULT_ADMIN_ROLE",
      "outputs": [
        {
          "internalType": "bytes32",
          "name": "",
          "type": "bytes32"
        }
      ],
      "stateMutability": "view",
      "type": "function"
    },
    {
      "inputs": [],
      "name": "MINTER_ROLE",
      "outputs": [
        {
          "internalType": "bytes32",
          "name": "",
          "type": "bytes32"
        }
      ],
      "stateMutability": "view",
      "type": "function"
    },
    {
      "inputs": [
        {
          "internalType": "address",
          "name": "_token",
          "type": "address"
        },
        {
          "internalType": "uint256",
          "name": "_rewardsPerBlock",
          "type": "uint256"
        }
      ],
      "name": "addPool",
      "outputs": [],
      "stateMutability": "nonpayable",
      "type": "function"
    },
    {
      "inputs": [
        {
          "internalType": "address",
          "name": "_token",
          "type": "address"
        },
        {
          "internalType": "address",
          "name": "_user",
          "type": "address"
        }
      ],
      "name": "claim",
      "outputs": [],
      "stateMutability": "nonpayable",
      "type": "function"
    },
    {
      "inputs": [
        {
          "internalType": "address",
          "name": "_token",
          "type": "address"
        },
        {
          "internalType": "uint256",
          "name": "_amount",
          "type": "uint256"
        }
      ],
      "name": "deposit",
      "outputs": [],
      "stateMutability": "nonpayable",
      "type": "function"
    },
    {
      "inputs": [
        {
          "internalType": "bytes32",
          "name": "role",
          "type": "bytes32"
        }
      ],
      "name": "getRoleAdmin",
      "outputs": [
        {
          "internalType": "bytes32",
          "name": "",
          "type": "bytes32"
        }
      ],
      "stateMutability": "view",
      "type": "function"
    },
    {
      "inputs": [
        {
          "internalType": "bytes32",
          "name": "role",
          "type": "bytes32"
        },
        {
          "internalType": "address",
          "name": "account",
          "type": "address"
        }
      ],
      "name": "grantRole",
      "outputs": [],
      "stateMutability": "nonpayable",
      "type": "function"
    },
    {
      "inputs": [
        {
          "internalType": "bytes32",
          "name": "role",
          "type": "bytes32"
        },
        {
          "internalType": "address",
          "name": "account",
          "type": "address"
        }
      ],
      "name": "hasRole",
      "outputs": [
        {
          "internalType": "bool",
          "name": "",
          "type": "bool"
        }
      ],
      "stateMutability": "view",
      "type": "function"
    },
    {
      "inputs": [],
      "name": "paused",
      "outputs": [
        {
          "internalType": "bool",
          "name": "",
          "type": "bool"
        }
      ],
      "stateMutability": "view",
      "type": "function"
    },
    {
      "inputs": [
        {
          "internalType": "address",
          "name": "_token",
          "type": "address"
        },
        {
          "internalType": "address",
          "name": "_user",
          "type": "address"
        }
      ],
      "name": "pendingRewards",
      "outputs": [
        {
          "internalType": "uint256",
          "name": "pending",
          "type": "uint256"
        }
      ],
      "stateMutability": "nonpayable",
      "type": "function"
    },
    {
      "inputs": [
        {
          "internalType": "bytes32",
          "name": "role",
          "type": "bytes32"
        },
        {
          "internalType": "address",
          "name": "account",
          "type": "address"
        }
      ],
      "name": "renounceRole",
      "outputs": [],
      "stateMutability": "nonpayable",
      "type": "function"
    },
    {
      "inputs": [
        {
          "internalType": "bytes32",
          "name": "role",
          "type": "bytes32"
        },
        {
          "internalType": "address",
          "name": "account",
          "type": "address"
        }
      ],
      "name": "revokeRole",
      "outputs": [],
      "stateMutability": "nonpayable",
      "type": "function"
    },
    {
      "inputs": [
        {
          "internalType": "bytes4",
          "name": "interfaceId",
          "type": "bytes4"
        }
      ],
      "name": "supportsInterface",
      "outputs": [
        {
          "internalType": "bool",
          "name": "",
          "type": "bool"
        }
      ],
      "stateMutability": "view",
      "type": "function"
    },
    {
      "inputs": [
        {
          "internalType": "address",
          "name": "_token",
          "type": "address"
        }
      ],
      "name": "updatePool",
      "outputs": [
        {
          "components": [
            {
              "internalType": "uint256",
              "name": "totalPooled",
              "type": "uint256"
            },
            {
              "internalType": "uint256",
              "name": "rewardsPerBlock",
              "type": "uint256"
            },
            {
              "internalType": "uint256",
              "name": "accCaplPerShare",
              "type": "uint256"
            },
            {
              "internalType": "uint256",
              "name": "lastRewardBlock",
              "type": "uint256"
            }
          ],
          "internalType": "struct IPool.Pool",
          "name": "pool",
          "type": "tuple"
        }
      ],
      "stateMutability": "nonpayable",
      "type": "function"
    },
    {
      "inputs": [
        {
          "internalType": "address",
          "name": "_token",
          "type": "address"
        },
        {
          "internalType": "address",
          "name": "_user",
          "type": "address"
        }
      ],
      "name": "withdraw",
      "outputs": [],
      "stateMutability": "nonpayable",
      "type": "function"
    },
    {
      "inputs": [],
      "name": "withdrawMATIC",
      "outputs": [],
      "stateMutability": "nonpayable",
      "type": "function"
    },
    {
      "inputs": [
        {
          "internalType": "address",
          "name": "_token",
          "type": "address"
        },
        {
          "internalType": "uint256",
          "name": "_amount",
          "type": "uint256"
        },
        {
          "internalType": "address",
          "name": "_destination",
          "type": "address"
        }
      ],
      "name": "withdrawToken",
      "outputs": [],
      "stateMutability": "nonpayable",
      "type": "function"
    }
  ],
  "bytecode": "0x6080604052670de0b6b3a764000060055562093a806006553480156200002457600080fd5b50604051620034863803806200348683398181016040528101906200004a91906200035a565b60008060006101000a81548160ff02191690831515021790555081600260006101000a81548173ffffffffffffffffffffffffffffffffffffffff021916908373ffffffffffffffffffffffffffffffffffffffff16021790555080600460006101000a81548173ffffffffffffffffffffffffffffffffffffffff021916908373ffffffffffffffffffffffffffffffffffffffff16021790555081600360006101000a81548173ffffffffffffffffffffffffffffffffffffffff021916908373ffffffffffffffffffffffffffffffffffffffff1602179055506200013c6000801b336200017660201b60201c565b6200016e7f9f2df0fed2c77648de5860a4cc508cd0818c85b8b8a1ab4ceeef8d981c8956a6336200017660201b60201c565b5050620003a1565b6200018882826200018c60201b60201c565b5050565b6200019e82826200027d60201b60201c565b6200027957600180600084815260200190815260200160002060000160008373ffffffffffffffffffffffffffffffffffffffff1673ffffffffffffffffffffffffffffffffffffffff16815260200190815260200160002060006101000a81548160ff0219169083151502179055506200021e620002e860201b60201c565b73ffffffffffffffffffffffffffffffffffffffff168173ffffffffffffffffffffffffffffffffffffffff16837f2f8788117e7eff1d82e926ec794901d17c78024a50270940304540a733656f0d60405160405180910390a45b5050565b60006001600084815260200190815260200160002060000160008373ffffffffffffffffffffffffffffffffffffffff1673ffffffffffffffffffffffffffffffffffffffff16815260200190815260200160002060009054906101000a900460ff16905092915050565b600033905090565b600080fd5b600073ffffffffffffffffffffffffffffffffffffffff82169050919050565b60006200032282620002f5565b9050919050565b620003348162000315565b81146200034057600080fd5b50565b600081519050620003548162000329565b92915050565b60008060408385031215620003745762000373620002f0565b5b6000620003848582860162000343565b9250506020620003978582860162000343565b9150509250929050565b6130d580620003b16000396000f3fe608060405234801561001057600080fd5b506004361061010b5760003560e01c80635c975abb116100a2578063a217fddf11610071578063a217fddf146102c6578063d5391393146102e4578063d547741f14610302578063d99f66681461031e578063f940e385146103285761010b565b80635c975abb146102185780637b46c54f1461023657806380ac82281461026657806391d14854146102965761010b565b806332a9caba116100de57806332a9caba146101a857806336568abe146101c45780633ccdbb28146101e057806347e7ef24146101fc5761010b565b806301ffc9a71461011057806321c0b34214610140578063248a9ca31461015c5780632f2ff15d1461018c575b600080fd5b61012a6004803603810190610125919061206e565b610344565b60405161013791906120b6565b60405180910390f35b61015a6004803603810190610155919061212f565b6103be565b005b610176600480360381019061017191906121a5565b610677565b60405161018391906121e1565b60405180910390f35b6101a660048036038101906101a191906121fc565b610697565b005b6101c260048036038101906101bd9190612272565b6106c0565b005b6101de60048036038101906101d991906121fc565b610769565b005b6101fa60048036038101906101f591906122b2565b6107ec565b005b61021660048036038101906102119190612272565b610807565b005b610220610e1e565b60405161022d91906120b6565b60405180910390f35b610250600480360381019061024b9190612305565b610e34565b60405161025d9190612396565b60405180910390f35b610280600480360381019061027b919061212f565b6110fb565b60405161028d91906123c0565b60405180910390f35b6102b060048036038101906102ab91906121fc565b611394565b6040516102bd91906120b6565b60405180910390f35b6102ce6113ff565b6040516102db91906121e1565b60405180910390f35b6102ec611406565b6040516102f991906121e1565b60405180910390f35b61031c600480360381019061031791906121fc565b61142a565b005b610326611453565b005b610342600480360381019061033d919061212f565b611534565b005b60007f7965db0b000000000000000000000000000000000000000000000000000000007bffffffffffffffffffffffffffffffffffffffffffffffffffffffff1916827bffffffffffffffffffffffffffffffffffffffffffffffffffffffff191614806103b757506103b6826117be565b5b9050919050565b7f9f2df0fed2c77648de5860a4cc508cd0818c85b8b8a1ab4ceeef8d981c8956a66103f0816103eb611828565b611830565b60006103fb84610e34565b90506000600260009054906101000a900473ffffffffffffffffffffffffffffffffffffffff1673ffffffffffffffffffffffffffffffffffffffff166392a576e686866040518363ffffffff1660e01b815260040161045c9291906123ea565b6000604051808303816000875af115801561047b573d6000803e3d6000fd5b505050506040513d6000823e3d601f19601f820116820180604052508101906104a491906126eb565b90506000600554836040015183600001516104bf9190612763565b6104c991906127ec565b905060008260200151826104dd919061281d565b9050600260009054906101000a900473ffffffffffffffffffffffffffffffffffffffff1673ffffffffffffffffffffffffffffffffffffffff16638a5bff6b8888856040518463ffffffff1660e01b815260040161053e93929190612851565b600060405180830381600087803b15801561055857600080fd5b505af115801561056c573d6000803e3d6000fd5b50505050600081111561060957600460009054906101000a900473ffffffffffffffffffffffffffffffffffffffff1673ffffffffffffffffffffffffffffffffffffffff166340c10f1987836040518363ffffffff1660e01b81526004016105d6929190612888565b600060405180830381600087803b1580156105f057600080fd5b505af1158015610604573d6000803e3d6000fd5b505050505b8573ffffffffffffffffffffffffffffffffffffffff168773ffffffffffffffffffffffffffffffffffffffff167f70eb43c4a8ae8c40502dcf22436c509c28d6ff421cf07c491be56984bd9870688360405161066691906123c0565b60405180910390a350505050505050565b600060016000838152602001908152602001600020600101549050919050565b6106a082610677565b6106b1816106ac611828565b611830565b6106bb83836118cd565b505050565b6000801b6106d5816106d0611828565b611830565b600260009054906101000a900473ffffffffffffffffffffffffffffffffffffffff1673ffffffffffffffffffffffffffffffffffffffff166332a9caba84846040518363ffffffff1660e01b8152600401610732929190612888565b600060405180830381600087803b15801561074c57600080fd5b505af1158015610760573d6000803e3d6000fd5b50505050505050565b610771611828565b73ffffffffffffffffffffffffffffffffffffffff168173ffffffffffffffffffffffffffffffffffffffff16146107de576040517f08c379a00000000000000000000000000000000000000000000000000000000081526004016107d590612934565b60405180910390fd5b6107e882826119ad565b5050565b6000801b610801816107fc611828565b611830565b50505050565b600260009054906101000a900473ffffffffffffffffffffffffffffffffffffffff1673ffffffffffffffffffffffffffffffffffffffff1663999126d7836040518263ffffffff1660e01b81526004016108629190612954565b602060405180830381865afa15801561087f573d6000803e3d6000fd5b505050506040513d601f19601f820116820180604052508101906108a3919061296f565b6108e2576040517f08c379a00000000000000000000000000000000000000000000000000000000081526004016108d9906129e8565b60405180910390fd5b60006108ed83610e34565b905060006005548260400151846109049190612763565b61090e91906127ec565b9050600260009054906101000a900473ffffffffffffffffffffffffffffffffffffffff1673ffffffffffffffffffffffffffffffffffffffff1663b6f867a885336040518363ffffffff1660e01b815260040161096d9291906123ea565b602060405180830381865afa15801561098a573d6000803e3d6000fd5b505050506040513d601f19601f820116820180604052508101906109ae919061296f565b610a4a57600260009054906101000a900473ffffffffffffffffffffffffffffffffffffffff1673ffffffffffffffffffffffffffffffffffffffff1663f5b5d237853386856040518563ffffffff1660e01b8152600401610a139493929190612a08565b600060405180830381600087803b158015610a2d57600080fd5b505af1158015610a41573d6000803e3d6000fd5b50505050610d64565b600260009054906101000a900473ffffffffffffffffffffffffffffffffffffffff1673ffffffffffffffffffffffffffffffffffffffff1663d2456a95853386856040518563ffffffff1660e01b8152600401610aab9493929190612a08565b600060405180830381600087803b158015610ac557600080fd5b505af1158015610ad9573d6000803e3d6000fd5b505050506000600260009054906101000a900473ffffffffffffffffffffffffffffffffffffffff1673ffffffffffffffffffffffffffffffffffffffff16639338b7c986336040518363ffffffff1660e01b8152600401610b3c9291906123ea565b6080604051808303816000875af1158015610b5b573d6000803e3d6000fd5b505050506040513d601f19601f82011682018060405250810190610b7f9190612a4d565b9050610b8e8160200151611a8f565b15610c2957600260009054906101000a900473ffffffffffffffffffffffffffffffffffffffff1673ffffffffffffffffffffffffffffffffffffffff1663dfc2d1ba8633876040518463ffffffff1660e01b8152600401610bf293929190612851565b600060405180830381600087803b158015610c0c57600080fd5b505af1158015610c20573d6000803e3d6000fd5b50505050610d62565b6000600260009054906101000a900473ffffffffffffffffffffffffffffffffffffffff1673ffffffffffffffffffffffffffffffffffffffff166312229f1387336040518363ffffffff1660e01b8152600401610c889291906123ea565b6020604051808303816000875af1158015610ca7573d6000803e3d6000fd5b505050506040513d601f19601f82011682018060405250810190610ccb9190612a7a565b9050600260009054906101000a900473ffffffffffffffffffffffffffffffffffffffff1673ffffffffffffffffffffffffffffffffffffffff16631b2aa575873388856040518563ffffffff1660e01b8152600401610d2e9493929190612a08565b600060405180830381600087803b158015610d4857600080fd5b505af1158015610d5c573d6000803e3d6000fd5b50505050505b505b610db333600360009054906101000a900473ffffffffffffffffffffffffffffffffffffffff16858773ffffffffffffffffffffffffffffffffffffffff16611aa8909392919063ffffffff16565b3373ffffffffffffffffffffffffffffffffffffffff168473ffffffffffffffffffffffffffffffffffffffff167f5548c837ab068cf56a2c2479df0882a4922fd203edb7517321831d95078c5f6285604051610e1091906123c0565b60405180910390a350505050565b60008060009054906101000a900460ff16905090565b610e3c611fda565b6000600260009054906101000a900473ffffffffffffffffffffffffffffffffffffffff1673ffffffffffffffffffffffffffffffffffffffff1663bbe4f6db846040518263ffffffff1660e01b8152600401610e999190612954565b6080604051808303816000875af1158015610eb8573d6000803e3d6000fd5b505050506040513d601f19601f82011682018060405250810190610edc9190612b1f565b90506000600260009054906101000a900473ffffffffffffffffffffffffffffffffffffffff1673ffffffffffffffffffffffffffffffffffffffff1663f2866c78856040518263ffffffff1660e01b8152600401610f3b9190612954565b6020604051808303816000875af1158015610f5a573d6000803e3d6000fd5b505050506040513d601f19601f82011682018060405250810190610f7e9190612a7a565b9050600082606001514311156110f2576000821115610fec576000836060015143610fa9919061281d565b90506000846020015182610fbd9190612763565b90508360055482610fce9190612763565b610fd891906127ec565b8560400151610fe79190612b4c565b925050505b60004390506000600260009054906101000a900473ffffffffffffffffffffffffffffffffffffffff1673ffffffffffffffffffffffffffffffffffffffff1663695c0bb88885856040518463ffffffff1660e01b815260040161105293929190612ba2565b6080604051808303816000875af1158015611071573d6000803e3d6000fd5b505050506040513d601f19601f820116820180604052508101906110959190612b1f565b90508673ffffffffffffffffffffffffffffffffffffffff167f2f4ae87a584f00dc35b043dd1c5ac839c1f41cd3a66e834d4e13faa6251634e6836040516110dd91906123c0565b60405180910390a280955050505050506110f6565b5050505b919050565b600080600260009054906101000a900473ffffffffffffffffffffffffffffffffffffffff1673ffffffffffffffffffffffffffffffffffffffff1663bbe4f6db856040518263ffffffff1660e01b81526004016111599190612954565b6080604051808303816000875af1158015611178573d6000803e3d6000fd5b505050506040513d601f19601f8201168201806040525081019061119c9190612b1f565b90506000600260009054906101000a900473ffffffffffffffffffffffffffffffffffffffff1673ffffffffffffffffffffffffffffffffffffffff166392a576e686866040518363ffffffff1660e01b81526004016111fd9291906123ea565b6000604051808303816000875af115801561121c573d6000803e3d6000fd5b505050506040513d6000823e3d601f19601f8201168201806040525081019061124591906126eb565b90506000826040015190506000600260009054906101000a900473ffffffffffffffffffffffffffffffffffffffff1673ffffffffffffffffffffffffffffffffffffffff1663f2866c78886040518263ffffffff1660e01b81526004016112ad9190612954565b6020604051808303816000875af11580156112cc573d6000803e3d6000fd5b505050506040513d601f19601f820116820180604052508101906112f09190612a7a565b9050836060015143118015611306575060008114155b1561135c57600084606001514361131d919061281d565b905060008560200151826113319190612763565b905082600554826113429190612763565b61134c91906127ec565b846113579190612b4c565b935050505b82602001516005548385600001516113749190612763565b61137e91906127ec565b611388919061281d565b94505050505092915050565b60006001600084815260200190815260200160002060000160008373ffffffffffffffffffffffffffffffffffffffff1673ffffffffffffffffffffffffffffffffffffffff16815260200190815260200160002060009054906101000a900460ff16905092915050565b6000801b81565b7f9f2df0fed2c77648de5860a4cc508cd0818c85b8b8a1ab4ceeef8d981c8956a681565b61143382610677565b6114448161143f611828565b611830565b61144e83836119ad565b505050565b6000801b61146881611463611828565b611830565b600047116114ab576040517f08c379a00000000000000000000000000000000000000000000000000000000081526004016114a290612c25565b60405180910390fd5b60004790503373ffffffffffffffffffffffffffffffffffffffff166108fc829081150290604051600060405180830381858888f193505050501580156114f6573d6000803e3d6000fd5b507f43b2a2d6daf661162c8c435ac5820ea5b1e0046355c5faac17d06ecb4f60f1533382604051611528929190612888565b60405180910390a15050565b600061153f83610e34565b90506000600260009054906101000a900473ffffffffffffffffffffffffffffffffffffffff1673ffffffffffffffffffffffffffffffffffffffff166392a576e685856040518363ffffffff1660e01b81526004016115a09291906123ea565b6000604051808303816000875af11580156115bf573d6000803e3d6000fd5b505050506040513d6000823e3d601f19601f820116820180604052508101906115e891906126eb565b90506000600260009054906101000a900473ffffffffffffffffffffffffffffffffffffffff1673ffffffffffffffffffffffffffffffffffffffff16630122a7e886866040518363ffffffff1660e01b81526004016116499291906123ea565b6020604051808303816000875af1158015611668573d6000803e3d6000fd5b505050506040513d601f19601f8201168201806040525081019061168c9190612a7a565b905060006005548460400151836116a39190612763565b6116ad91906127ec565b83602001516116bc919061281d565b9050600260009054906101000a900473ffffffffffffffffffffffffffffffffffffffff1673ffffffffffffffffffffffffffffffffffffffff16637bfe950c878785856040518563ffffffff1660e01b815260040161171f9493929190612a08565b600060405180830381600087803b15801561173957600080fd5b505af115801561174d573d6000803e3d6000fd5b505050508473ffffffffffffffffffffffffffffffffffffffff168673ffffffffffffffffffffffffffffffffffffffff167f9b1bfa7fa9ee420a16e124f794c35ac9f90472acc99140eb2f6447c714cad8eb846040516117ae91906123c0565b60405180910390a3505050505050565b60007f01ffc9a7000000000000000000000000000000000000000000000000000000007bffffffffffffffffffffffffffffffffffffffffffffffffffffffff1916827bffffffffffffffffffffffffffffffffffffffffffffffffffffffff1916149050919050565b600033905090565b61183a8282611394565b6118c95761185f8173ffffffffffffffffffffffffffffffffffffffff166014611b31565b61186d8360001c6020611b31565b60405160200161187e929190612d57565b6040516020818303038152906040526040517f08c379a00000000000000000000000000000000000000000000000000000000081526004016118c09190612dca565b60405180910390fd5b5050565b6118d78282611394565b6119a957600180600084815260200190815260200160002060000160008373ffffffffffffffffffffffffffffffffffffffff1673ffffffffffffffffffffffffffffffffffffffff16815260200190815260200160002060006101000a81548160ff02191690831515021790555061194e611828565b73ffffffffffffffffffffffffffffffffffffffff168173ffffffffffffffffffffffffffffffffffffffff16837f2f8788117e7eff1d82e926ec794901d17c78024a50270940304540a733656f0d60405160405180910390a45b5050565b6119b78282611394565b15611a8b5760006001600084815260200190815260200160002060000160008373ffffffffffffffffffffffffffffffffffffffff1673ffffffffffffffffffffffffffffffffffffffff16815260200190815260200160002060006101000a81548160ff021916908315150217905550611a30611828565b73ffffffffffffffffffffffffffffffffffffffff168173ffffffffffffffffffffffffffffffffffffffff16837ff6391f5c32d9c69d2a47ea670b442974b53935d1edc7fd64eb21e047a839171b60405160405180910390a45b5050565b60004360065483611aa09190612b4c565b109050919050565b611b2b846323b872dd60e01b858585604051602401611ac993929190612851565b604051602081830303815290604052907bffffffffffffffffffffffffffffffffffffffffffffffffffffffff19166020820180517bffffffffffffffffffffffffffffffffffffffffffffffffffffffff8381831617835250505050611d6d565b50505050565b606060006002836002611b449190612763565b611b4e9190612b4c565b67ffffffffffffffff811115611b6757611b66612429565b5b6040519080825280601f01601f191660200182016040528015611b995781602001600182028036833780820191505090505b5090507f300000000000000000000000000000000000000000000000000000000000000081600081518110611bd157611bd0612dec565b5b60200101907effffffffffffffffffffffffffffffffffffffffffffffffffffffffffffff1916908160001a9053507f780000000000000000000000000000000000000000000000000000000000000081600181518110611c3557611c34612dec565b5b60200101907effffffffffffffffffffffffffffffffffffffffffffffffffffffffffffff1916908160001a90535060006001846002611c759190612763565b611c7f9190612b4c565b90505b6001811115611d1f577f3031323334353637383961626364656600000000000000000000000000000000600f861660108110611cc157611cc0612dec565b5b1a60f81b828281518110611cd857611cd7612dec565b5b60200101907effffffffffffffffffffffffffffffffffffffffffffffffffffffffffffff1916908160001a905350600485901c945080611d1890612e1b565b9050611c82565b5060008414611d63576040517f08c379a0000000000000000000000000000000000000000000000000000000008152600401611d5a90612e91565b60405180910390fd5b8091505092915050565b6000611dcf826040518060400160405280602081526020017f5361666545524332303a206c6f772d6c6576656c2063616c6c206661696c65648152508573ffffffffffffffffffffffffffffffffffffffff16611e349092919063ffffffff16565b9050600081511115611e2f5780806020019051810190611def919061296f565b611e2e576040517f08c379a0000000000000000000000000000000000000000000000000000000008152600401611e2590612f23565b60405180910390fd5b5b505050565b6060611e438484600085611e4c565b90509392505050565b606082471015611e91576040517f08c379a0000000000000000000000000000000000000000000000000000000008152600401611e8890612fb5565b60405180910390fd5b611e9a85611f60565b611ed9576040517f08c379a0000000000000000000000000000000000000000000000000000000008152600401611ed090613021565b60405180910390fd5b6000808673ffffffffffffffffffffffffffffffffffffffff168587604051611f029190613088565b60006040518083038185875af1925050503d8060008114611f3f576040519150601f19603f3d011682016040523d82523d6000602084013e611f44565b606091505b5091509150611f54828286611f73565b92505050949350505050565b600080823b905060008111915050919050565b60608315611f8357829050611fd3565b600083511115611f965782518084602001fd5b816040517f08c379a0000000000000000000000000000000000000000000000000000000008152600401611fca9190612dca565b60405180910390fd5b9392505050565b6040518060800160405280600081526020016000815260200160008152602001600081525090565b6000604051905090565b600080fd5b600080fd5b60007fffffffff0000000000000000000000000000000000000000000000000000000082169050919050565b61204b81612016565b811461205657600080fd5b50565b60008135905061206881612042565b92915050565b6000602082840312156120845761208361200c565b5b600061209284828501612059565b91505092915050565b60008115159050919050565b6120b08161209b565b82525050565b60006020820190506120cb60008301846120a7565b92915050565b600073ffffffffffffffffffffffffffffffffffffffff82169050919050565b60006120fc826120d1565b9050919050565b61210c816120f1565b811461211757600080fd5b50565b60008135905061212981612103565b92915050565b600080604083850312156121465761214561200c565b5b60006121548582860161211a565b92505060206121658582860161211a565b9150509250929050565b6000819050919050565b6121828161216f565b811461218d57600080fd5b50565b60008135905061219f81612179565b92915050565b6000602082840312156121bb576121ba61200c565b5b60006121c984828501612190565b91505092915050565b6121db8161216f565b82525050565b60006020820190506121f660008301846121d2565b92915050565b600080604083850312156122135761221261200c565b5b600061222185828601612190565b92505060206122328582860161211a565b9150509250929050565b6000819050919050565b61224f8161223c565b811461225a57600080fd5b50565b60008135905061226c81612246565b92915050565b600080604083850312156122895761228861200c565b5b60006122978582860161211a565b92505060206122a88582860161225d565b9150509250929050565b6000806000606084860312156122cb576122ca61200c565b5b60006122d98682870161211a565b93505060206122ea8682870161225d565b92505060406122fb8682870161211a565b9150509250925092565b60006020828403121561231b5761231a61200c565b5b60006123298482850161211a565b91505092915050565b61233b8161223c565b82525050565b6080820160008201516123576000850182612332565b50602082015161236a6020850182612332565b50604082015161237d6040850182612332565b5060608201516123906060850182612332565b50505050565b60006080820190506123ab6000830184612341565b92915050565b6123ba8161223c565b82525050565b60006020820190506123d560008301846123b1565b92915050565b6123e4816120f1565b82525050565b60006040820190506123ff60008301856123db565b61240c60208301846123db565b9392505050565b600080fd5b6000601f19601f8301169050919050565b7f4e487b7100000000000000000000000000000000000000000000000000000000600052604160045260246000fd5b61246182612418565b810181811067ffffffffffffffff821117156124805761247f612429565b5b80604052505050565b6000612493612002565b905061249f8282612458565b919050565b600080fd5b6000815190506124b881612246565b92915050565b6124c78161209b565b81146124d257600080fd5b50565b6000815190506124e4816124be565b92915050565b600080fd5b600067ffffffffffffffff82111561250a57612509612429565b5b602082029050602081019050919050565b600080fd5b60006080828403121561253657612535612413565b5b6125406080612489565b90506000612550848285016124a9565b6000830152506020612564848285016124a9565b6020830152506040612578848285016124a9565b604083015250606061258c848285016124d5565b60608301525092915050565b60006125ab6125a6846124ef565b612489565b905080838252602082019050608084028301858111156125ce576125cd61251b565b5b835b818110156125f757806125e38882612520565b8452602084019350506080810190506125d0565b5050509392505050565b600082601f830112612616576126156124ea565b5b8151612626848260208601612598565b91505092915050565b600060c0828403121561264557612644612413565b5b61264f60c0612489565b9050600061265f848285016124a9565b6000830152506020612673848285016124a9565b6020830152506040612687848285016124a9565b604083015250606061269b848285016124d5565b60608301525060806126af848285016124d5565b60808301525060a082015167ffffffffffffffff8111156126d3576126d26124a4565b5b6126df84828501612601565b60a08301525092915050565b6000602082840312156127015761270061200c565b5b600082015167ffffffffffffffff81111561271f5761271e612011565b5b61272b8482850161262f565b91505092915050565b7f4e487b7100000000000000000000000000000000000000000000000000000000600052601160045260246000fd5b600061276e8261223c565b91506127798361223c565b9250817fffffffffffffffffffffffffffffffffffffffffffffffffffffffffffffffff04831182151516156127b2576127b1612734565b5b828202905092915050565b7f4e487b7100000000000000000000000000000000000000000000000000000000600052601260045260246000fd5b60006127f78261223c565b91506128028361223c565b925082612812576128116127bd565b5b828204905092915050565b60006128288261223c565b91506128338361223c565b92508282101561284657612845612734565b5b828203905092915050565b600060608201905061286660008301866123db565b61287360208301856123db565b61288060408301846123b1565b949350505050565b600060408201905061289d60008301856123db565b6128aa60208301846123b1565b9392505050565b600082825260208201905092915050565b7f416363657373436f6e74726f6c3a2063616e206f6e6c792072656e6f756e636560008201527f20726f6c657320666f722073656c660000000000000000000000000000000000602082015250565b600061291e602f836128b1565b9150612929826128c2565b604082019050919050565b6000602082019050818103600083015261294d81612911565b9050919050565b600060208201905061296960008301846123db565b92915050565b6000602082840312156129855761298461200c565b5b6000612993848285016124d5565b91505092915050565b7f506f6f6c20646f6573206e6f7420657869737400000000000000000000000000600082015250565b60006129d26013836128b1565b91506129dd8261299c565b602082019050919050565b60006020820190508181036000830152612a01816129c5565b9050919050565b6000608082019050612a1d60008301876123db565b612a2a60208301866123db565b612a3760408301856123b1565b612a4460608301846123b1565b95945050505050565b600060808284031215612a6357612a6261200c565b5b6000612a7184828501612520565b91505092915050565b600060208284031215612a9057612a8f61200c565b5b6000612a9e848285016124a9565b91505092915050565b600060808284031215612abd57612abc612413565b5b612ac76080612489565b90506000612ad7848285016124a9565b6000830152506020612aeb848285016124a9565b6020830152506040612aff848285016124a9565b6040830152506060612b13848285016124a9565b60608301525092915050565b600060808284031215612b3557612b3461200c565b5b6000612b4384828501612aa7565b91505092915050565b6000612b578261223c565b9150612b628361223c565b9250827fffffffffffffffffffffffffffffffffffffffffffffffffffffffffffffffff03821115612b9757612b96612734565b5b828201905092915050565b6000606082019050612bb760008301866123db565b612bc460208301856123b1565b612bd160408301846123b1565b949350505050565b7f6e6f206d6174696320746f207769746864726177000000000000000000000000600082015250565b6000612c0f6014836128b1565b9150612c1a82612bd9565b602082019050919050565b60006020820190508181036000830152612c3e81612c02565b9050919050565b600081905092915050565b7f416363657373436f6e74726f6c3a206163636f756e7420000000000000000000600082015250565b6000612c86601783612c45565b9150612c9182612c50565b601782019050919050565b600081519050919050565b60005b83811015612cc5578082015181840152602081019050612caa565b83811115612cd4576000848401525b50505050565b6000612ce582612c9c565b612cef8185612c45565b9350612cff818560208601612ca7565b80840191505092915050565b7f206973206d697373696e6720726f6c6520000000000000000000000000000000600082015250565b6000612d41601183612c45565b9150612d4c82612d0b565b601182019050919050565b6000612d6282612c79565b9150612d6e8285612cda565b9150612d7982612d34565b9150612d858284612cda565b91508190509392505050565b6000612d9c82612c9c565b612da681856128b1565b9350612db6818560208601612ca7565b612dbf81612418565b840191505092915050565b60006020820190508181036000830152612de48184612d91565b905092915050565b7f4e487b7100000000000000000000000000000000000000000000000000000000600052603260045260246000fd5b6000612e268261223c565b91506000821415612e3a57612e39612734565b5b600182039050919050565b7f537472696e67733a20686578206c656e67746820696e73756666696369656e74600082015250565b6000612e7b6020836128b1565b9150612e8682612e45565b602082019050919050565b60006020820190508181036000830152612eaa81612e6e565b9050919050565b7f5361666545524332303a204552433230206f7065726174696f6e20646964206e60008201527f6f74207375636365656400000000000000000000000000000000000000000000602082015250565b6000612f0d602a836128b1565b9150612f1882612eb1565b604082019050919050565b60006020820190508181036000830152612f3c81612f00565b9050919050565b7f416464726573733a20696e73756666696369656e742062616c616e636520666f60008201527f722063616c6c0000000000000000000000000000000000000000000000000000602082015250565b6000612f9f6026836128b1565b9150612faa82612f43565b604082019050919050565b60006020820190508181036000830152612fce81612f92565b9050919050565b7f416464726573733a2063616c6c20746f206e6f6e2d636f6e7472616374000000600082015250565b600061300b601d836128b1565b915061301682612fd5565b602082019050919050565b6000602082019050818103600083015261303a81612ffe565b9050919050565b600081519050919050565b600081905092915050565b600061306282613041565b61306c818561304c565b935061307c818560208601612ca7565b80840191505092915050565b60006130948284613057565b91508190509291505056fea26469706673582212209e8e29190accc77644f504126599530afaf189f35293383938d9799a4776dfb964736f6c634300080b0033",
  "linkReferences": {},
  "deployedLinkReferences": {}
}