{
  "_format": "hh-sol-artifact-1",
  "contractName": "TreasuryFund",
  "sourceName": "contracts/treasury/TreasuryFund.sol",
  "abi": [
    {
      "inputs": [
        {
          "internalType": "address",
          "name": "_capl",
          "type": "address"
        },
        {
          "internalType": "address",
          "name": "_treasuryStorage",
          "type": "address"
        }
      ],
      "stateMutability": "nonpayable",
      "type": "constructor"
    },
    {
      "anonymous": false,
      "inputs": [
        {
          "indexed": true,
          "internalType": "address",
          "name": "_token",
          "type": "address"
        },
        {
          "indexed": true,
          "internalType": "address",
          "name": "_user",
          "type": "address"
        },
        {
          "indexed": false,
          "internalType": "uint256",
          "name": "_amount",
          "type": "uint256"
        }
      ],
      "name": "Claim",
      "type": "event"
    },
    {
      "anonymous": false,
      "inputs": [
        {
          "indexed": false,
          "internalType": "address",
          "name": "_token",
          "type": "address"
        },
        {
          "indexed": false,
          "internalType": "address",
          "name": "_user",
          "type": "address"
        },
        {
          "indexed": false,
          "internalType": "uint256",
          "name": "_amount",
          "type": "uint256"
        }
      ],
      "name": "Deposit",
      "type": "event"
    },
    {
      "anonymous": false,
      "inputs": [
        {
          "indexed": true,
          "internalType": "address",
          "name": "_token",
          "type": "address"
        },
        {
          "indexed": false,
          "internalType": "uint256",
          "name": "_block",
          "type": "uint256"
        }
      ],
      "name": "PoolUpdated",
      "type": "event"
    },
    {
      "anonymous": false,
      "inputs": [
        {
          "indexed": true,
          "internalType": "bytes32",
          "name": "role",
          "type": "bytes32"
        },
        {
          "indexed": true,
          "internalType": "bytes32",
          "name": "previousAdminRole",
          "type": "bytes32"
        },
        {
          "indexed": true,
          "internalType": "bytes32",
          "name": "newAdminRole",
          "type": "bytes32"
        }
      ],
      "name": "RoleAdminChanged",
      "type": "event"
    },
    {
      "anonymous": false,
      "inputs": [
        {
          "indexed": true,
          "internalType": "bytes32",
          "name": "role",
          "type": "bytes32"
        },
        {
          "indexed": true,
          "internalType": "address",
          "name": "account",
          "type": "address"
        },
        {
          "indexed": true,
          "internalType": "address",
          "name": "sender",
          "type": "address"
        }
      ],
      "name": "RoleGranted",
      "type": "event"
    },
    {
      "anonymous": false,
      "inputs": [
        {
          "indexed": true,
          "internalType": "bytes32",
          "name": "role",
          "type": "bytes32"
        },
        {
          "indexed": true,
          "internalType": "address",
          "name": "account",
          "type": "address"
        },
        {
          "indexed": true,
          "internalType": "address",
          "name": "sender",
          "type": "address"
        }
      ],
      "name": "RoleRevoked",
      "type": "event"
    },
    {
      "anonymous": false,
      "inputs": [
        {
          "indexed": true,
          "internalType": "address",
          "name": "_token",
          "type": "address"
        },
        {
          "indexed": true,
          "internalType": "address",
          "name": "_user",
          "type": "address"
        },
        {
          "indexed": false,
          "internalType": "uint256",
          "name": "_amount",
          "type": "uint256"
        }
      ],
      "name": "Withdraw",
      "type": "event"
    },
    {
      "inputs": [],
      "name": "DEFAULT_ADMIN_ROLE",
      "outputs": [
        {
          "internalType": "bytes32",
          "name": "",
          "type": "bytes32"
        }
      ],
      "stateMutability": "view",
      "type": "function"
    },
    {
      "inputs": [],
      "name": "claimRevenue",
      "outputs": [],
      "stateMutability": "nonpayable",
      "type": "function"
    },
    {
      "inputs": [
        {
          "internalType": "address",
          "name": "_token",
          "type": "address"
        },
        {
          "internalType": "uint256",
          "name": "_amount",
          "type": "uint256"
        }
      ],
      "name": "deposit",
      "outputs": [],
      "stateMutability": "nonpayable",
      "type": "function"
    },
    {
      "inputs": [
        {
          "internalType": "bytes32",
          "name": "role",
          "type": "bytes32"
        }
      ],
      "name": "getRoleAdmin",
      "outputs": [
        {
          "internalType": "bytes32",
          "name": "",
          "type": "bytes32"
        }
      ],
      "stateMutability": "view",
      "type": "function"
    },
    {
      "inputs": [],
      "name": "getTotalManagedValue",
      "outputs": [],
      "stateMutability": "nonpayable",
      "type": "function"
    },
    {
      "inputs": [
        {
          "internalType": "bytes32",
          "name": "role",
          "type": "bytes32"
        },
        {
          "internalType": "address",
          "name": "account",
          "type": "address"
        }
      ],
      "name": "grantRole",
      "outputs": [],
      "stateMutability": "nonpayable",
      "type": "function"
    },
    {
      "inputs": [
        {
          "internalType": "bytes32",
          "name": "role",
          "type": "bytes32"
        },
        {
          "internalType": "address",
          "name": "account",
          "type": "address"
        }
      ],
      "name": "hasRole",
      "outputs": [
        {
          "internalType": "bool",
          "name": "",
          "type": "bool"
        }
      ],
      "stateMutability": "view",
      "type": "function"
    },
    {
      "inputs": [],
      "name": "pendingRevenue",
      "outputs": [
        {
          "internalType": "uint256",
          "name": "pending",
          "type": "uint256"
        }
      ],
      "stateMutability": "nonpayable",
      "type": "function"
    },
    {
      "inputs": [
        {
          "internalType": "bytes32",
          "name": "role",
          "type": "bytes32"
        },
        {
          "internalType": "address",
          "name": "account",
          "type": "address"
        }
      ],
      "name": "renounceRole",
      "outputs": [],
      "stateMutability": "nonpayable",
      "type": "function"
    },
    {
      "inputs": [
        {
          "internalType": "bytes32",
          "name": "role",
          "type": "bytes32"
        },
        {
          "internalType": "address",
          "name": "account",
          "type": "address"
        }
      ],
      "name": "revokeRole",
      "outputs": [],
      "stateMutability": "nonpayable",
      "type": "function"
    },
    {
      "inputs": [
        {
          "internalType": "address",
          "name": "_destination",
          "type": "address"
        }
      ],
      "name": "setRevenueController",
      "outputs": [],
      "stateMutability": "nonpayable",
      "type": "function"
    },
    {
      "inputs": [
        {
          "internalType": "bytes4",
          "name": "interfaceId",
          "type": "bytes4"
        }
      ],
      "name": "supportsInterface",
      "outputs": [
        {
          "internalType": "bool",
          "name": "",
          "type": "bool"
        }
      ],
      "stateMutability": "view",
      "type": "function"
    },
    {
      "inputs": [
        {
          "internalType": "address",
          "name": "_token",
          "type": "address"
        }
      ],
      "name": "updatePool",
      "outputs": [
        {
          "components": [
            {
              "internalType": "uint256",
              "name": "totalPooled",
              "type": "uint256"
            },
            {
              "internalType": "uint256",
              "name": "rewardsPerBlock",
              "type": "uint256"
            },
            {
              "internalType": "uint256",
              "name": "accCaplPerShare",
              "type": "uint256"
            },
            {
              "internalType": "uint256",
              "name": "lastRewardBlock",
              "type": "uint256"
            }
          ],
          "internalType": "struct IPool.Pool",
          "name": "pool",
          "type": "tuple"
        }
      ],
      "stateMutability": "nonpayable",
      "type": "function"
    },
    {
      "inputs": [
        {
          "internalType": "address",
          "name": "_token",
          "type": "address"
        }
      ],
      "name": "withdraw",
      "outputs": [],
      "stateMutability": "nonpayable",
      "type": "function"
    }
  ],
  "bytecode": "0x6080604052670de0b6b3a76400006002553480156200001d57600080fd5b5060405162002c9f38038062002c9f833981810160405281019062000043919062000137565b81600160006101000a81548173ffffffffffffffffffffffffffffffffffffffff021916908373ffffffffffffffffffffffffffffffffffffffff16021790555080600760006101000a81548173ffffffffffffffffffffffffffffffffffffffff021916908373ffffffffffffffffffffffffffffffffffffffff16021790555050506200017e565b600080fd5b600073ffffffffffffffffffffffffffffffffffffffff82169050919050565b6000620000ff82620000d2565b9050919050565b6200011181620000f2565b81146200011d57600080fd5b50565b600081519050620001318162000106565b92915050565b60008060408385031215620001515762000150620000cd565b5b6000620001618582860162000120565b9250506020620001748582860162000120565b9150509250929050565b612b11806200018e6000396000f3fe608060405234801561001057600080fd5b50600436106100ea5760003560e01c80637b46c54f1161008c578063a217fddf11610066578063a217fddf14610233578063d547741f14610251578063f9a758e51461026d578063fa86fa241461028b576100ea565b80637b46c54f146101c957806391d14854146101f95780639b3f6e1814610229576100ea565b806336568abe116100c857806336568abe1461016b57806347e7ef241461018757806351cff8d9146101a3578063564f4f76146101bf576100ea565b806301ffc9a7146100ef578063248a9ca31461011f5780632f2ff15d1461014f575b600080fd5b61010960048036038101906101049190611d6c565b6102a7565b6040516101169190611db4565b60405180910390f35b61013960048036038101906101349190611e05565b610321565b6040516101469190611e41565b60405180910390f35b61016960048036038101906101649190611eba565b610340565b005b61018560048036038101906101809190611eba565b610369565b005b6101a1600480360381019061019c9190611f30565b6103ec565b005b6101bd60048036038101906101b89190611f70565b6107b9565b005b6101c7610ada565b005b6101e360048036038101906101de9190611f70565b610ddf565b6040516101f09190612001565b60405180910390f35b610213600480360381019061020e9190611eba565b611109565b6040516102209190611db4565b60405180910390f35b610231611173565b005b61023b611175565b6040516102489190611e41565b60405180910390f35b61026b60048036038101906102669190611eba565b61117c565b005b6102756111a5565b604051610282919061202b565b60405180910390f35b6102a560048036038101906102a09190611f70565b61149a565b005b60007f7965db0b000000000000000000000000000000000000000000000000000000007bffffffffffffffffffffffffffffffffffffffffffffffffffffffff1916827bffffffffffffffffffffffffffffffffffffffffffffffffffffffff1916148061031a5750610319826114de565b5b9050919050565b6000806000838152602001908152602001600020600101549050919050565b61034982610321565b61035a81610355611548565b611550565b61036483836115ed565b505050565b610371611548565b73ffffffffffffffffffffffffffffffffffffffff168173ffffffffffffffffffffffffffffffffffffffff16146103de576040517f08c379a00000000000000000000000000000000000000000000000000000000081526004016103d5906120c9565b60405180910390fd5b6103e882826116cd565b5050565b600760009054906101000a900473ffffffffffffffffffffffffffffffffffffffff16600460006101000a81548173ffffffffffffffffffffffffffffffffffffffff021916908373ffffffffffffffffffffffffffffffffffffffff160217905550600460009054906101000a900473ffffffffffffffffffffffffffffffffffffffff1673ffffffffffffffffffffffffffffffffffffffff1663999126d7836040518263ffffffff1660e01b81526004016104aa91906120f8565b6020604051808303816000875af11580156104c9573d6000803e3d6000fd5b505050506040513d601f19601f820116820180604052508101906104ed919061213f565b61052c576040517f08c379a0000000000000000000000000000000000000000000000000000000008152600401610523906121b8565b60405180910390fd5b600061053783610ddf565b9050600060025482604001518461054e9190612207565b6105589190612290565b9050600460009054906101000a900473ffffffffffffffffffffffffffffffffffffffff1673ffffffffffffffffffffffffffffffffffffffff1663b6f867a833866040518363ffffffff1660e01b81526004016105b79291906122c1565b6020604051808303816000875af11580156105d6573d6000803e3d6000fd5b505050506040513d601f19601f820116820180604052508101906105fa919061213f565b1561069757600460009054906101000a900473ffffffffffffffffffffffffffffffffffffffff1673ffffffffffffffffffffffffffffffffffffffff1663f5b5d237853386856040518563ffffffff1660e01b815260040161066094939291906122ea565b600060405180830381600087803b15801561067a57600080fd5b505af115801561068e573d6000803e3d6000fd5b5050505061072b565b600460009054906101000a900473ffffffffffffffffffffffffffffffffffffffff1673ffffffffffffffffffffffffffffffffffffffff1663d2456a95853386856040518563ffffffff1660e01b81526004016106f894939291906122ea565b600060405180830381600087803b15801561071257600080fd5b505af1158015610726573d6000803e3d6000fd5b505050505b610778600760009054906101000a900473ffffffffffffffffffffffffffffffffffffffff16848673ffffffffffffffffffffffffffffffffffffffff166117ae9092919063ffffffff16565b7f5548c837ab068cf56a2c2479df0882a4922fd203edb7517321831d95078c5f628433856040516107ab9392919061232f565b60405180910390a150505050565b60006107c482610ddf565b90506000600460009054906101000a900473ffffffffffffffffffffffffffffffffffffffff1673ffffffffffffffffffffffffffffffffffffffff166392a576e684336040518363ffffffff1660e01b81526004016108259291906122c1565b60a060405180830381865afa158015610842573d6000803e3d6000fd5b505050506040513d601f19601f820116820180604052508101906108669190612498565b90506000600460009054906101000a900473ffffffffffffffffffffffffffffffffffffffff1673ffffffffffffffffffffffffffffffffffffffff16630122a7e885336040518363ffffffff1660e01b81526004016108c79291906122c1565b602060405180830381865afa1580156108e4573d6000803e3d6000fd5b505050506040513d601f19601f8201168201806040525081019061090891906124c5565b9050600060025484604001518361091f9190612207565b6109299190612290565b836020015161093891906124f2565b90508473ffffffffffffffffffffffffffffffffffffffff1663095ea7b3600460009054906101000a900473ffffffffffffffffffffffffffffffffffffffff16846040518363ffffffff1660e01b8152600401610997929190612526565b6020604051808303816000875af11580156109b6573d6000803e3d6000fd5b505050506040513d601f19601f820116820180604052508101906109da919061213f565b50600460009054906101000a900473ffffffffffffffffffffffffffffffffffffffff1673ffffffffffffffffffffffffffffffffffffffff16637bfe950c863385856040518563ffffffff1660e01b8152600401610a3c94939291906122ea565b600060405180830381600087803b158015610a5657600080fd5b505af1158015610a6a573d6000803e3d6000fd5b505050503373ffffffffffffffffffffffffffffffffffffffff168573ffffffffffffffffffffffffffffffffffffffff167f9b1bfa7fa9ee420a16e124f794c35ac9f90472acc99140eb2f6447c714cad8eb84604051610acb919061202b565b60405180910390a35050505050565b6000610b07600160009054906101000a900473ffffffffffffffffffffffffffffffffffffffff16610ddf565b90506000600460009054906101000a900473ffffffffffffffffffffffffffffffffffffffff1673ffffffffffffffffffffffffffffffffffffffff166392a576e6600160009054906101000a900473ffffffffffffffffffffffffffffffffffffffff16336040518363ffffffff1660e01b8152600401610b8a9291906122c1565b60a060405180830381865afa158015610ba7573d6000803e3d6000fd5b505050506040513d601f19601f82011682018060405250810190610bcb9190612498565b9050600060025483604001518360000151610be69190612207565b610bf09190612290565b90506000826020015182610c0491906124f2565b9050600460009054906101000a900473ffffffffffffffffffffffffffffffffffffffff1673ffffffffffffffffffffffffffffffffffffffff16638a5bff6b600160009054906101000a900473ffffffffffffffffffffffffffffffffffffffff1633856040518463ffffffff1660e01b8152600401610c879392919061232f565b600060405180830381600087803b158015610ca157600080fd5b505af1158015610cb5573d6000803e3d6000fd5b505050506000811115610d5257600360009054906101000a900473ffffffffffffffffffffffffffffffffffffffff1673ffffffffffffffffffffffffffffffffffffffff166340c10f1933836040518363ffffffff1660e01b8152600401610d1f929190612526565b600060405180830381600087803b158015610d3957600080fd5b505af1158015610d4d573d6000803e3d6000fd5b505050505b3373ffffffffffffffffffffffffffffffffffffffff16600160009054906101000a900473ffffffffffffffffffffffffffffffffffffffff1673ffffffffffffffffffffffffffffffffffffffff167f70eb43c4a8ae8c40502dcf22436c509c28d6ff421cf07c491be56984bd98706883604051610dd1919061202b565b60405180910390a350505050565b610de7611cdd565b600760009054906101000a900473ffffffffffffffffffffffffffffffffffffffff16600460006101000a81548173ffffffffffffffffffffffffffffffffffffffff021916908373ffffffffffffffffffffffffffffffffffffffff1602179055506000600460009054906101000a900473ffffffffffffffffffffffffffffffffffffffff1673ffffffffffffffffffffffffffffffffffffffff1663bbe4f6db846040518263ffffffff1660e01b8152600401610ea791906120f8565b6080604051808303816000875af1158015610ec6573d6000803e3d6000fd5b505050506040513d601f19601f82011682018060405250810190610eea91906125c7565b90506000600460009054906101000a900473ffffffffffffffffffffffffffffffffffffffff1673ffffffffffffffffffffffffffffffffffffffff1663f2866c78856040518263ffffffff1660e01b8152600401610f4991906120f8565b6020604051808303816000875af1158015610f68573d6000803e3d6000fd5b505050506040513d601f19601f82011682018060405250810190610f8c91906124c5565b905060008260600151431115611100576000821115610ffa576000836060015143610fb791906124f2565b90506000846020015182610fcb9190612207565b90508360025482610fdc9190612207565b610fe69190612290565b8560400151610ff591906125f4565b925050505b60004390506000600460009054906101000a900473ffffffffffffffffffffffffffffffffffffffff1673ffffffffffffffffffffffffffffffffffffffff1663695c0bb88885856040518463ffffffff1660e01b81526004016110609392919061264a565b6080604051808303816000875af115801561107f573d6000803e3d6000fd5b505050506040513d601f19601f820116820180604052508101906110a391906125c7565b90508673ffffffffffffffffffffffffffffffffffffffff167f2f4ae87a584f00dc35b043dd1c5ac839c1f41cd3a66e834d4e13faa6251634e6836040516110eb919061202b565b60405180910390a28095505050505050611104565b5050505b919050565b600080600084815260200190815260200160002060000160008373ffffffffffffffffffffffffffffffffffffffff1673ffffffffffffffffffffffffffffffffffffffff16815260200190815260200160002060009054906101000a900460ff16905092915050565b565b6000801b81565b61118582610321565b61119681611191611548565b611550565b6111a083836116cd565b505050565b600080600760009054906101000a900473ffffffffffffffffffffffffffffffffffffffff1673ffffffffffffffffffffffffffffffffffffffff1663bbe4f6db600160009054906101000a900473ffffffffffffffffffffffffffffffffffffffff166040518263ffffffff1660e01b815260040161122591906120f8565b6080604051808303816000875af1158015611244573d6000803e3d6000fd5b505050506040513d601f19601f8201168201806040525081019061126891906125c7565b90506000600760009054906101000a900473ffffffffffffffffffffffffffffffffffffffff1673ffffffffffffffffffffffffffffffffffffffff166392a576e6600160009054906101000a900473ffffffffffffffffffffffffffffffffffffffff16336040518363ffffffff1660e01b81526004016112eb9291906122c1565b60a060405180830381865afa158015611308573d6000803e3d6000fd5b505050506040513d601f19601f8201168201806040525081019061132c9190612498565b90506000826040015190506000600760009054906101000a900473ffffffffffffffffffffffffffffffffffffffff1673ffffffffffffffffffffffffffffffffffffffff1663f2866c78600160009054906101000a900473ffffffffffffffffffffffffffffffffffffffff166040518263ffffffff1660e01b81526004016113b691906120f8565b6020604051808303816000875af11580156113d5573d6000803e3d6000fd5b505050506040513d601f19601f820116820180604052508101906113f991906124c5565b905083606001514311801561140f575060008114155b1561146557600084606001514361142691906124f2565b9050600085602001518261143a9190612207565b9050826002548261144b9190612207565b6114559190612290565b8461146091906125f4565b935050505b826020015160025483856000015161147d9190612207565b6114879190612290565b61149191906124f2565b94505050505090565b80600660006101000a81548173ffffffffffffffffffffffffffffffffffffffff021916908373ffffffffffffffffffffffffffffffffffffffff16021790555050565b60007f01ffc9a7000000000000000000000000000000000000000000000000000000007bffffffffffffffffffffffffffffffffffffffffffffffffffffffff1916827bffffffffffffffffffffffffffffffffffffffffffffffffffffffff1916149050919050565b600033905090565b61155a8282611109565b6115e95761157f8173ffffffffffffffffffffffffffffffffffffffff166014611834565b61158d8360001c6020611834565b60405160200161159e929190612793565b6040516020818303038152906040526040517f08c379a00000000000000000000000000000000000000000000000000000000081526004016115e09190612806565b60405180910390fd5b5050565b6115f78282611109565b6116c957600160008084815260200190815260200160002060000160008373ffffffffffffffffffffffffffffffffffffffff1673ffffffffffffffffffffffffffffffffffffffff16815260200190815260200160002060006101000a81548160ff02191690831515021790555061166e611548565b73ffffffffffffffffffffffffffffffffffffffff168173ffffffffffffffffffffffffffffffffffffffff16837f2f8788117e7eff1d82e926ec794901d17c78024a50270940304540a733656f0d60405160405180910390a45b5050565b6116d78282611109565b156117aa57600080600084815260200190815260200160002060000160008373ffffffffffffffffffffffffffffffffffffffff1673ffffffffffffffffffffffffffffffffffffffff16815260200190815260200160002060006101000a81548160ff02191690831515021790555061174f611548565b73ffffffffffffffffffffffffffffffffffffffff168173ffffffffffffffffffffffffffffffffffffffff16837ff6391f5c32d9c69d2a47ea670b442974b53935d1edc7fd64eb21e047a839171b60405160405180910390a45b5050565b61182f8363a9059cbb60e01b84846040516024016117cd929190612526565b604051602081830303815290604052907bffffffffffffffffffffffffffffffffffffffffffffffffffffffff19166020820180517bffffffffffffffffffffffffffffffffffffffffffffffffffffffff8381831617835250505050611a70565b505050565b6060600060028360026118479190612207565b61185191906125f4565b67ffffffffffffffff81111561186a5761186961237c565b5b6040519080825280601f01601f19166020018201604052801561189c5781602001600182028036833780820191505090505b5090507f3000000000000000000000000000000000000000000000000000000000000000816000815181106118d4576118d3612828565b5b60200101907effffffffffffffffffffffffffffffffffffffffffffffffffffffffffffff1916908160001a9053507f78000000000000000000000000000000000000000000000000000000000000008160018151811061193857611937612828565b5b60200101907effffffffffffffffffffffffffffffffffffffffffffffffffffffffffffff1916908160001a905350600060018460026119789190612207565b61198291906125f4565b90505b6001811115611a22577f3031323334353637383961626364656600000000000000000000000000000000600f8616601081106119c4576119c3612828565b5b1a60f81b8282815181106119db576119da612828565b5b60200101907effffffffffffffffffffffffffffffffffffffffffffffffffffffffffffff1916908160001a905350600485901c945080611a1b90612857565b9050611985565b5060008414611a66576040517f08c379a0000000000000000000000000000000000000000000000000000000008152600401611a5d906128cd565b60405180910390fd5b8091505092915050565b6000611ad2826040518060400160405280602081526020017f5361666545524332303a206c6f772d6c6576656c2063616c6c206661696c65648152508573ffffffffffffffffffffffffffffffffffffffff16611b379092919063ffffffff16565b9050600081511115611b325780806020019051810190611af2919061213f565b611b31576040517f08c379a0000000000000000000000000000000000000000000000000000000008152600401611b289061295f565b60405180910390fd5b5b505050565b6060611b468484600085611b4f565b90509392505050565b606082471015611b94576040517f08c379a0000000000000000000000000000000000000000000000000000000008152600401611b8b906129f1565b60405180910390fd5b611b9d85611c63565b611bdc576040517f08c379a0000000000000000000000000000000000000000000000000000000008152600401611bd390612a5d565b60405180910390fd5b6000808673ffffffffffffffffffffffffffffffffffffffff168587604051611c059190612ac4565b60006040518083038185875af1925050503d8060008114611c42576040519150601f19603f3d011682016040523d82523d6000602084013e611c47565b606091505b5091509150611c57828286611c76565b92505050949350505050565b600080823b905060008111915050919050565b60608315611c8657829050611cd6565b600083511115611c995782518084602001fd5b816040517f08c379a0000000000000000000000000000000000000000000000000000000008152600401611ccd9190612806565b60405180910390fd5b9392505050565b6040518060800160405280600081526020016000815260200160008152602001600081525090565b6000604051905090565b600080fd5b60007fffffffff0000000000000000000000000000000000000000000000000000000082169050919050565b611d4981611d14565b8114611d5457600080fd5b50565b600081359050611d6681611d40565b92915050565b600060208284031215611d8257611d81611d0f565b5b6000611d9084828501611d57565b91505092915050565b60008115159050919050565b611dae81611d99565b82525050565b6000602082019050611dc96000830184611da5565b92915050565b6000819050919050565b611de281611dcf565b8114611ded57600080fd5b50565b600081359050611dff81611dd9565b92915050565b600060208284031215611e1b57611e1a611d0f565b5b6000611e2984828501611df0565b91505092915050565b611e3b81611dcf565b82525050565b6000602082019050611e566000830184611e32565b92915050565b600073ffffffffffffffffffffffffffffffffffffffff82169050919050565b6000611e8782611e5c565b9050919050565b611e9781611e7c565b8114611ea257600080fd5b50565b600081359050611eb481611e8e565b92915050565b60008060408385031215611ed157611ed0611d0f565b5b6000611edf85828601611df0565b9250506020611ef085828601611ea5565b9150509250929050565b6000819050919050565b611f0d81611efa565b8114611f1857600080fd5b50565b600081359050611f2a81611f04565b92915050565b60008060408385031215611f4757611f46611d0f565b5b6000611f5585828601611ea5565b9250506020611f6685828601611f1b565b9150509250929050565b600060208284031215611f8657611f85611d0f565b5b6000611f9484828501611ea5565b91505092915050565b611fa681611efa565b82525050565b608082016000820151611fc26000850182611f9d565b506020820151611fd56020850182611f9d565b506040820151611fe86040850182611f9d565b506060820151611ffb6060850182611f9d565b50505050565b60006080820190506120166000830184611fac565b92915050565b61202581611efa565b82525050565b6000602082019050612040600083018461201c565b92915050565b600082825260208201905092915050565b7f416363657373436f6e74726f6c3a2063616e206f6e6c792072656e6f756e636560008201527f20726f6c657320666f722073656c660000000000000000000000000000000000602082015250565b60006120b3602f83612046565b91506120be82612057565b604082019050919050565b600060208201905081810360008301526120e2816120a6565b9050919050565b6120f281611e7c565b82525050565b600060208201905061210d60008301846120e9565b92915050565b61211c81611d99565b811461212757600080fd5b50565b60008151905061213981612113565b92915050565b60006020828403121561215557612154611d0f565b5b60006121638482850161212a565b91505092915050565b7f506f6f6c20646f6573206e6f7420657869737400000000000000000000000000600082015250565b60006121a2601383612046565b91506121ad8261216c565b602082019050919050565b600060208201905081810360008301526121d181612195565b9050919050565b7f4e487b7100000000000000000000000000000000000000000000000000000000600052601160045260246000fd5b600061221282611efa565b915061221d83611efa565b9250817fffffffffffffffffffffffffffffffffffffffffffffffffffffffffffffffff0483118215151615612256576122556121d8565b5b828202905092915050565b7f4e487b7100000000000000000000000000000000000000000000000000000000600052601260045260246000fd5b600061229b82611efa565b91506122a683611efa565b9250826122b6576122b5612261565b5b828204905092915050565b60006040820190506122d660008301856120e9565b6122e360208301846120e9565b9392505050565b60006080820190506122ff60008301876120e9565b61230c60208301866120e9565b612319604083018561201c565b612326606083018461201c565b95945050505050565b600060608201905061234460008301866120e9565b61235160208301856120e9565b61235e604083018461201c565b949350505050565b600080fd5b6000601f19601f8301169050919050565b7f4e487b7100000000000000000000000000000000000000000000000000000000600052604160045260246000fd5b6123b48261236b565b810181811067ffffffffffffffff821117156123d3576123d261237c565b5b80604052505050565b60006123e6611d05565b90506123f282826123ab565b919050565b60008151905061240681611f04565b92915050565b600060a0828403121561242257612421612366565b5b61242c60a06123dc565b9050600061243c848285016123f7565b6000830152506020612450848285016123f7565b6020830152506040612464848285016123f7565b60408301525060606124788482850161212a565b606083015250608061248c8482850161212a565b60808301525092915050565b600060a082840312156124ae576124ad611d0f565b5b60006124bc8482850161240c565b91505092915050565b6000602082840312156124db576124da611d0f565b5b60006124e9848285016123f7565b91505092915050565b60006124fd82611efa565b915061250883611efa565b92508282101561251b5761251a6121d8565b5b828203905092915050565b600060408201905061253b60008301856120e9565b612548602083018461201c565b9392505050565b60006080828403121561256557612564612366565b5b61256f60806123dc565b9050600061257f848285016123f7565b6000830152506020612593848285016123f7565b60208301525060406125a7848285016123f7565b60408301525060606125bb848285016123f7565b60608301525092915050565b6000608082840312156125dd576125dc611d0f565b5b60006125eb8482850161254f565b91505092915050565b60006125ff82611efa565b915061260a83611efa565b9250827fffffffffffffffffffffffffffffffffffffffffffffffffffffffffffffffff0382111561263f5761263e6121d8565b5b828201905092915050565b600060608201905061265f60008301866120e9565b61266c602083018561201c565b612679604083018461201c565b949350505050565b600081905092915050565b7f416363657373436f6e74726f6c3a206163636f756e7420000000000000000000600082015250565b60006126c2601783612681565b91506126cd8261268c565b601782019050919050565b600081519050919050565b60005b838110156127015780820151818401526020810190506126e6565b83811115612710576000848401525b50505050565b6000612721826126d8565b61272b8185612681565b935061273b8185602086016126e3565b80840191505092915050565b7f206973206d697373696e6720726f6c6520000000000000000000000000000000600082015250565b600061277d601183612681565b915061278882612747565b601182019050919050565b600061279e826126b5565b91506127aa8285612716565b91506127b582612770565b91506127c18284612716565b91508190509392505050565b60006127d8826126d8565b6127e28185612046565b93506127f28185602086016126e3565b6127fb8161236b565b840191505092915050565b6000602082019050818103600083015261282081846127cd565b905092915050565b7f4e487b7100000000000000000000000000000000000000000000000000000000600052603260045260246000fd5b600061286282611efa565b91506000821415612876576128756121d8565b5b600182039050919050565b7f537472696e67733a20686578206c656e67746820696e73756666696369656e74600082015250565b60006128b7602083612046565b91506128c282612881565b602082019050919050565b600060208201905081810360008301526128e6816128aa565b9050919050565b7f5361666545524332303a204552433230206f7065726174696f6e20646964206e60008201527f6f74207375636365656400000000000000000000000000000000000000000000602082015250565b6000612949602a83612046565b9150612954826128ed565b604082019050919050565b600060208201905081810360008301526129788161293c565b9050919050565b7f416464726573733a20696e73756666696369656e742062616c616e636520666f60008201527f722063616c6c0000000000000000000000000000000000000000000000000000602082015250565b60006129db602683612046565b91506129e68261297f565b604082019050919050565b60006020820190508181036000830152612a0a816129ce565b9050919050565b7f416464726573733a2063616c6c20746f206e6f6e2d636f6e7472616374000000600082015250565b6000612a47601d83612046565b9150612a5282612a11565b602082019050919050565b60006020820190508181036000830152612a7681612a3a565b9050919050565b600081519050919050565b600081905092915050565b6000612a9e82612a7d565b612aa88185612a88565b9350612ab88185602086016126e3565b80840191505092915050565b6000612ad08284612a93565b91508190509291505056fea26469706673582212208a6ec7877771b62a723b6287b4b16005dffc64f4be8b4ba7957b8e1f46ee604464736f6c634300080b0033",
  "linkReferences": {},
  "deployedLinkReferences": {}
}