{
  "_format": "hh-sol-artifact-1",
  "contractName": "TreasuryFund",
  "sourceName": "contracts/treasury/TreasuryFund.sol",
  "abi": [
    {
      "inputs": [
        {
          "internalType": "address",
          "name": "_capl",
          "type": "address"
        },
        {
          "internalType": "address",
          "name": "_treasuryStorage",
          "type": "address"
        }
      ],
      "stateMutability": "nonpayable",
      "type": "constructor"
    },
    {
      "anonymous": false,
      "inputs": [
        {
          "indexed": true,
          "internalType": "address",
          "name": "_token",
          "type": "address"
        },
        {
          "indexed": true,
          "internalType": "address",
          "name": "_user",
          "type": "address"
        },
        {
          "indexed": false,
          "internalType": "uint256",
          "name": "_amount",
          "type": "uint256"
        }
      ],
      "name": "Claim",
      "type": "event"
    },
    {
      "anonymous": false,
      "inputs": [
        {
          "indexed": false,
          "internalType": "address",
          "name": "_token",
          "type": "address"
        },
        {
          "indexed": false,
          "internalType": "address",
          "name": "_user",
          "type": "address"
        },
        {
          "indexed": false,
          "internalType": "uint256",
          "name": "_amount",
          "type": "uint256"
        }
      ],
      "name": "Deposit",
      "type": "event"
    },
    {
      "anonymous": false,
      "inputs": [
        {
          "indexed": true,
          "internalType": "address",
          "name": "_token",
          "type": "address"
        },
        {
          "indexed": false,
          "internalType": "uint256",
          "name": "_amount",
          "type": "uint256"
        }
      ],
      "name": "PoolUpdated",
      "type": "event"
    },
    {
      "anonymous": false,
      "inputs": [
        {
          "indexed": true,
          "internalType": "bytes32",
          "name": "role",
          "type": "bytes32"
        },
        {
          "indexed": true,
          "internalType": "bytes32",
          "name": "previousAdminRole",
          "type": "bytes32"
        },
        {
          "indexed": true,
          "internalType": "bytes32",
          "name": "newAdminRole",
          "type": "bytes32"
        }
      ],
      "name": "RoleAdminChanged",
      "type": "event"
    },
    {
      "anonymous": false,
      "inputs": [
        {
          "indexed": true,
          "internalType": "bytes32",
          "name": "role",
          "type": "bytes32"
        },
        {
          "indexed": true,
          "internalType": "address",
          "name": "account",
          "type": "address"
        },
        {
          "indexed": true,
          "internalType": "address",
          "name": "sender",
          "type": "address"
        }
      ],
      "name": "RoleGranted",
      "type": "event"
    },
    {
      "anonymous": false,
      "inputs": [
        {
          "indexed": true,
          "internalType": "bytes32",
          "name": "role",
          "type": "bytes32"
        },
        {
          "indexed": true,
          "internalType": "address",
          "name": "account",
          "type": "address"
        },
        {
          "indexed": true,
          "internalType": "address",
          "name": "sender",
          "type": "address"
        }
      ],
      "name": "RoleRevoked",
      "type": "event"
    },
    {
      "anonymous": false,
      "inputs": [
        {
          "indexed": true,
          "internalType": "address",
          "name": "_token",
          "type": "address"
        },
        {
          "indexed": true,
          "internalType": "address",
          "name": "_user",
          "type": "address"
        },
        {
          "indexed": false,
          "internalType": "uint256",
          "name": "_amount",
          "type": "uint256"
        }
      ],
      "name": "Withdraw",
      "type": "event"
    },
    {
      "inputs": [],
      "name": "DEFAULT_ADMIN_ROLE",
      "outputs": [
        {
          "internalType": "bytes32",
          "name": "",
          "type": "bytes32"
        }
      ],
      "stateMutability": "view",
      "type": "function"
    },
    {
      "inputs": [],
      "name": "claimRevenue",
      "outputs": [],
      "stateMutability": "nonpayable",
      "type": "function"
    },
    {
      "inputs": [
        {
          "internalType": "address",
          "name": "_token",
          "type": "address"
        },
        {
          "internalType": "uint256",
          "name": "_amount",
          "type": "uint256"
        }
      ],
      "name": "deposit",
      "outputs": [],
      "stateMutability": "nonpayable",
      "type": "function"
    },
    {
      "inputs": [
        {
          "internalType": "bytes32",
          "name": "role",
          "type": "bytes32"
        }
      ],
      "name": "getRoleAdmin",
      "outputs": [
        {
          "internalType": "bytes32",
          "name": "",
          "type": "bytes32"
        }
      ],
      "stateMutability": "view",
      "type": "function"
    },
    {
      "inputs": [],
      "name": "getTotalManagedValue",
      "outputs": [
        {
          "internalType": "uint256",
          "name": "totalManagedValue",
          "type": "uint256"
        }
      ],
      "stateMutability": "nonpayable",
      "type": "function"
    },
    {
      "inputs": [
        {
          "internalType": "bytes32",
          "name": "role",
          "type": "bytes32"
        },
        {
          "internalType": "address",
          "name": "account",
          "type": "address"
        }
      ],
      "name": "grantRole",
      "outputs": [],
      "stateMutability": "nonpayable",
      "type": "function"
    },
    {
      "inputs": [
        {
          "internalType": "bytes32",
          "name": "role",
          "type": "bytes32"
        },
        {
          "internalType": "address",
          "name": "account",
          "type": "address"
        }
      ],
      "name": "hasRole",
      "outputs": [
        {
          "internalType": "bool",
          "name": "",
          "type": "bool"
        }
      ],
      "stateMutability": "view",
      "type": "function"
    },
    {
      "inputs": [],
      "name": "pendingRevenue",
      "outputs": [
        {
          "internalType": "uint256",
          "name": "pending",
          "type": "uint256"
        }
      ],
      "stateMutability": "nonpayable",
      "type": "function"
    },
    {
      "inputs": [
        {
          "internalType": "bytes32",
          "name": "role",
          "type": "bytes32"
        },
        {
          "internalType": "address",
          "name": "account",
          "type": "address"
        }
      ],
      "name": "renounceRole",
      "outputs": [],
      "stateMutability": "nonpayable",
      "type": "function"
    },
    {
      "inputs": [
        {
          "internalType": "bytes32",
          "name": "role",
          "type": "bytes32"
        },
        {
          "internalType": "address",
          "name": "account",
          "type": "address"
        }
      ],
      "name": "revokeRole",
      "outputs": [],
      "stateMutability": "nonpayable",
      "type": "function"
    },
    {
      "inputs": [
        {
          "internalType": "address",
          "name": "_destination",
          "type": "address"
        }
      ],
      "name": "setRevenueController",
      "outputs": [],
      "stateMutability": "nonpayable",
      "type": "function"
    },
    {
      "inputs": [
        {
          "internalType": "bytes4",
          "name": "interfaceId",
          "type": "bytes4"
        }
      ],
      "name": "supportsInterface",
      "outputs": [
        {
          "internalType": "bool",
          "name": "",
          "type": "bool"
        }
      ],
      "stateMutability": "view",
      "type": "function"
    },
    {
      "inputs": [
        {
          "internalType": "address",
          "name": "_token",
          "type": "address"
        },
        {
          "internalType": "uint256",
          "name": "_amount",
          "type": "uint256"
        }
      ],
      "name": "updatePool",
      "outputs": [
        {
          "components": [
            {
              "internalType": "uint256",
              "name": "totalPooled",
              "type": "uint256"
            }
          ],
          "internalType": "struct IPool.Pool",
          "name": "pool",
          "type": "tuple"
        }
      ],
      "stateMutability": "nonpayable",
      "type": "function"
    },
    {
      "inputs": [
        {
          "internalType": "address",
          "name": "_token",
          "type": "address"
        }
      ],
      "name": "withdraw",
      "outputs": [],
      "stateMutability": "nonpayable",
      "type": "function"
    }
  ],
  "bytecode": "0x6080604052670de0b6b3a76400006002553480156200001d57600080fd5b50604051620026b5380380620026b5833981810160405281019062000043919062000137565b81600160006101000a81548173ffffffffffffffffffffffffffffffffffffffff021916908373ffffffffffffffffffffffffffffffffffffffff16021790555080600760006101000a81548173ffffffffffffffffffffffffffffffffffffffff021916908373ffffffffffffffffffffffffffffffffffffffff16021790555050506200017e565b600080fd5b600073ffffffffffffffffffffffffffffffffffffffff82169050919050565b6000620000ff82620000d2565b9050919050565b6200011181620000f2565b81146200011d57600080fd5b50565b600081519050620001318162000106565b92915050565b60008060408385031215620001515762000150620000cd565b5b6000620001618582860162000120565b9250506020620001748582860162000120565b9150509250929050565b612527806200018e6000396000f3fe608060405234801561001057600080fd5b50600436106100ea5760003560e01c80638ed7333d1161008c578063a217fddf11610066578063a217fddf14610247578063d547741f14610265578063f9a758e514610281578063fa86fa241461029f576100ea565b80638ed7333d146101c957806391d14854146101f95780639b3f6e1814610229576100ea565b806336568abe116100c857806336568abe1461016b57806347e7ef241461018757806351cff8d9146101a3578063564f4f76146101bf576100ea565b806301ffc9a7146100ef578063248a9ca31461011f5780632f2ff15d1461014f575b600080fd5b6101096004803603810190610104919061185e565b6102bb565b60405161011691906118a6565b60405180910390f35b610139600480360381019061013491906118f7565b610335565b6040516101469190611933565b60405180910390f35b610169600480360381019061016491906119ac565b610354565b005b610185600480360381019061018091906119ac565b61037d565b005b6101a1600480360381019061019c9190611a22565b610400565b005b6101bd60048036038101906101b89190611a62565b610682565b005b6101c76108bf565b005b6101e360048036038101906101de9190611a22565b610a17565b6040516101f09190611aba565b60405180910390f35b610213600480360381019061020e91906119ac565b610b7e565b60405161022091906118a6565b60405180910390f35b610231610be8565b60405161023e9190611ae4565b60405180910390f35b61024f610cf9565b60405161025c9190611933565b60405180910390f35b61027f600480360381019061027a91906119ac565b610d00565b005b610289610d29565b6040516102969190611ae4565b60405180910390f35b6102b960048036038101906102b49190611a62565b610f88565b005b60007f7965db0b000000000000000000000000000000000000000000000000000000007bffffffffffffffffffffffffffffffffffffffffffffffffffffffff1916827bffffffffffffffffffffffffffffffffffffffffffffffffffffffff1916148061032e575061032d82610fe2565b5b9050919050565b6000806000838152602001908152602001600020600101549050919050565b61035d82610335565b61036e8161036961104c565b611054565b61037883836110f1565b505050565b61038561104c565b73ffffffffffffffffffffffffffffffffffffffff168173ffffffffffffffffffffffffffffffffffffffff16146103f2576040517f08c379a00000000000000000000000000000000000000000000000000000000081526004016103e990611b82565b60405180910390fd5b6103fc82826111d1565b5050565b600760009054906101000a900473ffffffffffffffffffffffffffffffffffffffff16600460006101000a81548173ffffffffffffffffffffffffffffffffffffffff021916908373ffffffffffffffffffffffffffffffffffffffff160217905550600460009054906101000a900473ffffffffffffffffffffffffffffffffffffffff1673ffffffffffffffffffffffffffffffffffffffff1663999126d7836040518263ffffffff1660e01b81526004016104be9190611bb1565b6020604051808303816000875af11580156104dd573d6000803e3d6000fd5b505050506040513d601f19601f820116820180604052508101906105019190611bf8565b610540576040517f08c379a000000000000000000000000000000000000000000000000000000000815260040161053790611c71565b60405180910390fd5b600061054c8383610a17565b9050600460009054906101000a900473ffffffffffffffffffffffffffffffffffffffff1673ffffffffffffffffffffffffffffffffffffffff16638340f5493385856040518463ffffffff1660e01b81526004016105ad93929190611c91565b600060405180830381600087803b1580156105c757600080fd5b505af11580156105db573d6000803e3d6000fd5b505050506005839080600181540180825580915050600190039060005260206000200160009091909190916101000a81548173ffffffffffffffffffffffffffffffffffffffff021916908373ffffffffffffffffffffffffffffffffffffffff1602179055507f5548c837ab068cf56a2c2479df0882a4922fd203edb7517321831d95078c5f6283338460405161067593929190611c91565b60405180910390a1505050565b6000600460009054906101000a900473ffffffffffffffffffffffffffffffffffffffff1673ffffffffffffffffffffffffffffffffffffffff16630122a7e883336040518363ffffffff1660e01b81526004016106e1929190611cc8565b602060405180830381865afa1580156106fe573d6000803e3d6000fd5b505050506040513d601f19601f820116820180604052508101906107229190611d06565b90508173ffffffffffffffffffffffffffffffffffffffff1663095ea7b3600460009054906101000a900473ffffffffffffffffffffffffffffffffffffffff16836040518363ffffffff1660e01b8152600401610781929190611d33565b6020604051808303816000875af11580156107a0573d6000803e3d6000fd5b505050506040513d601f19601f820116820180604052508101906107c49190611bf8565b50600460009054906101000a900473ffffffffffffffffffffffffffffffffffffffff1673ffffffffffffffffffffffffffffffffffffffff1663d9caed128333846040518463ffffffff1660e01b815260040161082493929190611c91565b600060405180830381600087803b15801561083e57600080fd5b505af1158015610852573d6000803e3d6000fd5b505050503373ffffffffffffffffffffffffffffffffffffffff168273ffffffffffffffffffffffffffffffffffffffff167f9b1bfa7fa9ee420a16e124f794c35ac9f90472acc99140eb2f6447c714cad8eb836040516108b39190611ae4565b60405180910390a35050565b60003073ffffffffffffffffffffffffffffffffffffffff1663f9a758e56040518163ffffffff1660e01b81526004016020604051808303816000875af115801561090e573d6000803e3d6000fd5b505050506040513d601f19601f820116820180604052508101906109329190611d06565b9050600081111561098d5761098c303383600160009054906101000a900473ffffffffffffffffffffffffffffffffffffffff1673ffffffffffffffffffffffffffffffffffffffff166112b2909392919063ffffffff16565b5b3373ffffffffffffffffffffffffffffffffffffffff16600160009054906101000a900473ffffffffffffffffffffffffffffffffffffffff1673ffffffffffffffffffffffffffffffffffffffff167f70eb43c4a8ae8c40502dcf22436c509c28d6ff421cf07c491be56984bd98706883604051610a0c9190611ae4565b60405180910390a350565b610a1f6117e4565b600760009054906101000a900473ffffffffffffffffffffffffffffffffffffffff16600460006101000a81548173ffffffffffffffffffffffffffffffffffffffff021916908373ffffffffffffffffffffffffffffffffffffffff1602179055506000600460009054906101000a900473ffffffffffffffffffffffffffffffffffffffff1673ffffffffffffffffffffffffffffffffffffffff16638ed7333d85856040518363ffffffff1660e01b8152600401610ae1929190611d33565b6020604051808303816000875af1158015610b00573d6000803e3d6000fd5b505050506040513d601f19601f82011682018060405250810190610b249190611e29565b90508373ffffffffffffffffffffffffffffffffffffffff167f2f4ae87a584f00dc35b043dd1c5ac839c1f41cd3a66e834d4e13faa6251634e684604051610b6c9190611ae4565b60405180910390a28091505092915050565b600080600084815260200190815260200160002060000160008373ffffffffffffffffffffffffffffffffffffffff1673ffffffffffffffffffffffffffffffffffffffff16815260200190815260200160002060009054906101000a900460ff16905092915050565b6000805b600580549050811015610cf557600760009054906101000a900473ffffffffffffffffffffffffffffffffffffffff1673ffffffffffffffffffffffffffffffffffffffff1663f2866c7860058381548110610c4b57610c4a611e56565b5b9060005260206000200160009054906101000a900473ffffffffffffffffffffffffffffffffffffffff166040518263ffffffff1660e01b8152600401610c929190611bb1565b6020604051808303816000875af1158015610cb1573d6000803e3d6000fd5b505050506040513d601f19601f82011682018060405250810190610cd59190611d06565b82610ce09190611eb4565b91508080610ced90611f0a565b915050610bec565b5090565b6000801b81565b610d0982610335565b610d1a81610d1561104c565b611054565b610d2483836111d1565b505050565b600080600160009054906101000a900473ffffffffffffffffffffffffffffffffffffffff1673ffffffffffffffffffffffffffffffffffffffff166370a08231306040518263ffffffff1660e01b8152600401610d879190611bb1565b602060405180830381865afa158015610da4573d6000803e3d6000fd5b505050506040513d601f19601f82011682018060405250810190610dc89190611d06565b90506000600760009054906101000a900473ffffffffffffffffffffffffffffffffffffffff1673ffffffffffffffffffffffffffffffffffffffff166392a576e6600160009054906101000a900473ffffffffffffffffffffffffffffffffffffffff16336040518363ffffffff1660e01b8152600401610e4b929190611cc8565b60a060405180830381865afa158015610e68573d6000803e3d6000fd5b505050506040513d601f19601f82011682018060405250810190610e8c9190611fdf565b90506000600760009054906101000a900473ffffffffffffffffffffffffffffffffffffffff1673ffffffffffffffffffffffffffffffffffffffff1663f2866c78600160009054906101000a900473ffffffffffffffffffffffffffffffffffffffff166040518263ffffffff1660e01b8152600401610f0d9190611bb1565b6020604051808303816000875af1158015610f2c573d6000803e3d6000fd5b505050506040513d601f19601f82011682018060405250810190610f509190611d06565b90506000818360000151610f64919061203b565b90506002548185610f75919061206c565b610f7f919061203b565b94505050505090565b6000801b610f9d81610f9861104c565b611054565b81600660006101000a81548173ffffffffffffffffffffffffffffffffffffffff021916908373ffffffffffffffffffffffffffffffffffffffff1602179055505050565b60007f01ffc9a7000000000000000000000000000000000000000000000000000000007bffffffffffffffffffffffffffffffffffffffffffffffffffffffff1916827bffffffffffffffffffffffffffffffffffffffffffffffffffffffff1916149050919050565b600033905090565b61105e8282610b7e565b6110ed576110838173ffffffffffffffffffffffffffffffffffffffff16601461133b565b6110918360001c602061133b565b6040516020016110a29291906121d8565b6040516020818303038152906040526040517f08c379a00000000000000000000000000000000000000000000000000000000081526004016110e4919061224b565b60405180910390fd5b5050565b6110fb8282610b7e565b6111cd57600160008084815260200190815260200160002060000160008373ffffffffffffffffffffffffffffffffffffffff1673ffffffffffffffffffffffffffffffffffffffff16815260200190815260200160002060006101000a81548160ff02191690831515021790555061117261104c565b73ffffffffffffffffffffffffffffffffffffffff168173ffffffffffffffffffffffffffffffffffffffff16837f2f8788117e7eff1d82e926ec794901d17c78024a50270940304540a733656f0d60405160405180910390a45b5050565b6111db8282610b7e565b156112ae57600080600084815260200190815260200160002060000160008373ffffffffffffffffffffffffffffffffffffffff1673ffffffffffffffffffffffffffffffffffffffff16815260200190815260200160002060006101000a81548160ff02191690831515021790555061125361104c565b73ffffffffffffffffffffffffffffffffffffffff168173ffffffffffffffffffffffffffffffffffffffff16837ff6391f5c32d9c69d2a47ea670b442974b53935d1edc7fd64eb21e047a839171b60405160405180910390a45b5050565b611335846323b872dd60e01b8585856040516024016112d393929190611c91565b604051602081830303815290604052907bffffffffffffffffffffffffffffffffffffffffffffffffffffffff19166020820180517bffffffffffffffffffffffffffffffffffffffffffffffffffffffff8381831617835250505050611577565b50505050565b60606000600283600261134e919061206c565b6113589190611eb4565b67ffffffffffffffff81111561137157611370611d72565b5b6040519080825280601f01601f1916602001820160405280156113a35781602001600182028036833780820191505090505b5090507f3000000000000000000000000000000000000000000000000000000000000000816000815181106113db576113da611e56565b5b60200101907effffffffffffffffffffffffffffffffffffffffffffffffffffffffffffff1916908160001a9053507f78000000000000000000000000000000000000000000000000000000000000008160018151811061143f5761143e611e56565b5b60200101907effffffffffffffffffffffffffffffffffffffffffffffffffffffffffffff1916908160001a9053506000600184600261147f919061206c565b6114899190611eb4565b90505b6001811115611529577f3031323334353637383961626364656600000000000000000000000000000000600f8616601081106114cb576114ca611e56565b5b1a60f81b8282815181106114e2576114e1611e56565b5b60200101907effffffffffffffffffffffffffffffffffffffffffffffffffffffffffffff1916908160001a905350600485901c9450806115229061226d565b905061148c565b506000841461156d576040517f08c379a0000000000000000000000000000000000000000000000000000000008152600401611564906122e3565b60405180910390fd5b8091505092915050565b60006115d9826040518060400160405280602081526020017f5361666545524332303a206c6f772d6c6576656c2063616c6c206661696c65648152508573ffffffffffffffffffffffffffffffffffffffff1661163e9092919063ffffffff16565b905060008151111561163957808060200190518101906115f99190611bf8565b611638576040517f08c379a000000000000000000000000000000000000000000000000000000000815260040161162f90612375565b60405180910390fd5b5b505050565b606061164d8484600085611656565b90509392505050565b60608247101561169b576040517f08c379a000000000000000000000000000000000000000000000000000000000815260040161169290612407565b60405180910390fd5b6116a48561176a565b6116e3576040517f08c379a00000000000000000000000000000000000000000000000000000000081526004016116da90612473565b60405180910390fd5b6000808673ffffffffffffffffffffffffffffffffffffffff16858760405161170c91906124da565b60006040518083038185875af1925050503d8060008114611749576040519150601f19603f3d011682016040523d82523d6000602084013e61174e565b606091505b509150915061175e82828661177d565b92505050949350505050565b600080823b905060008111915050919050565b6060831561178d578290506117dd565b6000835111156117a05782518084602001fd5b816040517f08c379a00000000000000000000000000000000000000000000000000000000081526004016117d4919061224b565b60405180910390fd5b9392505050565b6040518060200160405280600081525090565b6000604051905090565b600080fd5b60007fffffffff0000000000000000000000000000000000000000000000000000000082169050919050565b61183b81611806565b811461184657600080fd5b50565b60008135905061185881611832565b92915050565b60006020828403121561187457611873611801565b5b600061188284828501611849565b91505092915050565b60008115159050919050565b6118a08161188b565b82525050565b60006020820190506118bb6000830184611897565b92915050565b6000819050919050565b6118d4816118c1565b81146118df57600080fd5b50565b6000813590506118f1816118cb565b92915050565b60006020828403121561190d5761190c611801565b5b600061191b848285016118e2565b91505092915050565b61192d816118c1565b82525050565b60006020820190506119486000830184611924565b92915050565b600073ffffffffffffffffffffffffffffffffffffffff82169050919050565b60006119798261194e565b9050919050565b6119898161196e565b811461199457600080fd5b50565b6000813590506119a681611980565b92915050565b600080604083850312156119c3576119c2611801565b5b60006119d1858286016118e2565b92505060206119e285828601611997565b9150509250929050565b6000819050919050565b6119ff816119ec565b8114611a0a57600080fd5b50565b600081359050611a1c816119f6565b92915050565b60008060408385031215611a3957611a38611801565b5b6000611a4785828601611997565b9250506020611a5885828601611a0d565b9150509250929050565b600060208284031215611a7857611a77611801565b5b6000611a8684828501611997565b91505092915050565b611a98816119ec565b82525050565b602082016000820151611ab46000850182611a8f565b50505050565b6000602082019050611acf6000830184611a9e565b92915050565b611ade816119ec565b82525050565b6000602082019050611af96000830184611ad5565b92915050565b600082825260208201905092915050565b7f416363657373436f6e74726f6c3a2063616e206f6e6c792072656e6f756e636560008201527f20726f6c657320666f722073656c660000000000000000000000000000000000602082015250565b6000611b6c602f83611aff565b9150611b7782611b10565b604082019050919050565b60006020820190508181036000830152611b9b81611b5f565b9050919050565b611bab8161196e565b82525050565b6000602082019050611bc66000830184611ba2565b92915050565b611bd58161188b565b8114611be057600080fd5b50565b600081519050611bf281611bcc565b92915050565b600060208284031215611c0e57611c0d611801565b5b6000611c1c84828501611be3565b91505092915050565b7f506f6f6c20646f6573206e6f7420657869737400000000000000000000000000600082015250565b6000611c5b601383611aff565b9150611c6682611c25565b602082019050919050565b60006020820190508181036000830152611c8a81611c4e565b9050919050565b6000606082019050611ca66000830186611ba2565b611cb36020830185611ba2565b611cc06040830184611ad5565b949350505050565b6000604082019050611cdd6000830185611ba2565b611cea6020830184611ba2565b9392505050565b600081519050611d00816119f6565b92915050565b600060208284031215611d1c57611d1b611801565b5b6000611d2a84828501611cf1565b91505092915050565b6000604082019050611d486000830185611ba2565b611d556020830184611ad5565b9392505050565b600080fd5b6000601f19601f8301169050919050565b7f4e487b7100000000000000000000000000000000000000000000000000000000600052604160045260246000fd5b611daa82611d61565b810181811067ffffffffffffffff82111715611dc957611dc8611d72565b5b80604052505050565b6000611ddc6117f7565b9050611de88282611da1565b919050565b600060208284031215611e0357611e02611d5c565b5b611e0d6020611dd2565b90506000611e1d84828501611cf1565b60008301525092915050565b600060208284031215611e3f57611e3e611801565b5b6000611e4d84828501611ded565b91505092915050565b7f4e487b7100000000000000000000000000000000000000000000000000000000600052603260045260246000fd5b7f4e487b7100000000000000000000000000000000000000000000000000000000600052601160045260246000fd5b6000611ebf826119ec565b9150611eca836119ec565b9250827fffffffffffffffffffffffffffffffffffffffffffffffffffffffffffffffff03821115611eff57611efe611e85565b5b828201905092915050565b6000611f15826119ec565b91507fffffffffffffffffffffffffffffffffffffffffffffffffffffffffffffffff821415611f4857611f47611e85565b5b600182019050919050565b600060a08284031215611f6957611f68611d5c565b5b611f7360a0611dd2565b90506000611f8384828501611cf1565b6000830152506020611f9784828501611cf1565b6020830152506040611fab84828501611cf1565b6040830152506060611fbf84828501611be3565b6060830152506080611fd384828501611be3565b60808301525092915050565b600060a08284031215611ff557611ff4611801565b5b600061200384828501611f53565b91505092915050565b7f4e487b7100000000000000000000000000000000000000000000000000000000600052601260045260246000fd5b6000612046826119ec565b9150612051836119ec565b9250826120615761206061200c565b5b828204905092915050565b6000612077826119ec565b9150612082836119ec565b9250817fffffffffffffffffffffffffffffffffffffffffffffffffffffffffffffffff04831182151516156120bb576120ba611e85565b5b828202905092915050565b600081905092915050565b7f416363657373436f6e74726f6c3a206163636f756e7420000000000000000000600082015250565b60006121076017836120c6565b9150612112826120d1565b601782019050919050565b600081519050919050565b60005b8381101561214657808201518184015260208101905061212b565b83811115612155576000848401525b50505050565b60006121668261211d565b61217081856120c6565b9350612180818560208601612128565b80840191505092915050565b7f206973206d697373696e6720726f6c6520000000000000000000000000000000600082015250565b60006121c26011836120c6565b91506121cd8261218c565b601182019050919050565b60006121e3826120fa565b91506121ef828561215b565b91506121fa826121b5565b9150612206828461215b565b91508190509392505050565b600061221d8261211d565b6122278185611aff565b9350612237818560208601612128565b61224081611d61565b840191505092915050565b600060208201905081810360008301526122658184612212565b905092915050565b6000612278826119ec565b9150600082141561228c5761228b611e85565b5b600182039050919050565b7f537472696e67733a20686578206c656e67746820696e73756666696369656e74600082015250565b60006122cd602083611aff565b91506122d882612297565b602082019050919050565b600060208201905081810360008301526122fc816122c0565b9050919050565b7f5361666545524332303a204552433230206f7065726174696f6e20646964206e60008201527f6f74207375636365656400000000000000000000000000000000000000000000602082015250565b600061235f602a83611aff565b915061236a82612303565b604082019050919050565b6000602082019050818103600083015261238e81612352565b9050919050565b7f416464726573733a20696e73756666696369656e742062616c616e636520666f60008201527f722063616c6c0000000000000000000000000000000000000000000000000000602082015250565b60006123f1602683611aff565b91506123fc82612395565b604082019050919050565b60006020820190508181036000830152612420816123e4565b9050919050565b7f416464726573733a2063616c6c20746f206e6f6e2d636f6e7472616374000000600082015250565b600061245d601d83611aff565b915061246882612427565b602082019050919050565b6000602082019050818103600083015261248c81612450565b9050919050565b600081519050919050565b600081905092915050565b60006124b482612493565b6124be818561249e565b93506124ce818560208601612128565b80840191505092915050565b60006124e682846124a9565b91508190509291505056fea264697066735822122040f5b22643fe5be000273ce53d2044c68e85088dd57dc1e5f4173aa65f92ca6a64736f6c634300080b0033",
  "linkReferences": {},
  "deployedLinkReferences": {}
}