{
  "_format": "hh-sol-artifact-1",
  "contractName": "TreasuryFund",
  "sourceName": "contracts/treasury/TreasuryFund.sol",
  "abi": [
    {
      "inputs": [
        {
          "internalType": "address",
          "name": "_capl",
          "type": "address"
        },
        {
          "internalType": "address",
          "name": "_treasuryStorage",
          "type": "address"
        }
      ],
      "stateMutability": "nonpayable",
      "type": "constructor"
    },
    {
      "anonymous": false,
      "inputs": [
        {
          "indexed": true,
          "internalType": "address",
          "name": "_token",
          "type": "address"
        },
        {
          "indexed": true,
          "internalType": "address",
          "name": "_user",
          "type": "address"
        },
        {
          "indexed": false,
          "internalType": "uint256",
          "name": "_amount",
          "type": "uint256"
        }
      ],
      "name": "Claim",
      "type": "event"
    },
    {
      "anonymous": false,
      "inputs": [
        {
          "indexed": false,
          "internalType": "address",
          "name": "_token",
          "type": "address"
        },
        {
          "indexed": false,
          "internalType": "address",
          "name": "_user",
          "type": "address"
        },
        {
          "indexed": false,
          "internalType": "uint256",
          "name": "_amount",
          "type": "uint256"
        }
      ],
      "name": "Deposit",
      "type": "event"
    },
    {
      "anonymous": false,
      "inputs": [
        {
          "indexed": true,
          "internalType": "address",
          "name": "_token",
          "type": "address"
        },
        {
          "indexed": false,
          "internalType": "uint256",
          "name": "_amount",
          "type": "uint256"
        }
      ],
      "name": "PoolUpdated",
      "type": "event"
    },
    {
      "anonymous": false,
      "inputs": [
        {
          "indexed": true,
          "internalType": "bytes32",
          "name": "role",
          "type": "bytes32"
        },
        {
          "indexed": true,
          "internalType": "bytes32",
          "name": "previousAdminRole",
          "type": "bytes32"
        },
        {
          "indexed": true,
          "internalType": "bytes32",
          "name": "newAdminRole",
          "type": "bytes32"
        }
      ],
      "name": "RoleAdminChanged",
      "type": "event"
    },
    {
      "anonymous": false,
      "inputs": [
        {
          "indexed": true,
          "internalType": "bytes32",
          "name": "role",
          "type": "bytes32"
        },
        {
          "indexed": true,
          "internalType": "address",
          "name": "account",
          "type": "address"
        },
        {
          "indexed": true,
          "internalType": "address",
          "name": "sender",
          "type": "address"
        }
      ],
      "name": "RoleGranted",
      "type": "event"
    },
    {
      "anonymous": false,
      "inputs": [
        {
          "indexed": true,
          "internalType": "bytes32",
          "name": "role",
          "type": "bytes32"
        },
        {
          "indexed": true,
          "internalType": "address",
          "name": "account",
          "type": "address"
        },
        {
          "indexed": true,
          "internalType": "address",
          "name": "sender",
          "type": "address"
        }
      ],
      "name": "RoleRevoked",
      "type": "event"
    },
    {
      "anonymous": false,
      "inputs": [
        {
          "indexed": true,
          "internalType": "address",
          "name": "_token",
          "type": "address"
        },
        {
          "indexed": true,
          "internalType": "address",
          "name": "_user",
          "type": "address"
        },
        {
          "indexed": false,
          "internalType": "uint256",
          "name": "_amount",
          "type": "uint256"
        }
      ],
      "name": "Withdraw",
      "type": "event"
    },
    {
      "inputs": [],
      "name": "DEFAULT_ADMIN_ROLE",
      "outputs": [
        {
          "internalType": "bytes32",
          "name": "",
          "type": "bytes32"
        }
      ],
      "stateMutability": "view",
      "type": "function"
    },
    {
      "inputs": [],
      "name": "claimRevenue",
      "outputs": [],
      "stateMutability": "nonpayable",
      "type": "function"
    },
    {
      "inputs": [
        {
          "internalType": "address",
          "name": "_token",
          "type": "address"
        },
        {
          "internalType": "uint256",
          "name": "_amount",
          "type": "uint256"
        }
      ],
      "name": "deposit",
      "outputs": [],
      "stateMutability": "nonpayable",
      "type": "function"
    },
    {
      "inputs": [
        {
          "internalType": "bytes32",
          "name": "role",
          "type": "bytes32"
        }
      ],
      "name": "getRoleAdmin",
      "outputs": [
        {
          "internalType": "bytes32",
          "name": "",
          "type": "bytes32"
        }
      ],
      "stateMutability": "view",
      "type": "function"
    },
    {
      "inputs": [],
      "name": "getTotalManagedValue",
      "outputs": [
        {
          "internalType": "uint256",
          "name": "totalManagedValue",
          "type": "uint256"
        }
      ],
      "stateMutability": "nonpayable",
      "type": "function"
    },
    {
      "inputs": [
        {
          "internalType": "bytes32",
          "name": "role",
          "type": "bytes32"
        },
        {
          "internalType": "address",
          "name": "account",
          "type": "address"
        }
      ],
      "name": "grantRole",
      "outputs": [],
      "stateMutability": "nonpayable",
      "type": "function"
    },
    {
      "inputs": [
        {
          "internalType": "bytes32",
          "name": "role",
          "type": "bytes32"
        },
        {
          "internalType": "address",
          "name": "account",
          "type": "address"
        }
      ],
      "name": "hasRole",
      "outputs": [
        {
          "internalType": "bool",
          "name": "",
          "type": "bool"
        }
      ],
      "stateMutability": "view",
      "type": "function"
    },
    {
      "inputs": [],
      "name": "pendingRevenue",
      "outputs": [
        {
          "internalType": "uint256",
          "name": "pending",
          "type": "uint256"
        }
      ],
      "stateMutability": "nonpayable",
      "type": "function"
    },
    {
      "inputs": [
        {
          "internalType": "bytes32",
          "name": "role",
          "type": "bytes32"
        },
        {
          "internalType": "address",
          "name": "account",
          "type": "address"
        }
      ],
      "name": "renounceRole",
      "outputs": [],
      "stateMutability": "nonpayable",
      "type": "function"
    },
    {
      "inputs": [
        {
          "internalType": "bytes32",
          "name": "role",
          "type": "bytes32"
        },
        {
          "internalType": "address",
          "name": "account",
          "type": "address"
        }
      ],
      "name": "revokeRole",
      "outputs": [],
      "stateMutability": "nonpayable",
      "type": "function"
    },
    {
      "inputs": [
        {
          "internalType": "address",
          "name": "_destination",
          "type": "address"
        }
      ],
      "name": "setRevenueController",
      "outputs": [],
      "stateMutability": "nonpayable",
      "type": "function"
    },
    {
      "inputs": [
        {
          "internalType": "bytes4",
          "name": "interfaceId",
          "type": "bytes4"
        }
      ],
      "name": "supportsInterface",
      "outputs": [
        {
          "internalType": "bool",
          "name": "",
          "type": "bool"
        }
      ],
      "stateMutability": "view",
      "type": "function"
    },
    {
      "inputs": [
        {
          "internalType": "address",
          "name": "_token",
          "type": "address"
        },
        {
          "internalType": "uint256",
          "name": "_amount",
          "type": "uint256"
        }
      ],
      "name": "updatePool",
      "outputs": [
        {
          "components": [
            {
              "internalType": "uint256",
              "name": "totalPooled",
              "type": "uint256"
            }
          ],
          "internalType": "struct IPool.Pool",
          "name": "pool",
          "type": "tuple"
        }
      ],
      "stateMutability": "nonpayable",
      "type": "function"
    },
    {
      "inputs": [
        {
          "internalType": "address",
          "name": "_token",
          "type": "address"
        }
      ],
      "name": "withdraw",
      "outputs": [],
      "stateMutability": "nonpayable",
      "type": "function"
    }
  ],
  "bytecode": "0x6080604052670de0b6b3a76400006002553480156200001d57600080fd5b506040516200269d3803806200269d833981810160405281019062000043919062000137565b81600160006101000a81548173ffffffffffffffffffffffffffffffffffffffff021916908373ffffffffffffffffffffffffffffffffffffffff16021790555080600760006101000a81548173ffffffffffffffffffffffffffffffffffffffff021916908373ffffffffffffffffffffffffffffffffffffffff16021790555050506200017e565b600080fd5b600073ffffffffffffffffffffffffffffffffffffffff82169050919050565b6000620000ff82620000d2565b9050919050565b6200011181620000f2565b81146200011d57600080fd5b50565b600081519050620001318162000106565b92915050565b60008060408385031215620001515762000150620000cd565b5b6000620001618582860162000120565b9250506020620001748582860162000120565b9150509250929050565b61250f806200018e6000396000f3fe608060405234801561001057600080fd5b50600436106100ea5760003560e01c80638ed7333d1161008c578063a217fddf11610066578063a217fddf14610247578063d547741f14610265578063f9a758e514610281578063fa86fa241461029f576100ea565b80638ed7333d146101c957806391d14854146101f95780639b3f6e1814610229576100ea565b806336568abe116100c857806336568abe1461016b57806347e7ef241461018757806351cff8d9146101a3578063564f4f76146101bf576100ea565b806301ffc9a7146100ef578063248a9ca31461011f5780632f2ff15d1461014f575b600080fd5b6101096004803603810190610104919061185a565b6102bb565b60405161011691906118a2565b60405180910390f35b610139600480360381019061013491906118f3565b610335565b604051610146919061192f565b60405180910390f35b610169600480360381019061016491906119a8565b610354565b005b610185600480360381019061018091906119a8565b61037d565b005b6101a1600480360381019061019c9190611a1e565b610400565b005b6101bd60048036038101906101b89190611a5e565b61067e565b005b6101c76108bb565b005b6101e360048036038101906101de9190611a1e565b610a13565b6040516101f09190611ab6565b60405180910390f35b610213600480360381019061020e91906119a8565b610b7a565b60405161022091906118a2565b60405180910390f35b610231610be4565b60405161023e9190611ae0565b60405180910390f35b61024f610cf5565b60405161025c919061192f565b60405180910390f35b61027f600480360381019061027a91906119a8565b610cfc565b005b610289610d25565b6040516102969190611ae0565b60405180910390f35b6102b960048036038101906102b49190611a5e565b610f84565b005b60007f7965db0b000000000000000000000000000000000000000000000000000000007bffffffffffffffffffffffffffffffffffffffffffffffffffffffff1916827bffffffffffffffffffffffffffffffffffffffffffffffffffffffff1916148061032e575061032d82610fde565b5b9050919050565b6000806000838152602001908152602001600020600101549050919050565b61035d82610335565b61036e81610369611048565b611050565b61037883836110ed565b505050565b610385611048565b73ffffffffffffffffffffffffffffffffffffffff168173ffffffffffffffffffffffffffffffffffffffff16146103f2576040517f08c379a00000000000000000000000000000000000000000000000000000000081526004016103e990611b7e565b60405180910390fd5b6103fc82826111cd565b5050565b600760009054906101000a900473ffffffffffffffffffffffffffffffffffffffff16600460006101000a81548173ffffffffffffffffffffffffffffffffffffffff021916908373ffffffffffffffffffffffffffffffffffffffff160217905550600460009054906101000a900473ffffffffffffffffffffffffffffffffffffffff1673ffffffffffffffffffffffffffffffffffffffff1663999126d7836040518263ffffffff1660e01b81526004016104be9190611bad565b6020604051808303816000875af11580156104dd573d6000803e3d6000fd5b505050506040513d601f19601f820116820180604052508101906105019190611bf4565b610540576040517f08c379a000000000000000000000000000000000000000000000000000000000815260040161053790611c6d565b60405180910390fd5b61054a8282610a13565b50600460009054906101000a900473ffffffffffffffffffffffffffffffffffffffff1673ffffffffffffffffffffffffffffffffffffffff16638340f5493384846040518463ffffffff1660e01b81526004016105aa93929190611c8d565b600060405180830381600087803b1580156105c457600080fd5b505af11580156105d8573d6000803e3d6000fd5b505050506005829080600181540180825580915050600190039060005260206000200160009091909190916101000a81548173ffffffffffffffffffffffffffffffffffffffff021916908373ffffffffffffffffffffffffffffffffffffffff1602179055507f5548c837ab068cf56a2c2479df0882a4922fd203edb7517321831d95078c5f6282338360405161067293929190611c8d565b60405180910390a15050565b6000600460009054906101000a900473ffffffffffffffffffffffffffffffffffffffff1673ffffffffffffffffffffffffffffffffffffffff16630122a7e883336040518363ffffffff1660e01b81526004016106dd929190611cc4565b602060405180830381865afa1580156106fa573d6000803e3d6000fd5b505050506040513d601f19601f8201168201806040525081019061071e9190611d02565b90508173ffffffffffffffffffffffffffffffffffffffff1663095ea7b3600460009054906101000a900473ffffffffffffffffffffffffffffffffffffffff16836040518363ffffffff1660e01b815260040161077d929190611d2f565b6020604051808303816000875af115801561079c573d6000803e3d6000fd5b505050506040513d601f19601f820116820180604052508101906107c09190611bf4565b50600460009054906101000a900473ffffffffffffffffffffffffffffffffffffffff1673ffffffffffffffffffffffffffffffffffffffff1663d9caed128333846040518463ffffffff1660e01b815260040161082093929190611c8d565b600060405180830381600087803b15801561083a57600080fd5b505af115801561084e573d6000803e3d6000fd5b505050503373ffffffffffffffffffffffffffffffffffffffff168273ffffffffffffffffffffffffffffffffffffffff167f9b1bfa7fa9ee420a16e124f794c35ac9f90472acc99140eb2f6447c714cad8eb836040516108af9190611ae0565b60405180910390a35050565b60003073ffffffffffffffffffffffffffffffffffffffff1663f9a758e56040518163ffffffff1660e01b81526004016020604051808303816000875af115801561090a573d6000803e3d6000fd5b505050506040513d601f19601f8201168201806040525081019061092e9190611d02565b9050600081111561098957610988303383600160009054906101000a900473ffffffffffffffffffffffffffffffffffffffff1673ffffffffffffffffffffffffffffffffffffffff166112ae909392919063ffffffff16565b5b3373ffffffffffffffffffffffffffffffffffffffff16600160009054906101000a900473ffffffffffffffffffffffffffffffffffffffff1673ffffffffffffffffffffffffffffffffffffffff167f70eb43c4a8ae8c40502dcf22436c509c28d6ff421cf07c491be56984bd98706883604051610a089190611ae0565b60405180910390a350565b610a1b6117e0565b600760009054906101000a900473ffffffffffffffffffffffffffffffffffffffff16600460006101000a81548173ffffffffffffffffffffffffffffffffffffffff021916908373ffffffffffffffffffffffffffffffffffffffff1602179055506000600460009054906101000a900473ffffffffffffffffffffffffffffffffffffffff1673ffffffffffffffffffffffffffffffffffffffff16638ed7333d85856040518363ffffffff1660e01b8152600401610add929190611d2f565b6020604051808303816000875af1158015610afc573d6000803e3d6000fd5b505050506040513d601f19601f82011682018060405250810190610b209190611e25565b90508373ffffffffffffffffffffffffffffffffffffffff167f2f4ae87a584f00dc35b043dd1c5ac839c1f41cd3a66e834d4e13faa6251634e684604051610b689190611ae0565b60405180910390a28091505092915050565b600080600084815260200190815260200160002060000160008373ffffffffffffffffffffffffffffffffffffffff1673ffffffffffffffffffffffffffffffffffffffff16815260200190815260200160002060009054906101000a900460ff16905092915050565b6000805b600580549050811015610cf157600760009054906101000a900473ffffffffffffffffffffffffffffffffffffffff1673ffffffffffffffffffffffffffffffffffffffff1663f2866c7860058381548110610c4757610c46611e52565b5b9060005260206000200160009054906101000a900473ffffffffffffffffffffffffffffffffffffffff166040518263ffffffff1660e01b8152600401610c8e9190611bad565b6020604051808303816000875af1158015610cad573d6000803e3d6000fd5b505050506040513d601f19601f82011682018060405250810190610cd19190611d02565b82610cdc9190611eb0565b91508080610ce990611f06565b915050610be8565b5090565b6000801b81565b610d0582610335565b610d1681610d11611048565b611050565b610d2083836111cd565b505050565b600080600160009054906101000a900473ffffffffffffffffffffffffffffffffffffffff1673ffffffffffffffffffffffffffffffffffffffff166370a08231306040518263ffffffff1660e01b8152600401610d839190611bad565b602060405180830381865afa158015610da0573d6000803e3d6000fd5b505050506040513d601f19601f82011682018060405250810190610dc49190611d02565b90506000600760009054906101000a900473ffffffffffffffffffffffffffffffffffffffff1673ffffffffffffffffffffffffffffffffffffffff166392a576e6600160009054906101000a900473ffffffffffffffffffffffffffffffffffffffff16336040518363ffffffff1660e01b8152600401610e47929190611cc4565b608060405180830381865afa158015610e64573d6000803e3d6000fd5b505050506040513d601f19601f82011682018060405250810190610e889190611fc7565b90506000600760009054906101000a900473ffffffffffffffffffffffffffffffffffffffff1673ffffffffffffffffffffffffffffffffffffffff1663f2866c78600160009054906101000a900473ffffffffffffffffffffffffffffffffffffffff166040518263ffffffff1660e01b8152600401610f099190611bad565b6020604051808303816000875af1158015610f28573d6000803e3d6000fd5b505050506040513d601f19601f82011682018060405250810190610f4c9190611d02565b90506000818360000151610f609190612023565b90506002548185610f719190612054565b610f7b9190612023565b94505050505090565b6000801b610f9981610f94611048565b611050565b81600660006101000a81548173ffffffffffffffffffffffffffffffffffffffff021916908373ffffffffffffffffffffffffffffffffffffffff1602179055505050565b60007f01ffc9a7000000000000000000000000000000000000000000000000000000007bffffffffffffffffffffffffffffffffffffffffffffffffffffffff1916827bffffffffffffffffffffffffffffffffffffffffffffffffffffffff1916149050919050565b600033905090565b61105a8282610b7a565b6110e95761107f8173ffffffffffffffffffffffffffffffffffffffff166014611337565b61108d8360001c6020611337565b60405160200161109e9291906121c0565b6040516020818303038152906040526040517f08c379a00000000000000000000000000000000000000000000000000000000081526004016110e09190612233565b60405180910390fd5b5050565b6110f78282610b7a565b6111c957600160008084815260200190815260200160002060000160008373ffffffffffffffffffffffffffffffffffffffff1673ffffffffffffffffffffffffffffffffffffffff16815260200190815260200160002060006101000a81548160ff02191690831515021790555061116e611048565b73ffffffffffffffffffffffffffffffffffffffff168173ffffffffffffffffffffffffffffffffffffffff16837f2f8788117e7eff1d82e926ec794901d17c78024a50270940304540a733656f0d60405160405180910390a45b5050565b6111d78282610b7a565b156112aa57600080600084815260200190815260200160002060000160008373ffffffffffffffffffffffffffffffffffffffff1673ffffffffffffffffffffffffffffffffffffffff16815260200190815260200160002060006101000a81548160ff02191690831515021790555061124f611048565b73ffffffffffffffffffffffffffffffffffffffff168173ffffffffffffffffffffffffffffffffffffffff16837ff6391f5c32d9c69d2a47ea670b442974b53935d1edc7fd64eb21e047a839171b60405160405180910390a45b5050565b611331846323b872dd60e01b8585856040516024016112cf93929190611c8d565b604051602081830303815290604052907bffffffffffffffffffffffffffffffffffffffffffffffffffffffff19166020820180517bffffffffffffffffffffffffffffffffffffffffffffffffffffffff8381831617835250505050611573565b50505050565b60606000600283600261134a9190612054565b6113549190611eb0565b67ffffffffffffffff81111561136d5761136c611d6e565b5b6040519080825280601f01601f19166020018201604052801561139f5781602001600182028036833780820191505090505b5090507f3000000000000000000000000000000000000000000000000000000000000000816000815181106113d7576113d6611e52565b5b60200101907effffffffffffffffffffffffffffffffffffffffffffffffffffffffffffff1916908160001a9053507f78000000000000000000000000000000000000000000000000000000000000008160018151811061143b5761143a611e52565b5b60200101907effffffffffffffffffffffffffffffffffffffffffffffffffffffffffffff1916908160001a9053506000600184600261147b9190612054565b6114859190611eb0565b90505b6001811115611525577f3031323334353637383961626364656600000000000000000000000000000000600f8616601081106114c7576114c6611e52565b5b1a60f81b8282815181106114de576114dd611e52565b5b60200101907effffffffffffffffffffffffffffffffffffffffffffffffffffffffffffff1916908160001a905350600485901c94508061151e90612255565b9050611488565b5060008414611569576040517f08c379a0000000000000000000000000000000000000000000000000000000008152600401611560906122cb565b60405180910390fd5b8091505092915050565b60006115d5826040518060400160405280602081526020017f5361666545524332303a206c6f772d6c6576656c2063616c6c206661696c65648152508573ffffffffffffffffffffffffffffffffffffffff1661163a9092919063ffffffff16565b905060008151111561163557808060200190518101906115f59190611bf4565b611634576040517f08c379a000000000000000000000000000000000000000000000000000000000815260040161162b9061235d565b60405180910390fd5b5b505050565b60606116498484600085611652565b90509392505050565b606082471015611697576040517f08c379a000000000000000000000000000000000000000000000000000000000815260040161168e906123ef565b60405180910390fd5b6116a085611766565b6116df576040517f08c379a00000000000000000000000000000000000000000000000000000000081526004016116d69061245b565b60405180910390fd5b6000808673ffffffffffffffffffffffffffffffffffffffff16858760405161170891906124c2565b60006040518083038185875af1925050503d8060008114611745576040519150601f19603f3d011682016040523d82523d6000602084013e61174a565b606091505b509150915061175a828286611779565b92505050949350505050565b600080823b905060008111915050919050565b60608315611789578290506117d9565b60008351111561179c5782518084602001fd5b816040517f08c379a00000000000000000000000000000000000000000000000000000000081526004016117d09190612233565b60405180910390fd5b9392505050565b6040518060200160405280600081525090565b6000604051905090565b600080fd5b60007fffffffff0000000000000000000000000000000000000000000000000000000082169050919050565b61183781611802565b811461184257600080fd5b50565b6000813590506118548161182e565b92915050565b6000602082840312156118705761186f6117fd565b5b600061187e84828501611845565b91505092915050565b60008115159050919050565b61189c81611887565b82525050565b60006020820190506118b76000830184611893565b92915050565b6000819050919050565b6118d0816118bd565b81146118db57600080fd5b50565b6000813590506118ed816118c7565b92915050565b600060208284031215611909576119086117fd565b5b6000611917848285016118de565b91505092915050565b611929816118bd565b82525050565b60006020820190506119446000830184611920565b92915050565b600073ffffffffffffffffffffffffffffffffffffffff82169050919050565b60006119758261194a565b9050919050565b6119858161196a565b811461199057600080fd5b50565b6000813590506119a28161197c565b92915050565b600080604083850312156119bf576119be6117fd565b5b60006119cd858286016118de565b92505060206119de85828601611993565b9150509250929050565b6000819050919050565b6119fb816119e8565b8114611a0657600080fd5b50565b600081359050611a18816119f2565b92915050565b60008060408385031215611a3557611a346117fd565b5b6000611a4385828601611993565b9250506020611a5485828601611a09565b9150509250929050565b600060208284031215611a7457611a736117fd565b5b6000611a8284828501611993565b91505092915050565b611a94816119e8565b82525050565b602082016000820151611ab06000850182611a8b565b50505050565b6000602082019050611acb6000830184611a9a565b92915050565b611ada816119e8565b82525050565b6000602082019050611af56000830184611ad1565b92915050565b600082825260208201905092915050565b7f416363657373436f6e74726f6c3a2063616e206f6e6c792072656e6f756e636560008201527f20726f6c657320666f722073656c660000000000000000000000000000000000602082015250565b6000611b68602f83611afb565b9150611b7382611b0c565b604082019050919050565b60006020820190508181036000830152611b9781611b5b565b9050919050565b611ba78161196a565b82525050565b6000602082019050611bc26000830184611b9e565b92915050565b611bd181611887565b8114611bdc57600080fd5b50565b600081519050611bee81611bc8565b92915050565b600060208284031215611c0a57611c096117fd565b5b6000611c1884828501611bdf565b91505092915050565b7f506f6f6c20646f6573206e6f7420657869737400000000000000000000000000600082015250565b6000611c57601383611afb565b9150611c6282611c21565b602082019050919050565b60006020820190508181036000830152611c8681611c4a565b9050919050565b6000606082019050611ca26000830186611b9e565b611caf6020830185611b9e565b611cbc6040830184611ad1565b949350505050565b6000604082019050611cd96000830185611b9e565b611ce66020830184611b9e565b9392505050565b600081519050611cfc816119f2565b92915050565b600060208284031215611d1857611d176117fd565b5b6000611d2684828501611ced565b91505092915050565b6000604082019050611d446000830185611b9e565b611d516020830184611ad1565b9392505050565b600080fd5b6000601f19601f8301169050919050565b7f4e487b7100000000000000000000000000000000000000000000000000000000600052604160045260246000fd5b611da682611d5d565b810181811067ffffffffffffffff82111715611dc557611dc4611d6e565b5b80604052505050565b6000611dd86117f3565b9050611de48282611d9d565b919050565b600060208284031215611dff57611dfe611d58565b5b611e096020611dce565b90506000611e1984828501611ced565b60008301525092915050565b600060208284031215611e3b57611e3a6117fd565b5b6000611e4984828501611de9565b91505092915050565b7f4e487b7100000000000000000000000000000000000000000000000000000000600052603260045260246000fd5b7f4e487b7100000000000000000000000000000000000000000000000000000000600052601160045260246000fd5b6000611ebb826119e8565b9150611ec6836119e8565b9250827fffffffffffffffffffffffffffffffffffffffffffffffffffffffffffffffff03821115611efb57611efa611e81565b5b828201905092915050565b6000611f11826119e8565b91507fffffffffffffffffffffffffffffffffffffffffffffffffffffffffffffffff821415611f4457611f43611e81565b5b600182019050919050565b600060808284031215611f6557611f64611d58565b5b611f6f6080611dce565b90506000611f7f84828501611ced565b6000830152506020611f9384828501611ced565b6020830152506040611fa784828501611ced565b6040830152506060611fbb84828501611ced565b60608301525092915050565b600060808284031215611fdd57611fdc6117fd565b5b6000611feb84828501611f4f565b91505092915050565b7f4e487b7100000000000000000000000000000000000000000000000000000000600052601260045260246000fd5b600061202e826119e8565b9150612039836119e8565b92508261204957612048611ff4565b5b828204905092915050565b600061205f826119e8565b915061206a836119e8565b9250817fffffffffffffffffffffffffffffffffffffffffffffffffffffffffffffffff04831182151516156120a3576120a2611e81565b5b828202905092915050565b600081905092915050565b7f416363657373436f6e74726f6c3a206163636f756e7420000000000000000000600082015250565b60006120ef6017836120ae565b91506120fa826120b9565b601782019050919050565b600081519050919050565b60005b8381101561212e578082015181840152602081019050612113565b8381111561213d576000848401525b50505050565b600061214e82612105565b61215881856120ae565b9350612168818560208601612110565b80840191505092915050565b7f206973206d697373696e6720726f6c6520000000000000000000000000000000600082015250565b60006121aa6011836120ae565b91506121b582612174565b601182019050919050565b60006121cb826120e2565b91506121d78285612143565b91506121e28261219d565b91506121ee8284612143565b91508190509392505050565b600061220582612105565b61220f8185611afb565b935061221f818560208601612110565b61222881611d5d565b840191505092915050565b6000602082019050818103600083015261224d81846121fa565b905092915050565b6000612260826119e8565b9150600082141561227457612273611e81565b5b600182039050919050565b7f537472696e67733a20686578206c656e67746820696e73756666696369656e74600082015250565b60006122b5602083611afb565b91506122c08261227f565b602082019050919050565b600060208201905081810360008301526122e4816122a8565b9050919050565b7f5361666545524332303a204552433230206f7065726174696f6e20646964206e60008201527f6f74207375636365656400000000000000000000000000000000000000000000602082015250565b6000612347602a83611afb565b9150612352826122eb565b604082019050919050565b600060208201905081810360008301526123768161233a565b9050919050565b7f416464726573733a20696e73756666696369656e742062616c616e636520666f60008201527f722063616c6c0000000000000000000000000000000000000000000000000000602082015250565b60006123d9602683611afb565b91506123e48261237d565b604082019050919050565b60006020820190508181036000830152612408816123cc565b9050919050565b7f416464726573733a2063616c6c20746f206e6f6e2d636f6e7472616374000000600082015250565b6000612445601d83611afb565b91506124508261240f565b602082019050919050565b6000602082019050818103600083015261247481612438565b9050919050565b600081519050919050565b600081905092915050565b600061249c8261247b565b6124a68185612486565b93506124b6818560208601612110565b80840191505092915050565b60006124ce8284612491565b91508190509291505056fea26469706673582212204750da34cffce38ca50ce35503b7f1529a6c760172021adde904ceca445c3d6b64736f6c634300080b0033",
  "linkReferences": {},
  "deployedLinkReferences": {}
}