{
  "_format": "hh-sol-artifact-1",
  "contractName": "TreasuryFund",
  "sourceName": "contracts/treasury/TreasuryFund.sol",
  "abi": [
    {
      "inputs": [
        {
          "internalType": "address",
          "name": "_capl",
          "type": "address"
        },
        {
          "internalType": "address",
          "name": "_treasuryStorage",
          "type": "address"
        }
      ],
      "stateMutability": "nonpayable",
      "type": "constructor"
    },
    {
      "anonymous": false,
      "inputs": [
        {
          "indexed": true,
          "internalType": "address",
          "name": "_token",
          "type": "address"
        },
        {
          "indexed": true,
          "internalType": "address",
          "name": "_user",
          "type": "address"
        },
        {
          "indexed": false,
          "internalType": "uint256",
          "name": "_amount",
          "type": "uint256"
        }
      ],
      "name": "Claim",
      "type": "event"
    },
    {
      "anonymous": false,
      "inputs": [
        {
          "indexed": false,
          "internalType": "address",
          "name": "_token",
          "type": "address"
        },
        {
          "indexed": false,
          "internalType": "address",
          "name": "_user",
          "type": "address"
        },
        {
          "indexed": false,
          "internalType": "uint256",
          "name": "_amount",
          "type": "uint256"
        }
      ],
      "name": "Deposit",
      "type": "event"
    },
    {
      "anonymous": false,
      "inputs": [
        {
          "indexed": true,
          "internalType": "address",
          "name": "_token",
          "type": "address"
        },
        {
          "indexed": false,
          "internalType": "uint256",
          "name": "_block",
          "type": "uint256"
        }
      ],
      "name": "PoolUpdated",
      "type": "event"
    },
    {
      "anonymous": false,
      "inputs": [
        {
          "indexed": true,
          "internalType": "bytes32",
          "name": "role",
          "type": "bytes32"
        },
        {
          "indexed": true,
          "internalType": "bytes32",
          "name": "previousAdminRole",
          "type": "bytes32"
        },
        {
          "indexed": true,
          "internalType": "bytes32",
          "name": "newAdminRole",
          "type": "bytes32"
        }
      ],
      "name": "RoleAdminChanged",
      "type": "event"
    },
    {
      "anonymous": false,
      "inputs": [
        {
          "indexed": true,
          "internalType": "bytes32",
          "name": "role",
          "type": "bytes32"
        },
        {
          "indexed": true,
          "internalType": "address",
          "name": "account",
          "type": "address"
        },
        {
          "indexed": true,
          "internalType": "address",
          "name": "sender",
          "type": "address"
        }
      ],
      "name": "RoleGranted",
      "type": "event"
    },
    {
      "anonymous": false,
      "inputs": [
        {
          "indexed": true,
          "internalType": "bytes32",
          "name": "role",
          "type": "bytes32"
        },
        {
          "indexed": true,
          "internalType": "address",
          "name": "account",
          "type": "address"
        },
        {
          "indexed": true,
          "internalType": "address",
          "name": "sender",
          "type": "address"
        }
      ],
      "name": "RoleRevoked",
      "type": "event"
    },
    {
      "anonymous": false,
      "inputs": [
        {
          "indexed": true,
          "internalType": "address",
          "name": "_token",
          "type": "address"
        },
        {
          "indexed": true,
          "internalType": "address",
          "name": "_user",
          "type": "address"
        },
        {
          "indexed": false,
          "internalType": "uint256",
          "name": "_amount",
          "type": "uint256"
        }
      ],
      "name": "Withdraw",
      "type": "event"
    },
    {
      "inputs": [],
      "name": "DEFAULT_ADMIN_ROLE",
      "outputs": [
        {
          "internalType": "bytes32",
          "name": "",
          "type": "bytes32"
        }
      ],
      "stateMutability": "view",
      "type": "function"
    },
    {
      "inputs": [],
      "name": "claimRevenue",
      "outputs": [],
      "stateMutability": "nonpayable",
      "type": "function"
    },
    {
      "inputs": [
        {
          "internalType": "address",
          "name": "_token",
          "type": "address"
        },
        {
          "internalType": "uint256",
          "name": "_amount",
          "type": "uint256"
        }
      ],
      "name": "deposit",
      "outputs": [],
      "stateMutability": "nonpayable",
      "type": "function"
    },
    {
      "inputs": [
        {
          "internalType": "bytes32",
          "name": "role",
          "type": "bytes32"
        }
      ],
      "name": "getRoleAdmin",
      "outputs": [
        {
          "internalType": "bytes32",
          "name": "",
          "type": "bytes32"
        }
      ],
      "stateMutability": "view",
      "type": "function"
    },
    {
      "inputs": [],
      "name": "getTotalManagedValue",
      "outputs": [
        {
          "internalType": "uint256",
          "name": "totalManagedValue",
          "type": "uint256"
        }
      ],
      "stateMutability": "nonpayable",
      "type": "function"
    },
    {
      "inputs": [
        {
          "internalType": "bytes32",
          "name": "role",
          "type": "bytes32"
        },
        {
          "internalType": "address",
          "name": "account",
          "type": "address"
        }
      ],
      "name": "grantRole",
      "outputs": [],
      "stateMutability": "nonpayable",
      "type": "function"
    },
    {
      "inputs": [
        {
          "internalType": "bytes32",
          "name": "role",
          "type": "bytes32"
        },
        {
          "internalType": "address",
          "name": "account",
          "type": "address"
        }
      ],
      "name": "hasRole",
      "outputs": [
        {
          "internalType": "bool",
          "name": "",
          "type": "bool"
        }
      ],
      "stateMutability": "view",
      "type": "function"
    },
    {
      "inputs": [],
      "name": "pendingRevenue",
      "outputs": [
        {
          "internalType": "uint256",
          "name": "pending",
          "type": "uint256"
        }
      ],
      "stateMutability": "nonpayable",
      "type": "function"
    },
    {
      "inputs": [
        {
          "internalType": "bytes32",
          "name": "role",
          "type": "bytes32"
        },
        {
          "internalType": "address",
          "name": "account",
          "type": "address"
        }
      ],
      "name": "renounceRole",
      "outputs": [],
      "stateMutability": "nonpayable",
      "type": "function"
    },
    {
      "inputs": [
        {
          "internalType": "bytes32",
          "name": "role",
          "type": "bytes32"
        },
        {
          "internalType": "address",
          "name": "account",
          "type": "address"
        }
      ],
      "name": "revokeRole",
      "outputs": [],
      "stateMutability": "nonpayable",
      "type": "function"
    },
    {
      "inputs": [
        {
          "internalType": "address",
          "name": "_destination",
          "type": "address"
        }
      ],
      "name": "setRevenueController",
      "outputs": [],
      "stateMutability": "nonpayable",
      "type": "function"
    },
    {
      "inputs": [
        {
          "internalType": "bytes4",
          "name": "interfaceId",
          "type": "bytes4"
        }
      ],
      "name": "supportsInterface",
      "outputs": [
        {
          "internalType": "bool",
          "name": "",
          "type": "bool"
        }
      ],
      "stateMutability": "view",
      "type": "function"
    },
    {
      "inputs": [
        {
          "internalType": "address",
          "name": "_token",
          "type": "address"
        }
      ],
      "name": "updatePool",
      "outputs": [
        {
          "components": [
            {
              "internalType": "uint256",
              "name": "totalPooled",
              "type": "uint256"
            },
            {
              "internalType": "uint256",
              "name": "rewardsPerBlock",
              "type": "uint256"
            },
            {
              "internalType": "uint256",
              "name": "accCaplPerShare",
              "type": "uint256"
            },
            {
              "internalType": "uint256",
              "name": "lastRewardBlock",
              "type": "uint256"
            }
          ],
          "internalType": "struct IPool.Pool",
          "name": "pool",
          "type": "tuple"
        }
      ],
      "stateMutability": "nonpayable",
      "type": "function"
    },
    {
      "inputs": [
        {
          "internalType": "address",
          "name": "_token",
          "type": "address"
        }
      ],
      "name": "withdraw",
      "outputs": [],
      "stateMutability": "nonpayable",
      "type": "function"
    }
  ],
  "bytecode": "0x6080604052670de0b6b3a76400006002553480156200001d57600080fd5b5060405162002e8438038062002e84833981810160405281019062000043919062000137565b81600160006101000a81548173ffffffffffffffffffffffffffffffffffffffff021916908373ffffffffffffffffffffffffffffffffffffffff16021790555080600760006101000a81548173ffffffffffffffffffffffffffffffffffffffff021916908373ffffffffffffffffffffffffffffffffffffffff16021790555050506200017e565b600080fd5b600073ffffffffffffffffffffffffffffffffffffffff82169050919050565b6000620000ff82620000d2565b9050919050565b6200011181620000f2565b81146200011d57600080fd5b50565b600081519050620001318162000106565b92915050565b60008060408385031215620001515762000150620000cd565b5b6000620001618582860162000120565b9250506020620001748582860162000120565b9150509250929050565b612cf6806200018e6000396000f3fe608060405234801561001057600080fd5b50600436106100ea5760003560e01c80637b46c54f1161008c578063a217fddf11610066578063a217fddf14610247578063d547741f14610265578063f9a758e514610281578063fa86fa241461029f576100ea565b80637b46c54f146101c957806391d14854146101f95780639b3f6e1814610229576100ea565b806336568abe116100c857806336568abe1461016b57806347e7ef241461018757806351cff8d9146101a3578063564f4f76146101bf576100ea565b806301ffc9a7146100ef578063248a9ca31461011f5780632f2ff15d1461014f575b600080fd5b61010960048036038101906101049190611f08565b6102bb565b6040516101169190611f50565b60405180910390f35b61013960048036038101906101349190611fa1565b610335565b6040516101469190611fdd565b60405180910390f35b61016960048036038101906101649190612056565b610354565b005b61018560048036038101906101809190612056565b61037d565b005b6101a1600480360381019061019c91906120cc565b610400565b005b6101bd60048036038101906101b8919061210c565b610830565b005b6101c7610b51565b005b6101e360048036038101906101de919061210c565b610e56565b6040516101f0919061219d565b60405180910390f35b610213600480360381019061020e9190612056565b611180565b6040516102209190611f50565b60405180910390f35b6102316111ea565b60405161023e91906121c7565b60405180910390f35b61024f6112fb565b60405161025c9190611fdd565b60405180910390f35b61027f600480360381019061027a9190612056565b611302565b005b61028961132b565b60405161029691906121c7565b60405180910390f35b6102b960048036038101906102b4919061210c565b611620565b005b60007f7965db0b000000000000000000000000000000000000000000000000000000007bffffffffffffffffffffffffffffffffffffffffffffffffffffffff1916827bffffffffffffffffffffffffffffffffffffffffffffffffffffffff1916148061032e575061032d8261167a565b5b9050919050565b6000806000838152602001908152602001600020600101549050919050565b61035d82610335565b61036e816103696116e4565b6116ec565b6103788383611789565b505050565b6103856116e4565b73ffffffffffffffffffffffffffffffffffffffff168173ffffffffffffffffffffffffffffffffffffffff16146103f2576040517f08c379a00000000000000000000000000000000000000000000000000000000081526004016103e990612265565b60405180910390fd5b6103fc8282611869565b5050565b600760009054906101000a900473ffffffffffffffffffffffffffffffffffffffff16600460006101000a81548173ffffffffffffffffffffffffffffffffffffffff021916908373ffffffffffffffffffffffffffffffffffffffff160217905550600460009054906101000a900473ffffffffffffffffffffffffffffffffffffffff1673ffffffffffffffffffffffffffffffffffffffff1663999126d7836040518263ffffffff1660e01b81526004016104be9190612294565b6020604051808303816000875af11580156104dd573d6000803e3d6000fd5b505050506040513d601f19601f8201168201806040525081019061050191906122db565b610540576040517f08c379a000000000000000000000000000000000000000000000000000000000815260040161053790612354565b60405180910390fd5b600061054b83610e56565b9050600060025482604001518461056291906123a3565b61056c919061242c565b9050600460009054906101000a900473ffffffffffffffffffffffffffffffffffffffff1673ffffffffffffffffffffffffffffffffffffffff1663b6f867a833866040518363ffffffff1660e01b81526004016105cb92919061245d565b6020604051808303816000875af11580156105ea573d6000803e3d6000fd5b505050506040513d601f19601f8201168201806040525081019061060e91906122db565b156106ab57600460009054906101000a900473ffffffffffffffffffffffffffffffffffffffff1673ffffffffffffffffffffffffffffffffffffffff1663f5b5d237853386856040518563ffffffff1660e01b81526004016106749493929190612486565b600060405180830381600087803b15801561068e57600080fd5b505af11580156106a2573d6000803e3d6000fd5b5050505061073f565b600460009054906101000a900473ffffffffffffffffffffffffffffffffffffffff1673ffffffffffffffffffffffffffffffffffffffff1663d2456a95853386856040518563ffffffff1660e01b815260040161070c9493929190612486565b600060405180830381600087803b15801561072657600080fd5b505af115801561073a573d6000803e3d6000fd5b505050505b6005849080600181540180825580915050600190039060005260206000200160009091909190916101000a81548173ffffffffffffffffffffffffffffffffffffffff021916908373ffffffffffffffffffffffffffffffffffffffff1602179055506107ef600760009054906101000a900473ffffffffffffffffffffffffffffffffffffffff16848673ffffffffffffffffffffffffffffffffffffffff1661194a9092919063ffffffff16565b7f5548c837ab068cf56a2c2479df0882a4922fd203edb7517321831d95078c5f62843385604051610822939291906124cb565b60405180910390a150505050565b600061083b82610e56565b90506000600460009054906101000a900473ffffffffffffffffffffffffffffffffffffffff1673ffffffffffffffffffffffffffffffffffffffff166392a576e684336040518363ffffffff1660e01b815260040161089c92919061245d565b60a060405180830381865afa1580156108b9573d6000803e3d6000fd5b505050506040513d601f19601f820116820180604052508101906108dd9190612634565b90506000600460009054906101000a900473ffffffffffffffffffffffffffffffffffffffff1673ffffffffffffffffffffffffffffffffffffffff16630122a7e885336040518363ffffffff1660e01b815260040161093e92919061245d565b602060405180830381865afa15801561095b573d6000803e3d6000fd5b505050506040513d601f19601f8201168201806040525081019061097f9190612661565b9050600060025484604001518361099691906123a3565b6109a0919061242c565b83602001516109af919061268e565b90508473ffffffffffffffffffffffffffffffffffffffff1663095ea7b3600460009054906101000a900473ffffffffffffffffffffffffffffffffffffffff16846040518363ffffffff1660e01b8152600401610a0e9291906126c2565b6020604051808303816000875af1158015610a2d573d6000803e3d6000fd5b505050506040513d601f19601f82011682018060405250810190610a5191906122db565b50600460009054906101000a900473ffffffffffffffffffffffffffffffffffffffff1673ffffffffffffffffffffffffffffffffffffffff16637bfe950c863385856040518563ffffffff1660e01b8152600401610ab39493929190612486565b600060405180830381600087803b158015610acd57600080fd5b505af1158015610ae1573d6000803e3d6000fd5b505050503373ffffffffffffffffffffffffffffffffffffffff168573ffffffffffffffffffffffffffffffffffffffff167f9b1bfa7fa9ee420a16e124f794c35ac9f90472acc99140eb2f6447c714cad8eb84604051610b4291906121c7565b60405180910390a35050505050565b6000610b7e600160009054906101000a900473ffffffffffffffffffffffffffffffffffffffff16610e56565b90506000600460009054906101000a900473ffffffffffffffffffffffffffffffffffffffff1673ffffffffffffffffffffffffffffffffffffffff166392a576e6600160009054906101000a900473ffffffffffffffffffffffffffffffffffffffff16336040518363ffffffff1660e01b8152600401610c0192919061245d565b60a060405180830381865afa158015610c1e573d6000803e3d6000fd5b505050506040513d601f19601f82011682018060405250810190610c429190612634565b9050600060025483604001518360000151610c5d91906123a3565b610c67919061242c565b90506000826020015182610c7b919061268e565b9050600460009054906101000a900473ffffffffffffffffffffffffffffffffffffffff1673ffffffffffffffffffffffffffffffffffffffff16638a5bff6b600160009054906101000a900473ffffffffffffffffffffffffffffffffffffffff1633856040518463ffffffff1660e01b8152600401610cfe939291906124cb565b600060405180830381600087803b158015610d1857600080fd5b505af1158015610d2c573d6000803e3d6000fd5b505050506000811115610dc957600360009054906101000a900473ffffffffffffffffffffffffffffffffffffffff1673ffffffffffffffffffffffffffffffffffffffff166340c10f1933836040518363ffffffff1660e01b8152600401610d969291906126c2565b600060405180830381600087803b158015610db057600080fd5b505af1158015610dc4573d6000803e3d6000fd5b505050505b3373ffffffffffffffffffffffffffffffffffffffff16600160009054906101000a900473ffffffffffffffffffffffffffffffffffffffff1673ffffffffffffffffffffffffffffffffffffffff167f70eb43c4a8ae8c40502dcf22436c509c28d6ff421cf07c491be56984bd98706883604051610e4891906121c7565b60405180910390a350505050565b610e5e611e79565b600760009054906101000a900473ffffffffffffffffffffffffffffffffffffffff16600460006101000a81548173ffffffffffffffffffffffffffffffffffffffff021916908373ffffffffffffffffffffffffffffffffffffffff1602179055506000600460009054906101000a900473ffffffffffffffffffffffffffffffffffffffff1673ffffffffffffffffffffffffffffffffffffffff1663bbe4f6db846040518263ffffffff1660e01b8152600401610f1e9190612294565b6080604051808303816000875af1158015610f3d573d6000803e3d6000fd5b505050506040513d601f19601f82011682018060405250810190610f619190612763565b90506000600460009054906101000a900473ffffffffffffffffffffffffffffffffffffffff1673ffffffffffffffffffffffffffffffffffffffff1663f2866c78856040518263ffffffff1660e01b8152600401610fc09190612294565b6020604051808303816000875af1158015610fdf573d6000803e3d6000fd5b505050506040513d601f19601f820116820180604052508101906110039190612661565b90506000826060015143111561117757600082111561107157600083606001514361102e919061268e565b9050600084602001518261104291906123a3565b9050836002548261105391906123a3565b61105d919061242c565b856040015161106c9190612790565b925050505b60004390506000600460009054906101000a900473ffffffffffffffffffffffffffffffffffffffff1673ffffffffffffffffffffffffffffffffffffffff1663695c0bb88885856040518463ffffffff1660e01b81526004016110d7939291906127e6565b6080604051808303816000875af11580156110f6573d6000803e3d6000fd5b505050506040513d601f19601f8201168201806040525081019061111a9190612763565b90508673ffffffffffffffffffffffffffffffffffffffff167f2f4ae87a584f00dc35b043dd1c5ac839c1f41cd3a66e834d4e13faa6251634e68360405161116291906121c7565b60405180910390a2809550505050505061117b565b5050505b919050565b600080600084815260200190815260200160002060000160008373ffffffffffffffffffffffffffffffffffffffff1673ffffffffffffffffffffffffffffffffffffffff16815260200190815260200160002060009054906101000a900460ff16905092915050565b6000805b6005805490508110156112f757600760009054906101000a900473ffffffffffffffffffffffffffffffffffffffff1673ffffffffffffffffffffffffffffffffffffffff1663f2866c786005838154811061124d5761124c61281d565b5b9060005260206000200160009054906101000a900473ffffffffffffffffffffffffffffffffffffffff166040518263ffffffff1660e01b81526004016112949190612294565b6020604051808303816000875af11580156112b3573d6000803e3d6000fd5b505050506040513d601f19601f820116820180604052508101906112d79190612661565b826112e29190612790565b915080806112ef9061284c565b9150506111ee565b5090565b6000801b81565b61130b82610335565b61131c816113176116e4565b6116ec565b6113268383611869565b505050565b600080600760009054906101000a900473ffffffffffffffffffffffffffffffffffffffff1673ffffffffffffffffffffffffffffffffffffffff1663bbe4f6db600160009054906101000a900473ffffffffffffffffffffffffffffffffffffffff166040518263ffffffff1660e01b81526004016113ab9190612294565b6080604051808303816000875af11580156113ca573d6000803e3d6000fd5b505050506040513d601f19601f820116820180604052508101906113ee9190612763565b90506000600760009054906101000a900473ffffffffffffffffffffffffffffffffffffffff1673ffffffffffffffffffffffffffffffffffffffff166392a576e6600160009054906101000a900473ffffffffffffffffffffffffffffffffffffffff16336040518363ffffffff1660e01b815260040161147192919061245d565b60a060405180830381865afa15801561148e573d6000803e3d6000fd5b505050506040513d601f19601f820116820180604052508101906114b29190612634565b90506000826040015190506000600760009054906101000a900473ffffffffffffffffffffffffffffffffffffffff1673ffffffffffffffffffffffffffffffffffffffff1663f2866c78600160009054906101000a900473ffffffffffffffffffffffffffffffffffffffff166040518263ffffffff1660e01b815260040161153c9190612294565b6020604051808303816000875af115801561155b573d6000803e3d6000fd5b505050506040513d601f19601f8201168201806040525081019061157f9190612661565b9050836060015143118015611595575060008114155b156115eb5760008460600151436115ac919061268e565b905060008560200151826115c091906123a3565b905082600254826115d191906123a3565b6115db919061242c565b846115e69190612790565b935050505b826020015160025483856000015161160391906123a3565b61160d919061242c565b611617919061268e565b94505050505090565b6000801b611635816116306116e4565b6116ec565b81600660006101000a81548173ffffffffffffffffffffffffffffffffffffffff021916908373ffffffffffffffffffffffffffffffffffffffff1602179055505050565b60007f01ffc9a7000000000000000000000000000000000000000000000000000000007bffffffffffffffffffffffffffffffffffffffffffffffffffffffff1916827bffffffffffffffffffffffffffffffffffffffffffffffffffffffff1916149050919050565b600033905090565b6116f68282611180565b6117855761171b8173ffffffffffffffffffffffffffffffffffffffff1660146119d0565b6117298360001c60206119d0565b60405160200161173a9291906129a7565b6040516020818303038152906040526040517f08c379a000000000000000000000000000000000000000000000000000000000815260040161177c9190612a1a565b60405180910390fd5b5050565b6117938282611180565b61186557600160008084815260200190815260200160002060000160008373ffffffffffffffffffffffffffffffffffffffff1673ffffffffffffffffffffffffffffffffffffffff16815260200190815260200160002060006101000a81548160ff02191690831515021790555061180a6116e4565b73ffffffffffffffffffffffffffffffffffffffff168173ffffffffffffffffffffffffffffffffffffffff16837f2f8788117e7eff1d82e926ec794901d17c78024a50270940304540a733656f0d60405160405180910390a45b5050565b6118738282611180565b1561194657600080600084815260200190815260200160002060000160008373ffffffffffffffffffffffffffffffffffffffff1673ffffffffffffffffffffffffffffffffffffffff16815260200190815260200160002060006101000a81548160ff0219169083151502179055506118eb6116e4565b73ffffffffffffffffffffffffffffffffffffffff168173ffffffffffffffffffffffffffffffffffffffff16837ff6391f5c32d9c69d2a47ea670b442974b53935d1edc7fd64eb21e047a839171b60405160405180910390a45b5050565b6119cb8363a9059cbb60e01b84846040516024016119699291906126c2565b604051602081830303815290604052907bffffffffffffffffffffffffffffffffffffffffffffffffffffffff19166020820180517bffffffffffffffffffffffffffffffffffffffffffffffffffffffff8381831617835250505050611c0c565b505050565b6060600060028360026119e391906123a3565b6119ed9190612790565b67ffffffffffffffff811115611a0657611a05612518565b5b6040519080825280601f01601f191660200182016040528015611a385781602001600182028036833780820191505090505b5090507f300000000000000000000000000000000000000000000000000000000000000081600081518110611a7057611a6f61281d565b5b60200101907effffffffffffffffffffffffffffffffffffffffffffffffffffffffffffff1916908160001a9053507f780000000000000000000000000000000000000000000000000000000000000081600181518110611ad457611ad361281d565b5b60200101907effffffffffffffffffffffffffffffffffffffffffffffffffffffffffffff1916908160001a90535060006001846002611b1491906123a3565b611b1e9190612790565b90505b6001811115611bbe577f3031323334353637383961626364656600000000000000000000000000000000600f861660108110611b6057611b5f61281d565b5b1a60f81b828281518110611b7757611b7661281d565b5b60200101907effffffffffffffffffffffffffffffffffffffffffffffffffffffffffffff1916908160001a905350600485901c945080611bb790612a3c565b9050611b21565b5060008414611c02576040517f08c379a0000000000000000000000000000000000000000000000000000000008152600401611bf990612ab2565b60405180910390fd5b8091505092915050565b6000611c6e826040518060400160405280602081526020017f5361666545524332303a206c6f772d6c6576656c2063616c6c206661696c65648152508573ffffffffffffffffffffffffffffffffffffffff16611cd39092919063ffffffff16565b9050600081511115611cce5780806020019051810190611c8e91906122db565b611ccd576040517f08c379a0000000000000000000000000000000000000000000000000000000008152600401611cc490612b44565b60405180910390fd5b5b505050565b6060611ce28484600085611ceb565b90509392505050565b606082471015611d30576040517f08c379a0000000000000000000000000000000000000000000000000000000008152600401611d2790612bd6565b60405180910390fd5b611d3985611dff565b611d78576040517f08c379a0000000000000000000000000000000000000000000000000000000008152600401611d6f90612c42565b60405180910390fd5b6000808673ffffffffffffffffffffffffffffffffffffffff168587604051611da19190612ca9565b60006040518083038185875af1925050503d8060008114611dde576040519150601f19603f3d011682016040523d82523d6000602084013e611de3565b606091505b5091509150611df3828286611e12565b92505050949350505050565b600080823b905060008111915050919050565b60608315611e2257829050611e72565b600083511115611e355782518084602001fd5b816040517f08c379a0000000000000000000000000000000000000000000000000000000008152600401611e699190612a1a565b60405180910390fd5b9392505050565b6040518060800160405280600081526020016000815260200160008152602001600081525090565b6000604051905090565b600080fd5b60007fffffffff0000000000000000000000000000000000000000000000000000000082169050919050565b611ee581611eb0565b8114611ef057600080fd5b50565b600081359050611f0281611edc565b92915050565b600060208284031215611f1e57611f1d611eab565b5b6000611f2c84828501611ef3565b91505092915050565b60008115159050919050565b611f4a81611f35565b82525050565b6000602082019050611f656000830184611f41565b92915050565b6000819050919050565b611f7e81611f6b565b8114611f8957600080fd5b50565b600081359050611f9b81611f75565b92915050565b600060208284031215611fb757611fb6611eab565b5b6000611fc584828501611f8c565b91505092915050565b611fd781611f6b565b82525050565b6000602082019050611ff26000830184611fce565b92915050565b600073ffffffffffffffffffffffffffffffffffffffff82169050919050565b600061202382611ff8565b9050919050565b61203381612018565b811461203e57600080fd5b50565b6000813590506120508161202a565b92915050565b6000806040838503121561206d5761206c611eab565b5b600061207b85828601611f8c565b925050602061208c85828601612041565b9150509250929050565b6000819050919050565b6120a981612096565b81146120b457600080fd5b50565b6000813590506120c6816120a0565b92915050565b600080604083850312156120e3576120e2611eab565b5b60006120f185828601612041565b9250506020612102858286016120b7565b9150509250929050565b60006020828403121561212257612121611eab565b5b600061213084828501612041565b91505092915050565b61214281612096565b82525050565b60808201600082015161215e6000850182612139565b5060208201516121716020850182612139565b5060408201516121846040850182612139565b5060608201516121976060850182612139565b50505050565b60006080820190506121b26000830184612148565b92915050565b6121c181612096565b82525050565b60006020820190506121dc60008301846121b8565b92915050565b600082825260208201905092915050565b7f416363657373436f6e74726f6c3a2063616e206f6e6c792072656e6f756e636560008201527f20726f6c657320666f722073656c660000000000000000000000000000000000602082015250565b600061224f602f836121e2565b915061225a826121f3565b604082019050919050565b6000602082019050818103600083015261227e81612242565b9050919050565b61228e81612018565b82525050565b60006020820190506122a96000830184612285565b92915050565b6122b881611f35565b81146122c357600080fd5b50565b6000815190506122d5816122af565b92915050565b6000602082840312156122f1576122f0611eab565b5b60006122ff848285016122c6565b91505092915050565b7f506f6f6c20646f6573206e6f7420657869737400000000000000000000000000600082015250565b600061233e6013836121e2565b915061234982612308565b602082019050919050565b6000602082019050818103600083015261236d81612331565b9050919050565b7f4e487b7100000000000000000000000000000000000000000000000000000000600052601160045260246000fd5b60006123ae82612096565b91506123b983612096565b9250817fffffffffffffffffffffffffffffffffffffffffffffffffffffffffffffffff04831182151516156123f2576123f1612374565b5b828202905092915050565b7f4e487b7100000000000000000000000000000000000000000000000000000000600052601260045260246000fd5b600061243782612096565b915061244283612096565b925082612452576124516123fd565b5b828204905092915050565b60006040820190506124726000830185612285565b61247f6020830184612285565b9392505050565b600060808201905061249b6000830187612285565b6124a86020830186612285565b6124b560408301856121b8565b6124c260608301846121b8565b95945050505050565b60006060820190506124e06000830186612285565b6124ed6020830185612285565b6124fa60408301846121b8565b949350505050565b600080fd5b6000601f19601f8301169050919050565b7f4e487b7100000000000000000000000000000000000000000000000000000000600052604160045260246000fd5b61255082612507565b810181811067ffffffffffffffff8211171561256f5761256e612518565b5b80604052505050565b6000612582611ea1565b905061258e8282612547565b919050565b6000815190506125a2816120a0565b92915050565b600060a082840312156125be576125bd612502565b5b6125c860a0612578565b905060006125d884828501612593565b60008301525060206125ec84828501612593565b602083015250604061260084828501612593565b6040830152506060612614848285016122c6565b6060830152506080612628848285016122c6565b60808301525092915050565b600060a0828403121561264a57612649611eab565b5b6000612658848285016125a8565b91505092915050565b60006020828403121561267757612676611eab565b5b600061268584828501612593565b91505092915050565b600061269982612096565b91506126a483612096565b9250828210156126b7576126b6612374565b5b828203905092915050565b60006040820190506126d76000830185612285565b6126e460208301846121b8565b9392505050565b60006080828403121561270157612700612502565b5b61270b6080612578565b9050600061271b84828501612593565b600083015250602061272f84828501612593565b602083015250604061274384828501612593565b604083015250606061275784828501612593565b60608301525092915050565b60006080828403121561277957612778611eab565b5b6000612787848285016126eb565b91505092915050565b600061279b82612096565b91506127a683612096565b9250827fffffffffffffffffffffffffffffffffffffffffffffffffffffffffffffffff038211156127db576127da612374565b5b828201905092915050565b60006060820190506127fb6000830186612285565b61280860208301856121b8565b61281560408301846121b8565b949350505050565b7f4e487b7100000000000000000000000000000000000000000000000000000000600052603260045260246000fd5b600061285782612096565b91507fffffffffffffffffffffffffffffffffffffffffffffffffffffffffffffffff82141561288a57612889612374565b5b600182019050919050565b600081905092915050565b7f416363657373436f6e74726f6c3a206163636f756e7420000000000000000000600082015250565b60006128d6601783612895565b91506128e1826128a0565b601782019050919050565b600081519050919050565b60005b838110156129155780820151818401526020810190506128fa565b83811115612924576000848401525b50505050565b6000612935826128ec565b61293f8185612895565b935061294f8185602086016128f7565b80840191505092915050565b7f206973206d697373696e6720726f6c6520000000000000000000000000000000600082015250565b6000612991601183612895565b915061299c8261295b565b601182019050919050565b60006129b2826128c9565b91506129be828561292a565b91506129c982612984565b91506129d5828461292a565b91508190509392505050565b60006129ec826128ec565b6129f681856121e2565b9350612a068185602086016128f7565b612a0f81612507565b840191505092915050565b60006020820190508181036000830152612a3481846129e1565b905092915050565b6000612a4782612096565b91506000821415612a5b57612a5a612374565b5b600182039050919050565b7f537472696e67733a20686578206c656e67746820696e73756666696369656e74600082015250565b6000612a9c6020836121e2565b9150612aa782612a66565b602082019050919050565b60006020820190508181036000830152612acb81612a8f565b9050919050565b7f5361666545524332303a204552433230206f7065726174696f6e20646964206e60008201527f6f74207375636365656400000000000000000000000000000000000000000000602082015250565b6000612b2e602a836121e2565b9150612b3982612ad2565b604082019050919050565b60006020820190508181036000830152612b5d81612b21565b9050919050565b7f416464726573733a20696e73756666696369656e742062616c616e636520666f60008201527f722063616c6c0000000000000000000000000000000000000000000000000000602082015250565b6000612bc06026836121e2565b9150612bcb82612b64565b604082019050919050565b60006020820190508181036000830152612bef81612bb3565b9050919050565b7f416464726573733a2063616c6c20746f206e6f6e2d636f6e7472616374000000600082015250565b6000612c2c601d836121e2565b9150612c3782612bf6565b602082019050919050565b60006020820190508181036000830152612c5b81612c1f565b9050919050565b600081519050919050565b600081905092915050565b6000612c8382612c62565b612c8d8185612c6d565b9350612c9d8185602086016128f7565b80840191505092915050565b6000612cb58284612c78565b91508190509291505056fea264697066735822122042122b83589bf8017a24040c82dae9c06ba2d99031dd1fdf197569a60de7cddf64736f6c634300080b0033",
  "linkReferences": {},
  "deployedLinkReferences": {}
}