{
  "_format": "hh-sol-artifact-1",
  "contractName": "RewardsV2",
  "sourceName": "contracts/standard/rewards/Rewards.sol",
  "abi": [
    {
      "inputs": [
        {
          "internalType": "address",
          "name": "_vault",
          "type": "address"
        },
        {
          "internalType": "address",
          "name": "_capl",
          "type": "address"
        }
      ],
      "stateMutability": "nonpayable",
      "type": "constructor"
    },
    {
      "anonymous": false,
      "inputs": [
        {
          "indexed": false,
          "internalType": "address",
          "name": "_token",
          "type": "address"
        },
        {
          "indexed": false,
          "internalType": "uint256",
          "name": "_rewardsPerBlock",
          "type": "uint256"
        }
      ],
      "name": "AddPool",
      "type": "event"
    },
    {
      "anonymous": false,
      "inputs": [
        {
          "indexed": true,
          "internalType": "address",
          "name": "_token",
          "type": "address"
        },
        {
          "indexed": true,
          "internalType": "address",
          "name": "_user",
          "type": "address"
        },
        {
          "indexed": false,
          "internalType": "uint256",
          "name": "_amount",
          "type": "uint256"
        }
      ],
      "name": "Claim",
      "type": "event"
    },
    {
      "anonymous": false,
      "inputs": [
        {
          "indexed": true,
          "internalType": "address",
          "name": "_token",
          "type": "address"
        },
        {
          "indexed": true,
          "internalType": "address",
          "name": "_user",
          "type": "address"
        },
        {
          "indexed": false,
          "internalType": "uint256",
          "name": "_amount",
          "type": "uint256"
        }
      ],
      "name": "Deposit",
      "type": "event"
    },
    {
      "anonymous": false,
      "inputs": [
        {
          "indexed": false,
          "internalType": "address",
          "name": "account",
          "type": "address"
        }
      ],
      "name": "Paused",
      "type": "event"
    },
    {
      "anonymous": false,
      "inputs": [
        {
          "indexed": true,
          "internalType": "address",
          "name": "_token",
          "type": "address"
        },
        {
          "indexed": false,
          "internalType": "uint256",
          "name": "_block",
          "type": "uint256"
        }
      ],
      "name": "PoolUpdated",
      "type": "event"
    },
    {
      "anonymous": false,
      "inputs": [
        {
          "indexed": true,
          "internalType": "bytes32",
          "name": "role",
          "type": "bytes32"
        },
        {
          "indexed": true,
          "internalType": "bytes32",
          "name": "previousAdminRole",
          "type": "bytes32"
        },
        {
          "indexed": true,
          "internalType": "bytes32",
          "name": "newAdminRole",
          "type": "bytes32"
        }
      ],
      "name": "RoleAdminChanged",
      "type": "event"
    },
    {
      "anonymous": false,
      "inputs": [
        {
          "indexed": true,
          "internalType": "bytes32",
          "name": "role",
          "type": "bytes32"
        },
        {
          "indexed": true,
          "internalType": "address",
          "name": "account",
          "type": "address"
        },
        {
          "indexed": true,
          "internalType": "address",
          "name": "sender",
          "type": "address"
        }
      ],
      "name": "RoleGranted",
      "type": "event"
    },
    {
      "anonymous": false,
      "inputs": [
        {
          "indexed": true,
          "internalType": "bytes32",
          "name": "role",
          "type": "bytes32"
        },
        {
          "indexed": true,
          "internalType": "address",
          "name": "account",
          "type": "address"
        },
        {
          "indexed": true,
          "internalType": "address",
          "name": "sender",
          "type": "address"
        }
      ],
      "name": "RoleRevoked",
      "type": "event"
    },
    {
      "anonymous": false,
      "inputs": [
        {
          "indexed": false,
          "internalType": "address",
          "name": "account",
          "type": "address"
        }
      ],
      "name": "Unpaused",
      "type": "event"
    },
    {
      "anonymous": false,
      "inputs": [
        {
          "indexed": true,
          "internalType": "address",
          "name": "_token",
          "type": "address"
        },
        {
          "indexed": true,
          "internalType": "address",
          "name": "_user",
          "type": "address"
        },
        {
          "indexed": false,
          "internalType": "uint256",
          "name": "_amount",
          "type": "uint256"
        }
      ],
      "name": "Withdraw",
      "type": "event"
    },
    {
      "anonymous": false,
      "inputs": [
        {
          "indexed": false,
          "internalType": "address",
          "name": "destination",
          "type": "address"
        },
        {
          "indexed": false,
          "internalType": "uint256",
          "name": "amount",
          "type": "uint256"
        }
      ],
      "name": "WithdrawMATIC",
      "type": "event"
    },
    {
      "inputs": [],
      "name": "DEFAULT_ADMIN_ROLE",
      "outputs": [
        {
          "internalType": "bytes32",
          "name": "",
          "type": "bytes32"
        }
      ],
      "stateMutability": "view",
      "type": "function"
    },
    {
      "inputs": [],
      "name": "MINTER_ROLE",
      "outputs": [
        {
          "internalType": "bytes32",
          "name": "",
          "type": "bytes32"
        }
      ],
      "stateMutability": "view",
      "type": "function"
    },
    {
      "inputs": [
        {
          "internalType": "address",
          "name": "_token",
          "type": "address"
        },
        {
          "internalType": "uint256",
          "name": "_rewardsPerBlock",
          "type": "uint256"
        }
      ],
      "name": "addPool",
      "outputs": [],
      "stateMutability": "nonpayable",
      "type": "function"
    },
    {
      "inputs": [
        {
          "internalType": "address",
          "name": "_token",
          "type": "address"
        },
        {
          "internalType": "address",
          "name": "_user",
          "type": "address"
        }
      ],
      "name": "claim",
      "outputs": [],
      "stateMutability": "nonpayable",
      "type": "function"
    },
    {
      "inputs": [
        {
          "internalType": "address",
          "name": "_token",
          "type": "address"
        },
        {
          "internalType": "uint256",
          "name": "_amount",
          "type": "uint256"
        }
      ],
      "name": "deposit",
      "outputs": [],
      "stateMutability": "nonpayable",
      "type": "function"
    },
    {
      "inputs": [
        {
          "internalType": "bytes32",
          "name": "role",
          "type": "bytes32"
        }
      ],
      "name": "getRoleAdmin",
      "outputs": [
        {
          "internalType": "bytes32",
          "name": "",
          "type": "bytes32"
        }
      ],
      "stateMutability": "view",
      "type": "function"
    },
    {
      "inputs": [
        {
          "internalType": "bytes32",
          "name": "role",
          "type": "bytes32"
        },
        {
          "internalType": "address",
          "name": "account",
          "type": "address"
        }
      ],
      "name": "grantRole",
      "outputs": [],
      "stateMutability": "nonpayable",
      "type": "function"
    },
    {
      "inputs": [
        {
          "internalType": "bytes32",
          "name": "role",
          "type": "bytes32"
        },
        {
          "internalType": "address",
          "name": "account",
          "type": "address"
        }
      ],
      "name": "hasRole",
      "outputs": [
        {
          "internalType": "bool",
          "name": "",
          "type": "bool"
        }
      ],
      "stateMutability": "view",
      "type": "function"
    },
    {
      "inputs": [],
      "name": "paused",
      "outputs": [
        {
          "internalType": "bool",
          "name": "",
          "type": "bool"
        }
      ],
      "stateMutability": "view",
      "type": "function"
    },
    {
      "inputs": [
        {
          "internalType": "address",
          "name": "_token",
          "type": "address"
        },
        {
          "internalType": "address",
          "name": "_user",
          "type": "address"
        }
      ],
      "name": "pendingRewards",
      "outputs": [
        {
          "internalType": "uint256",
          "name": "pending",
          "type": "uint256"
        }
      ],
      "stateMutability": "nonpayable",
      "type": "function"
    },
    {
      "inputs": [
        {
          "internalType": "bytes32",
          "name": "role",
          "type": "bytes32"
        },
        {
          "internalType": "address",
          "name": "account",
          "type": "address"
        }
      ],
      "name": "renounceRole",
      "outputs": [],
      "stateMutability": "nonpayable",
      "type": "function"
    },
    {
      "inputs": [
        {
          "internalType": "bytes32",
          "name": "role",
          "type": "bytes32"
        },
        {
          "internalType": "address",
          "name": "account",
          "type": "address"
        }
      ],
      "name": "revokeRole",
      "outputs": [],
      "stateMutability": "nonpayable",
      "type": "function"
    },
    {
      "inputs": [
        {
          "internalType": "bytes4",
          "name": "interfaceId",
          "type": "bytes4"
        }
      ],
      "name": "supportsInterface",
      "outputs": [
        {
          "internalType": "bool",
          "name": "",
          "type": "bool"
        }
      ],
      "stateMutability": "view",
      "type": "function"
    },
    {
      "inputs": [
        {
          "internalType": "address",
          "name": "_token",
          "type": "address"
        }
      ],
      "name": "updatePool",
      "outputs": [
        {
          "components": [
            {
              "internalType": "uint256",
              "name": "totalPooled",
              "type": "uint256"
            },
            {
              "internalType": "uint256",
              "name": "rewardsPerBlock",
              "type": "uint256"
            },
            {
              "internalType": "uint256",
              "name": "accCaplPerShare",
              "type": "uint256"
            },
            {
              "internalType": "uint256",
              "name": "lastRewardBlock",
              "type": "uint256"
            }
          ],
          "internalType": "struct IPool.Pool",
          "name": "pool",
          "type": "tuple"
        }
      ],
      "stateMutability": "nonpayable",
      "type": "function"
    },
    {
      "inputs": [
        {
          "internalType": "address",
          "name": "_token",
          "type": "address"
        },
        {
          "internalType": "address",
          "name": "_user",
          "type": "address"
        }
      ],
      "name": "withdraw",
      "outputs": [],
      "stateMutability": "nonpayable",
      "type": "function"
    },
    {
      "inputs": [],
      "name": "withdrawMATIC",
      "outputs": [],
      "stateMutability": "nonpayable",
      "type": "function"
    },
    {
      "inputs": [
        {
          "internalType": "address",
          "name": "_token",
          "type": "address"
        },
        {
          "internalType": "uint256",
          "name": "_amount",
          "type": "uint256"
        },
        {
          "internalType": "address",
          "name": "_destination",
          "type": "address"
        }
      ],
      "name": "withdrawToken",
      "outputs": [],
      "stateMutability": "nonpayable",
      "type": "function"
    }
  ],
  "bytecode": "0x6080604052670de0b6b3a764000060055562093a806006553480156200002457600080fd5b50604051620035353803806200353583398181016040528101906200004a91906200035a565b60008060006101000a81548160ff02191690831515021790555081600260006101000a81548173ffffffffffffffffffffffffffffffffffffffff021916908373ffffffffffffffffffffffffffffffffffffffff16021790555080600460006101000a81548173ffffffffffffffffffffffffffffffffffffffff021916908373ffffffffffffffffffffffffffffffffffffffff16021790555081600360006101000a81548173ffffffffffffffffffffffffffffffffffffffff021916908373ffffffffffffffffffffffffffffffffffffffff1602179055506200013c6000801b336200017660201b60201c565b6200016e7f9f2df0fed2c77648de5860a4cc508cd0818c85b8b8a1ab4ceeef8d981c8956a6336200017660201b60201c565b5050620003a1565b6200018882826200018c60201b60201c565b5050565b6200019e82826200027d60201b60201c565b6200027957600180600084815260200190815260200160002060000160008373ffffffffffffffffffffffffffffffffffffffff1673ffffffffffffffffffffffffffffffffffffffff16815260200190815260200160002060006101000a81548160ff0219169083151502179055506200021e620002e860201b60201c565b73ffffffffffffffffffffffffffffffffffffffff168173ffffffffffffffffffffffffffffffffffffffff16837f2f8788117e7eff1d82e926ec794901d17c78024a50270940304540a733656f0d60405160405180910390a45b5050565b60006001600084815260200190815260200160002060000160008373ffffffffffffffffffffffffffffffffffffffff1673ffffffffffffffffffffffffffffffffffffffff16815260200190815260200160002060009054906101000a900460ff16905092915050565b600033905090565b600080fd5b600073ffffffffffffffffffffffffffffffffffffffff82169050919050565b60006200032282620002f5565b9050919050565b620003348162000315565b81146200034057600080fd5b50565b600081519050620003548162000329565b92915050565b60008060408385031215620003745762000373620002f0565b5b6000620003848582860162000343565b9250506020620003978582860162000343565b9150509250929050565b61318480620003b16000396000f3fe608060405234801561001057600080fd5b506004361061010b5760003560e01c80635c975abb116100a2578063a217fddf11610071578063a217fddf146102c6578063d5391393146102e4578063d547741f14610302578063d99f66681461031e578063f940e385146103285761010b565b80635c975abb146102185780637b46c54f1461023657806380ac82281461026657806391d14854146102965761010b565b806332a9caba116100de57806332a9caba146101a857806336568abe146101c45780633ccdbb28146101e057806347e7ef24146101fc5761010b565b806301ffc9a71461011057806321c0b34214610140578063248a9ca31461015c5780632f2ff15d1461018c575b600080fd5b61012a600480360381019061012591906120b1565b610344565b60405161013791906120f9565b60405180910390f35b61015a60048036038101906101559190612172565b6103be565b005b610176600480360381019061017191906121e8565b610677565b6040516101839190612224565b60405180910390f35b6101a660048036038101906101a1919061223f565b610697565b005b6101c260048036038101906101bd91906122b5565b6106c0565b005b6101de60048036038101906101d9919061223f565b610769565b005b6101fa60048036038101906101f591906122f5565b6107ec565b005b610216600480360381019061021191906122b5565b610807565b005b610220610e61565b60405161022d91906120f9565b60405180910390f35b610250600480360381019061024b9190612348565b610e77565b60405161025d91906123d9565b60405180910390f35b610280600480360381019061027b9190612172565b61113e565b60405161028d9190612403565b60405180910390f35b6102b060048036038101906102ab919061223f565b6113d7565b6040516102bd91906120f9565b60405180910390f35b6102ce611442565b6040516102db9190612224565b60405180910390f35b6102ec611449565b6040516102f99190612224565b60405180910390f35b61031c6004803603810190610317919061223f565b61146d565b005b610326611496565b005b610342600480360381019061033d9190612172565b611577565b005b60007f7965db0b000000000000000000000000000000000000000000000000000000007bffffffffffffffffffffffffffffffffffffffffffffffffffffffff1916827bffffffffffffffffffffffffffffffffffffffffffffffffffffffff191614806103b757506103b682611801565b5b9050919050565b7f9f2df0fed2c77648de5860a4cc508cd0818c85b8b8a1ab4ceeef8d981c8956a66103f0816103eb61186b565b611873565b60006103fb84610e77565b90506000600260009054906101000a900473ffffffffffffffffffffffffffffffffffffffff1673ffffffffffffffffffffffffffffffffffffffff166392a576e686866040518363ffffffff1660e01b815260040161045c92919061242d565b6000604051808303816000875af115801561047b573d6000803e3d6000fd5b505050506040513d6000823e3d601f19601f820116820180604052508101906104a4919061272e565b90506000600554836040015183600001516104bf91906127a6565b6104c9919061282f565b905060008260200151826104dd9190612860565b9050600260009054906101000a900473ffffffffffffffffffffffffffffffffffffffff1673ffffffffffffffffffffffffffffffffffffffff16638a5bff6b8888856040518463ffffffff1660e01b815260040161053e93929190612894565b600060405180830381600087803b15801561055857600080fd5b505af115801561056c573d6000803e3d6000fd5b50505050600081111561060957600460009054906101000a900473ffffffffffffffffffffffffffffffffffffffff1673ffffffffffffffffffffffffffffffffffffffff166340c10f1987836040518363ffffffff1660e01b81526004016105d69291906128cb565b600060405180830381600087803b1580156105f057600080fd5b505af1158015610604573d6000803e3d6000fd5b505050505b8573ffffffffffffffffffffffffffffffffffffffff168773ffffffffffffffffffffffffffffffffffffffff167f70eb43c4a8ae8c40502dcf22436c509c28d6ff421cf07c491be56984bd987068836040516106669190612403565b60405180910390a350505050505050565b600060016000838152602001908152602001600020600101549050919050565b6106a082610677565b6106b1816106ac61186b565b611873565b6106bb8383611910565b505050565b6000801b6106d5816106d061186b565b611873565b600260009054906101000a900473ffffffffffffffffffffffffffffffffffffffff1673ffffffffffffffffffffffffffffffffffffffff166332a9caba84846040518363ffffffff1660e01b81526004016107329291906128cb565b600060405180830381600087803b15801561074c57600080fd5b505af1158015610760573d6000803e3d6000fd5b50505050505050565b61077161186b565b73ffffffffffffffffffffffffffffffffffffffff168173ffffffffffffffffffffffffffffffffffffffff16146107de576040517f08c379a00000000000000000000000000000000000000000000000000000000081526004016107d590612977565b60405180910390fd5b6107e882826119f0565b5050565b6000801b610801816107fc61186b565b611873565b50505050565b600260009054906101000a900473ffffffffffffffffffffffffffffffffffffffff1673ffffffffffffffffffffffffffffffffffffffff1663999126d7836040518263ffffffff1660e01b81526004016108629190612997565b602060405180830381865afa15801561087f573d6000803e3d6000fd5b505050506040513d601f19601f820116820180604052508101906108a391906129b2565b6108e2576040517f08c379a00000000000000000000000000000000000000000000000000000000081526004016108d990612a2b565b60405180910390fd5b60008111610925576040517f08c379a000000000000000000000000000000000000000000000000000000000815260040161091c90612a97565b60405180910390fd5b600061093083610e77565b9050600060055482604001518461094791906127a6565b610951919061282f565b9050600260009054906101000a900473ffffffffffffffffffffffffffffffffffffffff1673ffffffffffffffffffffffffffffffffffffffff1663b6f867a885336040518363ffffffff1660e01b81526004016109b092919061242d565b602060405180830381865afa1580156109cd573d6000803e3d6000fd5b505050506040513d601f19601f820116820180604052508101906109f191906129b2565b610a8d57600260009054906101000a900473ffffffffffffffffffffffffffffffffffffffff1673ffffffffffffffffffffffffffffffffffffffff1663f5b5d237853386856040518563ffffffff1660e01b8152600401610a569493929190612ab7565b600060405180830381600087803b158015610a7057600080fd5b505af1158015610a84573d6000803e3d6000fd5b50505050610da7565b600260009054906101000a900473ffffffffffffffffffffffffffffffffffffffff1673ffffffffffffffffffffffffffffffffffffffff1663d2456a95853386856040518563ffffffff1660e01b8152600401610aee9493929190612ab7565b600060405180830381600087803b158015610b0857600080fd5b505af1158015610b1c573d6000803e3d6000fd5b505050506000600260009054906101000a900473ffffffffffffffffffffffffffffffffffffffff1673ffffffffffffffffffffffffffffffffffffffff16639338b7c986336040518363ffffffff1660e01b8152600401610b7f92919061242d565b6080604051808303816000875af1158015610b9e573d6000803e3d6000fd5b505050506040513d601f19601f82011682018060405250810190610bc29190612afc565b9050610bd18160200151611ad2565b15610c6c57600260009054906101000a900473ffffffffffffffffffffffffffffffffffffffff1673ffffffffffffffffffffffffffffffffffffffff1663dfc2d1ba8633876040518463ffffffff1660e01b8152600401610c3593929190612894565b600060405180830381600087803b158015610c4f57600080fd5b505af1158015610c63573d6000803e3d6000fd5b50505050610da5565b6000600260009054906101000a900473ffffffffffffffffffffffffffffffffffffffff1673ffffffffffffffffffffffffffffffffffffffff166312229f1387336040518363ffffffff1660e01b8152600401610ccb92919061242d565b6020604051808303816000875af1158015610cea573d6000803e3d6000fd5b505050506040513d601f19601f82011682018060405250810190610d0e9190612b29565b9050600260009054906101000a900473ffffffffffffffffffffffffffffffffffffffff1673ffffffffffffffffffffffffffffffffffffffff16631b2aa575873388856040518563ffffffff1660e01b8152600401610d719493929190612ab7565b600060405180830381600087803b158015610d8b57600080fd5b505af1158015610d9f573d6000803e3d6000fd5b50505050505b505b610df633600360009054906101000a900473ffffffffffffffffffffffffffffffffffffffff16858773ffffffffffffffffffffffffffffffffffffffff16611aeb909392919063ffffffff16565b3373ffffffffffffffffffffffffffffffffffffffff168473ffffffffffffffffffffffffffffffffffffffff167f5548c837ab068cf56a2c2479df0882a4922fd203edb7517321831d95078c5f6285604051610e539190612403565b60405180910390a350505050565b60008060009054906101000a900460ff16905090565b610e7f61201d565b6000600260009054906101000a900473ffffffffffffffffffffffffffffffffffffffff1673ffffffffffffffffffffffffffffffffffffffff1663bbe4f6db846040518263ffffffff1660e01b8152600401610edc9190612997565b6080604051808303816000875af1158015610efb573d6000803e3d6000fd5b505050506040513d601f19601f82011682018060405250810190610f1f9190612bce565b90506000600260009054906101000a900473ffffffffffffffffffffffffffffffffffffffff1673ffffffffffffffffffffffffffffffffffffffff1663f2866c78856040518263ffffffff1660e01b8152600401610f7e9190612997565b6020604051808303816000875af1158015610f9d573d6000803e3d6000fd5b505050506040513d601f19601f82011682018060405250810190610fc19190612b29565b90506000826060015143111561113557600082111561102f576000836060015143610fec9190612860565b9050600084602001518261100091906127a6565b9050836005548261101191906127a6565b61101b919061282f565b856040015161102a9190612bfb565b925050505b60004390506000600260009054906101000a900473ffffffffffffffffffffffffffffffffffffffff1673ffffffffffffffffffffffffffffffffffffffff1663695c0bb88885856040518463ffffffff1660e01b815260040161109593929190612c51565b6080604051808303816000875af11580156110b4573d6000803e3d6000fd5b505050506040513d601f19601f820116820180604052508101906110d89190612bce565b90508673ffffffffffffffffffffffffffffffffffffffff167f2f4ae87a584f00dc35b043dd1c5ac839c1f41cd3a66e834d4e13faa6251634e6836040516111209190612403565b60405180910390a28095505050505050611139565b5050505b919050565b600080600260009054906101000a900473ffffffffffffffffffffffffffffffffffffffff1673ffffffffffffffffffffffffffffffffffffffff1663bbe4f6db856040518263ffffffff1660e01b815260040161119c9190612997565b6080604051808303816000875af11580156111bb573d6000803e3d6000fd5b505050506040513d601f19601f820116820180604052508101906111df9190612bce565b90506000600260009054906101000a900473ffffffffffffffffffffffffffffffffffffffff1673ffffffffffffffffffffffffffffffffffffffff166392a576e686866040518363ffffffff1660e01b815260040161124092919061242d565b6000604051808303816000875af115801561125f573d6000803e3d6000fd5b505050506040513d6000823e3d601f19601f82011682018060405250810190611288919061272e565b90506000826040015190506000600260009054906101000a900473ffffffffffffffffffffffffffffffffffffffff1673ffffffffffffffffffffffffffffffffffffffff1663f2866c78886040518263ffffffff1660e01b81526004016112f09190612997565b6020604051808303816000875af115801561130f573d6000803e3d6000fd5b505050506040513d601f19601f820116820180604052508101906113339190612b29565b9050836060015143118015611349575060008114155b1561139f5760008460600151436113609190612860565b9050600085602001518261137491906127a6565b9050826005548261138591906127a6565b61138f919061282f565b8461139a9190612bfb565b935050505b82602001516005548385600001516113b791906127a6565b6113c1919061282f565b6113cb9190612860565b94505050505092915050565b60006001600084815260200190815260200160002060000160008373ffffffffffffffffffffffffffffffffffffffff1673ffffffffffffffffffffffffffffffffffffffff16815260200190815260200160002060009054906101000a900460ff16905092915050565b6000801b81565b7f9f2df0fed2c77648de5860a4cc508cd0818c85b8b8a1ab4ceeef8d981c8956a681565b61147682610677565b6114878161148261186b565b611873565b61149183836119f0565b505050565b6000801b6114ab816114a661186b565b611873565b600047116114ee576040517f08c379a00000000000000000000000000000000000000000000000000000000081526004016114e590612cd4565b60405180910390fd5b60004790503373ffffffffffffffffffffffffffffffffffffffff166108fc829081150290604051600060405180830381858888f19350505050158015611539573d6000803e3d6000fd5b507f43b2a2d6daf661162c8c435ac5820ea5b1e0046355c5faac17d06ecb4f60f153338260405161156b9291906128cb565b60405180910390a15050565b600061158283610e77565b90506000600260009054906101000a900473ffffffffffffffffffffffffffffffffffffffff1673ffffffffffffffffffffffffffffffffffffffff166392a576e685856040518363ffffffff1660e01b81526004016115e392919061242d565b6000604051808303816000875af1158015611602573d6000803e3d6000fd5b505050506040513d6000823e3d601f19601f8201168201806040525081019061162b919061272e565b90506000600260009054906101000a900473ffffffffffffffffffffffffffffffffffffffff1673ffffffffffffffffffffffffffffffffffffffff16630122a7e886866040518363ffffffff1660e01b815260040161168c92919061242d565b6020604051808303816000875af11580156116ab573d6000803e3d6000fd5b505050506040513d601f19601f820116820180604052508101906116cf9190612b29565b905060006005548460400151836116e691906127a6565b6116f0919061282f565b83602001516116ff9190612860565b9050600260009054906101000a900473ffffffffffffffffffffffffffffffffffffffff1673ffffffffffffffffffffffffffffffffffffffff16637bfe950c878785856040518563ffffffff1660e01b81526004016117629493929190612ab7565b600060405180830381600087803b15801561177c57600080fd5b505af1158015611790573d6000803e3d6000fd5b505050508473ffffffffffffffffffffffffffffffffffffffff168673ffffffffffffffffffffffffffffffffffffffff167f9b1bfa7fa9ee420a16e124f794c35ac9f90472acc99140eb2f6447c714cad8eb846040516117f19190612403565b60405180910390a3505050505050565b60007f01ffc9a7000000000000000000000000000000000000000000000000000000007bffffffffffffffffffffffffffffffffffffffffffffffffffffffff1916827bffffffffffffffffffffffffffffffffffffffffffffffffffffffff1916149050919050565b600033905090565b61187d82826113d7565b61190c576118a28173ffffffffffffffffffffffffffffffffffffffff166014611b74565b6118b08360001c6020611b74565b6040516020016118c1929190612e06565b6040516020818303038152906040526040517f08c379a00000000000000000000000000000000000000000000000000000000081526004016119039190612e79565b60405180910390fd5b5050565b61191a82826113d7565b6119ec57600180600084815260200190815260200160002060000160008373ffffffffffffffffffffffffffffffffffffffff1673ffffffffffffffffffffffffffffffffffffffff16815260200190815260200160002060006101000a81548160ff02191690831515021790555061199161186b565b73ffffffffffffffffffffffffffffffffffffffff168173ffffffffffffffffffffffffffffffffffffffff16837f2f8788117e7eff1d82e926ec794901d17c78024a50270940304540a733656f0d60405160405180910390a45b5050565b6119fa82826113d7565b15611ace5760006001600084815260200190815260200160002060000160008373ffffffffffffffffffffffffffffffffffffffff1673ffffffffffffffffffffffffffffffffffffffff16815260200190815260200160002060006101000a81548160ff021916908315150217905550611a7361186b565b73ffffffffffffffffffffffffffffffffffffffff168173ffffffffffffffffffffffffffffffffffffffff16837ff6391f5c32d9c69d2a47ea670b442974b53935d1edc7fd64eb21e047a839171b60405160405180910390a45b5050565b60004360065483611ae39190612bfb565b109050919050565b611b6e846323b872dd60e01b858585604051602401611b0c93929190612894565b604051602081830303815290604052907bffffffffffffffffffffffffffffffffffffffffffffffffffffffff19166020820180517bffffffffffffffffffffffffffffffffffffffffffffffffffffffff8381831617835250505050611db0565b50505050565b606060006002836002611b8791906127a6565b611b919190612bfb565b67ffffffffffffffff811115611baa57611ba961246c565b5b6040519080825280601f01601f191660200182016040528015611bdc5781602001600182028036833780820191505090505b5090507f300000000000000000000000000000000000000000000000000000000000000081600081518110611c1457611c13612e9b565b5b60200101907effffffffffffffffffffffffffffffffffffffffffffffffffffffffffffff1916908160001a9053507f780000000000000000000000000000000000000000000000000000000000000081600181518110611c7857611c77612e9b565b5b60200101907effffffffffffffffffffffffffffffffffffffffffffffffffffffffffffff1916908160001a90535060006001846002611cb891906127a6565b611cc29190612bfb565b90505b6001811115611d62577f3031323334353637383961626364656600000000000000000000000000000000600f861660108110611d0457611d03612e9b565b5b1a60f81b828281518110611d1b57611d1a612e9b565b5b60200101907effffffffffffffffffffffffffffffffffffffffffffffffffffffffffffff1916908160001a905350600485901c945080611d5b90612eca565b9050611cc5565b5060008414611da6576040517f08c379a0000000000000000000000000000000000000000000000000000000008152600401611d9d90612f40565b60405180910390fd5b8091505092915050565b6000611e12826040518060400160405280602081526020017f5361666545524332303a206c6f772d6c6576656c2063616c6c206661696c65648152508573ffffffffffffffffffffffffffffffffffffffff16611e779092919063ffffffff16565b9050600081511115611e725780806020019051810190611e3291906129b2565b611e71576040517f08c379a0000000000000000000000000000000000000000000000000000000008152600401611e6890612fd2565b60405180910390fd5b5b505050565b6060611e868484600085611e8f565b90509392505050565b606082471015611ed4576040517f08c379a0000000000000000000000000000000000000000000000000000000008152600401611ecb90613064565b60405180910390fd5b611edd85611fa3565b611f1c576040517f08c379a0000000000000000000000000000000000000000000000000000000008152600401611f13906130d0565b60405180910390fd5b6000808673ffffffffffffffffffffffffffffffffffffffff168587604051611f459190613137565b60006040518083038185875af1925050503d8060008114611f82576040519150601f19603f3d011682016040523d82523d6000602084013e611f87565b606091505b5091509150611f97828286611fb6565b92505050949350505050565b600080823b905060008111915050919050565b60608315611fc657829050612016565b600083511115611fd95782518084602001fd5b816040517f08c379a000000000000000000000000000000000000000000000000000000000815260040161200d9190612e79565b60405180910390fd5b9392505050565b6040518060800160405280600081526020016000815260200160008152602001600081525090565b6000604051905090565b600080fd5b600080fd5b60007fffffffff0000000000000000000000000000000000000000000000000000000082169050919050565b61208e81612059565b811461209957600080fd5b50565b6000813590506120ab81612085565b92915050565b6000602082840312156120c7576120c661204f565b5b60006120d58482850161209c565b91505092915050565b60008115159050919050565b6120f3816120de565b82525050565b600060208201905061210e60008301846120ea565b92915050565b600073ffffffffffffffffffffffffffffffffffffffff82169050919050565b600061213f82612114565b9050919050565b61214f81612134565b811461215a57600080fd5b50565b60008135905061216c81612146565b92915050565b600080604083850312156121895761218861204f565b5b60006121978582860161215d565b92505060206121a88582860161215d565b9150509250929050565b6000819050919050565b6121c5816121b2565b81146121d057600080fd5b50565b6000813590506121e2816121bc565b92915050565b6000602082840312156121fe576121fd61204f565b5b600061220c848285016121d3565b91505092915050565b61221e816121b2565b82525050565b60006020820190506122396000830184612215565b92915050565b600080604083850312156122565761225561204f565b5b6000612264858286016121d3565b92505060206122758582860161215d565b9150509250929050565b6000819050919050565b6122928161227f565b811461229d57600080fd5b50565b6000813590506122af81612289565b92915050565b600080604083850312156122cc576122cb61204f565b5b60006122da8582860161215d565b92505060206122eb858286016122a0565b9150509250929050565b60008060006060848603121561230e5761230d61204f565b5b600061231c8682870161215d565b935050602061232d868287016122a0565b925050604061233e8682870161215d565b9150509250925092565b60006020828403121561235e5761235d61204f565b5b600061236c8482850161215d565b91505092915050565b61237e8161227f565b82525050565b60808201600082015161239a6000850182612375565b5060208201516123ad6020850182612375565b5060408201516123c06040850182612375565b5060608201516123d36060850182612375565b50505050565b60006080820190506123ee6000830184612384565b92915050565b6123fd8161227f565b82525050565b600060208201905061241860008301846123f4565b92915050565b61242781612134565b82525050565b6000604082019050612442600083018561241e565b61244f602083018461241e565b9392505050565b600080fd5b6000601f19601f8301169050919050565b7f4e487b7100000000000000000000000000000000000000000000000000000000600052604160045260246000fd5b6124a48261245b565b810181811067ffffffffffffffff821117156124c3576124c261246c565b5b80604052505050565b60006124d6612045565b90506124e2828261249b565b919050565b600080fd5b6000815190506124fb81612289565b92915050565b61250a816120de565b811461251557600080fd5b50565b60008151905061252781612501565b92915050565b600080fd5b600067ffffffffffffffff82111561254d5761254c61246c565b5b602082029050602081019050919050565b600080fd5b60006080828403121561257957612578612456565b5b61258360806124cc565b90506000612593848285016124ec565b60008301525060206125a7848285016124ec565b60208301525060406125bb848285016124ec565b60408301525060606125cf84828501612518565b60608301525092915050565b60006125ee6125e984612532565b6124cc565b905080838252602082019050608084028301858111156126115761261061255e565b5b835b8181101561263a57806126268882612563565b845260208401935050608081019050612613565b5050509392505050565b600082601f8301126126595761265861252d565b5b81516126698482602086016125db565b91505092915050565b600060c0828403121561268857612687612456565b5b61269260c06124cc565b905060006126a2848285016124ec565b60008301525060206126b6848285016124ec565b60208301525060406126ca848285016124ec565b60408301525060606126de84828501612518565b60608301525060806126f284828501612518565b60808301525060a082015167ffffffffffffffff811115612716576127156124e7565b5b61272284828501612644565b60a08301525092915050565b6000602082840312156127445761274361204f565b5b600082015167ffffffffffffffff81111561276257612761612054565b5b61276e84828501612672565b91505092915050565b7f4e487b7100000000000000000000000000000000000000000000000000000000600052601160045260246000fd5b60006127b18261227f565b91506127bc8361227f565b9250817fffffffffffffffffffffffffffffffffffffffffffffffffffffffffffffffff04831182151516156127f5576127f4612777565b5b828202905092915050565b7f4e487b7100000000000000000000000000000000000000000000000000000000600052601260045260246000fd5b600061283a8261227f565b91506128458361227f565b92508261285557612854612800565b5b828204905092915050565b600061286b8261227f565b91506128768361227f565b92508282101561288957612888612777565b5b828203905092915050565b60006060820190506128a9600083018661241e565b6128b6602083018561241e565b6128c360408301846123f4565b949350505050565b60006040820190506128e0600083018561241e565b6128ed60208301846123f4565b9392505050565b600082825260208201905092915050565b7f416363657373436f6e74726f6c3a2063616e206f6e6c792072656e6f756e636560008201527f20726f6c657320666f722073656c660000000000000000000000000000000000602082015250565b6000612961602f836128f4565b915061296c82612905565b604082019050919050565b6000602082019050818103600083015261299081612954565b9050919050565b60006020820190506129ac600083018461241e565b92915050565b6000602082840312156129c8576129c761204f565b5b60006129d684828501612518565b91505092915050565b7f506f6f6c20646f6573206e6f7420657869737400000000000000000000000000600082015250565b6000612a156013836128f4565b9150612a20826129df565b602082019050919050565b60006020820190508181036000830152612a4481612a08565b9050919050565b7f4465706f736974206d6f756e742073686f756c64206e6f742062652030000000600082015250565b6000612a81601d836128f4565b9150612a8c82612a4b565b602082019050919050565b60006020820190508181036000830152612ab081612a74565b9050919050565b6000608082019050612acc600083018761241e565b612ad9602083018661241e565b612ae660408301856123f4565b612af360608301846123f4565b95945050505050565b600060808284031215612b1257612b1161204f565b5b6000612b2084828501612563565b91505092915050565b600060208284031215612b3f57612b3e61204f565b5b6000612b4d848285016124ec565b91505092915050565b600060808284031215612b6c57612b6b612456565b5b612b7660806124cc565b90506000612b86848285016124ec565b6000830152506020612b9a848285016124ec565b6020830152506040612bae848285016124ec565b6040830152506060612bc2848285016124ec565b60608301525092915050565b600060808284031215612be457612be361204f565b5b6000612bf284828501612b56565b91505092915050565b6000612c068261227f565b9150612c118361227f565b9250827fffffffffffffffffffffffffffffffffffffffffffffffffffffffffffffffff03821115612c4657612c45612777565b5b828201905092915050565b6000606082019050612c66600083018661241e565b612c7360208301856123f4565b612c8060408301846123f4565b949350505050565b7f6e6f206d6174696320746f207769746864726177000000000000000000000000600082015250565b6000612cbe6014836128f4565b9150612cc982612c88565b602082019050919050565b60006020820190508181036000830152612ced81612cb1565b9050919050565b600081905092915050565b7f416363657373436f6e74726f6c3a206163636f756e7420000000000000000000600082015250565b6000612d35601783612cf4565b9150612d4082612cff565b601782019050919050565b600081519050919050565b60005b83811015612d74578082015181840152602081019050612d59565b83811115612d83576000848401525b50505050565b6000612d9482612d4b565b612d9e8185612cf4565b9350612dae818560208601612d56565b80840191505092915050565b7f206973206d697373696e6720726f6c6520000000000000000000000000000000600082015250565b6000612df0601183612cf4565b9150612dfb82612dba565b601182019050919050565b6000612e1182612d28565b9150612e1d8285612d89565b9150612e2882612de3565b9150612e348284612d89565b91508190509392505050565b6000612e4b82612d4b565b612e5581856128f4565b9350612e65818560208601612d56565b612e6e8161245b565b840191505092915050565b60006020820190508181036000830152612e938184612e40565b905092915050565b7f4e487b7100000000000000000000000000000000000000000000000000000000600052603260045260246000fd5b6000612ed58261227f565b91506000821415612ee957612ee8612777565b5b600182039050919050565b7f537472696e67733a20686578206c656e67746820696e73756666696369656e74600082015250565b6000612f2a6020836128f4565b9150612f3582612ef4565b602082019050919050565b60006020820190508181036000830152612f5981612f1d565b9050919050565b7f5361666545524332303a204552433230206f7065726174696f6e20646964206e60008201527f6f74207375636365656400000000000000000000000000000000000000000000602082015250565b6000612fbc602a836128f4565b9150612fc782612f60565b604082019050919050565b60006020820190508181036000830152612feb81612faf565b9050919050565b7f416464726573733a20696e73756666696369656e742062616c616e636520666f60008201527f722063616c6c0000000000000000000000000000000000000000000000000000602082015250565b600061304e6026836128f4565b915061305982612ff2565b604082019050919050565b6000602082019050818103600083015261307d81613041565b9050919050565b7f416464726573733a2063616c6c20746f206e6f6e2d636f6e7472616374000000600082015250565b60006130ba601d836128f4565b91506130c582613084565b602082019050919050565b600060208201905081810360008301526130e9816130ad565b9050919050565b600081519050919050565b600081905092915050565b6000613111826130f0565b61311b81856130fb565b935061312b818560208601612d56565b80840191505092915050565b60006131438284613106565b91508190509291505056fea26469706673582212202380d3c153f8d5c583d0d6fbb698f9c10caad3fbf56d9d2ca4dc9b4e2eeadfe864736f6c634300080b0033",
  "linkReferences": {},
  "deployedLinkReferences": {}
}