{
  "_format": "hh-sol-artifact-1",
  "contractName": "Vault",
  "sourceName": "contracts/standard/vault/Vault.sol",
  "abi": [
    {
      "inputs": [],
      "stateMutability": "nonpayable",
      "type": "constructor"
    },
    {
      "anonymous": false,
      "inputs": [
        {
          "indexed": false,
          "internalType": "address",
          "name": "user",
          "type": "address"
        },
        {
          "indexed": false,
          "internalType": "address",
          "name": "token",
          "type": "address"
        },
        {
          "indexed": false,
          "internalType": "uint256",
          "name": "amount",
          "type": "uint256"
        }
      ],
      "name": "Deposit",
      "type": "event"
    },
    {
      "anonymous": false,
      "inputs": [
        {
          "indexed": false,
          "internalType": "address",
          "name": "account",
          "type": "address"
        }
      ],
      "name": "Paused",
      "type": "event"
    },
    {
      "anonymous": false,
      "inputs": [
        {
          "indexed": true,
          "internalType": "bytes32",
          "name": "role",
          "type": "bytes32"
        },
        {
          "indexed": true,
          "internalType": "bytes32",
          "name": "previousAdminRole",
          "type": "bytes32"
        },
        {
          "indexed": true,
          "internalType": "bytes32",
          "name": "newAdminRole",
          "type": "bytes32"
        }
      ],
      "name": "RoleAdminChanged",
      "type": "event"
    },
    {
      "anonymous": false,
      "inputs": [
        {
          "indexed": true,
          "internalType": "bytes32",
          "name": "role",
          "type": "bytes32"
        },
        {
          "indexed": true,
          "internalType": "address",
          "name": "account",
          "type": "address"
        },
        {
          "indexed": true,
          "internalType": "address",
          "name": "sender",
          "type": "address"
        }
      ],
      "name": "RoleGranted",
      "type": "event"
    },
    {
      "anonymous": false,
      "inputs": [
        {
          "indexed": true,
          "internalType": "bytes32",
          "name": "role",
          "type": "bytes32"
        },
        {
          "indexed": true,
          "internalType": "address",
          "name": "account",
          "type": "address"
        },
        {
          "indexed": true,
          "internalType": "address",
          "name": "sender",
          "type": "address"
        }
      ],
      "name": "RoleRevoked",
      "type": "event"
    },
    {
      "anonymous": false,
      "inputs": [
        {
          "indexed": false,
          "internalType": "address",
          "name": "account",
          "type": "address"
        }
      ],
      "name": "Unpaused",
      "type": "event"
    },
    {
      "anonymous": false,
      "inputs": [
        {
          "indexed": false,
          "internalType": "address",
          "name": "user",
          "type": "address"
        },
        {
          "indexed": false,
          "internalType": "address",
          "name": "token",
          "type": "address"
        },
        {
          "indexed": false,
          "internalType": "uint256",
          "name": "amount",
          "type": "uint256"
        }
      ],
      "name": "Withdraw",
      "type": "event"
    },
    {
      "anonymous": false,
      "inputs": [
        {
          "indexed": false,
          "internalType": "address",
          "name": "destination",
          "type": "address"
        },
        {
          "indexed": false,
          "internalType": "uint256",
          "name": "amount",
          "type": "uint256"
        }
      ],
      "name": "WithdrawMATIC",
      "type": "event"
    },
    {
      "inputs": [],
      "name": "DEFAULT_ADMIN_ROLE",
      "outputs": [
        {
          "internalType": "bytes32",
          "name": "",
          "type": "bytes32"
        }
      ],
      "stateMutability": "view",
      "type": "function"
    },
    {
      "inputs": [],
      "name": "REWARDS",
      "outputs": [
        {
          "internalType": "bytes32",
          "name": "",
          "type": "bytes32"
        }
      ],
      "stateMutability": "view",
      "type": "function"
    },
    {
      "inputs": [
        {
          "internalType": "address",
          "name": "_token",
          "type": "address"
        },
        {
          "internalType": "uint256",
          "name": "_rewardsPerBlock",
          "type": "uint256"
        }
      ],
      "name": "addPool",
      "outputs": [],
      "stateMutability": "nonpayable",
      "type": "function"
    },
    {
      "inputs": [
        {
          "internalType": "address",
          "name": "_token",
          "type": "address"
        },
        {
          "internalType": "address",
          "name": "_user",
          "type": "address"
        },
        {
          "internalType": "uint256",
          "name": "_amount",
          "type": "uint256"
        }
      ],
      "name": "addStake",
      "outputs": [],
      "stateMutability": "nonpayable",
      "type": "function"
    },
    {
      "inputs": [
        {
          "internalType": "address",
          "name": "_token",
          "type": "address"
        },
        {
          "internalType": "address",
          "name": "_user",
          "type": "address"
        },
        {
          "internalType": "uint256",
          "name": "_amount",
          "type": "uint256"
        },
        {
          "internalType": "uint256",
          "name": "_rewardDebt",
          "type": "uint256"
        }
      ],
      "name": "addUserPosition",
      "outputs": [],
      "stateMutability": "nonpayable",
      "type": "function"
    },
    {
      "inputs": [
        {
          "internalType": "address",
          "name": "_token",
          "type": "address"
        }
      ],
      "name": "checkIfPoolExists",
      "outputs": [
        {
          "internalType": "bool",
          "name": "",
          "type": "bool"
        }
      ],
      "stateMutability": "view",
      "type": "function"
    },
    {
      "inputs": [
        {
          "internalType": "address",
          "name": "_token",
          "type": "address"
        },
        {
          "internalType": "address",
          "name": "_user",
          "type": "address"
        }
      ],
      "name": "checkIfUserPositionExists",
      "outputs": [
        {
          "internalType": "bool",
          "name": "",
          "type": "bool"
        }
      ],
      "stateMutability": "view",
      "type": "function"
    },
    {
      "inputs": [
        {
          "internalType": "address",
          "name": "_token",
          "type": "address"
        },
        {
          "internalType": "address",
          "name": "_user",
          "type": "address"
        }
      ],
      "name": "getLastStake",
      "outputs": [
        {
          "components": [
            {
              "internalType": "uint256",
              "name": "amount",
              "type": "uint256"
            },
            {
              "internalType": "uint256",
              "name": "startBlock",
              "type": "uint256"
            },
            {
              "internalType": "uint256",
              "name": "timeLockEnd",
              "type": "uint256"
            },
            {
              "internalType": "bool",
              "name": "active",
              "type": "bool"
            }
          ],
          "internalType": "struct Vault.Stake",
          "name": "",
          "type": "tuple"
        }
      ],
      "stateMutability": "view",
      "type": "function"
    },
    {
      "inputs": [
        {
          "internalType": "address",
          "name": "_token",
          "type": "address"
        },
        {
          "internalType": "address",
          "name": "_user",
          "type": "address"
        }
      ],
      "name": "getLastStakeKey",
      "outputs": [
        {
          "internalType": "uint256",
          "name": "",
          "type": "uint256"
        }
      ],
      "stateMutability": "view",
      "type": "function"
    },
    {
      "inputs": [
        {
          "internalType": "address",
          "name": "_token",
          "type": "address"
        }
      ],
      "name": "getPool",
      "outputs": [
        {
          "components": [
            {
              "internalType": "uint256",
              "name": "totalPooled",
              "type": "uint256"
            },
            {
              "internalType": "uint256",
              "name": "rewardsPerBlock",
              "type": "uint256"
            },
            {
              "internalType": "uint256",
              "name": "accCaplPerShare",
              "type": "uint256"
            },
            {
              "internalType": "uint256",
              "name": "lastRewardBlock",
              "type": "uint256"
            }
          ],
          "internalType": "struct Vault.Pool",
          "name": "",
          "type": "tuple"
        }
      ],
      "stateMutability": "view",
      "type": "function"
    },
    {
      "inputs": [
        {
          "internalType": "bytes32",
          "name": "role",
          "type": "bytes32"
        }
      ],
      "name": "getRoleAdmin",
      "outputs": [
        {
          "internalType": "bytes32",
          "name": "",
          "type": "bytes32"
        }
      ],
      "stateMutability": "view",
      "type": "function"
    },
    {
      "inputs": [
        {
          "internalType": "address",
          "name": "_token",
          "type": "address"
        }
      ],
      "name": "getTokenSupply",
      "outputs": [
        {
          "internalType": "uint256",
          "name": "",
          "type": "uint256"
        }
      ],
      "stateMutability": "view",
      "type": "function"
    },
    {
      "inputs": [
        {
          "internalType": "address",
          "name": "_token",
          "type": "address"
        },
        {
          "internalType": "address",
          "name": "_user",
          "type": "address"
        }
      ],
      "name": "getUnlockedAmount",
      "outputs": [
        {
          "internalType": "uint256",
          "name": "",
          "type": "uint256"
        }
      ],
      "stateMutability": "nonpayable",
      "type": "function"
    },
    {
      "inputs": [
        {
          "internalType": "address",
          "name": "_token",
          "type": "address"
        },
        {
          "internalType": "address",
          "name": "_user",
          "type": "address"
        }
      ],
      "name": "getUserPosition",
      "outputs": [
        {
          "components": [
            {
              "internalType": "uint256",
              "name": "totalAmount",
              "type": "uint256"
            },
            {
              "internalType": "uint256",
              "name": "rewardDebt",
              "type": "uint256"
            },
            {
              "internalType": "uint256",
              "name": "userLastWithdrawnStakeIndex",
              "type": "uint256"
            },
            {
              "internalType": "bool",
              "name": "staticLock",
              "type": "bool"
            },
            {
              "internalType": "bool",
              "name": "autocompounding",
              "type": "bool"
            },
            {
              "components": [
                {
                  "internalType": "uint256",
                  "name": "amount",
                  "type": "uint256"
                },
                {
                  "internalType": "uint256",
                  "name": "startBlock",
                  "type": "uint256"
                },
                {
                  "internalType": "uint256",
                  "name": "timeLockEnd",
                  "type": "uint256"
                },
                {
                  "internalType": "bool",
                  "name": "active",
                  "type": "bool"
                }
              ],
              "internalType": "struct Vault.Stake[]",
              "name": "stakes",
              "type": "tuple[]"
            }
          ],
          "internalType": "struct Vault.UserPosition",
          "name": "",
          "type": "tuple"
        }
      ],
      "stateMutability": "view",
      "type": "function"
    },
    {
      "inputs": [
        {
          "internalType": "bytes32",
          "name": "role",
          "type": "bytes32"
        },
        {
          "internalType": "address",
          "name": "account",
          "type": "address"
        }
      ],
      "name": "grantRole",
      "outputs": [],
      "stateMutability": "nonpayable",
      "type": "function"
    },
    {
      "inputs": [
        {
          "internalType": "bytes32",
          "name": "role",
          "type": "bytes32"
        },
        {
          "internalType": "address",
          "name": "account",
          "type": "address"
        }
      ],
      "name": "hasRole",
      "outputs": [
        {
          "internalType": "bool",
          "name": "",
          "type": "bool"
        }
      ],
      "stateMutability": "view",
      "type": "function"
    },
    {
      "inputs": [],
      "name": "paused",
      "outputs": [
        {
          "internalType": "bool",
          "name": "",
          "type": "bool"
        }
      ],
      "stateMutability": "view",
      "type": "function"
    },
    {
      "inputs": [
        {
          "internalType": "bytes32",
          "name": "role",
          "type": "bytes32"
        },
        {
          "internalType": "address",
          "name": "account",
          "type": "address"
        }
      ],
      "name": "renounceRole",
      "outputs": [],
      "stateMutability": "nonpayable",
      "type": "function"
    },
    {
      "inputs": [
        {
          "internalType": "bytes32",
          "name": "role",
          "type": "bytes32"
        },
        {
          "internalType": "address",
          "name": "account",
          "type": "address"
        }
      ],
      "name": "revokeRole",
      "outputs": [],
      "stateMutability": "nonpayable",
      "type": "function"
    },
    {
      "inputs": [
        {
          "internalType": "address",
          "name": "_token",
          "type": "address"
        },
        {
          "internalType": "uint256",
          "name": "_accCaplPerShare",
          "type": "uint256"
        },
        {
          "internalType": "uint256",
          "name": "_lastRewardBlock",
          "type": "uint256"
        }
      ],
      "name": "setPool",
      "outputs": [
        {
          "components": [
            {
              "internalType": "uint256",
              "name": "totalPooled",
              "type": "uint256"
            },
            {
              "internalType": "uint256",
              "name": "rewardsPerBlock",
              "type": "uint256"
            },
            {
              "internalType": "uint256",
              "name": "accCaplPerShare",
              "type": "uint256"
            },
            {
              "internalType": "uint256",
              "name": "lastRewardBlock",
              "type": "uint256"
            }
          ],
          "internalType": "struct Vault.Pool",
          "name": "",
          "type": "tuple"
        }
      ],
      "stateMutability": "nonpayable",
      "type": "function"
    },
    {
      "inputs": [
        {
          "internalType": "address",
          "name": "_token",
          "type": "address"
        },
        {
          "internalType": "address",
          "name": "_user",
          "type": "address"
        },
        {
          "internalType": "uint256",
          "name": "_amount",
          "type": "uint256"
        },
        {
          "internalType": "uint256",
          "name": "_stakeId",
          "type": "uint256"
        }
      ],
      "name": "setStake",
      "outputs": [],
      "stateMutability": "nonpayable",
      "type": "function"
    },
    {
      "inputs": [
        {
          "internalType": "address",
          "name": "_token",
          "type": "address"
        },
        {
          "internalType": "address",
          "name": "_user",
          "type": "address"
        },
        {
          "internalType": "uint256",
          "name": "rewardDebt",
          "type": "uint256"
        }
      ],
      "name": "setUserDebt",
      "outputs": [],
      "stateMutability": "nonpayable",
      "type": "function"
    },
    {
      "inputs": [
        {
          "internalType": "address",
          "name": "_token",
          "type": "address"
        },
        {
          "internalType": "address",
          "name": "_user",
          "type": "address"
        },
        {
          "internalType": "uint256",
          "name": "_amount",
          "type": "uint256"
        },
        {
          "internalType": "uint256",
          "name": "_rewardDebt",
          "type": "uint256"
        }
      ],
      "name": "setUserPosition",
      "outputs": [],
      "stateMutability": "nonpayable",
      "type": "function"
    },
    {
      "inputs": [
        {
          "internalType": "bytes4",
          "name": "interfaceId",
          "type": "bytes4"
        }
      ],
      "name": "supportsInterface",
      "outputs": [
        {
          "internalType": "bool",
          "name": "",
          "type": "bool"
        }
      ],
      "stateMutability": "view",
      "type": "function"
    },
    {
      "inputs": [
        {
          "internalType": "address",
          "name": "_token",
          "type": "address"
        },
        {
          "internalType": "uint256",
          "name": "_accCaplPerShare",
          "type": "uint256"
        },
        {
          "internalType": "uint256",
          "name": "_lastRewardBlock",
          "type": "uint256"
        }
      ],
      "name": "updatePool",
      "outputs": [
        {
          "components": [
            {
              "internalType": "uint256",
              "name": "totalPooled",
              "type": "uint256"
            },
            {
              "internalType": "uint256",
              "name": "rewardsPerBlock",
              "type": "uint256"
            },
            {
              "internalType": "uint256",
              "name": "accCaplPerShare",
              "type": "uint256"
            },
            {
              "internalType": "uint256",
              "name": "lastRewardBlock",
              "type": "uint256"
            }
          ],
          "internalType": "struct Vault.Pool",
          "name": "",
          "type": "tuple"
        }
      ],
      "stateMutability": "nonpayable",
      "type": "function"
    },
    {
      "inputs": [
        {
          "internalType": "address",
          "name": "_token",
          "type": "address"
        },
        {
          "internalType": "address",
          "name": "_user",
          "type": "address"
        },
        {
          "internalType": "uint256",
          "name": "_amount",
          "type": "uint256"
        },
        {
          "internalType": "uint256",
          "name": "_newRewardDebt",
          "type": "uint256"
        }
      ],
      "name": "withdraw",
      "outputs": [],
      "stateMutability": "nonpayable",
      "type": "function"
    },
    {
      "inputs": [],
      "name": "withdrawMATIC",
      "outputs": [],
      "stateMutability": "payable",
      "type": "function"
    },
    {
      "inputs": [
        {
          "internalType": "address",
          "name": "_token",
          "type": "address"
        },
        {
          "internalType": "uint256",
          "name": "_amount",
          "type": "uint256"
        },
        {
          "internalType": "address",
          "name": "_destination",
          "type": "address"
        }
      ],
      "name": "withdrawToken",
      "outputs": [],
      "stateMutability": "nonpayable",
      "type": "function"
    }
  ],
  "bytecode": "0x608060405263082bdcb46002553480156200001957600080fd5b506000600160006101000a81548160ff0219169083151502179055506200004a6000801b336200008260201b60201c565b6200007c7f41a998b42530cff8f40cf375b6a586aeb2b2a8285995d3b4fb404116be349d78336200009860201b60201c565b620001fb565b6200009482826200009860201b60201c565b5050565b620000aa82826200018960201b60201c565b6200018557600160008084815260200190815260200160002060000160008373ffffffffffffffffffffffffffffffffffffffff1673ffffffffffffffffffffffffffffffffffffffff16815260200190815260200160002060006101000a81548160ff0219169083151502179055506200012a620001f360201b60201c565b73ffffffffffffffffffffffffffffffffffffffff168173ffffffffffffffffffffffffffffffffffffffff16837f2f8788117e7eff1d82e926ec794901d17c78024a50270940304540a733656f0d60405160405180910390a45b5050565b600080600084815260200190815260200160002060000160008373ffffffffffffffffffffffffffffffffffffffff1673ffffffffffffffffffffffffffffffffffffffff16815260200190815260200160002060009054906101000a900460ff16905092915050565b600033905090565b613c34806200020b6000396000f3fe6080604052600436106101b75760003560e01c806391d14854116100ec578063c0034e0c1161008a578063d99f666811610064578063d99f66681461068a578063dfc2d1ba14610694578063f2866c78146106bd578063f5b5d237146106fa576101b7565b8063c0034e0c1461060d578063d2456a9514610638578063d547741f14610661576101b7565b8063999126d7116100c6578063999126d71461052b578063a217fddf14610568578063b6f867a814610593578063bbe4f6db146105d0576101b7565b806391d148541461047457806392a576e6146104b15780639338b7c9146104ee576101b7565b806336568abe116101595780635c975abb116101335780635c975abb146103ba578063695c0bb8146103e55780637bfe950c146104225780638a5bff6b1461044b576101b7565b806336568abe1461032b5780633ccdbb28146103545780633dff45e91461037d576101b7565b80631b2aa575116101955780631b2aa57514610273578063248a9ca31461029c5780632f2ff15d146102d957806332a9caba14610302576101b7565b80630122a7e8146101bc57806301ffc9a7146101f957806312229f1314610236575b600080fd5b3480156101c857600080fd5b506101e360048036038101906101de9190612a84565b610723565b6040516101f09190612add565b60405180910390f35b34801561020557600080fd5b50610220600480360381019061021b9190612b50565b610999565b60405161022d9190612b98565b60405180910390f35b34801561024257600080fd5b5061025d60048036038101906102589190612a84565b610a13565b60405161026a9190612add565b60405180910390f35b34801561027f57600080fd5b5061029a60048036038101906102959190612bdf565b610adf565b005b3480156102a857600080fd5b506102c360048036038101906102be9190612c7c565b610bd7565b6040516102d09190612cb8565b60405180910390f35b3480156102e557600080fd5b5061030060048036038101906102fb9190612cd3565b610bf6565b005b34801561030e57600080fd5b5061032960048036038101906103249190612d13565b610c1f565b005b34801561033757600080fd5b50610352600480360381019061034d9190612cd3565b610d15565b005b34801561036057600080fd5b5061037b60048036038101906103769190612d53565b610d98565b005b34801561038957600080fd5b506103a4600480360381019061039f9190612da6565b610e5c565b6040516103b19190612e5d565b60405180910390f35b3480156103c657600080fd5b506103cf610fe8565b6040516103dc9190612b98565b60405180910390f35b3480156103f157600080fd5b5061040c60048036038101906104079190612da6565b610fff565b6040516104199190612e5d565b60405180910390f35b34801561042e57600080fd5b5061044960048036038101906104449190612bdf565b611110565b005b34801561045757600080fd5b50610472600480360381019061046d9190612e78565b61147c565b005b34801561048057600080fd5b5061049b60048036038101906104969190612cd3565b611538565b6040516104a89190612b98565b60405180910390f35b3480156104bd57600080fd5b506104d860048036038101906104d39190612a84565b6115a2565b6040516104e59190613067565b60405180910390f35b3480156104fa57600080fd5b5061051560048036038101906105109190612a84565b611758565b60405161052291906130de565b60405180910390f35b34801561053757600080fd5b50610552600480360381019061054d91906130f9565b611a0d565b60405161055f9190612b98565b60405180910390f35b34801561057457600080fd5b5061057d611a5b565b60405161058a9190612cb8565b60405180910390f35b34801561059f57600080fd5b506105ba60048036038101906105b59190612a84565b611a62565b6040516105c79190612b98565b60405180910390f35b3480156105dc57600080fd5b506105f760048036038101906105f291906130f9565b611aee565b6040516106049190612e5d565b60405180910390f35b34801561061957600080fd5b50610622611bb7565b60405161062f9190612cb8565b60405180910390f35b34801561064457600080fd5b5061065f600480360381019061065a9190612bdf565b611bdb565b005b34801561066d57600080fd5b5061068860048036038101906106839190612cd3565b611d2e565b005b610692611d57565b005b3480156106a057600080fd5b506106bb60048036038101906106b69190612e78565b611e38565b005b3480156106c957600080fd5b506106e460048036038101906106df91906130f9565b611f5c565b6040516106f19190612add565b60405180910390f35b34801561070657600080fd5b50610721600480360381019061071c9190612bdf565b611fdf565b005b60007f41a998b42530cff8f40cf375b6a586aeb2b2a8285995d3b4fb404116be349d7861075781610752612193565b61219b565b6000600360008573ffffffffffffffffffffffffffffffffffffffff1673ffffffffffffffffffffffffffffffffffffffff16815260200190815260200160002060008673ffffffffffffffffffffffffffffffffffffffff1673ffffffffffffffffffffffffffffffffffffffff16815260200190815260200160002090506000600360008673ffffffffffffffffffffffffffffffffffffffff1673ffffffffffffffffffffffffffffffffffffffff16815260200190815260200160002060008773ffffffffffffffffffffffffffffffffffffffff1673ffffffffffffffffffffffffffffffffffffffff168152602001908152602001600020600401805480602002602001604051908101604052809291908181526020016000905b828210156108e357838290600052602060002090600402016040518060800160405290816000820154815260200160018201548152602001600282015481526020016003820160009054906101000a900460ff16151515158152505081526020019060010190610878565b5050505090506000815114156108fe57600093505050610992565b60008080846002015490505b8351811015610980574284828151811061092757610926613126565b5b602002602001015160400151111561094157809150610980565b83818151811061095457610953613126565b5b6020026020010151600001518361096b9190613184565b92508080610978906131da565b91505061090a565b50808460020181905550819550505050505b5092915050565b60007f7965db0b000000000000000000000000000000000000000000000000000000007bffffffffffffffffffffffffffffffffffffffffffffffffffffffff1916827bffffffffffffffffffffffffffffffffffffffffffffffffffffffff19161480610a0c5750610a0b82612238565b5b9050919050565b60007f41a998b42530cff8f40cf375b6a586aeb2b2a8285995d3b4fb404116be349d78610a4781610a42612193565b61219b565b6001600360008573ffffffffffffffffffffffffffffffffffffffff1673ffffffffffffffffffffffffffffffffffffffff16815260200190815260200160002060008673ffffffffffffffffffffffffffffffffffffffff1673ffffffffffffffffffffffffffffffffffffffff16815260200190815260200160002060040180549050610ad69190613223565b91505092915050565b7f41a998b42530cff8f40cf375b6a586aeb2b2a8285995d3b4fb404116be349d78610b1181610b0c612193565b61219b565b6000600360008673ffffffffffffffffffffffffffffffffffffffff1673ffffffffffffffffffffffffffffffffffffffff16815260200190815260200160002060008773ffffffffffffffffffffffffffffffffffffffff1673ffffffffffffffffffffffffffffffffffffffff1681526020019081526020016000206004018381548110610ba457610ba3613126565b5b9060005260206000209060040201905083816000016000828254610bc89190613184565b92505081905550505050505050565b6000806000838152602001908152602001600020600101549050919050565b610bff82610bd7565b610c1081610c0b612193565b61219b565b610c1a83836122a2565b505050565b6000801b610c3481610c2f612193565b61219b565b610c3d83611a0d565b15610c7d576040517f08c379a0000000000000000000000000000000000000000000000000000000008152600401610c74906132b4565b60405180910390fd5b60006040518060800160405280600081526020018481526020016000815260200143815250905080600460008673ffffffffffffffffffffffffffffffffffffffff1673ffffffffffffffffffffffffffffffffffffffff1681526020019081526020016000206000820151816000015560208201518160010155604082015181600201556060820151816003015590505050505050565b610d1d612193565b73ffffffffffffffffffffffffffffffffffffffff168173ffffffffffffffffffffffffffffffffffffffff1614610d8a576040517f08c379a0000000000000000000000000000000000000000000000000000000008152600401610d8190613346565b60405180910390fd5b610d948282612382565b5050565b6000801b610dad81610da8612193565b61219b565b6000600460008673ffffffffffffffffffffffffffffffffffffffff1673ffffffffffffffffffffffffffffffffffffffff1681526020019081526020016000209050600084118015610e04575083816000015410155b610e0d57600080fd5b610e3a3084868873ffffffffffffffffffffffffffffffffffffffff16612463909392919063ffffffff16565b83816000016000828254610e4e9190613223565b925050819055505050505050565b610e64612995565b7f41a998b42530cff8f40cf375b6a586aeb2b2a8285995d3b4fb404116be349d78610e9681610e91612193565b61219b565b610e9f85611a0d565b610ede576040517f08c379a0000000000000000000000000000000000000000000000000000000008152600401610ed5906133b2565b60405180910390fd5b83600460008773ffffffffffffffffffffffffffffffffffffffff1673ffffffffffffffffffffffffffffffffffffffff1681526020019081526020016000206002018190555082600460008773ffffffffffffffffffffffffffffffffffffffff1673ffffffffffffffffffffffffffffffffffffffff16815260200190815260200160002060030181905550600460008673ffffffffffffffffffffffffffffffffffffffff1673ffffffffffffffffffffffffffffffffffffffff1681526020019081526020016000206040518060800160405290816000820154815260200160018201548152602001600282015481526020016003820154815250509150509392505050565b6000600160009054906101000a900460ff16905090565b611007612995565b81600460008673ffffffffffffffffffffffffffffffffffffffff1673ffffffffffffffffffffffffffffffffffffffff1681526020019081526020016000206003018190555082600460008673ffffffffffffffffffffffffffffffffffffffff1673ffffffffffffffffffffffffffffffffffffffff16815260200190815260200160002060020181905550600460008573ffffffffffffffffffffffffffffffffffffffff1673ffffffffffffffffffffffffffffffffffffffff16815260200190815260200160002060405180608001604052908160008201548152602001600182015481526020016002820154815260200160038201548152505090509392505050565b611118610fe8565b15611158576040517f08c379a000000000000000000000000000000000000000000000000000000000815260040161114f9061341e565b60405180910390fd5b7f41a998b42530cff8f40cf375b6a586aeb2b2a8285995d3b4fb404116be349d7861118a81611185612193565b61219b565b600083116111cd576040517f08c379a00000000000000000000000000000000000000000000000000000000081526004016111c49061348a565b60405180910390fd5b6000600360008673ffffffffffffffffffffffffffffffffffffffff1673ffffffffffffffffffffffffffffffffffffffff16815260200190815260200160002060008773ffffffffffffffffffffffffffffffffffffffff1673ffffffffffffffffffffffffffffffffffffffff168152602001908152602001600020905083816000015411611293576040517f08c379a000000000000000000000000000000000000000000000000000000000815260040161128a9061351c565b60405180910390fd5b838160000160008282546112a79190613223565b925050819055508281600101819055506000600460008873ffffffffffffffffffffffffffffffffffffffff1673ffffffffffffffffffffffffffffffffffffffff16815260200190815260200160002090508481600001600082825461130e9190613223565b925050819055506000600360008873ffffffffffffffffffffffffffffffffffffffff1673ffffffffffffffffffffffffffffffffffffffff16815260200190815260200160002060008973ffffffffffffffffffffffffffffffffffffffff1673ffffffffffffffffffffffffffffffffffffffff168152602001908152602001600020600401905060005b83600201548111611409578181815481106113b9576113b8613126565b5b9060005260206000209060040201600080820160009055600182016000905560028201600090556003820160006101000a81549060ff021916905550508080611401906131da565b91505061139b565b506114373088888b73ffffffffffffffffffffffffffffffffffffffff16612463909392919063ffffffff16565b7f9b1bfa7fa9ee420a16e124f794c35ac9f90472acc99140eb2f6447c714cad8eb87898860405161146a9392919061354b565b60405180910390a15050505050505050565b7f41a998b42530cff8f40cf375b6a586aeb2b2a8285995d3b4fb404116be349d786114ae816114a9612193565b61219b565b81600360008573ffffffffffffffffffffffffffffffffffffffff1673ffffffffffffffffffffffffffffffffffffffff16815260200190815260200160002060008673ffffffffffffffffffffffffffffffffffffffff1673ffffffffffffffffffffffffffffffffffffffff1681526020019081526020016000206001018190555050505050565b600080600084815260200190815260200160002060000160008373ffffffffffffffffffffffffffffffffffffffff1673ffffffffffffffffffffffffffffffffffffffff16815260200190815260200160002060009054906101000a900460ff16905092915050565b6115aa6129bd565b7f41a998b42530cff8f40cf375b6a586aeb2b2a8285995d3b4fb404116be349d786115dc816115d7612193565b61219b565b600360008473ffffffffffffffffffffffffffffffffffffffff1673ffffffffffffffffffffffffffffffffffffffff16815260200190815260200160002060008573ffffffffffffffffffffffffffffffffffffffff1673ffffffffffffffffffffffffffffffffffffffff1681526020019081526020016000206040518060c00160405290816000820154815260200160018201548152602001600282015481526020016003820160009054906101000a900460ff161515151581526020016003820160019054906101000a900460ff1615151515815260200160048201805480602002602001604051908101604052809291908181526020016000905b8282101561174757838290600052602060002090600402016040518060800160405290816000820154815260200160018201548152602001600282015481526020016003820160009054906101000a900460ff161515151581525050815260200190600101906116dc565b505050508152505091505092915050565b6117606129f7565b7f41a998b42530cff8f40cf375b6a586aeb2b2a8285995d3b4fb404116be349d786117928161178d612193565b61219b565b6000600360008573ffffffffffffffffffffffffffffffffffffffff1673ffffffffffffffffffffffffffffffffffffffff16815260200190815260200160002060008673ffffffffffffffffffffffffffffffffffffffff1673ffffffffffffffffffffffffffffffffffffffff1681526020019081526020016000206040518060c00160405290816000820154815260200160018201548152602001600282015481526020016003820160009054906101000a900460ff161515151581526020016003820160019054906101000a900460ff1615151515815260200160048201805480602002602001604051908101604052809291908181526020016000905b828210156118ff57838290600052602060002090600402016040518060800160405290816000820154815260200160018201548152602001600282015481526020016003820160009054906101000a900460ff16151515158152505081526020019060010190611894565b50505050815250509050600060018260a001515161191d9190613223565b9050600360008673ffffffffffffffffffffffffffffffffffffffff1673ffffffffffffffffffffffffffffffffffffffff16815260200190815260200160002060008773ffffffffffffffffffffffffffffffffffffffff1673ffffffffffffffffffffffffffffffffffffffff16815260200190815260200160002060040181815481106119b0576119af613126565b5b90600052602060002090600402016040518060800160405290816000820154815260200160018201548152602001600282015481526020016003820160009054906101000a900460ff161515151581525050935050505092915050565b600080600460008473ffffffffffffffffffffffffffffffffffffffff1673ffffffffffffffffffffffffffffffffffffffff16815260200190815260200160002060010154119050919050565b6000801b81565b600080600360008473ffffffffffffffffffffffffffffffffffffffff1673ffffffffffffffffffffffffffffffffffffffff16815260200190815260200160002060008573ffffffffffffffffffffffffffffffffffffffff1673ffffffffffffffffffffffffffffffffffffffff1681526020019081526020016000206000015411905092915050565b611af6612995565b611aff82611a0d565b611b3e576040517f08c379a0000000000000000000000000000000000000000000000000000000008152600401611b35906135ce565b60405180910390fd5b600460008373ffffffffffffffffffffffffffffffffffffffff1673ffffffffffffffffffffffffffffffffffffffff1681526020019081526020016000206040518060800160405290816000820154815260200160018201548152602001600282015481526020016003820154815250509050919050565b7f41a998b42530cff8f40cf375b6a586aeb2b2a8285995d3b4fb404116be349d7881565b7f41a998b42530cff8f40cf375b6a586aeb2b2a8285995d3b4fb404116be349d78611c0d81611c08612193565b61219b565b82600360008673ffffffffffffffffffffffffffffffffffffffff1673ffffffffffffffffffffffffffffffffffffffff16815260200190815260200160002060008773ffffffffffffffffffffffffffffffffffffffff1673ffffffffffffffffffffffffffffffffffffffff1681526020019081526020016000206000016000828254611c9c9190613184565b9250508190555081600360008673ffffffffffffffffffffffffffffffffffffffff1673ffffffffffffffffffffffffffffffffffffffff16815260200190815260200160002060008773ffffffffffffffffffffffffffffffffffffffff1673ffffffffffffffffffffffffffffffffffffffff168152602001908152602001600020600101819055505050505050565b611d3782610bd7565b611d4881611d43612193565b61219b565b611d528383612382565b505050565b6000801b611d6c81611d67612193565b61219b565b60004711611daf576040517f08c379a0000000000000000000000000000000000000000000000000000000008152600401611da69061363a565b60405180910390fd5b60004790503373ffffffffffffffffffffffffffffffffffffffff166108fc829081150290604051600060405180830381858888f19350505050158015611dfa573d6000803e3d6000fd5b507f43b2a2d6daf661162c8c435ac5820ea5b1e0046355c5faac17d06ecb4f60f1533382604051611e2c92919061365a565b60405180910390a15050565b6000604051806080016040528083815260200142815260200160025442611e5f9190613184565b8152602001600115158152509050600360008473ffffffffffffffffffffffffffffffffffffffff1673ffffffffffffffffffffffffffffffffffffffff16815260200190815260200160002060008573ffffffffffffffffffffffffffffffffffffffff1673ffffffffffffffffffffffffffffffffffffffff16815260200190815260200160002060040181908060018154018082558091505060019003906000526020600020906004020160009091909190915060008201518160000155602082015181600101556040820151816002015560608201518160030160006101000a81548160ff021916908315150217905550505050505050565b60008173ffffffffffffffffffffffffffffffffffffffff166370a08231306040518263ffffffff1660e01b8152600401611f979190613683565b602060405180830381865afa158015611fb4573d6000803e3d6000fd5b505050506040513d601f19601f82011682018060405250810190611fd891906136b3565b9050919050565b7f41a998b42530cff8f40cf375b6a586aeb2b2a8285995d3b4fb404116be349d786120118161200c612193565b61219b565b60006040518060800160405280858152602001428152602001600254426120389190613184565b81526020016001151581525090506000600360008773ffffffffffffffffffffffffffffffffffffffff1673ffffffffffffffffffffffffffffffffffffffff16815260200190815260200160002060008873ffffffffffffffffffffffffffffffffffffffff1673ffffffffffffffffffffffffffffffffffffffff16815260200190815260200160002090508481600001819055508381600101819055506000816002018190555060008160030160006101000a81548160ff02191690831515021790555060018160030160016101000a81548160ff0219169083151502179055508060040182908060018154018082558091505060019003906000526020600020906004020160009091909190915060008201518160000155602082015181600101556040820151816002015560608201518160030160006101000a81548160ff021916908315150217905550505050505050505050565b600033905090565b6121a58282611538565b612234576121ca8173ffffffffffffffffffffffffffffffffffffffff1660146124ec565b6121d88360001c60206124ec565b6040516020016121e99291906137f2565b6040516020818303038152906040526040517f08c379a000000000000000000000000000000000000000000000000000000000815260040161222b9190613876565b60405180910390fd5b5050565b60007f01ffc9a7000000000000000000000000000000000000000000000000000000007bffffffffffffffffffffffffffffffffffffffffffffffffffffffff1916827bffffffffffffffffffffffffffffffffffffffffffffffffffffffff1916149050919050565b6122ac8282611538565b61237e57600160008084815260200190815260200160002060000160008373ffffffffffffffffffffffffffffffffffffffff1673ffffffffffffffffffffffffffffffffffffffff16815260200190815260200160002060006101000a81548160ff021916908315150217905550612323612193565b73ffffffffffffffffffffffffffffffffffffffff168173ffffffffffffffffffffffffffffffffffffffff16837f2f8788117e7eff1d82e926ec794901d17c78024a50270940304540a733656f0d60405160405180910390a45b5050565b61238c8282611538565b1561245f57600080600084815260200190815260200160002060000160008373ffffffffffffffffffffffffffffffffffffffff1673ffffffffffffffffffffffffffffffffffffffff16815260200190815260200160002060006101000a81548160ff021916908315150217905550612404612193565b73ffffffffffffffffffffffffffffffffffffffff168173ffffffffffffffffffffffffffffffffffffffff16837ff6391f5c32d9c69d2a47ea670b442974b53935d1edc7fd64eb21e047a839171b60405160405180910390a45b5050565b6124e6846323b872dd60e01b8585856040516024016124849392919061354b565b604051602081830303815290604052907bffffffffffffffffffffffffffffffffffffffffffffffffffffffff19166020820180517bffffffffffffffffffffffffffffffffffffffffffffffffffffffff8381831617835250505050612728565b50505050565b6060600060028360026124ff9190613898565b6125099190613184565b67ffffffffffffffff811115612522576125216138f2565b5b6040519080825280601f01601f1916602001820160405280156125545781602001600182028036833780820191505090505b5090507f30000000000000000000000000000000000000000000000000000000000000008160008151811061258c5761258b613126565b5b60200101907effffffffffffffffffffffffffffffffffffffffffffffffffffffffffffff1916908160001a9053507f7800000000000000000000000000000000000000000000000000000000000000816001815181106125f0576125ef613126565b5b60200101907effffffffffffffffffffffffffffffffffffffffffffffffffffffffffffff1916908160001a905350600060018460026126309190613898565b61263a9190613184565b90505b60018111156126da577f3031323334353637383961626364656600000000000000000000000000000000600f86166010811061267c5761267b613126565b5b1a60f81b82828151811061269357612692613126565b5b60200101907effffffffffffffffffffffffffffffffffffffffffffffffffffffffffffff1916908160001a905350600485901c9450806126d390613921565b905061263d565b506000841461271e576040517f08c379a000000000000000000000000000000000000000000000000000000000815260040161271590613997565b60405180910390fd5b8091505092915050565b600061278a826040518060400160405280602081526020017f5361666545524332303a206c6f772d6c6576656c2063616c6c206661696c65648152508573ffffffffffffffffffffffffffffffffffffffff166127ef9092919063ffffffff16565b90506000815111156127ea57808060200190518101906127aa91906139e3565b6127e9576040517f08c379a00000000000000000000000000000000000000000000000000000000081526004016127e090613a82565b60405180910390fd5b5b505050565b60606127fe8484600085612807565b90509392505050565b60608247101561284c576040517f08c379a000000000000000000000000000000000000000000000000000000000815260040161284390613b14565b60405180910390fd5b6128558561291b565b612894576040517f08c379a000000000000000000000000000000000000000000000000000000000815260040161288b90613b80565b60405180910390fd5b6000808673ffffffffffffffffffffffffffffffffffffffff1685876040516128bd9190613be7565b60006040518083038185875af1925050503d80600081146128fa576040519150601f19603f3d011682016040523d82523d6000602084013e6128ff565b606091505b509150915061290f82828661292e565b92505050949350505050565b600080823b905060008111915050919050565b6060831561293e5782905061298e565b6000835111156129515782518084602001fd5b816040517f08c379a00000000000000000000000000000000000000000000000000000000081526004016129859190613876565b60405180910390fd5b9392505050565b6040518060800160405280600081526020016000815260200160008152602001600081525090565b6040518060c00160405280600081526020016000815260200160008152602001600015158152602001600015158152602001606081525090565b60405180608001604052806000815260200160008152602001600081526020016000151581525090565b600080fd5b600073ffffffffffffffffffffffffffffffffffffffff82169050919050565b6000612a5182612a26565b9050919050565b612a6181612a46565b8114612a6c57600080fd5b50565b600081359050612a7e81612a58565b92915050565b60008060408385031215612a9b57612a9a612a21565b5b6000612aa985828601612a6f565b9250506020612aba85828601612a6f565b9150509250929050565b6000819050919050565b612ad781612ac4565b82525050565b6000602082019050612af26000830184612ace565b92915050565b60007fffffffff0000000000000000000000000000000000000000000000000000000082169050919050565b612b2d81612af8565b8114612b3857600080fd5b50565b600081359050612b4a81612b24565b92915050565b600060208284031215612b6657612b65612a21565b5b6000612b7484828501612b3b565b91505092915050565b60008115159050919050565b612b9281612b7d565b82525050565b6000602082019050612bad6000830184612b89565b92915050565b612bbc81612ac4565b8114612bc757600080fd5b50565b600081359050612bd981612bb3565b92915050565b60008060008060808587031215612bf957612bf8612a21565b5b6000612c0787828801612a6f565b9450506020612c1887828801612a6f565b9350506040612c2987828801612bca565b9250506060612c3a87828801612bca565b91505092959194509250565b6000819050919050565b612c5981612c46565b8114612c6457600080fd5b50565b600081359050612c7681612c50565b92915050565b600060208284031215612c9257612c91612a21565b5b6000612ca084828501612c67565b91505092915050565b612cb281612c46565b82525050565b6000602082019050612ccd6000830184612ca9565b92915050565b60008060408385031215612cea57612ce9612a21565b5b6000612cf885828601612c67565b9250506020612d0985828601612a6f565b9150509250929050565b60008060408385031215612d2a57612d29612a21565b5b6000612d3885828601612a6f565b9250506020612d4985828601612bca565b9150509250929050565b600080600060608486031215612d6c57612d6b612a21565b5b6000612d7a86828701612a6f565b9350506020612d8b86828701612bca565b9250506040612d9c86828701612a6f565b9150509250925092565b600080600060608486031215612dbf57612dbe612a21565b5b6000612dcd86828701612a6f565b9350506020612dde86828701612bca565b9250506040612def86828701612bca565b9150509250925092565b612e0281612ac4565b82525050565b608082016000820151612e1e6000850182612df9565b506020820151612e316020850182612df9565b506040820151612e446040850182612df9565b506060820151612e576060850182612df9565b50505050565b6000608082019050612e726000830184612e08565b92915050565b600080600060608486031215612e9157612e90612a21565b5b6000612e9f86828701612a6f565b9350506020612eb086828701612a6f565b9250506040612ec186828701612bca565b9150509250925092565b612ed481612b7d565b82525050565b600081519050919050565b600082825260208201905092915050565b6000819050602082019050919050565b608082016000820151612f1c6000850182612df9565b506020820151612f2f6020850182612df9565b506040820151612f426040850182612df9565b506060820151612f556060850182612ecb565b50505050565b6000612f678383612f06565b60808301905092915050565b6000602082019050919050565b6000612f8b82612eda565b612f958185612ee5565b9350612fa083612ef6565b8060005b83811015612fd1578151612fb88882612f5b565b9750612fc383612f73565b925050600181019050612fa4565b5085935050505092915050565b600060c083016000830151612ff66000860182612df9565b5060208301516130096020860182612df9565b50604083015161301c6040860182612df9565b50606083015161302f6060860182612ecb565b5060808301516130426080860182612ecb565b5060a083015184820360a086015261305a8282612f80565b9150508091505092915050565b600060208201905081810360008301526130818184612fde565b905092915050565b60808201600082015161309f6000850182612df9565b5060208201516130b26020850182612df9565b5060408201516130c56040850182612df9565b5060608201516130d86060850182612ecb565b50505050565b60006080820190506130f36000830184613089565b92915050565b60006020828403121561310f5761310e612a21565b5b600061311d84828501612a6f565b91505092915050565b7f4e487b7100000000000000000000000000000000000000000000000000000000600052603260045260246000fd5b7f4e487b7100000000000000000000000000000000000000000000000000000000600052601160045260246000fd5b600061318f82612ac4565b915061319a83612ac4565b9250827fffffffffffffffffffffffffffffffffffffffffffffffffffffffffffffffff038211156131cf576131ce613155565b5b828201905092915050565b60006131e582612ac4565b91507fffffffffffffffffffffffffffffffffffffffffffffffffffffffffffffffff82141561321857613217613155565b5b600182019050919050565b600061322e82612ac4565b915061323983612ac4565b92508282101561324c5761324b613155565b5b828203905092915050565b600082825260208201905092915050565b7f5468697320706f6f6c20616c7265616479206578697374732e00000000000000600082015250565b600061329e601983613257565b91506132a982613268565b602082019050919050565b600060208201905081810360008301526132cd81613291565b9050919050565b7f416363657373436f6e74726f6c3a2063616e206f6e6c792072656e6f756e636560008201527f20726f6c657320666f722073656c660000000000000000000000000000000000602082015250565b6000613330602f83613257565b915061333b826132d4565b604082019050919050565b6000602082019050818103600083015261335f81613323565b9050919050565b7f506f6f6c20646f6573206e6f7420657869737400000000000000000000000000600082015250565b600061339c601383613257565b91506133a782613366565b602082019050919050565b600060208201905081810360008301526133cb8161338f565b9050919050565b7f5061757361626c653a2070617573656400000000000000000000000000000000600082015250565b6000613408601083613257565b9150613413826133d2565b602082019050919050565b60006020820190508181036000830152613437816133fb565b9050919050565b7f416d6f756e742030000000000000000000000000000000000000000000000000600082015250565b6000613474600883613257565b915061347f8261343e565b602082019050919050565b600060208201905081810360008301526134a381613467565b9050919050565b7f57697468647261776e20616d6f756e742065786365656420746865207573657260008201527f2062616c616e6365000000000000000000000000000000000000000000000000602082015250565b6000613506602883613257565b9150613511826134aa565b604082019050919050565b60006020820190508181036000830152613535816134f9565b9050919050565b61354581612a46565b82525050565b6000606082019050613560600083018661353c565b61356d602083018561353c565b61357a6040830184612ace565b949350505050565b7f54686520706f6f6c20646f6573206e6f74206578697374732e00000000000000600082015250565b60006135b8601983613257565b91506135c382613582565b602082019050919050565b600060208201905081810360008301526135e7816135ab565b9050919050565b7f6e6f206d6174696320746f207769746864726177000000000000000000000000600082015250565b6000613624601483613257565b915061362f826135ee565b602082019050919050565b6000602082019050818103600083015261365381613617565b9050919050565b600060408201905061366f600083018561353c565b61367c6020830184612ace565b9392505050565b6000602082019050613698600083018461353c565b92915050565b6000815190506136ad81612bb3565b92915050565b6000602082840312156136c9576136c8612a21565b5b60006136d78482850161369e565b91505092915050565b600081905092915050565b7f416363657373436f6e74726f6c3a206163636f756e7420000000000000000000600082015250565b60006137216017836136e0565b915061372c826136eb565b601782019050919050565b600081519050919050565b60005b83811015613760578082015181840152602081019050613745565b8381111561376f576000848401525b50505050565b600061378082613737565b61378a81856136e0565b935061379a818560208601613742565b80840191505092915050565b7f206973206d697373696e6720726f6c6520000000000000000000000000000000600082015250565b60006137dc6011836136e0565b91506137e7826137a6565b601182019050919050565b60006137fd82613714565b91506138098285613775565b9150613814826137cf565b91506138208284613775565b91508190509392505050565b6000601f19601f8301169050919050565b600061384882613737565b6138528185613257565b9350613862818560208601613742565b61386b8161382c565b840191505092915050565b60006020820190508181036000830152613890818461383d565b905092915050565b60006138a382612ac4565b91506138ae83612ac4565b9250817fffffffffffffffffffffffffffffffffffffffffffffffffffffffffffffffff04831182151516156138e7576138e6613155565b5b828202905092915050565b7f4e487b7100000000000000000000000000000000000000000000000000000000600052604160045260246000fd5b600061392c82612ac4565b915060008214156139405761393f613155565b5b600182039050919050565b7f537472696e67733a20686578206c656e67746820696e73756666696369656e74600082015250565b6000613981602083613257565b915061398c8261394b565b602082019050919050565b600060208201905081810360008301526139b081613974565b9050919050565b6139c081612b7d565b81146139cb57600080fd5b50565b6000815190506139dd816139b7565b92915050565b6000602082840312156139f9576139f8612a21565b5b6000613a07848285016139ce565b91505092915050565b7f5361666545524332303a204552433230206f7065726174696f6e20646964206e60008201527f6f74207375636365656400000000000000000000000000000000000000000000602082015250565b6000613a6c602a83613257565b9150613a7782613a10565b604082019050919050565b60006020820190508181036000830152613a9b81613a5f565b9050919050565b7f416464726573733a20696e73756666696369656e742062616c616e636520666f60008201527f722063616c6c0000000000000000000000000000000000000000000000000000602082015250565b6000613afe602683613257565b9150613b0982613aa2565b604082019050919050565b60006020820190508181036000830152613b2d81613af1565b9050919050565b7f416464726573733a2063616c6c20746f206e6f6e2d636f6e7472616374000000600082015250565b6000613b6a601d83613257565b9150613b7582613b34565b602082019050919050565b60006020820190508181036000830152613b9981613b5d565b9050919050565b600081519050919050565b600081905092915050565b6000613bc182613ba0565b613bcb8185613bab565b9350613bdb818560208601613742565b80840191505092915050565b6000613bf38284613bb6565b91508190509291505056fea26469706673582212205d1add6a03363f9ebe63d44fd98cdf2e8d0ae305f92f4eba961bb7a9f024c29164736f6c634300080b0033",
  "linkReferences": {},
  "deployedLinkReferences": {}
}