{
  "_format": "hh-sol-artifact-1",
  "contractName": "RevenueController",
  "sourceName": "contracts/treasury/RevenueController.sol",
  "abi": [
    {
      "inputs": [
        {
          "internalType": "address",
          "name": "_capl",
          "type": "address"
        },
        {
          "internalType": "address",
          "name": "_treasuryStorage",
          "type": "address"
        }
      ],
      "stateMutability": "nonpayable",
      "type": "constructor"
    },
    {
      "anonymous": false,
      "inputs": [
        {
          "indexed": true,
          "internalType": "bytes32",
          "name": "role",
          "type": "bytes32"
        },
        {
          "indexed": true,
          "internalType": "bytes32",
          "name": "previousAdminRole",
          "type": "bytes32"
        },
        {
          "indexed": true,
          "internalType": "bytes32",
          "name": "newAdminRole",
          "type": "bytes32"
        }
      ],
      "name": "RoleAdminChanged",
      "type": "event"
    },
    {
      "anonymous": false,
      "inputs": [
        {
          "indexed": true,
          "internalType": "bytes32",
          "name": "role",
          "type": "bytes32"
        },
        {
          "indexed": true,
          "internalType": "address",
          "name": "account",
          "type": "address"
        },
        {
          "indexed": true,
          "internalType": "address",
          "name": "sender",
          "type": "address"
        }
      ],
      "name": "RoleGranted",
      "type": "event"
    },
    {
      "anonymous": false,
      "inputs": [
        {
          "indexed": true,
          "internalType": "bytes32",
          "name": "role",
          "type": "bytes32"
        },
        {
          "indexed": true,
          "internalType": "address",
          "name": "account",
          "type": "address"
        },
        {
          "indexed": true,
          "internalType": "address",
          "name": "sender",
          "type": "address"
        }
      ],
      "name": "RoleRevoked",
      "type": "event"
    },
    {
      "inputs": [],
      "name": "DEFAULT_ADMIN_ROLE",
      "outputs": [
        {
          "internalType": "bytes32",
          "name": "",
          "type": "bytes32"
        }
      ],
      "stateMutability": "view",
      "type": "function"
    },
    {
      "inputs": [
        {
          "internalType": "address",
          "name": "_token",
          "type": "address"
        }
      ],
      "name": "distributeTokenAlloc",
      "outputs": [],
      "stateMutability": "nonpayable",
      "type": "function"
    },
    {
      "inputs": [
        {
          "internalType": "bytes32",
          "name": "role",
          "type": "bytes32"
        }
      ],
      "name": "getRoleAdmin",
      "outputs": [
        {
          "internalType": "bytes32",
          "name": "",
          "type": "bytes32"
        }
      ],
      "stateMutability": "view",
      "type": "function"
    },
    {
      "inputs": [
        {
          "internalType": "address",
          "name": "_token",
          "type": "address"
        }
      ],
      "name": "getTokenAlloc",
      "outputs": [
        {
          "internalType": "uint256",
          "name": "",
          "type": "uint256"
        }
      ],
      "stateMutability": "view",
      "type": "function"
    },
    {
      "inputs": [],
      "name": "getTotalManagedValue",
      "outputs": [
        {
          "internalType": "uint256",
          "name": "totalManagedValue",
          "type": "uint256"
        }
      ],
      "stateMutability": "nonpayable",
      "type": "function"
    },
    {
      "inputs": [
        {
          "internalType": "bytes32",
          "name": "role",
          "type": "bytes32"
        },
        {
          "internalType": "address",
          "name": "account",
          "type": "address"
        }
      ],
      "name": "grantRole",
      "outputs": [],
      "stateMutability": "nonpayable",
      "type": "function"
    },
    {
      "inputs": [
        {
          "internalType": "bytes32",
          "name": "role",
          "type": "bytes32"
        },
        {
          "internalType": "address",
          "name": "account",
          "type": "address"
        }
      ],
      "name": "hasRole",
      "outputs": [
        {
          "internalType": "bool",
          "name": "",
          "type": "bool"
        }
      ],
      "stateMutability": "view",
      "type": "function"
    },
    {
      "inputs": [
        {
          "internalType": "bytes32",
          "name": "role",
          "type": "bytes32"
        },
        {
          "internalType": "address",
          "name": "account",
          "type": "address"
        }
      ],
      "name": "renounceRole",
      "outputs": [],
      "stateMutability": "nonpayable",
      "type": "function"
    },
    {
      "inputs": [
        {
          "internalType": "bytes32",
          "name": "role",
          "type": "bytes32"
        },
        {
          "internalType": "address",
          "name": "account",
          "type": "address"
        }
      ],
      "name": "revokeRole",
      "outputs": [],
      "stateMutability": "nonpayable",
      "type": "function"
    },
    {
      "inputs": [
        {
          "internalType": "address",
          "name": "_destination",
          "type": "address"
        }
      ],
      "name": "setTreasuryStorage",
      "outputs": [],
      "stateMutability": "nonpayable",
      "type": "function"
    },
    {
      "inputs": [
        {
          "internalType": "bytes4",
          "name": "interfaceId",
          "type": "bytes4"
        }
      ],
      "name": "supportsInterface",
      "outputs": [
        {
          "internalType": "bool",
          "name": "",
          "type": "bool"
        }
      ],
      "stateMutability": "view",
      "type": "function"
    },
    {
      "inputs": [
        {
          "internalType": "address",
          "name": "_token",
          "type": "address"
        },
        {
          "internalType": "uint256",
          "name": "_principal",
          "type": "uint256"
        },
        {
          "internalType": "uint256",
          "name": "_profit",
          "type": "uint256"
        }
      ],
      "name": "treasuryIncome",
      "outputs": [],
      "stateMutability": "nonpayable",
      "type": "function"
    }
  ],
  "bytecode": "0x60806040526138406004553480156200001757600080fd5b50604051620021a6380380620021a683398181016040528101906200003d919062000131565b81600160006101000a81548173ffffffffffffffffffffffffffffffffffffffff021916908373ffffffffffffffffffffffffffffffffffffffff16021790555080600260006101000a81548173ffffffffffffffffffffffffffffffffffffffff021916908373ffffffffffffffffffffffffffffffffffffffff160217905550505062000178565b600080fd5b600073ffffffffffffffffffffffffffffffffffffffff82169050919050565b6000620000f982620000cc565b9050919050565b6200010b81620000ec565b81146200011757600080fd5b50565b6000815190506200012b8162000100565b92915050565b600080604083850312156200014b576200014a620000c7565b5b60006200015b858286016200011a565b92505060206200016e858286016200011a565b9150509250929050565b61201e80620001886000396000f3fe608060405234801561001057600080fd5b50600436106100b45760003560e01c80638b467cd2116100715780638b467cd21461019d57806391d14854146101b95780639b3f6e18146101e9578063a217fddf14610207578063aec5341514610225578063d547741f14610241576100b4565b806301ffc9a7146100b9578063248a9ca3146100e95780632f2ff15d1461011957806336568abe1461013557806342c0c08514610151578063542e884314610181575b600080fd5b6100d360048036038101906100ce919061138f565b61025d565b6040516100e091906113d7565b60405180910390f35b61010360048036038101906100fe9190611428565b6102d7565b6040516101109190611464565b60405180910390f35b610133600480360381019061012e91906114dd565b6102f6565b005b61014f600480360381019061014a91906114dd565b61031f565b005b61016b6004803603810190610166919061151d565b6103a2565b6040516101789190611563565b60405180910390f35b61019b600480360381019061019691906115aa565b610512565b005b6101b760048036038101906101b2919061151d565b610617565b005b6101d360048036038101906101ce91906114dd565b610671565b6040516101e091906113d7565b60405180910390f35b6101f16106db565b6040516101fe9190611563565b60405180910390f35b61020f6107ec565b60405161021c9190611464565b60405180910390f35b61023f600480360381019061023a919061151d565b6107f3565b005b61025b600480360381019061025691906114dd565b610a77565b005b60007f7965db0b000000000000000000000000000000000000000000000000000000007bffffffffffffffffffffffffffffffffffffffffffffffffffffffff1916827bffffffffffffffffffffffffffffffffffffffffffffffffffffffff191614806102d057506102cf82610aa0565b5b9050919050565b6000806000838152602001908152602001600020600101549050919050565b6102ff826102d7565b6103108161030b610b0a565b610b12565b61031a8383610baf565b505050565b610327610b0a565b73ffffffffffffffffffffffffffffffffffffffff168173ffffffffffffffffffffffffffffffffffffffff1614610394576040517f08c379a000000000000000000000000000000000000000000000000000000000815260040161038b90611680565b60405180910390fd5b61039e8282610c8f565b5050565b6000808273ffffffffffffffffffffffffffffffffffffffff166370a08231306040518263ffffffff1660e01b81526004016103de91906116af565b602060405180830381865afa1580156103fb573d6000803e3d6000fd5b505050506040513d601f19601f8201168201806040525081019061041f91906116df565b90506000600260009054906101000a900473ffffffffffffffffffffffffffffffffffffffff1673ffffffffffffffffffffffffffffffffffffffff166392a576e685336040518363ffffffff1660e01b815260040161048092919061170c565b608060405180830381865afa15801561049d573d6000803e3d6000fd5b505050506040513d601f19601f820116820180604052508101906104c1919061183e565b90506000601e6004546104d4919061189a565b836104df9190611923565b905060008260600151436104f39190611954565b905060008183610503919061189a565b90508095505050505050919050565b600260009054906101000a900473ffffffffffffffffffffffffffffffffffffffff1673ffffffffffffffffffffffffffffffffffffffff16633e0a56183385856040518463ffffffff1660e01b815260040161057193929190611988565b600060405180830381600087803b15801561058b57600080fd5b505af115801561059f573d6000803e3d6000fd5b505050506105ce30828573ffffffffffffffffffffffffffffffffffffffff16610d709092919063ffffffff16565b43600560008573ffffffffffffffffffffffffffffffffffffffff1673ffffffffffffffffffffffffffffffffffffffff16815260200190815260200160002081905550505050565b6000801b61062c81610627610b0a565b610b12565b81600260006101000a81548173ffffffffffffffffffffffffffffffffffffffff021916908373ffffffffffffffffffffffffffffffffffffffff1602179055505050565b600080600084815260200190815260200160002060000160008373ffffffffffffffffffffffffffffffffffffffff1673ffffffffffffffffffffffffffffffffffffffff16815260200190815260200160002060009054906101000a900460ff16905092915050565b6000805b6003805490508110156107e857600260009054906101000a900473ffffffffffffffffffffffffffffffffffffffff1673ffffffffffffffffffffffffffffffffffffffff1663f2866c786003838154811061073e5761073d6119bf565b5b9060005260206000200160009054906101000a900473ffffffffffffffffffffffffffffffffffffffff166040518263ffffffff1660e01b815260040161078591906116af565b6020604051808303816000875af11580156107a4573d6000803e3d6000fd5b505050506040513d601f19601f820116820180604052508101906107c891906116df565b826107d391906119ee565b915080806107e090611a44565b9150506106df565b5090565b6000801b81565b60003073ffffffffffffffffffffffffffffffffffffffff166342c0c085836040518263ffffffff1660e01b815260040161082e91906116af565b602060405180830381865afa15801561084b573d6000803e3d6000fd5b505050506040513d601f19601f8201168201806040525081019061086f91906116df565b9050600260009054906101000a900473ffffffffffffffffffffffffffffffffffffffff1673ffffffffffffffffffffffffffffffffffffffff1663d2456a95833384436040518563ffffffff1660e01b81526004016108d29493929190611a8d565b600060405180830381600087803b1580156108ec57600080fd5b505af1158015610900573d6000803e3d6000fd5b50505050600260009054906101000a900473ffffffffffffffffffffffffffffffffffffffff1673ffffffffffffffffffffffffffffffffffffffff16638ed7333d83836040518363ffffffff1660e01b8152600401610961929190611ad2565b6020604051808303816000875af1158015610980573d6000803e3d6000fd5b505050506040513d601f19601f820116820180604052508101906109a49190611b37565b508173ffffffffffffffffffffffffffffffffffffffff1663095ea7b330836040518363ffffffff1660e01b81526004016109e0929190611ad2565b6020604051808303816000875af11580156109ff573d6000803e3d6000fd5b505050506040513d601f19601f82011682018060405250810190610a239190611b90565b50610a7330600260009054906101000a900473ffffffffffffffffffffffffffffffffffffffff16838573ffffffffffffffffffffffffffffffffffffffff16610df6909392919063ffffffff16565b5050565b610a80826102d7565b610a9181610a8c610b0a565b610b12565b610a9b8383610c8f565b505050565b60007f01ffc9a7000000000000000000000000000000000000000000000000000000007bffffffffffffffffffffffffffffffffffffffffffffffffffffffff1916827bffffffffffffffffffffffffffffffffffffffffffffffffffffffff1916149050919050565b600033905090565b610b1c8282610671565b610bab57610b418173ffffffffffffffffffffffffffffffffffffffff166014610e7f565b610b4f8360001c6020610e7f565b604051602001610b60929190611ccf565b6040516020818303038152906040526040517f08c379a0000000000000000000000000000000000000000000000000000000008152600401610ba29190611d42565b60405180910390fd5b5050565b610bb98282610671565b610c8b57600160008084815260200190815260200160002060000160008373ffffffffffffffffffffffffffffffffffffffff1673ffffffffffffffffffffffffffffffffffffffff16815260200190815260200160002060006101000a81548160ff021916908315150217905550610c30610b0a565b73ffffffffffffffffffffffffffffffffffffffff168173ffffffffffffffffffffffffffffffffffffffff16837f2f8788117e7eff1d82e926ec794901d17c78024a50270940304540a733656f0d60405160405180910390a45b5050565b610c998282610671565b15610d6c57600080600084815260200190815260200160002060000160008373ffffffffffffffffffffffffffffffffffffffff1673ffffffffffffffffffffffffffffffffffffffff16815260200190815260200160002060006101000a81548160ff021916908315150217905550610d11610b0a565b73ffffffffffffffffffffffffffffffffffffffff168173ffffffffffffffffffffffffffffffffffffffff16837ff6391f5c32d9c69d2a47ea670b442974b53935d1edc7fd64eb21e047a839171b60405160405180910390a45b5050565b610df18363a9059cbb60e01b8484604051602401610d8f929190611ad2565b604051602081830303815290604052907bffffffffffffffffffffffffffffffffffffffffffffffffffffffff19166020820180517bffffffffffffffffffffffffffffffffffffffffffffffffffffffff83818316178352505050506110bb565b505050565b610e79846323b872dd60e01b858585604051602401610e1793929190611988565b604051602081830303815290604052907bffffffffffffffffffffffffffffffffffffffffffffffffffffffff19166020820180517bffffffffffffffffffffffffffffffffffffffffffffffffffffffff83818316178352505050506110bb565b50505050565b606060006002836002610e92919061189a565b610e9c91906119ee565b67ffffffffffffffff811115610eb557610eb461174b565b5b6040519080825280601f01601f191660200182016040528015610ee75781602001600182028036833780820191505090505b5090507f300000000000000000000000000000000000000000000000000000000000000081600081518110610f1f57610f1e6119bf565b5b60200101907effffffffffffffffffffffffffffffffffffffffffffffffffffffffffffff1916908160001a9053507f780000000000000000000000000000000000000000000000000000000000000081600181518110610f8357610f826119bf565b5b60200101907effffffffffffffffffffffffffffffffffffffffffffffffffffffffffffff1916908160001a90535060006001846002610fc3919061189a565b610fcd91906119ee565b90505b600181111561106d577f3031323334353637383961626364656600000000000000000000000000000000600f86166010811061100f5761100e6119bf565b5b1a60f81b828281518110611026576110256119bf565b5b60200101907effffffffffffffffffffffffffffffffffffffffffffffffffffffffffffff1916908160001a905350600485901c94508061106690611d64565b9050610fd0565b50600084146110b1576040517f08c379a00000000000000000000000000000000000000000000000000000000081526004016110a890611dda565b60405180910390fd5b8091505092915050565b600061111d826040518060400160405280602081526020017f5361666545524332303a206c6f772d6c6576656c2063616c6c206661696c65648152508573ffffffffffffffffffffffffffffffffffffffff166111829092919063ffffffff16565b905060008151111561117d578080602001905181019061113d9190611b90565b61117c576040517f08c379a000000000000000000000000000000000000000000000000000000000815260040161117390611e6c565b60405180910390fd5b5b505050565b6060611191848460008561119a565b90509392505050565b6060824710156111df576040517f08c379a00000000000000000000000000000000000000000000000000000000081526004016111d690611efe565b60405180910390fd5b6111e8856112ae565b611227576040517f08c379a000000000000000000000000000000000000000000000000000000000815260040161121e90611f6a565b60405180910390fd5b6000808673ffffffffffffffffffffffffffffffffffffffff1685876040516112509190611fd1565b60006040518083038185875af1925050503d806000811461128d576040519150601f19603f3d011682016040523d82523d6000602084013e611292565b606091505b50915091506112a28282866112c1565b92505050949350505050565b600080823b905060008111915050919050565b606083156112d157829050611321565b6000835111156112e45782518084602001fd5b816040517f08c379a00000000000000000000000000000000000000000000000000000000081526004016113189190611d42565b60405180910390fd5b9392505050565b6000604051905090565b600080fd5b60007fffffffff0000000000000000000000000000000000000000000000000000000082169050919050565b61136c81611337565b811461137757600080fd5b50565b60008135905061138981611363565b92915050565b6000602082840312156113a5576113a4611332565b5b60006113b38482850161137a565b91505092915050565b60008115159050919050565b6113d1816113bc565b82525050565b60006020820190506113ec60008301846113c8565b92915050565b6000819050919050565b611405816113f2565b811461141057600080fd5b50565b600081359050611422816113fc565b92915050565b60006020828403121561143e5761143d611332565b5b600061144c84828501611413565b91505092915050565b61145e816113f2565b82525050565b60006020820190506114796000830184611455565b92915050565b600073ffffffffffffffffffffffffffffffffffffffff82169050919050565b60006114aa8261147f565b9050919050565b6114ba8161149f565b81146114c557600080fd5b50565b6000813590506114d7816114b1565b92915050565b600080604083850312156114f4576114f3611332565b5b600061150285828601611413565b9250506020611513858286016114c8565b9150509250929050565b60006020828403121561153357611532611332565b5b6000611541848285016114c8565b91505092915050565b6000819050919050565b61155d8161154a565b82525050565b60006020820190506115786000830184611554565b92915050565b6115878161154a565b811461159257600080fd5b50565b6000813590506115a48161157e565b92915050565b6000806000606084860312156115c3576115c2611332565b5b60006115d1868287016114c8565b93505060206115e286828701611595565b92505060406115f386828701611595565b9150509250925092565b600082825260208201905092915050565b7f416363657373436f6e74726f6c3a2063616e206f6e6c792072656e6f756e636560008201527f20726f6c657320666f722073656c660000000000000000000000000000000000602082015250565b600061166a602f836115fd565b91506116758261160e565b604082019050919050565b600060208201905081810360008301526116998161165d565b9050919050565b6116a98161149f565b82525050565b60006020820190506116c460008301846116a0565b92915050565b6000815190506116d98161157e565b92915050565b6000602082840312156116f5576116f4611332565b5b6000611703848285016116ca565b91505092915050565b600060408201905061172160008301856116a0565b61172e60208301846116a0565b9392505050565b600080fd5b6000601f19601f8301169050919050565b7f4e487b7100000000000000000000000000000000000000000000000000000000600052604160045260246000fd5b6117838261173a565b810181811067ffffffffffffffff821117156117a2576117a161174b565b5b80604052505050565b60006117b5611328565b90506117c1828261177a565b919050565b6000608082840312156117dc576117db611735565b5b6117e660806117ab565b905060006117f6848285016116ca565b600083015250602061180a848285016116ca565b602083015250604061181e848285016116ca565b6040830152506060611832848285016116ca565b60608301525092915050565b60006080828403121561185457611853611332565b5b6000611862848285016117c6565b91505092915050565b7f4e487b7100000000000000000000000000000000000000000000000000000000600052601160045260246000fd5b60006118a58261154a565b91506118b08361154a565b9250817fffffffffffffffffffffffffffffffffffffffffffffffffffffffffffffffff04831182151516156118e9576118e861186b565b5b828202905092915050565b7f4e487b7100000000000000000000000000000000000000000000000000000000600052601260045260246000fd5b600061192e8261154a565b91506119398361154a565b925082611949576119486118f4565b5b828204905092915050565b600061195f8261154a565b915061196a8361154a565b92508282101561197d5761197c61186b565b5b828203905092915050565b600060608201905061199d60008301866116a0565b6119aa60208301856116a0565b6119b76040830184611554565b949350505050565b7f4e487b7100000000000000000000000000000000000000000000000000000000600052603260045260246000fd5b60006119f98261154a565b9150611a048361154a565b9250827fffffffffffffffffffffffffffffffffffffffffffffffffffffffffffffffff03821115611a3957611a3861186b565b5b828201905092915050565b6000611a4f8261154a565b91507fffffffffffffffffffffffffffffffffffffffffffffffffffffffffffffffff821415611a8257611a8161186b565b5b600182019050919050565b6000608082019050611aa260008301876116a0565b611aaf60208301866116a0565b611abc6040830185611554565b611ac96060830184611554565b95945050505050565b6000604082019050611ae760008301856116a0565b611af46020830184611554565b9392505050565b600060208284031215611b1157611b10611735565b5b611b1b60206117ab565b90506000611b2b848285016116ca565b60008301525092915050565b600060208284031215611b4d57611b4c611332565b5b6000611b5b84828501611afb565b91505092915050565b611b6d816113bc565b8114611b7857600080fd5b50565b600081519050611b8a81611b64565b92915050565b600060208284031215611ba657611ba5611332565b5b6000611bb484828501611b7b565b91505092915050565b600081905092915050565b7f416363657373436f6e74726f6c3a206163636f756e7420000000000000000000600082015250565b6000611bfe601783611bbd565b9150611c0982611bc8565b601782019050919050565b600081519050919050565b60005b83811015611c3d578082015181840152602081019050611c22565b83811115611c4c576000848401525b50505050565b6000611c5d82611c14565b611c678185611bbd565b9350611c77818560208601611c1f565b80840191505092915050565b7f206973206d697373696e6720726f6c6520000000000000000000000000000000600082015250565b6000611cb9601183611bbd565b9150611cc482611c83565b601182019050919050565b6000611cda82611bf1565b9150611ce68285611c52565b9150611cf182611cac565b9150611cfd8284611c52565b91508190509392505050565b6000611d1482611c14565b611d1e81856115fd565b9350611d2e818560208601611c1f565b611d378161173a565b840191505092915050565b60006020820190508181036000830152611d5c8184611d09565b905092915050565b6000611d6f8261154a565b91506000821415611d8357611d8261186b565b5b600182039050919050565b7f537472696e67733a20686578206c656e67746820696e73756666696369656e74600082015250565b6000611dc46020836115fd565b9150611dcf82611d8e565b602082019050919050565b60006020820190508181036000830152611df381611db7565b9050919050565b7f5361666545524332303a204552433230206f7065726174696f6e20646964206e60008201527f6f74207375636365656400000000000000000000000000000000000000000000602082015250565b6000611e56602a836115fd565b9150611e6182611dfa565b604082019050919050565b60006020820190508181036000830152611e8581611e49565b9050919050565b7f416464726573733a20696e73756666696369656e742062616c616e636520666f60008201527f722063616c6c0000000000000000000000000000000000000000000000000000602082015250565b6000611ee86026836115fd565b9150611ef382611e8c565b604082019050919050565b60006020820190508181036000830152611f1781611edb565b9050919050565b7f416464726573733a2063616c6c20746f206e6f6e2d636f6e7472616374000000600082015250565b6000611f54601d836115fd565b9150611f5f82611f1e565b602082019050919050565b60006020820190508181036000830152611f8381611f47565b9050919050565b600081519050919050565b600081905092915050565b6000611fab82611f8a565b611fb58185611f95565b9350611fc5818560208601611c1f565b80840191505092915050565b6000611fdd8284611fa0565b91508190509291505056fea26469706673582212207394b41a050dea85f9bc198aa5fe9d3a5db32eeb0e173c7251d498cf0c1d435364736f6c634300080b0033",
  "linkReferences": {},
  "deployedLinkReferences": {}
}