{
  "_format": "hh-sol-artifact-1",
  "contractName": "RevenueController",
  "sourceName": "contracts/treasury/RevenueController.sol",
  "abi": [
    {
      "inputs": [
        {
          "internalType": "address",
          "name": "_capl",
          "type": "address"
        },
        {
          "internalType": "address",
          "name": "_treasuryStorage",
          "type": "address"
        }
      ],
      "stateMutability": "nonpayable",
      "type": "constructor"
    },
    {
      "anonymous": false,
      "inputs": [
        {
          "indexed": true,
          "internalType": "address",
          "name": "_token",
          "type": "address"
        },
        {
          "indexed": false,
          "internalType": "address",
          "name": "_user",
          "type": "address"
        },
        {
          "indexed": false,
          "internalType": "uint256",
          "name": "_amount",
          "type": "uint256"
        }
      ],
      "name": "Deposit",
      "type": "event"
    },
    {
      "anonymous": false,
      "inputs": [
        {
          "indexed": true,
          "internalType": "address",
          "name": "_token",
          "type": "address"
        },
        {
          "indexed": true,
          "internalType": "address",
          "name": "_user",
          "type": "address"
        },
        {
          "indexed": false,
          "internalType": "uint256",
          "name": "_amount",
          "type": "uint256"
        }
      ],
      "name": "DistributeTokenAlloc",
      "type": "event"
    },
    {
      "anonymous": false,
      "inputs": [
        {
          "indexed": true,
          "internalType": "address",
          "name": "_token",
          "type": "address"
        }
      ],
      "name": "PoolAdded",
      "type": "event"
    },
    {
      "anonymous": false,
      "inputs": [
        {
          "indexed": true,
          "internalType": "address",
          "name": "_token",
          "type": "address"
        },
        {
          "indexed": false,
          "internalType": "uint256",
          "name": "_amount",
          "type": "uint256"
        }
      ],
      "name": "PoolUpdated",
      "type": "event"
    },
    {
      "anonymous": false,
      "inputs": [
        {
          "indexed": true,
          "internalType": "bytes32",
          "name": "role",
          "type": "bytes32"
        },
        {
          "indexed": true,
          "internalType": "bytes32",
          "name": "previousAdminRole",
          "type": "bytes32"
        },
        {
          "indexed": true,
          "internalType": "bytes32",
          "name": "newAdminRole",
          "type": "bytes32"
        }
      ],
      "name": "RoleAdminChanged",
      "type": "event"
    },
    {
      "anonymous": false,
      "inputs": [
        {
          "indexed": true,
          "internalType": "bytes32",
          "name": "role",
          "type": "bytes32"
        },
        {
          "indexed": true,
          "internalType": "address",
          "name": "account",
          "type": "address"
        },
        {
          "indexed": true,
          "internalType": "address",
          "name": "sender",
          "type": "address"
        }
      ],
      "name": "RoleGranted",
      "type": "event"
    },
    {
      "anonymous": false,
      "inputs": [
        {
          "indexed": true,
          "internalType": "bytes32",
          "name": "role",
          "type": "bytes32"
        },
        {
          "indexed": true,
          "internalType": "address",
          "name": "account",
          "type": "address"
        },
        {
          "indexed": true,
          "internalType": "address",
          "name": "sender",
          "type": "address"
        }
      ],
      "name": "RoleRevoked",
      "type": "event"
    },
    {
      "anonymous": false,
      "inputs": [
        {
          "indexed": true,
          "internalType": "address",
          "name": "_token",
          "type": "address"
        },
        {
          "indexed": true,
          "internalType": "address",
          "name": "_user",
          "type": "address"
        },
        {
          "indexed": false,
          "internalType": "uint256",
          "name": "_amount",
          "type": "uint256"
        }
      ],
      "name": "Withdraw",
      "type": "event"
    },
    {
      "inputs": [],
      "name": "DEFAULT_ADMIN_ROLE",
      "outputs": [
        {
          "internalType": "bytes32",
          "name": "",
          "type": "bytes32"
        }
      ],
      "stateMutability": "view",
      "type": "function"
    },
    {
      "inputs": [
        {
          "internalType": "address",
          "name": "_token",
          "type": "address"
        }
      ],
      "name": "addPool",
      "outputs": [],
      "stateMutability": "nonpayable",
      "type": "function"
    },
    {
      "inputs": [
        {
          "internalType": "address",
          "name": "_token",
          "type": "address"
        },
        {
          "internalType": "uint256",
          "name": "_amount",
          "type": "uint256"
        }
      ],
      "name": "deposit",
      "outputs": [],
      "stateMutability": "nonpayable",
      "type": "function"
    },
    {
      "inputs": [
        {
          "internalType": "address",
          "name": "_token",
          "type": "address"
        }
      ],
      "name": "distributeTokenAlloc",
      "outputs": [],
      "stateMutability": "nonpayable",
      "type": "function"
    },
    {
      "inputs": [
        {
          "internalType": "bytes32",
          "name": "role",
          "type": "bytes32"
        }
      ],
      "name": "getRoleAdmin",
      "outputs": [
        {
          "internalType": "bytes32",
          "name": "",
          "type": "bytes32"
        }
      ],
      "stateMutability": "view",
      "type": "function"
    },
    {
      "inputs": [
        {
          "internalType": "address",
          "name": "_token",
          "type": "address"
        }
      ],
      "name": "getTokenAlloc",
      "outputs": [
        {
          "internalType": "uint256",
          "name": "",
          "type": "uint256"
        }
      ],
      "stateMutability": "view",
      "type": "function"
    },
    {
      "inputs": [],
      "name": "getTotalManagedValue",
      "outputs": [
        {
          "internalType": "uint256",
          "name": "totalManagedValue",
          "type": "uint256"
        }
      ],
      "stateMutability": "nonpayable",
      "type": "function"
    },
    {
      "inputs": [
        {
          "internalType": "bytes32",
          "name": "role",
          "type": "bytes32"
        },
        {
          "internalType": "address",
          "name": "account",
          "type": "address"
        }
      ],
      "name": "grantRole",
      "outputs": [],
      "stateMutability": "nonpayable",
      "type": "function"
    },
    {
      "inputs": [
        {
          "internalType": "bytes32",
          "name": "role",
          "type": "bytes32"
        },
        {
          "internalType": "address",
          "name": "account",
          "type": "address"
        }
      ],
      "name": "hasRole",
      "outputs": [
        {
          "internalType": "bool",
          "name": "",
          "type": "bool"
        }
      ],
      "stateMutability": "view",
      "type": "function"
    },
    {
      "inputs": [
        {
          "internalType": "bytes32",
          "name": "role",
          "type": "bytes32"
        },
        {
          "internalType": "address",
          "name": "account",
          "type": "address"
        }
      ],
      "name": "renounceRole",
      "outputs": [],
      "stateMutability": "nonpayable",
      "type": "function"
    },
    {
      "inputs": [
        {
          "internalType": "bytes32",
          "name": "role",
          "type": "bytes32"
        },
        {
          "internalType": "address",
          "name": "account",
          "type": "address"
        }
      ],
      "name": "revokeRole",
      "outputs": [],
      "stateMutability": "nonpayable",
      "type": "function"
    },
    {
      "inputs": [
        {
          "internalType": "address",
          "name": "_destination",
          "type": "address"
        }
      ],
      "name": "setTreasuryStorage",
      "outputs": [],
      "stateMutability": "nonpayable",
      "type": "function"
    },
    {
      "inputs": [
        {
          "internalType": "bytes4",
          "name": "interfaceId",
          "type": "bytes4"
        }
      ],
      "name": "supportsInterface",
      "outputs": [
        {
          "internalType": "bool",
          "name": "",
          "type": "bool"
        }
      ],
      "stateMutability": "view",
      "type": "function"
    },
    {
      "inputs": [
        {
          "internalType": "address",
          "name": "_token",
          "type": "address"
        },
        {
          "internalType": "uint256",
          "name": "_principal",
          "type": "uint256"
        },
        {
          "internalType": "uint256",
          "name": "_profit",
          "type": "uint256"
        }
      ],
      "name": "treasuryIncome",
      "outputs": [],
      "stateMutability": "nonpayable",
      "type": "function"
    },
    {
      "inputs": [
        {
          "internalType": "address",
          "name": "_token",
          "type": "address"
        }
      ],
      "name": "withdraw",
      "outputs": [],
      "stateMutability": "nonpayable",
      "type": "function"
    }
  ],
  "bytecode": "0x60806040526138406005553480156200001757600080fd5b5060405162002bb738038062002bb783398181016040528101906200003d919062000131565b81600160006101000a81548173ffffffffffffffffffffffffffffffffffffffff021916908373ffffffffffffffffffffffffffffffffffffffff16021790555080600360006101000a81548173ffffffffffffffffffffffffffffffffffffffff021916908373ffffffffffffffffffffffffffffffffffffffff160217905550505062000178565b600080fd5b600073ffffffffffffffffffffffffffffffffffffffff82169050919050565b6000620000f982620000cc565b9050919050565b6200010b81620000ec565b81146200011757600080fd5b50565b6000815190506200012b8162000100565b92915050565b600080604083850312156200014b576200014a620000c7565b5b60006200015b858286016200011a565b92505060206200016e858286016200011a565b9150509250929050565b612a2f80620001886000396000f3fe608060405234801561001057600080fd5b50600436106100f55760003560e01c8063542e884311610097578063a217fddf11610066578063a217fddf14610280578063aec534151461029e578063d547741f146102ba578063d914cd4b146102d6576100f5565b8063542e8843146101fa5780638b467cd21461021657806391d14854146102325780639b3f6e1814610262576100f5565b806336568abe116100d357806336568abe1461017657806342c0c0851461019257806347e7ef24146101c257806351cff8d9146101de576100f5565b806301ffc9a7146100fa578063248a9ca31461012a5780632f2ff15d1461015a575b600080fd5b610114600480360381019061010f9190611c6a565b6102f2565b6040516101219190611cb2565b60405180910390f35b610144600480360381019061013f9190611d03565b61036c565b6040516101519190611d3f565b60405180910390f35b610174600480360381019061016f9190611db8565b61038b565b005b610190600480360381019061018b9190611db8565b6103b4565b005b6101ac60048036038101906101a79190611df8565b610437565b6040516101b99190611e3e565b60405180910390f35b6101dc60048036038101906101d79190611e85565b6105a7565b005b6101f860048036038101906101f39190611df8565b61083a565b005b610214600480360381019061020f9190611ec5565b610a77565b005b610230600480360381019061022b9190611df8565b610c6d565b005b61024c60048036038101906102479190611db8565b610cc7565b6040516102599190611cb2565b60405180910390f35b61026a610d31565b6040516102779190611e3e565b60405180910390f35b610288610e42565b6040516102959190611d3f565b60405180910390f35b6102b860048036038101906102b39190611df8565b610e49565b005b6102d460048036038101906102cf9190611db8565b611132565b005b6102f060048036038101906102eb9190611df8565b61115b565b005b60007f7965db0b000000000000000000000000000000000000000000000000000000007bffffffffffffffffffffffffffffffffffffffffffffffffffffffff1916827bffffffffffffffffffffffffffffffffffffffffffffffffffffffff19161480610365575061036482611201565b5b9050919050565b6000806000838152602001908152602001600020600101549050919050565b6103948261036c565b6103a5816103a061126b565b611273565b6103af8383611310565b505050565b6103bc61126b565b73ffffffffffffffffffffffffffffffffffffffff168173ffffffffffffffffffffffffffffffffffffffff1614610429576040517f08c379a000000000000000000000000000000000000000000000000000000000815260040161042090611f9b565b60405180910390fd5b61043382826113f0565b5050565b6000808273ffffffffffffffffffffffffffffffffffffffff166370a08231306040518263ffffffff1660e01b81526004016104739190611fca565b602060405180830381865afa158015610490573d6000803e3d6000fd5b505050506040513d601f19601f820116820180604052508101906104b49190611ffa565b90506000600360009054906101000a900473ffffffffffffffffffffffffffffffffffffffff1673ffffffffffffffffffffffffffffffffffffffff166392a576e685336040518363ffffffff1660e01b8152600401610515929190612027565b608060405180830381865afa158015610532573d6000803e3d6000fd5b505050506040513d601f19601f820116820180604052508101906105569190612159565b90506000601e60055461056991906121b5565b83610574919061223e565b90506000826060015143610588919061226f565b90506000818361059891906121b5565b90508095505050505050919050565b600360009054906101000a900473ffffffffffffffffffffffffffffffffffffffff16600260006101000a81548173ffffffffffffffffffffffffffffffffffffffff021916908373ffffffffffffffffffffffffffffffffffffffff160217905550600260009054906101000a900473ffffffffffffffffffffffffffffffffffffffff1673ffffffffffffffffffffffffffffffffffffffff1663999126d7836040518263ffffffff1660e01b81526004016106659190611fca565b6020604051808303816000875af1158015610684573d6000803e3d6000fd5b505050506040513d601f19601f820116820180604052508101906106a891906122cf565b6106e7576040517f08c379a00000000000000000000000000000000000000000000000000000000081526004016106de90612348565b60405180910390fd5b6106f182826114d1565b50600260009054906101000a900473ffffffffffffffffffffffffffffffffffffffff1673ffffffffffffffffffffffffffffffffffffffff16638340f5493384846040518463ffffffff1660e01b815260040161075193929190612368565b600060405180830381600087803b15801561076b57600080fd5b505af115801561077f573d6000803e3d6000fd5b505050506004829080600181540180825580915050600190039060005260206000200160009091909190916101000a81548173ffffffffffffffffffffffffffffffffffffffff021916908373ffffffffffffffffffffffffffffffffffffffff1602179055508173ffffffffffffffffffffffffffffffffffffffff167f5548c837ab068cf56a2c2479df0882a4922fd203edb7517321831d95078c5f62338360405161082e92919061239f565b60405180910390a25050565b6000600260009054906101000a900473ffffffffffffffffffffffffffffffffffffffff1673ffffffffffffffffffffffffffffffffffffffff16630122a7e883336040518363ffffffff1660e01b8152600401610899929190612027565b602060405180830381865afa1580156108b6573d6000803e3d6000fd5b505050506040513d601f19601f820116820180604052508101906108da9190611ffa565b90508173ffffffffffffffffffffffffffffffffffffffff1663095ea7b3600260009054906101000a900473ffffffffffffffffffffffffffffffffffffffff16836040518363ffffffff1660e01b815260040161093992919061239f565b6020604051808303816000875af1158015610958573d6000803e3d6000fd5b505050506040513d601f19601f8201168201806040525081019061097c91906122cf565b50600260009054906101000a900473ffffffffffffffffffffffffffffffffffffffff1673ffffffffffffffffffffffffffffffffffffffff1663d9caed128333846040518463ffffffff1660e01b81526004016109dc93929190612368565b600060405180830381600087803b1580156109f657600080fd5b505af1158015610a0a573d6000803e3d6000fd5b505050503373ffffffffffffffffffffffffffffffffffffffff168273ffffffffffffffffffffffffffffffffffffffff167f9b1bfa7fa9ee420a16e124f794c35ac9f90472acc99140eb2f6447c714cad8eb83604051610a6b9190611e3e565b60405180910390a35050565b600360009054906101000a900473ffffffffffffffffffffffffffffffffffffffff1673ffffffffffffffffffffffffffffffffffffffff16638ed7333d84846040518363ffffffff1660e01b8152600401610ad492919061239f565b6020604051808303816000875af1158015610af3573d6000803e3d6000fd5b505050506040513d601f19601f82011682018060405250810190610b179190612404565b50600360009054906101000a900473ffffffffffffffffffffffffffffffffffffffff1673ffffffffffffffffffffffffffffffffffffffff16633e0a56183385856040518463ffffffff1660e01b8152600401610b7793929190612368565b600060405180830381600087803b158015610b9157600080fd5b505af1158015610ba5573d6000803e3d6000fd5b50505050600360009054906101000a900473ffffffffffffffffffffffffffffffffffffffff1673ffffffffffffffffffffffffffffffffffffffff1663d2456a9584336000436040518563ffffffff1660e01b8152600401610c0b9493929190612476565b600060405180830381600087803b158015610c2557600080fd5b505af1158015610c39573d6000803e3d6000fd5b50505050610c6830828573ffffffffffffffffffffffffffffffffffffffff166116389092919063ffffffff16565b505050565b6000801b610c8281610c7d61126b565b611273565b81600360006101000a81548173ffffffffffffffffffffffffffffffffffffffff021916908373ffffffffffffffffffffffffffffffffffffffff1602179055505050565b600080600084815260200190815260200160002060000160008373ffffffffffffffffffffffffffffffffffffffff1673ffffffffffffffffffffffffffffffffffffffff16815260200190815260200160002060009054906101000a900460ff16905092915050565b6000805b600480549050811015610e3e57600360009054906101000a900473ffffffffffffffffffffffffffffffffffffffff1673ffffffffffffffffffffffffffffffffffffffff1663f2866c7860048381548110610d9457610d936124bb565b5b9060005260206000200160009054906101000a900473ffffffffffffffffffffffffffffffffffffffff166040518263ffffffff1660e01b8152600401610ddb9190611fca565b6020604051808303816000875af1158015610dfa573d6000803e3d6000fd5b505050506040513d601f19601f82011682018060405250810190610e1e9190611ffa565b82610e2991906124ea565b91508080610e3690612540565b915050610d35565b5090565b6000801b81565b60003073ffffffffffffffffffffffffffffffffffffffff166342c0c085836040518263ffffffff1660e01b8152600401610e849190611fca565b602060405180830381865afa158015610ea1573d6000803e3d6000fd5b505050506040513d601f19601f82011682018060405250810190610ec59190611ffa565b9050600360009054906101000a900473ffffffffffffffffffffffffffffffffffffffff1673ffffffffffffffffffffffffffffffffffffffff1663d2456a95833384436040518563ffffffff1660e01b8152600401610f289493929190612589565b600060405180830381600087803b158015610f4257600080fd5b505af1158015610f56573d6000803e3d6000fd5b50505050600360009054906101000a900473ffffffffffffffffffffffffffffffffffffffff1673ffffffffffffffffffffffffffffffffffffffff16638ed7333d83836040518363ffffffff1660e01b8152600401610fb792919061239f565b6020604051808303816000875af1158015610fd6573d6000803e3d6000fd5b505050506040513d601f19601f82011682018060405250810190610ffa9190612404565b508173ffffffffffffffffffffffffffffffffffffffff1663095ea7b330836040518363ffffffff1660e01b815260040161103692919061239f565b6020604051808303816000875af1158015611055573d6000803e3d6000fd5b505050506040513d601f19601f8201168201806040525081019061107991906122cf565b506110c930600360009054906101000a900473ffffffffffffffffffffffffffffffffffffffff16838573ffffffffffffffffffffffffffffffffffffffff166116be909392919063ffffffff16565b3373ffffffffffffffffffffffffffffffffffffffff168273ffffffffffffffffffffffffffffffffffffffff167f6d45cc590722b80b4d04bfde236db12ba92032c51cf7a3e3a97c60d325018a5f836040516111269190611e3e565b60405180910390a35050565b61113b8261036c565b61114c8161114761126b565b611273565b61115683836113f0565b505050565b6000801b6111708161116b61126b565b611273565b600360009054906101000a900473ffffffffffffffffffffffffffffffffffffffff1673ffffffffffffffffffffffffffffffffffffffff1663d914cd4b836040518263ffffffff1660e01b81526004016111cb9190611fca565b600060405180830381600087803b1580156111e557600080fd5b505af11580156111f9573d6000803e3d6000fd5b505050505050565b60007f01ffc9a7000000000000000000000000000000000000000000000000000000007bffffffffffffffffffffffffffffffffffffffffffffffffffffffff1916827bffffffffffffffffffffffffffffffffffffffffffffffffffffffff1916149050919050565b600033905090565b61127d8282610cc7565b61130c576112a28173ffffffffffffffffffffffffffffffffffffffff166014611747565b6112b08360001c6020611747565b6040516020016112c19291906126e0565b6040516020818303038152906040526040517f08c379a00000000000000000000000000000000000000000000000000000000081526004016113039190612753565b60405180910390fd5b5050565b61131a8282610cc7565b6113ec57600160008084815260200190815260200160002060000160008373ffffffffffffffffffffffffffffffffffffffff1673ffffffffffffffffffffffffffffffffffffffff16815260200190815260200160002060006101000a81548160ff02191690831515021790555061139161126b565b73ffffffffffffffffffffffffffffffffffffffff168173ffffffffffffffffffffffffffffffffffffffff16837f2f8788117e7eff1d82e926ec794901d17c78024a50270940304540a733656f0d60405160405180910390a45b5050565b6113fa8282610cc7565b156114cd57600080600084815260200190815260200160002060000160008373ffffffffffffffffffffffffffffffffffffffff1673ffffffffffffffffffffffffffffffffffffffff16815260200190815260200160002060006101000a81548160ff02191690831515021790555061147261126b565b73ffffffffffffffffffffffffffffffffffffffff168173ffffffffffffffffffffffffffffffffffffffff16837ff6391f5c32d9c69d2a47ea670b442974b53935d1edc7fd64eb21e047a839171b60405160405180910390a45b5050565b6114d9611bf0565b600360009054906101000a900473ffffffffffffffffffffffffffffffffffffffff16600260006101000a81548173ffffffffffffffffffffffffffffffffffffffff021916908373ffffffffffffffffffffffffffffffffffffffff1602179055506000600260009054906101000a900473ffffffffffffffffffffffffffffffffffffffff1673ffffffffffffffffffffffffffffffffffffffff16638ed7333d85856040518363ffffffff1660e01b815260040161159b92919061239f565b6020604051808303816000875af11580156115ba573d6000803e3d6000fd5b505050506040513d601f19601f820116820180604052508101906115de9190612404565b90508373ffffffffffffffffffffffffffffffffffffffff167f2f4ae87a584f00dc35b043dd1c5ac839c1f41cd3a66e834d4e13faa6251634e6846040516116269190611e3e565b60405180910390a28091505092915050565b6116b98363a9059cbb60e01b848460405160240161165792919061239f565b604051602081830303815290604052907bffffffffffffffffffffffffffffffffffffffffffffffffffffffff19166020820180517bffffffffffffffffffffffffffffffffffffffffffffffffffffffff8381831617835250505050611983565b505050565b611741846323b872dd60e01b8585856040516024016116df93929190612368565b604051602081830303815290604052907bffffffffffffffffffffffffffffffffffffffffffffffffffffffff19166020820180517bffffffffffffffffffffffffffffffffffffffffffffffffffffffff8381831617835250505050611983565b50505050565b60606000600283600261175a91906121b5565b61176491906124ea565b67ffffffffffffffff81111561177d5761177c612066565b5b6040519080825280601f01601f1916602001820160405280156117af5781602001600182028036833780820191505090505b5090507f3000000000000000000000000000000000000000000000000000000000000000816000815181106117e7576117e66124bb565b5b60200101907effffffffffffffffffffffffffffffffffffffffffffffffffffffffffffff1916908160001a9053507f78000000000000000000000000000000000000000000000000000000000000008160018151811061184b5761184a6124bb565b5b60200101907effffffffffffffffffffffffffffffffffffffffffffffffffffffffffffff1916908160001a9053506000600184600261188b91906121b5565b61189591906124ea565b90505b6001811115611935577f3031323334353637383961626364656600000000000000000000000000000000600f8616601081106118d7576118d66124bb565b5b1a60f81b8282815181106118ee576118ed6124bb565b5b60200101907effffffffffffffffffffffffffffffffffffffffffffffffffffffffffffff1916908160001a905350600485901c94508061192e90612775565b9050611898565b5060008414611979576040517f08c379a0000000000000000000000000000000000000000000000000000000008152600401611970906127eb565b60405180910390fd5b8091505092915050565b60006119e5826040518060400160405280602081526020017f5361666545524332303a206c6f772d6c6576656c2063616c6c206661696c65648152508573ffffffffffffffffffffffffffffffffffffffff16611a4a9092919063ffffffff16565b9050600081511115611a455780806020019051810190611a0591906122cf565b611a44576040517f08c379a0000000000000000000000000000000000000000000000000000000008152600401611a3b9061287d565b60405180910390fd5b5b505050565b6060611a598484600085611a62565b90509392505050565b606082471015611aa7576040517f08c379a0000000000000000000000000000000000000000000000000000000008152600401611a9e9061290f565b60405180910390fd5b611ab085611b76565b611aef576040517f08c379a0000000000000000000000000000000000000000000000000000000008152600401611ae69061297b565b60405180910390fd5b6000808673ffffffffffffffffffffffffffffffffffffffff168587604051611b1891906129e2565b60006040518083038185875af1925050503d8060008114611b55576040519150601f19603f3d011682016040523d82523d6000602084013e611b5a565b606091505b5091509150611b6a828286611b89565b92505050949350505050565b600080823b905060008111915050919050565b60608315611b9957829050611be9565b600083511115611bac5782518084602001fd5b816040517f08c379a0000000000000000000000000000000000000000000000000000000008152600401611be09190612753565b60405180910390fd5b9392505050565b6040518060200160405280600081525090565b6000604051905090565b600080fd5b60007fffffffff0000000000000000000000000000000000000000000000000000000082169050919050565b611c4781611c12565b8114611c5257600080fd5b50565b600081359050611c6481611c3e565b92915050565b600060208284031215611c8057611c7f611c0d565b5b6000611c8e84828501611c55565b91505092915050565b60008115159050919050565b611cac81611c97565b82525050565b6000602082019050611cc76000830184611ca3565b92915050565b6000819050919050565b611ce081611ccd565b8114611ceb57600080fd5b50565b600081359050611cfd81611cd7565b92915050565b600060208284031215611d1957611d18611c0d565b5b6000611d2784828501611cee565b91505092915050565b611d3981611ccd565b82525050565b6000602082019050611d546000830184611d30565b92915050565b600073ffffffffffffffffffffffffffffffffffffffff82169050919050565b6000611d8582611d5a565b9050919050565b611d9581611d7a565b8114611da057600080fd5b50565b600081359050611db281611d8c565b92915050565b60008060408385031215611dcf57611dce611c0d565b5b6000611ddd85828601611cee565b9250506020611dee85828601611da3565b9150509250929050565b600060208284031215611e0e57611e0d611c0d565b5b6000611e1c84828501611da3565b91505092915050565b6000819050919050565b611e3881611e25565b82525050565b6000602082019050611e536000830184611e2f565b92915050565b611e6281611e25565b8114611e6d57600080fd5b50565b600081359050611e7f81611e59565b92915050565b60008060408385031215611e9c57611e9b611c0d565b5b6000611eaa85828601611da3565b9250506020611ebb85828601611e70565b9150509250929050565b600080600060608486031215611ede57611edd611c0d565b5b6000611eec86828701611da3565b9350506020611efd86828701611e70565b9250506040611f0e86828701611e70565b9150509250925092565b600082825260208201905092915050565b7f416363657373436f6e74726f6c3a2063616e206f6e6c792072656e6f756e636560008201527f20726f6c657320666f722073656c660000000000000000000000000000000000602082015250565b6000611f85602f83611f18565b9150611f9082611f29565b604082019050919050565b60006020820190508181036000830152611fb481611f78565b9050919050565b611fc481611d7a565b82525050565b6000602082019050611fdf6000830184611fbb565b92915050565b600081519050611ff481611e59565b92915050565b6000602082840312156120105761200f611c0d565b5b600061201e84828501611fe5565b91505092915050565b600060408201905061203c6000830185611fbb565b6120496020830184611fbb565b9392505050565b600080fd5b6000601f19601f8301169050919050565b7f4e487b7100000000000000000000000000000000000000000000000000000000600052604160045260246000fd5b61209e82612055565b810181811067ffffffffffffffff821117156120bd576120bc612066565b5b80604052505050565b60006120d0611c03565b90506120dc8282612095565b919050565b6000608082840312156120f7576120f6612050565b5b61210160806120c6565b9050600061211184828501611fe5565b600083015250602061212584828501611fe5565b602083015250604061213984828501611fe5565b604083015250606061214d84828501611fe5565b60608301525092915050565b60006080828403121561216f5761216e611c0d565b5b600061217d848285016120e1565b91505092915050565b7f4e487b7100000000000000000000000000000000000000000000000000000000600052601160045260246000fd5b60006121c082611e25565b91506121cb83611e25565b9250817fffffffffffffffffffffffffffffffffffffffffffffffffffffffffffffffff048311821515161561220457612203612186565b5b828202905092915050565b7f4e487b7100000000000000000000000000000000000000000000000000000000600052601260045260246000fd5b600061224982611e25565b915061225483611e25565b9250826122645761226361220f565b5b828204905092915050565b600061227a82611e25565b915061228583611e25565b92508282101561229857612297612186565b5b828203905092915050565b6122ac81611c97565b81146122b757600080fd5b50565b6000815190506122c9816122a3565b92915050565b6000602082840312156122e5576122e4611c0d565b5b60006122f3848285016122ba565b91505092915050565b7f506f6f6c20646f6573206e6f7420657869737400000000000000000000000000600082015250565b6000612332601383611f18565b915061233d826122fc565b602082019050919050565b6000602082019050818103600083015261236181612325565b9050919050565b600060608201905061237d6000830186611fbb565b61238a6020830185611fbb565b6123976040830184611e2f565b949350505050565b60006040820190506123b46000830185611fbb565b6123c16020830184611e2f565b9392505050565b6000602082840312156123de576123dd612050565b5b6123e860206120c6565b905060006123f884828501611fe5565b60008301525092915050565b60006020828403121561241a57612419611c0d565b5b6000612428848285016123c8565b91505092915050565b6000819050919050565b6000819050919050565b600061246061245b61245684612431565b61243b565b611e25565b9050919050565b61247081612445565b82525050565b600060808201905061248b6000830187611fbb565b6124986020830186611fbb565b6124a56040830185612467565b6124b26060830184611e2f565b95945050505050565b7f4e487b7100000000000000000000000000000000000000000000000000000000600052603260045260246000fd5b60006124f582611e25565b915061250083611e25565b9250827fffffffffffffffffffffffffffffffffffffffffffffffffffffffffffffffff0382111561253557612534612186565b5b828201905092915050565b600061254b82611e25565b91507fffffffffffffffffffffffffffffffffffffffffffffffffffffffffffffffff82141561257e5761257d612186565b5b600182019050919050565b600060808201905061259e6000830187611fbb565b6125ab6020830186611fbb565b6125b86040830185611e2f565b6125c56060830184611e2f565b95945050505050565b600081905092915050565b7f416363657373436f6e74726f6c3a206163636f756e7420000000000000000000600082015250565b600061260f6017836125ce565b915061261a826125d9565b601782019050919050565b600081519050919050565b60005b8381101561264e578082015181840152602081019050612633565b8381111561265d576000848401525b50505050565b600061266e82612625565b61267881856125ce565b9350612688818560208601612630565b80840191505092915050565b7f206973206d697373696e6720726f6c6520000000000000000000000000000000600082015250565b60006126ca6011836125ce565b91506126d582612694565b601182019050919050565b60006126eb82612602565b91506126f78285612663565b9150612702826126bd565b915061270e8284612663565b91508190509392505050565b600061272582612625565b61272f8185611f18565b935061273f818560208601612630565b61274881612055565b840191505092915050565b6000602082019050818103600083015261276d818461271a565b905092915050565b600061278082611e25565b9150600082141561279457612793612186565b5b600182039050919050565b7f537472696e67733a20686578206c656e67746820696e73756666696369656e74600082015250565b60006127d5602083611f18565b91506127e08261279f565b602082019050919050565b60006020820190508181036000830152612804816127c8565b9050919050565b7f5361666545524332303a204552433230206f7065726174696f6e20646964206e60008201527f6f74207375636365656400000000000000000000000000000000000000000000602082015250565b6000612867602a83611f18565b91506128728261280b565b604082019050919050565b600060208201905081810360008301526128968161285a565b9050919050565b7f416464726573733a20696e73756666696369656e742062616c616e636520666f60008201527f722063616c6c0000000000000000000000000000000000000000000000000000602082015250565b60006128f9602683611f18565b91506129048261289d565b604082019050919050565b60006020820190508181036000830152612928816128ec565b9050919050565b7f416464726573733a2063616c6c20746f206e6f6e2d636f6e7472616374000000600082015250565b6000612965601d83611f18565b91506129708261292f565b602082019050919050565b6000602082019050818103600083015261299481612958565b9050919050565b600081519050919050565b600081905092915050565b60006129bc8261299b565b6129c681856129a6565b93506129d6818560208601612630565b80840191505092915050565b60006129ee82846129b1565b91508190509291505056fea26469706673582212206b4a49f498a3ceb973942cce1cf4d9d7eb090792ae86bb148ce44f76f1ec94a864736f6c634300080b0033",
  "linkReferences": {},
  "deployedLinkReferences": {}
}