{
  "_format": "hh-sol-artifact-1",
  "contractName": "RevenueController",
  "sourceName": "contracts/treasury/RevenueController.sol",
  "abi": [
    {
      "inputs": [
        {
          "internalType": "address",
          "name": "_capl",
          "type": "address"
        },
        {
          "internalType": "address",
          "name": "_treasuryStorage",
          "type": "address"
        }
      ],
      "stateMutability": "nonpayable",
      "type": "constructor"
    },
    {
      "anonymous": false,
      "inputs": [
        {
          "indexed": true,
          "internalType": "address",
          "name": "_token",
          "type": "address"
        },
        {
          "indexed": false,
          "internalType": "address",
          "name": "_user",
          "type": "address"
        },
        {
          "indexed": false,
          "internalType": "uint256",
          "name": "_amount",
          "type": "uint256"
        }
      ],
      "name": "Deposit",
      "type": "event"
    },
    {
      "anonymous": false,
      "inputs": [
        {
          "indexed": true,
          "internalType": "address",
          "name": "_token",
          "type": "address"
        },
        {
          "indexed": true,
          "internalType": "address",
          "name": "_user",
          "type": "address"
        },
        {
          "indexed": false,
          "internalType": "uint256",
          "name": "_amount",
          "type": "uint256"
        }
      ],
      "name": "DistributeTokenAlloc",
      "type": "event"
    },
    {
      "anonymous": false,
      "inputs": [
        {
          "indexed": true,
          "internalType": "address",
          "name": "_token",
          "type": "address"
        }
      ],
      "name": "PoolAdded",
      "type": "event"
    },
    {
      "anonymous": false,
      "inputs": [
        {
          "indexed": true,
          "internalType": "address",
          "name": "_token",
          "type": "address"
        },
        {
          "indexed": false,
          "internalType": "uint256",
          "name": "_amount",
          "type": "uint256"
        }
      ],
      "name": "PoolUpdated",
      "type": "event"
    },
    {
      "anonymous": false,
      "inputs": [
        {
          "indexed": true,
          "internalType": "bytes32",
          "name": "role",
          "type": "bytes32"
        },
        {
          "indexed": true,
          "internalType": "bytes32",
          "name": "previousAdminRole",
          "type": "bytes32"
        },
        {
          "indexed": true,
          "internalType": "bytes32",
          "name": "newAdminRole",
          "type": "bytes32"
        }
      ],
      "name": "RoleAdminChanged",
      "type": "event"
    },
    {
      "anonymous": false,
      "inputs": [
        {
          "indexed": true,
          "internalType": "bytes32",
          "name": "role",
          "type": "bytes32"
        },
        {
          "indexed": true,
          "internalType": "address",
          "name": "account",
          "type": "address"
        },
        {
          "indexed": true,
          "internalType": "address",
          "name": "sender",
          "type": "address"
        }
      ],
      "name": "RoleGranted",
      "type": "event"
    },
    {
      "anonymous": false,
      "inputs": [
        {
          "indexed": true,
          "internalType": "bytes32",
          "name": "role",
          "type": "bytes32"
        },
        {
          "indexed": true,
          "internalType": "address",
          "name": "account",
          "type": "address"
        },
        {
          "indexed": true,
          "internalType": "address",
          "name": "sender",
          "type": "address"
        }
      ],
      "name": "RoleRevoked",
      "type": "event"
    },
    {
      "anonymous": false,
      "inputs": [
        {
          "indexed": true,
          "internalType": "address",
          "name": "_token",
          "type": "address"
        },
        {
          "indexed": true,
          "internalType": "address",
          "name": "_user",
          "type": "address"
        },
        {
          "indexed": false,
          "internalType": "uint256",
          "name": "_amount",
          "type": "uint256"
        }
      ],
      "name": "Withdraw",
      "type": "event"
    },
    {
      "inputs": [],
      "name": "DEFAULT_ADMIN_ROLE",
      "outputs": [
        {
          "internalType": "bytes32",
          "name": "",
          "type": "bytes32"
        }
      ],
      "stateMutability": "view",
      "type": "function"
    },
    {
      "inputs": [
        {
          "internalType": "address",
          "name": "_token",
          "type": "address"
        }
      ],
      "name": "addPool",
      "outputs": [],
      "stateMutability": "nonpayable",
      "type": "function"
    },
    {
      "inputs": [
        {
          "internalType": "address",
          "name": "_token",
          "type": "address"
        },
        {
          "internalType": "uint256",
          "name": "_amount",
          "type": "uint256"
        }
      ],
      "name": "deposit",
      "outputs": [],
      "stateMutability": "nonpayable",
      "type": "function"
    },
    {
      "inputs": [
        {
          "internalType": "address",
          "name": "_token",
          "type": "address"
        }
      ],
      "name": "distributeTokenAlloc",
      "outputs": [],
      "stateMutability": "nonpayable",
      "type": "function"
    },
    {
      "inputs": [
        {
          "internalType": "bytes32",
          "name": "role",
          "type": "bytes32"
        }
      ],
      "name": "getRoleAdmin",
      "outputs": [
        {
          "internalType": "bytes32",
          "name": "",
          "type": "bytes32"
        }
      ],
      "stateMutability": "view",
      "type": "function"
    },
    {
      "inputs": [
        {
          "internalType": "address",
          "name": "_token",
          "type": "address"
        }
      ],
      "name": "getTokenAlloc",
      "outputs": [
        {
          "internalType": "uint256",
          "name": "",
          "type": "uint256"
        }
      ],
      "stateMutability": "view",
      "type": "function"
    },
    {
      "inputs": [
        {
          "internalType": "address",
          "name": "_token",
          "type": "address"
        }
      ],
      "name": "getTotalManagedValue",
      "outputs": [
        {
          "internalType": "uint256",
          "name": "totalManagedValue",
          "type": "uint256"
        }
      ],
      "stateMutability": "nonpayable",
      "type": "function"
    },
    {
      "inputs": [
        {
          "internalType": "bytes32",
          "name": "role",
          "type": "bytes32"
        },
        {
          "internalType": "address",
          "name": "account",
          "type": "address"
        }
      ],
      "name": "grantRole",
      "outputs": [],
      "stateMutability": "nonpayable",
      "type": "function"
    },
    {
      "inputs": [
        {
          "internalType": "bytes32",
          "name": "role",
          "type": "bytes32"
        },
        {
          "internalType": "address",
          "name": "account",
          "type": "address"
        }
      ],
      "name": "hasRole",
      "outputs": [
        {
          "internalType": "bool",
          "name": "",
          "type": "bool"
        }
      ],
      "stateMutability": "view",
      "type": "function"
    },
    {
      "inputs": [
        {
          "internalType": "bytes32",
          "name": "role",
          "type": "bytes32"
        },
        {
          "internalType": "address",
          "name": "account",
          "type": "address"
        }
      ],
      "name": "renounceRole",
      "outputs": [],
      "stateMutability": "nonpayable",
      "type": "function"
    },
    {
      "inputs": [
        {
          "internalType": "bytes32",
          "name": "role",
          "type": "bytes32"
        },
        {
          "internalType": "address",
          "name": "account",
          "type": "address"
        }
      ],
      "name": "revokeRole",
      "outputs": [],
      "stateMutability": "nonpayable",
      "type": "function"
    },
    {
      "inputs": [
        {
          "internalType": "address",
          "name": "_destination",
          "type": "address"
        }
      ],
      "name": "setTreasuryStorage",
      "outputs": [],
      "stateMutability": "nonpayable",
      "type": "function"
    },
    {
      "inputs": [
        {
          "internalType": "bytes4",
          "name": "interfaceId",
          "type": "bytes4"
        }
      ],
      "name": "supportsInterface",
      "outputs": [
        {
          "internalType": "bool",
          "name": "",
          "type": "bool"
        }
      ],
      "stateMutability": "view",
      "type": "function"
    },
    {
      "inputs": [
        {
          "internalType": "address",
          "name": "_token",
          "type": "address"
        },
        {
          "internalType": "uint256",
          "name": "_principal",
          "type": "uint256"
        },
        {
          "internalType": "uint256",
          "name": "_profit",
          "type": "uint256"
        }
      ],
      "name": "treasuryIncome",
      "outputs": [],
      "stateMutability": "nonpayable",
      "type": "function"
    },
    {
      "inputs": [
        {
          "internalType": "address",
          "name": "_token",
          "type": "address"
        }
      ],
      "name": "withdraw",
      "outputs": [],
      "stateMutability": "nonpayable",
      "type": "function"
    }
  ],
  "bytecode": "0x60806040526138406005553480156200001757600080fd5b5060405162002ab038038062002ab083398181016040528101906200003d919062000131565b81600160006101000a81548173ffffffffffffffffffffffffffffffffffffffff021916908373ffffffffffffffffffffffffffffffffffffffff16021790555080600360006101000a81548173ffffffffffffffffffffffffffffffffffffffff021916908373ffffffffffffffffffffffffffffffffffffffff160217905550505062000178565b600080fd5b600073ffffffffffffffffffffffffffffffffffffffff82169050919050565b6000620000f982620000cc565b9050919050565b6200010b81620000ec565b81146200011757600080fd5b50565b6000815190506200012b8162000100565b92915050565b600080604083850312156200014b576200014a620000c7565b5b60006200015b858286016200011a565b92505060206200016e858286016200011a565b9150509250929050565b61292880620001886000396000f3fe608060405234801561001057600080fd5b50600436106100f55760003560e01c8063542e884311610097578063aec5341511610066578063aec5341514610280578063c18ebcf11461029c578063d547741f146102cc578063d914cd4b146102e8576100f5565b8063542e8843146101fa5780638b467cd21461021657806391d1485414610232578063a217fddf14610262576100f5565b806336568abe116100d357806336568abe1461017657806342c0c0851461019257806347e7ef24146101c257806351cff8d9146101de576100f5565b806301ffc9a7146100fa578063248a9ca31461012a5780632f2ff15d1461015a575b600080fd5b610114600480360381019061010f9190611bac565b610304565b6040516101219190611bf4565b60405180910390f35b610144600480360381019061013f9190611c45565b61037e565b6040516101519190611c81565b60405180910390f35b610174600480360381019061016f9190611cfa565b61039d565b005b610190600480360381019061018b9190611cfa565b6103c6565b005b6101ac60048036038101906101a79190611d3a565b610449565b6040516101b99190611d80565b60405180910390f35b6101dc60048036038101906101d79190611dc7565b6105c4565b005b6101f860048036038101906101f39190611d3a565b610857565b005b610214600480360381019061020f9190611e07565b610a94565b005b610230600480360381019061022b9190611d3a565b610c8a565b005b61024c60048036038101906102479190611cfa565b610ce4565b6040516102599190611bf4565b60405180910390f35b61026a610d4e565b6040516102779190611c81565b60405180910390f35b61029a60048036038101906102959190611d3a565b610d55565b005b6102b660048036038101906102b19190611d3a565b610fcd565b6040516102c39190611d80565b60405180910390f35b6102e660048036038101906102e19190611cfa565b611074565b005b61030260048036038101906102fd9190611d3a565b61109d565b005b60007f7965db0b000000000000000000000000000000000000000000000000000000007bffffffffffffffffffffffffffffffffffffffffffffffffffffffff1916827bffffffffffffffffffffffffffffffffffffffffffffffffffffffff19161480610377575061037682611143565b5b9050919050565b6000806000838152602001908152602001600020600101549050919050565b6103a68261037e565b6103b7816103b26111ad565b6111b5565b6103c18383611252565b505050565b6103ce6111ad565b73ffffffffffffffffffffffffffffffffffffffff168173ffffffffffffffffffffffffffffffffffffffff161461043b576040517f08c379a000000000000000000000000000000000000000000000000000000000815260040161043290611edd565b60405180910390fd5b6104458282611332565b5050565b6000808273ffffffffffffffffffffffffffffffffffffffff166370a08231306040518263ffffffff1660e01b81526004016104859190611f0c565b602060405180830381865afa1580156104a2573d6000803e3d6000fd5b505050506040513d601f19601f820116820180604052508101906104c69190611f3c565b90506000600360009054906101000a900473ffffffffffffffffffffffffffffffffffffffff1673ffffffffffffffffffffffffffffffffffffffff166392a576e685336040518363ffffffff1660e01b8152600401610527929190611f69565b608060405180830381865afa158015610544573d6000803e3d6000fd5b505050506040513d601f19601f82011682018060405250810190610568919061209b565b9050600081606001514361057c91906120f7565b9050600081601e600554610590919061212b565b61059a9190612185565b846105a5919061220a565b9050600082826105b5919061212b565b90508095505050505050919050565b600360009054906101000a900473ffffffffffffffffffffffffffffffffffffffff16600260006101000a81548173ffffffffffffffffffffffffffffffffffffffff021916908373ffffffffffffffffffffffffffffffffffffffff160217905550600260009054906101000a900473ffffffffffffffffffffffffffffffffffffffff1673ffffffffffffffffffffffffffffffffffffffff1663999126d7836040518263ffffffff1660e01b81526004016106829190611f0c565b6020604051808303816000875af11580156106a1573d6000803e3d6000fd5b505050506040513d601f19601f820116820180604052508101906106c59190612267565b610704576040517f08c379a00000000000000000000000000000000000000000000000000000000081526004016106fb906122e0565b60405180910390fd5b61070e8282611413565b50600260009054906101000a900473ffffffffffffffffffffffffffffffffffffffff1673ffffffffffffffffffffffffffffffffffffffff16638340f5493384846040518463ffffffff1660e01b815260040161076e93929190612300565b600060405180830381600087803b15801561078857600080fd5b505af115801561079c573d6000803e3d6000fd5b505050506004829080600181540180825580915050600190039060005260206000200160009091909190916101000a81548173ffffffffffffffffffffffffffffffffffffffff021916908373ffffffffffffffffffffffffffffffffffffffff1602179055508173ffffffffffffffffffffffffffffffffffffffff167f5548c837ab068cf56a2c2479df0882a4922fd203edb7517321831d95078c5f62338360405161084b929190612337565b60405180910390a25050565b6000600260009054906101000a900473ffffffffffffffffffffffffffffffffffffffff1673ffffffffffffffffffffffffffffffffffffffff16630122a7e883336040518363ffffffff1660e01b81526004016108b6929190611f69565b602060405180830381865afa1580156108d3573d6000803e3d6000fd5b505050506040513d601f19601f820116820180604052508101906108f79190611f3c565b90508173ffffffffffffffffffffffffffffffffffffffff1663095ea7b3600260009054906101000a900473ffffffffffffffffffffffffffffffffffffffff16836040518363ffffffff1660e01b8152600401610956929190612337565b6020604051808303816000875af1158015610975573d6000803e3d6000fd5b505050506040513d601f19601f820116820180604052508101906109999190612267565b50600260009054906101000a900473ffffffffffffffffffffffffffffffffffffffff1673ffffffffffffffffffffffffffffffffffffffff1663d9caed128333846040518463ffffffff1660e01b81526004016109f993929190612300565b600060405180830381600087803b158015610a1357600080fd5b505af1158015610a27573d6000803e3d6000fd5b505050503373ffffffffffffffffffffffffffffffffffffffff168273ffffffffffffffffffffffffffffffffffffffff167f9b1bfa7fa9ee420a16e124f794c35ac9f90472acc99140eb2f6447c714cad8eb83604051610a889190611d80565b60405180910390a35050565b600360009054906101000a900473ffffffffffffffffffffffffffffffffffffffff1673ffffffffffffffffffffffffffffffffffffffff16638ed7333d84846040518363ffffffff1660e01b8152600401610af1929190612337565b6020604051808303816000875af1158015610b10573d6000803e3d6000fd5b505050506040513d601f19601f82011682018060405250810190610b34919061239c565b50600360009054906101000a900473ffffffffffffffffffffffffffffffffffffffff1673ffffffffffffffffffffffffffffffffffffffff16633e0a56183385856040518463ffffffff1660e01b8152600401610b9493929190612300565b600060405180830381600087803b158015610bae57600080fd5b505af1158015610bc2573d6000803e3d6000fd5b50505050600360009054906101000a900473ffffffffffffffffffffffffffffffffffffffff1673ffffffffffffffffffffffffffffffffffffffff1663d2456a9584336000436040518563ffffffff1660e01b8152600401610c28949392919061240e565b600060405180830381600087803b158015610c4257600080fd5b505af1158015610c56573d6000803e3d6000fd5b50505050610c8530828573ffffffffffffffffffffffffffffffffffffffff1661157a9092919063ffffffff16565b505050565b6000801b610c9f81610c9a6111ad565b6111b5565b81600360006101000a81548173ffffffffffffffffffffffffffffffffffffffff021916908373ffffffffffffffffffffffffffffffffffffffff1602179055505050565b600080600084815260200190815260200160002060000160008373ffffffffffffffffffffffffffffffffffffffff1673ffffffffffffffffffffffffffffffffffffffff16815260200190815260200160002060009054906101000a900460ff16905092915050565b6000801b81565b6000610d6082610449565b9050600360009054906101000a900473ffffffffffffffffffffffffffffffffffffffff1673ffffffffffffffffffffffffffffffffffffffff1663d2456a95833384436040518563ffffffff1660e01b8152600401610dc39493929190612453565b600060405180830381600087803b158015610ddd57600080fd5b505af1158015610df1573d6000803e3d6000fd5b50505050600360009054906101000a900473ffffffffffffffffffffffffffffffffffffffff1673ffffffffffffffffffffffffffffffffffffffff16638ed7333d83836040518363ffffffff1660e01b8152600401610e52929190612337565b6020604051808303816000875af1158015610e71573d6000803e3d6000fd5b505050506040513d601f19601f82011682018060405250810190610e95919061239c565b508173ffffffffffffffffffffffffffffffffffffffff1663095ea7b330836040518363ffffffff1660e01b8152600401610ed1929190612337565b6020604051808303816000875af1158015610ef0573d6000803e3d6000fd5b505050506040513d601f19601f82011682018060405250810190610f149190612267565b50610f6430600360009054906101000a900473ffffffffffffffffffffffffffffffffffffffff16838573ffffffffffffffffffffffffffffffffffffffff16611600909392919063ffffffff16565b3373ffffffffffffffffffffffffffffffffffffffff168273ffffffffffffffffffffffffffffffffffffffff167f6d45cc590722b80b4d04bfde236db12ba92032c51cf7a3e3a97c60d325018a5f83604051610fc19190611d80565b60405180910390a35050565b6000600360009054906101000a900473ffffffffffffffffffffffffffffffffffffffff1673ffffffffffffffffffffffffffffffffffffffff1663f2866c78836040518263ffffffff1660e01b815260040161102a9190611f0c565b6020604051808303816000875af1158015611049573d6000803e3d6000fd5b505050506040513d601f19601f8201168201806040525081019061106d9190611f3c565b9050919050565b61107d8261037e565b61108e816110896111ad565b6111b5565b6110988383611332565b505050565b6000801b6110b2816110ad6111ad565b6111b5565b600360009054906101000a900473ffffffffffffffffffffffffffffffffffffffff1673ffffffffffffffffffffffffffffffffffffffff1663d914cd4b836040518263ffffffff1660e01b815260040161110d9190611f0c565b600060405180830381600087803b15801561112757600080fd5b505af115801561113b573d6000803e3d6000fd5b505050505050565b60007f01ffc9a7000000000000000000000000000000000000000000000000000000007bffffffffffffffffffffffffffffffffffffffffffffffffffffffff1916827bffffffffffffffffffffffffffffffffffffffffffffffffffffffff1916149050919050565b600033905090565b6111bf8282610ce4565b61124e576111e48173ffffffffffffffffffffffffffffffffffffffff166014611689565b6111f28360001c6020611689565b6040516020016112039291906125aa565b6040516020818303038152906040526040517f08c379a0000000000000000000000000000000000000000000000000000000008152600401611245919061261d565b60405180910390fd5b5050565b61125c8282610ce4565b61132e57600160008084815260200190815260200160002060000160008373ffffffffffffffffffffffffffffffffffffffff1673ffffffffffffffffffffffffffffffffffffffff16815260200190815260200160002060006101000a81548160ff0219169083151502179055506112d36111ad565b73ffffffffffffffffffffffffffffffffffffffff168173ffffffffffffffffffffffffffffffffffffffff16837f2f8788117e7eff1d82e926ec794901d17c78024a50270940304540a733656f0d60405160405180910390a45b5050565b61133c8282610ce4565b1561140f57600080600084815260200190815260200160002060000160008373ffffffffffffffffffffffffffffffffffffffff1673ffffffffffffffffffffffffffffffffffffffff16815260200190815260200160002060006101000a81548160ff0219169083151502179055506113b46111ad565b73ffffffffffffffffffffffffffffffffffffffff168173ffffffffffffffffffffffffffffffffffffffff16837ff6391f5c32d9c69d2a47ea670b442974b53935d1edc7fd64eb21e047a839171b60405160405180910390a45b5050565b61141b611b32565b600360009054906101000a900473ffffffffffffffffffffffffffffffffffffffff16600260006101000a81548173ffffffffffffffffffffffffffffffffffffffff021916908373ffffffffffffffffffffffffffffffffffffffff1602179055506000600260009054906101000a900473ffffffffffffffffffffffffffffffffffffffff1673ffffffffffffffffffffffffffffffffffffffff16638ed7333d85856040518363ffffffff1660e01b81526004016114dd929190612337565b6020604051808303816000875af11580156114fc573d6000803e3d6000fd5b505050506040513d601f19601f82011682018060405250810190611520919061239c565b90508373ffffffffffffffffffffffffffffffffffffffff167f2f4ae87a584f00dc35b043dd1c5ac839c1f41cd3a66e834d4e13faa6251634e6846040516115689190611d80565b60405180910390a28091505092915050565b6115fb8363a9059cbb60e01b8484604051602401611599929190612337565b604051602081830303815290604052907bffffffffffffffffffffffffffffffffffffffffffffffffffffffff19166020820180517bffffffffffffffffffffffffffffffffffffffffffffffffffffffff83818316178352505050506118c5565b505050565b611683846323b872dd60e01b85858560405160240161162193929190612300565b604051602081830303815290604052907bffffffffffffffffffffffffffffffffffffffffffffffffffffffff19166020820180517bffffffffffffffffffffffffffffffffffffffffffffffffffffffff83818316178352505050506118c5565b50505050565b60606000600283600261169c919061212b565b6116a69190612185565b67ffffffffffffffff8111156116bf576116be611fa8565b5b6040519080825280601f01601f1916602001820160405280156116f15781602001600182028036833780820191505090505b5090507f3000000000000000000000000000000000000000000000000000000000000000816000815181106117295761172861263f565b5b60200101907effffffffffffffffffffffffffffffffffffffffffffffffffffffffffffff1916908160001a9053507f78000000000000000000000000000000000000000000000000000000000000008160018151811061178d5761178c61263f565b5b60200101907effffffffffffffffffffffffffffffffffffffffffffffffffffffffffffff1916908160001a905350600060018460026117cd919061212b565b6117d79190612185565b90505b6001811115611877577f3031323334353637383961626364656600000000000000000000000000000000600f8616601081106118195761181861263f565b5b1a60f81b8282815181106118305761182f61263f565b5b60200101907effffffffffffffffffffffffffffffffffffffffffffffffffffffffffffff1916908160001a905350600485901c9450806118709061266e565b90506117da565b50600084146118bb576040517f08c379a00000000000000000000000000000000000000000000000000000000081526004016118b2906126e4565b60405180910390fd5b8091505092915050565b6000611927826040518060400160405280602081526020017f5361666545524332303a206c6f772d6c6576656c2063616c6c206661696c65648152508573ffffffffffffffffffffffffffffffffffffffff1661198c9092919063ffffffff16565b905060008151111561198757808060200190518101906119479190612267565b611986576040517f08c379a000000000000000000000000000000000000000000000000000000000815260040161197d90612776565b60405180910390fd5b5b505050565b606061199b84846000856119a4565b90509392505050565b6060824710156119e9576040517f08c379a00000000000000000000000000000000000000000000000000000000081526004016119e090612808565b60405180910390fd5b6119f285611ab8565b611a31576040517f08c379a0000000000000000000000000000000000000000000000000000000008152600401611a2890612874565b60405180910390fd5b6000808673ffffffffffffffffffffffffffffffffffffffff168587604051611a5a91906128db565b60006040518083038185875af1925050503d8060008114611a97576040519150601f19603f3d011682016040523d82523d6000602084013e611a9c565b606091505b5091509150611aac828286611acb565b92505050949350505050565b600080823b905060008111915050919050565b60608315611adb57829050611b2b565b600083511115611aee5782518084602001fd5b816040517f08c379a0000000000000000000000000000000000000000000000000000000008152600401611b22919061261d565b60405180910390fd5b9392505050565b6040518060200160405280600081525090565b6000604051905090565b600080fd5b60007fffffffff0000000000000000000000000000000000000000000000000000000082169050919050565b611b8981611b54565b8114611b9457600080fd5b50565b600081359050611ba681611b80565b92915050565b600060208284031215611bc257611bc1611b4f565b5b6000611bd084828501611b97565b91505092915050565b60008115159050919050565b611bee81611bd9565b82525050565b6000602082019050611c096000830184611be5565b92915050565b6000819050919050565b611c2281611c0f565b8114611c2d57600080fd5b50565b600081359050611c3f81611c19565b92915050565b600060208284031215611c5b57611c5a611b4f565b5b6000611c6984828501611c30565b91505092915050565b611c7b81611c0f565b82525050565b6000602082019050611c966000830184611c72565b92915050565b600073ffffffffffffffffffffffffffffffffffffffff82169050919050565b6000611cc782611c9c565b9050919050565b611cd781611cbc565b8114611ce257600080fd5b50565b600081359050611cf481611cce565b92915050565b60008060408385031215611d1157611d10611b4f565b5b6000611d1f85828601611c30565b9250506020611d3085828601611ce5565b9150509250929050565b600060208284031215611d5057611d4f611b4f565b5b6000611d5e84828501611ce5565b91505092915050565b6000819050919050565b611d7a81611d67565b82525050565b6000602082019050611d956000830184611d71565b92915050565b611da481611d67565b8114611daf57600080fd5b50565b600081359050611dc181611d9b565b92915050565b60008060408385031215611dde57611ddd611b4f565b5b6000611dec85828601611ce5565b9250506020611dfd85828601611db2565b9150509250929050565b600080600060608486031215611e2057611e1f611b4f565b5b6000611e2e86828701611ce5565b9350506020611e3f86828701611db2565b9250506040611e5086828701611db2565b9150509250925092565b600082825260208201905092915050565b7f416363657373436f6e74726f6c3a2063616e206f6e6c792072656e6f756e636560008201527f20726f6c657320666f722073656c660000000000000000000000000000000000602082015250565b6000611ec7602f83611e5a565b9150611ed282611e6b565b604082019050919050565b60006020820190508181036000830152611ef681611eba565b9050919050565b611f0681611cbc565b82525050565b6000602082019050611f216000830184611efd565b92915050565b600081519050611f3681611d9b565b92915050565b600060208284031215611f5257611f51611b4f565b5b6000611f6084828501611f27565b91505092915050565b6000604082019050611f7e6000830185611efd565b611f8b6020830184611efd565b9392505050565b600080fd5b6000601f19601f8301169050919050565b7f4e487b7100000000000000000000000000000000000000000000000000000000600052604160045260246000fd5b611fe082611f97565b810181811067ffffffffffffffff82111715611fff57611ffe611fa8565b5b80604052505050565b6000612012611b45565b905061201e8282611fd7565b919050565b60006080828403121561203957612038611f92565b5b6120436080612008565b9050600061205384828501611f27565b600083015250602061206784828501611f27565b602083015250604061207b84828501611f27565b604083015250606061208f84828501611f27565b60608301525092915050565b6000608082840312156120b1576120b0611b4f565b5b60006120bf84828501612023565b91505092915050565b7f4e487b7100000000000000000000000000000000000000000000000000000000600052601160045260246000fd5b600061210282611d67565b915061210d83611d67565b9250828210156121205761211f6120c8565b5b828203905092915050565b600061213682611d67565b915061214183611d67565b9250817fffffffffffffffffffffffffffffffffffffffffffffffffffffffffffffffff048311821515161561217a576121796120c8565b5b828202905092915050565b600061219082611d67565b915061219b83611d67565b9250827fffffffffffffffffffffffffffffffffffffffffffffffffffffffffffffffff038211156121d0576121cf6120c8565b5b828201905092915050565b7f4e487b7100000000000000000000000000000000000000000000000000000000600052601260045260246000fd5b600061221582611d67565b915061222083611d67565b9250826122305761222f6121db565b5b828204905092915050565b61224481611bd9565b811461224f57600080fd5b50565b6000815190506122618161223b565b92915050565b60006020828403121561227d5761227c611b4f565b5b600061228b84828501612252565b91505092915050565b7f506f6f6c20646f6573206e6f7420657869737400000000000000000000000000600082015250565b60006122ca601383611e5a565b91506122d582612294565b602082019050919050565b600060208201905081810360008301526122f9816122bd565b9050919050565b60006060820190506123156000830186611efd565b6123226020830185611efd565b61232f6040830184611d71565b949350505050565b600060408201905061234c6000830185611efd565b6123596020830184611d71565b9392505050565b60006020828403121561237657612375611f92565b5b6123806020612008565b9050600061239084828501611f27565b60008301525092915050565b6000602082840312156123b2576123b1611b4f565b5b60006123c084828501612360565b91505092915050565b6000819050919050565b6000819050919050565b60006123f86123f36123ee846123c9565b6123d3565b611d67565b9050919050565b612408816123dd565b82525050565b60006080820190506124236000830187611efd565b6124306020830186611efd565b61243d60408301856123ff565b61244a6060830184611d71565b95945050505050565b60006080820190506124686000830187611efd565b6124756020830186611efd565b6124826040830185611d71565b61248f6060830184611d71565b95945050505050565b600081905092915050565b7f416363657373436f6e74726f6c3a206163636f756e7420000000000000000000600082015250565b60006124d9601783612498565b91506124e4826124a3565b601782019050919050565b600081519050919050565b60005b838110156125185780820151818401526020810190506124fd565b83811115612527576000848401525b50505050565b6000612538826124ef565b6125428185612498565b93506125528185602086016124fa565b80840191505092915050565b7f206973206d697373696e6720726f6c6520000000000000000000000000000000600082015250565b6000612594601183612498565b915061259f8261255e565b601182019050919050565b60006125b5826124cc565b91506125c1828561252d565b91506125cc82612587565b91506125d8828461252d565b91508190509392505050565b60006125ef826124ef565b6125f98185611e5a565b93506126098185602086016124fa565b61261281611f97565b840191505092915050565b6000602082019050818103600083015261263781846125e4565b905092915050565b7f4e487b7100000000000000000000000000000000000000000000000000000000600052603260045260246000fd5b600061267982611d67565b9150600082141561268d5761268c6120c8565b5b600182039050919050565b7f537472696e67733a20686578206c656e67746820696e73756666696369656e74600082015250565b60006126ce602083611e5a565b91506126d982612698565b602082019050919050565b600060208201905081810360008301526126fd816126c1565b9050919050565b7f5361666545524332303a204552433230206f7065726174696f6e20646964206e60008201527f6f74207375636365656400000000000000000000000000000000000000000000602082015250565b6000612760602a83611e5a565b915061276b82612704565b604082019050919050565b6000602082019050818103600083015261278f81612753565b9050919050565b7f416464726573733a20696e73756666696369656e742062616c616e636520666f60008201527f722063616c6c0000000000000000000000000000000000000000000000000000602082015250565b60006127f2602683611e5a565b91506127fd82612796565b604082019050919050565b60006020820190508181036000830152612821816127e5565b9050919050565b7f416464726573733a2063616c6c20746f206e6f6e2d636f6e7472616374000000600082015250565b600061285e601d83611e5a565b915061286982612828565b602082019050919050565b6000602082019050818103600083015261288d81612851565b9050919050565b600081519050919050565b600081905092915050565b60006128b582612894565b6128bf818561289f565b93506128cf8185602086016124fa565b80840191505092915050565b60006128e782846128aa565b91508190509291505056fea26469706673582212200e33814a3483ef081e772f27d02953f5349b75626e122900144766d0d61e2f4364736f6c634300080b0033",
  "linkReferences": {},
  "deployedLinkReferences": {}
}