{
  "_format": "hh-sol-artifact-1",
  "contractName": "RevenueController",
  "sourceName": "contracts/treasury/RevenueController.sol",
  "abi": [
    {
      "inputs": [
        {
          "internalType": "address",
          "name": "_capl",
          "type": "address"
        },
        {
          "internalType": "address",
          "name": "_treasuryStorage",
          "type": "address"
        },
        {
          "internalType": "address",
          "name": "_treasuryFund",
          "type": "address"
        }
      ],
      "stateMutability": "nonpayable",
      "type": "constructor"
    },
    {
      "anonymous": false,
      "inputs": [
        {
          "indexed": true,
          "internalType": "bytes32",
          "name": "role",
          "type": "bytes32"
        },
        {
          "indexed": true,
          "internalType": "bytes32",
          "name": "previousAdminRole",
          "type": "bytes32"
        },
        {
          "indexed": true,
          "internalType": "bytes32",
          "name": "newAdminRole",
          "type": "bytes32"
        }
      ],
      "name": "RoleAdminChanged",
      "type": "event"
    },
    {
      "anonymous": false,
      "inputs": [
        {
          "indexed": true,
          "internalType": "bytes32",
          "name": "role",
          "type": "bytes32"
        },
        {
          "indexed": true,
          "internalType": "address",
          "name": "account",
          "type": "address"
        },
        {
          "indexed": true,
          "internalType": "address",
          "name": "sender",
          "type": "address"
        }
      ],
      "name": "RoleGranted",
      "type": "event"
    },
    {
      "anonymous": false,
      "inputs": [
        {
          "indexed": true,
          "internalType": "bytes32",
          "name": "role",
          "type": "bytes32"
        },
        {
          "indexed": true,
          "internalType": "address",
          "name": "account",
          "type": "address"
        },
        {
          "indexed": true,
          "internalType": "address",
          "name": "sender",
          "type": "address"
        }
      ],
      "name": "RoleRevoked",
      "type": "event"
    },
    {
      "inputs": [],
      "name": "DEFAULT_ADMIN_ROLE",
      "outputs": [
        {
          "internalType": "bytes32",
          "name": "",
          "type": "bytes32"
        }
      ],
      "stateMutability": "view",
      "type": "function"
    },
    {
      "inputs": [],
      "name": "getCAPLAlloc",
      "outputs": [],
      "stateMutability": "nonpayable",
      "type": "function"
    },
    {
      "inputs": [
        {
          "internalType": "bytes32",
          "name": "role",
          "type": "bytes32"
        }
      ],
      "name": "getRoleAdmin",
      "outputs": [
        {
          "internalType": "bytes32",
          "name": "",
          "type": "bytes32"
        }
      ],
      "stateMutability": "view",
      "type": "function"
    },
    {
      "inputs": [
        {
          "internalType": "bytes32",
          "name": "role",
          "type": "bytes32"
        },
        {
          "internalType": "address",
          "name": "account",
          "type": "address"
        }
      ],
      "name": "grantRole",
      "outputs": [],
      "stateMutability": "nonpayable",
      "type": "function"
    },
    {
      "inputs": [
        {
          "internalType": "bytes32",
          "name": "role",
          "type": "bytes32"
        },
        {
          "internalType": "address",
          "name": "account",
          "type": "address"
        }
      ],
      "name": "hasRole",
      "outputs": [
        {
          "internalType": "bool",
          "name": "",
          "type": "bool"
        }
      ],
      "stateMutability": "view",
      "type": "function"
    },
    {
      "inputs": [
        {
          "internalType": "bytes32",
          "name": "role",
          "type": "bytes32"
        },
        {
          "internalType": "address",
          "name": "account",
          "type": "address"
        }
      ],
      "name": "renounceRole",
      "outputs": [],
      "stateMutability": "nonpayable",
      "type": "function"
    },
    {
      "inputs": [
        {
          "internalType": "bytes32",
          "name": "role",
          "type": "bytes32"
        },
        {
          "internalType": "address",
          "name": "account",
          "type": "address"
        }
      ],
      "name": "revokeRole",
      "outputs": [],
      "stateMutability": "nonpayable",
      "type": "function"
    },
    {
      "inputs": [
        {
          "internalType": "address",
          "name": "_destination",
          "type": "address"
        }
      ],
      "name": "setTreasuryFund",
      "outputs": [],
      "stateMutability": "nonpayable",
      "type": "function"
    },
    {
      "inputs": [
        {
          "internalType": "address",
          "name": "_destination",
          "type": "address"
        }
      ],
      "name": "setTreasuryStorage",
      "outputs": [],
      "stateMutability": "nonpayable",
      "type": "function"
    },
    {
      "inputs": [
        {
          "internalType": "bytes4",
          "name": "interfaceId",
          "type": "bytes4"
        }
      ],
      "name": "supportsInterface",
      "outputs": [
        {
          "internalType": "bool",
          "name": "",
          "type": "bool"
        }
      ],
      "stateMutability": "view",
      "type": "function"
    },
    {
      "inputs": [
        {
          "internalType": "address",
          "name": "_token",
          "type": "address"
        },
        {
          "internalType": "uint256",
          "name": "_principal",
          "type": "uint256"
        },
        {
          "internalType": "uint256",
          "name": "_profit",
          "type": "uint256"
        }
      ],
      "name": "treasuryIncome",
      "outputs": [],
      "stateMutability": "nonpayable",
      "type": "function"
    }
  ],
  "bytecode": "0x60806040523480156200001157600080fd5b50604051620018da380380620018da83398181016040528101906200003791906200016d565b82600160006101000a81548173ffffffffffffffffffffffffffffffffffffffff021916908373ffffffffffffffffffffffffffffffffffffffff16021790555081600260006101000a81548173ffffffffffffffffffffffffffffffffffffffff021916908373ffffffffffffffffffffffffffffffffffffffff16021790555080600360006101000a81548173ffffffffffffffffffffffffffffffffffffffff021916908373ffffffffffffffffffffffffffffffffffffffff160217905550505050620001c9565b600080fd5b600073ffffffffffffffffffffffffffffffffffffffff82169050919050565b6000620001358262000108565b9050919050565b620001478162000128565b81146200015357600080fd5b50565b60008151905062000167816200013c565b92915050565b60008060006060848603121562000189576200018862000103565b5b6000620001998682870162000156565b9350506020620001ac8682870162000156565b9250506040620001bf8682870162000156565b9150509250925092565b61170180620001d96000396000f3fe608060405234801561001057600080fd5b50600436106100a95760003560e01c8063542e884311610071578063542e8843146101505780638b467cd21461016c57806391d1485414610188578063a217fddf146101b8578063d547741f146101d6578063f746b718146101f2576100a9565b806301ffc9a7146100ae578063248a9ca3146100de5780632f2ff15d1461010e578063357a99171461012a57806336568abe14610134575b600080fd5b6100c860048036038101906100c39190610d94565b61020e565b6040516100d59190610ddc565b60405180910390f35b6100f860048036038101906100f39190610e2d565b610288565b6040516101059190610e69565b60405180910390f35b61012860048036038101906101239190610ee2565b6102a7565b005b6101326102d0565b005b61014e60048036038101906101499190610ee2565b6102d2565b005b61016a60048036038101906101659190610f58565b610355565b005b61018660048036038101906101819190610fab565b610416565b005b6101a2600480360381019061019d9190610ee2565b61045a565b6040516101af9190610ddc565b60405180910390f35b6101c06104c4565b6040516101cd9190610e69565b60405180910390f35b6101f060048036038101906101eb9190610ee2565b6104cb565b005b61020c60048036038101906102079190610fab565b6104f4565b005b60007f7965db0b000000000000000000000000000000000000000000000000000000007bffffffffffffffffffffffffffffffffffffffffffffffffffffffff1916827bffffffffffffffffffffffffffffffffffffffffffffffffffffffff19161480610281575061028082610538565b5b9050919050565b6000806000838152602001908152602001600020600101549050919050565b6102b082610288565b6102c1816102bc6105a2565b6105aa565b6102cb8383610647565b505050565b565b6102da6105a2565b73ffffffffffffffffffffffffffffffffffffffff168173ffffffffffffffffffffffffffffffffffffffff1614610347576040517f08c379a000000000000000000000000000000000000000000000000000000000815260040161033e9061105b565b60405180910390fd5b6103518282610727565b5050565b600260009054906101000a900473ffffffffffffffffffffffffffffffffffffffff1673ffffffffffffffffffffffffffffffffffffffff16633e0a56183385856040518463ffffffff1660e01b81526004016103b493929190611099565b600060405180830381600087803b1580156103ce57600080fd5b505af11580156103e2573d6000803e3d6000fd5b5050505061041130828573ffffffffffffffffffffffffffffffffffffffff166108089092919063ffffffff16565b505050565b80600260006101000a81548173ffffffffffffffffffffffffffffffffffffffff021916908373ffffffffffffffffffffffffffffffffffffffff16021790555050565b600080600084815260200190815260200160002060000160008373ffffffffffffffffffffffffffffffffffffffff1673ffffffffffffffffffffffffffffffffffffffff16815260200190815260200160002060009054906101000a900460ff16905092915050565b6000801b81565b6104d482610288565b6104e5816104e06105a2565b6105aa565b6104ef8383610727565b505050565b80600360006101000a81548173ffffffffffffffffffffffffffffffffffffffff021916908373ffffffffffffffffffffffffffffffffffffffff16021790555050565b60007f01ffc9a7000000000000000000000000000000000000000000000000000000007bffffffffffffffffffffffffffffffffffffffffffffffffffffffff1916827bffffffffffffffffffffffffffffffffffffffffffffffffffffffff1916149050919050565b600033905090565b6105b4828261045a565b610643576105d98173ffffffffffffffffffffffffffffffffffffffff16601461088e565b6105e78360001c602061088e565b6040516020016105f89291906111e2565b6040516020818303038152906040526040517f08c379a000000000000000000000000000000000000000000000000000000000815260040161063a9190611266565b60405180910390fd5b5050565b610651828261045a565b61072357600160008084815260200190815260200160002060000160008373ffffffffffffffffffffffffffffffffffffffff1673ffffffffffffffffffffffffffffffffffffffff16815260200190815260200160002060006101000a81548160ff0219169083151502179055506106c86105a2565b73ffffffffffffffffffffffffffffffffffffffff168173ffffffffffffffffffffffffffffffffffffffff16837f2f8788117e7eff1d82e926ec794901d17c78024a50270940304540a733656f0d60405160405180910390a45b5050565b610731828261045a565b1561080457600080600084815260200190815260200160002060000160008373ffffffffffffffffffffffffffffffffffffffff1673ffffffffffffffffffffffffffffffffffffffff16815260200190815260200160002060006101000a81548160ff0219169083151502179055506107a96105a2565b73ffffffffffffffffffffffffffffffffffffffff168173ffffffffffffffffffffffffffffffffffffffff16837ff6391f5c32d9c69d2a47ea670b442974b53935d1edc7fd64eb21e047a839171b60405160405180910390a45b5050565b6108898363a9059cbb60e01b8484604051602401610827929190611288565b604051602081830303815290604052907bffffffffffffffffffffffffffffffffffffffffffffffffffffffff19166020820180517bffffffffffffffffffffffffffffffffffffffffffffffffffffffff8381831617835250505050610aca565b505050565b6060600060028360026108a191906112e0565b6108ab919061133a565b67ffffffffffffffff8111156108c4576108c3611390565b5b6040519080825280601f01601f1916602001820160405280156108f65781602001600182028036833780820191505090505b5090507f30000000000000000000000000000000000000000000000000000000000000008160008151811061092e5761092d6113bf565b5b60200101907effffffffffffffffffffffffffffffffffffffffffffffffffffffffffffff1916908160001a9053507f780000000000000000000000000000000000000000000000000000000000000081600181518110610992576109916113bf565b5b60200101907effffffffffffffffffffffffffffffffffffffffffffffffffffffffffffff1916908160001a905350600060018460026109d291906112e0565b6109dc919061133a565b90505b6001811115610a7c577f3031323334353637383961626364656600000000000000000000000000000000600f861660108110610a1e57610a1d6113bf565b5b1a60f81b828281518110610a3557610a346113bf565b5b60200101907effffffffffffffffffffffffffffffffffffffffffffffffffffffffffffff1916908160001a905350600485901c945080610a75906113ee565b90506109df565b5060008414610ac0576040517f08c379a0000000000000000000000000000000000000000000000000000000008152600401610ab790611464565b60405180910390fd5b8091505092915050565b6000610b2c826040518060400160405280602081526020017f5361666545524332303a206c6f772d6c6576656c2063616c6c206661696c65648152508573ffffffffffffffffffffffffffffffffffffffff16610b919092919063ffffffff16565b9050600081511115610b8c5780806020019051810190610b4c91906114b0565b610b8b576040517f08c379a0000000000000000000000000000000000000000000000000000000008152600401610b829061154f565b60405180910390fd5b5b505050565b6060610ba08484600085610ba9565b90509392505050565b606082471015610bee576040517f08c379a0000000000000000000000000000000000000000000000000000000008152600401610be5906115e1565b60405180910390fd5b610bf785610cbd565b610c36576040517f08c379a0000000000000000000000000000000000000000000000000000000008152600401610c2d9061164d565b60405180910390fd5b6000808673ffffffffffffffffffffffffffffffffffffffff168587604051610c5f91906116b4565b60006040518083038185875af1925050503d8060008114610c9c576040519150601f19603f3d011682016040523d82523d6000602084013e610ca1565b606091505b5091509150610cb1828286610cd0565b92505050949350505050565b600080823b905060008111915050919050565b60608315610ce057829050610d30565b600083511115610cf35782518084602001fd5b816040517f08c379a0000000000000000000000000000000000000000000000000000000008152600401610d279190611266565b60405180910390fd5b9392505050565b600080fd5b60007fffffffff0000000000000000000000000000000000000000000000000000000082169050919050565b610d7181610d3c565b8114610d7c57600080fd5b50565b600081359050610d8e81610d68565b92915050565b600060208284031215610daa57610da9610d37565b5b6000610db884828501610d7f565b91505092915050565b60008115159050919050565b610dd681610dc1565b82525050565b6000602082019050610df16000830184610dcd565b92915050565b6000819050919050565b610e0a81610df7565b8114610e1557600080fd5b50565b600081359050610e2781610e01565b92915050565b600060208284031215610e4357610e42610d37565b5b6000610e5184828501610e18565b91505092915050565b610e6381610df7565b82525050565b6000602082019050610e7e6000830184610e5a565b92915050565b600073ffffffffffffffffffffffffffffffffffffffff82169050919050565b6000610eaf82610e84565b9050919050565b610ebf81610ea4565b8114610eca57600080fd5b50565b600081359050610edc81610eb6565b92915050565b60008060408385031215610ef957610ef8610d37565b5b6000610f0785828601610e18565b9250506020610f1885828601610ecd565b9150509250929050565b6000819050919050565b610f3581610f22565b8114610f4057600080fd5b50565b600081359050610f5281610f2c565b92915050565b600080600060608486031215610f7157610f70610d37565b5b6000610f7f86828701610ecd565b9350506020610f9086828701610f43565b9250506040610fa186828701610f43565b9150509250925092565b600060208284031215610fc157610fc0610d37565b5b6000610fcf84828501610ecd565b91505092915050565b600082825260208201905092915050565b7f416363657373436f6e74726f6c3a2063616e206f6e6c792072656e6f756e636560008201527f20726f6c657320666f722073656c660000000000000000000000000000000000602082015250565b6000611045602f83610fd8565b915061105082610fe9565b604082019050919050565b6000602082019050818103600083015261107481611038565b9050919050565b61108481610ea4565b82525050565b61109381610f22565b82525050565b60006060820190506110ae600083018661107b565b6110bb602083018561107b565b6110c8604083018461108a565b949350505050565b600081905092915050565b7f416363657373436f6e74726f6c3a206163636f756e7420000000000000000000600082015250565b60006111116017836110d0565b915061111c826110db565b601782019050919050565b600081519050919050565b60005b83811015611150578082015181840152602081019050611135565b8381111561115f576000848401525b50505050565b600061117082611127565b61117a81856110d0565b935061118a818560208601611132565b80840191505092915050565b7f206973206d697373696e6720726f6c6520000000000000000000000000000000600082015250565b60006111cc6011836110d0565b91506111d782611196565b601182019050919050565b60006111ed82611104565b91506111f98285611165565b9150611204826111bf565b91506112108284611165565b91508190509392505050565b6000601f19601f8301169050919050565b600061123882611127565b6112428185610fd8565b9350611252818560208601611132565b61125b8161121c565b840191505092915050565b60006020820190508181036000830152611280818461122d565b905092915050565b600060408201905061129d600083018561107b565b6112aa602083018461108a565b9392505050565b7f4e487b7100000000000000000000000000000000000000000000000000000000600052601160045260246000fd5b60006112eb82610f22565b91506112f683610f22565b9250817fffffffffffffffffffffffffffffffffffffffffffffffffffffffffffffffff048311821515161561132f5761132e6112b1565b5b828202905092915050565b600061134582610f22565b915061135083610f22565b9250827fffffffffffffffffffffffffffffffffffffffffffffffffffffffffffffffff03821115611385576113846112b1565b5b828201905092915050565b7f4e487b7100000000000000000000000000000000000000000000000000000000600052604160045260246000fd5b7f4e487b7100000000000000000000000000000000000000000000000000000000600052603260045260246000fd5b60006113f982610f22565b9150600082141561140d5761140c6112b1565b5b600182039050919050565b7f537472696e67733a20686578206c656e67746820696e73756666696369656e74600082015250565b600061144e602083610fd8565b915061145982611418565b602082019050919050565b6000602082019050818103600083015261147d81611441565b9050919050565b61148d81610dc1565b811461149857600080fd5b50565b6000815190506114aa81611484565b92915050565b6000602082840312156114c6576114c5610d37565b5b60006114d48482850161149b565b91505092915050565b7f5361666545524332303a204552433230206f7065726174696f6e20646964206e60008201527f6f74207375636365656400000000000000000000000000000000000000000000602082015250565b6000611539602a83610fd8565b9150611544826114dd565b604082019050919050565b600060208201905081810360008301526115688161152c565b9050919050565b7f416464726573733a20696e73756666696369656e742062616c616e636520666f60008201527f722063616c6c0000000000000000000000000000000000000000000000000000602082015250565b60006115cb602683610fd8565b91506115d68261156f565b604082019050919050565b600060208201905081810360008301526115fa816115be565b9050919050565b7f416464726573733a2063616c6c20746f206e6f6e2d636f6e7472616374000000600082015250565b6000611637601d83610fd8565b915061164282611601565b602082019050919050565b600060208201905081810360008301526116668161162a565b9050919050565b600081519050919050565b600081905092915050565b600061168e8261166d565b6116988185611678565b93506116a8818560208601611132565b80840191505092915050565b60006116c08284611683565b91508190509291505056fea2646970667358221220cb1f75276343946b46b57ae6ac9b3098e29fddba9d1c461257c0dbdb317237cd64736f6c634300080b0033",
  "linkReferences": {},
  "deployedLinkReferences": {}
}