{
  "_format": "hh-sol-artifact-1",
  "contractName": "Vault",
  "sourceName": "contracts/Vault.sol",
  "abi": [
    {
      "inputs": [
        {
          "internalType": "address",
          "name": "_capl",
          "type": "address"
        }
      ],
      "stateMutability": "nonpayable",
      "type": "constructor"
    },
    {
      "anonymous": false,
      "inputs": [
        {
          "indexed": false,
          "internalType": "address",
          "name": "account",
          "type": "address"
        }
      ],
      "name": "Paused",
      "type": "event"
    },
    {
      "anonymous": false,
      "inputs": [
        {
          "indexed": true,
          "internalType": "bytes32",
          "name": "role",
          "type": "bytes32"
        },
        {
          "indexed": true,
          "internalType": "bytes32",
          "name": "previousAdminRole",
          "type": "bytes32"
        },
        {
          "indexed": true,
          "internalType": "bytes32",
          "name": "newAdminRole",
          "type": "bytes32"
        }
      ],
      "name": "RoleAdminChanged",
      "type": "event"
    },
    {
      "anonymous": false,
      "inputs": [
        {
          "indexed": true,
          "internalType": "bytes32",
          "name": "role",
          "type": "bytes32"
        },
        {
          "indexed": true,
          "internalType": "address",
          "name": "account",
          "type": "address"
        },
        {
          "indexed": true,
          "internalType": "address",
          "name": "sender",
          "type": "address"
        }
      ],
      "name": "RoleGranted",
      "type": "event"
    },
    {
      "anonymous": false,
      "inputs": [
        {
          "indexed": true,
          "internalType": "bytes32",
          "name": "role",
          "type": "bytes32"
        },
        {
          "indexed": true,
          "internalType": "address",
          "name": "account",
          "type": "address"
        },
        {
          "indexed": true,
          "internalType": "address",
          "name": "sender",
          "type": "address"
        }
      ],
      "name": "RoleRevoked",
      "type": "event"
    },
    {
      "anonymous": false,
      "inputs": [
        {
          "indexed": false,
          "internalType": "address",
          "name": "account",
          "type": "address"
        }
      ],
      "name": "Unpaused",
      "type": "event"
    },
    {
      "inputs": [],
      "name": "DEFAULT_ADMIN_ROLE",
      "outputs": [
        {
          "internalType": "bytes32",
          "name": "",
          "type": "bytes32"
        }
      ],
      "stateMutability": "view",
      "type": "function"
    },
    {
      "inputs": [
        {
          "internalType": "address",
          "name": "_lp",
          "type": "address"
        }
      ],
      "name": "addPool",
      "outputs": [],
      "stateMutability": "nonpayable",
      "type": "function"
    },
    {
      "inputs": [],
      "name": "capl",
      "outputs": [
        {
          "internalType": "address",
          "name": "",
          "type": "address"
        }
      ],
      "stateMutability": "view",
      "type": "function"
    },
    {
      "inputs": [
        {
          "internalType": "address",
          "name": "_lp",
          "type": "address"
        },
        {
          "internalType": "uint256",
          "name": "_amount",
          "type": "uint256"
        }
      ],
      "name": "depositStake",
      "outputs": [],
      "stateMutability": "nonpayable",
      "type": "function"
    },
    {
      "inputs": [
        {
          "internalType": "uint256",
          "name": "id",
          "type": "uint256"
        }
      ],
      "name": "getPoolInfo",
      "outputs": [
        {
          "components": [
            {
              "internalType": "uint256",
              "name": "totalRewards",
              "type": "uint256"
            },
            {
              "internalType": "uint256",
              "name": "totalUsers",
              "type": "uint256"
            },
            {
              "internalType": "uint256",
              "name": "averageRewardsPerUser",
              "type": "uint256"
            }
          ],
          "internalType": "struct Vault.Pool",
          "name": "",
          "type": "tuple"
        }
      ],
      "stateMutability": "nonpayable",
      "type": "function"
    },
    {
      "inputs": [],
      "name": "getPools",
      "outputs": [
        {
          "components": [
            {
              "internalType": "uint256",
              "name": "totalRewards",
              "type": "uint256"
            },
            {
              "internalType": "uint256",
              "name": "totalUsers",
              "type": "uint256"
            },
            {
              "internalType": "uint256",
              "name": "averageRewardsPerUser",
              "type": "uint256"
            }
          ],
          "internalType": "struct Vault.Pool[]",
          "name": "",
          "type": "tuple[]"
        }
      ],
      "stateMutability": "nonpayable",
      "type": "function"
    },
    {
      "inputs": [
        {
          "internalType": "bytes32",
          "name": "role",
          "type": "bytes32"
        }
      ],
      "name": "getRoleAdmin",
      "outputs": [
        {
          "internalType": "bytes32",
          "name": "",
          "type": "bytes32"
        }
      ],
      "stateMutability": "view",
      "type": "function"
    },
    {
      "inputs": [],
      "name": "getUserInfo",
      "outputs": [
        {
          "components": [
            {
              "internalType": "uint256",
              "name": "pendingRewards",
              "type": "uint256"
            },
            {
              "internalType": "uint256",
              "name": "rewardDebt",
              "type": "uint256"
            },
            {
              "internalType": "uint256",
              "name": "claimedRewards",
              "type": "uint256"
            },
            {
              "components": [
                {
                  "internalType": "address",
                  "name": "lp",
                  "type": "address"
                },
                {
                  "internalType": "uint256",
                  "name": "lpAmount",
                  "type": "uint256"
                },
                {
                  "internalType": "uint256",
                  "name": "startBlock",
                  "type": "uint256"
                },
                {
                  "internalType": "uint256",
                  "name": "lastClaimBlock",
                  "type": "uint256"
                },
                {
                  "internalType": "bool",
                  "name": "externalLock",
                  "type": "bool"
                },
                {
                  "internalType": "bool",
                  "name": "active",
                  "type": "bool"
                }
              ],
              "internalType": "struct Vault.Stake[]",
              "name": "stakes",
              "type": "tuple[]"
            }
          ],
          "internalType": "struct Vault.User",
          "name": "",
          "type": "tuple"
        }
      ],
      "stateMutability": "nonpayable",
      "type": "function"
    },
    {
      "inputs": [
        {
          "internalType": "bytes32",
          "name": "role",
          "type": "bytes32"
        },
        {
          "internalType": "address",
          "name": "account",
          "type": "address"
        }
      ],
      "name": "grantRole",
      "outputs": [],
      "stateMutability": "nonpayable",
      "type": "function"
    },
    {
      "inputs": [
        {
          "internalType": "bytes32",
          "name": "role",
          "type": "bytes32"
        },
        {
          "internalType": "address",
          "name": "account",
          "type": "address"
        }
      ],
      "name": "hasRole",
      "outputs": [
        {
          "internalType": "bool",
          "name": "",
          "type": "bool"
        }
      ],
      "stateMutability": "view",
      "type": "function"
    },
    {
      "inputs": [],
      "name": "lockingThreshold",
      "outputs": [
        {
          "internalType": "uint256",
          "name": "",
          "type": "uint256"
        }
      ],
      "stateMutability": "view",
      "type": "function"
    },
    {
      "inputs": [
        {
          "internalType": "address",
          "name": "_to",
          "type": "address"
        },
        {
          "internalType": "uint256",
          "name": "_amount",
          "type": "uint256"
        }
      ],
      "name": "mintCapl",
      "outputs": [],
      "stateMutability": "nonpayable",
      "type": "function"
    },
    {
      "inputs": [],
      "name": "paused",
      "outputs": [
        {
          "internalType": "bool",
          "name": "",
          "type": "bool"
        }
      ],
      "stateMutability": "view",
      "type": "function"
    },
    {
      "inputs": [
        {
          "internalType": "bytes32",
          "name": "role",
          "type": "bytes32"
        },
        {
          "internalType": "address",
          "name": "account",
          "type": "address"
        }
      ],
      "name": "renounceRole",
      "outputs": [],
      "stateMutability": "nonpayable",
      "type": "function"
    },
    {
      "inputs": [
        {
          "internalType": "bytes32",
          "name": "role",
          "type": "bytes32"
        },
        {
          "internalType": "address",
          "name": "account",
          "type": "address"
        }
      ],
      "name": "revokeRole",
      "outputs": [],
      "stateMutability": "nonpayable",
      "type": "function"
    },
    {
      "inputs": [
        {
          "internalType": "address",
          "name": "_lp",
          "type": "address"
        },
        {
          "internalType": "uint256",
          "name": "_stakeId",
          "type": "uint256"
        }
      ],
      "name": "setExternalLock",
      "outputs": [],
      "stateMutability": "nonpayable",
      "type": "function"
    },
    {
      "inputs": [
        {
          "internalType": "bytes4",
          "name": "interfaceId",
          "type": "bytes4"
        }
      ],
      "name": "supportsInterface",
      "outputs": [
        {
          "internalType": "bool",
          "name": "",
          "type": "bool"
        }
      ],
      "stateMutability": "view",
      "type": "function"
    },
    {
      "inputs": [
        {
          "internalType": "uint256",
          "name": "_id",
          "type": "uint256"
        },
        {
          "internalType": "uint256",
          "name": "_totalRewards",
          "type": "uint256"
        },
        {
          "internalType": "uint256",
          "name": "_totalUsers",
          "type": "uint256"
        }
      ],
      "name": "updatePool",
      "outputs": [],
      "stateMutability": "nonpayable",
      "type": "function"
    },
    {
      "inputs": [
        {
          "internalType": "address",
          "name": "_lp",
          "type": "address"
        }
      ],
      "name": "withdrawAllStake",
      "outputs": [],
      "stateMutability": "nonpayable",
      "type": "function"
    },
    {
      "inputs": [
        {
          "internalType": "address",
          "name": "_lp",
          "type": "address"
        }
      ],
      "name": "withdrawLP",
      "outputs": [],
      "stateMutability": "nonpayable",
      "type": "function"
    },
    {
      "inputs": [],
      "name": "withdrawMATIC",
      "outputs": [],
      "stateMutability": "nonpayable",
      "type": "function"
    },
    {
      "inputs": [
        {
          "internalType": "address",
          "name": "_lp",
          "type": "address"
        },
        {
          "internalType": "uint256",
          "name": "_stake",
          "type": "uint256"
        }
      ],
      "name": "withdrawStake",
      "outputs": [],
      "stateMutability": "nonpayable",
      "type": "function"
    }
  ],
  "bytecode": "0x60806040523480156200001157600080fd5b506040516200199538038062001995833981810160405281019062000037919062000292565b60008060006101000a81548160ff02191690831515021790555080600260006101000a81548173ffffffffffffffffffffffffffffffffffffffff021916908373ffffffffffffffffffffffffffffffffffffffff160217905550620000a76000801b33620000ae60201b60201c565b50620002c4565b620000c08282620000c460201b60201c565b5050565b620000d68282620001b560201b60201c565b620001b157600180600084815260200190815260200160002060000160008373ffffffffffffffffffffffffffffffffffffffff1673ffffffffffffffffffffffffffffffffffffffff16815260200190815260200160002060006101000a81548160ff021916908315150217905550620001566200022060201b60201c565b73ffffffffffffffffffffffffffffffffffffffff168173ffffffffffffffffffffffffffffffffffffffff16837f2f8788117e7eff1d82e926ec794901d17c78024a50270940304540a733656f0d60405160405180910390a45b5050565b60006001600084815260200190815260200160002060000160008373ffffffffffffffffffffffffffffffffffffffff1673ffffffffffffffffffffffffffffffffffffffff16815260200190815260200160002060009054906101000a900460ff16905092915050565b600033905090565b600080fd5b600073ffffffffffffffffffffffffffffffffffffffff82169050919050565b60006200025a826200022d565b9050919050565b6200026c816200024d565b81146200027857600080fd5b50565b6000815190506200028c8162000261565b92915050565b600060208284031215620002ab57620002aa62000228565b5b6000620002bb848285016200027b565b91505092915050565b6116c180620002d46000396000f3fe608060405234801561001057600080fd5b50600436106101425760003560e01c806391d14854116100b8578063d547741f1161007c578063d547741f14610361578063d86c04441461037d578063d914cd4b14610399578063d99f6668146103b5578063df67e962146103bf578063edccc123146103dd57610142565b806391d14854146102bf578063a217fddf146102ef578063ab871e651461030d578063c579535a14610329578063c60662721461034557610142565b806336568abe1161010a57806336568abe146102115780635410f3651461022d5780635c975abb146102495780635d8d158514610267578063673a2a1f1461028557806384957191146102a357610142565b806301ffc9a71461014757806314777cb614610177578063248a9ca3146101955780632f2ff15d146101c55780632f380b35146101e1575b600080fd5b610161600480360381019061015c9190610c0c565b6103f9565b60405161016e9190610c54565b60405180910390f35b61017f610473565b60405161018c9190610c88565b60405180910390f35b6101af60048036038101906101aa9190610cd9565b610479565b6040516101bc9190610d15565b60405180910390f35b6101df60048036038101906101da9190610d8e565b610499565b005b6101fb60048036038101906101f69190610dfa565b6104c2565b6040516102089190610e78565b60405180910390f35b61022b60048036038101906102269190610d8e565b6104cf565b005b61024760048036038101906102429190610e93565b610552565b005b610251610556565b60405161025e9190610c54565b60405180910390f35b61026f61056c565b60405161027c919061107e565b60405180910390f35b61028d610577565b60405161029a9190611191565b60405180910390f35b6102bd60048036038101906102b891906111b3565b61057c565b005b6102d960048036038101906102d49190610d8e565b61057f565b6040516102e69190610c54565b60405180910390f35b6102f76105ea565b6040516103049190610d15565b60405180910390f35b61032760048036038101906103229190610e93565b6105f1565b005b610343600480360381019061033e91906111b3565b6105f5565b005b61035f600480360381019061035a9190610e93565b6105f8565b005b61037b60048036038101906103769190610d8e565b6105fc565b005b610397600480360381019061039291906111e0565b610625565b005b6103b360048036038101906103ae91906111b3565b61062a565b005b6103bd61062d565b005b6103c761062f565b6040516103d49190611242565b60405180910390f35b6103f760048036038101906103f29190610e93565b610655565b005b60007f7965db0b000000000000000000000000000000000000000000000000000000007bffffffffffffffffffffffffffffffffffffffffffffffffffffffff1916827bffffffffffffffffffffffffffffffffffffffffffffffffffffffff1916148061046c575061046b82610659565b5b9050919050565b60035481565b600060016000838152602001908152602001600020600101549050919050565b6104a282610479565b6104b3816104ae6106c3565b6106cb565b6104bd8383610768565b505050565b6104ca610b66565b919050565b6104d76106c3565b73ffffffffffffffffffffffffffffffffffffffff168173ffffffffffffffffffffffffffffffffffffffff1614610544576040517f08c379a000000000000000000000000000000000000000000000000000000000815260040161053b906112e0565b60405180910390fd5b61054e8282610848565b5050565b5050565b60008060009054906101000a900460ff16905090565b610574610b87565b90565b606090565b50565b60006001600084815260200190815260200160002060000160008373ffffffffffffffffffffffffffffffffffffffff1673ffffffffffffffffffffffffffffffffffffffff16815260200190815260200160002060009054906101000a900460ff16905092915050565b6000801b81565b5050565b50565b5050565b61060582610479565b610616816106116106c3565b6106cb565b6106208383610848565b505050565b505050565b50565b565b600260009054906101000a900473ffffffffffffffffffffffffffffffffffffffff1681565b5050565b60007f01ffc9a7000000000000000000000000000000000000000000000000000000007bffffffffffffffffffffffffffffffffffffffffffffffffffffffff1916827bffffffffffffffffffffffffffffffffffffffffffffffffffffffff1916149050919050565b600033905090565b6106d5828261057f565b610764576106fa8173ffffffffffffffffffffffffffffffffffffffff16601461092a565b6107088360001c602061092a565b604051602001610719929190611412565b6040516020818303038152906040526040517f08c379a000000000000000000000000000000000000000000000000000000000815260040161075b9190611496565b60405180910390fd5b5050565b610772828261057f565b61084457600180600084815260200190815260200160002060000160008373ffffffffffffffffffffffffffffffffffffffff1673ffffffffffffffffffffffffffffffffffffffff16815260200190815260200160002060006101000a81548160ff0219169083151502179055506107e96106c3565b73ffffffffffffffffffffffffffffffffffffffff168173ffffffffffffffffffffffffffffffffffffffff16837f2f8788117e7eff1d82e926ec794901d17c78024a50270940304540a733656f0d60405160405180910390a45b5050565b610852828261057f565b156109265760006001600084815260200190815260200160002060000160008373ffffffffffffffffffffffffffffffffffffffff1673ffffffffffffffffffffffffffffffffffffffff16815260200190815260200160002060006101000a81548160ff0219169083151502179055506108cb6106c3565b73ffffffffffffffffffffffffffffffffffffffff168173ffffffffffffffffffffffffffffffffffffffff16837ff6391f5c32d9c69d2a47ea670b442974b53935d1edc7fd64eb21e047a839171b60405160405180910390a45b5050565b60606000600283600261093d91906114e7565b6109479190611541565b67ffffffffffffffff8111156109605761095f611597565b5b6040519080825280601f01601f1916602001820160405280156109925781602001600182028036833780820191505090505b5090507f3000000000000000000000000000000000000000000000000000000000000000816000815181106109ca576109c96115c6565b5b60200101907effffffffffffffffffffffffffffffffffffffffffffffffffffffffffffff1916908160001a9053507f780000000000000000000000000000000000000000000000000000000000000081600181518110610a2e57610a2d6115c6565b5b60200101907effffffffffffffffffffffffffffffffffffffffffffffffffffffffffffff1916908160001a90535060006001846002610a6e91906114e7565b610a789190611541565b90505b6001811115610b18577f3031323334353637383961626364656600000000000000000000000000000000600f861660108110610aba57610ab96115c6565b5b1a60f81b828281518110610ad157610ad06115c6565b5b60200101907effffffffffffffffffffffffffffffffffffffffffffffffffffffffffffff1916908160001a905350600485901c945080610b11906115f5565b9050610a7b565b5060008414610b5c576040517f08c379a0000000000000000000000000000000000000000000000000000000008152600401610b539061166b565b60405180910390fd5b8091505092915050565b60405180606001604052806000815260200160008152602001600081525090565b6040518060800160405280600081526020016000815260200160008152602001606081525090565b600080fd5b60007fffffffff0000000000000000000000000000000000000000000000000000000082169050919050565b610be981610bb4565b8114610bf457600080fd5b50565b600081359050610c0681610be0565b92915050565b600060208284031215610c2257610c21610baf565b5b6000610c3084828501610bf7565b91505092915050565b60008115159050919050565b610c4e81610c39565b82525050565b6000602082019050610c696000830184610c45565b92915050565b6000819050919050565b610c8281610c6f565b82525050565b6000602082019050610c9d6000830184610c79565b92915050565b6000819050919050565b610cb681610ca3565b8114610cc157600080fd5b50565b600081359050610cd381610cad565b92915050565b600060208284031215610cef57610cee610baf565b5b6000610cfd84828501610cc4565b91505092915050565b610d0f81610ca3565b82525050565b6000602082019050610d2a6000830184610d06565b92915050565b600073ffffffffffffffffffffffffffffffffffffffff82169050919050565b6000610d5b82610d30565b9050919050565b610d6b81610d50565b8114610d7657600080fd5b50565b600081359050610d8881610d62565b92915050565b60008060408385031215610da557610da4610baf565b5b6000610db385828601610cc4565b9250506020610dc485828601610d79565b9150509250929050565b610dd781610c6f565b8114610de257600080fd5b50565b600081359050610df481610dce565b92915050565b600060208284031215610e1057610e0f610baf565b5b6000610e1e84828501610de5565b91505092915050565b610e3081610c6f565b82525050565b606082016000820151610e4c6000850182610e27565b506020820151610e5f6020850182610e27565b506040820151610e726040850182610e27565b50505050565b6000606082019050610e8d6000830184610e36565b92915050565b60008060408385031215610eaa57610ea9610baf565b5b6000610eb885828601610d79565b9250506020610ec985828601610de5565b9150509250929050565b600081519050919050565b600082825260208201905092915050565b6000819050602082019050919050565b610f0881610d50565b82525050565b610f1781610c39565b82525050565b60c082016000820151610f336000850182610eff565b506020820151610f466020850182610e27565b506040820151610f596040850182610e27565b506060820151610f6c6060850182610e27565b506080820151610f7f6080850182610f0e565b5060a0820151610f9260a0850182610f0e565b50505050565b6000610fa48383610f1d565b60c08301905092915050565b6000602082019050919050565b6000610fc882610ed3565b610fd28185610ede565b9350610fdd83610eef565b8060005b8381101561100e578151610ff58882610f98565b975061100083610fb0565b925050600181019050610fe1565b5085935050505092915050565b60006080830160008301516110336000860182610e27565b5060208301516110466020860182610e27565b5060408301516110596040860182610e27565b50606083015184820360608601526110718282610fbd565b9150508091505092915050565b60006020820190508181036000830152611098818461101b565b905092915050565b600081519050919050565b600082825260208201905092915050565b6000819050602082019050919050565b6060820160008201516110e26000850182610e27565b5060208201516110f56020850182610e27565b5060408201516111086040850182610e27565b50505050565b600061111a83836110cc565b60608301905092915050565b6000602082019050919050565b600061113e826110a0565b61114881856110ab565b9350611153836110bc565b8060005b8381101561118457815161116b888261110e565b975061117683611126565b925050600181019050611157565b5085935050505092915050565b600060208201905081810360008301526111ab8184611133565b905092915050565b6000602082840312156111c9576111c8610baf565b5b60006111d784828501610d79565b91505092915050565b6000806000606084860312156111f9576111f8610baf565b5b600061120786828701610de5565b935050602061121886828701610de5565b925050604061122986828701610de5565b9150509250925092565b61123c81610d50565b82525050565b60006020820190506112576000830184611233565b92915050565b600082825260208201905092915050565b7f416363657373436f6e74726f6c3a2063616e206f6e6c792072656e6f756e636560008201527f20726f6c657320666f722073656c660000000000000000000000000000000000602082015250565b60006112ca602f8361125d565b91506112d58261126e565b604082019050919050565b600060208201905081810360008301526112f9816112bd565b9050919050565b600081905092915050565b7f416363657373436f6e74726f6c3a206163636f756e7420000000000000000000600082015250565b6000611341601783611300565b915061134c8261130b565b601782019050919050565b600081519050919050565b60005b83811015611380578082015181840152602081019050611365565b8381111561138f576000848401525b50505050565b60006113a082611357565b6113aa8185611300565b93506113ba818560208601611362565b80840191505092915050565b7f206973206d697373696e6720726f6c6520000000000000000000000000000000600082015250565b60006113fc601183611300565b9150611407826113c6565b601182019050919050565b600061141d82611334565b91506114298285611395565b9150611434826113ef565b91506114408284611395565b91508190509392505050565b6000601f19601f8301169050919050565b600061146882611357565b611472818561125d565b9350611482818560208601611362565b61148b8161144c565b840191505092915050565b600060208201905081810360008301526114b0818461145d565b905092915050565b7f4e487b7100000000000000000000000000000000000000000000000000000000600052601160045260246000fd5b60006114f282610c6f565b91506114fd83610c6f565b9250817fffffffffffffffffffffffffffffffffffffffffffffffffffffffffffffffff0483118215151615611536576115356114b8565b5b828202905092915050565b600061154c82610c6f565b915061155783610c6f565b9250827fffffffffffffffffffffffffffffffffffffffffffffffffffffffffffffffff0382111561158c5761158b6114b8565b5b828201905092915050565b7f4e487b7100000000000000000000000000000000000000000000000000000000600052604160045260246000fd5b7f4e487b7100000000000000000000000000000000000000000000000000000000600052603260045260246000fd5b600061160082610c6f565b91506000821415611614576116136114b8565b5b600182039050919050565b7f537472696e67733a20686578206c656e67746820696e73756666696369656e74600082015250565b600061165560208361125d565b91506116608261161f565b602082019050919050565b6000602082019050818103600083015261168481611648565b905091905056fea26469706673582212204c7ba4bb1b141c4913c23591e2b9ceaa140d7dd6f3c4769044d2e87132c8d56d64736f6c634300080b0033",
  "linkReferences": {},
  "deployedLinkReferences": {}
}