{
  "_format": "hh-sol-artifact-1",
  "contractName": "Vault",
  "sourceName": "contracts/Vault.sol",
  "abi": [
    {
      "inputs": [
        {
          "internalType": "address",
          "name": "_capl",
          "type": "address"
        }
      ],
      "stateMutability": "nonpayable",
      "type": "constructor"
    },
    {
      "anonymous": false,
      "inputs": [
        {
          "indexed": false,
          "internalType": "address",
          "name": "account",
          "type": "address"
        }
      ],
      "name": "Paused",
      "type": "event"
    },
    {
      "anonymous": false,
      "inputs": [
        {
          "indexed": true,
          "internalType": "bytes32",
          "name": "role",
          "type": "bytes32"
        },
        {
          "indexed": true,
          "internalType": "bytes32",
          "name": "previousAdminRole",
          "type": "bytes32"
        },
        {
          "indexed": true,
          "internalType": "bytes32",
          "name": "newAdminRole",
          "type": "bytes32"
        }
      ],
      "name": "RoleAdminChanged",
      "type": "event"
    },
    {
      "anonymous": false,
      "inputs": [
        {
          "indexed": true,
          "internalType": "bytes32",
          "name": "role",
          "type": "bytes32"
        },
        {
          "indexed": true,
          "internalType": "address",
          "name": "account",
          "type": "address"
        },
        {
          "indexed": true,
          "internalType": "address",
          "name": "sender",
          "type": "address"
        }
      ],
      "name": "RoleGranted",
      "type": "event"
    },
    {
      "anonymous": false,
      "inputs": [
        {
          "indexed": true,
          "internalType": "bytes32",
          "name": "role",
          "type": "bytes32"
        },
        {
          "indexed": true,
          "internalType": "address",
          "name": "account",
          "type": "address"
        },
        {
          "indexed": true,
          "internalType": "address",
          "name": "sender",
          "type": "address"
        }
      ],
      "name": "RoleRevoked",
      "type": "event"
    },
    {
      "anonymous": false,
      "inputs": [
        {
          "indexed": false,
          "internalType": "address",
          "name": "account",
          "type": "address"
        }
      ],
      "name": "Unpaused",
      "type": "event"
    },
    {
      "inputs": [],
      "name": "DEFAULT_ADMIN_ROLE",
      "outputs": [
        {
          "internalType": "bytes32",
          "name": "",
          "type": "bytes32"
        }
      ],
      "stateMutability": "view",
      "type": "function"
    },
    {
      "inputs": [
        {
          "internalType": "address",
          "name": "_token",
          "type": "address"
        },
        {
          "internalType": "uint256",
          "name": "_amount",
          "type": "uint256"
        }
      ],
      "name": "addPool",
      "outputs": [],
      "stateMutability": "nonpayable",
      "type": "function"
    },
    {
      "inputs": [],
      "name": "capl",
      "outputs": [
        {
          "internalType": "address",
          "name": "",
          "type": "address"
        }
      ],
      "stateMutability": "view",
      "type": "function"
    },
    {
      "inputs": [
        {
          "internalType": "address",
          "name": "_token",
          "type": "address"
        }
      ],
      "name": "checkIfPoolExists",
      "outputs": [
        {
          "internalType": "bool",
          "name": "",
          "type": "bool"
        }
      ],
      "stateMutability": "view",
      "type": "function"
    },
    {
      "inputs": [
        {
          "internalType": "address",
          "name": "_token",
          "type": "address"
        },
        {
          "internalType": "uint256",
          "name": "_amount",
          "type": "uint256"
        }
      ],
      "name": "depositVault",
      "outputs": [],
      "stateMutability": "nonpayable",
      "type": "function"
    },
    {
      "inputs": [
        {
          "internalType": "uint256",
          "name": "id",
          "type": "uint256"
        }
      ],
      "name": "getPoolInfo",
      "outputs": [
        {
          "components": [
            {
              "internalType": "uint256",
              "name": "totalPooled",
              "type": "uint256"
            },
            {
              "internalType": "uint256",
              "name": "totalUsers",
              "type": "uint256"
            },
            {
              "internalType": "bool",
              "name": "active",
              "type": "bool"
            }
          ],
          "internalType": "struct Vault.Pool",
          "name": "",
          "type": "tuple"
        }
      ],
      "stateMutability": "nonpayable",
      "type": "function"
    },
    {
      "inputs": [],
      "name": "getPools",
      "outputs": [
        {
          "components": [
            {
              "internalType": "uint256",
              "name": "totalPooled",
              "type": "uint256"
            },
            {
              "internalType": "uint256",
              "name": "totalUsers",
              "type": "uint256"
            },
            {
              "internalType": "bool",
              "name": "active",
              "type": "bool"
            }
          ],
          "internalType": "struct Vault.Pool[]",
          "name": "",
          "type": "tuple[]"
        }
      ],
      "stateMutability": "nonpayable",
      "type": "function"
    },
    {
      "inputs": [
        {
          "internalType": "bytes32",
          "name": "role",
          "type": "bytes32"
        }
      ],
      "name": "getRoleAdmin",
      "outputs": [
        {
          "internalType": "bytes32",
          "name": "",
          "type": "bytes32"
        }
      ],
      "stateMutability": "view",
      "type": "function"
    },
    {
      "inputs": [
        {
          "internalType": "bytes32",
          "name": "role",
          "type": "bytes32"
        },
        {
          "internalType": "address",
          "name": "account",
          "type": "address"
        }
      ],
      "name": "grantRole",
      "outputs": [],
      "stateMutability": "nonpayable",
      "type": "function"
    },
    {
      "inputs": [
        {
          "internalType": "bytes32",
          "name": "role",
          "type": "bytes32"
        },
        {
          "internalType": "address",
          "name": "account",
          "type": "address"
        }
      ],
      "name": "hasRole",
      "outputs": [
        {
          "internalType": "bool",
          "name": "",
          "type": "bool"
        }
      ],
      "stateMutability": "view",
      "type": "function"
    },
    {
      "inputs": [
        {
          "internalType": "address",
          "name": "_to",
          "type": "address"
        },
        {
          "internalType": "uint256",
          "name": "_amount",
          "type": "uint256"
        }
      ],
      "name": "mintCapl",
      "outputs": [],
      "stateMutability": "nonpayable",
      "type": "function"
    },
    {
      "inputs": [],
      "name": "minter",
      "outputs": [
        {
          "internalType": "bytes32",
          "name": "",
          "type": "bytes32"
        }
      ],
      "stateMutability": "view",
      "type": "function"
    },
    {
      "inputs": [],
      "name": "paused",
      "outputs": [
        {
          "internalType": "bool",
          "name": "",
          "type": "bool"
        }
      ],
      "stateMutability": "view",
      "type": "function"
    },
    {
      "inputs": [
        {
          "internalType": "bytes32",
          "name": "role",
          "type": "bytes32"
        },
        {
          "internalType": "address",
          "name": "account",
          "type": "address"
        }
      ],
      "name": "renounceRole",
      "outputs": [],
      "stateMutability": "nonpayable",
      "type": "function"
    },
    {
      "inputs": [
        {
          "internalType": "bytes32",
          "name": "role",
          "type": "bytes32"
        },
        {
          "internalType": "address",
          "name": "account",
          "type": "address"
        }
      ],
      "name": "revokeRole",
      "outputs": [],
      "stateMutability": "nonpayable",
      "type": "function"
    },
    {
      "inputs": [
        {
          "internalType": "bytes4",
          "name": "interfaceId",
          "type": "bytes4"
        }
      ],
      "name": "supportsInterface",
      "outputs": [
        {
          "internalType": "bool",
          "name": "",
          "type": "bool"
        }
      ],
      "stateMutability": "view",
      "type": "function"
    },
    {
      "inputs": [
        {
          "internalType": "address",
          "name": "_token",
          "type": "address"
        }
      ],
      "name": "withdrawAllVault",
      "outputs": [],
      "stateMutability": "nonpayable",
      "type": "function"
    },
    {
      "inputs": [
        {
          "internalType": "address",
          "name": "_destination",
          "type": "address"
        }
      ],
      "name": "withdrawMATIC",
      "outputs": [],
      "stateMutability": "nonpayable",
      "type": "function"
    },
    {
      "inputs": [
        {
          "internalType": "address",
          "name": "_token",
          "type": "address"
        },
        {
          "internalType": "uint256",
          "name": "_amount",
          "type": "uint256"
        },
        {
          "internalType": "address",
          "name": "_destination",
          "type": "address"
        }
      ],
      "name": "withdrawToken",
      "outputs": [],
      "stateMutability": "nonpayable",
      "type": "function"
    },
    {
      "inputs": [
        {
          "internalType": "address",
          "name": "_token",
          "type": "address"
        },
        {
          "internalType": "uint256",
          "name": "_amount",
          "type": "uint256"
        }
      ],
      "name": "withdrawVault",
      "outputs": [],
      "stateMutability": "nonpayable",
      "type": "function"
    }
  ],
  "bytecode": "0x60806040523480156200001157600080fd5b5060405162001940380380620019408339818101604052810190620000379190620002c4565b60008060006101000a81548160ff02191690831515021790555080600260006101000a81548173ffffffffffffffffffffffffffffffffffffffff021916908373ffffffffffffffffffffffffffffffffffffffff160217905550620000a76000801b33620000e060201b60201c565b620000d97ff0887ba65ee2024ea881d91b74c2450ef19e1557f03bed3ea9f16b037cbe2dc933620000f660201b60201c565b50620002f6565b620000f28282620000f660201b60201c565b5050565b620001088282620001e760201b60201c565b620001e357600180600084815260200190815260200160002060000160008373ffffffffffffffffffffffffffffffffffffffff1673ffffffffffffffffffffffffffffffffffffffff16815260200190815260200160002060006101000a81548160ff021916908315150217905550620001886200025260201b60201c565b73ffffffffffffffffffffffffffffffffffffffff168173ffffffffffffffffffffffffffffffffffffffff16837f2f8788117e7eff1d82e926ec794901d17c78024a50270940304540a733656f0d60405160405180910390a45b5050565b60006001600084815260200190815260200160002060000160008373ffffffffffffffffffffffffffffffffffffffff1673ffffffffffffffffffffffffffffffffffffffff16815260200190815260200160002060009054906101000a900460ff16905092915050565b600033905090565b600080fd5b600073ffffffffffffffffffffffffffffffffffffffff82169050919050565b60006200028c826200025f565b9050919050565b6200029e816200027f565b8114620002aa57600080fd5b50565b600081519050620002be8162000293565b92915050565b600060208284031215620002dd57620002dc6200025a565b5b6000620002ed84828501620002ad565b91505092915050565b61163a80620003066000396000f3fe608060405234801561001057600080fd5b506004361061012c5760003560e01c8063673a2a1f116100ad578063ab871e6511610071578063ab871e6514610341578063b5fdf3301461035d578063b81e6a2314610379578063d547741f14610395578063df67e962146103b15761012c565b8063673a2a1f1461028957806391d14854146102a75780639804dab9146102d7578063999126d7146102f3578063a217fddf146103235761012c565b806330e7e743116100f457806330e7e743146101fb57806332a9caba1461021757806336568abe146102335780633ccdbb281461024f5780635c975abb1461026b5761012c565b806301ffc9a7146101315780630754617214610161578063248a9ca31461017f5780632f2ff15d146101af5780632f380b35146101cb575b600080fd5b61014b60048036038101906101469190610d01565b6103cf565b6040516101589190610d49565b60405180910390f35b610169610449565b6040516101769190610d7d565b60405180910390f35b61019960048036038101906101949190610dc4565b61046d565b6040516101a69190610d7d565b60405180910390f35b6101c960048036038101906101c49190610e4f565b61048d565b005b6101e560048036038101906101e09190610ec5565b6104b6565b6040516101f29190610f52565b60405180910390f35b61021560048036038101906102109190610f6d565b6104c3565b005b610231600480360381019061022c9190610f9a565b6104c6565b005b61024d60048036038101906102489190610e4f565b6105a8565b005b61026960048036038101906102649190610fda565b61062b565b005b610273610630565b6040516102809190610d49565b60405180910390f35b610291610646565b60405161029e919061111e565b60405180910390f35b6102c160048036038101906102bc9190610e4f565b61064b565b6040516102ce9190610d49565b60405180910390f35b6102f160048036038101906102ec9190610f9a565b6106b6565b005b61030d60048036038101906103089190610f6d565b6106ba565b60405161031a9190610d49565b60405180910390f35b61032b610713565b6040516103389190610d7d565b60405180910390f35b61035b60048036038101906103569190610f9a565b61071a565b005b61037760048036038101906103729190610f9a565b61071e565b005b610393600480360381019061038e9190610f6d565b610722565b005b6103af60048036038101906103aa9190610e4f565b610725565b005b6103b961074e565b6040516103c6919061114f565b60405180910390f35b60007f7965db0b000000000000000000000000000000000000000000000000000000007bffffffffffffffffffffffffffffffffffffffffffffffffffffffff1916827bffffffffffffffffffffffffffffffffffffffffffffffffffffffff19161480610442575061044182610774565b5b9050919050565b7ff0887ba65ee2024ea881d91b74c2450ef19e1557f03bed3ea9f16b037cbe2dc981565b600060016000838152602001908152602001600020600101549050919050565b6104968261046d565b6104a7816104a26107de565b6107e6565b6104b18383610883565b505050565b6104be610c81565b919050565b50565b6104cf826106ba565b1561050f576040517f08c379a0000000000000000000000000000000000000000000000000000000008152600401610506906111c7565b60405180910390fd5b60405180606001604052808281526020016001815260200160011515815250600360008473ffffffffffffffffffffffffffffffffffffffff1673ffffffffffffffffffffffffffffffffffffffff168152602001908152602001600020600082015181600001556020820151816001015560408201518160020160006101000a81548160ff0219169083151502179055509050505050565b6105b06107de565b73ffffffffffffffffffffffffffffffffffffffff168173ffffffffffffffffffffffffffffffffffffffff161461061d576040517f08c379a000000000000000000000000000000000000000000000000000000000815260040161061490611259565b60405180910390fd5b6106278282610963565b5050565b505050565b60008060009054906101000a900460ff16905090565b606090565b60006001600084815260200190815260200160002060000160008373ffffffffffffffffffffffffffffffffffffffff1673ffffffffffffffffffffffffffffffffffffffff16815260200190815260200160002060009054906101000a900460ff16905092915050565b5050565b6000600360008373ffffffffffffffffffffffffffffffffffffffff1673ffffffffffffffffffffffffffffffffffffffff16815260200190815260200160002060020160009054906101000a900460ff169050919050565b6000801b81565b5050565b5050565b50565b61072e8261046d565b61073f8161073a6107de565b6107e6565b6107498383610963565b505050565b600260009054906101000a900473ffffffffffffffffffffffffffffffffffffffff1681565b60007f01ffc9a7000000000000000000000000000000000000000000000000000000007bffffffffffffffffffffffffffffffffffffffffffffffffffffffff1916827bffffffffffffffffffffffffffffffffffffffffffffffffffffffff1916149050919050565b600033905090565b6107f0828261064b565b61087f576108158173ffffffffffffffffffffffffffffffffffffffff166014610a45565b6108238360001c6020610a45565b60405160200161083492919061138b565b6040516020818303038152906040526040517f08c379a0000000000000000000000000000000000000000000000000000000008152600401610876919061140f565b60405180910390fd5b5050565b61088d828261064b565b61095f57600180600084815260200190815260200160002060000160008373ffffffffffffffffffffffffffffffffffffffff1673ffffffffffffffffffffffffffffffffffffffff16815260200190815260200160002060006101000a81548160ff0219169083151502179055506109046107de565b73ffffffffffffffffffffffffffffffffffffffff168173ffffffffffffffffffffffffffffffffffffffff16837f2f8788117e7eff1d82e926ec794901d17c78024a50270940304540a733656f0d60405160405180910390a45b5050565b61096d828261064b565b15610a415760006001600084815260200190815260200160002060000160008373ffffffffffffffffffffffffffffffffffffffff1673ffffffffffffffffffffffffffffffffffffffff16815260200190815260200160002060006101000a81548160ff0219169083151502179055506109e66107de565b73ffffffffffffffffffffffffffffffffffffffff168173ffffffffffffffffffffffffffffffffffffffff16837ff6391f5c32d9c69d2a47ea670b442974b53935d1edc7fd64eb21e047a839171b60405160405180910390a45b5050565b606060006002836002610a589190611460565b610a6291906114ba565b67ffffffffffffffff811115610a7b57610a7a611510565b5b6040519080825280601f01601f191660200182016040528015610aad5781602001600182028036833780820191505090505b5090507f300000000000000000000000000000000000000000000000000000000000000081600081518110610ae557610ae461153f565b5b60200101907effffffffffffffffffffffffffffffffffffffffffffffffffffffffffffff1916908160001a9053507f780000000000000000000000000000000000000000000000000000000000000081600181518110610b4957610b4861153f565b5b60200101907effffffffffffffffffffffffffffffffffffffffffffffffffffffffffffff1916908160001a90535060006001846002610b899190611460565b610b9391906114ba565b90505b6001811115610c33577f3031323334353637383961626364656600000000000000000000000000000000600f861660108110610bd557610bd461153f565b5b1a60f81b828281518110610bec57610beb61153f565b5b60200101907effffffffffffffffffffffffffffffffffffffffffffffffffffffffffffff1916908160001a905350600485901c945080610c2c9061156e565b9050610b96565b5060008414610c77576040517f08c379a0000000000000000000000000000000000000000000000000000000008152600401610c6e906115e4565b60405180910390fd5b8091505092915050565b604051806060016040528060008152602001600081526020016000151581525090565b600080fd5b60007fffffffff0000000000000000000000000000000000000000000000000000000082169050919050565b610cde81610ca9565b8114610ce957600080fd5b50565b600081359050610cfb81610cd5565b92915050565b600060208284031215610d1757610d16610ca4565b5b6000610d2584828501610cec565b91505092915050565b60008115159050919050565b610d4381610d2e565b82525050565b6000602082019050610d5e6000830184610d3a565b92915050565b6000819050919050565b610d7781610d64565b82525050565b6000602082019050610d926000830184610d6e565b92915050565b610da181610d64565b8114610dac57600080fd5b50565b600081359050610dbe81610d98565b92915050565b600060208284031215610dda57610dd9610ca4565b5b6000610de884828501610daf565b91505092915050565b600073ffffffffffffffffffffffffffffffffffffffff82169050919050565b6000610e1c82610df1565b9050919050565b610e2c81610e11565b8114610e3757600080fd5b50565b600081359050610e4981610e23565b92915050565b60008060408385031215610e6657610e65610ca4565b5b6000610e7485828601610daf565b9250506020610e8585828601610e3a565b9150509250929050565b6000819050919050565b610ea281610e8f565b8114610ead57600080fd5b50565b600081359050610ebf81610e99565b92915050565b600060208284031215610edb57610eda610ca4565b5b6000610ee984828501610eb0565b91505092915050565b610efb81610e8f565b82525050565b610f0a81610d2e565b82525050565b606082016000820151610f266000850182610ef2565b506020820151610f396020850182610ef2565b506040820151610f4c6040850182610f01565b50505050565b6000606082019050610f676000830184610f10565b92915050565b600060208284031215610f8357610f82610ca4565b5b6000610f9184828501610e3a565b91505092915050565b60008060408385031215610fb157610fb0610ca4565b5b6000610fbf85828601610e3a565b9250506020610fd085828601610eb0565b9150509250929050565b600080600060608486031215610ff357610ff2610ca4565b5b600061100186828701610e3a565b935050602061101286828701610eb0565b925050604061102386828701610e3a565b9150509250925092565b600081519050919050565b600082825260208201905092915050565b6000819050602082019050919050565b60608201600082015161106f6000850182610ef2565b5060208201516110826020850182610ef2565b5060408201516110956040850182610f01565b50505050565b60006110a78383611059565b60608301905092915050565b6000602082019050919050565b60006110cb8261102d565b6110d58185611038565b93506110e083611049565b8060005b838110156111115781516110f8888261109b565b9750611103836110b3565b9250506001810190506110e4565b5085935050505092915050565b6000602082019050818103600083015261113881846110c0565b905092915050565b61114981610e11565b82525050565b60006020820190506111646000830184611140565b92915050565b600082825260208201905092915050565b7f5468697320706f6f6c20616c7265616479206578697374730000000000000000600082015250565b60006111b160188361116a565b91506111bc8261117b565b602082019050919050565b600060208201905081810360008301526111e0816111a4565b9050919050565b7f416363657373436f6e74726f6c3a2063616e206f6e6c792072656e6f756e636560008201527f20726f6c657320666f722073656c660000000000000000000000000000000000602082015250565b6000611243602f8361116a565b915061124e826111e7565b604082019050919050565b6000602082019050818103600083015261127281611236565b9050919050565b600081905092915050565b7f416363657373436f6e74726f6c3a206163636f756e7420000000000000000000600082015250565b60006112ba601783611279565b91506112c582611284565b601782019050919050565b600081519050919050565b60005b838110156112f95780820151818401526020810190506112de565b83811115611308576000848401525b50505050565b6000611319826112d0565b6113238185611279565b93506113338185602086016112db565b80840191505092915050565b7f206973206d697373696e6720726f6c6520000000000000000000000000000000600082015250565b6000611375601183611279565b91506113808261133f565b601182019050919050565b6000611396826112ad565b91506113a2828561130e565b91506113ad82611368565b91506113b9828461130e565b91508190509392505050565b6000601f19601f8301169050919050565b60006113e1826112d0565b6113eb818561116a565b93506113fb8185602086016112db565b611404816113c5565b840191505092915050565b6000602082019050818103600083015261142981846113d6565b905092915050565b7f4e487b7100000000000000000000000000000000000000000000000000000000600052601160045260246000fd5b600061146b82610e8f565b915061147683610e8f565b9250817fffffffffffffffffffffffffffffffffffffffffffffffffffffffffffffffff04831182151516156114af576114ae611431565b5b828202905092915050565b60006114c582610e8f565b91506114d083610e8f565b9250827fffffffffffffffffffffffffffffffffffffffffffffffffffffffffffffffff0382111561150557611504611431565b5b828201905092915050565b7f4e487b7100000000000000000000000000000000000000000000000000000000600052604160045260246000fd5b7f4e487b7100000000000000000000000000000000000000000000000000000000600052603260045260246000fd5b600061157982610e8f565b9150600082141561158d5761158c611431565b5b600182039050919050565b7f537472696e67733a20686578206c656e67746820696e73756666696369656e74600082015250565b60006115ce60208361116a565b91506115d982611598565b602082019050919050565b600060208201905081810360008301526115fd816115c1565b905091905056fea2646970667358221220fcb3e2c5ffe43d7042ff8a30fe23d85d587c3c79a712afa5e89335e22247978964736f6c634300080b0033",
  "linkReferences": {},
  "deployedLinkReferences": {}
}