{
  "_format": "hh-sol-artifact-1",
  "contractName": "Vault",
  "sourceName": "contracts/Vault.sol",
  "abi": [
    {
      "inputs": [],
      "stateMutability": "nonpayable",
      "type": "constructor"
    },
    {
      "anonymous": false,
      "inputs": [
        {
          "indexed": false,
          "internalType": "address",
          "name": "account",
          "type": "address"
        }
      ],
      "name": "Paused",
      "type": "event"
    },
    {
      "anonymous": false,
      "inputs": [
        {
          "indexed": true,
          "internalType": "bytes32",
          "name": "role",
          "type": "bytes32"
        },
        {
          "indexed": true,
          "internalType": "bytes32",
          "name": "previousAdminRole",
          "type": "bytes32"
        },
        {
          "indexed": true,
          "internalType": "bytes32",
          "name": "newAdminRole",
          "type": "bytes32"
        }
      ],
      "name": "RoleAdminChanged",
      "type": "event"
    },
    {
      "anonymous": false,
      "inputs": [
        {
          "indexed": true,
          "internalType": "bytes32",
          "name": "role",
          "type": "bytes32"
        },
        {
          "indexed": true,
          "internalType": "address",
          "name": "account",
          "type": "address"
        },
        {
          "indexed": true,
          "internalType": "address",
          "name": "sender",
          "type": "address"
        }
      ],
      "name": "RoleGranted",
      "type": "event"
    },
    {
      "anonymous": false,
      "inputs": [
        {
          "indexed": true,
          "internalType": "bytes32",
          "name": "role",
          "type": "bytes32"
        },
        {
          "indexed": true,
          "internalType": "address",
          "name": "account",
          "type": "address"
        },
        {
          "indexed": true,
          "internalType": "address",
          "name": "sender",
          "type": "address"
        }
      ],
      "name": "RoleRevoked",
      "type": "event"
    },
    {
      "anonymous": false,
      "inputs": [
        {
          "indexed": false,
          "internalType": "address",
          "name": "account",
          "type": "address"
        }
      ],
      "name": "Unpaused",
      "type": "event"
    },
    {
      "inputs": [],
      "name": "DEFAULT_ADMIN_ROLE",
      "outputs": [
        {
          "internalType": "bytes32",
          "name": "",
          "type": "bytes32"
        }
      ],
      "stateMutability": "view",
      "type": "function"
    },
    {
      "inputs": [
        {
          "internalType": "address",
          "name": "_token",
          "type": "address"
        },
        {
          "internalType": "uint256",
          "name": "_amount",
          "type": "uint256"
        },
        {
          "internalType": "uint256",
          "name": "_rewardsPerDay",
          "type": "uint256"
        }
      ],
      "name": "addPool",
      "outputs": [],
      "stateMutability": "nonpayable",
      "type": "function"
    },
    {
      "inputs": [
        {
          "internalType": "address",
          "name": "_token",
          "type": "address"
        }
      ],
      "name": "checkIfPoolExists",
      "outputs": [
        {
          "internalType": "bool",
          "name": "",
          "type": "bool"
        }
      ],
      "stateMutability": "view",
      "type": "function"
    },
    {
      "inputs": [
        {
          "internalType": "address",
          "name": "_token",
          "type": "address"
        },
        {
          "internalType": "uint256",
          "name": "_amount",
          "type": "uint256"
        },
        {
          "internalType": "uint256",
          "name": "_rewardsPerDay",
          "type": "uint256"
        }
      ],
      "name": "depositStakeNew",
      "outputs": [],
      "stateMutability": "nonpayable",
      "type": "function"
    },
    {
      "inputs": [
        {
          "internalType": "address",
          "name": "_token",
          "type": "address"
        },
        {
          "internalType": "uint256",
          "name": "_amount",
          "type": "uint256"
        }
      ],
      "name": "depositVault",
      "outputs": [],
      "stateMutability": "nonpayable",
      "type": "function"
    },
    {
      "inputs": [
        {
          "internalType": "address",
          "name": "_token",
          "type": "address"
        }
      ],
      "name": "getPoolInfo",
      "outputs": [
        {
          "components": [
            {
              "internalType": "uint256",
              "name": "totalPooled",
              "type": "uint256"
            },
            {
              "internalType": "uint256",
              "name": "totalUsers",
              "type": "uint256"
            },
            {
              "internalType": "uint256",
              "name": "rewardsPerDay",
              "type": "uint256"
            }
          ],
          "internalType": "struct Vault.Pool",
          "name": "",
          "type": "tuple"
        }
      ],
      "stateMutability": "view",
      "type": "function"
    },
    {
      "inputs": [],
      "name": "getPools",
      "outputs": [
        {
          "components": [
            {
              "internalType": "uint256",
              "name": "totalPooled",
              "type": "uint256"
            },
            {
              "internalType": "uint256",
              "name": "totalUsers",
              "type": "uint256"
            },
            {
              "internalType": "uint256",
              "name": "rewardsPerDay",
              "type": "uint256"
            }
          ],
          "internalType": "struct Vault.Pool[]",
          "name": "",
          "type": "tuple[]"
        }
      ],
      "stateMutability": "nonpayable",
      "type": "function"
    },
    {
      "inputs": [
        {
          "internalType": "bytes32",
          "name": "role",
          "type": "bytes32"
        }
      ],
      "name": "getRoleAdmin",
      "outputs": [
        {
          "internalType": "bytes32",
          "name": "",
          "type": "bytes32"
        }
      ],
      "stateMutability": "view",
      "type": "function"
    },
    {
      "inputs": [
        {
          "internalType": "bytes32",
          "name": "role",
          "type": "bytes32"
        },
        {
          "internalType": "address",
          "name": "account",
          "type": "address"
        }
      ],
      "name": "grantRole",
      "outputs": [],
      "stateMutability": "nonpayable",
      "type": "function"
    },
    {
      "inputs": [
        {
          "internalType": "bytes32",
          "name": "role",
          "type": "bytes32"
        },
        {
          "internalType": "address",
          "name": "account",
          "type": "address"
        }
      ],
      "name": "hasRole",
      "outputs": [
        {
          "internalType": "bool",
          "name": "",
          "type": "bool"
        }
      ],
      "stateMutability": "view",
      "type": "function"
    },
    {
      "inputs": [],
      "name": "paused",
      "outputs": [
        {
          "internalType": "bool",
          "name": "",
          "type": "bool"
        }
      ],
      "stateMutability": "view",
      "type": "function"
    },
    {
      "inputs": [
        {
          "internalType": "bytes32",
          "name": "role",
          "type": "bytes32"
        },
        {
          "internalType": "address",
          "name": "account",
          "type": "address"
        }
      ],
      "name": "renounceRole",
      "outputs": [],
      "stateMutability": "nonpayable",
      "type": "function"
    },
    {
      "inputs": [
        {
          "internalType": "bytes32",
          "name": "role",
          "type": "bytes32"
        },
        {
          "internalType": "address",
          "name": "account",
          "type": "address"
        }
      ],
      "name": "revokeRole",
      "outputs": [],
      "stateMutability": "nonpayable",
      "type": "function"
    },
    {
      "inputs": [
        {
          "internalType": "bytes4",
          "name": "interfaceId",
          "type": "bytes4"
        }
      ],
      "name": "supportsInterface",
      "outputs": [
        {
          "internalType": "bool",
          "name": "",
          "type": "bool"
        }
      ],
      "stateMutability": "view",
      "type": "function"
    },
    {
      "inputs": [
        {
          "internalType": "address",
          "name": "_destination",
          "type": "address"
        }
      ],
      "name": "withdrawMATIC",
      "outputs": [],
      "stateMutability": "nonpayable",
      "type": "function"
    },
    {
      "inputs": [
        {
          "internalType": "address",
          "name": "_token",
          "type": "address"
        },
        {
          "internalType": "uint256",
          "name": "_amount",
          "type": "uint256"
        },
        {
          "internalType": "address",
          "name": "_destination",
          "type": "address"
        }
      ],
      "name": "withdrawToken",
      "outputs": [],
      "stateMutability": "nonpayable",
      "type": "function"
    },
    {
      "inputs": [
        {
          "internalType": "address",
          "name": "_token",
          "type": "address"
        },
        {
          "internalType": "uint256",
          "name": "_amount",
          "type": "uint256"
        }
      ],
      "name": "withdrawVault",
      "outputs": [],
      "stateMutability": "nonpayable",
      "type": "function"
    }
  ],
  "bytecode": "0x608060405263082bdcb46002553480156200001957600080fd5b5060008060006101000a81548160ff021916908315150217905550620000496000801b336200004f60201b60201c565b620001c9565b6200006182826200006560201b60201c565b5050565b6200007782826200015660201b60201c565b6200015257600180600084815260200190815260200160002060000160008373ffffffffffffffffffffffffffffffffffffffff1673ffffffffffffffffffffffffffffffffffffffff16815260200190815260200160002060006101000a81548160ff021916908315150217905550620000f7620001c160201b60201c565b73ffffffffffffffffffffffffffffffffffffffff168173ffffffffffffffffffffffffffffffffffffffff16837f2f8788117e7eff1d82e926ec794901d17c78024a50270940304540a733656f0d60405160405180910390a45b5050565b60006001600084815260200190815260200160002060000160008373ffffffffffffffffffffffffffffffffffffffff1673ffffffffffffffffffffffffffffffffffffffff16815260200190815260200160002060009054906101000a900460ff16905092915050565b600033905090565b611f6680620001d96000396000f3fe608060405234801561001057600080fd5b506004361061010b5760003560e01c80635c975abb116100a2578063999126d711610071578063999126d7146102b4578063a217fddf146102e4578063b5fdf33014610302578063d547741f1461031e578063f7d8acf61461033a5761010b565b80635c975abb1461022c578063673a2a1f1461024a57806391d14854146102685780639804dab9146102985761010b565b80632f2ff15d116100de5780632f2ff15d146101bc57806330e7e743146101d857806336568abe146101f45780633ccdbb28146102105761010b565b806301ffc9a71461011057806306bfa9381461014057806317ccd7ee14610170578063248a9ca31461018c575b600080fd5b61012a60048036038101906101259190611346565b610356565b604051610137919061138e565b60405180910390f35b61015a60048036038101906101559190611407565b6103d0565b604051610167919061148f565b60405180910390f35b61018a600480360381019061018591906114d6565b610447565b005b6101a660048036038101906101a1919061155f565b610511565b6040516101b3919061159b565b60405180910390f35b6101d660048036038101906101d191906115b6565b610531565b005b6101f260048036038101906101ed9190611407565b61055a565b005b61020e600480360381019061020991906115b6565b61055d565b005b61022a600480360381019061022591906115f6565b6105e0565b005b6102346105e5565b604051610241919061138e565b60405180910390f35b6102526105fb565b60405161025f919061173a565b60405180910390f35b610282600480360381019061027d91906115b6565b610600565b60405161028f919061138e565b60405180910390f35b6102b260048036038101906102ad919061175c565b61066b565b005b6102ce60048036038101906102c99190611407565b61066f565b6040516102db919061138e565b60405180910390f35b6102ec6106bd565b6040516102f9919061159b565b60405180910390f35b61031c6004803603810190610317919061175c565b6106c4565b005b610338600480360381019061033391906115b6565b6106c8565b005b610354600480360381019061034f91906114d6565b6106f1565b005b60007f7965db0b000000000000000000000000000000000000000000000000000000007bffffffffffffffffffffffffffffffffffffffffffffffffffffffff1916827bffffffffffffffffffffffffffffffffffffffffffffffffffffffff191614806103c957506103c882610a5e565b5b9050919050565b6103d861125e565b600560008373ffffffffffffffffffffffffffffffffffffffff1673ffffffffffffffffffffffffffffffffffffffff16815260200190815260200160002060405180606001604052908160008201548152602001600182015481526020016002820154815250509050919050565b6104508361066f565b15610490576040517f08c379a0000000000000000000000000000000000000000000000000000000008152600401610487906117f9565b60405180910390fd5b60405180606001604052808381526020016001815260200182815250600560008573ffffffffffffffffffffffffffffffffffffffff1673ffffffffffffffffffffffffffffffffffffffff168152602001908152602001600020600082015181600001556020820151816001015560408201518160020155905050505050565b600060016000838152602001908152602001600020600101549050919050565b61053a82610511565b61054b81610546610ac8565b610ad0565b6105558383610b6d565b505050565b50565b610565610ac8565b73ffffffffffffffffffffffffffffffffffffffff168173ffffffffffffffffffffffffffffffffffffffff16146105d2576040517f08c379a00000000000000000000000000000000000000000000000000000000081526004016105c99061188b565b60405180910390fd5b6105dc8282610c4d565b5050565b505050565b60008060009054906101000a900460ff16905090565b606090565b60006001600084815260200190815260200160002060000160008373ffffffffffffffffffffffffffffffffffffffff1673ffffffffffffffffffffffffffffffffffffffff16815260200190815260200160002060009054906101000a900460ff16905092915050565b5050565b600080600560008473ffffffffffffffffffffffffffffffffffffffff1673ffffffffffffffffffffffffffffffffffffffff16815260200190815260200160002060010154119050919050565b6000801b81565b5050565b6106d182610511565b6106e2816106dd610ac8565b610ad0565b6106ec8383610c4d565b505050565b6106fa8361066f565b1561073a576040517f08c379a0000000000000000000000000000000000000000000000000000000008152600401610731906118f7565b60405180910390fd5b60006040518060800160405280848152602001428152602001600254426107619190611946565b8152602001600115158152509050606060006040518060e001604052808773ffffffffffffffffffffffffffffffffffffffff168152602001868152602001600081526020016000815260200160008152602001838152602001600015158152509050600360003373ffffffffffffffffffffffffffffffffffffffff1673ffffffffffffffffffffffffffffffffffffffff16815260200190815260200160002081908060018154018082558091505060019003906000526020600020906007020160009091909190915060008201518160000160006101000a81548173ffffffffffffffffffffffffffffffffffffffff021916908373ffffffffffffffffffffffffffffffffffffffff1602179055506020820151816001015560408201518160020155606082015181600301556080820151816004015560a08201518160050190805190602001906108b892919061127f565b5060c08201518160060160006101000a81548160ff0219169083151502179055505050600360003373ffffffffffffffffffffffffffffffffffffffff1673ffffffffffffffffffffffffffffffffffffffff16815260200190815260200160002060008154811061092d5761092c61199c565b5b906000526020600020906007020160050160009080600181540180825580915050600190039060005260206000200160009091909190915055600460003373ffffffffffffffffffffffffffffffffffffffff1673ffffffffffffffffffffffffffffffffffffffff168152602001908152602001600020600080815260200190815260200160002083908060018154018082558091505060019003906000526020600020906004020160009091909190915060008201518160000155602082015181600101556040820151816002015560608201518160030160006101000a81548160ff0219169083151502179055505050610a4b30868873ffffffffffffffffffffffffffffffffffffffff16610d2f9092919063ffffffff16565b610a56868686610447565b505050505050565b60007f01ffc9a7000000000000000000000000000000000000000000000000000000007bffffffffffffffffffffffffffffffffffffffffffffffffffffffff1916827bffffffffffffffffffffffffffffffffffffffffffffffffffffffff1916149050919050565b600033905090565b610ada8282610600565b610b6957610aff8173ffffffffffffffffffffffffffffffffffffffff166014610db5565b610b0d8360001c6020610db5565b604051602001610b1e929190611add565b6040516020818303038152906040526040517f08c379a0000000000000000000000000000000000000000000000000000000008152600401610b609190611b61565b60405180910390fd5b5050565b610b778282610600565b610c4957600180600084815260200190815260200160002060000160008373ffffffffffffffffffffffffffffffffffffffff1673ffffffffffffffffffffffffffffffffffffffff16815260200190815260200160002060006101000a81548160ff021916908315150217905550610bee610ac8565b73ffffffffffffffffffffffffffffffffffffffff168173ffffffffffffffffffffffffffffffffffffffff16837f2f8788117e7eff1d82e926ec794901d17c78024a50270940304540a733656f0d60405160405180910390a45b5050565b610c578282610600565b15610d2b5760006001600084815260200190815260200160002060000160008373ffffffffffffffffffffffffffffffffffffffff1673ffffffffffffffffffffffffffffffffffffffff16815260200190815260200160002060006101000a81548160ff021916908315150217905550610cd0610ac8565b73ffffffffffffffffffffffffffffffffffffffff168173ffffffffffffffffffffffffffffffffffffffff16837ff6391f5c32d9c69d2a47ea670b442974b53935d1edc7fd64eb21e047a839171b60405160405180910390a45b5050565b610db08363a9059cbb60e01b8484604051602401610d4e929190611ba1565b604051602081830303815290604052907bffffffffffffffffffffffffffffffffffffffffffffffffffffffff19166020820180517bffffffffffffffffffffffffffffffffffffffffffffffffffffffff8381831617835250505050610ff1565b505050565b606060006002836002610dc89190611bca565b610dd29190611946565b67ffffffffffffffff811115610deb57610dea611c24565b5b6040519080825280601f01601f191660200182016040528015610e1d5781602001600182028036833780820191505090505b5090507f300000000000000000000000000000000000000000000000000000000000000081600081518110610e5557610e5461199c565b5b60200101907effffffffffffffffffffffffffffffffffffffffffffffffffffffffffffff1916908160001a9053507f780000000000000000000000000000000000000000000000000000000000000081600181518110610eb957610eb861199c565b5b60200101907effffffffffffffffffffffffffffffffffffffffffffffffffffffffffffff1916908160001a90535060006001846002610ef99190611bca565b610f039190611946565b90505b6001811115610fa3577f3031323334353637383961626364656600000000000000000000000000000000600f861660108110610f4557610f4461199c565b5b1a60f81b828281518110610f5c57610f5b61199c565b5b60200101907effffffffffffffffffffffffffffffffffffffffffffffffffffffffffffff1916908160001a905350600485901c945080610f9c90611c53565b9050610f06565b5060008414610fe7576040517f08c379a0000000000000000000000000000000000000000000000000000000008152600401610fde90611cc9565b60405180910390fd5b8091505092915050565b6000611053826040518060400160405280602081526020017f5361666545524332303a206c6f772d6c6576656c2063616c6c206661696c65648152508573ffffffffffffffffffffffffffffffffffffffff166110b89092919063ffffffff16565b90506000815111156110b357808060200190518101906110739190611d15565b6110b2576040517f08c379a00000000000000000000000000000000000000000000000000000000081526004016110a990611db4565b60405180910390fd5b5b505050565b60606110c784846000856110d0565b90509392505050565b606082471015611115576040517f08c379a000000000000000000000000000000000000000000000000000000000815260040161110c90611e46565b60405180910390fd5b61111e856111e4565b61115d576040517f08c379a000000000000000000000000000000000000000000000000000000000815260040161115490611eb2565b60405180910390fd5b6000808673ffffffffffffffffffffffffffffffffffffffff1685876040516111869190611f19565b60006040518083038185875af1925050503d80600081146111c3576040519150601f19603f3d011682016040523d82523d6000602084013e6111c8565b606091505b50915091506111d88282866111f7565b92505050949350505050565b600080823b905060008111915050919050565b6060831561120757829050611257565b60008351111561121a5782518084602001fd5b816040517f08c379a000000000000000000000000000000000000000000000000000000000815260040161124e9190611b61565b60405180910390fd5b9392505050565b60405180606001604052806000815260200160008152602001600081525090565b8280548282559060005260206000209081019282156112bb579160200282015b828111156112ba57825182559160200191906001019061129f565b5b5090506112c891906112cc565b5090565b5b808211156112e55760008160009055506001016112cd565b5090565b600080fd5b60007fffffffff0000000000000000000000000000000000000000000000000000000082169050919050565b611323816112ee565b811461132e57600080fd5b50565b6000813590506113408161131a565b92915050565b60006020828403121561135c5761135b6112e9565b5b600061136a84828501611331565b91505092915050565b60008115159050919050565b61138881611373565b82525050565b60006020820190506113a3600083018461137f565b92915050565b600073ffffffffffffffffffffffffffffffffffffffff82169050919050565b60006113d4826113a9565b9050919050565b6113e4816113c9565b81146113ef57600080fd5b50565b600081359050611401816113db565b92915050565b60006020828403121561141d5761141c6112e9565b5b600061142b848285016113f2565b91505092915050565b6000819050919050565b61144781611434565b82525050565b606082016000820151611463600085018261143e565b506020820151611476602085018261143e565b506040820151611489604085018261143e565b50505050565b60006060820190506114a4600083018461144d565b92915050565b6114b381611434565b81146114be57600080fd5b50565b6000813590506114d0816114aa565b92915050565b6000806000606084860312156114ef576114ee6112e9565b5b60006114fd868287016113f2565b935050602061150e868287016114c1565b925050604061151f868287016114c1565b9150509250925092565b6000819050919050565b61153c81611529565b811461154757600080fd5b50565b60008135905061155981611533565b92915050565b600060208284031215611575576115746112e9565b5b60006115838482850161154a565b91505092915050565b61159581611529565b82525050565b60006020820190506115b0600083018461158c565b92915050565b600080604083850312156115cd576115cc6112e9565b5b60006115db8582860161154a565b92505060206115ec858286016113f2565b9150509250929050565b60008060006060848603121561160f5761160e6112e9565b5b600061161d868287016113f2565b935050602061162e868287016114c1565b925050604061163f868287016113f2565b9150509250925092565b600081519050919050565b600082825260208201905092915050565b6000819050602082019050919050565b60608201600082015161168b600085018261143e565b50602082015161169e602085018261143e565b5060408201516116b1604085018261143e565b50505050565b60006116c38383611675565b60608301905092915050565b6000602082019050919050565b60006116e782611649565b6116f18185611654565b93506116fc83611665565b8060005b8381101561172d57815161171488826116b7565b975061171f836116cf565b925050600181019050611700565b5085935050505092915050565b6000602082019050818103600083015261175481846116dc565b905092915050565b60008060408385031215611773576117726112e9565b5b6000611781858286016113f2565b9250506020611792858286016114c1565b9150509250929050565b600082825260208201905092915050565b7f5468697320706f6f6c20616c7265616479206578697374730000000000000000600082015250565b60006117e360188361179c565b91506117ee826117ad565b602082019050919050565b60006020820190508181036000830152611812816117d6565b9050919050565b7f416363657373436f6e74726f6c3a2063616e206f6e6c792072656e6f756e636560008201527f20726f6c657320666f722073656c660000000000000000000000000000000000602082015250565b6000611875602f8361179c565b915061188082611819565b604082019050919050565b600060208201905081810360008301526118a481611868565b9050919050565b7f5468697320706f6f6c20616c7265616479206578697374732e00000000000000600082015250565b60006118e160198361179c565b91506118ec826118ab565b602082019050919050565b60006020820190508181036000830152611910816118d4565b9050919050565b7f4e487b7100000000000000000000000000000000000000000000000000000000600052601160045260246000fd5b600061195182611434565b915061195c83611434565b9250827fffffffffffffffffffffffffffffffffffffffffffffffffffffffffffffffff0382111561199157611990611917565b5b828201905092915050565b7f4e487b7100000000000000000000000000000000000000000000000000000000600052603260045260246000fd5b600081905092915050565b7f416363657373436f6e74726f6c3a206163636f756e7420000000000000000000600082015250565b6000611a0c6017836119cb565b9150611a17826119d6565b601782019050919050565b600081519050919050565b60005b83811015611a4b578082015181840152602081019050611a30565b83811115611a5a576000848401525b50505050565b6000611a6b82611a22565b611a7581856119cb565b9350611a85818560208601611a2d565b80840191505092915050565b7f206973206d697373696e6720726f6c6520000000000000000000000000000000600082015250565b6000611ac76011836119cb565b9150611ad282611a91565b601182019050919050565b6000611ae8826119ff565b9150611af48285611a60565b9150611aff82611aba565b9150611b0b8284611a60565b91508190509392505050565b6000601f19601f8301169050919050565b6000611b3382611a22565b611b3d818561179c565b9350611b4d818560208601611a2d565b611b5681611b17565b840191505092915050565b60006020820190508181036000830152611b7b8184611b28565b905092915050565b611b8c816113c9565b82525050565b611b9b81611434565b82525050565b6000604082019050611bb66000830185611b83565b611bc36020830184611b92565b9392505050565b6000611bd582611434565b9150611be083611434565b9250817fffffffffffffffffffffffffffffffffffffffffffffffffffffffffffffffff0483118215151615611c1957611c18611917565b5b828202905092915050565b7f4e487b7100000000000000000000000000000000000000000000000000000000600052604160045260246000fd5b6000611c5e82611434565b91506000821415611c7257611c71611917565b5b600182039050919050565b7f537472696e67733a20686578206c656e67746820696e73756666696369656e74600082015250565b6000611cb360208361179c565b9150611cbe82611c7d565b602082019050919050565b60006020820190508181036000830152611ce281611ca6565b9050919050565b611cf281611373565b8114611cfd57600080fd5b50565b600081519050611d0f81611ce9565b92915050565b600060208284031215611d2b57611d2a6112e9565b5b6000611d3984828501611d00565b91505092915050565b7f5361666545524332303a204552433230206f7065726174696f6e20646964206e60008201527f6f74207375636365656400000000000000000000000000000000000000000000602082015250565b6000611d9e602a8361179c565b9150611da982611d42565b604082019050919050565b60006020820190508181036000830152611dcd81611d91565b9050919050565b7f416464726573733a20696e73756666696369656e742062616c616e636520666f60008201527f722063616c6c0000000000000000000000000000000000000000000000000000602082015250565b6000611e3060268361179c565b9150611e3b82611dd4565b604082019050919050565b60006020820190508181036000830152611e5f81611e23565b9050919050565b7f416464726573733a2063616c6c20746f206e6f6e2d636f6e7472616374000000600082015250565b6000611e9c601d8361179c565b9150611ea782611e66565b602082019050919050565b60006020820190508181036000830152611ecb81611e8f565b9050919050565b600081519050919050565b600081905092915050565b6000611ef382611ed2565b611efd8185611edd565b9350611f0d818560208601611a2d565b80840191505092915050565b6000611f258284611ee8565b91508190509291505056fea26469706673582212209dca62c6d7acda01df85fc0c05fa8e1b78c73944f0da719bcf9a82aa63daef3864736f6c634300080b0033",
  "linkReferences": {},
  "deployedLinkReferences": {}
}