{
  "_format": "hh-sol-artifact-1",
  "contractName": "Vault",
  "sourceName": "contracts/Vault.sol",
  "abi": [
    {
      "inputs": [],
      "stateMutability": "nonpayable",
      "type": "constructor"
    },
    {
      "anonymous": false,
      "inputs": [
        {
          "indexed": false,
          "internalType": "address",
          "name": "account",
          "type": "address"
        }
      ],
      "name": "Paused",
      "type": "event"
    },
    {
      "anonymous": false,
      "inputs": [
        {
          "indexed": true,
          "internalType": "bytes32",
          "name": "role",
          "type": "bytes32"
        },
        {
          "indexed": true,
          "internalType": "bytes32",
          "name": "previousAdminRole",
          "type": "bytes32"
        },
        {
          "indexed": true,
          "internalType": "bytes32",
          "name": "newAdminRole",
          "type": "bytes32"
        }
      ],
      "name": "RoleAdminChanged",
      "type": "event"
    },
    {
      "anonymous": false,
      "inputs": [
        {
          "indexed": true,
          "internalType": "bytes32",
          "name": "role",
          "type": "bytes32"
        },
        {
          "indexed": true,
          "internalType": "address",
          "name": "account",
          "type": "address"
        },
        {
          "indexed": true,
          "internalType": "address",
          "name": "sender",
          "type": "address"
        }
      ],
      "name": "RoleGranted",
      "type": "event"
    },
    {
      "anonymous": false,
      "inputs": [
        {
          "indexed": true,
          "internalType": "bytes32",
          "name": "role",
          "type": "bytes32"
        },
        {
          "indexed": true,
          "internalType": "address",
          "name": "account",
          "type": "address"
        },
        {
          "indexed": true,
          "internalType": "address",
          "name": "sender",
          "type": "address"
        }
      ],
      "name": "RoleRevoked",
      "type": "event"
    },
    {
      "anonymous": false,
      "inputs": [
        {
          "indexed": false,
          "internalType": "address",
          "name": "account",
          "type": "address"
        }
      ],
      "name": "Unpaused",
      "type": "event"
    },
    {
      "inputs": [],
      "name": "CREATOR_ROLE",
      "outputs": [
        {
          "internalType": "bytes32",
          "name": "",
          "type": "bytes32"
        }
      ],
      "stateMutability": "view",
      "type": "function"
    },
    {
      "inputs": [],
      "name": "DEFAULT_ADMIN_ROLE",
      "outputs": [
        {
          "internalType": "bytes32",
          "name": "",
          "type": "bytes32"
        }
      ],
      "stateMutability": "view",
      "type": "function"
    },
    {
      "inputs": [
        {
          "internalType": "address",
          "name": "_token",
          "type": "address"
        },
        {
          "internalType": "uint256",
          "name": "_amount",
          "type": "uint256"
        },
        {
          "internalType": "uint256",
          "name": "_rewardsPerDay",
          "type": "uint256"
        }
      ],
      "name": "addPool",
      "outputs": [],
      "stateMutability": "nonpayable",
      "type": "function"
    },
    {
      "inputs": [
        {
          "internalType": "address",
          "name": "_token",
          "type": "address"
        }
      ],
      "name": "checkIfPoolExists",
      "outputs": [
        {
          "internalType": "bool",
          "name": "",
          "type": "bool"
        }
      ],
      "stateMutability": "view",
      "type": "function"
    },
    {
      "inputs": [
        {
          "internalType": "address",
          "name": "_token",
          "type": "address"
        },
        {
          "internalType": "uint256",
          "name": "_amount",
          "type": "uint256"
        },
        {
          "internalType": "uint256",
          "name": "_rewardsPerDay",
          "type": "uint256"
        }
      ],
      "name": "depositStakeNew",
      "outputs": [],
      "stateMutability": "nonpayable",
      "type": "function"
    },
    {
      "inputs": [
        {
          "internalType": "address",
          "name": "_token",
          "type": "address"
        },
        {
          "internalType": "uint256",
          "name": "_amount",
          "type": "uint256"
        }
      ],
      "name": "depositVault",
      "outputs": [],
      "stateMutability": "nonpayable",
      "type": "function"
    },
    {
      "inputs": [
        {
          "internalType": "address",
          "name": "_token",
          "type": "address"
        }
      ],
      "name": "getPoolInfo",
      "outputs": [
        {
          "components": [
            {
              "internalType": "uint256",
              "name": "totalPooled",
              "type": "uint256"
            },
            {
              "internalType": "uint256",
              "name": "totalUsers",
              "type": "uint256"
            },
            {
              "internalType": "uint256",
              "name": "rewardsPerDay",
              "type": "uint256"
            }
          ],
          "internalType": "struct Vault.Pool",
          "name": "",
          "type": "tuple"
        }
      ],
      "stateMutability": "view",
      "type": "function"
    },
    {
      "inputs": [],
      "name": "getPools",
      "outputs": [
        {
          "components": [
            {
              "internalType": "uint256",
              "name": "totalPooled",
              "type": "uint256"
            },
            {
              "internalType": "uint256",
              "name": "totalUsers",
              "type": "uint256"
            },
            {
              "internalType": "uint256",
              "name": "rewardsPerDay",
              "type": "uint256"
            }
          ],
          "internalType": "struct Vault.Pool[]",
          "name": "",
          "type": "tuple[]"
        }
      ],
      "stateMutability": "nonpayable",
      "type": "function"
    },
    {
      "inputs": [
        {
          "internalType": "bytes32",
          "name": "role",
          "type": "bytes32"
        }
      ],
      "name": "getRoleAdmin",
      "outputs": [
        {
          "internalType": "bytes32",
          "name": "",
          "type": "bytes32"
        }
      ],
      "stateMutability": "view",
      "type": "function"
    },
    {
      "inputs": [
        {
          "internalType": "bytes32",
          "name": "role",
          "type": "bytes32"
        },
        {
          "internalType": "address",
          "name": "account",
          "type": "address"
        }
      ],
      "name": "grantRole",
      "outputs": [],
      "stateMutability": "nonpayable",
      "type": "function"
    },
    {
      "inputs": [
        {
          "internalType": "bytes32",
          "name": "role",
          "type": "bytes32"
        },
        {
          "internalType": "address",
          "name": "account",
          "type": "address"
        }
      ],
      "name": "hasRole",
      "outputs": [
        {
          "internalType": "bool",
          "name": "",
          "type": "bool"
        }
      ],
      "stateMutability": "view",
      "type": "function"
    },
    {
      "inputs": [
        {
          "internalType": "address",
          "name": "account",
          "type": "address"
        }
      ],
      "name": "isCreator",
      "outputs": [
        {
          "internalType": "bool",
          "name": "",
          "type": "bool"
        }
      ],
      "stateMutability": "view",
      "type": "function"
    },
    {
      "inputs": [],
      "name": "paused",
      "outputs": [
        {
          "internalType": "bool",
          "name": "",
          "type": "bool"
        }
      ],
      "stateMutability": "view",
      "type": "function"
    },
    {
      "inputs": [
        {
          "internalType": "bytes32",
          "name": "role",
          "type": "bytes32"
        },
        {
          "internalType": "address",
          "name": "account",
          "type": "address"
        }
      ],
      "name": "renounceRole",
      "outputs": [],
      "stateMutability": "nonpayable",
      "type": "function"
    },
    {
      "inputs": [
        {
          "internalType": "bytes32",
          "name": "role",
          "type": "bytes32"
        },
        {
          "internalType": "address",
          "name": "account",
          "type": "address"
        }
      ],
      "name": "revokeRole",
      "outputs": [],
      "stateMutability": "nonpayable",
      "type": "function"
    },
    {
      "inputs": [
        {
          "internalType": "bytes4",
          "name": "interfaceId",
          "type": "bytes4"
        }
      ],
      "name": "supportsInterface",
      "outputs": [
        {
          "internalType": "bool",
          "name": "",
          "type": "bool"
        }
      ],
      "stateMutability": "view",
      "type": "function"
    },
    {
      "inputs": [
        {
          "internalType": "address",
          "name": "_destination",
          "type": "address"
        }
      ],
      "name": "withdrawMATIC",
      "outputs": [],
      "stateMutability": "nonpayable",
      "type": "function"
    },
    {
      "inputs": [
        {
          "internalType": "address",
          "name": "_token",
          "type": "address"
        },
        {
          "internalType": "uint256",
          "name": "_amount",
          "type": "uint256"
        },
        {
          "internalType": "address",
          "name": "_destination",
          "type": "address"
        }
      ],
      "name": "withdrawToken",
      "outputs": [],
      "stateMutability": "nonpayable",
      "type": "function"
    },
    {
      "inputs": [
        {
          "internalType": "address",
          "name": "_token",
          "type": "address"
        },
        {
          "internalType": "uint256",
          "name": "_amount",
          "type": "uint256"
        }
      ],
      "name": "withdrawVault",
      "outputs": [],
      "stateMutability": "nonpayable",
      "type": "function"
    }
  ],
  "bytecode": "0x608060405263082bdcb46002553480156200001957600080fd5b5060008060006101000a81548160ff021916908315150217905550620000496000801b336200008160201b60201c565b6200007b7f3c2519c4487d47714872f92cf90a50c25f5deaec2789dc2a497b1272df611db6336200009760201b60201c565b620001fb565b6200009382826200009760201b60201c565b5050565b620000a982826200018860201b60201c565b6200018457600180600084815260200190815260200160002060000160008373ffffffffffffffffffffffffffffffffffffffff1673ffffffffffffffffffffffffffffffffffffffff16815260200190815260200160002060006101000a81548160ff02191690831515021790555062000129620001f360201b60201c565b73ffffffffffffffffffffffffffffffffffffffff168173ffffffffffffffffffffffffffffffffffffffff16837f2f8788117e7eff1d82e926ec794901d17c78024a50270940304540a733656f0d60405160405180910390a45b5050565b60006001600084815260200190815260200160002060000160008373ffffffffffffffffffffffffffffffffffffffff1673ffffffffffffffffffffffffffffffffffffffff16815260200190815260200160002060009054906101000a900460ff16905092915050565b600033905090565b612067806200020b6000396000f3fe608060405234801561001057600080fd5b50600436106101215760003560e01c8063673a2a1f116100ad578063a217fddf11610071578063a217fddf14610318578063b5fdf33014610336578063d547741f14610352578063efd460651461036e578063f7d8acf61461039e57610121565b8063673a2a1f146102605780638aeda25a1461027e57806391d148541461029c5780639804dab9146102cc578063999126d7146102e857610121565b80632f2ff15d116100f45780632f2ff15d146101d257806330e7e743146101ee57806336568abe1461020a5780633ccdbb28146102265780635c975abb1461024257610121565b806301ffc9a71461012657806306bfa9381461015657806317ccd7ee14610186578063248a9ca3146101a2575b600080fd5b610140600480360381019061013b9190611439565b6103ba565b60405161014d9190611481565b60405180910390f35b610170600480360381019061016b91906114fa565b610434565b60405161017d9190611582565b60405180910390f35b6101a0600480360381019061019b91906115c9565b6104ab565b005b6101bc60048036038101906101b79190611652565b610575565b6040516101c9919061168e565b60405180910390f35b6101ec60048036038101906101e791906116a9565b610595565b005b610208600480360381019061020391906114fa565b6105be565b005b610224600480360381019061021f91906116a9565b6105c1565b005b610240600480360381019061023b91906116e9565b610644565b005b61024a610649565b6040516102579190611481565b60405180910390f35b61026861065f565b604051610275919061182d565b60405180910390f35b610286610664565b604051610293919061168e565b60405180910390f35b6102b660048036038101906102b191906116a9565b610688565b6040516102c39190611481565b60405180910390f35b6102e660048036038101906102e1919061184f565b6106f3565b005b61030260048036038101906102fd91906114fa565b6106f7565b60405161030f9190611481565b60405180910390f35b610320610745565b60405161032d919061168e565b60405180910390f35b610350600480360381019061034b919061184f565b61074c565b005b61036c600480360381019061036791906116a9565b610750565b005b610388600480360381019061038391906114fa565b610779565b6040516103959190611481565b60405180910390f35b6103b860048036038101906103b391906115c9565b6107ac565b005b60007f7965db0b000000000000000000000000000000000000000000000000000000007bffffffffffffffffffffffffffffffffffffffffffffffffffffffff1916827bffffffffffffffffffffffffffffffffffffffffffffffffffffffff1916148061042d575061042c82610b4e565b5b9050919050565b61043c611351565b600560008373ffffffffffffffffffffffffffffffffffffffff1673ffffffffffffffffffffffffffffffffffffffff16815260200190815260200160002060405180606001604052908160008201548152602001600182015481526020016002820154815250509050919050565b6104b4836106f7565b156104f4576040517f08c379a00000000000000000000000000000000000000000000000000000000081526004016104eb906118ec565b60405180910390fd5b60405180606001604052808381526020016001815260200182815250600560008573ffffffffffffffffffffffffffffffffffffffff1673ffffffffffffffffffffffffffffffffffffffff168152602001908152602001600020600082015181600001556020820151816001015560408201518160020155905050505050565b600060016000838152602001908152602001600020600101549050919050565b61059e82610575565b6105af816105aa610bb8565b610bc0565b6105b98383610c5d565b505050565b50565b6105c9610bb8565b73ffffffffffffffffffffffffffffffffffffffff168173ffffffffffffffffffffffffffffffffffffffff1614610636576040517f08c379a000000000000000000000000000000000000000000000000000000000815260040161062d9061197e565b60405180910390fd5b6106408282610d3d565b5050565b505050565b60008060009054906101000a900460ff16905090565b606090565b7f3c2519c4487d47714872f92cf90a50c25f5deaec2789dc2a497b1272df611db681565b60006001600084815260200190815260200160002060000160008373ffffffffffffffffffffffffffffffffffffffff1673ffffffffffffffffffffffffffffffffffffffff16815260200190815260200160002060009054906101000a900460ff16905092915050565b5050565b600080600560008473ffffffffffffffffffffffffffffffffffffffff1673ffffffffffffffffffffffffffffffffffffffff16815260200190815260200160002060010154119050919050565b6000801b81565b5050565b61075982610575565b61076a81610765610bb8565b610bc0565b6107748383610d3d565b505050565b60006107a57f3c2519c4487d47714872f92cf90a50c25f5deaec2789dc2a497b1272df611db683610688565b9050919050565b6107b5836106f7565b156107f5576040517f08c379a00000000000000000000000000000000000000000000000000000000081526004016107ec906119ea565b60405180910390fd5b61081f7f3c2519c4487d47714872f92cf90a50c25f5deaec2789dc2a497b1272df611db633610688565b61082857600080fd5b600060405180608001604052808481526020014281526020016002544261084f9190611a39565b8152602001600115158152509050606060006040518060e001604052808773ffffffffffffffffffffffffffffffffffffffff168152602001868152602001600081526020016000815260200160008152602001838152602001600015158152509050600360003373ffffffffffffffffffffffffffffffffffffffff1673ffffffffffffffffffffffffffffffffffffffff16815260200190815260200160002081908060018154018082558091505060019003906000526020600020906007020160009091909190915060008201518160000160006101000a81548173ffffffffffffffffffffffffffffffffffffffff021916908373ffffffffffffffffffffffffffffffffffffffff1602179055506020820151816001015560408201518160020155606082015181600301556080820151816004015560a08201518160050190805190602001906109a6929190611372565b5060c08201518160060160006101000a81548160ff0219169083151502179055505050600360003373ffffffffffffffffffffffffffffffffffffffff1673ffffffffffffffffffffffffffffffffffffffff168152602001908152602001600020600081548110610a1b57610a1a611a8f565b5b906000526020600020906007020160050160009080600181540180825580915050600190039060005260206000200160009091909190915055600460003373ffffffffffffffffffffffffffffffffffffffff1673ffffffffffffffffffffffffffffffffffffffff168152602001908152602001600020600080815260200190815260200160002083908060018154018082558091505060019003906000526020600020906004020160009091909190915060008201518160000155602082015181600101556040820151816002015560608201518160030160006101000a81548160ff0219169083151502179055505050610b3b3330878973ffffffffffffffffffffffffffffffffffffffff16610e1f909392919063ffffffff16565b610b468686866104ab565b505050505050565b60007f01ffc9a7000000000000000000000000000000000000000000000000000000007bffffffffffffffffffffffffffffffffffffffffffffffffffffffff1916827bffffffffffffffffffffffffffffffffffffffffffffffffffffffff1916149050919050565b600033905090565b610bca8282610688565b610c5957610bef8173ffffffffffffffffffffffffffffffffffffffff166014610ea8565b610bfd8360001c6020610ea8565b604051602001610c0e929190611bd0565b6040516020818303038152906040526040517f08c379a0000000000000000000000000000000000000000000000000000000008152600401610c509190611c54565b60405180910390fd5b5050565b610c678282610688565b610d3957600180600084815260200190815260200160002060000160008373ffffffffffffffffffffffffffffffffffffffff1673ffffffffffffffffffffffffffffffffffffffff16815260200190815260200160002060006101000a81548160ff021916908315150217905550610cde610bb8565b73ffffffffffffffffffffffffffffffffffffffff168173ffffffffffffffffffffffffffffffffffffffff16837f2f8788117e7eff1d82e926ec794901d17c78024a50270940304540a733656f0d60405160405180910390a45b5050565b610d478282610688565b15610e1b5760006001600084815260200190815260200160002060000160008373ffffffffffffffffffffffffffffffffffffffff1673ffffffffffffffffffffffffffffffffffffffff16815260200190815260200160002060006101000a81548160ff021916908315150217905550610dc0610bb8565b73ffffffffffffffffffffffffffffffffffffffff168173ffffffffffffffffffffffffffffffffffffffff16837ff6391f5c32d9c69d2a47ea670b442974b53935d1edc7fd64eb21e047a839171b60405160405180910390a45b5050565b610ea2846323b872dd60e01b858585604051602401610e4093929190611c94565b604051602081830303815290604052907bffffffffffffffffffffffffffffffffffffffffffffffffffffffff19166020820180517bffffffffffffffffffffffffffffffffffffffffffffffffffffffff83818316178352505050506110e4565b50505050565b606060006002836002610ebb9190611ccb565b610ec59190611a39565b67ffffffffffffffff811115610ede57610edd611d25565b5b6040519080825280601f01601f191660200182016040528015610f105781602001600182028036833780820191505090505b5090507f300000000000000000000000000000000000000000000000000000000000000081600081518110610f4857610f47611a8f565b5b60200101907effffffffffffffffffffffffffffffffffffffffffffffffffffffffffffff1916908160001a9053507f780000000000000000000000000000000000000000000000000000000000000081600181518110610fac57610fab611a8f565b5b60200101907effffffffffffffffffffffffffffffffffffffffffffffffffffffffffffff1916908160001a90535060006001846002610fec9190611ccb565b610ff69190611a39565b90505b6001811115611096577f3031323334353637383961626364656600000000000000000000000000000000600f86166010811061103857611037611a8f565b5b1a60f81b82828151811061104f5761104e611a8f565b5b60200101907effffffffffffffffffffffffffffffffffffffffffffffffffffffffffffff1916908160001a905350600485901c94508061108f90611d54565b9050610ff9565b50600084146110da576040517f08c379a00000000000000000000000000000000000000000000000000000000081526004016110d190611dca565b60405180910390fd5b8091505092915050565b6000611146826040518060400160405280602081526020017f5361666545524332303a206c6f772d6c6576656c2063616c6c206661696c65648152508573ffffffffffffffffffffffffffffffffffffffff166111ab9092919063ffffffff16565b90506000815111156111a657808060200190518101906111669190611e16565b6111a5576040517f08c379a000000000000000000000000000000000000000000000000000000000815260040161119c90611eb5565b60405180910390fd5b5b505050565b60606111ba84846000856111c3565b90509392505050565b606082471015611208576040517f08c379a00000000000000000000000000000000000000000000000000000000081526004016111ff90611f47565b60405180910390fd5b611211856112d7565b611250576040517f08c379a000000000000000000000000000000000000000000000000000000000815260040161124790611fb3565b60405180910390fd5b6000808673ffffffffffffffffffffffffffffffffffffffff168587604051611279919061201a565b60006040518083038185875af1925050503d80600081146112b6576040519150601f19603f3d011682016040523d82523d6000602084013e6112bb565b606091505b50915091506112cb8282866112ea565b92505050949350505050565b600080823b905060008111915050919050565b606083156112fa5782905061134a565b60008351111561130d5782518084602001fd5b816040517f08c379a00000000000000000000000000000000000000000000000000000000081526004016113419190611c54565b60405180910390fd5b9392505050565b60405180606001604052806000815260200160008152602001600081525090565b8280548282559060005260206000209081019282156113ae579160200282015b828111156113ad578251825591602001919060010190611392565b5b5090506113bb91906113bf565b5090565b5b808211156113d85760008160009055506001016113c0565b5090565b600080fd5b60007fffffffff0000000000000000000000000000000000000000000000000000000082169050919050565b611416816113e1565b811461142157600080fd5b50565b6000813590506114338161140d565b92915050565b60006020828403121561144f5761144e6113dc565b5b600061145d84828501611424565b91505092915050565b60008115159050919050565b61147b81611466565b82525050565b60006020820190506114966000830184611472565b92915050565b600073ffffffffffffffffffffffffffffffffffffffff82169050919050565b60006114c78261149c565b9050919050565b6114d7816114bc565b81146114e257600080fd5b50565b6000813590506114f4816114ce565b92915050565b6000602082840312156115105761150f6113dc565b5b600061151e848285016114e5565b91505092915050565b6000819050919050565b61153a81611527565b82525050565b6060820160008201516115566000850182611531565b5060208201516115696020850182611531565b50604082015161157c6040850182611531565b50505050565b60006060820190506115976000830184611540565b92915050565b6115a681611527565b81146115b157600080fd5b50565b6000813590506115c38161159d565b92915050565b6000806000606084860312156115e2576115e16113dc565b5b60006115f0868287016114e5565b9350506020611601868287016115b4565b9250506040611612868287016115b4565b9150509250925092565b6000819050919050565b61162f8161161c565b811461163a57600080fd5b50565b60008135905061164c81611626565b92915050565b600060208284031215611668576116676113dc565b5b60006116768482850161163d565b91505092915050565b6116888161161c565b82525050565b60006020820190506116a3600083018461167f565b92915050565b600080604083850312156116c0576116bf6113dc565b5b60006116ce8582860161163d565b92505060206116df858286016114e5565b9150509250929050565b600080600060608486031215611702576117016113dc565b5b6000611710868287016114e5565b9350506020611721868287016115b4565b9250506040611732868287016114e5565b9150509250925092565b600081519050919050565b600082825260208201905092915050565b6000819050602082019050919050565b60608201600082015161177e6000850182611531565b5060208201516117916020850182611531565b5060408201516117a46040850182611531565b50505050565b60006117b68383611768565b60608301905092915050565b6000602082019050919050565b60006117da8261173c565b6117e48185611747565b93506117ef83611758565b8060005b8381101561182057815161180788826117aa565b9750611812836117c2565b9250506001810190506117f3565b5085935050505092915050565b6000602082019050818103600083015261184781846117cf565b905092915050565b60008060408385031215611866576118656113dc565b5b6000611874858286016114e5565b9250506020611885858286016115b4565b9150509250929050565b600082825260208201905092915050565b7f5468697320706f6f6c20616c7265616479206578697374730000000000000000600082015250565b60006118d660188361188f565b91506118e1826118a0565b602082019050919050565b60006020820190508181036000830152611905816118c9565b9050919050565b7f416363657373436f6e74726f6c3a2063616e206f6e6c792072656e6f756e636560008201527f20726f6c657320666f722073656c660000000000000000000000000000000000602082015250565b6000611968602f8361188f565b91506119738261190c565b604082019050919050565b600060208201905081810360008301526119978161195b565b9050919050565b7f5468697320706f6f6c20616c7265616479206578697374732e00000000000000600082015250565b60006119d460198361188f565b91506119df8261199e565b602082019050919050565b60006020820190508181036000830152611a03816119c7565b9050919050565b7f4e487b7100000000000000000000000000000000000000000000000000000000600052601160045260246000fd5b6000611a4482611527565b9150611a4f83611527565b9250827fffffffffffffffffffffffffffffffffffffffffffffffffffffffffffffffff03821115611a8457611a83611a0a565b5b828201905092915050565b7f4e487b7100000000000000000000000000000000000000000000000000000000600052603260045260246000fd5b600081905092915050565b7f416363657373436f6e74726f6c3a206163636f756e7420000000000000000000600082015250565b6000611aff601783611abe565b9150611b0a82611ac9565b601782019050919050565b600081519050919050565b60005b83811015611b3e578082015181840152602081019050611b23565b83811115611b4d576000848401525b50505050565b6000611b5e82611b15565b611b688185611abe565b9350611b78818560208601611b20565b80840191505092915050565b7f206973206d697373696e6720726f6c6520000000000000000000000000000000600082015250565b6000611bba601183611abe565b9150611bc582611b84565b601182019050919050565b6000611bdb82611af2565b9150611be78285611b53565b9150611bf282611bad565b9150611bfe8284611b53565b91508190509392505050565b6000601f19601f8301169050919050565b6000611c2682611b15565b611c30818561188f565b9350611c40818560208601611b20565b611c4981611c0a565b840191505092915050565b60006020820190508181036000830152611c6e8184611c1b565b905092915050565b611c7f816114bc565b82525050565b611c8e81611527565b82525050565b6000606082019050611ca96000830186611c76565b611cb66020830185611c76565b611cc36040830184611c85565b949350505050565b6000611cd682611527565b9150611ce183611527565b9250817fffffffffffffffffffffffffffffffffffffffffffffffffffffffffffffffff0483118215151615611d1a57611d19611a0a565b5b828202905092915050565b7f4e487b7100000000000000000000000000000000000000000000000000000000600052604160045260246000fd5b6000611d5f82611527565b91506000821415611d7357611d72611a0a565b5b600182039050919050565b7f537472696e67733a20686578206c656e67746820696e73756666696369656e74600082015250565b6000611db460208361188f565b9150611dbf82611d7e565b602082019050919050565b60006020820190508181036000830152611de381611da7565b9050919050565b611df381611466565b8114611dfe57600080fd5b50565b600081519050611e1081611dea565b92915050565b600060208284031215611e2c57611e2b6113dc565b5b6000611e3a84828501611e01565b91505092915050565b7f5361666545524332303a204552433230206f7065726174696f6e20646964206e60008201527f6f74207375636365656400000000000000000000000000000000000000000000602082015250565b6000611e9f602a8361188f565b9150611eaa82611e43565b604082019050919050565b60006020820190508181036000830152611ece81611e92565b9050919050565b7f416464726573733a20696e73756666696369656e742062616c616e636520666f60008201527f722063616c6c0000000000000000000000000000000000000000000000000000602082015250565b6000611f3160268361188f565b9150611f3c82611ed5565b604082019050919050565b60006020820190508181036000830152611f6081611f24565b9050919050565b7f416464726573733a2063616c6c20746f206e6f6e2d636f6e7472616374000000600082015250565b6000611f9d601d8361188f565b9150611fa882611f67565b602082019050919050565b60006020820190508181036000830152611fcc81611f90565b9050919050565b600081519050919050565b600081905092915050565b6000611ff482611fd3565b611ffe8185611fde565b935061200e818560208601611b20565b80840191505092915050565b60006120268284611fe9565b91508190509291505056fea264697066735822122050c806f4639b8279dc4baa8ba888f6bafa7d3449688f856b6f0d3d83ab0176cd64736f6c634300080b0033",
  "linkReferences": {},
  "deployedLinkReferences": {}
}