{
  "_format": "hh-sol-artifact-1",
  "contractName": "TreasuryStorage",
  "sourceName": "contracts/treasury/TreasuryStorage.sol",
  "abi": [
    {
      "inputs": [
        {
          "internalType": "address",
          "name": "_treasuryShares",
          "type": "address"
        }
      ],
      "stateMutability": "nonpayable",
      "type": "constructor"
    },
    {
      "anonymous": false,
      "inputs": [
        {
          "indexed": true,
          "internalType": "bytes32",
          "name": "role",
          "type": "bytes32"
        },
        {
          "indexed": true,
          "internalType": "bytes32",
          "name": "previousAdminRole",
          "type": "bytes32"
        },
        {
          "indexed": true,
          "internalType": "bytes32",
          "name": "newAdminRole",
          "type": "bytes32"
        }
      ],
      "name": "RoleAdminChanged",
      "type": "event"
    },
    {
      "anonymous": false,
      "inputs": [
        {
          "indexed": true,
          "internalType": "bytes32",
          "name": "role",
          "type": "bytes32"
        },
        {
          "indexed": true,
          "internalType": "address",
          "name": "account",
          "type": "address"
        },
        {
          "indexed": true,
          "internalType": "address",
          "name": "sender",
          "type": "address"
        }
      ],
      "name": "RoleGranted",
      "type": "event"
    },
    {
      "anonymous": false,
      "inputs": [
        {
          "indexed": true,
          "internalType": "bytes32",
          "name": "role",
          "type": "bytes32"
        },
        {
          "indexed": true,
          "internalType": "address",
          "name": "account",
          "type": "address"
        },
        {
          "indexed": true,
          "internalType": "address",
          "name": "sender",
          "type": "address"
        }
      ],
      "name": "RoleRevoked",
      "type": "event"
    },
    {
      "inputs": [],
      "name": "DEFAULT_ADMIN_ROLE",
      "outputs": [
        {
          "internalType": "bytes32",
          "name": "",
          "type": "bytes32"
        }
      ],
      "stateMutability": "view",
      "type": "function"
    },
    {
      "inputs": [],
      "name": "REVENUE_CONTROLLER",
      "outputs": [
        {
          "internalType": "bytes32",
          "name": "",
          "type": "bytes32"
        }
      ],
      "stateMutability": "view",
      "type": "function"
    },
    {
      "inputs": [
        {
          "internalType": "address",
          "name": "_token",
          "type": "address"
        }
      ],
      "name": "addPool",
      "outputs": [],
      "stateMutability": "nonpayable",
      "type": "function"
    },
    {
      "inputs": [
        {
          "internalType": "address",
          "name": "_token",
          "type": "address"
        }
      ],
      "name": "checkIfPoolExists",
      "outputs": [
        {
          "internalType": "bool",
          "name": "",
          "type": "bool"
        }
      ],
      "stateMutability": "view",
      "type": "function"
    },
    {
      "inputs": [
        {
          "internalType": "address",
          "name": "_user",
          "type": "address"
        },
        {
          "internalType": "address",
          "name": "_token",
          "type": "address"
        }
      ],
      "name": "checkIfUserPositionExists",
      "outputs": [
        {
          "internalType": "bool",
          "name": "",
          "type": "bool"
        }
      ],
      "stateMutability": "view",
      "type": "function"
    },
    {
      "inputs": [
        {
          "internalType": "address",
          "name": "_user",
          "type": "address"
        },
        {
          "internalType": "address",
          "name": "_token",
          "type": "address"
        },
        {
          "internalType": "uint256",
          "name": "_amount",
          "type": "uint256"
        }
      ],
      "name": "deposit",
      "outputs": [],
      "stateMutability": "nonpayable",
      "type": "function"
    },
    {
      "inputs": [
        {
          "internalType": "address",
          "name": "_token",
          "type": "address"
        }
      ],
      "name": "getPool",
      "outputs": [
        {
          "components": [
            {
              "internalType": "uint256",
              "name": "totalPooled",
              "type": "uint256"
            },
            {
              "internalType": "bool",
              "name": "isActive",
              "type": "bool"
            }
          ],
          "internalType": "struct TreasuryStorage.Pool",
          "name": "",
          "type": "tuple"
        }
      ],
      "stateMutability": "view",
      "type": "function"
    },
    {
      "inputs": [
        {
          "internalType": "bytes32",
          "name": "role",
          "type": "bytes32"
        }
      ],
      "name": "getRoleAdmin",
      "outputs": [
        {
          "internalType": "bytes32",
          "name": "",
          "type": "bytes32"
        }
      ],
      "stateMutability": "view",
      "type": "function"
    },
    {
      "inputs": [
        {
          "internalType": "address",
          "name": "_token",
          "type": "address"
        }
      ],
      "name": "getTokenSupply",
      "outputs": [
        {
          "internalType": "uint256",
          "name": "",
          "type": "uint256"
        }
      ],
      "stateMutability": "view",
      "type": "function"
    },
    {
      "inputs": [
        {
          "internalType": "address",
          "name": "_token",
          "type": "address"
        },
        {
          "internalType": "address",
          "name": "_user",
          "type": "address"
        }
      ],
      "name": "getUnlockedAmount",
      "outputs": [
        {
          "internalType": "uint256",
          "name": "unlockedAmount",
          "type": "uint256"
        }
      ],
      "stateMutability": "view",
      "type": "function"
    },
    {
      "inputs": [
        {
          "internalType": "address",
          "name": "_token",
          "type": "address"
        },
        {
          "internalType": "address",
          "name": "_user",
          "type": "address"
        }
      ],
      "name": "getUserPosition",
      "outputs": [
        {
          "components": [
            {
              "internalType": "uint256",
              "name": "totalAmount",
              "type": "uint256"
            },
            {
              "internalType": "uint256",
              "name": "loanedAmount",
              "type": "uint256"
            },
            {
              "internalType": "uint256",
              "name": "profit",
              "type": "uint256"
            },
            {
              "internalType": "uint256",
              "name": "lastAllocRequestBlock",
              "type": "uint256"
            }
          ],
          "internalType": "struct TreasuryStorage.UserPosition",
          "name": "",
          "type": "tuple"
        }
      ],
      "stateMutability": "view",
      "type": "function"
    },
    {
      "inputs": [
        {
          "internalType": "bytes32",
          "name": "role",
          "type": "bytes32"
        },
        {
          "internalType": "address",
          "name": "account",
          "type": "address"
        }
      ],
      "name": "grantRole",
      "outputs": [],
      "stateMutability": "nonpayable",
      "type": "function"
    },
    {
      "inputs": [
        {
          "internalType": "bytes32",
          "name": "role",
          "type": "bytes32"
        },
        {
          "internalType": "address",
          "name": "account",
          "type": "address"
        }
      ],
      "name": "hasRole",
      "outputs": [
        {
          "internalType": "bool",
          "name": "",
          "type": "bool"
        }
      ],
      "stateMutability": "view",
      "type": "function"
    },
    {
      "inputs": [
        {
          "internalType": "address",
          "name": "_token",
          "type": "address"
        },
        {
          "internalType": "address",
          "name": "_user",
          "type": "address"
        },
        {
          "internalType": "uint256",
          "name": "_amount",
          "type": "uint256"
        }
      ],
      "name": "loan",
      "outputs": [],
      "stateMutability": "nonpayable",
      "type": "function"
    },
    {
      "inputs": [
        {
          "internalType": "address",
          "name": "_destination",
          "type": "address"
        },
        {
          "internalType": "uint256",
          "name": "_amount",
          "type": "uint256"
        }
      ],
      "name": "mintTreasuryShares",
      "outputs": [],
      "stateMutability": "nonpayable",
      "type": "function"
    },
    {
      "inputs": [
        {
          "internalType": "bytes32",
          "name": "role",
          "type": "bytes32"
        },
        {
          "internalType": "address",
          "name": "account",
          "type": "address"
        }
      ],
      "name": "renounceRole",
      "outputs": [],
      "stateMutability": "nonpayable",
      "type": "function"
    },
    {
      "inputs": [
        {
          "internalType": "address",
          "name": "_user",
          "type": "address"
        },
        {
          "internalType": "address",
          "name": "_token",
          "type": "address"
        },
        {
          "internalType": "uint256",
          "name": "_principal",
          "type": "uint256"
        }
      ],
      "name": "returnPrincipal",
      "outputs": [],
      "stateMutability": "nonpayable",
      "type": "function"
    },
    {
      "inputs": [
        {
          "internalType": "bytes32",
          "name": "role",
          "type": "bytes32"
        },
        {
          "internalType": "address",
          "name": "account",
          "type": "address"
        }
      ],
      "name": "revokeRole",
      "outputs": [],
      "stateMutability": "nonpayable",
      "type": "function"
    },
    {
      "inputs": [
        {
          "internalType": "address",
          "name": "_token",
          "type": "address"
        },
        {
          "internalType": "address",
          "name": "_user",
          "type": "address"
        },
        {
          "internalType": "uint256",
          "name": "_profit",
          "type": "uint256"
        },
        {
          "internalType": "uint256",
          "name": "_lastAllockRequetBlock",
          "type": "uint256"
        }
      ],
      "name": "setUserPosition",
      "outputs": [],
      "stateMutability": "nonpayable",
      "type": "function"
    },
    {
      "inputs": [
        {
          "internalType": "bytes4",
          "name": "interfaceId",
          "type": "bytes4"
        }
      ],
      "name": "supportsInterface",
      "outputs": [
        {
          "internalType": "bool",
          "name": "",
          "type": "bool"
        }
      ],
      "stateMutability": "view",
      "type": "function"
    },
    {
      "inputs": [
        {
          "internalType": "address",
          "name": "_token",
          "type": "address"
        },
        {
          "internalType": "uint256",
          "name": "_amount",
          "type": "uint256"
        }
      ],
      "name": "updatePool",
      "outputs": [
        {
          "components": [
            {
              "internalType": "uint256",
              "name": "totalPooled",
              "type": "uint256"
            },
            {
              "internalType": "bool",
              "name": "isActive",
              "type": "bool"
            }
          ],
          "internalType": "struct TreasuryStorage.Pool",
          "name": "",
          "type": "tuple"
        }
      ],
      "stateMutability": "nonpayable",
      "type": "function"
    },
    {
      "inputs": [
        {
          "internalType": "address",
          "name": "_token",
          "type": "address"
        },
        {
          "internalType": "address",
          "name": "_user",
          "type": "address"
        },
        {
          "internalType": "uint256",
          "name": "_amount",
          "type": "uint256"
        }
      ],
      "name": "withdraw",
      "outputs": [],
      "stateMutability": "nonpayable",
      "type": "function"
    }
  ],
  "bytecode": "0x60806040523480156200001157600080fd5b5060405162002d0f38038062002d0f833981810160405281019062000037919062000277565b80600160006101000a81548173ffffffffffffffffffffffffffffffffffffffff021916908373ffffffffffffffffffffffffffffffffffffffff1602179055506200008d6000801b336200009460201b60201c565b50620002a9565b620000a68282620000aa60201b60201c565b5050565b620000bc82826200019b60201b60201c565b6200019757600160008084815260200190815260200160002060000160008373ffffffffffffffffffffffffffffffffffffffff1673ffffffffffffffffffffffffffffffffffffffff16815260200190815260200160002060006101000a81548160ff0219169083151502179055506200013c6200020560201b60201c565b73ffffffffffffffffffffffffffffffffffffffff168173ffffffffffffffffffffffffffffffffffffffff16837f2f8788117e7eff1d82e926ec794901d17c78024a50270940304540a733656f0d60405160405180910390a45b5050565b600080600084815260200190815260200160002060000160008373ffffffffffffffffffffffffffffffffffffffff1673ffffffffffffffffffffffffffffffffffffffff16815260200190815260200160002060009054906101000a900460ff16905092915050565b600033905090565b600080fd5b600073ffffffffffffffffffffffffffffffffffffffff82169050919050565b60006200023f8262000212565b9050919050565b620002518162000232565b81146200025d57600080fd5b50565b600081519050620002718162000246565b92915050565b60006020828403121562000290576200028f6200020d565b5b6000620002a08482850162000260565b91505092915050565b612a5680620002b96000396000f3fe608060405234801561001057600080fd5b50600436106101425760003560e01c806392a576e6116100b8578063d2456a951161007c578063d2456a95146103bd578063d547741f146103d9578063d914cd4b146103f5578063d9caed1214610411578063f2866c781461042d578063f897e3761461045d57610142565b806392a576e6146102df578063999126d71461030f578063a217fddf1461033f578063b6f867a81461035d578063bbe4f6db1461038d57610142565b806336568abe1161010a57806336568abe1461020f5780633e0a56181461022b57806361c81120146102475780638340f549146102635780638ed7333d1461027f57806391d14854146102af57610142565b80630122a7e81461014757806301ce30701461017757806301ffc9a714610193578063248a9ca3146101c35780632f2ff15d146101f3575b600080fd5b610161600480360381019061015c9190611c88565b61047b565b60405161016e9190611ce1565b60405180910390f35b610191600480360381019061018c9190611d28565b610519565b005b6101ad60048036038101906101a89190611dc0565b6105c2565b6040516101ba9190611e08565b60405180910390f35b6101dd60048036038101906101d89190611e59565b61063c565b6040516101ea9190611e95565b60405180910390f35b61020d60048036038101906102089190611eb0565b61065b565b005b61022960048036038101906102249190611eb0565b610684565b005b61024560048036038101906102409190611ef0565b610707565b005b610261600480360381019061025c9190611ef0565b6107db565b005b61027d60048036038101906102789190611ef0565b6109cc565b005b61029960048036038101906102949190611d28565b610b01565b6040516102a69190611f90565b60405180910390f35b6102c960048036038101906102c49190611eb0565b610bd4565b6040516102d69190611e08565b60405180910390f35b6102f960048036038101906102f49190611c88565b610c3e565b6040516103069190612000565b60405180910390f35b6103296004803603810190610324919061201b565b610cfd565b6040516103369190611e08565b60405180910390f35b610347610d56565b6040516103549190611e95565b60405180910390f35b61037760048036038101906103729190611c88565b610d5d565b6040516103849190611e08565b60405180910390f35b6103a760048036038101906103a2919061201b565b610de9565b6040516103b49190611f90565b60405180910390f35b6103d760048036038101906103d29190612048565b610e67565b005b6103f360048036038101906103ee9190611eb0565b610f45565b005b61040f600480360381019061040a919061201b565b610f6e565b005b61042b60048036038101906104269190611ef0565b611072565b005b6104476004803603810190610442919061201b565b611269565b6040516104549190611ce1565b60405180910390f35b6104656112ec565b6040516104729190611e95565b60405180910390f35b600080600260008473ffffffffffffffffffffffffffffffffffffffff1673ffffffffffffffffffffffffffffffffffffffff16815260200190815260200160002060008573ffffffffffffffffffffffffffffffffffffffff1673ffffffffffffffffffffffffffffffffffffffff16815260200190815260200160002090508060010154816000015461051091906120de565b91505092915050565b6000801b61052e81610529611310565b611318565b600160009054906101000a900473ffffffffffffffffffffffffffffffffffffffff1673ffffffffffffffffffffffffffffffffffffffff166340c10f1984846040518363ffffffff1660e01b815260040161058b929190612121565b600060405180830381600087803b1580156105a557600080fd5b505af11580156105b9573d6000803e3d6000fd5b50505050505050565b60007f7965db0b000000000000000000000000000000000000000000000000000000007bffffffffffffffffffffffffffffffffffffffffffffffffffffffff1916827bffffffffffffffffffffffffffffffffffffffffffffffffffffffff191614806106355750610634826113b5565b5b9050919050565b6000806000838152602001908152602001600020600101549050919050565b6106648261063c565b61067581610670611310565b611318565b61067f838361141f565b505050565b61068c611310565b73ffffffffffffffffffffffffffffffffffffffff168173ffffffffffffffffffffffffffffffffffffffff16146106f9576040517f08c379a00000000000000000000000000000000000000000000000000000000081526004016106f0906121cd565b60405180910390fd5b61070382826114ff565b5050565b7ffa146205d79c04d22c6b2309d75a6844cd1b28ad727f2383e3ee22681f00139961073981610734611310565b611318565b6000600260008673ffffffffffffffffffffffffffffffffffffffff1673ffffffffffffffffffffffffffffffffffffffff16815260200190815260200160002060008573ffffffffffffffffffffffffffffffffffffffff1673ffffffffffffffffffffffffffffffffffffffff1681526020019081526020016000209050828160010160008282546107cd91906120de565b925050819055505050505050565b806107e6848461047b565b11610826576040517f08c379a000000000000000000000000000000000000000000000000000000000815260040161081d9061225f565b60405180910390fd5b6000600260008473ffffffffffffffffffffffffffffffffffffffff1673ffffffffffffffffffffffffffffffffffffffff16815260200190815260200160002060008573ffffffffffffffffffffffffffffffffffffffff1673ffffffffffffffffffffffffffffffffffffffff1681526020019081526020016000209050818160010160008282546108ba919061227f565b9250508190555081600360008673ffffffffffffffffffffffffffffffffffffffff1673ffffffffffffffffffffffffffffffffffffffff168152602001908152602001600020600001600082825461091391906120de565b925050819055508373ffffffffffffffffffffffffffffffffffffffff1663095ea7b330846040518363ffffffff1660e01b8152600401610955929190612121565b6020604051808303816000875af1158015610974573d6000803e3d6000fd5b505050506040513d601f19601f820116820180604052508101906109989190612301565b506109c63084848773ffffffffffffffffffffffffffffffffffffffff166115e0909392919063ffffffff16565b50505050565b6109d582610cfd565b610a14576040517f08c379a0000000000000000000000000000000000000000000000000000000008152600401610a0b9061237a565b60405180910390fd5b610a1e8383610d5d565b610a3257610a2d828483611669565b610acf565b6000600260008473ffffffffffffffffffffffffffffffffffffffff1673ffffffffffffffffffffffffffffffffffffffff16815260200190815260200160002060008573ffffffffffffffffffffffffffffffffffffffff1673ffffffffffffffffffffffffffffffffffffffff168152602001908152602001600020905081816000016000828254610ac6919061227f565b92505081905550505b610afc8330838573ffffffffffffffffffffffffffffffffffffffff166115e0909392919063ffffffff16565b505050565b610b09611be1565b7ffa146205d79c04d22c6b2309d75a6844cd1b28ad727f2383e3ee22681f001399610b3b81610b36611310565b611318565b6000600360008673ffffffffffffffffffffffffffffffffffffffff1673ffffffffffffffffffffffffffffffffffffffff168152602001908152602001600020905083816000016000828254610b92919061227f565b9250508190555080604051806040016040529081600082015481526020016001820160009054906101000a900460ff1615151515815250509250505092915050565b600080600084815260200190815260200160002060000160008373ffffffffffffffffffffffffffffffffffffffff1673ffffffffffffffffffffffffffffffffffffffff16815260200190815260200160002060009054906101000a900460ff16905092915050565b610c46611bfd565b600260008373ffffffffffffffffffffffffffffffffffffffff1673ffffffffffffffffffffffffffffffffffffffff16815260200190815260200160002060008473ffffffffffffffffffffffffffffffffffffffff1673ffffffffffffffffffffffffffffffffffffffff168152602001908152602001600020604051806080016040529081600082015481526020016001820154815260200160028201548152602001600382015481525050905092915050565b6000600360008373ffffffffffffffffffffffffffffffffffffffff1673ffffffffffffffffffffffffffffffffffffffff16815260200190815260200160002060010160009054906101000a900460ff169050919050565b6000801b81565b600080600260008573ffffffffffffffffffffffffffffffffffffffff1673ffffffffffffffffffffffffffffffffffffffff16815260200190815260200160002060008473ffffffffffffffffffffffffffffffffffffffff1673ffffffffffffffffffffffffffffffffffffffff1681526020019081526020016000206000015411905092915050565b610df1611be1565b600360008373ffffffffffffffffffffffffffffffffffffffff1673ffffffffffffffffffffffffffffffffffffffff168152602001908152602001600020604051806040016040529081600082015481526020016001820160009054906101000a900460ff1615151515815250509050919050565b7ffa146205d79c04d22c6b2309d75a6844cd1b28ad727f2383e3ee22681f001399610e9981610e94611310565b611318565b6000600260008673ffffffffffffffffffffffffffffffffffffffff1673ffffffffffffffffffffffffffffffffffffffff16815260200190815260200160002060008773ffffffffffffffffffffffffffffffffffffffff1673ffffffffffffffffffffffffffffffffffffffff168152602001908152602001600020905083816002016000828254610f2d919061227f565b92505081905550828160030181905550505050505050565b610f4e8261063c565b610f5f81610f5a611310565b611318565b610f6983836114ff565b505050565b7ffa146205d79c04d22c6b2309d75a6844cd1b28ad727f2383e3ee22681f001399610fa081610f9b611310565b611318565b610fa982610cfd565b15610fe9576040517f08c379a0000000000000000000000000000000000000000000000000000000008152600401610fe0906123e6565b60405180910390fd5b60405180604001604052806000815260200160011515815250600360008473ffffffffffffffffffffffffffffffffffffffff1673ffffffffffffffffffffffffffffffffffffffff1681526020019081526020016000206000820151816000015560208201518160010160006101000a81548160ff0219169083151502179055509050505050565b8061107d848461047b565b116110bd576040517f08c379a00000000000000000000000000000000000000000000000000000000081526004016110b490612478565b60405180910390fd5b6000600260008573ffffffffffffffffffffffffffffffffffffffff1673ffffffffffffffffffffffffffffffffffffffff16815260200190815260200160002060008473ffffffffffffffffffffffffffffffffffffffff1673ffffffffffffffffffffffffffffffffffffffff16815260200190815260200160002090508181600001600082825461115191906120de565b925050819055506000600360008673ffffffffffffffffffffffffffffffffffffffff1673ffffffffffffffffffffffffffffffffffffffff1681526020019081526020016000209050828160000160008282546111af91906120de565b925050819055508473ffffffffffffffffffffffffffffffffffffffff1663095ea7b330856040518363ffffffff1660e01b81526004016111f1929190612121565b6020604051808303816000875af1158015611210573d6000803e3d6000fd5b505050506040513d601f19601f820116820180604052508101906112349190612301565b506112623085858873ffffffffffffffffffffffffffffffffffffffff166115e0909392919063ffffffff16565b5050505050565b60008173ffffffffffffffffffffffffffffffffffffffff166370a08231306040518263ffffffff1660e01b81526004016112a49190612498565b602060405180830381865afa1580156112c1573d6000803e3d6000fd5b505050506040513d601f19601f820116820180604052508101906112e591906124c8565b9050919050565b7ffa146205d79c04d22c6b2309d75a6844cd1b28ad727f2383e3ee22681f00139981565b600033905090565b6113228282610bd4565b6113b1576113478173ffffffffffffffffffffffffffffffffffffffff166014611738565b6113558360001c6020611738565b604051602001611366929190612607565b6040516020818303038152906040526040517f08c379a00000000000000000000000000000000000000000000000000000000081526004016113a8919061268b565b60405180910390fd5b5050565b60007f01ffc9a7000000000000000000000000000000000000000000000000000000007bffffffffffffffffffffffffffffffffffffffffffffffffffffffff1916827bffffffffffffffffffffffffffffffffffffffffffffffffffffffff1916149050919050565b6114298282610bd4565b6114fb57600160008084815260200190815260200160002060000160008373ffffffffffffffffffffffffffffffffffffffff1673ffffffffffffffffffffffffffffffffffffffff16815260200190815260200160002060006101000a81548160ff0219169083151502179055506114a0611310565b73ffffffffffffffffffffffffffffffffffffffff168173ffffffffffffffffffffffffffffffffffffffff16837f2f8788117e7eff1d82e926ec794901d17c78024a50270940304540a733656f0d60405160405180910390a45b5050565b6115098282610bd4565b156115dc57600080600084815260200190815260200160002060000160008373ffffffffffffffffffffffffffffffffffffffff1673ffffffffffffffffffffffffffffffffffffffff16815260200190815260200160002060006101000a81548160ff021916908315150217905550611581611310565b73ffffffffffffffffffffffffffffffffffffffff168173ffffffffffffffffffffffffffffffffffffffff16837ff6391f5c32d9c69d2a47ea670b442974b53935d1edc7fd64eb21e047a839171b60405160405180910390a45b5050565b611663846323b872dd60e01b858585604051602401611601939291906126ad565b604051602081830303815290604052907bffffffffffffffffffffffffffffffffffffffffffffffffffffffff19166020820180517bffffffffffffffffffffffffffffffffffffffffffffffffffffffff8381831617835250505050611974565b50505050565b6040518060800160405280828152602001600081526020016000815260200143815250600260008473ffffffffffffffffffffffffffffffffffffffff1673ffffffffffffffffffffffffffffffffffffffff16815260200190815260200160002060008573ffffffffffffffffffffffffffffffffffffffff1673ffffffffffffffffffffffffffffffffffffffff16815260200190815260200160002060008201518160000155602082015181600101556040820151816002015560608201518160030155905050505050565b60606000600283600261174b91906126e4565b611755919061227f565b67ffffffffffffffff81111561176e5761176d61273e565b5b6040519080825280601f01601f1916602001820160405280156117a05781602001600182028036833780820191505090505b5090507f3000000000000000000000000000000000000000000000000000000000000000816000815181106117d8576117d761276d565b5b60200101907effffffffffffffffffffffffffffffffffffffffffffffffffffffffffffff1916908160001a9053507f78000000000000000000000000000000000000000000000000000000000000008160018151811061183c5761183b61276d565b5b60200101907effffffffffffffffffffffffffffffffffffffffffffffffffffffffffffff1916908160001a9053506000600184600261187c91906126e4565b611886919061227f565b90505b6001811115611926577f3031323334353637383961626364656600000000000000000000000000000000600f8616601081106118c8576118c761276d565b5b1a60f81b8282815181106118df576118de61276d565b5b60200101907effffffffffffffffffffffffffffffffffffffffffffffffffffffffffffff1916908160001a905350600485901c94508061191f9061279c565b9050611889565b506000841461196a576040517f08c379a000000000000000000000000000000000000000000000000000000000815260040161196190612812565b60405180910390fd5b8091505092915050565b60006119d6826040518060400160405280602081526020017f5361666545524332303a206c6f772d6c6576656c2063616c6c206661696c65648152508573ffffffffffffffffffffffffffffffffffffffff16611a3b9092919063ffffffff16565b9050600081511115611a3657808060200190518101906119f69190612301565b611a35576040517f08c379a0000000000000000000000000000000000000000000000000000000008152600401611a2c906128a4565b60405180910390fd5b5b505050565b6060611a4a8484600085611a53565b90509392505050565b606082471015611a98576040517f08c379a0000000000000000000000000000000000000000000000000000000008152600401611a8f90612936565b60405180910390fd5b611aa185611b67565b611ae0576040517f08c379a0000000000000000000000000000000000000000000000000000000008152600401611ad7906129a2565b60405180910390fd5b6000808673ffffffffffffffffffffffffffffffffffffffff168587604051611b099190612a09565b60006040518083038185875af1925050503d8060008114611b46576040519150601f19603f3d011682016040523d82523d6000602084013e611b4b565b606091505b5091509150611b5b828286611b7a565b92505050949350505050565b600080823b905060008111915050919050565b60608315611b8a57829050611bda565b600083511115611b9d5782518084602001fd5b816040517f08c379a0000000000000000000000000000000000000000000000000000000008152600401611bd1919061268b565b60405180910390fd5b9392505050565b6040518060400160405280600081526020016000151581525090565b6040518060800160405280600081526020016000815260200160008152602001600081525090565b600080fd5b600073ffffffffffffffffffffffffffffffffffffffff82169050919050565b6000611c5582611c2a565b9050919050565b611c6581611c4a565b8114611c7057600080fd5b50565b600081359050611c8281611c5c565b92915050565b60008060408385031215611c9f57611c9e611c25565b5b6000611cad85828601611c73565b9250506020611cbe85828601611c73565b9150509250929050565b6000819050919050565b611cdb81611cc8565b82525050565b6000602082019050611cf66000830184611cd2565b92915050565b611d0581611cc8565b8114611d1057600080fd5b50565b600081359050611d2281611cfc565b92915050565b60008060408385031215611d3f57611d3e611c25565b5b6000611d4d85828601611c73565b9250506020611d5e85828601611d13565b9150509250929050565b60007fffffffff0000000000000000000000000000000000000000000000000000000082169050919050565b611d9d81611d68565b8114611da857600080fd5b50565b600081359050611dba81611d94565b92915050565b600060208284031215611dd657611dd5611c25565b5b6000611de484828501611dab565b91505092915050565b60008115159050919050565b611e0281611ded565b82525050565b6000602082019050611e1d6000830184611df9565b92915050565b6000819050919050565b611e3681611e23565b8114611e4157600080fd5b50565b600081359050611e5381611e2d565b92915050565b600060208284031215611e6f57611e6e611c25565b5b6000611e7d84828501611e44565b91505092915050565b611e8f81611e23565b82525050565b6000602082019050611eaa6000830184611e86565b92915050565b60008060408385031215611ec757611ec6611c25565b5b6000611ed585828601611e44565b9250506020611ee685828601611c73565b9150509250929050565b600080600060608486031215611f0957611f08611c25565b5b6000611f1786828701611c73565b9350506020611f2886828701611c73565b9250506040611f3986828701611d13565b9150509250925092565b611f4c81611cc8565b82525050565b611f5b81611ded565b82525050565b604082016000820151611f776000850182611f43565b506020820151611f8a6020850182611f52565b50505050565b6000604082019050611fa56000830184611f61565b92915050565b608082016000820151611fc16000850182611f43565b506020820151611fd46020850182611f43565b506040820151611fe76040850182611f43565b506060820151611ffa6060850182611f43565b50505050565b60006080820190506120156000830184611fab565b92915050565b60006020828403121561203157612030611c25565b5b600061203f84828501611c73565b91505092915050565b6000806000806080858703121561206257612061611c25565b5b600061207087828801611c73565b945050602061208187828801611c73565b935050604061209287828801611d13565b92505060606120a387828801611d13565b91505092959194509250565b7f4e487b7100000000000000000000000000000000000000000000000000000000600052601160045260246000fd5b60006120e982611cc8565b91506120f483611cc8565b925082821015612107576121066120af565b5b828203905092915050565b61211b81611c4a565b82525050565b60006040820190506121366000830185612112565b6121436020830184611cd2565b9392505050565b600082825260208201905092915050565b7f416363657373436f6e74726f6c3a2063616e206f6e6c792072656e6f756e636560008201527f20726f6c657320666f722073656c660000000000000000000000000000000000602082015250565b60006121b7602f8361214a565b91506121c28261215b565b604082019050919050565b600060208201905081810360008301526121e6816121aa565b9050919050565b7f54686520616d6f756e742065786365656420746865207472656173757279206260008201527f616c616e63652e00000000000000000000000000000000000000000000000000602082015250565b600061224960278361214a565b9150612254826121ed565b604082019050919050565b600060208201905081810360008301526122788161223c565b9050919050565b600061228a82611cc8565b915061229583611cc8565b9250827fffffffffffffffffffffffffffffffffffffffffffffffffffffffffffffffff038211156122ca576122c96120af565b5b828201905092915050565b6122de81611ded565b81146122e957600080fd5b50565b6000815190506122fb816122d5565b92915050565b60006020828403121561231757612316611c25565b5b6000612325848285016122ec565b91505092915050565b7f506f6f6c20646f6573206e6f7420657869737400000000000000000000000000600082015250565b600061236460138361214a565b915061236f8261232e565b602082019050919050565b6000602082019050818103600083015261239381612357565b9050919050565b7f5468697320706f6f6c20616c7265616479206578697374732e00000000000000600082015250565b60006123d060198361214a565b91506123db8261239a565b602082019050919050565b600060208201905081810360008301526123ff816123c3565b9050919050565b7f57697468647261776e20616d6f756e74206578636565642074686520616c6c6f60008201527f77616e6365000000000000000000000000000000000000000000000000000000602082015250565b600061246260258361214a565b915061246d82612406565b604082019050919050565b6000602082019050818103600083015261249181612455565b9050919050565b60006020820190506124ad6000830184612112565b92915050565b6000815190506124c281611cfc565b92915050565b6000602082840312156124de576124dd611c25565b5b60006124ec848285016124b3565b91505092915050565b600081905092915050565b7f416363657373436f6e74726f6c3a206163636f756e7420000000000000000000600082015250565b60006125366017836124f5565b915061254182612500565b601782019050919050565b600081519050919050565b60005b8381101561257557808201518184015260208101905061255a565b83811115612584576000848401525b50505050565b60006125958261254c565b61259f81856124f5565b93506125af818560208601612557565b80840191505092915050565b7f206973206d697373696e6720726f6c6520000000000000000000000000000000600082015250565b60006125f16011836124f5565b91506125fc826125bb565b601182019050919050565b600061261282612529565b915061261e828561258a565b9150612629826125e4565b9150612635828461258a565b91508190509392505050565b6000601f19601f8301169050919050565b600061265d8261254c565b612667818561214a565b9350612677818560208601612557565b61268081612641565b840191505092915050565b600060208201905081810360008301526126a58184612652565b905092915050565b60006060820190506126c26000830186612112565b6126cf6020830185612112565b6126dc6040830184611cd2565b949350505050565b60006126ef82611cc8565b91506126fa83611cc8565b9250817fffffffffffffffffffffffffffffffffffffffffffffffffffffffffffffffff0483118215151615612733576127326120af565b5b828202905092915050565b7f4e487b7100000000000000000000000000000000000000000000000000000000600052604160045260246000fd5b7f4e487b7100000000000000000000000000000000000000000000000000000000600052603260045260246000fd5b60006127a782611cc8565b915060008214156127bb576127ba6120af565b5b600182039050919050565b7f537472696e67733a20686578206c656e67746820696e73756666696369656e74600082015250565b60006127fc60208361214a565b9150612807826127c6565b602082019050919050565b6000602082019050818103600083015261282b816127ef565b9050919050565b7f5361666545524332303a204552433230206f7065726174696f6e20646964206e60008201527f6f74207375636365656400000000000000000000000000000000000000000000602082015250565b600061288e602a8361214a565b915061289982612832565b604082019050919050565b600060208201905081810360008301526128bd81612881565b9050919050565b7f416464726573733a20696e73756666696369656e742062616c616e636520666f60008201527f722063616c6c0000000000000000000000000000000000000000000000000000602082015250565b600061292060268361214a565b915061292b826128c4565b604082019050919050565b6000602082019050818103600083015261294f81612913565b9050919050565b7f416464726573733a2063616c6c20746f206e6f6e2d636f6e7472616374000000600082015250565b600061298c601d8361214a565b915061299782612956565b602082019050919050565b600060208201905081810360008301526129bb8161297f565b9050919050565b600081519050919050565b600081905092915050565b60006129e3826129c2565b6129ed81856129cd565b93506129fd818560208601612557565b80840191505092915050565b6000612a1582846129d8565b91508190509291505056fea264697066735822122031fdcf2c3dd8965fdaf55ec1a71cf8172852056b626d338c53b53846658f8fa364736f6c634300080b0033",
  "linkReferences": {},
  "deployedLinkReferences": {}
}