{
  "_format": "hh-sol-artifact-1",
  "contractName": "Vault",
  "sourceName": "contracts/vault/Vault.sol",
  "abi": [
    {
      "inputs": [],
      "stateMutability": "nonpayable",
      "type": "constructor"
    },
    {
      "anonymous": false,
      "inputs": [
        {
          "indexed": false,
          "internalType": "address",
          "name": "user",
          "type": "address"
        },
        {
          "indexed": false,
          "internalType": "address",
          "name": "token",
          "type": "address"
        },
        {
          "indexed": false,
          "internalType": "uint256",
          "name": "amount",
          "type": "uint256"
        }
      ],
      "name": "DepositVault",
      "type": "event"
    },
    {
      "anonymous": false,
      "inputs": [
        {
          "indexed": false,
          "internalType": "address",
          "name": "account",
          "type": "address"
        }
      ],
      "name": "Paused",
      "type": "event"
    },
    {
      "anonymous": false,
      "inputs": [
        {
          "indexed": true,
          "internalType": "bytes32",
          "name": "role",
          "type": "bytes32"
        },
        {
          "indexed": true,
          "internalType": "bytes32",
          "name": "previousAdminRole",
          "type": "bytes32"
        },
        {
          "indexed": true,
          "internalType": "bytes32",
          "name": "newAdminRole",
          "type": "bytes32"
        }
      ],
      "name": "RoleAdminChanged",
      "type": "event"
    },
    {
      "anonymous": false,
      "inputs": [
        {
          "indexed": true,
          "internalType": "bytes32",
          "name": "role",
          "type": "bytes32"
        },
        {
          "indexed": true,
          "internalType": "address",
          "name": "account",
          "type": "address"
        },
        {
          "indexed": true,
          "internalType": "address",
          "name": "sender",
          "type": "address"
        }
      ],
      "name": "RoleGranted",
      "type": "event"
    },
    {
      "anonymous": false,
      "inputs": [
        {
          "indexed": true,
          "internalType": "bytes32",
          "name": "role",
          "type": "bytes32"
        },
        {
          "indexed": true,
          "internalType": "address",
          "name": "account",
          "type": "address"
        },
        {
          "indexed": true,
          "internalType": "address",
          "name": "sender",
          "type": "address"
        }
      ],
      "name": "RoleRevoked",
      "type": "event"
    },
    {
      "anonymous": false,
      "inputs": [
        {
          "indexed": false,
          "internalType": "address",
          "name": "account",
          "type": "address"
        }
      ],
      "name": "Unpaused",
      "type": "event"
    },
    {
      "anonymous": false,
      "inputs": [
        {
          "indexed": false,
          "internalType": "address",
          "name": "destination",
          "type": "address"
        },
        {
          "indexed": false,
          "internalType": "uint256",
          "name": "amount",
          "type": "uint256"
        }
      ],
      "name": "WithdrawMATIC",
      "type": "event"
    },
    {
      "anonymous": false,
      "inputs": [
        {
          "indexed": false,
          "internalType": "address",
          "name": "user",
          "type": "address"
        },
        {
          "indexed": false,
          "internalType": "address",
          "name": "token",
          "type": "address"
        },
        {
          "indexed": false,
          "internalType": "uint256",
          "name": "amount",
          "type": "uint256"
        }
      ],
      "name": "WithdrawVault",
      "type": "event"
    },
    {
      "inputs": [],
      "name": "DEFAULT_ADMIN_ROLE",
      "outputs": [
        {
          "internalType": "bytes32",
          "name": "",
          "type": "bytes32"
        }
      ],
      "stateMutability": "view",
      "type": "function"
    },
    {
      "inputs": [
        {
          "internalType": "address",
          "name": "_token",
          "type": "address"
        },
        {
          "internalType": "address",
          "name": "_user",
          "type": "address"
        }
      ],
      "name": "checkIfPoolExists",
      "outputs": [
        {
          "internalType": "bool",
          "name": "",
          "type": "bool"
        }
      ],
      "stateMutability": "view",
      "type": "function"
    },
    {
      "inputs": [
        {
          "internalType": "address",
          "name": "_token",
          "type": "address"
        },
        {
          "internalType": "uint256",
          "name": "_amount",
          "type": "uint256"
        },
        {
          "internalType": "uint256",
          "name": "_rewardsPerDay",
          "type": "uint256"
        }
      ],
      "name": "createNewPool",
      "outputs": [],
      "stateMutability": "nonpayable",
      "type": "function"
    },
    {
      "inputs": [
        {
          "internalType": "address",
          "name": "_user",
          "type": "address"
        },
        {
          "internalType": "address",
          "name": "_token",
          "type": "address"
        },
        {
          "internalType": "uint256",
          "name": "_amount",
          "type": "uint256"
        }
      ],
      "name": "depositVault",
      "outputs": [],
      "stateMutability": "nonpayable",
      "type": "function"
    },
    {
      "inputs": [
        {
          "internalType": "address",
          "name": "_token",
          "type": "address"
        }
      ],
      "name": "getPoolInfo",
      "outputs": [
        {
          "components": [
            {
              "internalType": "uint256",
              "name": "totalPooled",
              "type": "uint256"
            },
            {
              "internalType": "uint256",
              "name": "rewardsPerBlock",
              "type": "uint256"
            },
            {
              "internalType": "uint256",
              "name": "accCaplPerShare",
              "type": "uint256"
            },
            {
              "internalType": "uint256",
              "name": "lastRewardBlock",
              "type": "uint256"
            }
          ],
          "internalType": "struct Vault.Pool",
          "name": "",
          "type": "tuple"
        }
      ],
      "stateMutability": "view",
      "type": "function"
    },
    {
      "inputs": [
        {
          "internalType": "bytes32",
          "name": "role",
          "type": "bytes32"
        }
      ],
      "name": "getRoleAdmin",
      "outputs": [
        {
          "internalType": "bytes32",
          "name": "",
          "type": "bytes32"
        }
      ],
      "stateMutability": "view",
      "type": "function"
    },
    {
      "inputs": [
        {
          "internalType": "bytes32",
          "name": "role",
          "type": "bytes32"
        },
        {
          "internalType": "address",
          "name": "account",
          "type": "address"
        }
      ],
      "name": "grantRole",
      "outputs": [],
      "stateMutability": "nonpayable",
      "type": "function"
    },
    {
      "inputs": [
        {
          "internalType": "bytes32",
          "name": "role",
          "type": "bytes32"
        },
        {
          "internalType": "address",
          "name": "account",
          "type": "address"
        }
      ],
      "name": "hasRole",
      "outputs": [
        {
          "internalType": "bool",
          "name": "",
          "type": "bool"
        }
      ],
      "stateMutability": "view",
      "type": "function"
    },
    {
      "inputs": [],
      "name": "paused",
      "outputs": [
        {
          "internalType": "bool",
          "name": "",
          "type": "bool"
        }
      ],
      "stateMutability": "view",
      "type": "function"
    },
    {
      "inputs": [
        {
          "internalType": "bytes32",
          "name": "role",
          "type": "bytes32"
        },
        {
          "internalType": "address",
          "name": "account",
          "type": "address"
        }
      ],
      "name": "renounceRole",
      "outputs": [],
      "stateMutability": "nonpayable",
      "type": "function"
    },
    {
      "inputs": [
        {
          "internalType": "bytes32",
          "name": "role",
          "type": "bytes32"
        },
        {
          "internalType": "address",
          "name": "account",
          "type": "address"
        }
      ],
      "name": "revokeRole",
      "outputs": [],
      "stateMutability": "nonpayable",
      "type": "function"
    },
    {
      "inputs": [
        {
          "internalType": "uint256",
          "name": "_duration",
          "type": "uint256"
        }
      ],
      "name": "setTimeLock",
      "outputs": [],
      "stateMutability": "nonpayable",
      "type": "function"
    },
    {
      "inputs": [
        {
          "internalType": "bytes4",
          "name": "interfaceId",
          "type": "bytes4"
        }
      ],
      "name": "supportsInterface",
      "outputs": [
        {
          "internalType": "bool",
          "name": "",
          "type": "bool"
        }
      ],
      "stateMutability": "view",
      "type": "function"
    },
    {
      "inputs": [
        {
          "internalType": "address",
          "name": "_destination",
          "type": "address"
        }
      ],
      "name": "withdrawMATIC",
      "outputs": [],
      "stateMutability": "payable",
      "type": "function"
    },
    {
      "inputs": [
        {
          "internalType": "address",
          "name": "_token",
          "type": "address"
        },
        {
          "internalType": "uint256",
          "name": "_amount",
          "type": "uint256"
        },
        {
          "internalType": "address",
          "name": "_destination",
          "type": "address"
        }
      ],
      "name": "withdrawToken",
      "outputs": [],
      "stateMutability": "nonpayable",
      "type": "function"
    },
    {
      "inputs": [
        {
          "internalType": "address",
          "name": "_user",
          "type": "address"
        },
        {
          "internalType": "address",
          "name": "_token",
          "type": "address"
        },
        {
          "internalType": "uint256",
          "name": "_amount",
          "type": "uint256"
        },
        {
          "internalType": "uint256",
          "name": "_stakeId",
          "type": "uint256"
        }
      ],
      "name": "withdrawVault",
      "outputs": [],
      "stateMutability": "nonpayable",
      "type": "function"
    }
  ],
  "bytecode": "0x608060405263082bdcb46002553480156200001957600080fd5b5060008060006101000a81548160ff021916908315150217905550620000496000801b336200004f60201b60201c565b620001c9565b6200006182826200006560201b60201c565b5050565b6200007782826200015660201b60201c565b6200015257600180600084815260200190815260200160002060000160008373ffffffffffffffffffffffffffffffffffffffff1673ffffffffffffffffffffffffffffffffffffffff16815260200190815260200160002060006101000a81548160ff021916908315150217905550620000f7620001c160201b60201c565b73ffffffffffffffffffffffffffffffffffffffff168173ffffffffffffffffffffffffffffffffffffffff16837f2f8788117e7eff1d82e926ec794901d17c78024a50270940304540a733656f0d60405160405180910390a45b5050565b60006001600084815260200190815260200160002060000160008373ffffffffffffffffffffffffffffffffffffffff1673ffffffffffffffffffffffffffffffffffffffff16815260200190815260200160002060009054906101000a900460ff16905092915050565b600033905090565b612a3880620001d96000396000f3fe6080604052600436106100f35760003560e01c80635bcb318a1161008a578063a217fddf11610059578063a217fddf1461033d578063ac5c7fae14610368578063d547741f14610391578063fa9a1a04146103ba576100f3565b80635bcb318a1461026f5780635c975abb146102985780635f7f14db146102c357806391d1485414610300576100f3565b806330e7e743116100c657806330e7e743146101d857806336568abe146101f45780633a8a4e721461021d5780633ccdbb2814610246576100f3565b806301ffc9a7146100f857806306bfa93814610135578063248a9ca3146101725780632f2ff15d146101af575b600080fd5b34801561010457600080fd5b5061011f600480360381019061011a9190611c21565b6103e3565b60405161012c9190611c69565b60405180910390f35b34801561014157600080fd5b5061015c60048036038101906101579190611ce2565b61045d565b6040516101699190611d7d565b60405180910390f35b34801561017e57600080fd5b5061019960048036038101906101949190611dce565b6104de565b6040516101a69190611e0a565b60405180910390f35b3480156101bb57600080fd5b506101d660048036038101906101d19190611e25565b6104fe565b005b6101f260048036038101906101ed9190611ce2565b610527565b005b34801561020057600080fd5b5061021b60048036038101906102169190611e25565b61062f565b005b34801561022957600080fd5b50610244600480360381019061023f9190611e91565b6106b2565b005b34801561025257600080fd5b5061026d60048036038101906102689190611ef8565b610996565b005b34801561027b57600080fd5b5061029660048036038101906102919190611f4b565b610a5a565b005b3480156102a457600080fd5b506102ad610a7a565b6040516102ba9190611c69565b60405180910390f35b3480156102cf57600080fd5b506102ea60048036038101906102e59190611f78565b610a90565b6040516102f79190611c69565b60405180910390f35b34801561030c57600080fd5b5061032760048036038101906103229190611e25565b610b1f565b6040516103349190611c69565b60405180910390f35b34801561034957600080fd5b50610352610b8a565b60405161035f9190611e0a565b60405180910390f35b34801561037457600080fd5b5061038f600480360381019061038a9190611fb8565b610b91565b005b34801561039d57600080fd5b506103b860048036038101906103b39190611e25565b610edc565b005b3480156103c657600080fd5b506103e160048036038101906103dc919061200b565b610f05565b005b60007f7965db0b000000000000000000000000000000000000000000000000000000007bffffffffffffffffffffffffffffffffffffffffffffffffffffffff1916827bffffffffffffffffffffffffffffffffffffffffffffffffffffffff1916148061045657506104558261131f565b5b9050919050565b610465611b32565b600660008373ffffffffffffffffffffffffffffffffffffffff1673ffffffffffffffffffffffffffffffffffffffff1681526020019081526020016000206040518060800160405290816000820154815260200160018201548152602001600282015481526020016003820154815250509050919050565b600060016000838152602001908152602001600020600101549050919050565b610507826104de565b61051881610513611389565b611391565b610522838361142e565b505050565b6000801b61053c81610537611389565b611391565b60004790506000808473ffffffffffffffffffffffffffffffffffffffff16836040516105689061208f565b60006040518083038185875af1925050503d80600081146105a5576040519150601f19603f3d011682016040523d82523d6000602084013e6105aa565b606091505b5091509150816105ef576040517f08c379a00000000000000000000000000000000000000000000000000000000081526004016105e690612101565b60405180910390fd5b7f43b2a2d6daf661162c8c435ac5820ea5b1e0046355c5faac17d06ecb4f60f153858460405161062092919061213f565b60405180910390a15050505050565b610637611389565b73ffffffffffffffffffffffffffffffffffffffff168173ffffffffffffffffffffffffffffffffffffffff16146106a4576040517f08c379a000000000000000000000000000000000000000000000000000000000815260040161069b906121da565b60405180910390fd5b6106ae828261150e565b5050565b6106ba610a7a565b156106fa576040517f08c379a00000000000000000000000000000000000000000000000000000000081526004016106f190612246565b60405180910390fd5b6000821161073d576040517f08c379a0000000000000000000000000000000000000000000000000000000008152600401610734906122b2565b60405180910390fd5b6000600460008673ffffffffffffffffffffffffffffffffffffffff1673ffffffffffffffffffffffffffffffffffffffff16815260200190815260200160002060008573ffffffffffffffffffffffffffffffffffffffff1673ffffffffffffffffffffffffffffffffffffffff168152602001908152602001600020905082816000015411610803576040517f08c379a00000000000000000000000000000000000000000000000000000000081526004016107fa90612344565b60405180910390fd5b828160000160008282546108179190612393565b925050819055506000600660008673ffffffffffffffffffffffffffffffffffffffff1673ffffffffffffffffffffffffffffffffffffffff1681526020019081526020016000209050838160000160008282546108759190612393565b925050819055506000600560008873ffffffffffffffffffffffffffffffffffffffff1673ffffffffffffffffffffffffffffffffffffffff16815260200190815260200160002084815481106108cf576108ce6123c7565b5b90600052602060002090600402019050848160000160008282546108f39190612393565b925050819055506000816000015414156109255760008160030160006101000a81548160ff0219169083151502179055505b6109523088878973ffffffffffffffffffffffffffffffffffffffff166115f0909392919063ffffffff16565b7f68456fba341f47bb61de8683463da43524ea3048b5cd06a414db6325e23ee398878787604051610985939291906123f6565b60405180910390a150505050505050565b6000801b6109ab816109a6611389565b611391565b6000600660008673ffffffffffffffffffffffffffffffffffffffff1673ffffffffffffffffffffffffffffffffffffffff1681526020019081526020016000209050600084118015610a02575083816000015410155b610a0b57600080fd5b610a383084868873ffffffffffffffffffffffffffffffffffffffff166115f0909392919063ffffffff16565b83816000016000828254610a4c9190612393565b925050819055505050505050565b6000801b610a6f81610a6a611389565b611391565b816002819055505050565b60008060009054906101000a900460ff16905090565b600080600460008473ffffffffffffffffffffffffffffffffffffffff1673ffffffffffffffffffffffffffffffffffffffff16815260200190815260200160002060008573ffffffffffffffffffffffffffffffffffffffff1673ffffffffffffffffffffffffffffffffffffffff1681526020019081526020016000206004018054905011905092915050565b60006001600084815260200190815260200160002060000160008373ffffffffffffffffffffffffffffffffffffffff1673ffffffffffffffffffffffffffffffffffffffff16815260200190815260200160002060009054906101000a900460ff16905092915050565b6000801b81565b610b9b8333610a90565b15610bdb576040517f08c379a0000000000000000000000000000000000000000000000000000000008152600401610bd290612479565b60405180910390fd5b6000604051806080016040528084815260200142815260200160025442610c029190612499565b8152602001600115158152509050606060006040518060e0016040528086815260200160008152602001600081526020016000815260200183815260200160001515815260200160011515815250905080600460003373ffffffffffffffffffffffffffffffffffffffff1673ffffffffffffffffffffffffffffffffffffffff16815260200190815260200160002060008873ffffffffffffffffffffffffffffffffffffffff1673ffffffffffffffffffffffffffffffffffffffff168152602001908152602001600020600082015181600001556020820151816001015560408201518160020155606082015181600301556080820151816004019080519060200190610d13929190611b5a565b5060a08201518160050160006101000a81548160ff02191690831515021790555060c08201518160050160016101000a81548160ff021916908315150217905550905050600460003373ffffffffffffffffffffffffffffffffffffffff1673ffffffffffffffffffffffffffffffffffffffff16815260200190815260200160002060008773ffffffffffffffffffffffffffffffffffffffff1673ffffffffffffffffffffffffffffffffffffffff16815260200190815260200160002060040160009080600181540180825580915050600190039060005260206000200160009091909190915055600560003373ffffffffffffffffffffffffffffffffffffffff1673ffffffffffffffffffffffffffffffffffffffff16815260200190815260200160002083908060018154018082558091505060019003906000526020600020906004020160009091909190915060008201518160000155602082015181600101556040820151816002015560608201518160030160006101000a81548160ff0219169083151502179055505050610ed43330878973ffffffffffffffffffffffffffffffffffffffff166115f0909392919063ffffffff16565b505050505050565b610ee5826104de565b610ef681610ef1611389565b611391565b610f00838361150e565b505050565b610f0d610a7a565b15610f4d576040517f08c379a0000000000000000000000000000000000000000000000000000000008152600401610f4490612246565b60405180910390fd5b60008111610f90576040517f08c379a0000000000000000000000000000000000000000000000000000000008152600401610f87906122b2565b60405180910390fd5b6000600460008573ffffffffffffffffffffffffffffffffffffffff1673ffffffffffffffffffffffffffffffffffffffff16815260200190815260200160002060008473ffffffffffffffffffffffffffffffffffffffff1673ffffffffffffffffffffffffffffffffffffffff1681526020019081526020016000209050818160000160008282546110249190612499565b92505081905550600081600401600183600401805490506110459190612393565b81548110611056576110556123c7565b5b906000526020600020015490506000600560008773ffffffffffffffffffffffffffffffffffffffff1673ffffffffffffffffffffffffffffffffffffffff16815260200190815260200160002082815481106110b6576110b56123c7565b5b906000526020600020906004020190506110cf81611679565b15611234576110de8587610a90565b1561111e576040517f08c379a000000000000000000000000000000000000000000000000000000000815260040161111590612479565b60405180910390fd5b60006040518060800160405280868152602001428152602001600254426111459190612499565b8152602001600115158152509050600560008873ffffffffffffffffffffffffffffffffffffffff1673ffffffffffffffffffffffffffffffffffffffff16815260200190815260200160002081908060018154018082558091505060019003906000526020600020906004020160009091909190915060008201518160000155602082015181600101556040820151816002015560608201518160030160006101000a81548160ff0219169083151502179055505050836004018460040180549050908060018154018082558091505060019003906000526020600020016000909190919091505550611250565b838160000160008282546112489190612499565b925050819055505b6000600660008773ffffffffffffffffffffffffffffffffffffffff1673ffffffffffffffffffffffffffffffffffffffff1681526020019081526020016000209050848160000160008282546112a79190612499565b925050819055506112db8730878973ffffffffffffffffffffffffffffffffffffffff166115f0909392919063ffffffff16565b7f1ec74d8e4dc81a83767aeed9d17d24ec86f40b06682f17bf94957f709a5ff9f087878760405161130e939291906123f6565b60405180910390a150505050505050565b60007f01ffc9a7000000000000000000000000000000000000000000000000000000007bffffffffffffffffffffffffffffffffffffffffffffffffffffffff1916827bffffffffffffffffffffffffffffffffffffffffffffffffffffffff1916149050919050565b600033905090565b61139b8282610b1f565b61142a576113c08173ffffffffffffffffffffffffffffffffffffffff166014611689565b6113ce8360001c6020611689565b6040516020016113df929190612601565b6040516020818303038152906040526040517f08c379a00000000000000000000000000000000000000000000000000000000081526004016114219190612685565b60405180910390fd5b5050565b6114388282610b1f565b61150a57600180600084815260200190815260200160002060000160008373ffffffffffffffffffffffffffffffffffffffff1673ffffffffffffffffffffffffffffffffffffffff16815260200190815260200160002060006101000a81548160ff0219169083151502179055506114af611389565b73ffffffffffffffffffffffffffffffffffffffff168173ffffffffffffffffffffffffffffffffffffffff16837f2f8788117e7eff1d82e926ec794901d17c78024a50270940304540a733656f0d60405160405180910390a45b5050565b6115188282610b1f565b156115ec5760006001600084815260200190815260200160002060000160008373ffffffffffffffffffffffffffffffffffffffff1673ffffffffffffffffffffffffffffffffffffffff16815260200190815260200160002060006101000a81548160ff021916908315150217905550611591611389565b73ffffffffffffffffffffffffffffffffffffffff168173ffffffffffffffffffffffffffffffffffffffff16837ff6391f5c32d9c69d2a47ea670b442974b53935d1edc7fd64eb21e047a839171b60405160405180910390a45b5050565b611673846323b872dd60e01b858585604051602401611611939291906123f6565b604051602081830303815290604052907bffffffffffffffffffffffffffffffffffffffffffffffffffffffff19166020820180517bffffffffffffffffffffffffffffffffffffffffffffffffffffffff83818316178352505050506118c5565b50505050565b6000428260020154109050919050565b60606000600283600261169c91906126a7565b6116a69190612499565b67ffffffffffffffff8111156116bf576116be612701565b5b6040519080825280601f01601f1916602001820160405280156116f15781602001600182028036833780820191505090505b5090507f300000000000000000000000000000000000000000000000000000000000000081600081518110611729576117286123c7565b5b60200101907effffffffffffffffffffffffffffffffffffffffffffffffffffffffffffff1916908160001a9053507f78000000000000000000000000000000000000000000000000000000000000008160018151811061178d5761178c6123c7565b5b60200101907effffffffffffffffffffffffffffffffffffffffffffffffffffffffffffff1916908160001a905350600060018460026117cd91906126a7565b6117d79190612499565b90505b6001811115611877577f3031323334353637383961626364656600000000000000000000000000000000600f861660108110611819576118186123c7565b5b1a60f81b8282815181106118305761182f6123c7565b5b60200101907effffffffffffffffffffffffffffffffffffffffffffffffffffffffffffff1916908160001a905350600485901c94508061187090612730565b90506117da565b50600084146118bb576040517f08c379a00000000000000000000000000000000000000000000000000000000081526004016118b2906127a6565b60405180910390fd5b8091505092915050565b6000611927826040518060400160405280602081526020017f5361666545524332303a206c6f772d6c6576656c2063616c6c206661696c65648152508573ffffffffffffffffffffffffffffffffffffffff1661198c9092919063ffffffff16565b9050600081511115611987578080602001905181019061194791906127f2565b611986576040517f08c379a000000000000000000000000000000000000000000000000000000000815260040161197d90612891565b60405180910390fd5b5b505050565b606061199b84846000856119a4565b90509392505050565b6060824710156119e9576040517f08c379a00000000000000000000000000000000000000000000000000000000081526004016119e090612923565b60405180910390fd5b6119f285611ab8565b611a31576040517f08c379a0000000000000000000000000000000000000000000000000000000008152600401611a289061298f565b60405180910390fd5b6000808673ffffffffffffffffffffffffffffffffffffffff168587604051611a5a91906129eb565b60006040518083038185875af1925050503d8060008114611a97576040519150601f19603f3d011682016040523d82523d6000602084013e611a9c565b606091505b5091509150611aac828286611acb565b92505050949350505050565b600080823b905060008111915050919050565b60608315611adb57829050611b2b565b600083511115611aee5782518084602001fd5b816040517f08c379a0000000000000000000000000000000000000000000000000000000008152600401611b229190612685565b60405180910390fd5b9392505050565b6040518060800160405280600081526020016000815260200160008152602001600081525090565b828054828255906000526020600020908101928215611b96579160200282015b82811115611b95578251825591602001919060010190611b7a565b5b509050611ba39190611ba7565b5090565b5b80821115611bc0576000816000905550600101611ba8565b5090565b600080fd5b60007fffffffff0000000000000000000000000000000000000000000000000000000082169050919050565b611bfe81611bc9565b8114611c0957600080fd5b50565b600081359050611c1b81611bf5565b92915050565b600060208284031215611c3757611c36611bc4565b5b6000611c4584828501611c0c565b91505092915050565b60008115159050919050565b611c6381611c4e565b82525050565b6000602082019050611c7e6000830184611c5a565b92915050565b600073ffffffffffffffffffffffffffffffffffffffff82169050919050565b6000611caf82611c84565b9050919050565b611cbf81611ca4565b8114611cca57600080fd5b50565b600081359050611cdc81611cb6565b92915050565b600060208284031215611cf857611cf7611bc4565b5b6000611d0684828501611ccd565b91505092915050565b6000819050919050565b611d2281611d0f565b82525050565b608082016000820151611d3e6000850182611d19565b506020820151611d516020850182611d19565b506040820151611d646040850182611d19565b506060820151611d776060850182611d19565b50505050565b6000608082019050611d926000830184611d28565b92915050565b6000819050919050565b611dab81611d98565b8114611db657600080fd5b50565b600081359050611dc881611da2565b92915050565b600060208284031215611de457611de3611bc4565b5b6000611df284828501611db9565b91505092915050565b611e0481611d98565b82525050565b6000602082019050611e1f6000830184611dfb565b92915050565b60008060408385031215611e3c57611e3b611bc4565b5b6000611e4a85828601611db9565b9250506020611e5b85828601611ccd565b9150509250929050565b611e6e81611d0f565b8114611e7957600080fd5b50565b600081359050611e8b81611e65565b92915050565b60008060008060808587031215611eab57611eaa611bc4565b5b6000611eb987828801611ccd565b9450506020611eca87828801611ccd565b9350506040611edb87828801611e7c565b9250506060611eec87828801611e7c565b91505092959194509250565b600080600060608486031215611f1157611f10611bc4565b5b6000611f1f86828701611ccd565b9350506020611f3086828701611e7c565b9250506040611f4186828701611ccd565b9150509250925092565b600060208284031215611f6157611f60611bc4565b5b6000611f6f84828501611e7c565b91505092915050565b60008060408385031215611f8f57611f8e611bc4565b5b6000611f9d85828601611ccd565b9250506020611fae85828601611ccd565b9150509250929050565b600080600060608486031215611fd157611fd0611bc4565b5b6000611fdf86828701611ccd565b9350506020611ff086828701611e7c565b925050604061200186828701611e7c565b9150509250925092565b60008060006060848603121561202457612023611bc4565b5b600061203286828701611ccd565b935050602061204386828701611ccd565b925050604061205486828701611e7c565b9150509250925092565b600081905092915050565b50565b600061207960008361205e565b915061208482612069565b600082019050919050565b600061209a8261206c565b9150819050919050565b600082825260208201905092915050565b7f4661696c656420746f2073656e64204d41544943000000000000000000000000600082015250565b60006120eb6014836120a4565b91506120f6826120b5565b602082019050919050565b6000602082019050818103600083015261211a816120de565b9050919050565b61212a81611ca4565b82525050565b61213981611d0f565b82525050565b60006040820190506121546000830185612121565b6121616020830184612130565b9392505050565b7f416363657373436f6e74726f6c3a2063616e206f6e6c792072656e6f756e636560008201527f20726f6c657320666f722073656c660000000000000000000000000000000000602082015250565b60006121c4602f836120a4565b91506121cf82612168565b604082019050919050565b600060208201905081810360008301526121f3816121b7565b9050919050565b7f5061757361626c653a2070617573656400000000000000000000000000000000600082015250565b60006122306010836120a4565b915061223b826121fa565b602082019050919050565b6000602082019050818103600083015261225f81612223565b9050919050565b7f416d6f756e742030000000000000000000000000000000000000000000000000600082015250565b600061229c6008836120a4565b91506122a782612266565b602082019050919050565b600060208201905081810360008301526122cb8161228f565b9050919050565b7f57697468647261776e20616d6f756e742065786365656420746865207573657260008201527f2062616c616e6365000000000000000000000000000000000000000000000000602082015250565b600061232e6028836120a4565b9150612339826122d2565b604082019050919050565b6000602082019050818103600083015261235d81612321565b9050919050565b7f4e487b7100000000000000000000000000000000000000000000000000000000600052601160045260246000fd5b600061239e82611d0f565b91506123a983611d0f565b9250828210156123bc576123bb612364565b5b828203905092915050565b7f4e487b7100000000000000000000000000000000000000000000000000000000600052603260045260246000fd5b600060608201905061240b6000830186612121565b6124186020830185612121565b6124256040830184612130565b949350505050565b7f5468697320706f6f6c20616c7265616479206578697374732e00000000000000600082015250565b60006124636019836120a4565b915061246e8261242d565b602082019050919050565b6000602082019050818103600083015261249281612456565b9050919050565b60006124a482611d0f565b91506124af83611d0f565b9250827fffffffffffffffffffffffffffffffffffffffffffffffffffffffffffffffff038211156124e4576124e3612364565b5b828201905092915050565b600081905092915050565b7f416363657373436f6e74726f6c3a206163636f756e7420000000000000000000600082015250565b60006125306017836124ef565b915061253b826124fa565b601782019050919050565b600081519050919050565b60005b8381101561256f578082015181840152602081019050612554565b8381111561257e576000848401525b50505050565b600061258f82612546565b61259981856124ef565b93506125a9818560208601612551565b80840191505092915050565b7f206973206d697373696e6720726f6c6520000000000000000000000000000000600082015250565b60006125eb6011836124ef565b91506125f6826125b5565b601182019050919050565b600061260c82612523565b91506126188285612584565b9150612623826125de565b915061262f8284612584565b91508190509392505050565b6000601f19601f8301169050919050565b600061265782612546565b61266181856120a4565b9350612671818560208601612551565b61267a8161263b565b840191505092915050565b6000602082019050818103600083015261269f818461264c565b905092915050565b60006126b282611d0f565b91506126bd83611d0f565b9250817fffffffffffffffffffffffffffffffffffffffffffffffffffffffffffffffff04831182151516156126f6576126f5612364565b5b828202905092915050565b7f4e487b7100000000000000000000000000000000000000000000000000000000600052604160045260246000fd5b600061273b82611d0f565b9150600082141561274f5761274e612364565b5b600182039050919050565b7f537472696e67733a20686578206c656e67746820696e73756666696369656e74600082015250565b60006127906020836120a4565b915061279b8261275a565b602082019050919050565b600060208201905081810360008301526127bf81612783565b9050919050565b6127cf81611c4e565b81146127da57600080fd5b50565b6000815190506127ec816127c6565b92915050565b60006020828403121561280857612807611bc4565b5b6000612816848285016127dd565b91505092915050565b7f5361666545524332303a204552433230206f7065726174696f6e20646964206e60008201527f6f74207375636365656400000000000000000000000000000000000000000000602082015250565b600061287b602a836120a4565b91506128868261281f565b604082019050919050565b600060208201905081810360008301526128aa8161286e565b9050919050565b7f416464726573733a20696e73756666696369656e742062616c616e636520666f60008201527f722063616c6c0000000000000000000000000000000000000000000000000000602082015250565b600061290d6026836120a4565b9150612918826128b1565b604082019050919050565b6000602082019050818103600083015261293c81612900565b9050919050565b7f416464726573733a2063616c6c20746f206e6f6e2d636f6e7472616374000000600082015250565b6000612979601d836120a4565b915061298482612943565b602082019050919050565b600060208201905081810360008301526129a88161296c565b9050919050565b600081519050919050565b60006129c5826129af565b6129cf818561205e565b93506129df818560208601612551565b80840191505092915050565b60006129f782846129ba565b91508190509291505056fea26469706673582212200a39d8fb4b6b1de7245e0d1ef3842a15f57b3511da8c13ebb9a3e8462e9df55e64736f6c634300080b0033",
  "linkReferences": {},
  "deployedLinkReferences": {}
}