{
  "_format": "hh-sol-artifact-1",
  "contractName": "Vault",
  "sourceName": "contracts/vault/Vault.sol",
  "abi": [
    {
      "inputs": [],
      "stateMutability": "nonpayable",
      "type": "constructor"
    },
    {
      "anonymous": false,
      "inputs": [
        {
          "indexed": false,
          "internalType": "address",
          "name": "user",
          "type": "address"
        },
        {
          "indexed": false,
          "internalType": "address",
          "name": "token",
          "type": "address"
        },
        {
          "indexed": false,
          "internalType": "uint256",
          "name": "amount",
          "type": "uint256"
        }
      ],
      "name": "Deposit",
      "type": "event"
    },
    {
      "anonymous": false,
      "inputs": [
        {
          "indexed": false,
          "internalType": "address",
          "name": "account",
          "type": "address"
        }
      ],
      "name": "Paused",
      "type": "event"
    },
    {
      "anonymous": false,
      "inputs": [
        {
          "indexed": true,
          "internalType": "bytes32",
          "name": "role",
          "type": "bytes32"
        },
        {
          "indexed": true,
          "internalType": "bytes32",
          "name": "previousAdminRole",
          "type": "bytes32"
        },
        {
          "indexed": true,
          "internalType": "bytes32",
          "name": "newAdminRole",
          "type": "bytes32"
        }
      ],
      "name": "RoleAdminChanged",
      "type": "event"
    },
    {
      "anonymous": false,
      "inputs": [
        {
          "indexed": true,
          "internalType": "bytes32",
          "name": "role",
          "type": "bytes32"
        },
        {
          "indexed": true,
          "internalType": "address",
          "name": "account",
          "type": "address"
        },
        {
          "indexed": true,
          "internalType": "address",
          "name": "sender",
          "type": "address"
        }
      ],
      "name": "RoleGranted",
      "type": "event"
    },
    {
      "anonymous": false,
      "inputs": [
        {
          "indexed": true,
          "internalType": "bytes32",
          "name": "role",
          "type": "bytes32"
        },
        {
          "indexed": true,
          "internalType": "address",
          "name": "account",
          "type": "address"
        },
        {
          "indexed": true,
          "internalType": "address",
          "name": "sender",
          "type": "address"
        }
      ],
      "name": "RoleRevoked",
      "type": "event"
    },
    {
      "anonymous": false,
      "inputs": [
        {
          "indexed": false,
          "internalType": "address",
          "name": "account",
          "type": "address"
        }
      ],
      "name": "Unpaused",
      "type": "event"
    },
    {
      "anonymous": false,
      "inputs": [
        {
          "indexed": false,
          "internalType": "address",
          "name": "user",
          "type": "address"
        },
        {
          "indexed": false,
          "internalType": "address",
          "name": "token",
          "type": "address"
        },
        {
          "indexed": false,
          "internalType": "uint256",
          "name": "amount",
          "type": "uint256"
        }
      ],
      "name": "Withdraw",
      "type": "event"
    },
    {
      "anonymous": false,
      "inputs": [
        {
          "indexed": false,
          "internalType": "address",
          "name": "destination",
          "type": "address"
        },
        {
          "indexed": false,
          "internalType": "uint256",
          "name": "amount",
          "type": "uint256"
        }
      ],
      "name": "WithdrawMATIC",
      "type": "event"
    },
    {
      "inputs": [],
      "name": "DEFAULT_ADMIN_ROLE",
      "outputs": [
        {
          "internalType": "bytes32",
          "name": "",
          "type": "bytes32"
        }
      ],
      "stateMutability": "view",
      "type": "function"
    },
    {
      "inputs": [],
      "name": "REWARDS",
      "outputs": [
        {
          "internalType": "bytes32",
          "name": "",
          "type": "bytes32"
        }
      ],
      "stateMutability": "view",
      "type": "function"
    },
    {
      "inputs": [
        {
          "internalType": "address",
          "name": "_token",
          "type": "address"
        },
        {
          "internalType": "uint256",
          "name": "_rewardsPerBlock",
          "type": "uint256"
        }
      ],
      "name": "addPool",
      "outputs": [],
      "stateMutability": "nonpayable",
      "type": "function"
    },
    {
      "inputs": [
        {
          "internalType": "address",
          "name": "_token",
          "type": "address"
        },
        {
          "internalType": "address",
          "name": "_user",
          "type": "address"
        },
        {
          "internalType": "uint256",
          "name": "_amount",
          "type": "uint256"
        }
      ],
      "name": "addStake",
      "outputs": [],
      "stateMutability": "nonpayable",
      "type": "function"
    },
    {
      "inputs": [
        {
          "internalType": "address",
          "name": "_token",
          "type": "address"
        },
        {
          "internalType": "address",
          "name": "_user",
          "type": "address"
        },
        {
          "internalType": "uint256",
          "name": "_amount",
          "type": "uint256"
        },
        {
          "internalType": "uint256",
          "name": "_rewardDebt",
          "type": "uint256"
        }
      ],
      "name": "addUserPosition",
      "outputs": [],
      "stateMutability": "nonpayable",
      "type": "function"
    },
    {
      "inputs": [
        {
          "internalType": "address",
          "name": "_token",
          "type": "address"
        }
      ],
      "name": "checkIfPoolExists",
      "outputs": [
        {
          "internalType": "bool",
          "name": "",
          "type": "bool"
        }
      ],
      "stateMutability": "view",
      "type": "function"
    },
    {
      "inputs": [
        {
          "internalType": "address",
          "name": "_token",
          "type": "address"
        }
      ],
      "name": "checkIfUserPositionExists",
      "outputs": [
        {
          "internalType": "bool",
          "name": "",
          "type": "bool"
        }
      ],
      "stateMutability": "view",
      "type": "function"
    },
    {
      "inputs": [
        {
          "internalType": "address",
          "name": "_token",
          "type": "address"
        },
        {
          "internalType": "address",
          "name": "_user",
          "type": "address"
        }
      ],
      "name": "getLastStake",
      "outputs": [
        {
          "components": [
            {
              "internalType": "uint256",
              "name": "amount",
              "type": "uint256"
            },
            {
              "internalType": "uint256",
              "name": "startBlock",
              "type": "uint256"
            },
            {
              "internalType": "uint256",
              "name": "timeLockEnd",
              "type": "uint256"
            },
            {
              "internalType": "bool",
              "name": "active",
              "type": "bool"
            }
          ],
          "internalType": "struct Vault.Stake",
          "name": "",
          "type": "tuple"
        }
      ],
      "stateMutability": "view",
      "type": "function"
    },
    {
      "inputs": [
        {
          "internalType": "address",
          "name": "_token",
          "type": "address"
        },
        {
          "internalType": "address",
          "name": "_user",
          "type": "address"
        }
      ],
      "name": "getLastStakeKey",
      "outputs": [
        {
          "internalType": "uint256",
          "name": "",
          "type": "uint256"
        }
      ],
      "stateMutability": "view",
      "type": "function"
    },
    {
      "inputs": [
        {
          "internalType": "address",
          "name": "_token",
          "type": "address"
        }
      ],
      "name": "getPool",
      "outputs": [
        {
          "components": [
            {
              "internalType": "uint256",
              "name": "totalPooled",
              "type": "uint256"
            },
            {
              "internalType": "uint256",
              "name": "rewardsPerBlock",
              "type": "uint256"
            },
            {
              "internalType": "uint256",
              "name": "accCaplPerShare",
              "type": "uint256"
            },
            {
              "internalType": "uint256",
              "name": "lastRewardBlock",
              "type": "uint256"
            }
          ],
          "internalType": "struct Vault.Pool",
          "name": "",
          "type": "tuple"
        }
      ],
      "stateMutability": "view",
      "type": "function"
    },
    {
      "inputs": [
        {
          "internalType": "bytes32",
          "name": "role",
          "type": "bytes32"
        }
      ],
      "name": "getRoleAdmin",
      "outputs": [
        {
          "internalType": "bytes32",
          "name": "",
          "type": "bytes32"
        }
      ],
      "stateMutability": "view",
      "type": "function"
    },
    {
      "inputs": [
        {
          "internalType": "address",
          "name": "_token",
          "type": "address"
        }
      ],
      "name": "getTokenSupply",
      "outputs": [
        {
          "internalType": "uint256",
          "name": "",
          "type": "uint256"
        }
      ],
      "stateMutability": "view",
      "type": "function"
    },
    {
      "inputs": [
        {
          "internalType": "address",
          "name": "_token",
          "type": "address"
        },
        {
          "internalType": "address",
          "name": "_user",
          "type": "address"
        }
      ],
      "name": "getUnlockedAmount",
      "outputs": [
        {
          "internalType": "uint256",
          "name": "",
          "type": "uint256"
        }
      ],
      "stateMutability": "nonpayable",
      "type": "function"
    },
    {
      "inputs": [
        {
          "internalType": "address",
          "name": "_token",
          "type": "address"
        },
        {
          "internalType": "address",
          "name": "_user",
          "type": "address"
        }
      ],
      "name": "getUserPosition",
      "outputs": [
        {
          "components": [
            {
              "internalType": "uint256",
              "name": "totalAmount",
              "type": "uint256"
            },
            {
              "internalType": "uint256",
              "name": "rewardDebt",
              "type": "uint256"
            },
            {
              "internalType": "uint256",
              "name": "userLastWithdrawnStakeIndex",
              "type": "uint256"
            },
            {
              "internalType": "bool",
              "name": "staticLock",
              "type": "bool"
            },
            {
              "internalType": "bool",
              "name": "autocompounding",
              "type": "bool"
            },
            {
              "components": [
                {
                  "internalType": "uint256",
                  "name": "amount",
                  "type": "uint256"
                },
                {
                  "internalType": "uint256",
                  "name": "startBlock",
                  "type": "uint256"
                },
                {
                  "internalType": "uint256",
                  "name": "timeLockEnd",
                  "type": "uint256"
                },
                {
                  "internalType": "bool",
                  "name": "active",
                  "type": "bool"
                }
              ],
              "internalType": "struct Vault.Stake[]",
              "name": "stakes",
              "type": "tuple[]"
            }
          ],
          "internalType": "struct Vault.UserPosition",
          "name": "",
          "type": "tuple"
        }
      ],
      "stateMutability": "view",
      "type": "function"
    },
    {
      "inputs": [
        {
          "internalType": "bytes32",
          "name": "role",
          "type": "bytes32"
        },
        {
          "internalType": "address",
          "name": "account",
          "type": "address"
        }
      ],
      "name": "grantRole",
      "outputs": [],
      "stateMutability": "nonpayable",
      "type": "function"
    },
    {
      "inputs": [
        {
          "internalType": "bytes32",
          "name": "role",
          "type": "bytes32"
        },
        {
          "internalType": "address",
          "name": "account",
          "type": "address"
        }
      ],
      "name": "hasRole",
      "outputs": [
        {
          "internalType": "bool",
          "name": "",
          "type": "bool"
        }
      ],
      "stateMutability": "view",
      "type": "function"
    },
    {
      "inputs": [],
      "name": "paused",
      "outputs": [
        {
          "internalType": "bool",
          "name": "",
          "type": "bool"
        }
      ],
      "stateMutability": "view",
      "type": "function"
    },
    {
      "inputs": [
        {
          "internalType": "bytes32",
          "name": "role",
          "type": "bytes32"
        },
        {
          "internalType": "address",
          "name": "account",
          "type": "address"
        }
      ],
      "name": "renounceRole",
      "outputs": [],
      "stateMutability": "nonpayable",
      "type": "function"
    },
    {
      "inputs": [
        {
          "internalType": "bytes32",
          "name": "role",
          "type": "bytes32"
        },
        {
          "internalType": "address",
          "name": "account",
          "type": "address"
        }
      ],
      "name": "revokeRole",
      "outputs": [],
      "stateMutability": "nonpayable",
      "type": "function"
    },
    {
      "inputs": [
        {
          "internalType": "address",
          "name": "_token",
          "type": "address"
        },
        {
          "internalType": "uint256",
          "name": "_accCaplPerShare",
          "type": "uint256"
        },
        {
          "internalType": "uint256",
          "name": "_lastRewardBlock",
          "type": "uint256"
        }
      ],
      "name": "setPool",
      "outputs": [
        {
          "components": [
            {
              "internalType": "uint256",
              "name": "totalPooled",
              "type": "uint256"
            },
            {
              "internalType": "uint256",
              "name": "rewardsPerBlock",
              "type": "uint256"
            },
            {
              "internalType": "uint256",
              "name": "accCaplPerShare",
              "type": "uint256"
            },
            {
              "internalType": "uint256",
              "name": "lastRewardBlock",
              "type": "uint256"
            }
          ],
          "internalType": "struct Vault.Pool",
          "name": "",
          "type": "tuple"
        }
      ],
      "stateMutability": "nonpayable",
      "type": "function"
    },
    {
      "inputs": [
        {
          "internalType": "address",
          "name": "_token",
          "type": "address"
        },
        {
          "internalType": "address",
          "name": "_user",
          "type": "address"
        },
        {
          "internalType": "uint256",
          "name": "_amount",
          "type": "uint256"
        },
        {
          "internalType": "uint256",
          "name": "_stakeId",
          "type": "uint256"
        }
      ],
      "name": "setStake",
      "outputs": [],
      "stateMutability": "nonpayable",
      "type": "function"
    },
    {
      "inputs": [
        {
          "internalType": "address",
          "name": "_token",
          "type": "address"
        },
        {
          "internalType": "address",
          "name": "_user",
          "type": "address"
        },
        {
          "internalType": "uint256",
          "name": "rewardDebt",
          "type": "uint256"
        }
      ],
      "name": "setUserDebt",
      "outputs": [],
      "stateMutability": "nonpayable",
      "type": "function"
    },
    {
      "inputs": [
        {
          "internalType": "address",
          "name": "_token",
          "type": "address"
        },
        {
          "internalType": "address",
          "name": "_user",
          "type": "address"
        },
        {
          "internalType": "uint256",
          "name": "_amount",
          "type": "uint256"
        },
        {
          "internalType": "uint256",
          "name": "_rewardDebt",
          "type": "uint256"
        }
      ],
      "name": "setUserPosition",
      "outputs": [],
      "stateMutability": "nonpayable",
      "type": "function"
    },
    {
      "inputs": [
        {
          "internalType": "bytes4",
          "name": "interfaceId",
          "type": "bytes4"
        }
      ],
      "name": "supportsInterface",
      "outputs": [
        {
          "internalType": "bool",
          "name": "",
          "type": "bool"
        }
      ],
      "stateMutability": "view",
      "type": "function"
    },
    {
      "inputs": [
        {
          "internalType": "address",
          "name": "_token",
          "type": "address"
        },
        {
          "internalType": "uint256",
          "name": "_accCaplPerShare",
          "type": "uint256"
        },
        {
          "internalType": "uint256",
          "name": "_lastRewardBlock",
          "type": "uint256"
        }
      ],
      "name": "updatePool",
      "outputs": [
        {
          "components": [
            {
              "internalType": "uint256",
              "name": "totalPooled",
              "type": "uint256"
            },
            {
              "internalType": "uint256",
              "name": "rewardsPerBlock",
              "type": "uint256"
            },
            {
              "internalType": "uint256",
              "name": "accCaplPerShare",
              "type": "uint256"
            },
            {
              "internalType": "uint256",
              "name": "lastRewardBlock",
              "type": "uint256"
            }
          ],
          "internalType": "struct Vault.Pool",
          "name": "",
          "type": "tuple"
        }
      ],
      "stateMutability": "nonpayable",
      "type": "function"
    },
    {
      "inputs": [
        {
          "internalType": "address",
          "name": "_token",
          "type": "address"
        },
        {
          "internalType": "address",
          "name": "_user",
          "type": "address"
        },
        {
          "internalType": "uint256",
          "name": "_amount",
          "type": "uint256"
        },
        {
          "internalType": "uint256",
          "name": "_newRewardDebt",
          "type": "uint256"
        }
      ],
      "name": "withdraw",
      "outputs": [],
      "stateMutability": "nonpayable",
      "type": "function"
    },
    {
      "inputs": [],
      "name": "withdrawMATIC",
      "outputs": [],
      "stateMutability": "payable",
      "type": "function"
    },
    {
      "inputs": [
        {
          "internalType": "address",
          "name": "_token",
          "type": "address"
        },
        {
          "internalType": "uint256",
          "name": "_amount",
          "type": "uint256"
        },
        {
          "internalType": "address",
          "name": "_destination",
          "type": "address"
        }
      ],
      "name": "withdrawToken",
      "outputs": [],
      "stateMutability": "nonpayable",
      "type": "function"
    }
  ],
  "bytecode": "0x608060405263082bdcb46002553480156200001957600080fd5b506000600160006101000a81548160ff0219169083151502179055506200004a6000801b336200008260201b60201c565b6200007c7f41a998b42530cff8f40cf375b6a586aeb2b2a8285995d3b4fb404116be349d78336200009860201b60201c565b620001fb565b6200009482826200009860201b60201c565b5050565b620000aa82826200018960201b60201c565b6200018557600160008084815260200190815260200160002060000160008373ffffffffffffffffffffffffffffffffffffffff1673ffffffffffffffffffffffffffffffffffffffff16815260200190815260200160002060006101000a81548160ff0219169083151502179055506200012a620001f360201b60201c565b73ffffffffffffffffffffffffffffffffffffffff168173ffffffffffffffffffffffffffffffffffffffff16837f2f8788117e7eff1d82e926ec794901d17c78024a50270940304540a733656f0d60405160405180910390a45b5050565b600080600084815260200190815260200160002060000160008373ffffffffffffffffffffffffffffffffffffffff1673ffffffffffffffffffffffffffffffffffffffff16815260200190815260200160002060009054906101000a900460ff16905092915050565b600033905090565b613c20806200020b6000396000f3fe6080604052600436106101b75760003560e01c80638a5bff6b116100ec578063c0034e0c1161008a578063d99f666811610064578063d99f66681461068a578063dfc2d1ba14610694578063f2866c78146106bd578063f5b5d237146106fa576101b7565b8063c0034e0c1461060d578063d2456a9514610638578063d547741f14610661576101b7565b80639338b7c9116100c65780639338b7c91461052b578063999126d714610568578063a217fddf146105a5578063bbe4f6db146105d0576101b7565b80638a5bff6b1461048857806391d14854146104b157806392a576e6146104ee576101b7565b806336568abe1161015957806356e45e4b1161013357806356e45e4b146103ba5780635c975abb146103f7578063695c0bb8146104225780637bfe950c1461045f576101b7565b806336568abe1461032b5780633ccdbb28146103545780633dff45e91461037d576101b7565b80631b2aa575116101955780631b2aa57514610273578063248a9ca31461029c5780632f2ff15d146102d957806332a9caba14610302576101b7565b80630122a7e8146101bc57806301ffc9a7146101f957806312229f1314610236575b600080fd5b3480156101c857600080fd5b506101e360048036038101906101de9190612a70565b610723565b6040516101f09190612ac9565b60405180910390f35b34801561020557600080fd5b50610220600480360381019061021b9190612b3c565b610998565b60405161022d9190612b84565b60405180910390f35b34801561024257600080fd5b5061025d60048036038101906102589190612a70565b610a12565b60405161026a9190612ac9565b60405180910390f35b34801561027f57600080fd5b5061029a60048036038101906102959190612bcb565b610ade565b005b3480156102a857600080fd5b506102c360048036038101906102be9190612c68565b610bd6565b6040516102d09190612ca4565b60405180910390f35b3480156102e557600080fd5b5061030060048036038101906102fb9190612cbf565b610bf5565b005b34801561030e57600080fd5b5061032960048036038101906103249190612cff565b610c1e565b005b34801561033757600080fd5b50610352600480360381019061034d9190612cbf565b610d14565b005b34801561036057600080fd5b5061037b60048036038101906103769190612d3f565b610d97565b005b34801561038957600080fd5b506103a4600480360381019061039f9190612d92565b610e5b565b6040516103b19190612e49565b60405180910390f35b3480156103c657600080fd5b506103e160048036038101906103dc9190612e64565b610fe7565b6040516103ee9190612b84565b60405180910390f35b34801561040357600080fd5b5061040c611072565b6040516104199190612b84565b60405180910390f35b34801561042e57600080fd5b5061044960048036038101906104449190612d92565b611089565b6040516104569190612e49565b60405180910390f35b34801561046b57600080fd5b5061048660048036038101906104819190612bcb565b61119a565b005b34801561049457600080fd5b506104af60048036038101906104aa9190612e91565b611506565b005b3480156104bd57600080fd5b506104d860048036038101906104d39190612cbf565b6115c2565b6040516104e59190612b84565b60405180910390f35b3480156104fa57600080fd5b5061051560048036038101906105109190612a70565b61162c565b6040516105229190613080565b60405180910390f35b34801561053757600080fd5b50610552600480360381019061054d9190612a70565b6117e2565b60405161055f91906130f7565b60405180910390f35b34801561057457600080fd5b5061058f600480360381019061058a9190612e64565b611a97565b60405161059c9190612b84565b60405180910390f35b3480156105b157600080fd5b506105ba611ae5565b6040516105c79190612ca4565b60405180910390f35b3480156105dc57600080fd5b506105f760048036038101906105f29190612e64565b611aec565b6040516106049190612e49565b60405180910390f35b34801561061957600080fd5b50610622611bb5565b60405161062f9190612ca4565b60405180910390f35b34801561064457600080fd5b5061065f600480360381019061065a9190612bcb565b611bd9565b005b34801561066d57600080fd5b5061068860048036038101906106839190612cbf565b611d1a565b005b610692611d43565b005b3480156106a057600080fd5b506106bb60048036038101906106b69190612e91565b611e24565b005b3480156106c957600080fd5b506106e460048036038101906106df9190612e64565b611f48565b6040516106f19190612ac9565b60405180910390f35b34801561070657600080fd5b50610721600480360381019061071c9190612bcb565b611fcb565b005b60007f41a998b42530cff8f40cf375b6a586aeb2b2a8285995d3b4fb404116be349d786107578161075261217f565b612187565b6000600360008573ffffffffffffffffffffffffffffffffffffffff1673ffffffffffffffffffffffffffffffffffffffff16815260200190815260200160002060008673ffffffffffffffffffffffffffffffffffffffff1673ffffffffffffffffffffffffffffffffffffffff16815260200190815260200160002090506000600360008673ffffffffffffffffffffffffffffffffffffffff1673ffffffffffffffffffffffffffffffffffffffff16815260200190815260200160002060008773ffffffffffffffffffffffffffffffffffffffff1673ffffffffffffffffffffffffffffffffffffffff168152602001908152602001600020600401805480602002602001604051908101604052809291908181526020016000905b828210156108e357838290600052602060002090600402016040518060800160405290816000820154815260200160018201548152602001600282015481526020016003820160009054906101000a900460ff16151515158152505081526020019060010190610878565b50505050905060008151146108fd57600093505050610991565b60008080846002015490505b835181101561097f574284828151811061092657610925613112565b5b60200260200101516040015111156109405780915061097f565b83818151811061095357610952613112565b5b6020026020010151600001518361096a9190613170565b92508080610977906131c6565b915050610909565b50808460020181905550819550505050505b5092915050565b60007f7965db0b000000000000000000000000000000000000000000000000000000007bffffffffffffffffffffffffffffffffffffffffffffffffffffffff1916827bffffffffffffffffffffffffffffffffffffffffffffffffffffffff19161480610a0b5750610a0a82612224565b5b9050919050565b60007f41a998b42530cff8f40cf375b6a586aeb2b2a8285995d3b4fb404116be349d78610a4681610a4161217f565b612187565b6001600360008573ffffffffffffffffffffffffffffffffffffffff1673ffffffffffffffffffffffffffffffffffffffff16815260200190815260200160002060008673ffffffffffffffffffffffffffffffffffffffff1673ffffffffffffffffffffffffffffffffffffffff16815260200190815260200160002060040180549050610ad5919061320f565b91505092915050565b7f41a998b42530cff8f40cf375b6a586aeb2b2a8285995d3b4fb404116be349d78610b1081610b0b61217f565b612187565b6000600360008673ffffffffffffffffffffffffffffffffffffffff1673ffffffffffffffffffffffffffffffffffffffff16815260200190815260200160002060008773ffffffffffffffffffffffffffffffffffffffff1673ffffffffffffffffffffffffffffffffffffffff1681526020019081526020016000206004018381548110610ba357610ba2613112565b5b9060005260206000209060040201905083816000016000828254610bc79190613170565b92505081905550505050505050565b6000806000838152602001908152602001600020600101549050919050565b610bfe82610bd6565b610c0f81610c0a61217f565b612187565b610c19838361228e565b505050565b6000801b610c3381610c2e61217f565b612187565b610c3c83611a97565b15610c7c576040517f08c379a0000000000000000000000000000000000000000000000000000000008152600401610c73906132a0565b60405180910390fd5b60006040518060800160405280600081526020018481526020016000815260200143815250905080600460008673ffffffffffffffffffffffffffffffffffffffff1673ffffffffffffffffffffffffffffffffffffffff1681526020019081526020016000206000820151816000015560208201518160010155604082015181600201556060820151816003015590505050505050565b610d1c61217f565b73ffffffffffffffffffffffffffffffffffffffff168173ffffffffffffffffffffffffffffffffffffffff1614610d89576040517f08c379a0000000000000000000000000000000000000000000000000000000008152600401610d8090613332565b60405180910390fd5b610d93828261236e565b5050565b6000801b610dac81610da761217f565b612187565b6000600460008673ffffffffffffffffffffffffffffffffffffffff1673ffffffffffffffffffffffffffffffffffffffff1681526020019081526020016000209050600084118015610e03575083816000015410155b610e0c57600080fd5b610e393084868873ffffffffffffffffffffffffffffffffffffffff1661244f909392919063ffffffff16565b83816000016000828254610e4d919061320f565b925050819055505050505050565b610e63612981565b7f41a998b42530cff8f40cf375b6a586aeb2b2a8285995d3b4fb404116be349d78610e9581610e9061217f565b612187565b610e9e85611a97565b610edd576040517f08c379a0000000000000000000000000000000000000000000000000000000008152600401610ed49061339e565b60405180910390fd5b83600460008773ffffffffffffffffffffffffffffffffffffffff1673ffffffffffffffffffffffffffffffffffffffff1681526020019081526020016000206002018190555082600460008773ffffffffffffffffffffffffffffffffffffffff1673ffffffffffffffffffffffffffffffffffffffff16815260200190815260200160002060030181905550600460008673ffffffffffffffffffffffffffffffffffffffff1673ffffffffffffffffffffffffffffffffffffffff1681526020019081526020016000206040518060800160405290816000820154815260200160018201548152602001600282015481526020016003820154815250509150509392505050565b600080600360003373ffffffffffffffffffffffffffffffffffffffff1673ffffffffffffffffffffffffffffffffffffffff16815260200190815260200160002060008473ffffffffffffffffffffffffffffffffffffffff1673ffffffffffffffffffffffffffffffffffffffff16815260200190815260200160002060000154119050919050565b6000600160009054906101000a900460ff16905090565b611091612981565b81600460008673ffffffffffffffffffffffffffffffffffffffff1673ffffffffffffffffffffffffffffffffffffffff1681526020019081526020016000206003018190555082600460008673ffffffffffffffffffffffffffffffffffffffff1673ffffffffffffffffffffffffffffffffffffffff16815260200190815260200160002060020181905550600460008573ffffffffffffffffffffffffffffffffffffffff1673ffffffffffffffffffffffffffffffffffffffff16815260200190815260200160002060405180608001604052908160008201548152602001600182015481526020016002820154815260200160038201548152505090509392505050565b6111a2611072565b156111e2576040517f08c379a00000000000000000000000000000000000000000000000000000000081526004016111d99061340a565b60405180910390fd5b7f41a998b42530cff8f40cf375b6a586aeb2b2a8285995d3b4fb404116be349d786112148161120f61217f565b612187565b60008311611257576040517f08c379a000000000000000000000000000000000000000000000000000000000815260040161124e90613476565b60405180910390fd5b6000600360008673ffffffffffffffffffffffffffffffffffffffff1673ffffffffffffffffffffffffffffffffffffffff16815260200190815260200160002060008773ffffffffffffffffffffffffffffffffffffffff1673ffffffffffffffffffffffffffffffffffffffff16815260200190815260200160002090508381600001541161131d576040517f08c379a000000000000000000000000000000000000000000000000000000000815260040161131490613508565b60405180910390fd5b83816000016000828254611331919061320f565b925050819055508281600101819055506000600460008873ffffffffffffffffffffffffffffffffffffffff1673ffffffffffffffffffffffffffffffffffffffff168152602001908152602001600020905084816000016000828254611398919061320f565b925050819055506000600360008873ffffffffffffffffffffffffffffffffffffffff1673ffffffffffffffffffffffffffffffffffffffff16815260200190815260200160002060008973ffffffffffffffffffffffffffffffffffffffff1673ffffffffffffffffffffffffffffffffffffffff168152602001908152602001600020600401905060005b836002015481116114935781818154811061144357611442613112565b5b9060005260206000209060040201600080820160009055600182016000905560028201600090556003820160006101000a81549060ff02191690555050808061148b906131c6565b915050611425565b506114c13088888b73ffffffffffffffffffffffffffffffffffffffff1661244f909392919063ffffffff16565b7f9b1bfa7fa9ee420a16e124f794c35ac9f90472acc99140eb2f6447c714cad8eb8789886040516114f493929190613537565b60405180910390a15050505050505050565b7f41a998b42530cff8f40cf375b6a586aeb2b2a8285995d3b4fb404116be349d786115388161153361217f565b612187565b81600360008573ffffffffffffffffffffffffffffffffffffffff1673ffffffffffffffffffffffffffffffffffffffff16815260200190815260200160002060008673ffffffffffffffffffffffffffffffffffffffff1673ffffffffffffffffffffffffffffffffffffffff1681526020019081526020016000206001018190555050505050565b600080600084815260200190815260200160002060000160008373ffffffffffffffffffffffffffffffffffffffff1673ffffffffffffffffffffffffffffffffffffffff16815260200190815260200160002060009054906101000a900460ff16905092915050565b6116346129a9565b7f41a998b42530cff8f40cf375b6a586aeb2b2a8285995d3b4fb404116be349d786116668161166161217f565b612187565b600360008473ffffffffffffffffffffffffffffffffffffffff1673ffffffffffffffffffffffffffffffffffffffff16815260200190815260200160002060008573ffffffffffffffffffffffffffffffffffffffff1673ffffffffffffffffffffffffffffffffffffffff1681526020019081526020016000206040518060c00160405290816000820154815260200160018201548152602001600282015481526020016003820160009054906101000a900460ff161515151581526020016003820160019054906101000a900460ff1615151515815260200160048201805480602002602001604051908101604052809291908181526020016000905b828210156117d157838290600052602060002090600402016040518060800160405290816000820154815260200160018201548152602001600282015481526020016003820160009054906101000a900460ff16151515158152505081526020019060010190611766565b505050508152505091505092915050565b6117ea6129e3565b7f41a998b42530cff8f40cf375b6a586aeb2b2a8285995d3b4fb404116be349d7861181c8161181761217f565b612187565b6000600360008573ffffffffffffffffffffffffffffffffffffffff1673ffffffffffffffffffffffffffffffffffffffff16815260200190815260200160002060008673ffffffffffffffffffffffffffffffffffffffff1673ffffffffffffffffffffffffffffffffffffffff1681526020019081526020016000206040518060c00160405290816000820154815260200160018201548152602001600282015481526020016003820160009054906101000a900460ff161515151581526020016003820160019054906101000a900460ff1615151515815260200160048201805480602002602001604051908101604052809291908181526020016000905b8282101561198957838290600052602060002090600402016040518060800160405290816000820154815260200160018201548152602001600282015481526020016003820160009054906101000a900460ff1615151515815250508152602001906001019061191e565b50505050815250509050600060018260a00151516119a7919061320f565b9050600360008673ffffffffffffffffffffffffffffffffffffffff1673ffffffffffffffffffffffffffffffffffffffff16815260200190815260200160002060008773ffffffffffffffffffffffffffffffffffffffff1673ffffffffffffffffffffffffffffffffffffffff1681526020019081526020016000206004018181548110611a3a57611a39613112565b5b90600052602060002090600402016040518060800160405290816000820154815260200160018201548152602001600282015481526020016003820160009054906101000a900460ff161515151581525050935050505092915050565b600080600460008473ffffffffffffffffffffffffffffffffffffffff1673ffffffffffffffffffffffffffffffffffffffff16815260200190815260200160002060010154119050919050565b6000801b81565b611af4612981565b611afd82611a97565b611b3c576040517f08c379a0000000000000000000000000000000000000000000000000000000008152600401611b33906135ba565b60405180910390fd5b600460008373ffffffffffffffffffffffffffffffffffffffff1673ffffffffffffffffffffffffffffffffffffffff1681526020019081526020016000206040518060800160405290816000820154815260200160018201548152602001600282015481526020016003820154815250509050919050565b7f41a998b42530cff8f40cf375b6a586aeb2b2a8285995d3b4fb404116be349d7881565b7f41a998b42530cff8f40cf375b6a586aeb2b2a8285995d3b4fb404116be349d78611c0b81611c0661217f565b612187565b82600360008673ffffffffffffffffffffffffffffffffffffffff1673ffffffffffffffffffffffffffffffffffffffff16815260200190815260200160002060008773ffffffffffffffffffffffffffffffffffffffff1673ffffffffffffffffffffffffffffffffffffffff1681526020019081526020016000206000018190555081600360008673ffffffffffffffffffffffffffffffffffffffff1673ffffffffffffffffffffffffffffffffffffffff16815260200190815260200160002060008773ffffffffffffffffffffffffffffffffffffffff1673ffffffffffffffffffffffffffffffffffffffff168152602001908152602001600020600101819055505050505050565b611d2382610bd6565b611d3481611d2f61217f565b612187565b611d3e838361236e565b505050565b6000801b611d5881611d5361217f565b612187565b60004711611d9b576040517f08c379a0000000000000000000000000000000000000000000000000000000008152600401611d9290613626565b60405180910390fd5b60004790503373ffffffffffffffffffffffffffffffffffffffff166108fc829081150290604051600060405180830381858888f19350505050158015611de6573d6000803e3d6000fd5b507f43b2a2d6daf661162c8c435ac5820ea5b1e0046355c5faac17d06ecb4f60f1533382604051611e18929190613646565b60405180910390a15050565b6000604051806080016040528083815260200142815260200160025442611e4b9190613170565b8152602001600115158152509050600360008473ffffffffffffffffffffffffffffffffffffffff1673ffffffffffffffffffffffffffffffffffffffff16815260200190815260200160002060008573ffffffffffffffffffffffffffffffffffffffff1673ffffffffffffffffffffffffffffffffffffffff16815260200190815260200160002060040181908060018154018082558091505060019003906000526020600020906004020160009091909190915060008201518160000155602082015181600101556040820151816002015560608201518160030160006101000a81548160ff021916908315150217905550505050505050565b60008173ffffffffffffffffffffffffffffffffffffffff166370a08231306040518263ffffffff1660e01b8152600401611f83919061366f565b602060405180830381865afa158015611fa0573d6000803e3d6000fd5b505050506040513d601f19601f82011682018060405250810190611fc4919061369f565b9050919050565b7f41a998b42530cff8f40cf375b6a586aeb2b2a8285995d3b4fb404116be349d78611ffd81611ff861217f565b612187565b60006040518060800160405280858152602001428152602001600254426120249190613170565b81526020016001151581525090506000600360008773ffffffffffffffffffffffffffffffffffffffff1673ffffffffffffffffffffffffffffffffffffffff16815260200190815260200160002060008873ffffffffffffffffffffffffffffffffffffffff1673ffffffffffffffffffffffffffffffffffffffff16815260200190815260200160002090508481600001819055508381600101819055506000816002018190555060008160030160006101000a81548160ff02191690831515021790555060018160030160016101000a81548160ff0219169083151502179055508060040182908060018154018082558091505060019003906000526020600020906004020160009091909190915060008201518160000155602082015181600101556040820151816002015560608201518160030160006101000a81548160ff021916908315150217905550505050505050505050565b600033905090565b61219182826115c2565b612220576121b68173ffffffffffffffffffffffffffffffffffffffff1660146124d8565b6121c48360001c60206124d8565b6040516020016121d59291906137de565b6040516020818303038152906040526040517f08c379a00000000000000000000000000000000000000000000000000000000081526004016122179190613862565b60405180910390fd5b5050565b60007f01ffc9a7000000000000000000000000000000000000000000000000000000007bffffffffffffffffffffffffffffffffffffffffffffffffffffffff1916827bffffffffffffffffffffffffffffffffffffffffffffffffffffffff1916149050919050565b61229882826115c2565b61236a57600160008084815260200190815260200160002060000160008373ffffffffffffffffffffffffffffffffffffffff1673ffffffffffffffffffffffffffffffffffffffff16815260200190815260200160002060006101000a81548160ff02191690831515021790555061230f61217f565b73ffffffffffffffffffffffffffffffffffffffff168173ffffffffffffffffffffffffffffffffffffffff16837f2f8788117e7eff1d82e926ec794901d17c78024a50270940304540a733656f0d60405160405180910390a45b5050565b61237882826115c2565b1561244b57600080600084815260200190815260200160002060000160008373ffffffffffffffffffffffffffffffffffffffff1673ffffffffffffffffffffffffffffffffffffffff16815260200190815260200160002060006101000a81548160ff0219169083151502179055506123f061217f565b73ffffffffffffffffffffffffffffffffffffffff168173ffffffffffffffffffffffffffffffffffffffff16837ff6391f5c32d9c69d2a47ea670b442974b53935d1edc7fd64eb21e047a839171b60405160405180910390a45b5050565b6124d2846323b872dd60e01b85858560405160240161247093929190613537565b604051602081830303815290604052907bffffffffffffffffffffffffffffffffffffffffffffffffffffffff19166020820180517bffffffffffffffffffffffffffffffffffffffffffffffffffffffff8381831617835250505050612714565b50505050565b6060600060028360026124eb9190613884565b6124f59190613170565b67ffffffffffffffff81111561250e5761250d6138de565b5b6040519080825280601f01601f1916602001820160405280156125405781602001600182028036833780820191505090505b5090507f30000000000000000000000000000000000000000000000000000000000000008160008151811061257857612577613112565b5b60200101907effffffffffffffffffffffffffffffffffffffffffffffffffffffffffffff1916908160001a9053507f7800000000000000000000000000000000000000000000000000000000000000816001815181106125dc576125db613112565b5b60200101907effffffffffffffffffffffffffffffffffffffffffffffffffffffffffffff1916908160001a9053506000600184600261261c9190613884565b6126269190613170565b90505b60018111156126c6577f3031323334353637383961626364656600000000000000000000000000000000600f86166010811061266857612667613112565b5b1a60f81b82828151811061267f5761267e613112565b5b60200101907effffffffffffffffffffffffffffffffffffffffffffffffffffffffffffff1916908160001a905350600485901c9450806126bf9061390d565b9050612629565b506000841461270a576040517f08c379a000000000000000000000000000000000000000000000000000000000815260040161270190613983565b60405180910390fd5b8091505092915050565b6000612776826040518060400160405280602081526020017f5361666545524332303a206c6f772d6c6576656c2063616c6c206661696c65648152508573ffffffffffffffffffffffffffffffffffffffff166127db9092919063ffffffff16565b90506000815111156127d6578080602001905181019061279691906139cf565b6127d5576040517f08c379a00000000000000000000000000000000000000000000000000000000081526004016127cc90613a6e565b60405180910390fd5b5b505050565b60606127ea84846000856127f3565b90509392505050565b606082471015612838576040517f08c379a000000000000000000000000000000000000000000000000000000000815260040161282f90613b00565b60405180910390fd5b61284185612907565b612880576040517f08c379a000000000000000000000000000000000000000000000000000000000815260040161287790613b6c565b60405180910390fd5b6000808673ffffffffffffffffffffffffffffffffffffffff1685876040516128a99190613bd3565b60006040518083038185875af1925050503d80600081146128e6576040519150601f19603f3d011682016040523d82523d6000602084013e6128eb565b606091505b50915091506128fb82828661291a565b92505050949350505050565b600080823b905060008111915050919050565b6060831561292a5782905061297a565b60008351111561293d5782518084602001fd5b816040517f08c379a00000000000000000000000000000000000000000000000000000000081526004016129719190613862565b60405180910390fd5b9392505050565b6040518060800160405280600081526020016000815260200160008152602001600081525090565b6040518060c00160405280600081526020016000815260200160008152602001600015158152602001600015158152602001606081525090565b60405180608001604052806000815260200160008152602001600081526020016000151581525090565b600080fd5b600073ffffffffffffffffffffffffffffffffffffffff82169050919050565b6000612a3d82612a12565b9050919050565b612a4d81612a32565b8114612a5857600080fd5b50565b600081359050612a6a81612a44565b92915050565b60008060408385031215612a8757612a86612a0d565b5b6000612a9585828601612a5b565b9250506020612aa685828601612a5b565b9150509250929050565b6000819050919050565b612ac381612ab0565b82525050565b6000602082019050612ade6000830184612aba565b92915050565b60007fffffffff0000000000000000000000000000000000000000000000000000000082169050919050565b612b1981612ae4565b8114612b2457600080fd5b50565b600081359050612b3681612b10565b92915050565b600060208284031215612b5257612b51612a0d565b5b6000612b6084828501612b27565b91505092915050565b60008115159050919050565b612b7e81612b69565b82525050565b6000602082019050612b996000830184612b75565b92915050565b612ba881612ab0565b8114612bb357600080fd5b50565b600081359050612bc581612b9f565b92915050565b60008060008060808587031215612be557612be4612a0d565b5b6000612bf387828801612a5b565b9450506020612c0487828801612a5b565b9350506040612c1587828801612bb6565b9250506060612c2687828801612bb6565b91505092959194509250565b6000819050919050565b612c4581612c32565b8114612c5057600080fd5b50565b600081359050612c6281612c3c565b92915050565b600060208284031215612c7e57612c7d612a0d565b5b6000612c8c84828501612c53565b91505092915050565b612c9e81612c32565b82525050565b6000602082019050612cb96000830184612c95565b92915050565b60008060408385031215612cd657612cd5612a0d565b5b6000612ce485828601612c53565b9250506020612cf585828601612a5b565b9150509250929050565b60008060408385031215612d1657612d15612a0d565b5b6000612d2485828601612a5b565b9250506020612d3585828601612bb6565b9150509250929050565b600080600060608486031215612d5857612d57612a0d565b5b6000612d6686828701612a5b565b9350506020612d7786828701612bb6565b9250506040612d8886828701612a5b565b9150509250925092565b600080600060608486031215612dab57612daa612a0d565b5b6000612db986828701612a5b565b9350506020612dca86828701612bb6565b9250506040612ddb86828701612bb6565b9150509250925092565b612dee81612ab0565b82525050565b608082016000820151612e0a6000850182612de5565b506020820151612e1d6020850182612de5565b506040820151612e306040850182612de5565b506060820151612e436060850182612de5565b50505050565b6000608082019050612e5e6000830184612df4565b92915050565b600060208284031215612e7a57612e79612a0d565b5b6000612e8884828501612a5b565b91505092915050565b600080600060608486031215612eaa57612ea9612a0d565b5b6000612eb886828701612a5b565b9350506020612ec986828701612a5b565b9250506040612eda86828701612bb6565b9150509250925092565b612eed81612b69565b82525050565b600081519050919050565b600082825260208201905092915050565b6000819050602082019050919050565b608082016000820151612f356000850182612de5565b506020820151612f486020850182612de5565b506040820151612f5b6040850182612de5565b506060820151612f6e6060850182612ee4565b50505050565b6000612f808383612f1f565b60808301905092915050565b6000602082019050919050565b6000612fa482612ef3565b612fae8185612efe565b9350612fb983612f0f565b8060005b83811015612fea578151612fd18882612f74565b9750612fdc83612f8c565b925050600181019050612fbd565b5085935050505092915050565b600060c08301600083015161300f6000860182612de5565b5060208301516130226020860182612de5565b5060408301516130356040860182612de5565b5060608301516130486060860182612ee4565b50608083015161305b6080860182612ee4565b5060a083015184820360a08601526130738282612f99565b9150508091505092915050565b6000602082019050818103600083015261309a8184612ff7565b905092915050565b6080820160008201516130b86000850182612de5565b5060208201516130cb6020850182612de5565b5060408201516130de6040850182612de5565b5060608201516130f16060850182612ee4565b50505050565b600060808201905061310c60008301846130a2565b92915050565b7f4e487b7100000000000000000000000000000000000000000000000000000000600052603260045260246000fd5b7f4e487b7100000000000000000000000000000000000000000000000000000000600052601160045260246000fd5b600061317b82612ab0565b915061318683612ab0565b9250827fffffffffffffffffffffffffffffffffffffffffffffffffffffffffffffffff038211156131bb576131ba613141565b5b828201905092915050565b60006131d182612ab0565b91507fffffffffffffffffffffffffffffffffffffffffffffffffffffffffffffffff82141561320457613203613141565b5b600182019050919050565b600061321a82612ab0565b915061322583612ab0565b92508282101561323857613237613141565b5b828203905092915050565b600082825260208201905092915050565b7f5468697320706f6f6c20616c7265616479206578697374732e00000000000000600082015250565b600061328a601983613243565b915061329582613254565b602082019050919050565b600060208201905081810360008301526132b98161327d565b9050919050565b7f416363657373436f6e74726f6c3a2063616e206f6e6c792072656e6f756e636560008201527f20726f6c657320666f722073656c660000000000000000000000000000000000602082015250565b600061331c602f83613243565b9150613327826132c0565b604082019050919050565b6000602082019050818103600083015261334b8161330f565b9050919050565b7f506f6f6c20646f6573206e6f7420657869737400000000000000000000000000600082015250565b6000613388601383613243565b915061339382613352565b602082019050919050565b600060208201905081810360008301526133b78161337b565b9050919050565b7f5061757361626c653a2070617573656400000000000000000000000000000000600082015250565b60006133f4601083613243565b91506133ff826133be565b602082019050919050565b60006020820190508181036000830152613423816133e7565b9050919050565b7f416d6f756e742030000000000000000000000000000000000000000000000000600082015250565b6000613460600883613243565b915061346b8261342a565b602082019050919050565b6000602082019050818103600083015261348f81613453565b9050919050565b7f57697468647261776e20616d6f756e742065786365656420746865207573657260008201527f2062616c616e6365000000000000000000000000000000000000000000000000602082015250565b60006134f2602883613243565b91506134fd82613496565b604082019050919050565b60006020820190508181036000830152613521816134e5565b9050919050565b61353181612a32565b82525050565b600060608201905061354c6000830186613528565b6135596020830185613528565b6135666040830184612aba565b949350505050565b7f54686520706f6f6c20646f6573206e6f74206578697374732e00000000000000600082015250565b60006135a4601983613243565b91506135af8261356e565b602082019050919050565b600060208201905081810360008301526135d381613597565b9050919050565b7f6e6f206d6174696320746f207769746864726177000000000000000000000000600082015250565b6000613610601483613243565b915061361b826135da565b602082019050919050565b6000602082019050818103600083015261363f81613603565b9050919050565b600060408201905061365b6000830185613528565b6136686020830184612aba565b9392505050565b60006020820190506136846000830184613528565b92915050565b60008151905061369981612b9f565b92915050565b6000602082840312156136b5576136b4612a0d565b5b60006136c38482850161368a565b91505092915050565b600081905092915050565b7f416363657373436f6e74726f6c3a206163636f756e7420000000000000000000600082015250565b600061370d6017836136cc565b9150613718826136d7565b601782019050919050565b600081519050919050565b60005b8381101561374c578082015181840152602081019050613731565b8381111561375b576000848401525b50505050565b600061376c82613723565b61377681856136cc565b935061378681856020860161372e565b80840191505092915050565b7f206973206d697373696e6720726f6c6520000000000000000000000000000000600082015250565b60006137c86011836136cc565b91506137d382613792565b601182019050919050565b60006137e982613700565b91506137f58285613761565b9150613800826137bb565b915061380c8284613761565b91508190509392505050565b6000601f19601f8301169050919050565b600061383482613723565b61383e8185613243565b935061384e81856020860161372e565b61385781613818565b840191505092915050565b6000602082019050818103600083015261387c8184613829565b905092915050565b600061388f82612ab0565b915061389a83612ab0565b9250817fffffffffffffffffffffffffffffffffffffffffffffffffffffffffffffffff04831182151516156138d3576138d2613141565b5b828202905092915050565b7f4e487b7100000000000000000000000000000000000000000000000000000000600052604160045260246000fd5b600061391882612ab0565b9150600082141561392c5761392b613141565b5b600182039050919050565b7f537472696e67733a20686578206c656e67746820696e73756666696369656e74600082015250565b600061396d602083613243565b915061397882613937565b602082019050919050565b6000602082019050818103600083015261399c81613960565b9050919050565b6139ac81612b69565b81146139b757600080fd5b50565b6000815190506139c9816139a3565b92915050565b6000602082840312156139e5576139e4612a0d565b5b60006139f3848285016139ba565b91505092915050565b7f5361666545524332303a204552433230206f7065726174696f6e20646964206e60008201527f6f74207375636365656400000000000000000000000000000000000000000000602082015250565b6000613a58602a83613243565b9150613a63826139fc565b604082019050919050565b60006020820190508181036000830152613a8781613a4b565b9050919050565b7f416464726573733a20696e73756666696369656e742062616c616e636520666f60008201527f722063616c6c0000000000000000000000000000000000000000000000000000602082015250565b6000613aea602683613243565b9150613af582613a8e565b604082019050919050565b60006020820190508181036000830152613b1981613add565b9050919050565b7f416464726573733a2063616c6c20746f206e6f6e2d636f6e7472616374000000600082015250565b6000613b56601d83613243565b9150613b6182613b20565b602082019050919050565b60006020820190508181036000830152613b8581613b49565b9050919050565b600081519050919050565b600081905092915050565b6000613bad82613b8c565b613bb78185613b97565b9350613bc781856020860161372e565b80840191505092915050565b6000613bdf8284613ba2565b91508190509291505056fea2646970667358221220fc0ae64f5f45ea2a7c43afda9ae773a1dd87c93e0d8964b6d65f7f49f9632b0d64736f6c634300080b0033",
  "linkReferences": {},
  "deployedLinkReferences": {}
}