{
  "_format": "hh-sol-artifact-1",
  "contractName": "Vault",
  "sourceName": "contracts/vault/Vault.sol",
  "abi": [
    {
      "inputs": [],
      "stateMutability": "nonpayable",
      "type": "constructor"
    },
    {
      "anonymous": false,
      "inputs": [
        {
          "indexed": false,
          "internalType": "address",
          "name": "user",
          "type": "address"
        },
        {
          "indexed": false,
          "internalType": "address",
          "name": "token",
          "type": "address"
        },
        {
          "indexed": false,
          "internalType": "uint256",
          "name": "amount",
          "type": "uint256"
        }
      ],
      "name": "DepositVault",
      "type": "event"
    },
    {
      "anonymous": false,
      "inputs": [
        {
          "indexed": true,
          "internalType": "address",
          "name": "previousOwner",
          "type": "address"
        },
        {
          "indexed": true,
          "internalType": "address",
          "name": "newOwner",
          "type": "address"
        }
      ],
      "name": "OwnershipTransferred",
      "type": "event"
    },
    {
      "anonymous": false,
      "inputs": [
        {
          "indexed": false,
          "internalType": "address",
          "name": "account",
          "type": "address"
        }
      ],
      "name": "Paused",
      "type": "event"
    },
    {
      "anonymous": false,
      "inputs": [
        {
          "indexed": false,
          "internalType": "address",
          "name": "account",
          "type": "address"
        }
      ],
      "name": "Unpaused",
      "type": "event"
    },
    {
      "anonymous": false,
      "inputs": [
        {
          "indexed": false,
          "internalType": "address",
          "name": "destination",
          "type": "address"
        },
        {
          "indexed": false,
          "internalType": "uint256",
          "name": "amount",
          "type": "uint256"
        }
      ],
      "name": "WithdrawMATIC",
      "type": "event"
    },
    {
      "anonymous": false,
      "inputs": [
        {
          "indexed": false,
          "internalType": "address",
          "name": "user",
          "type": "address"
        },
        {
          "indexed": false,
          "internalType": "address",
          "name": "token",
          "type": "address"
        },
        {
          "indexed": false,
          "internalType": "uint256",
          "name": "amount",
          "type": "uint256"
        }
      ],
      "name": "WithdrawVault",
      "type": "event"
    },
    {
      "inputs": [
        {
          "internalType": "address",
          "name": "_token",
          "type": "address"
        },
        {
          "internalType": "uint256",
          "name": "_rewardsPerBlock",
          "type": "uint256"
        }
      ],
      "name": "addPool",
      "outputs": [],
      "stateMutability": "nonpayable",
      "type": "function"
    },
    {
      "inputs": [
        {
          "internalType": "address",
          "name": "_token",
          "type": "address"
        },
        {
          "internalType": "address",
          "name": "_user",
          "type": "address"
        },
        {
          "internalType": "uint256",
          "name": "_amount",
          "type": "uint256"
        }
      ],
      "name": "addStake",
      "outputs": [],
      "stateMutability": "nonpayable",
      "type": "function"
    },
    {
      "inputs": [
        {
          "internalType": "address",
          "name": "_token",
          "type": "address"
        },
        {
          "internalType": "address",
          "name": "_user",
          "type": "address"
        },
        {
          "internalType": "uint256",
          "name": "_amount",
          "type": "uint256"
        },
        {
          "internalType": "uint256",
          "name": "_rewardDebt",
          "type": "uint256"
        }
      ],
      "name": "addUserPosition",
      "outputs": [],
      "stateMutability": "nonpayable",
      "type": "function"
    },
    {
      "inputs": [
        {
          "internalType": "address",
          "name": "_token",
          "type": "address"
        }
      ],
      "name": "checkIfPoolExists",
      "outputs": [
        {
          "internalType": "bool",
          "name": "",
          "type": "bool"
        }
      ],
      "stateMutability": "view",
      "type": "function"
    },
    {
      "inputs": [
        {
          "internalType": "address",
          "name": "_token",
          "type": "address"
        },
        {
          "internalType": "address",
          "name": "_user",
          "type": "address"
        },
        {
          "internalType": "uint256",
          "name": "_amount",
          "type": "uint256"
        }
      ],
      "name": "depositVault",
      "outputs": [],
      "stateMutability": "nonpayable",
      "type": "function"
    },
    {
      "inputs": [
        {
          "internalType": "address",
          "name": "_token",
          "type": "address"
        }
      ],
      "name": "getPoolInfo",
      "outputs": [
        {
          "components": [
            {
              "internalType": "uint256",
              "name": "totalPooled",
              "type": "uint256"
            },
            {
              "internalType": "uint256",
              "name": "rewardsPerBlock",
              "type": "uint256"
            },
            {
              "internalType": "uint256",
              "name": "accCaplPerShare",
              "type": "uint256"
            },
            {
              "internalType": "uint256",
              "name": "lastRewardBlock",
              "type": "uint256"
            }
          ],
          "internalType": "struct Vault.Pool",
          "name": "",
          "type": "tuple"
        }
      ],
      "stateMutability": "view",
      "type": "function"
    },
    {
      "inputs": [],
      "name": "owner",
      "outputs": [
        {
          "internalType": "address",
          "name": "",
          "type": "address"
        }
      ],
      "stateMutability": "view",
      "type": "function"
    },
    {
      "inputs": [],
      "name": "paused",
      "outputs": [
        {
          "internalType": "bool",
          "name": "",
          "type": "bool"
        }
      ],
      "stateMutability": "view",
      "type": "function"
    },
    {
      "inputs": [],
      "name": "renounceOwnership",
      "outputs": [],
      "stateMutability": "nonpayable",
      "type": "function"
    },
    {
      "inputs": [
        {
          "internalType": "address",
          "name": "_token",
          "type": "address"
        },
        {
          "internalType": "address",
          "name": "_user",
          "type": "address"
        },
        {
          "internalType": "uint256",
          "name": "_amount",
          "type": "uint256"
        },
        {
          "internalType": "uint256",
          "name": "_stakeId",
          "type": "uint256"
        }
      ],
      "name": "setStake",
      "outputs": [],
      "stateMutability": "nonpayable",
      "type": "function"
    },
    {
      "inputs": [
        {
          "internalType": "uint256",
          "name": "_duration",
          "type": "uint256"
        }
      ],
      "name": "setTimeLock",
      "outputs": [],
      "stateMutability": "nonpayable",
      "type": "function"
    },
    {
      "inputs": [
        {
          "internalType": "address",
          "name": "newOwner",
          "type": "address"
        }
      ],
      "name": "transferOwnership",
      "outputs": [],
      "stateMutability": "nonpayable",
      "type": "function"
    },
    {
      "inputs": [],
      "name": "withdrawMATIC",
      "outputs": [],
      "stateMutability": "payable",
      "type": "function"
    },
    {
      "inputs": [
        {
          "internalType": "address",
          "name": "_token",
          "type": "address"
        },
        {
          "internalType": "uint256",
          "name": "_amount",
          "type": "uint256"
        },
        {
          "internalType": "address",
          "name": "_destination",
          "type": "address"
        }
      ],
      "name": "withdrawToken",
      "outputs": [],
      "stateMutability": "nonpayable",
      "type": "function"
    },
    {
      "inputs": [
        {
          "internalType": "address",
          "name": "_user",
          "type": "address"
        },
        {
          "internalType": "address",
          "name": "_token",
          "type": "address"
        },
        {
          "internalType": "uint256",
          "name": "_amount",
          "type": "uint256"
        },
        {
          "internalType": "uint256",
          "name": "_stakeId",
          "type": "uint256"
        }
      ],
      "name": "withdrawVault",
      "outputs": [],
      "stateMutability": "nonpayable",
      "type": "function"
    }
  ],
  "bytecode": "0x608060405263082bdcb46001553480156200001957600080fd5b5060008060006101000a81548160ff02191690831515021790555062000054620000486200005a60201b60201c565b6200006260201b60201c565b62000127565b600033905090565b60008060019054906101000a900473ffffffffffffffffffffffffffffffffffffffff16905081600060016101000a81548173ffffffffffffffffffffffffffffffffffffffff021916908373ffffffffffffffffffffffffffffffffffffffff1602179055508173ffffffffffffffffffffffffffffffffffffffff168173ffffffffffffffffffffffffffffffffffffffff167f8be0079c531659141344cd1fd0a4f28419497f9722a3daafe3b4186f6b6457e060405160405180910390a35050565b6124c280620001376000396000f3fe6080604052600436106100e85760003560e01c8063715018a61161008a578063dfc2d1ba11610059578063dfc2d1ba146102ab578063f2fde38b146102d4578063f5b5d237146102fd578063fa9a1a0414610326576100e8565b8063715018a6146102225780638da5cb5b14610239578063999126d714610264578063d99f6668146102a1576100e8565b80633a8a4e72116100c65780633a8a4e721461017c5780633ccdbb28146101a55780635bcb318a146101ce5780635c975abb146101f7576100e8565b806306bfa938146100ed5780631b2aa5751461012a57806332a9caba14610153575b600080fd5b3480156100f957600080fd5b50610114600480360381019061010f9190611a37565b61034f565b6040516101219190611ad2565b60405180910390f35b34801561013657600080fd5b50610151600480360381019061014c9190611b19565b6103d0565b005b34801561015f57600080fd5b5061017a60048036038101906101759190611b80565b610492565b005b34801561018857600080fd5b506101a3600480360381019061019e9190611b19565b6105ee565b005b3480156101b157600080fd5b506101cc60048036038101906101c79190611bc0565b61090f565b005b3480156101da57600080fd5b506101f560048036038101906101f09190611c13565b610a39565b005b34801561020357600080fd5b5061020c610abf565b6040516102199190611c5b565b60405180910390f35b34801561022e57600080fd5b50610237610ad5565b005b34801561024557600080fd5b5061024e610b5d565b60405161025b9190611c85565b60405180910390f35b34801561027057600080fd5b5061028b60048036038101906102869190611a37565b610b86565b6040516102989190611c5b565b60405180910390f35b6102a9610bd4565b005b3480156102b757600080fd5b506102d260048036038101906102cd9190611ca0565b610d1b565b005b3480156102e057600080fd5b506102fb60048036038101906102f69190611a37565b610e3c565b005b34801561030957600080fd5b50610324600480360381019061031f9190611b19565b610f34565b005b34801561033257600080fd5b5061034d60048036038101906103489190611ca0565b6110dc565b005b610357611942565b600560008373ffffffffffffffffffffffffffffffffffffffff1673ffffffffffffffffffffffffffffffffffffffff1681526020019081526020016000206040518060800160405290816000820154815260200160018201548152602001600282015481526020016003820154815250509050919050565b6000600360008573ffffffffffffffffffffffffffffffffffffffff1673ffffffffffffffffffffffffffffffffffffffff16815260200190815260200160002060008673ffffffffffffffffffffffffffffffffffffffff1673ffffffffffffffffffffffffffffffffffffffff16815260200190815260200160002082815481106104605761045f611cf3565b5b90600052602060002090600402019050828160000160008282546104849190611d51565b925050819055505050505050565b61049a61156f565b73ffffffffffffffffffffffffffffffffffffffff166104b8610b5d565b73ffffffffffffffffffffffffffffffffffffffff161461050e576040517f08c379a000000000000000000000000000000000000000000000000000000000815260040161050590611e04565b60405180910390fd5b61051782610b86565b15610557576040517f08c379a000000000000000000000000000000000000000000000000000000000815260040161054e90611e70565b60405180910390fd5b60006040518060800160405280600081526020018381526020016000815260200143815250905080600560008573ffffffffffffffffffffffffffffffffffffffff1673ffffffffffffffffffffffffffffffffffffffff16815260200190815260200160002060008201518160000155602082015181600101556040820151816002015560608201518160030155905050505050565b6105f6610abf565b15610636576040517f08c379a000000000000000000000000000000000000000000000000000000000815260040161062d90611edc565b60405180910390fd5b60008211610679576040517f08c379a000000000000000000000000000000000000000000000000000000000815260040161067090611f48565b60405180910390fd5b6000600460008673ffffffffffffffffffffffffffffffffffffffff1673ffffffffffffffffffffffffffffffffffffffff16815260200190815260200160002060008573ffffffffffffffffffffffffffffffffffffffff1673ffffffffffffffffffffffffffffffffffffffff16815260200190815260200160002090508281600001541161073f576040517f08c379a000000000000000000000000000000000000000000000000000000000815260040161073690611fda565b60405180910390fd5b828160000160008282546107539190611ffa565b925050819055506000600560008673ffffffffffffffffffffffffffffffffffffffff1673ffffffffffffffffffffffffffffffffffffffff1681526020019081526020016000209050838160000160008282546107b19190611ffa565b925050819055506000600360008873ffffffffffffffffffffffffffffffffffffffff1673ffffffffffffffffffffffffffffffffffffffff16815260200190815260200160002060008773ffffffffffffffffffffffffffffffffffffffff1673ffffffffffffffffffffffffffffffffffffffff168152602001908152602001600020848154811061084857610847611cf3565b5b906000526020600020906004020190508481600001600082825461086c9190611ffa565b9250508190555060008160000154141561089e5760008160030160006101000a81548160ff0219169083151502179055505b6108cb3088878973ffffffffffffffffffffffffffffffffffffffff16611577909392919063ffffffff16565b7f68456fba341f47bb61de8683463da43524ea3048b5cd06a414db6325e23ee3988787876040516108fe9392919061203d565b60405180910390a150505050505050565b61091761156f565b73ffffffffffffffffffffffffffffffffffffffff16610935610b5d565b73ffffffffffffffffffffffffffffffffffffffff161461098b576040517f08c379a000000000000000000000000000000000000000000000000000000000815260040161098290611e04565b60405180910390fd5b6000600560008573ffffffffffffffffffffffffffffffffffffffff1673ffffffffffffffffffffffffffffffffffffffff16815260200190815260200160002090506000831180156109e2575082816000015410155b6109eb57600080fd5b610a183083858773ffffffffffffffffffffffffffffffffffffffff16611577909392919063ffffffff16565b82816000016000828254610a2c9190611ffa565b9250508190555050505050565b610a4161156f565b73ffffffffffffffffffffffffffffffffffffffff16610a5f610b5d565b73ffffffffffffffffffffffffffffffffffffffff1614610ab5576040517f08c379a0000000000000000000000000000000000000000000000000000000008152600401610aac90611e04565b60405180910390fd5b8060018190555050565b60008060009054906101000a900460ff16905090565b610add61156f565b73ffffffffffffffffffffffffffffffffffffffff16610afb610b5d565b73ffffffffffffffffffffffffffffffffffffffff1614610b51576040517f08c379a0000000000000000000000000000000000000000000000000000000008152600401610b4890611e04565b60405180910390fd5b610b5b6000611600565b565b60008060019054906101000a900473ffffffffffffffffffffffffffffffffffffffff16905090565b600080600560008473ffffffffffffffffffffffffffffffffffffffff1673ffffffffffffffffffffffffffffffffffffffff16815260200190815260200160002060000154119050919050565b610bdc61156f565b73ffffffffffffffffffffffffffffffffffffffff16610bfa610b5d565b73ffffffffffffffffffffffffffffffffffffffff1614610c50576040517f08c379a0000000000000000000000000000000000000000000000000000000008152600401610c4790611e04565b60405180910390fd5b60004711610c93576040517f08c379a0000000000000000000000000000000000000000000000000000000008152600401610c8a906120c0565b60405180910390fd5b60004790503373ffffffffffffffffffffffffffffffffffffffff166108fc829081150290604051600060405180830381858888f19350505050158015610cde573d6000803e3d6000fd5b507f43b2a2d6daf661162c8c435ac5820ea5b1e0046355c5faac17d06ecb4f60f1533382604051610d109291906120e0565b60405180910390a150565b6000604051806080016040528083815260200142815260200160015442610d429190611d51565b8152602001600115158152509050600360008473ffffffffffffffffffffffffffffffffffffffff1673ffffffffffffffffffffffffffffffffffffffff16815260200190815260200160002060008573ffffffffffffffffffffffffffffffffffffffff1673ffffffffffffffffffffffffffffffffffffffff16815260200190815260200160002081908060018154018082558091505060019003906000526020600020906004020160009091909190915060008201518160000155602082015181600101556040820151816002015560608201518160030160006101000a81548160ff021916908315150217905550505050505050565b610e4461156f565b73ffffffffffffffffffffffffffffffffffffffff16610e62610b5d565b73ffffffffffffffffffffffffffffffffffffffff1614610eb8576040517f08c379a0000000000000000000000000000000000000000000000000000000008152600401610eaf90611e04565b60405180910390fd5b600073ffffffffffffffffffffffffffffffffffffffff168173ffffffffffffffffffffffffffffffffffffffff161415610f28576040517f08c379a0000000000000000000000000000000000000000000000000000000008152600401610f1f9061217b565b60405180910390fd5b610f3181611600565b50565b610f3c61156f565b73ffffffffffffffffffffffffffffffffffffffff16610f5a610b5d565b73ffffffffffffffffffffffffffffffffffffffff1614610fb0576040517f08c379a0000000000000000000000000000000000000000000000000000000008152600401610fa790611e04565b60405180910390fd5b606060006040518060a0016040528085815260200184815260200183815260200160001515815260200160011515815250905080600460008773ffffffffffffffffffffffffffffffffffffffff1673ffffffffffffffffffffffffffffffffffffffff16815260200190815260200160002060008873ffffffffffffffffffffffffffffffffffffffff1673ffffffffffffffffffffffffffffffffffffffff1681526020019081526020016000206000820151816000015560208201518160010155604082015181600201908051906020019061109092919061196a565b5060608201518160030160006101000a81548160ff02191690831515021790555060808201518160030160016101000a81548160ff021916908315150217905550905050505050505050565b6110e4610abf565b15611124576040517f08c379a000000000000000000000000000000000000000000000000000000000815260040161111b90611edc565b60405180910390fd5b60008111611167576040517f08c379a000000000000000000000000000000000000000000000000000000000815260040161115e90611f48565b60405180910390fd5b6000600460008473ffffffffffffffffffffffffffffffffffffffff1673ffffffffffffffffffffffffffffffffffffffff16815260200190815260200160002060008573ffffffffffffffffffffffffffffffffffffffff1673ffffffffffffffffffffffffffffffffffffffff1681526020019081526020016000209050818160000160008282546111fb9190611d51565b925050819055506000816002016001836002018054905061121c9190611ffa565b8154811061122d5761122c611cf3565b5b906000526020600020015490506000600360008673ffffffffffffffffffffffffffffffffffffffff1673ffffffffffffffffffffffffffffffffffffffff16815260200190815260200160002060008773ffffffffffffffffffffffffffffffffffffffff1673ffffffffffffffffffffffffffffffffffffffff16815260200190815260200160002082815481106112ca576112c9611cf3565b5b906000526020600020906004020190506112e3816116c5565b15611484576112f186610b86565b15611331576040517f08c379a000000000000000000000000000000000000000000000000000000000815260040161132890611e70565b60405180910390fd5b60006040518060800160405280868152602001428152602001600154426113589190611d51565b8152602001600115158152509050600360008773ffffffffffffffffffffffffffffffffffffffff1673ffffffffffffffffffffffffffffffffffffffff16815260200190815260200160002060008873ffffffffffffffffffffffffffffffffffffffff1673ffffffffffffffffffffffffffffffffffffffff16815260200190815260200160002081908060018154018082558091505060019003906000526020600020906004020160009091909190915060008201518160000155602082015181600101556040820151816002015560608201518160030160006101000a81548160ff02191690831515021790555050508360020184600201805490509080600181540180825580915050600190039060005260206000200160009091909190915055506114a0565b838160000160008282546114989190611d51565b925050819055505b6000600560008873ffffffffffffffffffffffffffffffffffffffff1673ffffffffffffffffffffffffffffffffffffffff1681526020019081526020016000209050848160000160008282546114f79190611d51565b9250508190555061152b8630878a73ffffffffffffffffffffffffffffffffffffffff16611577909392919063ffffffff16565b7f1ec74d8e4dc81a83767aeed9d17d24ec86f40b06682f17bf94957f709a5ff9f086888760405161155e9392919061203d565b60405180910390a150505050505050565b600033905090565b6115fa846323b872dd60e01b8585856040516024016115989392919061203d565b604051602081830303815290604052907bffffffffffffffffffffffffffffffffffffffffffffffffffffffff19166020820180517bffffffffffffffffffffffffffffffffffffffffffffffffffffffff83818316178352505050506116d5565b50505050565b60008060019054906101000a900473ffffffffffffffffffffffffffffffffffffffff16905081600060016101000a81548173ffffffffffffffffffffffffffffffffffffffff021916908373ffffffffffffffffffffffffffffffffffffffff1602179055508173ffffffffffffffffffffffffffffffffffffffff168173ffffffffffffffffffffffffffffffffffffffff167f8be0079c531659141344cd1fd0a4f28419497f9722a3daafe3b4186f6b6457e060405160405180910390a35050565b6000428260020154109050919050565b6000611737826040518060400160405280602081526020017f5361666545524332303a206c6f772d6c6576656c2063616c6c206661696c65648152508573ffffffffffffffffffffffffffffffffffffffff1661179c9092919063ffffffff16565b9050600081511115611797578080602001905181019061175791906121c7565b611796576040517f08c379a000000000000000000000000000000000000000000000000000000000815260040161178d90612266565b60405180910390fd5b5b505050565b60606117ab84846000856117b4565b90509392505050565b6060824710156117f9576040517f08c379a00000000000000000000000000000000000000000000000000000000081526004016117f0906122f8565b60405180910390fd5b611802856118c8565b611841576040517f08c379a000000000000000000000000000000000000000000000000000000000815260040161183890612364565b60405180910390fd5b6000808673ffffffffffffffffffffffffffffffffffffffff16858760405161186a91906123fe565b60006040518083038185875af1925050503d80600081146118a7576040519150601f19603f3d011682016040523d82523d6000602084013e6118ac565b606091505b50915091506118bc8282866118db565b92505050949350505050565b600080823b905060008111915050919050565b606083156118eb5782905061193b565b6000835111156118fe5782518084602001fd5b816040517f08c379a0000000000000000000000000000000000000000000000000000000008152600401611932919061246a565b60405180910390fd5b9392505050565b6040518060800160405280600081526020016000815260200160008152602001600081525090565b8280548282559060005260206000209081019282156119a6579160200282015b828111156119a557825182559160200191906001019061198a565b5b5090506119b391906119b7565b5090565b5b808211156119d05760008160009055506001016119b8565b5090565b600080fd5b600073ffffffffffffffffffffffffffffffffffffffff82169050919050565b6000611a04826119d9565b9050919050565b611a14816119f9565b8114611a1f57600080fd5b50565b600081359050611a3181611a0b565b92915050565b600060208284031215611a4d57611a4c6119d4565b5b6000611a5b84828501611a22565b91505092915050565b6000819050919050565b611a7781611a64565b82525050565b608082016000820151611a936000850182611a6e565b506020820151611aa66020850182611a6e565b506040820151611ab96040850182611a6e565b506060820151611acc6060850182611a6e565b50505050565b6000608082019050611ae76000830184611a7d565b92915050565b611af681611a64565b8114611b0157600080fd5b50565b600081359050611b1381611aed565b92915050565b60008060008060808587031215611b3357611b326119d4565b5b6000611b4187828801611a22565b9450506020611b5287828801611a22565b9350506040611b6387828801611b04565b9250506060611b7487828801611b04565b91505092959194509250565b60008060408385031215611b9757611b966119d4565b5b6000611ba585828601611a22565b9250506020611bb685828601611b04565b9150509250929050565b600080600060608486031215611bd957611bd86119d4565b5b6000611be786828701611a22565b9350506020611bf886828701611b04565b9250506040611c0986828701611a22565b9150509250925092565b600060208284031215611c2957611c286119d4565b5b6000611c3784828501611b04565b91505092915050565b60008115159050919050565b611c5581611c40565b82525050565b6000602082019050611c706000830184611c4c565b92915050565b611c7f816119f9565b82525050565b6000602082019050611c9a6000830184611c76565b92915050565b600080600060608486031215611cb957611cb86119d4565b5b6000611cc786828701611a22565b9350506020611cd886828701611a22565b9250506040611ce986828701611b04565b9150509250925092565b7f4e487b7100000000000000000000000000000000000000000000000000000000600052603260045260246000fd5b7f4e487b7100000000000000000000000000000000000000000000000000000000600052601160045260246000fd5b6000611d5c82611a64565b9150611d6783611a64565b9250827fffffffffffffffffffffffffffffffffffffffffffffffffffffffffffffffff03821115611d9c57611d9b611d22565b5b828201905092915050565b600082825260208201905092915050565b7f4f776e61626c653a2063616c6c6572206973206e6f7420746865206f776e6572600082015250565b6000611dee602083611da7565b9150611df982611db8565b602082019050919050565b60006020820190508181036000830152611e1d81611de1565b9050919050565b7f5468697320706f6f6c20616c7265616479206578697374732e00000000000000600082015250565b6000611e5a601983611da7565b9150611e6582611e24565b602082019050919050565b60006020820190508181036000830152611e8981611e4d565b9050919050565b7f5061757361626c653a2070617573656400000000000000000000000000000000600082015250565b6000611ec6601083611da7565b9150611ed182611e90565b602082019050919050565b60006020820190508181036000830152611ef581611eb9565b9050919050565b7f416d6f756e742030000000000000000000000000000000000000000000000000600082015250565b6000611f32600883611da7565b9150611f3d82611efc565b602082019050919050565b60006020820190508181036000830152611f6181611f25565b9050919050565b7f57697468647261776e20616d6f756e742065786365656420746865207573657260008201527f2062616c616e6365000000000000000000000000000000000000000000000000602082015250565b6000611fc4602883611da7565b9150611fcf82611f68565b604082019050919050565b60006020820190508181036000830152611ff381611fb7565b9050919050565b600061200582611a64565b915061201083611a64565b92508282101561202357612022611d22565b5b828203905092915050565b61203781611a64565b82525050565b60006060820190506120526000830186611c76565b61205f6020830185611c76565b61206c604083018461202e565b949350505050565b7f6e6f206d6174696320746f207769746864726177000000000000000000000000600082015250565b60006120aa601483611da7565b91506120b582612074565b602082019050919050565b600060208201905081810360008301526120d98161209d565b9050919050565b60006040820190506120f56000830185611c76565b612102602083018461202e565b9392505050565b7f4f776e61626c653a206e6577206f776e657220697320746865207a65726f206160008201527f6464726573730000000000000000000000000000000000000000000000000000602082015250565b6000612165602683611da7565b915061217082612109565b604082019050919050565b6000602082019050818103600083015261219481612158565b9050919050565b6121a481611c40565b81146121af57600080fd5b50565b6000815190506121c18161219b565b92915050565b6000602082840312156121dd576121dc6119d4565b5b60006121eb848285016121b2565b91505092915050565b7f5361666545524332303a204552433230206f7065726174696f6e20646964206e60008201527f6f74207375636365656400000000000000000000000000000000000000000000602082015250565b6000612250602a83611da7565b915061225b826121f4565b604082019050919050565b6000602082019050818103600083015261227f81612243565b9050919050565b7f416464726573733a20696e73756666696369656e742062616c616e636520666f60008201527f722063616c6c0000000000000000000000000000000000000000000000000000602082015250565b60006122e2602683611da7565b91506122ed82612286565b604082019050919050565b60006020820190508181036000830152612311816122d5565b9050919050565b7f416464726573733a2063616c6c20746f206e6f6e2d636f6e7472616374000000600082015250565b600061234e601d83611da7565b915061235982612318565b602082019050919050565b6000602082019050818103600083015261237d81612341565b9050919050565b600081519050919050565b600081905092915050565b60005b838110156123b857808201518184015260208101905061239d565b838111156123c7576000848401525b50505050565b60006123d882612384565b6123e2818561238f565b93506123f281856020860161239a565b80840191505092915050565b600061240a82846123cd565b915081905092915050565b600081519050919050565b6000601f19601f8301169050919050565b600061243c82612415565b6124468185611da7565b935061245681856020860161239a565b61245f81612420565b840191505092915050565b600060208201905081810360008301526124848184612431565b90509291505056fea2646970667358221220c8201221c08be1b116ec6ee7caa1ec515c424428f3d66a3bbaaa4d2a7d5f83bf64736f6c634300080b0033",
  "linkReferences": {},
  "deployedLinkReferences": {}
}