{
  "_format": "hh-sol-artifact-1",
  "contractName": "Vault",
  "sourceName": "contracts/vault/Vault.sol",
  "abi": [
    {
      "inputs": [],
      "stateMutability": "nonpayable",
      "type": "constructor"
    },
    {
      "anonymous": false,
      "inputs": [
        {
          "indexed": false,
          "internalType": "address",
          "name": "user",
          "type": "address"
        },
        {
          "indexed": false,
          "internalType": "address",
          "name": "token",
          "type": "address"
        },
        {
          "indexed": false,
          "internalType": "uint256",
          "name": "amount",
          "type": "uint256"
        }
      ],
      "name": "Deposit",
      "type": "event"
    },
    {
      "anonymous": false,
      "inputs": [
        {
          "indexed": false,
          "internalType": "address",
          "name": "account",
          "type": "address"
        }
      ],
      "name": "Paused",
      "type": "event"
    },
    {
      "anonymous": false,
      "inputs": [
        {
          "indexed": true,
          "internalType": "bytes32",
          "name": "role",
          "type": "bytes32"
        },
        {
          "indexed": true,
          "internalType": "bytes32",
          "name": "previousAdminRole",
          "type": "bytes32"
        },
        {
          "indexed": true,
          "internalType": "bytes32",
          "name": "newAdminRole",
          "type": "bytes32"
        }
      ],
      "name": "RoleAdminChanged",
      "type": "event"
    },
    {
      "anonymous": false,
      "inputs": [
        {
          "indexed": true,
          "internalType": "bytes32",
          "name": "role",
          "type": "bytes32"
        },
        {
          "indexed": true,
          "internalType": "address",
          "name": "account",
          "type": "address"
        },
        {
          "indexed": true,
          "internalType": "address",
          "name": "sender",
          "type": "address"
        }
      ],
      "name": "RoleGranted",
      "type": "event"
    },
    {
      "anonymous": false,
      "inputs": [
        {
          "indexed": true,
          "internalType": "bytes32",
          "name": "role",
          "type": "bytes32"
        },
        {
          "indexed": true,
          "internalType": "address",
          "name": "account",
          "type": "address"
        },
        {
          "indexed": true,
          "internalType": "address",
          "name": "sender",
          "type": "address"
        }
      ],
      "name": "RoleRevoked",
      "type": "event"
    },
    {
      "anonymous": false,
      "inputs": [
        {
          "indexed": false,
          "internalType": "address",
          "name": "account",
          "type": "address"
        }
      ],
      "name": "Unpaused",
      "type": "event"
    },
    {
      "anonymous": false,
      "inputs": [
        {
          "indexed": false,
          "internalType": "address",
          "name": "user",
          "type": "address"
        },
        {
          "indexed": false,
          "internalType": "address",
          "name": "token",
          "type": "address"
        },
        {
          "indexed": false,
          "internalType": "uint256",
          "name": "amount",
          "type": "uint256"
        }
      ],
      "name": "Withdraw",
      "type": "event"
    },
    {
      "anonymous": false,
      "inputs": [
        {
          "indexed": false,
          "internalType": "address",
          "name": "destination",
          "type": "address"
        },
        {
          "indexed": false,
          "internalType": "uint256",
          "name": "amount",
          "type": "uint256"
        }
      ],
      "name": "WithdrawMATIC",
      "type": "event"
    },
    {
      "inputs": [],
      "name": "DEFAULT_ADMIN_ROLE",
      "outputs": [
        {
          "internalType": "bytes32",
          "name": "",
          "type": "bytes32"
        }
      ],
      "stateMutability": "view",
      "type": "function"
    },
    {
      "inputs": [],
      "name": "REWARDS",
      "outputs": [
        {
          "internalType": "bytes32",
          "name": "",
          "type": "bytes32"
        }
      ],
      "stateMutability": "view",
      "type": "function"
    },
    {
      "inputs": [
        {
          "internalType": "address",
          "name": "_token",
          "type": "address"
        },
        {
          "internalType": "uint256",
          "name": "_rewardsPerBlock",
          "type": "uint256"
        }
      ],
      "name": "addPool",
      "outputs": [],
      "stateMutability": "nonpayable",
      "type": "function"
    },
    {
      "inputs": [
        {
          "internalType": "address",
          "name": "_token",
          "type": "address"
        },
        {
          "internalType": "address",
          "name": "_user",
          "type": "address"
        },
        {
          "internalType": "uint256",
          "name": "_amount",
          "type": "uint256"
        }
      ],
      "name": "addStake",
      "outputs": [],
      "stateMutability": "nonpayable",
      "type": "function"
    },
    {
      "inputs": [
        {
          "internalType": "address",
          "name": "_token",
          "type": "address"
        },
        {
          "internalType": "address",
          "name": "_user",
          "type": "address"
        },
        {
          "internalType": "uint256",
          "name": "_amount",
          "type": "uint256"
        },
        {
          "internalType": "uint256",
          "name": "_rewardDebt",
          "type": "uint256"
        }
      ],
      "name": "addUserPosition",
      "outputs": [],
      "stateMutability": "nonpayable",
      "type": "function"
    },
    {
      "inputs": [
        {
          "internalType": "address",
          "name": "_token",
          "type": "address"
        }
      ],
      "name": "checkIfPoolExists",
      "outputs": [
        {
          "internalType": "bool",
          "name": "",
          "type": "bool"
        }
      ],
      "stateMutability": "view",
      "type": "function"
    },
    {
      "inputs": [
        {
          "internalType": "address",
          "name": "_token",
          "type": "address"
        }
      ],
      "name": "checkIfUserPositionExists",
      "outputs": [
        {
          "internalType": "bool",
          "name": "",
          "type": "bool"
        }
      ],
      "stateMutability": "view",
      "type": "function"
    },
    {
      "inputs": [
        {
          "internalType": "address",
          "name": "_token",
          "type": "address"
        },
        {
          "internalType": "address",
          "name": "_user",
          "type": "address"
        },
        {
          "internalType": "uint256",
          "name": "_amount",
          "type": "uint256"
        }
      ],
      "name": "deposit",
      "outputs": [],
      "stateMutability": "nonpayable",
      "type": "function"
    },
    {
      "inputs": [
        {
          "internalType": "address",
          "name": "_token",
          "type": "address"
        },
        {
          "internalType": "address",
          "name": "_user",
          "type": "address"
        }
      ],
      "name": "getLastStake",
      "outputs": [
        {
          "components": [
            {
              "internalType": "uint256",
              "name": "amount",
              "type": "uint256"
            },
            {
              "internalType": "uint256",
              "name": "startBlock",
              "type": "uint256"
            },
            {
              "internalType": "uint256",
              "name": "timeLockEnd",
              "type": "uint256"
            },
            {
              "internalType": "bool",
              "name": "active",
              "type": "bool"
            }
          ],
          "internalType": "struct Vault.Stake",
          "name": "",
          "type": "tuple"
        }
      ],
      "stateMutability": "view",
      "type": "function"
    },
    {
      "inputs": [
        {
          "internalType": "address",
          "name": "_token",
          "type": "address"
        },
        {
          "internalType": "address",
          "name": "_user",
          "type": "address"
        }
      ],
      "name": "getLastStakeKey",
      "outputs": [
        {
          "internalType": "uint256",
          "name": "",
          "type": "uint256"
        }
      ],
      "stateMutability": "view",
      "type": "function"
    },
    {
      "inputs": [
        {
          "internalType": "address",
          "name": "_token",
          "type": "address"
        }
      ],
      "name": "getPool",
      "outputs": [
        {
          "components": [
            {
              "internalType": "uint256",
              "name": "totalPooled",
              "type": "uint256"
            },
            {
              "internalType": "uint256",
              "name": "rewardsPerBlock",
              "type": "uint256"
            },
            {
              "internalType": "uint256",
              "name": "accCaplPerShare",
              "type": "uint256"
            },
            {
              "internalType": "uint256",
              "name": "lastRewardBlock",
              "type": "uint256"
            }
          ],
          "internalType": "struct Vault.Pool",
          "name": "",
          "type": "tuple"
        }
      ],
      "stateMutability": "view",
      "type": "function"
    },
    {
      "inputs": [
        {
          "internalType": "bytes32",
          "name": "role",
          "type": "bytes32"
        }
      ],
      "name": "getRoleAdmin",
      "outputs": [
        {
          "internalType": "bytes32",
          "name": "",
          "type": "bytes32"
        }
      ],
      "stateMutability": "view",
      "type": "function"
    },
    {
      "inputs": [
        {
          "internalType": "address",
          "name": "_token",
          "type": "address"
        }
      ],
      "name": "getTokenSupply",
      "outputs": [
        {
          "internalType": "uint256",
          "name": "",
          "type": "uint256"
        }
      ],
      "stateMutability": "view",
      "type": "function"
    },
    {
      "inputs": [
        {
          "internalType": "address",
          "name": "_token",
          "type": "address"
        },
        {
          "internalType": "address",
          "name": "_user",
          "type": "address"
        }
      ],
      "name": "getUnlockedAmount",
      "outputs": [
        {
          "internalType": "uint256",
          "name": "",
          "type": "uint256"
        }
      ],
      "stateMutability": "nonpayable",
      "type": "function"
    },
    {
      "inputs": [
        {
          "internalType": "address",
          "name": "_token",
          "type": "address"
        },
        {
          "internalType": "address",
          "name": "_user",
          "type": "address"
        }
      ],
      "name": "getUserPosition",
      "outputs": [
        {
          "components": [
            {
              "internalType": "uint256",
              "name": "totalAmount",
              "type": "uint256"
            },
            {
              "internalType": "uint256",
              "name": "rewardDebt",
              "type": "uint256"
            },
            {
              "internalType": "uint256",
              "name": "userLastWithdrawnStakeIndex",
              "type": "uint256"
            },
            {
              "internalType": "bool",
              "name": "staticLock",
              "type": "bool"
            },
            {
              "internalType": "bool",
              "name": "autocompounding",
              "type": "bool"
            },
            {
              "components": [
                {
                  "internalType": "uint256",
                  "name": "amount",
                  "type": "uint256"
                },
                {
                  "internalType": "uint256",
                  "name": "startBlock",
                  "type": "uint256"
                },
                {
                  "internalType": "uint256",
                  "name": "timeLockEnd",
                  "type": "uint256"
                },
                {
                  "internalType": "bool",
                  "name": "active",
                  "type": "bool"
                }
              ],
              "internalType": "struct Vault.Stake[]",
              "name": "stakes",
              "type": "tuple[]"
            }
          ],
          "internalType": "struct Vault.UserPosition",
          "name": "",
          "type": "tuple"
        }
      ],
      "stateMutability": "view",
      "type": "function"
    },
    {
      "inputs": [
        {
          "internalType": "bytes32",
          "name": "role",
          "type": "bytes32"
        },
        {
          "internalType": "address",
          "name": "account",
          "type": "address"
        }
      ],
      "name": "grantRole",
      "outputs": [],
      "stateMutability": "nonpayable",
      "type": "function"
    },
    {
      "inputs": [
        {
          "internalType": "bytes32",
          "name": "role",
          "type": "bytes32"
        },
        {
          "internalType": "address",
          "name": "account",
          "type": "address"
        }
      ],
      "name": "hasRole",
      "outputs": [
        {
          "internalType": "bool",
          "name": "",
          "type": "bool"
        }
      ],
      "stateMutability": "view",
      "type": "function"
    },
    {
      "inputs": [],
      "name": "paused",
      "outputs": [
        {
          "internalType": "bool",
          "name": "",
          "type": "bool"
        }
      ],
      "stateMutability": "view",
      "type": "function"
    },
    {
      "inputs": [
        {
          "internalType": "bytes32",
          "name": "role",
          "type": "bytes32"
        },
        {
          "internalType": "address",
          "name": "account",
          "type": "address"
        }
      ],
      "name": "renounceRole",
      "outputs": [],
      "stateMutability": "nonpayable",
      "type": "function"
    },
    {
      "inputs": [
        {
          "internalType": "bytes32",
          "name": "role",
          "type": "bytes32"
        },
        {
          "internalType": "address",
          "name": "account",
          "type": "address"
        }
      ],
      "name": "revokeRole",
      "outputs": [],
      "stateMutability": "nonpayable",
      "type": "function"
    },
    {
      "inputs": [
        {
          "internalType": "address",
          "name": "_token",
          "type": "address"
        },
        {
          "internalType": "uint256",
          "name": "_accCaplPerShare",
          "type": "uint256"
        },
        {
          "internalType": "uint256",
          "name": "_lastRewardBlock",
          "type": "uint256"
        }
      ],
      "name": "setPool",
      "outputs": [
        {
          "components": [
            {
              "internalType": "uint256",
              "name": "totalPooled",
              "type": "uint256"
            },
            {
              "internalType": "uint256",
              "name": "rewardsPerBlock",
              "type": "uint256"
            },
            {
              "internalType": "uint256",
              "name": "accCaplPerShare",
              "type": "uint256"
            },
            {
              "internalType": "uint256",
              "name": "lastRewardBlock",
              "type": "uint256"
            }
          ],
          "internalType": "struct Vault.Pool",
          "name": "",
          "type": "tuple"
        }
      ],
      "stateMutability": "nonpayable",
      "type": "function"
    },
    {
      "inputs": [
        {
          "internalType": "address",
          "name": "_token",
          "type": "address"
        },
        {
          "internalType": "address",
          "name": "_user",
          "type": "address"
        },
        {
          "internalType": "uint256",
          "name": "_amount",
          "type": "uint256"
        },
        {
          "internalType": "uint256",
          "name": "_stakeId",
          "type": "uint256"
        }
      ],
      "name": "setStake",
      "outputs": [],
      "stateMutability": "nonpayable",
      "type": "function"
    },
    {
      "inputs": [
        {
          "internalType": "address",
          "name": "_token",
          "type": "address"
        },
        {
          "internalType": "address",
          "name": "_user",
          "type": "address"
        },
        {
          "internalType": "uint256",
          "name": "rewardDebt",
          "type": "uint256"
        }
      ],
      "name": "setUserDebt",
      "outputs": [],
      "stateMutability": "nonpayable",
      "type": "function"
    },
    {
      "inputs": [
        {
          "internalType": "address",
          "name": "_token",
          "type": "address"
        },
        {
          "internalType": "address",
          "name": "_user",
          "type": "address"
        },
        {
          "internalType": "uint256",
          "name": "_amount",
          "type": "uint256"
        },
        {
          "internalType": "uint256",
          "name": "_rewardDebt",
          "type": "uint256"
        }
      ],
      "name": "setUserPosition",
      "outputs": [],
      "stateMutability": "nonpayable",
      "type": "function"
    },
    {
      "inputs": [
        {
          "internalType": "bytes4",
          "name": "interfaceId",
          "type": "bytes4"
        }
      ],
      "name": "supportsInterface",
      "outputs": [
        {
          "internalType": "bool",
          "name": "",
          "type": "bool"
        }
      ],
      "stateMutability": "view",
      "type": "function"
    },
    {
      "inputs": [
        {
          "internalType": "address",
          "name": "_token",
          "type": "address"
        },
        {
          "internalType": "uint256",
          "name": "_accCaplPerShare",
          "type": "uint256"
        },
        {
          "internalType": "uint256",
          "name": "_lastRewardBlock",
          "type": "uint256"
        }
      ],
      "name": "updatePool",
      "outputs": [
        {
          "components": [
            {
              "internalType": "uint256",
              "name": "totalPooled",
              "type": "uint256"
            },
            {
              "internalType": "uint256",
              "name": "rewardsPerBlock",
              "type": "uint256"
            },
            {
              "internalType": "uint256",
              "name": "accCaplPerShare",
              "type": "uint256"
            },
            {
              "internalType": "uint256",
              "name": "lastRewardBlock",
              "type": "uint256"
            }
          ],
          "internalType": "struct Vault.Pool",
          "name": "",
          "type": "tuple"
        }
      ],
      "stateMutability": "nonpayable",
      "type": "function"
    },
    {
      "inputs": [
        {
          "internalType": "address",
          "name": "_token",
          "type": "address"
        },
        {
          "internalType": "address",
          "name": "_user",
          "type": "address"
        },
        {
          "internalType": "uint256",
          "name": "_amount",
          "type": "uint256"
        },
        {
          "internalType": "uint256",
          "name": "_newRewardDebt",
          "type": "uint256"
        }
      ],
      "name": "withdraw",
      "outputs": [],
      "stateMutability": "nonpayable",
      "type": "function"
    },
    {
      "inputs": [],
      "name": "withdrawMATIC",
      "outputs": [],
      "stateMutability": "payable",
      "type": "function"
    },
    {
      "inputs": [
        {
          "internalType": "address",
          "name": "_token",
          "type": "address"
        },
        {
          "internalType": "uint256",
          "name": "_amount",
          "type": "uint256"
        },
        {
          "internalType": "address",
          "name": "_destination",
          "type": "address"
        }
      ],
      "name": "withdrawToken",
      "outputs": [],
      "stateMutability": "nonpayable",
      "type": "function"
    }
  ],
  "bytecode": "0x608060405263082bdcb46002553480156200001957600080fd5b506000600160006101000a81548160ff0219169083151502179055506200004a6000801b336200008260201b60201c565b6200007c7f41a998b42530cff8f40cf375b6a586aeb2b2a8285995d3b4fb404116be349d78336200009860201b60201c565b620001fb565b6200009482826200009860201b60201c565b5050565b620000aa82826200018960201b60201c565b6200018557600160008084815260200190815260200160002060000160008373ffffffffffffffffffffffffffffffffffffffff1673ffffffffffffffffffffffffffffffffffffffff16815260200190815260200160002060006101000a81548160ff0219169083151502179055506200012a620001f360201b60201c565b73ffffffffffffffffffffffffffffffffffffffff168173ffffffffffffffffffffffffffffffffffffffff16837f2f8788117e7eff1d82e926ec794901d17c78024a50270940304540a733656f0d60405160405180910390a45b5050565b600080600084815260200190815260200160002060000160008373ffffffffffffffffffffffffffffffffffffffff1673ffffffffffffffffffffffffffffffffffffffff16815260200190815260200160002060009054906101000a900460ff16905092915050565b600033905090565b613d11806200020b6000396000f3fe6080604052600436106101c25760003560e01c80638340f549116100f7578063bbe4f6db11610095578063d99f666811610064578063d99f6668146106be578063dfc2d1ba146106c8578063f2866c78146106f1578063f5b5d2371461072e576101c2565b8063bbe4f6db14610604578063c0034e0c14610641578063d2456a951461066c578063d547741f14610695576101c2565b806392a576e6116100d157806392a576e6146105225780639338b7c91461055f578063999126d71461059c578063a217fddf146105d9576101c2565b80638340f549146104935780638a5bff6b146104bc57806391d14854146104e5576101c2565b806336568abe1161016457806356e45e4b1161013e57806356e45e4b146103c55780635c975abb14610402578063695c0bb81461042d5780637bfe950c1461046a576101c2565b806336568abe146103365780633ccdbb281461035f5780633dff45e914610388576101c2565b80631b2aa575116101a05780631b2aa5751461027e578063248a9ca3146102a75780632f2ff15d146102e457806332a9caba1461030d576101c2565b80630122a7e8146101c757806301ffc9a71461020457806312229f1314610241575b600080fd5b3480156101d357600080fd5b506101ee60048036038101906101e99190612b61565b610757565b6040516101fb9190612bba565b60405180910390f35b34801561021057600080fd5b5061022b60048036038101906102269190612c2d565b6109cc565b6040516102389190612c75565b60405180910390f35b34801561024d57600080fd5b5061026860048036038101906102639190612b61565b610a46565b6040516102759190612bba565b60405180910390f35b34801561028a57600080fd5b506102a560048036038101906102a09190612cbc565b610b12565b005b3480156102b357600080fd5b506102ce60048036038101906102c99190612d59565b610c0a565b6040516102db9190612d95565b60405180910390f35b3480156102f057600080fd5b5061030b60048036038101906103069190612db0565b610c29565b005b34801561031957600080fd5b50610334600480360381019061032f9190612df0565b610c52565b005b34801561034257600080fd5b5061035d60048036038101906103589190612db0565b610d48565b005b34801561036b57600080fd5b5061038660048036038101906103819190612e30565b610dcb565b005b34801561039457600080fd5b506103af60048036038101906103aa9190612e83565b610e8f565b6040516103bc9190612f3a565b60405180910390f35b3480156103d157600080fd5b506103ec60048036038101906103e79190612f55565b61101b565b6040516103f99190612c75565b60405180910390f35b34801561040e57600080fd5b506104176110a6565b6040516104249190612c75565b60405180910390f35b34801561043957600080fd5b50610454600480360381019061044f9190612e83565b6110bd565b6040516104619190612f3a565b60405180910390f35b34801561047657600080fd5b50610491600480360381019061048c9190612cbc565b6111ce565b005b34801561049f57600080fd5b506104ba60048036038101906104b59190612f82565b61153a565b005b3480156104c857600080fd5b506104e360048036038101906104de9190612f82565b6115f7565b005b3480156104f157600080fd5b5061050c60048036038101906105079190612db0565b6116b3565b6040516105199190612c75565b60405180910390f35b34801561052e57600080fd5b5061054960048036038101906105449190612b61565b61171d565b6040516105569190613171565b60405180910390f35b34801561056b57600080fd5b5061058660048036038101906105819190612b61565b6118d3565b60405161059391906131e8565b60405180910390f35b3480156105a857600080fd5b506105c360048036038101906105be9190612f55565b611b88565b6040516105d09190612c75565b60405180910390f35b3480156105e557600080fd5b506105ee611bd6565b6040516105fb9190612d95565b60405180910390f35b34801561061057600080fd5b5061062b60048036038101906106269190612f55565b611bdd565b6040516106389190612f3a565b60405180910390f35b34801561064d57600080fd5b50610656611ca6565b6040516106639190612d95565b60405180910390f35b34801561067857600080fd5b50610693600480360381019061068e9190612cbc565b611cca565b005b3480156106a157600080fd5b506106bc60048036038101906106b79190612db0565b611e0b565b005b6106c6611e34565b005b3480156106d457600080fd5b506106ef60048036038101906106ea9190612f82565b611f15565b005b3480156106fd57600080fd5b5061071860048036038101906107139190612f55565b612039565b6040516107259190612bba565b60405180910390f35b34801561073a57600080fd5b5061075560048036038101906107509190612cbc565b6120bc565b005b60007f41a998b42530cff8f40cf375b6a586aeb2b2a8285995d3b4fb404116be349d7861078b81610786612270565b612278565b6000600460008573ffffffffffffffffffffffffffffffffffffffff1673ffffffffffffffffffffffffffffffffffffffff16815260200190815260200160002060008673ffffffffffffffffffffffffffffffffffffffff1673ffffffffffffffffffffffffffffffffffffffff16815260200190815260200160002090506000600460008673ffffffffffffffffffffffffffffffffffffffff1673ffffffffffffffffffffffffffffffffffffffff16815260200190815260200160002060008773ffffffffffffffffffffffffffffffffffffffff1673ffffffffffffffffffffffffffffffffffffffff168152602001908152602001600020600401805480602002602001604051908101604052809291908181526020016000905b8282101561091757838290600052602060002090600402016040518060800160405290816000820154815260200160018201548152602001600282015481526020016003820160009054906101000a900460ff161515151581525050815260200190600101906108ac565b5050505090506000815114610931576000935050506109c5565b60008080846002015490505b83518110156109b3574284828151811061095a57610959613203565b5b6020026020010151604001511115610974578091506109b3565b83818151811061098757610986613203565b5b6020026020010151600001518361099e9190613261565b925080806109ab906132b7565b91505061093d565b50808460020181905550819550505050505b5092915050565b60007f7965db0b000000000000000000000000000000000000000000000000000000007bffffffffffffffffffffffffffffffffffffffffffffffffffffffff1916827bffffffffffffffffffffffffffffffffffffffffffffffffffffffff19161480610a3f5750610a3e82612315565b5b9050919050565b60007f41a998b42530cff8f40cf375b6a586aeb2b2a8285995d3b4fb404116be349d78610a7a81610a75612270565b612278565b6001600460008573ffffffffffffffffffffffffffffffffffffffff1673ffffffffffffffffffffffffffffffffffffffff16815260200190815260200160002060008673ffffffffffffffffffffffffffffffffffffffff1673ffffffffffffffffffffffffffffffffffffffff16815260200190815260200160002060040180549050610b099190613300565b91505092915050565b7f41a998b42530cff8f40cf375b6a586aeb2b2a8285995d3b4fb404116be349d78610b4481610b3f612270565b612278565b6000600460008673ffffffffffffffffffffffffffffffffffffffff1673ffffffffffffffffffffffffffffffffffffffff16815260200190815260200160002060008773ffffffffffffffffffffffffffffffffffffffff1673ffffffffffffffffffffffffffffffffffffffff1681526020019081526020016000206004018381548110610bd757610bd6613203565b5b9060005260206000209060040201905083816000016000828254610bfb9190613261565b92505081905550505050505050565b6000806000838152602001908152602001600020600101549050919050565b610c3282610c0a565b610c4381610c3e612270565b612278565b610c4d838361237f565b505050565b6000801b610c6781610c62612270565b612278565b610c7083611b88565b15610cb0576040517f08c379a0000000000000000000000000000000000000000000000000000000008152600401610ca790613391565b60405180910390fd5b60006040518060800160405280600081526020018481526020016000815260200143815250905080600560008673ffffffffffffffffffffffffffffffffffffffff1673ffffffffffffffffffffffffffffffffffffffff1681526020019081526020016000206000820151816000015560208201518160010155604082015181600201556060820151816003015590505050505050565b610d50612270565b73ffffffffffffffffffffffffffffffffffffffff168173ffffffffffffffffffffffffffffffffffffffff1614610dbd576040517f08c379a0000000000000000000000000000000000000000000000000000000008152600401610db490613423565b60405180910390fd5b610dc7828261245f565b5050565b6000801b610de081610ddb612270565b612278565b6000600560008673ffffffffffffffffffffffffffffffffffffffff1673ffffffffffffffffffffffffffffffffffffffff1681526020019081526020016000209050600084118015610e37575083816000015410155b610e4057600080fd5b610e6d3084868873ffffffffffffffffffffffffffffffffffffffff16612540909392919063ffffffff16565b83816000016000828254610e819190613300565b925050819055505050505050565b610e97612a72565b7f41a998b42530cff8f40cf375b6a586aeb2b2a8285995d3b4fb404116be349d78610ec981610ec4612270565b612278565b610ed285611b88565b610f11576040517f08c379a0000000000000000000000000000000000000000000000000000000008152600401610f089061348f565b60405180910390fd5b83600560008773ffffffffffffffffffffffffffffffffffffffff1673ffffffffffffffffffffffffffffffffffffffff1681526020019081526020016000206002018190555082600560008773ffffffffffffffffffffffffffffffffffffffff1673ffffffffffffffffffffffffffffffffffffffff16815260200190815260200160002060030181905550600560008673ffffffffffffffffffffffffffffffffffffffff1673ffffffffffffffffffffffffffffffffffffffff1681526020019081526020016000206040518060800160405290816000820154815260200160018201548152602001600282015481526020016003820154815250509150509392505050565b600080600460003373ffffffffffffffffffffffffffffffffffffffff1673ffffffffffffffffffffffffffffffffffffffff16815260200190815260200160002060008473ffffffffffffffffffffffffffffffffffffffff1673ffffffffffffffffffffffffffffffffffffffff16815260200190815260200160002060000154119050919050565b6000600160009054906101000a900460ff16905090565b6110c5612a72565b81600560008673ffffffffffffffffffffffffffffffffffffffff1673ffffffffffffffffffffffffffffffffffffffff1681526020019081526020016000206003018190555082600560008673ffffffffffffffffffffffffffffffffffffffff1673ffffffffffffffffffffffffffffffffffffffff16815260200190815260200160002060020181905550600560008573ffffffffffffffffffffffffffffffffffffffff1673ffffffffffffffffffffffffffffffffffffffff16815260200190815260200160002060405180608001604052908160008201548152602001600182015481526020016002820154815260200160038201548152505090509392505050565b6111d66110a6565b15611216576040517f08c379a000000000000000000000000000000000000000000000000000000000815260040161120d906134fb565b60405180910390fd5b7f41a998b42530cff8f40cf375b6a586aeb2b2a8285995d3b4fb404116be349d7861124881611243612270565b612278565b6000831161128b576040517f08c379a000000000000000000000000000000000000000000000000000000000815260040161128290613567565b60405180910390fd5b6000600460008673ffffffffffffffffffffffffffffffffffffffff1673ffffffffffffffffffffffffffffffffffffffff16815260200190815260200160002060008773ffffffffffffffffffffffffffffffffffffffff1673ffffffffffffffffffffffffffffffffffffffff168152602001908152602001600020905083816000015411611351576040517f08c379a0000000000000000000000000000000000000000000000000000000008152600401611348906135f9565b60405180910390fd5b838160000160008282546113659190613300565b925050819055508281600101819055506000600560008873ffffffffffffffffffffffffffffffffffffffff1673ffffffffffffffffffffffffffffffffffffffff1681526020019081526020016000209050848160000160008282546113cc9190613300565b925050819055506000600460008873ffffffffffffffffffffffffffffffffffffffff1673ffffffffffffffffffffffffffffffffffffffff16815260200190815260200160002060008973ffffffffffffffffffffffffffffffffffffffff1673ffffffffffffffffffffffffffffffffffffffff168152602001908152602001600020600401905060005b836002015481116114c75781818154811061147757611476613203565b5b9060005260206000209060040201600080820160009055600182016000905560028201600090556003820160006101000a81549060ff0219169055505080806114bf906132b7565b915050611459565b506114f53088888b73ffffffffffffffffffffffffffffffffffffffff16612540909392919063ffffffff16565b7f9b1bfa7fa9ee420a16e124f794c35ac9f90472acc99140eb2f6447c714cad8eb87898860405161152893929190613628565b60405180910390a15050505050505050565b6115426110a6565b15611582576040517f08c379a0000000000000000000000000000000000000000000000000000000008152600401611579906134fb565b60405180910390fd5b600081116115c5576040517f08c379a00000000000000000000000000000000000000000000000000000000081526004016115bc90613567565b60405180910390fd5b6115f28230838673ffffffffffffffffffffffffffffffffffffffff16612540909392919063ffffffff16565b505050565b7f41a998b42530cff8f40cf375b6a586aeb2b2a8285995d3b4fb404116be349d7861162981611624612270565b612278565b81600460008573ffffffffffffffffffffffffffffffffffffffff1673ffffffffffffffffffffffffffffffffffffffff16815260200190815260200160002060008673ffffffffffffffffffffffffffffffffffffffff1673ffffffffffffffffffffffffffffffffffffffff1681526020019081526020016000206001018190555050505050565b600080600084815260200190815260200160002060000160008373ffffffffffffffffffffffffffffffffffffffff1673ffffffffffffffffffffffffffffffffffffffff16815260200190815260200160002060009054906101000a900460ff16905092915050565b611725612a9a565b7f41a998b42530cff8f40cf375b6a586aeb2b2a8285995d3b4fb404116be349d7861175781611752612270565b612278565b600460008473ffffffffffffffffffffffffffffffffffffffff1673ffffffffffffffffffffffffffffffffffffffff16815260200190815260200160002060008573ffffffffffffffffffffffffffffffffffffffff1673ffffffffffffffffffffffffffffffffffffffff1681526020019081526020016000206040518060c00160405290816000820154815260200160018201548152602001600282015481526020016003820160009054906101000a900460ff161515151581526020016003820160019054906101000a900460ff1615151515815260200160048201805480602002602001604051908101604052809291908181526020016000905b828210156118c257838290600052602060002090600402016040518060800160405290816000820154815260200160018201548152602001600282015481526020016003820160009054906101000a900460ff16151515158152505081526020019060010190611857565b505050508152505091505092915050565b6118db612ad4565b7f41a998b42530cff8f40cf375b6a586aeb2b2a8285995d3b4fb404116be349d7861190d81611908612270565b612278565b6000600460008573ffffffffffffffffffffffffffffffffffffffff1673ffffffffffffffffffffffffffffffffffffffff16815260200190815260200160002060008673ffffffffffffffffffffffffffffffffffffffff1673ffffffffffffffffffffffffffffffffffffffff1681526020019081526020016000206040518060c00160405290816000820154815260200160018201548152602001600282015481526020016003820160009054906101000a900460ff161515151581526020016003820160019054906101000a900460ff1615151515815260200160048201805480602002602001604051908101604052809291908181526020016000905b82821015611a7a57838290600052602060002090600402016040518060800160405290816000820154815260200160018201548152602001600282015481526020016003820160009054906101000a900460ff16151515158152505081526020019060010190611a0f565b50505050815250509050600060018260a0015151611a989190613300565b9050600460008673ffffffffffffffffffffffffffffffffffffffff1673ffffffffffffffffffffffffffffffffffffffff16815260200190815260200160002060008773ffffffffffffffffffffffffffffffffffffffff1673ffffffffffffffffffffffffffffffffffffffff1681526020019081526020016000206004018181548110611b2b57611b2a613203565b5b90600052602060002090600402016040518060800160405290816000820154815260200160018201548152602001600282015481526020016003820160009054906101000a900460ff161515151581525050935050505092915050565b600080600560008473ffffffffffffffffffffffffffffffffffffffff1673ffffffffffffffffffffffffffffffffffffffff16815260200190815260200160002060010154119050919050565b6000801b81565b611be5612a72565b611bee82611b88565b611c2d576040517f08c379a0000000000000000000000000000000000000000000000000000000008152600401611c24906136ab565b60405180910390fd5b600560008373ffffffffffffffffffffffffffffffffffffffff1673ffffffffffffffffffffffffffffffffffffffff1681526020019081526020016000206040518060800160405290816000820154815260200160018201548152602001600282015481526020016003820154815250509050919050565b7f41a998b42530cff8f40cf375b6a586aeb2b2a8285995d3b4fb404116be349d7881565b7f41a998b42530cff8f40cf375b6a586aeb2b2a8285995d3b4fb404116be349d78611cfc81611cf7612270565b612278565b82600460008673ffffffffffffffffffffffffffffffffffffffff1673ffffffffffffffffffffffffffffffffffffffff16815260200190815260200160002060008773ffffffffffffffffffffffffffffffffffffffff1673ffffffffffffffffffffffffffffffffffffffff1681526020019081526020016000206000018190555081600460008673ffffffffffffffffffffffffffffffffffffffff1673ffffffffffffffffffffffffffffffffffffffff16815260200190815260200160002060008773ffffffffffffffffffffffffffffffffffffffff1673ffffffffffffffffffffffffffffffffffffffff168152602001908152602001600020600101819055505050505050565b611e1482610c0a565b611e2581611e20612270565b612278565b611e2f838361245f565b505050565b6000801b611e4981611e44612270565b612278565b60004711611e8c576040517f08c379a0000000000000000000000000000000000000000000000000000000008152600401611e8390613717565b60405180910390fd5b60004790503373ffffffffffffffffffffffffffffffffffffffff166108fc829081150290604051600060405180830381858888f19350505050158015611ed7573d6000803e3d6000fd5b507f43b2a2d6daf661162c8c435ac5820ea5b1e0046355c5faac17d06ecb4f60f1533382604051611f09929190613737565b60405180910390a15050565b6000604051806080016040528083815260200142815260200160025442611f3c9190613261565b8152602001600115158152509050600460008473ffffffffffffffffffffffffffffffffffffffff1673ffffffffffffffffffffffffffffffffffffffff16815260200190815260200160002060008573ffffffffffffffffffffffffffffffffffffffff1673ffffffffffffffffffffffffffffffffffffffff16815260200190815260200160002060040181908060018154018082558091505060019003906000526020600020906004020160009091909190915060008201518160000155602082015181600101556040820151816002015560608201518160030160006101000a81548160ff021916908315150217905550505050505050565b60008173ffffffffffffffffffffffffffffffffffffffff166370a08231306040518263ffffffff1660e01b81526004016120749190613760565b602060405180830381865afa158015612091573d6000803e3d6000fd5b505050506040513d601f19601f820116820180604052508101906120b59190613790565b9050919050565b7f41a998b42530cff8f40cf375b6a586aeb2b2a8285995d3b4fb404116be349d786120ee816120e9612270565b612278565b60006040518060800160405280858152602001428152602001600254426121159190613261565b81526020016001151581525090506000600460008773ffffffffffffffffffffffffffffffffffffffff1673ffffffffffffffffffffffffffffffffffffffff16815260200190815260200160002060008873ffffffffffffffffffffffffffffffffffffffff1673ffffffffffffffffffffffffffffffffffffffff16815260200190815260200160002090508481600001819055508381600101819055506000816002018190555060008160030160006101000a81548160ff02191690831515021790555060018160030160016101000a81548160ff0219169083151502179055508060040182908060018154018082558091505060019003906000526020600020906004020160009091909190915060008201518160000155602082015181600101556040820151816002015560608201518160030160006101000a81548160ff021916908315150217905550505050505050505050565b600033905090565b61228282826116b3565b612311576122a78173ffffffffffffffffffffffffffffffffffffffff1660146125c9565b6122b58360001c60206125c9565b6040516020016122c69291906138cf565b6040516020818303038152906040526040517f08c379a00000000000000000000000000000000000000000000000000000000081526004016123089190613953565b60405180910390fd5b5050565b60007f01ffc9a7000000000000000000000000000000000000000000000000000000007bffffffffffffffffffffffffffffffffffffffffffffffffffffffff1916827bffffffffffffffffffffffffffffffffffffffffffffffffffffffff1916149050919050565b61238982826116b3565b61245b57600160008084815260200190815260200160002060000160008373ffffffffffffffffffffffffffffffffffffffff1673ffffffffffffffffffffffffffffffffffffffff16815260200190815260200160002060006101000a81548160ff021916908315150217905550612400612270565b73ffffffffffffffffffffffffffffffffffffffff168173ffffffffffffffffffffffffffffffffffffffff16837f2f8788117e7eff1d82e926ec794901d17c78024a50270940304540a733656f0d60405160405180910390a45b5050565b61246982826116b3565b1561253c57600080600084815260200190815260200160002060000160008373ffffffffffffffffffffffffffffffffffffffff1673ffffffffffffffffffffffffffffffffffffffff16815260200190815260200160002060006101000a81548160ff0219169083151502179055506124e1612270565b73ffffffffffffffffffffffffffffffffffffffff168173ffffffffffffffffffffffffffffffffffffffff16837ff6391f5c32d9c69d2a47ea670b442974b53935d1edc7fd64eb21e047a839171b60405160405180910390a45b5050565b6125c3846323b872dd60e01b85858560405160240161256193929190613628565b604051602081830303815290604052907bffffffffffffffffffffffffffffffffffffffffffffffffffffffff19166020820180517bffffffffffffffffffffffffffffffffffffffffffffffffffffffff8381831617835250505050612805565b50505050565b6060600060028360026125dc9190613975565b6125e69190613261565b67ffffffffffffffff8111156125ff576125fe6139cf565b5b6040519080825280601f01601f1916602001820160405280156126315781602001600182028036833780820191505090505b5090507f30000000000000000000000000000000000000000000000000000000000000008160008151811061266957612668613203565b5b60200101907effffffffffffffffffffffffffffffffffffffffffffffffffffffffffffff1916908160001a9053507f7800000000000000000000000000000000000000000000000000000000000000816001815181106126cd576126cc613203565b5b60200101907effffffffffffffffffffffffffffffffffffffffffffffffffffffffffffff1916908160001a9053506000600184600261270d9190613975565b6127179190613261565b90505b60018111156127b7577f3031323334353637383961626364656600000000000000000000000000000000600f86166010811061275957612758613203565b5b1a60f81b8282815181106127705761276f613203565b5b60200101907effffffffffffffffffffffffffffffffffffffffffffffffffffffffffffff1916908160001a905350600485901c9450806127b0906139fe565b905061271a565b50600084146127fb576040517f08c379a00000000000000000000000000000000000000000000000000000000081526004016127f290613a74565b60405180910390fd5b8091505092915050565b6000612867826040518060400160405280602081526020017f5361666545524332303a206c6f772d6c6576656c2063616c6c206661696c65648152508573ffffffffffffffffffffffffffffffffffffffff166128cc9092919063ffffffff16565b90506000815111156128c757808060200190518101906128879190613ac0565b6128c6576040517f08c379a00000000000000000000000000000000000000000000000000000000081526004016128bd90613b5f565b60405180910390fd5b5b505050565b60606128db84846000856128e4565b90509392505050565b606082471015612929576040517f08c379a000000000000000000000000000000000000000000000000000000000815260040161292090613bf1565b60405180910390fd5b612932856129f8565b612971576040517f08c379a000000000000000000000000000000000000000000000000000000000815260040161296890613c5d565b60405180910390fd5b6000808673ffffffffffffffffffffffffffffffffffffffff16858760405161299a9190613cc4565b60006040518083038185875af1925050503d80600081146129d7576040519150601f19603f3d011682016040523d82523d6000602084013e6129dc565b606091505b50915091506129ec828286612a0b565b92505050949350505050565b600080823b905060008111915050919050565b60608315612a1b57829050612a6b565b600083511115612a2e5782518084602001fd5b816040517f08c379a0000000000000000000000000000000000000000000000000000000008152600401612a629190613953565b60405180910390fd5b9392505050565b6040518060800160405280600081526020016000815260200160008152602001600081525090565b6040518060c00160405280600081526020016000815260200160008152602001600015158152602001600015158152602001606081525090565b60405180608001604052806000815260200160008152602001600081526020016000151581525090565b600080fd5b600073ffffffffffffffffffffffffffffffffffffffff82169050919050565b6000612b2e82612b03565b9050919050565b612b3e81612b23565b8114612b4957600080fd5b50565b600081359050612b5b81612b35565b92915050565b60008060408385031215612b7857612b77612afe565b5b6000612b8685828601612b4c565b9250506020612b9785828601612b4c565b9150509250929050565b6000819050919050565b612bb481612ba1565b82525050565b6000602082019050612bcf6000830184612bab565b92915050565b60007fffffffff0000000000000000000000000000000000000000000000000000000082169050919050565b612c0a81612bd5565b8114612c1557600080fd5b50565b600081359050612c2781612c01565b92915050565b600060208284031215612c4357612c42612afe565b5b6000612c5184828501612c18565b91505092915050565b60008115159050919050565b612c6f81612c5a565b82525050565b6000602082019050612c8a6000830184612c66565b92915050565b612c9981612ba1565b8114612ca457600080fd5b50565b600081359050612cb681612c90565b92915050565b60008060008060808587031215612cd657612cd5612afe565b5b6000612ce487828801612b4c565b9450506020612cf587828801612b4c565b9350506040612d0687828801612ca7565b9250506060612d1787828801612ca7565b91505092959194509250565b6000819050919050565b612d3681612d23565b8114612d4157600080fd5b50565b600081359050612d5381612d2d565b92915050565b600060208284031215612d6f57612d6e612afe565b5b6000612d7d84828501612d44565b91505092915050565b612d8f81612d23565b82525050565b6000602082019050612daa6000830184612d86565b92915050565b60008060408385031215612dc757612dc6612afe565b5b6000612dd585828601612d44565b9250506020612de685828601612b4c565b9150509250929050565b60008060408385031215612e0757612e06612afe565b5b6000612e1585828601612b4c565b9250506020612e2685828601612ca7565b9150509250929050565b600080600060608486031215612e4957612e48612afe565b5b6000612e5786828701612b4c565b9350506020612e6886828701612ca7565b9250506040612e7986828701612b4c565b9150509250925092565b600080600060608486031215612e9c57612e9b612afe565b5b6000612eaa86828701612b4c565b9350506020612ebb86828701612ca7565b9250506040612ecc86828701612ca7565b9150509250925092565b612edf81612ba1565b82525050565b608082016000820151612efb6000850182612ed6565b506020820151612f0e6020850182612ed6565b506040820151612f216040850182612ed6565b506060820151612f346060850182612ed6565b50505050565b6000608082019050612f4f6000830184612ee5565b92915050565b600060208284031215612f6b57612f6a612afe565b5b6000612f7984828501612b4c565b91505092915050565b600080600060608486031215612f9b57612f9a612afe565b5b6000612fa986828701612b4c565b9350506020612fba86828701612b4c565b9250506040612fcb86828701612ca7565b9150509250925092565b612fde81612c5a565b82525050565b600081519050919050565b600082825260208201905092915050565b6000819050602082019050919050565b6080820160008201516130266000850182612ed6565b5060208201516130396020850182612ed6565b50604082015161304c6040850182612ed6565b50606082015161305f6060850182612fd5565b50505050565b60006130718383613010565b60808301905092915050565b6000602082019050919050565b600061309582612fe4565b61309f8185612fef565b93506130aa83613000565b8060005b838110156130db5781516130c28882613065565b97506130cd8361307d565b9250506001810190506130ae565b5085935050505092915050565b600060c0830160008301516131006000860182612ed6565b5060208301516131136020860182612ed6565b5060408301516131266040860182612ed6565b5060608301516131396060860182612fd5565b50608083015161314c6080860182612fd5565b5060a083015184820360a0860152613164828261308a565b9150508091505092915050565b6000602082019050818103600083015261318b81846130e8565b905092915050565b6080820160008201516131a96000850182612ed6565b5060208201516131bc6020850182612ed6565b5060408201516131cf6040850182612ed6565b5060608201516131e26060850182612fd5565b50505050565b60006080820190506131fd6000830184613193565b92915050565b7f4e487b7100000000000000000000000000000000000000000000000000000000600052603260045260246000fd5b7f4e487b7100000000000000000000000000000000000000000000000000000000600052601160045260246000fd5b600061326c82612ba1565b915061327783612ba1565b9250827fffffffffffffffffffffffffffffffffffffffffffffffffffffffffffffffff038211156132ac576132ab613232565b5b828201905092915050565b60006132c282612ba1565b91507fffffffffffffffffffffffffffffffffffffffffffffffffffffffffffffffff8214156132f5576132f4613232565b5b600182019050919050565b600061330b82612ba1565b915061331683612ba1565b92508282101561332957613328613232565b5b828203905092915050565b600082825260208201905092915050565b7f5468697320706f6f6c20616c7265616479206578697374732e00000000000000600082015250565b600061337b601983613334565b915061338682613345565b602082019050919050565b600060208201905081810360008301526133aa8161336e565b9050919050565b7f416363657373436f6e74726f6c3a2063616e206f6e6c792072656e6f756e636560008201527f20726f6c657320666f722073656c660000000000000000000000000000000000602082015250565b600061340d602f83613334565b9150613418826133b1565b604082019050919050565b6000602082019050818103600083015261343c81613400565b9050919050565b7f506f6f6c20646f6573206e6f7420657869737400000000000000000000000000600082015250565b6000613479601383613334565b915061348482613443565b602082019050919050565b600060208201905081810360008301526134a88161346c565b9050919050565b7f5061757361626c653a2070617573656400000000000000000000000000000000600082015250565b60006134e5601083613334565b91506134f0826134af565b602082019050919050565b60006020820190508181036000830152613514816134d8565b9050919050565b7f416d6f756e742030000000000000000000000000000000000000000000000000600082015250565b6000613551600883613334565b915061355c8261351b565b602082019050919050565b6000602082019050818103600083015261358081613544565b9050919050565b7f57697468647261776e20616d6f756e742065786365656420746865207573657260008201527f2062616c616e6365000000000000000000000000000000000000000000000000602082015250565b60006135e3602883613334565b91506135ee82613587565b604082019050919050565b60006020820190508181036000830152613612816135d6565b9050919050565b61362281612b23565b82525050565b600060608201905061363d6000830186613619565b61364a6020830185613619565b6136576040830184612bab565b949350505050565b7f54686520706f6f6c20646f6573206e6f74206578697374732e00000000000000600082015250565b6000613695601983613334565b91506136a08261365f565b602082019050919050565b600060208201905081810360008301526136c481613688565b9050919050565b7f6e6f206d6174696320746f207769746864726177000000000000000000000000600082015250565b6000613701601483613334565b915061370c826136cb565b602082019050919050565b60006020820190508181036000830152613730816136f4565b9050919050565b600060408201905061374c6000830185613619565b6137596020830184612bab565b9392505050565b60006020820190506137756000830184613619565b92915050565b60008151905061378a81612c90565b92915050565b6000602082840312156137a6576137a5612afe565b5b60006137b48482850161377b565b91505092915050565b600081905092915050565b7f416363657373436f6e74726f6c3a206163636f756e7420000000000000000000600082015250565b60006137fe6017836137bd565b9150613809826137c8565b601782019050919050565b600081519050919050565b60005b8381101561383d578082015181840152602081019050613822565b8381111561384c576000848401525b50505050565b600061385d82613814565b61386781856137bd565b935061387781856020860161381f565b80840191505092915050565b7f206973206d697373696e6720726f6c6520000000000000000000000000000000600082015250565b60006138b96011836137bd565b91506138c482613883565b601182019050919050565b60006138da826137f1565b91506138e68285613852565b91506138f1826138ac565b91506138fd8284613852565b91508190509392505050565b6000601f19601f8301169050919050565b600061392582613814565b61392f8185613334565b935061393f81856020860161381f565b61394881613909565b840191505092915050565b6000602082019050818103600083015261396d818461391a565b905092915050565b600061398082612ba1565b915061398b83612ba1565b9250817fffffffffffffffffffffffffffffffffffffffffffffffffffffffffffffffff04831182151516156139c4576139c3613232565b5b828202905092915050565b7f4e487b7100000000000000000000000000000000000000000000000000000000600052604160045260246000fd5b6000613a0982612ba1565b91506000821415613a1d57613a1c613232565b5b600182039050919050565b7f537472696e67733a20686578206c656e67746820696e73756666696369656e74600082015250565b6000613a5e602083613334565b9150613a6982613a28565b602082019050919050565b60006020820190508181036000830152613a8d81613a51565b9050919050565b613a9d81612c5a565b8114613aa857600080fd5b50565b600081519050613aba81613a94565b92915050565b600060208284031215613ad657613ad5612afe565b5b6000613ae484828501613aab565b91505092915050565b7f5361666545524332303a204552433230206f7065726174696f6e20646964206e60008201527f6f74207375636365656400000000000000000000000000000000000000000000602082015250565b6000613b49602a83613334565b9150613b5482613aed565b604082019050919050565b60006020820190508181036000830152613b7881613b3c565b9050919050565b7f416464726573733a20696e73756666696369656e742062616c616e636520666f60008201527f722063616c6c0000000000000000000000000000000000000000000000000000602082015250565b6000613bdb602683613334565b9150613be682613b7f565b604082019050919050565b60006020820190508181036000830152613c0a81613bce565b9050919050565b7f416464726573733a2063616c6c20746f206e6f6e2d636f6e7472616374000000600082015250565b6000613c47601d83613334565b9150613c5282613c11565b602082019050919050565b60006020820190508181036000830152613c7681613c3a565b9050919050565b600081519050919050565b600081905092915050565b6000613c9e82613c7d565b613ca88185613c88565b9350613cb881856020860161381f565b80840191505092915050565b6000613cd08284613c93565b91508190509291505056fea2646970667358221220622f15400270c83303e25876d3af9f3ef1a58906ecc24eccc5a96d92b431fd2564736f6c634300080b0033",
  "linkReferences": {},
  "deployedLinkReferences": {}
}