{
  "_format": "hh-sol-artifact-1",
  "contractName": "Vault",
  "sourceName": "contracts/vault/Vault.sol",
  "abi": [
    {
      "inputs": [],
      "stateMutability": "nonpayable",
      "type": "constructor"
    },
    {
      "anonymous": false,
      "inputs": [
        {
          "indexed": false,
          "internalType": "address",
          "name": "user",
          "type": "address"
        },
        {
          "indexed": false,
          "internalType": "address",
          "name": "token",
          "type": "address"
        },
        {
          "indexed": false,
          "internalType": "uint256",
          "name": "amount",
          "type": "uint256"
        }
      ],
      "name": "Deposit",
      "type": "event"
    },
    {
      "anonymous": false,
      "inputs": [
        {
          "indexed": false,
          "internalType": "address",
          "name": "account",
          "type": "address"
        }
      ],
      "name": "Paused",
      "type": "event"
    },
    {
      "anonymous": false,
      "inputs": [
        {
          "indexed": true,
          "internalType": "bytes32",
          "name": "role",
          "type": "bytes32"
        },
        {
          "indexed": true,
          "internalType": "bytes32",
          "name": "previousAdminRole",
          "type": "bytes32"
        },
        {
          "indexed": true,
          "internalType": "bytes32",
          "name": "newAdminRole",
          "type": "bytes32"
        }
      ],
      "name": "RoleAdminChanged",
      "type": "event"
    },
    {
      "anonymous": false,
      "inputs": [
        {
          "indexed": true,
          "internalType": "bytes32",
          "name": "role",
          "type": "bytes32"
        },
        {
          "indexed": true,
          "internalType": "address",
          "name": "account",
          "type": "address"
        },
        {
          "indexed": true,
          "internalType": "address",
          "name": "sender",
          "type": "address"
        }
      ],
      "name": "RoleGranted",
      "type": "event"
    },
    {
      "anonymous": false,
      "inputs": [
        {
          "indexed": true,
          "internalType": "bytes32",
          "name": "role",
          "type": "bytes32"
        },
        {
          "indexed": true,
          "internalType": "address",
          "name": "account",
          "type": "address"
        },
        {
          "indexed": true,
          "internalType": "address",
          "name": "sender",
          "type": "address"
        }
      ],
      "name": "RoleRevoked",
      "type": "event"
    },
    {
      "anonymous": false,
      "inputs": [
        {
          "indexed": false,
          "internalType": "address",
          "name": "account",
          "type": "address"
        }
      ],
      "name": "Unpaused",
      "type": "event"
    },
    {
      "anonymous": false,
      "inputs": [
        {
          "indexed": false,
          "internalType": "address",
          "name": "user",
          "type": "address"
        },
        {
          "indexed": false,
          "internalType": "address",
          "name": "token",
          "type": "address"
        },
        {
          "indexed": false,
          "internalType": "uint256",
          "name": "amount",
          "type": "uint256"
        }
      ],
      "name": "Withdraw",
      "type": "event"
    },
    {
      "anonymous": false,
      "inputs": [
        {
          "indexed": false,
          "internalType": "address",
          "name": "destination",
          "type": "address"
        },
        {
          "indexed": false,
          "internalType": "uint256",
          "name": "amount",
          "type": "uint256"
        }
      ],
      "name": "WithdrawMATIC",
      "type": "event"
    },
    {
      "inputs": [],
      "name": "DEFAULT_ADMIN_ROLE",
      "outputs": [
        {
          "internalType": "bytes32",
          "name": "",
          "type": "bytes32"
        }
      ],
      "stateMutability": "view",
      "type": "function"
    },
    {
      "inputs": [],
      "name": "REWARDS",
      "outputs": [
        {
          "internalType": "bytes32",
          "name": "",
          "type": "bytes32"
        }
      ],
      "stateMutability": "view",
      "type": "function"
    },
    {
      "inputs": [
        {
          "internalType": "address",
          "name": "_token",
          "type": "address"
        },
        {
          "internalType": "uint256",
          "name": "_rewardsPerBlock",
          "type": "uint256"
        }
      ],
      "name": "addPool",
      "outputs": [],
      "stateMutability": "nonpayable",
      "type": "function"
    },
    {
      "inputs": [
        {
          "internalType": "address",
          "name": "_token",
          "type": "address"
        },
        {
          "internalType": "address",
          "name": "_user",
          "type": "address"
        },
        {
          "internalType": "uint256",
          "name": "_amount",
          "type": "uint256"
        }
      ],
      "name": "addStake",
      "outputs": [],
      "stateMutability": "nonpayable",
      "type": "function"
    },
    {
      "inputs": [
        {
          "internalType": "address",
          "name": "_token",
          "type": "address"
        },
        {
          "internalType": "address",
          "name": "_user",
          "type": "address"
        },
        {
          "internalType": "uint256",
          "name": "_amount",
          "type": "uint256"
        },
        {
          "internalType": "uint256",
          "name": "_rewardDebt",
          "type": "uint256"
        }
      ],
      "name": "addUserPosition",
      "outputs": [],
      "stateMutability": "nonpayable",
      "type": "function"
    },
    {
      "inputs": [
        {
          "internalType": "address",
          "name": "_token",
          "type": "address"
        }
      ],
      "name": "checkIfPoolExists",
      "outputs": [
        {
          "internalType": "bool",
          "name": "",
          "type": "bool"
        }
      ],
      "stateMutability": "view",
      "type": "function"
    },
    {
      "inputs": [
        {
          "internalType": "address",
          "name": "_token",
          "type": "address"
        }
      ],
      "name": "checkIfUserPositionExists",
      "outputs": [
        {
          "internalType": "bool",
          "name": "",
          "type": "bool"
        }
      ],
      "stateMutability": "view",
      "type": "function"
    },
    {
      "inputs": [
        {
          "internalType": "address",
          "name": "_token",
          "type": "address"
        },
        {
          "internalType": "address",
          "name": "_user",
          "type": "address"
        },
        {
          "internalType": "uint256",
          "name": "_amount",
          "type": "uint256"
        }
      ],
      "name": "deposit",
      "outputs": [],
      "stateMutability": "nonpayable",
      "type": "function"
    },
    {
      "inputs": [
        {
          "internalType": "address",
          "name": "_token",
          "type": "address"
        },
        {
          "internalType": "address",
          "name": "_user",
          "type": "address"
        }
      ],
      "name": "getLastStake",
      "outputs": [
        {
          "components": [
            {
              "internalType": "uint256",
              "name": "amount",
              "type": "uint256"
            },
            {
              "internalType": "uint256",
              "name": "startBlock",
              "type": "uint256"
            },
            {
              "internalType": "uint256",
              "name": "timeLockEnd",
              "type": "uint256"
            },
            {
              "internalType": "bool",
              "name": "active",
              "type": "bool"
            }
          ],
          "internalType": "struct Vault.Stake",
          "name": "",
          "type": "tuple"
        }
      ],
      "stateMutability": "view",
      "type": "function"
    },
    {
      "inputs": [
        {
          "internalType": "address",
          "name": "_token",
          "type": "address"
        },
        {
          "internalType": "address",
          "name": "_user",
          "type": "address"
        }
      ],
      "name": "getLastStakeKey",
      "outputs": [
        {
          "internalType": "uint256",
          "name": "",
          "type": "uint256"
        }
      ],
      "stateMutability": "view",
      "type": "function"
    },
    {
      "inputs": [
        {
          "internalType": "address",
          "name": "_token",
          "type": "address"
        }
      ],
      "name": "getPool",
      "outputs": [
        {
          "components": [
            {
              "internalType": "uint256",
              "name": "totalPooled",
              "type": "uint256"
            },
            {
              "internalType": "uint256",
              "name": "rewardsPerBlock",
              "type": "uint256"
            },
            {
              "internalType": "uint256",
              "name": "accCaplPerShare",
              "type": "uint256"
            },
            {
              "internalType": "uint256",
              "name": "lastRewardBlock",
              "type": "uint256"
            }
          ],
          "internalType": "struct Vault.Pool",
          "name": "",
          "type": "tuple"
        }
      ],
      "stateMutability": "view",
      "type": "function"
    },
    {
      "inputs": [
        {
          "internalType": "bytes32",
          "name": "role",
          "type": "bytes32"
        }
      ],
      "name": "getRoleAdmin",
      "outputs": [
        {
          "internalType": "bytes32",
          "name": "",
          "type": "bytes32"
        }
      ],
      "stateMutability": "view",
      "type": "function"
    },
    {
      "inputs": [
        {
          "internalType": "address",
          "name": "_token",
          "type": "address"
        }
      ],
      "name": "getTokenSupply",
      "outputs": [
        {
          "internalType": "uint256",
          "name": "",
          "type": "uint256"
        }
      ],
      "stateMutability": "view",
      "type": "function"
    },
    {
      "inputs": [
        {
          "internalType": "address",
          "name": "_token",
          "type": "address"
        },
        {
          "internalType": "address",
          "name": "_user",
          "type": "address"
        }
      ],
      "name": "getUnlockedAmount",
      "outputs": [
        {
          "internalType": "uint256",
          "name": "",
          "type": "uint256"
        }
      ],
      "stateMutability": "nonpayable",
      "type": "function"
    },
    {
      "inputs": [
        {
          "internalType": "address",
          "name": "_token",
          "type": "address"
        },
        {
          "internalType": "address",
          "name": "_user",
          "type": "address"
        }
      ],
      "name": "getUserPosition",
      "outputs": [
        {
          "components": [
            {
              "internalType": "uint256",
              "name": "totalAmount",
              "type": "uint256"
            },
            {
              "internalType": "uint256",
              "name": "rewardDebt",
              "type": "uint256"
            },
            {
              "internalType": "uint256[]",
              "name": "sKey",
              "type": "uint256[]"
            },
            {
              "internalType": "bool",
              "name": "staticLock",
              "type": "bool"
            },
            {
              "internalType": "bool",
              "name": "autocompounding",
              "type": "bool"
            }
          ],
          "internalType": "struct Vault.UserPosition",
          "name": "",
          "type": "tuple"
        }
      ],
      "stateMutability": "view",
      "type": "function"
    },
    {
      "inputs": [
        {
          "internalType": "bytes32",
          "name": "role",
          "type": "bytes32"
        },
        {
          "internalType": "address",
          "name": "account",
          "type": "address"
        }
      ],
      "name": "grantRole",
      "outputs": [],
      "stateMutability": "nonpayable",
      "type": "function"
    },
    {
      "inputs": [
        {
          "internalType": "bytes32",
          "name": "role",
          "type": "bytes32"
        },
        {
          "internalType": "address",
          "name": "account",
          "type": "address"
        }
      ],
      "name": "hasRole",
      "outputs": [
        {
          "internalType": "bool",
          "name": "",
          "type": "bool"
        }
      ],
      "stateMutability": "view",
      "type": "function"
    },
    {
      "inputs": [],
      "name": "paused",
      "outputs": [
        {
          "internalType": "bool",
          "name": "",
          "type": "bool"
        }
      ],
      "stateMutability": "view",
      "type": "function"
    },
    {
      "inputs": [
        {
          "internalType": "bytes32",
          "name": "role",
          "type": "bytes32"
        },
        {
          "internalType": "address",
          "name": "account",
          "type": "address"
        }
      ],
      "name": "renounceRole",
      "outputs": [],
      "stateMutability": "nonpayable",
      "type": "function"
    },
    {
      "inputs": [
        {
          "internalType": "bytes32",
          "name": "role",
          "type": "bytes32"
        },
        {
          "internalType": "address",
          "name": "account",
          "type": "address"
        }
      ],
      "name": "revokeRole",
      "outputs": [],
      "stateMutability": "nonpayable",
      "type": "function"
    },
    {
      "inputs": [
        {
          "internalType": "address",
          "name": "_token",
          "type": "address"
        },
        {
          "internalType": "uint256",
          "name": "_accCaplPerShare",
          "type": "uint256"
        },
        {
          "internalType": "uint256",
          "name": "_lastRewardBlock",
          "type": "uint256"
        }
      ],
      "name": "setPool",
      "outputs": [
        {
          "components": [
            {
              "internalType": "uint256",
              "name": "totalPooled",
              "type": "uint256"
            },
            {
              "internalType": "uint256",
              "name": "rewardsPerBlock",
              "type": "uint256"
            },
            {
              "internalType": "uint256",
              "name": "accCaplPerShare",
              "type": "uint256"
            },
            {
              "internalType": "uint256",
              "name": "lastRewardBlock",
              "type": "uint256"
            }
          ],
          "internalType": "struct Vault.Pool",
          "name": "",
          "type": "tuple"
        }
      ],
      "stateMutability": "nonpayable",
      "type": "function"
    },
    {
      "inputs": [
        {
          "internalType": "address",
          "name": "_token",
          "type": "address"
        },
        {
          "internalType": "address",
          "name": "_user",
          "type": "address"
        },
        {
          "internalType": "uint256",
          "name": "_amount",
          "type": "uint256"
        },
        {
          "internalType": "uint256",
          "name": "_stakeId",
          "type": "uint256"
        }
      ],
      "name": "setStake",
      "outputs": [],
      "stateMutability": "nonpayable",
      "type": "function"
    },
    {
      "inputs": [
        {
          "internalType": "address",
          "name": "_token",
          "type": "address"
        },
        {
          "internalType": "address",
          "name": "_user",
          "type": "address"
        },
        {
          "internalType": "uint256",
          "name": "rewardDebt",
          "type": "uint256"
        }
      ],
      "name": "setUserDebt",
      "outputs": [],
      "stateMutability": "nonpayable",
      "type": "function"
    },
    {
      "inputs": [
        {
          "internalType": "address",
          "name": "_token",
          "type": "address"
        },
        {
          "internalType": "address",
          "name": "_user",
          "type": "address"
        },
        {
          "internalType": "uint256",
          "name": "_amount",
          "type": "uint256"
        },
        {
          "internalType": "uint256",
          "name": "_rewardDebt",
          "type": "uint256"
        }
      ],
      "name": "setUserPosition",
      "outputs": [],
      "stateMutability": "nonpayable",
      "type": "function"
    },
    {
      "inputs": [
        {
          "internalType": "bytes4",
          "name": "interfaceId",
          "type": "bytes4"
        }
      ],
      "name": "supportsInterface",
      "outputs": [
        {
          "internalType": "bool",
          "name": "",
          "type": "bool"
        }
      ],
      "stateMutability": "view",
      "type": "function"
    },
    {
      "inputs": [
        {
          "internalType": "address",
          "name": "_token",
          "type": "address"
        },
        {
          "internalType": "uint256",
          "name": "_accCaplPerShare",
          "type": "uint256"
        },
        {
          "internalType": "uint256",
          "name": "_lastRewardBlock",
          "type": "uint256"
        }
      ],
      "name": "updatePool",
      "outputs": [
        {
          "components": [
            {
              "internalType": "uint256",
              "name": "totalPooled",
              "type": "uint256"
            },
            {
              "internalType": "uint256",
              "name": "rewardsPerBlock",
              "type": "uint256"
            },
            {
              "internalType": "uint256",
              "name": "accCaplPerShare",
              "type": "uint256"
            },
            {
              "internalType": "uint256",
              "name": "lastRewardBlock",
              "type": "uint256"
            }
          ],
          "internalType": "struct Vault.Pool",
          "name": "",
          "type": "tuple"
        }
      ],
      "stateMutability": "nonpayable",
      "type": "function"
    },
    {
      "inputs": [
        {
          "internalType": "address",
          "name": "_token",
          "type": "address"
        },
        {
          "internalType": "address",
          "name": "_user",
          "type": "address"
        },
        {
          "internalType": "uint256",
          "name": "_amount",
          "type": "uint256"
        },
        {
          "internalType": "uint256",
          "name": "_newRewardDebt",
          "type": "uint256"
        }
      ],
      "name": "withdraw",
      "outputs": [],
      "stateMutability": "nonpayable",
      "type": "function"
    },
    {
      "inputs": [],
      "name": "withdrawMATIC",
      "outputs": [],
      "stateMutability": "payable",
      "type": "function"
    },
    {
      "inputs": [
        {
          "internalType": "address",
          "name": "_token",
          "type": "address"
        },
        {
          "internalType": "uint256",
          "name": "_amount",
          "type": "uint256"
        },
        {
          "internalType": "address",
          "name": "_destination",
          "type": "address"
        }
      ],
      "name": "withdrawToken",
      "outputs": [],
      "stateMutability": "nonpayable",
      "type": "function"
    }
  ],
  "bytecode": "0x608060405263082bdcb46002553480156200001957600080fd5b506000600160006101000a81548160ff0219169083151502179055506200004a6000801b336200008260201b60201c565b6200007c7f41a998b42530cff8f40cf375b6a586aeb2b2a8285995d3b4fb404116be349d78336200009860201b60201c565b620001fb565b6200009482826200009860201b60201c565b5050565b620000aa82826200018960201b60201c565b6200018557600160008084815260200190815260200160002060000160008373ffffffffffffffffffffffffffffffffffffffff1673ffffffffffffffffffffffffffffffffffffffff16815260200190815260200160002060006101000a81548160ff0219169083151502179055506200012a620001f360201b60201c565b73ffffffffffffffffffffffffffffffffffffffff168173ffffffffffffffffffffffffffffffffffffffff16837f2f8788117e7eff1d82e926ec794901d17c78024a50270940304540a733656f0d60405160405180910390a45b5050565b600080600084815260200190815260200160002060000160008373ffffffffffffffffffffffffffffffffffffffff1673ffffffffffffffffffffffffffffffffffffffff16815260200190815260200160002060009054906101000a900460ff16905092915050565b600033905090565b614005806200020b6000396000f3fe6080604052600436106101c25760003560e01c80638340f549116100f7578063bbe4f6db11610095578063d99f666811610064578063d99f6668146106be578063dfc2d1ba146106c8578063f2866c78146106f1578063f5b5d2371461072e576101c2565b8063bbe4f6db14610604578063c0034e0c14610641578063d2456a951461066c578063d547741f14610695576101c2565b806392a576e6116100d157806392a576e6146105225780639338b7c91461055f578063999126d71461059c578063a217fddf146105d9576101c2565b80638340f549146104935780638a5bff6b146104bc57806391d14854146104e5576101c2565b806336568abe1161016457806356e45e4b1161013e57806356e45e4b146103c55780635c975abb14610402578063695c0bb81461042d5780637bfe950c1461046a576101c2565b806336568abe146103365780633ccdbb281461035f5780633dff45e914610388576101c2565b80631b2aa575116101a05780631b2aa5751461027e578063248a9ca3146102a75780632f2ff15d146102e457806332a9caba1461030d576101c2565b80630122a7e8146101c757806301ffc9a71461020457806312229f1314610241575b600080fd5b3480156101d357600080fd5b506101ee60048036038101906101e99190612ebd565b610757565b6040516101fb9190612f16565b60405180910390f35b34801561021057600080fd5b5061022b60048036038101906102269190612f89565b610a37565b6040516102389190612fd1565b60405180910390f35b34801561024d57600080fd5b5061026860048036038101906102639190612ebd565b610ab1565b6040516102759190612f16565b60405180910390f35b34801561028a57600080fd5b506102a560048036038101906102a09190613018565b610b7d565b005b3480156102b357600080fd5b506102ce60048036038101906102c991906130b5565b610c72565b6040516102db91906130f1565b60405180910390f35b3480156102f057600080fd5b5061030b6004803603810190610306919061310c565b610c91565b005b34801561031957600080fd5b50610334600480360381019061032f919061314c565b610cba565b005b34801561034257600080fd5b5061035d6004803603810190610358919061310c565b610db0565b005b34801561036b57600080fd5b506103866004803603810190610381919061318c565b610e33565b005b34801561039457600080fd5b506103af60048036038101906103aa91906131df565b610ef7565b6040516103bc9190613296565b60405180910390f35b3480156103d157600080fd5b506103ec60048036038101906103e791906132b1565b611083565b6040516103f99190612fd1565b60405180910390f35b34801561040e57600080fd5b5061041761110e565b6040516104249190612fd1565b60405180910390f35b34801561043957600080fd5b50610454600480360381019061044f91906131df565b611125565b6040516104619190613296565b60405180910390f35b34801561047657600080fd5b50610491600480360381019061048c9190613018565b611236565b005b34801561049f57600080fd5b506104ba60048036038101906104b591906132de565b6114bc565b005b3480156104c857600080fd5b506104e360048036038101906104de91906132de565b61194f565b005b3480156104f157600080fd5b5061050c6004803603810190610507919061310c565b611a0b565b6040516105199190612fd1565b60405180910390f35b34801561052e57600080fd5b5061054960048036038101906105449190612ebd565b611a75565b6040516105569190613465565b60405180910390f35b34801561056b57600080fd5b5061058660048036038101906105819190612ebd565b611be1565b60405161059391906134dc565b60405180910390f35b3480156105a857600080fd5b506105c360048036038101906105be91906132b1565b611e49565b6040516105d09190612fd1565b60405180910390f35b3480156105e557600080fd5b506105ee611e97565b6040516105fb91906130f1565b60405180910390f35b34801561061057600080fd5b5061062b600480360381019061062691906132b1565b611e9e565b6040516106389190613296565b60405180910390f35b34801561064d57600080fd5b50610656611f67565b60405161066391906130f1565b60405180910390f35b34801561067857600080fd5b50610693600480360381019061068e9190613018565b611f8b565b005b3480156106a157600080fd5b506106bc60048036038101906106b7919061310c565b6120cc565b005b6106c66120f5565b005b3480156106d457600080fd5b506106ef60048036038101906106ea91906132de565b6121d6565b005b3480156106fd57600080fd5b50610718600480360381019061071391906132b1565b6122f7565b6040516107259190612f16565b60405180910390f35b34801561073a57600080fd5b5061075560048036038101906107509190613018565b61237a565b005b60007f41a998b42530cff8f40cf375b6a586aeb2b2a8285995d3b4fb404116be349d7861078b816107866124d3565b6124db565b6000600460008573ffffffffffffffffffffffffffffffffffffffff1673ffffffffffffffffffffffffffffffffffffffff16815260200190815260200160002060008673ffffffffffffffffffffffffffffffffffffffff1673ffffffffffffffffffffffffffffffffffffffff168152602001908152602001600020805480602002602001604051908101604052809291908181526020016000905b8282101561089457838290600052602060002090600402016040518060800160405290816000820154815260200160018201548152602001600282015481526020016003820160009054906101000a900460ff16151515158152505081526020019060010190610829565b50505050905060008151146108ad576000925050610a30565b60008080600660008873ffffffffffffffffffffffffffffffffffffffff1673ffffffffffffffffffffffffffffffffffffffff16815260200190815260200160002060008973ffffffffffffffffffffffffffffffffffffffff1673ffffffffffffffffffffffffffffffffffffffff1681526020019081526020016000205490505b83518110156109a7574284828151811061094e5761094d6134f7565b5b6020026020010151604001511115610968578091506109a7565b83818151811061097b5761097a6134f7565b5b602002602001015160000151836109929190613555565b9250808061099f906135ab565b915050610931565b5080600660008873ffffffffffffffffffffffffffffffffffffffff1673ffffffffffffffffffffffffffffffffffffffff16815260200190815260200160002060008973ffffffffffffffffffffffffffffffffffffffff1673ffffffffffffffffffffffffffffffffffffffff168152602001908152602001600020819055508194505050505b5092915050565b60007f7965db0b000000000000000000000000000000000000000000000000000000007bffffffffffffffffffffffffffffffffffffffffffffffffffffffff1916827bffffffffffffffffffffffffffffffffffffffffffffffffffffffff19161480610aaa5750610aa982612578565b5b9050919050565b60007f41a998b42530cff8f40cf375b6a586aeb2b2a8285995d3b4fb404116be349d78610ae581610ae06124d3565b6124db565b6001600560008573ffffffffffffffffffffffffffffffffffffffff1673ffffffffffffffffffffffffffffffffffffffff16815260200190815260200160002060008673ffffffffffffffffffffffffffffffffffffffff1673ffffffffffffffffffffffffffffffffffffffff16815260200190815260200160002060020180549050610b7491906135f4565b91505092915050565b7f41a998b42530cff8f40cf375b6a586aeb2b2a8285995d3b4fb404116be349d78610baf81610baa6124d3565b6124db565b6000600460008673ffffffffffffffffffffffffffffffffffffffff1673ffffffffffffffffffffffffffffffffffffffff16815260200190815260200160002060008773ffffffffffffffffffffffffffffffffffffffff1673ffffffffffffffffffffffffffffffffffffffff1681526020019081526020016000208381548110610c3f57610c3e6134f7565b5b9060005260206000209060040201905083816000016000828254610c639190613555565b92505081905550505050505050565b6000806000838152602001908152602001600020600101549050919050565b610c9a82610c72565b610cab81610ca66124d3565b6124db565b610cb583836125e2565b505050565b6000801b610ccf81610cca6124d3565b6124db565b610cd883611e49565b15610d18576040517f08c379a0000000000000000000000000000000000000000000000000000000008152600401610d0f90613685565b60405180910390fd5b60006040518060800160405280600081526020018481526020016000815260200143815250905080600760008673ffffffffffffffffffffffffffffffffffffffff1673ffffffffffffffffffffffffffffffffffffffff1681526020019081526020016000206000820151816000015560208201518160010155604082015181600201556060820151816003015590505050505050565b610db86124d3565b73ffffffffffffffffffffffffffffffffffffffff168173ffffffffffffffffffffffffffffffffffffffff1614610e25576040517f08c379a0000000000000000000000000000000000000000000000000000000008152600401610e1c90613717565b60405180910390fd5b610e2f82826126c2565b5050565b6000801b610e4881610e436124d3565b6124db565b6000600760008673ffffffffffffffffffffffffffffffffffffffff1673ffffffffffffffffffffffffffffffffffffffff1681526020019081526020016000209050600084118015610e9f575083816000015410155b610ea857600080fd5b610ed53084868873ffffffffffffffffffffffffffffffffffffffff166127a3909392919063ffffffff16565b83816000016000828254610ee991906135f4565b925050819055505050505050565b610eff612d6b565b7f41a998b42530cff8f40cf375b6a586aeb2b2a8285995d3b4fb404116be349d78610f3181610f2c6124d3565b6124db565b610f3a85611e49565b610f79576040517f08c379a0000000000000000000000000000000000000000000000000000000008152600401610f7090613783565b60405180910390fd5b83600760008773ffffffffffffffffffffffffffffffffffffffff1673ffffffffffffffffffffffffffffffffffffffff1681526020019081526020016000206002018190555082600760008773ffffffffffffffffffffffffffffffffffffffff1673ffffffffffffffffffffffffffffffffffffffff16815260200190815260200160002060030181905550600760008673ffffffffffffffffffffffffffffffffffffffff1673ffffffffffffffffffffffffffffffffffffffff1681526020019081526020016000206040518060800160405290816000820154815260200160018201548152602001600282015481526020016003820154815250509150509392505050565b600080600560003373ffffffffffffffffffffffffffffffffffffffff1673ffffffffffffffffffffffffffffffffffffffff16815260200190815260200160002060008473ffffffffffffffffffffffffffffffffffffffff1673ffffffffffffffffffffffffffffffffffffffff16815260200190815260200160002060000154119050919050565b6000600160009054906101000a900460ff16905090565b61112d612d6b565b81600760008673ffffffffffffffffffffffffffffffffffffffff1673ffffffffffffffffffffffffffffffffffffffff1681526020019081526020016000206003018190555082600760008673ffffffffffffffffffffffffffffffffffffffff1673ffffffffffffffffffffffffffffffffffffffff16815260200190815260200160002060020181905550600760008573ffffffffffffffffffffffffffffffffffffffff1673ffffffffffffffffffffffffffffffffffffffff16815260200190815260200160002060405180608001604052908160008201548152602001600182015481526020016002820154815260200160038201548152505090509392505050565b61123e61110e565b1561127e576040517f08c379a0000000000000000000000000000000000000000000000000000000008152600401611275906137ef565b60405180910390fd5b7f41a998b42530cff8f40cf375b6a586aeb2b2a8285995d3b4fb404116be349d786112b0816112ab6124d3565b6124db565b600083116112f3576040517f08c379a00000000000000000000000000000000000000000000000000000000081526004016112ea9061385b565b60405180910390fd5b6000600560008673ffffffffffffffffffffffffffffffffffffffff1673ffffffffffffffffffffffffffffffffffffffff16815260200190815260200160002060008773ffffffffffffffffffffffffffffffffffffffff1673ffffffffffffffffffffffffffffffffffffffff1681526020019081526020016000209050838160000154116113b9576040517f08c379a00000000000000000000000000000000000000000000000000000000081526004016113b0906138ed565b60405180910390fd5b838160000160008282546113cd91906135f4565b92505081905550828160010160008282546113e891906135f4565b925050819055506000600760008873ffffffffffffffffffffffffffffffffffffffff1673ffffffffffffffffffffffffffffffffffffffff16815260200190815260200160002090508481600001600082825461144691906135f4565b9250508190555061147886868973ffffffffffffffffffffffffffffffffffffffff1661282c9092919063ffffffff16565b7f9b1bfa7fa9ee420a16e124f794c35ac9f90472acc99140eb2f6447c714cad8eb8688876040516114ab9392919061391c565b60405180910390a150505050505050565b6114c461110e565b15611504576040517f08c379a00000000000000000000000000000000000000000000000000000000081526004016114fb906137ef565b60405180910390fd5b60008111611547576040517f08c379a000000000000000000000000000000000000000000000000000000000815260040161153e9061385b565b60405180910390fd5b6000600560008473ffffffffffffffffffffffffffffffffffffffff1673ffffffffffffffffffffffffffffffffffffffff16815260200190815260200160002060008573ffffffffffffffffffffffffffffffffffffffff1673ffffffffffffffffffffffffffffffffffffffff1681526020019081526020016000209050818160000160008282546115db9190613555565b92505081905550600081600201600183600201805490506115fc91906135f4565b8154811061160d5761160c6134f7565b5b906000526020600020015490506000600460008673ffffffffffffffffffffffffffffffffffffffff1673ffffffffffffffffffffffffffffffffffffffff16815260200190815260200160002060008773ffffffffffffffffffffffffffffffffffffffff1673ffffffffffffffffffffffffffffffffffffffff16815260200190815260200160002082815481106116aa576116a96134f7565b5b906000526020600020906004020190506116c3816128b2565b15611864576116d186611e49565b15611711576040517f08c379a000000000000000000000000000000000000000000000000000000000815260040161170890613685565b60405180910390fd5b60006040518060800160405280868152602001428152602001600254426117389190613555565b8152602001600115158152509050600460008773ffffffffffffffffffffffffffffffffffffffff1673ffffffffffffffffffffffffffffffffffffffff16815260200190815260200160002060008873ffffffffffffffffffffffffffffffffffffffff1673ffffffffffffffffffffffffffffffffffffffff16815260200190815260200160002081908060018154018082558091505060019003906000526020600020906004020160009091909190915060008201518160000155602082015181600101556040820151816002015560608201518160030160006101000a81548160ff0219169083151502179055505050836002018460020180549050908060018154018082558091505060019003906000526020600020016000909190919091505550611880565b838160000160008282546118789190613555565b925050819055505b6000600760008873ffffffffffffffffffffffffffffffffffffffff1673ffffffffffffffffffffffffffffffffffffffff1681526020019081526020016000209050848160000160008282546118d79190613555565b9250508190555061190b8630878a73ffffffffffffffffffffffffffffffffffffffff166127a3909392919063ffffffff16565b7f5548c837ab068cf56a2c2479df0882a4922fd203edb7517321831d95078c5f6286888760405161193e9392919061391c565b60405180910390a150505050505050565b7f41a998b42530cff8f40cf375b6a586aeb2b2a8285995d3b4fb404116be349d786119818161197c6124d3565b6124db565b81600560008573ffffffffffffffffffffffffffffffffffffffff1673ffffffffffffffffffffffffffffffffffffffff16815260200190815260200160002060008673ffffffffffffffffffffffffffffffffffffffff1673ffffffffffffffffffffffffffffffffffffffff1681526020019081526020016000206001018190555050505050565b600080600084815260200190815260200160002060000160008373ffffffffffffffffffffffffffffffffffffffff1673ffffffffffffffffffffffffffffffffffffffff16815260200190815260200160002060009054906101000a900460ff16905092915050565b611a7d612d93565b7f41a998b42530cff8f40cf375b6a586aeb2b2a8285995d3b4fb404116be349d78611aaf81611aaa6124d3565b6124db565b600560008473ffffffffffffffffffffffffffffffffffffffff1673ffffffffffffffffffffffffffffffffffffffff16815260200190815260200160002060008573ffffffffffffffffffffffffffffffffffffffff1673ffffffffffffffffffffffffffffffffffffffff1681526020019081526020016000206040518060a0016040529081600082015481526020016001820154815260200160028201805480602002602001604051908101604052809291908181526020018280548015611b9957602002820191906000526020600020905b815481526020019060010190808311611b85575b505050505081526020016003820160009054906101000a900460ff161515151581526020016003820160019054906101000a900460ff16151515158152505091505092915050565b611be9612dc6565b7f41a998b42530cff8f40cf375b6a586aeb2b2a8285995d3b4fb404116be349d78611c1b81611c166124d3565b6124db565b6000600560008573ffffffffffffffffffffffffffffffffffffffff1673ffffffffffffffffffffffffffffffffffffffff16815260200190815260200160002060008673ffffffffffffffffffffffffffffffffffffffff1673ffffffffffffffffffffffffffffffffffffffff1681526020019081526020016000206040518060a0016040529081600082015481526020016001820154815260200160028201805480602002602001604051908101604052809291908181526020018280548015611d0757602002820191906000526020600020905b815481526020019060010190808311611cf3575b505050505081526020016003820160009054906101000a900460ff161515151581526020016003820160019054906101000a900460ff161515151581525050905060006001826040015151611d5c91906135f4565b9050600460008673ffffffffffffffffffffffffffffffffffffffff1673ffffffffffffffffffffffffffffffffffffffff16815260200190815260200160002060008773ffffffffffffffffffffffffffffffffffffffff1673ffffffffffffffffffffffffffffffffffffffff1681526020019081526020016000208181548110611dec57611deb6134f7565b5b90600052602060002090600402016040518060800160405290816000820154815260200160018201548152602001600282015481526020016003820160009054906101000a900460ff161515151581525050935050505092915050565b600080600760008473ffffffffffffffffffffffffffffffffffffffff1673ffffffffffffffffffffffffffffffffffffffff16815260200190815260200160002060010154119050919050565b6000801b81565b611ea6612d6b565b611eaf82611e49565b611eee576040517f08c379a0000000000000000000000000000000000000000000000000000000008152600401611ee59061399f565b60405180910390fd5b600760008373ffffffffffffffffffffffffffffffffffffffff1673ffffffffffffffffffffffffffffffffffffffff1681526020019081526020016000206040518060800160405290816000820154815260200160018201548152602001600282015481526020016003820154815250509050919050565b7f41a998b42530cff8f40cf375b6a586aeb2b2a8285995d3b4fb404116be349d7881565b7f41a998b42530cff8f40cf375b6a586aeb2b2a8285995d3b4fb404116be349d78611fbd81611fb86124d3565b6124db565b82600560008673ffffffffffffffffffffffffffffffffffffffff1673ffffffffffffffffffffffffffffffffffffffff16815260200190815260200160002060008773ffffffffffffffffffffffffffffffffffffffff1673ffffffffffffffffffffffffffffffffffffffff1681526020019081526020016000206000018190555081600560008673ffffffffffffffffffffffffffffffffffffffff1673ffffffffffffffffffffffffffffffffffffffff16815260200190815260200160002060008773ffffffffffffffffffffffffffffffffffffffff1673ffffffffffffffffffffffffffffffffffffffff168152602001908152602001600020600101819055505050505050565b6120d582610c72565b6120e6816120e16124d3565b6124db565b6120f083836126c2565b505050565b6000801b61210a816121056124d3565b6124db565b6000471161214d576040517f08c379a000000000000000000000000000000000000000000000000000000000815260040161214490613a0b565b60405180910390fd5b60004790503373ffffffffffffffffffffffffffffffffffffffff166108fc829081150290604051600060405180830381858888f19350505050158015612198573d6000803e3d6000fd5b507f43b2a2d6daf661162c8c435ac5820ea5b1e0046355c5faac17d06ecb4f60f15333826040516121ca929190613a2b565b60405180910390a15050565b60006040518060800160405280838152602001428152602001600254426121fd9190613555565b8152602001600115158152509050600460008473ffffffffffffffffffffffffffffffffffffffff1673ffffffffffffffffffffffffffffffffffffffff16815260200190815260200160002060008573ffffffffffffffffffffffffffffffffffffffff1673ffffffffffffffffffffffffffffffffffffffff16815260200190815260200160002081908060018154018082558091505060019003906000526020600020906004020160009091909190915060008201518160000155602082015181600101556040820151816002015560608201518160030160006101000a81548160ff021916908315150217905550505050505050565b60008173ffffffffffffffffffffffffffffffffffffffff166370a08231306040518263ffffffff1660e01b81526004016123329190613a54565b602060405180830381865afa15801561234f573d6000803e3d6000fd5b505050506040513d601f19601f820116820180604052508101906123739190613a84565b9050919050565b7f41a998b42530cff8f40cf375b6a586aeb2b2a8285995d3b4fb404116be349d786123ac816123a76124d3565b6124db565b60606040518060a0016040528085815260200184815260200182815260200160001515815260200160011515815250600560008773ffffffffffffffffffffffffffffffffffffffff1673ffffffffffffffffffffffffffffffffffffffff16815260200190815260200160002060008873ffffffffffffffffffffffffffffffffffffffff1673ffffffffffffffffffffffffffffffffffffffff16815260200190815260200160002060008201518160000155602082015181600101556040820151816002019080519060200190612487929190612df0565b5060608201518160030160006101000a81548160ff02191690831515021790555060808201518160030160016101000a81548160ff021916908315150217905550905050505050505050565b600033905090565b6124e58282611a0b565b6125745761250a8173ffffffffffffffffffffffffffffffffffffffff1660146128c2565b6125188360001c60206128c2565b604051602001612529929190613bc3565b6040516020818303038152906040526040517f08c379a000000000000000000000000000000000000000000000000000000000815260040161256b9190613c47565b60405180910390fd5b5050565b60007f01ffc9a7000000000000000000000000000000000000000000000000000000007bffffffffffffffffffffffffffffffffffffffffffffffffffffffff1916827bffffffffffffffffffffffffffffffffffffffffffffffffffffffff1916149050919050565b6125ec8282611a0b565b6126be57600160008084815260200190815260200160002060000160008373ffffffffffffffffffffffffffffffffffffffff1673ffffffffffffffffffffffffffffffffffffffff16815260200190815260200160002060006101000a81548160ff0219169083151502179055506126636124d3565b73ffffffffffffffffffffffffffffffffffffffff168173ffffffffffffffffffffffffffffffffffffffff16837f2f8788117e7eff1d82e926ec794901d17c78024a50270940304540a733656f0d60405160405180910390a45b5050565b6126cc8282611a0b565b1561279f57600080600084815260200190815260200160002060000160008373ffffffffffffffffffffffffffffffffffffffff1673ffffffffffffffffffffffffffffffffffffffff16815260200190815260200160002060006101000a81548160ff0219169083151502179055506127446124d3565b73ffffffffffffffffffffffffffffffffffffffff168173ffffffffffffffffffffffffffffffffffffffff16837ff6391f5c32d9c69d2a47ea670b442974b53935d1edc7fd64eb21e047a839171b60405160405180910390a45b5050565b612826846323b872dd60e01b8585856040516024016127c49392919061391c565b604051602081830303815290604052907bffffffffffffffffffffffffffffffffffffffffffffffffffffffff19166020820180517bffffffffffffffffffffffffffffffffffffffffffffffffffffffff8381831617835250505050612afe565b50505050565b6128ad8363a9059cbb60e01b848460405160240161284b929190613a2b565b604051602081830303815290604052907bffffffffffffffffffffffffffffffffffffffffffffffffffffffff19166020820180517bffffffffffffffffffffffffffffffffffffffffffffffffffffffff8381831617835250505050612afe565b505050565b6000428260020154109050919050565b6060600060028360026128d59190613c69565b6128df9190613555565b67ffffffffffffffff8111156128f8576128f7613cc3565b5b6040519080825280601f01601f19166020018201604052801561292a5781602001600182028036833780820191505090505b5090507f300000000000000000000000000000000000000000000000000000000000000081600081518110612962576129616134f7565b5b60200101907effffffffffffffffffffffffffffffffffffffffffffffffffffffffffffff1916908160001a9053507f7800000000000000000000000000000000000000000000000000000000000000816001815181106129c6576129c56134f7565b5b60200101907effffffffffffffffffffffffffffffffffffffffffffffffffffffffffffff1916908160001a90535060006001846002612a069190613c69565b612a109190613555565b90505b6001811115612ab0577f3031323334353637383961626364656600000000000000000000000000000000600f861660108110612a5257612a516134f7565b5b1a60f81b828281518110612a6957612a686134f7565b5b60200101907effffffffffffffffffffffffffffffffffffffffffffffffffffffffffffff1916908160001a905350600485901c945080612aa990613cf2565b9050612a13565b5060008414612af4576040517f08c379a0000000000000000000000000000000000000000000000000000000008152600401612aeb90613d68565b60405180910390fd5b8091505092915050565b6000612b60826040518060400160405280602081526020017f5361666545524332303a206c6f772d6c6576656c2063616c6c206661696c65648152508573ffffffffffffffffffffffffffffffffffffffff16612bc59092919063ffffffff16565b9050600081511115612bc05780806020019051810190612b809190613db4565b612bbf576040517f08c379a0000000000000000000000000000000000000000000000000000000008152600401612bb690613e53565b60405180910390fd5b5b505050565b6060612bd48484600085612bdd565b90509392505050565b606082471015612c22576040517f08c379a0000000000000000000000000000000000000000000000000000000008152600401612c1990613ee5565b60405180910390fd5b612c2b85612cf1565b612c6a576040517f08c379a0000000000000000000000000000000000000000000000000000000008152600401612c6190613f51565b60405180910390fd5b6000808673ffffffffffffffffffffffffffffffffffffffff168587604051612c939190613fb8565b60006040518083038185875af1925050503d8060008114612cd0576040519150601f19603f3d011682016040523d82523d6000602084013e612cd5565b606091505b5091509150612ce5828286612d04565b92505050949350505050565b600080823b905060008111915050919050565b60608315612d1457829050612d64565b600083511115612d275782518084602001fd5b816040517f08c379a0000000000000000000000000000000000000000000000000000000008152600401612d5b9190613c47565b60405180910390fd5b9392505050565b6040518060800160405280600081526020016000815260200160008152602001600081525090565b6040518060a001604052806000815260200160008152602001606081526020016000151581526020016000151581525090565b60405180608001604052806000815260200160008152602001600081526020016000151581525090565b828054828255906000526020600020908101928215612e2c579160200282015b82811115612e2b578251825591602001919060010190612e10565b5b509050612e399190612e3d565b5090565b5b80821115612e56576000816000905550600101612e3e565b5090565b600080fd5b600073ffffffffffffffffffffffffffffffffffffffff82169050919050565b6000612e8a82612e5f565b9050919050565b612e9a81612e7f565b8114612ea557600080fd5b50565b600081359050612eb781612e91565b92915050565b60008060408385031215612ed457612ed3612e5a565b5b6000612ee285828601612ea8565b9250506020612ef385828601612ea8565b9150509250929050565b6000819050919050565b612f1081612efd565b82525050565b6000602082019050612f2b6000830184612f07565b92915050565b60007fffffffff0000000000000000000000000000000000000000000000000000000082169050919050565b612f6681612f31565b8114612f7157600080fd5b50565b600081359050612f8381612f5d565b92915050565b600060208284031215612f9f57612f9e612e5a565b5b6000612fad84828501612f74565b91505092915050565b60008115159050919050565b612fcb81612fb6565b82525050565b6000602082019050612fe66000830184612fc2565b92915050565b612ff581612efd565b811461300057600080fd5b50565b60008135905061301281612fec565b92915050565b6000806000806080858703121561303257613031612e5a565b5b600061304087828801612ea8565b945050602061305187828801612ea8565b935050604061306287828801613003565b925050606061307387828801613003565b91505092959194509250565b6000819050919050565b6130928161307f565b811461309d57600080fd5b50565b6000813590506130af81613089565b92915050565b6000602082840312156130cb576130ca612e5a565b5b60006130d9848285016130a0565b91505092915050565b6130eb8161307f565b82525050565b600060208201905061310660008301846130e2565b92915050565b6000806040838503121561312357613122612e5a565b5b6000613131858286016130a0565b925050602061314285828601612ea8565b9150509250929050565b6000806040838503121561316357613162612e5a565b5b600061317185828601612ea8565b925050602061318285828601613003565b9150509250929050565b6000806000606084860312156131a5576131a4612e5a565b5b60006131b386828701612ea8565b93505060206131c486828701613003565b92505060406131d586828701612ea8565b9150509250925092565b6000806000606084860312156131f8576131f7612e5a565b5b600061320686828701612ea8565b935050602061321786828701613003565b925050604061322886828701613003565b9150509250925092565b61323b81612efd565b82525050565b6080820160008201516132576000850182613232565b50602082015161326a6020850182613232565b50604082015161327d6040850182613232565b5060608201516132906060850182613232565b50505050565b60006080820190506132ab6000830184613241565b92915050565b6000602082840312156132c7576132c6612e5a565b5b60006132d584828501612ea8565b91505092915050565b6000806000606084860312156132f7576132f6612e5a565b5b600061330586828701612ea8565b935050602061331686828701612ea8565b925050604061332786828701613003565b9150509250925092565b600081519050919050565b600082825260208201905092915050565b6000819050602082019050919050565b60006133698383613232565b60208301905092915050565b6000602082019050919050565b600061338d82613331565b613397818561333c565b93506133a28361334d565b8060005b838110156133d35781516133ba888261335d565b97506133c583613375565b9250506001810190506133a6565b5085935050505092915050565b6133e981612fb6565b82525050565b600060a0830160008301516134076000860182613232565b50602083015161341a6020860182613232565b50604083015184820360408601526134328282613382565b915050606083015161344760608601826133e0565b50608083015161345a60808601826133e0565b508091505092915050565b6000602082019050818103600083015261347f81846133ef565b905092915050565b60808201600082015161349d6000850182613232565b5060208201516134b06020850182613232565b5060408201516134c36040850182613232565b5060608201516134d660608501826133e0565b50505050565b60006080820190506134f16000830184613487565b92915050565b7f4e487b7100000000000000000000000000000000000000000000000000000000600052603260045260246000fd5b7f4e487b7100000000000000000000000000000000000000000000000000000000600052601160045260246000fd5b600061356082612efd565b915061356b83612efd565b9250827fffffffffffffffffffffffffffffffffffffffffffffffffffffffffffffffff038211156135a05761359f613526565b5b828201905092915050565b60006135b682612efd565b91507fffffffffffffffffffffffffffffffffffffffffffffffffffffffffffffffff8214156135e9576135e8613526565b5b600182019050919050565b60006135ff82612efd565b915061360a83612efd565b92508282101561361d5761361c613526565b5b828203905092915050565b600082825260208201905092915050565b7f5468697320706f6f6c20616c7265616479206578697374732e00000000000000600082015250565b600061366f601983613628565b915061367a82613639565b602082019050919050565b6000602082019050818103600083015261369e81613662565b9050919050565b7f416363657373436f6e74726f6c3a2063616e206f6e6c792072656e6f756e636560008201527f20726f6c657320666f722073656c660000000000000000000000000000000000602082015250565b6000613701602f83613628565b915061370c826136a5565b604082019050919050565b60006020820190508181036000830152613730816136f4565b9050919050565b7f506f6f6c20646f6573206e6f7420657869737400000000000000000000000000600082015250565b600061376d601383613628565b915061377882613737565b602082019050919050565b6000602082019050818103600083015261379c81613760565b9050919050565b7f5061757361626c653a2070617573656400000000000000000000000000000000600082015250565b60006137d9601083613628565b91506137e4826137a3565b602082019050919050565b60006020820190508181036000830152613808816137cc565b9050919050565b7f416d6f756e742030000000000000000000000000000000000000000000000000600082015250565b6000613845600883613628565b91506138508261380f565b602082019050919050565b6000602082019050818103600083015261387481613838565b9050919050565b7f57697468647261776e20616d6f756e742065786365656420746865207573657260008201527f2062616c616e6365000000000000000000000000000000000000000000000000602082015250565b60006138d7602883613628565b91506138e28261387b565b604082019050919050565b60006020820190508181036000830152613906816138ca565b9050919050565b61391681612e7f565b82525050565b6000606082019050613931600083018661390d565b61393e602083018561390d565b61394b6040830184612f07565b949350505050565b7f54686520706f6f6c20646f6573206e6f74206578697374732e00000000000000600082015250565b6000613989601983613628565b915061399482613953565b602082019050919050565b600060208201905081810360008301526139b88161397c565b9050919050565b7f6e6f206d6174696320746f207769746864726177000000000000000000000000600082015250565b60006139f5601483613628565b9150613a00826139bf565b602082019050919050565b60006020820190508181036000830152613a24816139e8565b9050919050565b6000604082019050613a40600083018561390d565b613a4d6020830184612f07565b9392505050565b6000602082019050613a69600083018461390d565b92915050565b600081519050613a7e81612fec565b92915050565b600060208284031215613a9a57613a99612e5a565b5b6000613aa884828501613a6f565b91505092915050565b600081905092915050565b7f416363657373436f6e74726f6c3a206163636f756e7420000000000000000000600082015250565b6000613af2601783613ab1565b9150613afd82613abc565b601782019050919050565b600081519050919050565b60005b83811015613b31578082015181840152602081019050613b16565b83811115613b40576000848401525b50505050565b6000613b5182613b08565b613b5b8185613ab1565b9350613b6b818560208601613b13565b80840191505092915050565b7f206973206d697373696e6720726f6c6520000000000000000000000000000000600082015250565b6000613bad601183613ab1565b9150613bb882613b77565b601182019050919050565b6000613bce82613ae5565b9150613bda8285613b46565b9150613be582613ba0565b9150613bf18284613b46565b91508190509392505050565b6000601f19601f8301169050919050565b6000613c1982613b08565b613c238185613628565b9350613c33818560208601613b13565b613c3c81613bfd565b840191505092915050565b60006020820190508181036000830152613c618184613c0e565b905092915050565b6000613c7482612efd565b9150613c7f83612efd565b9250817fffffffffffffffffffffffffffffffffffffffffffffffffffffffffffffffff0483118215151615613cb857613cb7613526565b5b828202905092915050565b7f4e487b7100000000000000000000000000000000000000000000000000000000600052604160045260246000fd5b6000613cfd82612efd565b91506000821415613d1157613d10613526565b5b600182039050919050565b7f537472696e67733a20686578206c656e67746820696e73756666696369656e74600082015250565b6000613d52602083613628565b9150613d5d82613d1c565b602082019050919050565b60006020820190508181036000830152613d8181613d45565b9050919050565b613d9181612fb6565b8114613d9c57600080fd5b50565b600081519050613dae81613d88565b92915050565b600060208284031215613dca57613dc9612e5a565b5b6000613dd884828501613d9f565b91505092915050565b7f5361666545524332303a204552433230206f7065726174696f6e20646964206e60008201527f6f74207375636365656400000000000000000000000000000000000000000000602082015250565b6000613e3d602a83613628565b9150613e4882613de1565b604082019050919050565b60006020820190508181036000830152613e6c81613e30565b9050919050565b7f416464726573733a20696e73756666696369656e742062616c616e636520666f60008201527f722063616c6c0000000000000000000000000000000000000000000000000000602082015250565b6000613ecf602683613628565b9150613eda82613e73565b604082019050919050565b60006020820190508181036000830152613efe81613ec2565b9050919050565b7f416464726573733a2063616c6c20746f206e6f6e2d636f6e7472616374000000600082015250565b6000613f3b601d83613628565b9150613f4682613f05565b602082019050919050565b60006020820190508181036000830152613f6a81613f2e565b9050919050565b600081519050919050565b600081905092915050565b6000613f9282613f71565b613f9c8185613f7c565b9350613fac818560208601613b13565b80840191505092915050565b6000613fc48284613f87565b91508190509291505056fea2646970667358221220f26ff07cd4512ed7cbcb6e8131a0051e978b390a086ea2f0b387b9cbfbbd9bee64736f6c634300080b0033",
  "linkReferences": {},
  "deployedLinkReferences": {}
}