{
  "_format": "hh-sol-artifact-1",
  "contractName": "Vault",
  "sourceName": "contracts/vault/Vault.sol",
  "abi": [
    {
      "inputs": [],
      "stateMutability": "nonpayable",
      "type": "constructor"
    },
    {
      "anonymous": false,
      "inputs": [
        {
          "indexed": false,
          "internalType": "address",
          "name": "user",
          "type": "address"
        },
        {
          "indexed": false,
          "internalType": "address",
          "name": "token",
          "type": "address"
        },
        {
          "indexed": false,
          "internalType": "uint256",
          "name": "amount",
          "type": "uint256"
        }
      ],
      "name": "Deposit",
      "type": "event"
    },
    {
      "anonymous": false,
      "inputs": [
        {
          "indexed": false,
          "internalType": "address",
          "name": "account",
          "type": "address"
        }
      ],
      "name": "Paused",
      "type": "event"
    },
    {
      "anonymous": false,
      "inputs": [
        {
          "indexed": true,
          "internalType": "bytes32",
          "name": "role",
          "type": "bytes32"
        },
        {
          "indexed": true,
          "internalType": "bytes32",
          "name": "previousAdminRole",
          "type": "bytes32"
        },
        {
          "indexed": true,
          "internalType": "bytes32",
          "name": "newAdminRole",
          "type": "bytes32"
        }
      ],
      "name": "RoleAdminChanged",
      "type": "event"
    },
    {
      "anonymous": false,
      "inputs": [
        {
          "indexed": true,
          "internalType": "bytes32",
          "name": "role",
          "type": "bytes32"
        },
        {
          "indexed": true,
          "internalType": "address",
          "name": "account",
          "type": "address"
        },
        {
          "indexed": true,
          "internalType": "address",
          "name": "sender",
          "type": "address"
        }
      ],
      "name": "RoleGranted",
      "type": "event"
    },
    {
      "anonymous": false,
      "inputs": [
        {
          "indexed": true,
          "internalType": "bytes32",
          "name": "role",
          "type": "bytes32"
        },
        {
          "indexed": true,
          "internalType": "address",
          "name": "account",
          "type": "address"
        },
        {
          "indexed": true,
          "internalType": "address",
          "name": "sender",
          "type": "address"
        }
      ],
      "name": "RoleRevoked",
      "type": "event"
    },
    {
      "anonymous": false,
      "inputs": [
        {
          "indexed": false,
          "internalType": "address",
          "name": "account",
          "type": "address"
        }
      ],
      "name": "Unpaused",
      "type": "event"
    },
    {
      "anonymous": false,
      "inputs": [
        {
          "indexed": false,
          "internalType": "address",
          "name": "user",
          "type": "address"
        },
        {
          "indexed": false,
          "internalType": "address",
          "name": "token",
          "type": "address"
        },
        {
          "indexed": false,
          "internalType": "uint256",
          "name": "amount",
          "type": "uint256"
        }
      ],
      "name": "Withdraw",
      "type": "event"
    },
    {
      "anonymous": false,
      "inputs": [
        {
          "indexed": false,
          "internalType": "address",
          "name": "destination",
          "type": "address"
        },
        {
          "indexed": false,
          "internalType": "uint256",
          "name": "amount",
          "type": "uint256"
        }
      ],
      "name": "WithdrawMATIC",
      "type": "event"
    },
    {
      "inputs": [],
      "name": "DEFAULT_ADMIN_ROLE",
      "outputs": [
        {
          "internalType": "bytes32",
          "name": "",
          "type": "bytes32"
        }
      ],
      "stateMutability": "view",
      "type": "function"
    },
    {
      "inputs": [],
      "name": "REWARDS",
      "outputs": [
        {
          "internalType": "bytes32",
          "name": "",
          "type": "bytes32"
        }
      ],
      "stateMutability": "view",
      "type": "function"
    },
    {
      "inputs": [
        {
          "internalType": "address",
          "name": "_token",
          "type": "address"
        },
        {
          "internalType": "uint256",
          "name": "_rewardsPerBlock",
          "type": "uint256"
        }
      ],
      "name": "addPool",
      "outputs": [],
      "stateMutability": "nonpayable",
      "type": "function"
    },
    {
      "inputs": [
        {
          "internalType": "address",
          "name": "_token",
          "type": "address"
        },
        {
          "internalType": "address",
          "name": "_user",
          "type": "address"
        },
        {
          "internalType": "uint256",
          "name": "_amount",
          "type": "uint256"
        }
      ],
      "name": "addStake",
      "outputs": [],
      "stateMutability": "nonpayable",
      "type": "function"
    },
    {
      "inputs": [
        {
          "internalType": "address",
          "name": "_token",
          "type": "address"
        },
        {
          "internalType": "address",
          "name": "_user",
          "type": "address"
        },
        {
          "internalType": "uint256",
          "name": "_amount",
          "type": "uint256"
        },
        {
          "internalType": "uint256",
          "name": "_rewardDebt",
          "type": "uint256"
        }
      ],
      "name": "addUserPosition",
      "outputs": [],
      "stateMutability": "nonpayable",
      "type": "function"
    },
    {
      "inputs": [
        {
          "internalType": "address",
          "name": "_token",
          "type": "address"
        }
      ],
      "name": "checkIfPoolExists",
      "outputs": [
        {
          "internalType": "bool",
          "name": "",
          "type": "bool"
        }
      ],
      "stateMutability": "view",
      "type": "function"
    },
    {
      "inputs": [
        {
          "internalType": "address",
          "name": "_token",
          "type": "address"
        }
      ],
      "name": "checkIfUserPositionExists",
      "outputs": [
        {
          "internalType": "bool",
          "name": "",
          "type": "bool"
        }
      ],
      "stateMutability": "view",
      "type": "function"
    },
    {
      "inputs": [
        {
          "internalType": "address",
          "name": "_token",
          "type": "address"
        },
        {
          "internalType": "address",
          "name": "_user",
          "type": "address"
        }
      ],
      "name": "getLastStake",
      "outputs": [
        {
          "components": [
            {
              "internalType": "uint256",
              "name": "amount",
              "type": "uint256"
            },
            {
              "internalType": "uint256",
              "name": "startBlock",
              "type": "uint256"
            },
            {
              "internalType": "uint256",
              "name": "timeLockEnd",
              "type": "uint256"
            },
            {
              "internalType": "bool",
              "name": "active",
              "type": "bool"
            }
          ],
          "internalType": "struct Vault.Stake",
          "name": "",
          "type": "tuple"
        }
      ],
      "stateMutability": "view",
      "type": "function"
    },
    {
      "inputs": [
        {
          "internalType": "address",
          "name": "_token",
          "type": "address"
        },
        {
          "internalType": "address",
          "name": "_user",
          "type": "address"
        }
      ],
      "name": "getLastStakeKey",
      "outputs": [
        {
          "internalType": "uint256",
          "name": "",
          "type": "uint256"
        }
      ],
      "stateMutability": "view",
      "type": "function"
    },
    {
      "inputs": [
        {
          "internalType": "address",
          "name": "_token",
          "type": "address"
        }
      ],
      "name": "getPool",
      "outputs": [
        {
          "components": [
            {
              "internalType": "uint256",
              "name": "totalPooled",
              "type": "uint256"
            },
            {
              "internalType": "uint256",
              "name": "rewardsPerBlock",
              "type": "uint256"
            },
            {
              "internalType": "uint256",
              "name": "accCaplPerShare",
              "type": "uint256"
            },
            {
              "internalType": "uint256",
              "name": "lastRewardBlock",
              "type": "uint256"
            }
          ],
          "internalType": "struct Vault.Pool",
          "name": "",
          "type": "tuple"
        }
      ],
      "stateMutability": "view",
      "type": "function"
    },
    {
      "inputs": [
        {
          "internalType": "bytes32",
          "name": "role",
          "type": "bytes32"
        }
      ],
      "name": "getRoleAdmin",
      "outputs": [
        {
          "internalType": "bytes32",
          "name": "",
          "type": "bytes32"
        }
      ],
      "stateMutability": "view",
      "type": "function"
    },
    {
      "inputs": [
        {
          "internalType": "address",
          "name": "_token",
          "type": "address"
        }
      ],
      "name": "getTokenSupply",
      "outputs": [
        {
          "internalType": "uint256",
          "name": "",
          "type": "uint256"
        }
      ],
      "stateMutability": "view",
      "type": "function"
    },
    {
      "inputs": [
        {
          "internalType": "address",
          "name": "_token",
          "type": "address"
        },
        {
          "internalType": "address",
          "name": "_user",
          "type": "address"
        }
      ],
      "name": "getUnlockedAmount",
      "outputs": [
        {
          "internalType": "uint256",
          "name": "",
          "type": "uint256"
        }
      ],
      "stateMutability": "nonpayable",
      "type": "function"
    },
    {
      "inputs": [
        {
          "internalType": "address",
          "name": "_token",
          "type": "address"
        },
        {
          "internalType": "address",
          "name": "_user",
          "type": "address"
        }
      ],
      "name": "getUserPosition",
      "outputs": [
        {
          "components": [
            {
              "internalType": "uint256",
              "name": "totalAmount",
              "type": "uint256"
            },
            {
              "internalType": "uint256",
              "name": "rewardDebt",
              "type": "uint256"
            },
            {
              "internalType": "uint256",
              "name": "userLastWithdrawnStakeIndex",
              "type": "uint256"
            },
            {
              "internalType": "bool",
              "name": "staticLock",
              "type": "bool"
            },
            {
              "internalType": "bool",
              "name": "autocompounding",
              "type": "bool"
            },
            {
              "components": [
                {
                  "internalType": "uint256",
                  "name": "amount",
                  "type": "uint256"
                },
                {
                  "internalType": "uint256",
                  "name": "startBlock",
                  "type": "uint256"
                },
                {
                  "internalType": "uint256",
                  "name": "timeLockEnd",
                  "type": "uint256"
                },
                {
                  "internalType": "bool",
                  "name": "active",
                  "type": "bool"
                }
              ],
              "internalType": "struct Vault.Stake[]",
              "name": "stakes",
              "type": "tuple[]"
            }
          ],
          "internalType": "struct Vault.UserPosition",
          "name": "",
          "type": "tuple"
        }
      ],
      "stateMutability": "view",
      "type": "function"
    },
    {
      "inputs": [
        {
          "internalType": "bytes32",
          "name": "role",
          "type": "bytes32"
        },
        {
          "internalType": "address",
          "name": "account",
          "type": "address"
        }
      ],
      "name": "grantRole",
      "outputs": [],
      "stateMutability": "nonpayable",
      "type": "function"
    },
    {
      "inputs": [
        {
          "internalType": "bytes32",
          "name": "role",
          "type": "bytes32"
        },
        {
          "internalType": "address",
          "name": "account",
          "type": "address"
        }
      ],
      "name": "hasRole",
      "outputs": [
        {
          "internalType": "bool",
          "name": "",
          "type": "bool"
        }
      ],
      "stateMutability": "view",
      "type": "function"
    },
    {
      "inputs": [],
      "name": "paused",
      "outputs": [
        {
          "internalType": "bool",
          "name": "",
          "type": "bool"
        }
      ],
      "stateMutability": "view",
      "type": "function"
    },
    {
      "inputs": [
        {
          "internalType": "bytes32",
          "name": "role",
          "type": "bytes32"
        },
        {
          "internalType": "address",
          "name": "account",
          "type": "address"
        }
      ],
      "name": "renounceRole",
      "outputs": [],
      "stateMutability": "nonpayable",
      "type": "function"
    },
    {
      "inputs": [
        {
          "internalType": "bytes32",
          "name": "role",
          "type": "bytes32"
        },
        {
          "internalType": "address",
          "name": "account",
          "type": "address"
        }
      ],
      "name": "revokeRole",
      "outputs": [],
      "stateMutability": "nonpayable",
      "type": "function"
    },
    {
      "inputs": [
        {
          "internalType": "address",
          "name": "_token",
          "type": "address"
        },
        {
          "internalType": "uint256",
          "name": "_accCaplPerShare",
          "type": "uint256"
        },
        {
          "internalType": "uint256",
          "name": "_lastRewardBlock",
          "type": "uint256"
        }
      ],
      "name": "setPool",
      "outputs": [
        {
          "components": [
            {
              "internalType": "uint256",
              "name": "totalPooled",
              "type": "uint256"
            },
            {
              "internalType": "uint256",
              "name": "rewardsPerBlock",
              "type": "uint256"
            },
            {
              "internalType": "uint256",
              "name": "accCaplPerShare",
              "type": "uint256"
            },
            {
              "internalType": "uint256",
              "name": "lastRewardBlock",
              "type": "uint256"
            }
          ],
          "internalType": "struct Vault.Pool",
          "name": "",
          "type": "tuple"
        }
      ],
      "stateMutability": "nonpayable",
      "type": "function"
    },
    {
      "inputs": [
        {
          "internalType": "address",
          "name": "_token",
          "type": "address"
        },
        {
          "internalType": "address",
          "name": "_user",
          "type": "address"
        },
        {
          "internalType": "uint256",
          "name": "_amount",
          "type": "uint256"
        },
        {
          "internalType": "uint256",
          "name": "_stakeId",
          "type": "uint256"
        }
      ],
      "name": "setStake",
      "outputs": [],
      "stateMutability": "nonpayable",
      "type": "function"
    },
    {
      "inputs": [
        {
          "internalType": "address",
          "name": "_token",
          "type": "address"
        },
        {
          "internalType": "address",
          "name": "_user",
          "type": "address"
        },
        {
          "internalType": "uint256",
          "name": "rewardDebt",
          "type": "uint256"
        }
      ],
      "name": "setUserDebt",
      "outputs": [],
      "stateMutability": "nonpayable",
      "type": "function"
    },
    {
      "inputs": [
        {
          "internalType": "address",
          "name": "_token",
          "type": "address"
        },
        {
          "internalType": "address",
          "name": "_user",
          "type": "address"
        },
        {
          "internalType": "uint256",
          "name": "_amount",
          "type": "uint256"
        },
        {
          "internalType": "uint256",
          "name": "_rewardDebt",
          "type": "uint256"
        }
      ],
      "name": "setUserPosition",
      "outputs": [],
      "stateMutability": "nonpayable",
      "type": "function"
    },
    {
      "inputs": [
        {
          "internalType": "bytes4",
          "name": "interfaceId",
          "type": "bytes4"
        }
      ],
      "name": "supportsInterface",
      "outputs": [
        {
          "internalType": "bool",
          "name": "",
          "type": "bool"
        }
      ],
      "stateMutability": "view",
      "type": "function"
    },
    {
      "inputs": [
        {
          "internalType": "address",
          "name": "_token",
          "type": "address"
        },
        {
          "internalType": "uint256",
          "name": "_accCaplPerShare",
          "type": "uint256"
        },
        {
          "internalType": "uint256",
          "name": "_lastRewardBlock",
          "type": "uint256"
        }
      ],
      "name": "updatePool",
      "outputs": [
        {
          "components": [
            {
              "internalType": "uint256",
              "name": "totalPooled",
              "type": "uint256"
            },
            {
              "internalType": "uint256",
              "name": "rewardsPerBlock",
              "type": "uint256"
            },
            {
              "internalType": "uint256",
              "name": "accCaplPerShare",
              "type": "uint256"
            },
            {
              "internalType": "uint256",
              "name": "lastRewardBlock",
              "type": "uint256"
            }
          ],
          "internalType": "struct Vault.Pool",
          "name": "",
          "type": "tuple"
        }
      ],
      "stateMutability": "nonpayable",
      "type": "function"
    },
    {
      "inputs": [
        {
          "internalType": "address",
          "name": "_token",
          "type": "address"
        },
        {
          "internalType": "address",
          "name": "_user",
          "type": "address"
        },
        {
          "internalType": "uint256",
          "name": "_amount",
          "type": "uint256"
        },
        {
          "internalType": "uint256",
          "name": "_newRewardDebt",
          "type": "uint256"
        }
      ],
      "name": "withdraw",
      "outputs": [],
      "stateMutability": "nonpayable",
      "type": "function"
    },
    {
      "inputs": [],
      "name": "withdrawMATIC",
      "outputs": [],
      "stateMutability": "payable",
      "type": "function"
    },
    {
      "inputs": [
        {
          "internalType": "address",
          "name": "_token",
          "type": "address"
        },
        {
          "internalType": "uint256",
          "name": "_amount",
          "type": "uint256"
        },
        {
          "internalType": "address",
          "name": "_destination",
          "type": "address"
        }
      ],
      "name": "withdrawToken",
      "outputs": [],
      "stateMutability": "nonpayable",
      "type": "function"
    }
  ],
  "bytecode": "0x608060405263082bdcb46002553480156200001957600080fd5b506000600160006101000a81548160ff0219169083151502179055506200004a6000801b336200008260201b60201c565b6200007c7f41a998b42530cff8f40cf375b6a586aeb2b2a8285995d3b4fb404116be349d78336200009860201b60201c565b620001fb565b6200009482826200009860201b60201c565b5050565b620000aa82826200018960201b60201c565b6200018557600160008084815260200190815260200160002060000160008373ffffffffffffffffffffffffffffffffffffffff1673ffffffffffffffffffffffffffffffffffffffff16815260200190815260200160002060006101000a81548160ff0219169083151502179055506200012a620001f360201b60201c565b73ffffffffffffffffffffffffffffffffffffffff168173ffffffffffffffffffffffffffffffffffffffff16837f2f8788117e7eff1d82e926ec794901d17c78024a50270940304540a733656f0d60405160405180910390a45b5050565b600080600084815260200190815260200160002060000160008373ffffffffffffffffffffffffffffffffffffffff1673ffffffffffffffffffffffffffffffffffffffff16815260200190815260200160002060009054906101000a900460ff16905092915050565b600033905090565b613c32806200020b6000396000f3fe6080604052600436106101b75760003560e01c80638a5bff6b116100ec578063c0034e0c1161008a578063d99f666811610064578063d99f66681461068a578063dfc2d1ba14610694578063f2866c78146106bd578063f5b5d237146106fa576101b7565b8063c0034e0c1461060d578063d2456a9514610638578063d547741f14610661576101b7565b80639338b7c9116100c65780639338b7c91461052b578063999126d714610568578063a217fddf146105a5578063bbe4f6db146105d0576101b7565b80638a5bff6b1461048857806391d14854146104b157806392a576e6146104ee576101b7565b806336568abe1161015957806356e45e4b1161013357806356e45e4b146103ba5780635c975abb146103f7578063695c0bb8146104225780637bfe950c1461045f576101b7565b806336568abe1461032b5780633ccdbb28146103545780633dff45e91461037d576101b7565b80631b2aa575116101955780631b2aa57514610273578063248a9ca31461029c5780632f2ff15d146102d957806332a9caba14610302576101b7565b80630122a7e8146101bc57806301ffc9a7146101f957806312229f1314610236575b600080fd5b3480156101c857600080fd5b506101e360048036038101906101de9190612a82565b610723565b6040516101f09190612adb565b60405180910390f35b34801561020557600080fd5b50610220600480360381019061021b9190612b4e565b610998565b60405161022d9190612b96565b60405180910390f35b34801561024257600080fd5b5061025d60048036038101906102589190612a82565b610a12565b60405161026a9190612adb565b60405180910390f35b34801561027f57600080fd5b5061029a60048036038101906102959190612bdd565b610ade565b005b3480156102a857600080fd5b506102c360048036038101906102be9190612c7a565b610bd6565b6040516102d09190612cb6565b60405180910390f35b3480156102e557600080fd5b5061030060048036038101906102fb9190612cd1565b610bf5565b005b34801561030e57600080fd5b5061032960048036038101906103249190612d11565b610c1e565b005b34801561033757600080fd5b50610352600480360381019061034d9190612cd1565b610d14565b005b34801561036057600080fd5b5061037b60048036038101906103769190612d51565b610d97565b005b34801561038957600080fd5b506103a4600480360381019061039f9190612da4565b610e5b565b6040516103b19190612e5b565b60405180910390f35b3480156103c657600080fd5b506103e160048036038101906103dc9190612e76565b610fe7565b6040516103ee9190612b96565b60405180910390f35b34801561040357600080fd5b5061040c611072565b6040516104199190612b96565b60405180910390f35b34801561042e57600080fd5b5061044960048036038101906104449190612da4565b611089565b6040516104569190612e5b565b60405180910390f35b34801561046b57600080fd5b5061048660048036038101906104819190612bdd565b61119a565b005b34801561049457600080fd5b506104af60048036038101906104aa9190612ea3565b611506565b005b3480156104bd57600080fd5b506104d860048036038101906104d39190612cd1565b6115c2565b6040516104e59190612b96565b60405180910390f35b3480156104fa57600080fd5b5061051560048036038101906105109190612a82565b61162c565b6040516105229190613092565b60405180910390f35b34801561053757600080fd5b50610552600480360381019061054d9190612a82565b6117e2565b60405161055f9190613109565b60405180910390f35b34801561057457600080fd5b5061058f600480360381019061058a9190612e76565b611a97565b60405161059c9190612b96565b60405180910390f35b3480156105b157600080fd5b506105ba611ae5565b6040516105c79190612cb6565b60405180910390f35b3480156105dc57600080fd5b506105f760048036038101906105f29190612e76565b611aec565b6040516106049190612e5b565b60405180910390f35b34801561061957600080fd5b50610622611bb5565b60405161062f9190612cb6565b60405180910390f35b34801561064457600080fd5b5061065f600480360381019061065a9190612bdd565b611bd9565b005b34801561066d57600080fd5b5061068860048036038101906106839190612cd1565b611d2c565b005b610692611d55565b005b3480156106a057600080fd5b506106bb60048036038101906106b69190612ea3565b611e36565b005b3480156106c957600080fd5b506106e460048036038101906106df9190612e76565b611f5a565b6040516106f19190612adb565b60405180910390f35b34801561070657600080fd5b50610721600480360381019061071c9190612bdd565b611fdd565b005b60007f41a998b42530cff8f40cf375b6a586aeb2b2a8285995d3b4fb404116be349d7861075781610752612191565b612199565b6000600360008573ffffffffffffffffffffffffffffffffffffffff1673ffffffffffffffffffffffffffffffffffffffff16815260200190815260200160002060008673ffffffffffffffffffffffffffffffffffffffff1673ffffffffffffffffffffffffffffffffffffffff16815260200190815260200160002090506000600360008673ffffffffffffffffffffffffffffffffffffffff1673ffffffffffffffffffffffffffffffffffffffff16815260200190815260200160002060008773ffffffffffffffffffffffffffffffffffffffff1673ffffffffffffffffffffffffffffffffffffffff168152602001908152602001600020600401805480602002602001604051908101604052809291908181526020016000905b828210156108e357838290600052602060002090600402016040518060800160405290816000820154815260200160018201548152602001600282015481526020016003820160009054906101000a900460ff16151515158152505081526020019060010190610878565b50505050905060008151146108fd57600093505050610991565b60008080846002015490505b835181101561097f574284828151811061092657610925613124565b5b60200260200101516040015111156109405780915061097f565b83818151811061095357610952613124565b5b6020026020010151600001518361096a9190613182565b92508080610977906131d8565b915050610909565b50808460020181905550819550505050505b5092915050565b60007f7965db0b000000000000000000000000000000000000000000000000000000007bffffffffffffffffffffffffffffffffffffffffffffffffffffffff1916827bffffffffffffffffffffffffffffffffffffffffffffffffffffffff19161480610a0b5750610a0a82612236565b5b9050919050565b60007f41a998b42530cff8f40cf375b6a586aeb2b2a8285995d3b4fb404116be349d78610a4681610a41612191565b612199565b6001600360008573ffffffffffffffffffffffffffffffffffffffff1673ffffffffffffffffffffffffffffffffffffffff16815260200190815260200160002060008673ffffffffffffffffffffffffffffffffffffffff1673ffffffffffffffffffffffffffffffffffffffff16815260200190815260200160002060040180549050610ad59190613221565b91505092915050565b7f41a998b42530cff8f40cf375b6a586aeb2b2a8285995d3b4fb404116be349d78610b1081610b0b612191565b612199565b6000600360008673ffffffffffffffffffffffffffffffffffffffff1673ffffffffffffffffffffffffffffffffffffffff16815260200190815260200160002060008773ffffffffffffffffffffffffffffffffffffffff1673ffffffffffffffffffffffffffffffffffffffff1681526020019081526020016000206004018381548110610ba357610ba2613124565b5b9060005260206000209060040201905083816000016000828254610bc79190613182565b92505081905550505050505050565b6000806000838152602001908152602001600020600101549050919050565b610bfe82610bd6565b610c0f81610c0a612191565b612199565b610c1983836122a0565b505050565b6000801b610c3381610c2e612191565b612199565b610c3c83611a97565b15610c7c576040517f08c379a0000000000000000000000000000000000000000000000000000000008152600401610c73906132b2565b60405180910390fd5b60006040518060800160405280600081526020018481526020016000815260200143815250905080600460008673ffffffffffffffffffffffffffffffffffffffff1673ffffffffffffffffffffffffffffffffffffffff1681526020019081526020016000206000820151816000015560208201518160010155604082015181600201556060820151816003015590505050505050565b610d1c612191565b73ffffffffffffffffffffffffffffffffffffffff168173ffffffffffffffffffffffffffffffffffffffff1614610d89576040517f08c379a0000000000000000000000000000000000000000000000000000000008152600401610d8090613344565b60405180910390fd5b610d938282612380565b5050565b6000801b610dac81610da7612191565b612199565b6000600460008673ffffffffffffffffffffffffffffffffffffffff1673ffffffffffffffffffffffffffffffffffffffff1681526020019081526020016000209050600084118015610e03575083816000015410155b610e0c57600080fd5b610e393084868873ffffffffffffffffffffffffffffffffffffffff16612461909392919063ffffffff16565b83816000016000828254610e4d9190613221565b925050819055505050505050565b610e63612993565b7f41a998b42530cff8f40cf375b6a586aeb2b2a8285995d3b4fb404116be349d78610e9581610e90612191565b612199565b610e9e85611a97565b610edd576040517f08c379a0000000000000000000000000000000000000000000000000000000008152600401610ed4906133b0565b60405180910390fd5b83600460008773ffffffffffffffffffffffffffffffffffffffff1673ffffffffffffffffffffffffffffffffffffffff1681526020019081526020016000206002018190555082600460008773ffffffffffffffffffffffffffffffffffffffff1673ffffffffffffffffffffffffffffffffffffffff16815260200190815260200160002060030181905550600460008673ffffffffffffffffffffffffffffffffffffffff1673ffffffffffffffffffffffffffffffffffffffff1681526020019081526020016000206040518060800160405290816000820154815260200160018201548152602001600282015481526020016003820154815250509150509392505050565b600080600360003373ffffffffffffffffffffffffffffffffffffffff1673ffffffffffffffffffffffffffffffffffffffff16815260200190815260200160002060008473ffffffffffffffffffffffffffffffffffffffff1673ffffffffffffffffffffffffffffffffffffffff16815260200190815260200160002060000154119050919050565b6000600160009054906101000a900460ff16905090565b611091612993565b81600460008673ffffffffffffffffffffffffffffffffffffffff1673ffffffffffffffffffffffffffffffffffffffff1681526020019081526020016000206003018190555082600460008673ffffffffffffffffffffffffffffffffffffffff1673ffffffffffffffffffffffffffffffffffffffff16815260200190815260200160002060020181905550600460008573ffffffffffffffffffffffffffffffffffffffff1673ffffffffffffffffffffffffffffffffffffffff16815260200190815260200160002060405180608001604052908160008201548152602001600182015481526020016002820154815260200160038201548152505090509392505050565b6111a2611072565b156111e2576040517f08c379a00000000000000000000000000000000000000000000000000000000081526004016111d99061341c565b60405180910390fd5b7f41a998b42530cff8f40cf375b6a586aeb2b2a8285995d3b4fb404116be349d786112148161120f612191565b612199565b60008311611257576040517f08c379a000000000000000000000000000000000000000000000000000000000815260040161124e90613488565b60405180910390fd5b6000600360008673ffffffffffffffffffffffffffffffffffffffff1673ffffffffffffffffffffffffffffffffffffffff16815260200190815260200160002060008773ffffffffffffffffffffffffffffffffffffffff1673ffffffffffffffffffffffffffffffffffffffff16815260200190815260200160002090508381600001541161131d576040517f08c379a00000000000000000000000000000000000000000000000000000000081526004016113149061351a565b60405180910390fd5b838160000160008282546113319190613221565b925050819055508281600101819055506000600460008873ffffffffffffffffffffffffffffffffffffffff1673ffffffffffffffffffffffffffffffffffffffff1681526020019081526020016000209050848160000160008282546113989190613221565b925050819055506000600360008873ffffffffffffffffffffffffffffffffffffffff1673ffffffffffffffffffffffffffffffffffffffff16815260200190815260200160002060008973ffffffffffffffffffffffffffffffffffffffff1673ffffffffffffffffffffffffffffffffffffffff168152602001908152602001600020600401905060005b836002015481116114935781818154811061144357611442613124565b5b9060005260206000209060040201600080820160009055600182016000905560028201600090556003820160006101000a81549060ff02191690555050808061148b906131d8565b915050611425565b506114c13088888b73ffffffffffffffffffffffffffffffffffffffff16612461909392919063ffffffff16565b7f9b1bfa7fa9ee420a16e124f794c35ac9f90472acc99140eb2f6447c714cad8eb8789886040516114f493929190613549565b60405180910390a15050505050505050565b7f41a998b42530cff8f40cf375b6a586aeb2b2a8285995d3b4fb404116be349d7861153881611533612191565b612199565b81600360008573ffffffffffffffffffffffffffffffffffffffff1673ffffffffffffffffffffffffffffffffffffffff16815260200190815260200160002060008673ffffffffffffffffffffffffffffffffffffffff1673ffffffffffffffffffffffffffffffffffffffff1681526020019081526020016000206001018190555050505050565b600080600084815260200190815260200160002060000160008373ffffffffffffffffffffffffffffffffffffffff1673ffffffffffffffffffffffffffffffffffffffff16815260200190815260200160002060009054906101000a900460ff16905092915050565b6116346129bb565b7f41a998b42530cff8f40cf375b6a586aeb2b2a8285995d3b4fb404116be349d7861166681611661612191565b612199565b600360008473ffffffffffffffffffffffffffffffffffffffff1673ffffffffffffffffffffffffffffffffffffffff16815260200190815260200160002060008573ffffffffffffffffffffffffffffffffffffffff1673ffffffffffffffffffffffffffffffffffffffff1681526020019081526020016000206040518060c00160405290816000820154815260200160018201548152602001600282015481526020016003820160009054906101000a900460ff161515151581526020016003820160019054906101000a900460ff1615151515815260200160048201805480602002602001604051908101604052809291908181526020016000905b828210156117d157838290600052602060002090600402016040518060800160405290816000820154815260200160018201548152602001600282015481526020016003820160009054906101000a900460ff16151515158152505081526020019060010190611766565b505050508152505091505092915050565b6117ea6129f5565b7f41a998b42530cff8f40cf375b6a586aeb2b2a8285995d3b4fb404116be349d7861181c81611817612191565b612199565b6000600360008573ffffffffffffffffffffffffffffffffffffffff1673ffffffffffffffffffffffffffffffffffffffff16815260200190815260200160002060008673ffffffffffffffffffffffffffffffffffffffff1673ffffffffffffffffffffffffffffffffffffffff1681526020019081526020016000206040518060c00160405290816000820154815260200160018201548152602001600282015481526020016003820160009054906101000a900460ff161515151581526020016003820160019054906101000a900460ff1615151515815260200160048201805480602002602001604051908101604052809291908181526020016000905b8282101561198957838290600052602060002090600402016040518060800160405290816000820154815260200160018201548152602001600282015481526020016003820160009054906101000a900460ff1615151515815250508152602001906001019061191e565b50505050815250509050600060018260a00151516119a79190613221565b9050600360008673ffffffffffffffffffffffffffffffffffffffff1673ffffffffffffffffffffffffffffffffffffffff16815260200190815260200160002060008773ffffffffffffffffffffffffffffffffffffffff1673ffffffffffffffffffffffffffffffffffffffff1681526020019081526020016000206004018181548110611a3a57611a39613124565b5b90600052602060002090600402016040518060800160405290816000820154815260200160018201548152602001600282015481526020016003820160009054906101000a900460ff161515151581525050935050505092915050565b600080600460008473ffffffffffffffffffffffffffffffffffffffff1673ffffffffffffffffffffffffffffffffffffffff16815260200190815260200160002060010154119050919050565b6000801b81565b611af4612993565b611afd82611a97565b611b3c576040517f08c379a0000000000000000000000000000000000000000000000000000000008152600401611b33906135cc565b60405180910390fd5b600460008373ffffffffffffffffffffffffffffffffffffffff1673ffffffffffffffffffffffffffffffffffffffff1681526020019081526020016000206040518060800160405290816000820154815260200160018201548152602001600282015481526020016003820154815250509050919050565b7f41a998b42530cff8f40cf375b6a586aeb2b2a8285995d3b4fb404116be349d7881565b7f41a998b42530cff8f40cf375b6a586aeb2b2a8285995d3b4fb404116be349d78611c0b81611c06612191565b612199565b82600360008673ffffffffffffffffffffffffffffffffffffffff1673ffffffffffffffffffffffffffffffffffffffff16815260200190815260200160002060008773ffffffffffffffffffffffffffffffffffffffff1673ffffffffffffffffffffffffffffffffffffffff1681526020019081526020016000206000016000828254611c9a9190613182565b9250508190555081600360008673ffffffffffffffffffffffffffffffffffffffff1673ffffffffffffffffffffffffffffffffffffffff16815260200190815260200160002060008773ffffffffffffffffffffffffffffffffffffffff1673ffffffffffffffffffffffffffffffffffffffff168152602001908152602001600020600101819055505050505050565b611d3582610bd6565b611d4681611d41612191565b612199565b611d508383612380565b505050565b6000801b611d6a81611d65612191565b612199565b60004711611dad576040517f08c379a0000000000000000000000000000000000000000000000000000000008152600401611da490613638565b60405180910390fd5b60004790503373ffffffffffffffffffffffffffffffffffffffff166108fc829081150290604051600060405180830381858888f19350505050158015611df8573d6000803e3d6000fd5b507f43b2a2d6daf661162c8c435ac5820ea5b1e0046355c5faac17d06ecb4f60f1533382604051611e2a929190613658565b60405180910390a15050565b6000604051806080016040528083815260200142815260200160025442611e5d9190613182565b8152602001600115158152509050600360008473ffffffffffffffffffffffffffffffffffffffff1673ffffffffffffffffffffffffffffffffffffffff16815260200190815260200160002060008573ffffffffffffffffffffffffffffffffffffffff1673ffffffffffffffffffffffffffffffffffffffff16815260200190815260200160002060040181908060018154018082558091505060019003906000526020600020906004020160009091909190915060008201518160000155602082015181600101556040820151816002015560608201518160030160006101000a81548160ff021916908315150217905550505050505050565b60008173ffffffffffffffffffffffffffffffffffffffff166370a08231306040518263ffffffff1660e01b8152600401611f959190613681565b602060405180830381865afa158015611fb2573d6000803e3d6000fd5b505050506040513d601f19601f82011682018060405250810190611fd691906136b1565b9050919050565b7f41a998b42530cff8f40cf375b6a586aeb2b2a8285995d3b4fb404116be349d7861200f8161200a612191565b612199565b60006040518060800160405280858152602001428152602001600254426120369190613182565b81526020016001151581525090506000600360008773ffffffffffffffffffffffffffffffffffffffff1673ffffffffffffffffffffffffffffffffffffffff16815260200190815260200160002060008873ffffffffffffffffffffffffffffffffffffffff1673ffffffffffffffffffffffffffffffffffffffff16815260200190815260200160002090508481600001819055508381600101819055506000816002018190555060008160030160006101000a81548160ff02191690831515021790555060018160030160016101000a81548160ff0219169083151502179055508060040182908060018154018082558091505060019003906000526020600020906004020160009091909190915060008201518160000155602082015181600101556040820151816002015560608201518160030160006101000a81548160ff021916908315150217905550505050505050505050565b600033905090565b6121a382826115c2565b612232576121c88173ffffffffffffffffffffffffffffffffffffffff1660146124ea565b6121d68360001c60206124ea565b6040516020016121e79291906137f0565b6040516020818303038152906040526040517f08c379a00000000000000000000000000000000000000000000000000000000081526004016122299190613874565b60405180910390fd5b5050565b60007f01ffc9a7000000000000000000000000000000000000000000000000000000007bffffffffffffffffffffffffffffffffffffffffffffffffffffffff1916827bffffffffffffffffffffffffffffffffffffffffffffffffffffffff1916149050919050565b6122aa82826115c2565b61237c57600160008084815260200190815260200160002060000160008373ffffffffffffffffffffffffffffffffffffffff1673ffffffffffffffffffffffffffffffffffffffff16815260200190815260200160002060006101000a81548160ff021916908315150217905550612321612191565b73ffffffffffffffffffffffffffffffffffffffff168173ffffffffffffffffffffffffffffffffffffffff16837f2f8788117e7eff1d82e926ec794901d17c78024a50270940304540a733656f0d60405160405180910390a45b5050565b61238a82826115c2565b1561245d57600080600084815260200190815260200160002060000160008373ffffffffffffffffffffffffffffffffffffffff1673ffffffffffffffffffffffffffffffffffffffff16815260200190815260200160002060006101000a81548160ff021916908315150217905550612402612191565b73ffffffffffffffffffffffffffffffffffffffff168173ffffffffffffffffffffffffffffffffffffffff16837ff6391f5c32d9c69d2a47ea670b442974b53935d1edc7fd64eb21e047a839171b60405160405180910390a45b5050565b6124e4846323b872dd60e01b85858560405160240161248293929190613549565b604051602081830303815290604052907bffffffffffffffffffffffffffffffffffffffffffffffffffffffff19166020820180517bffffffffffffffffffffffffffffffffffffffffffffffffffffffff8381831617835250505050612726565b50505050565b6060600060028360026124fd9190613896565b6125079190613182565b67ffffffffffffffff8111156125205761251f6138f0565b5b6040519080825280601f01601f1916602001820160405280156125525781602001600182028036833780820191505090505b5090507f30000000000000000000000000000000000000000000000000000000000000008160008151811061258a57612589613124565b5b60200101907effffffffffffffffffffffffffffffffffffffffffffffffffffffffffffff1916908160001a9053507f7800000000000000000000000000000000000000000000000000000000000000816001815181106125ee576125ed613124565b5b60200101907effffffffffffffffffffffffffffffffffffffffffffffffffffffffffffff1916908160001a9053506000600184600261262e9190613896565b6126389190613182565b90505b60018111156126d8577f3031323334353637383961626364656600000000000000000000000000000000600f86166010811061267a57612679613124565b5b1a60f81b82828151811061269157612690613124565b5b60200101907effffffffffffffffffffffffffffffffffffffffffffffffffffffffffffff1916908160001a905350600485901c9450806126d19061391f565b905061263b565b506000841461271c576040517f08c379a000000000000000000000000000000000000000000000000000000000815260040161271390613995565b60405180910390fd5b8091505092915050565b6000612788826040518060400160405280602081526020017f5361666545524332303a206c6f772d6c6576656c2063616c6c206661696c65648152508573ffffffffffffffffffffffffffffffffffffffff166127ed9092919063ffffffff16565b90506000815111156127e857808060200190518101906127a891906139e1565b6127e7576040517f08c379a00000000000000000000000000000000000000000000000000000000081526004016127de90613a80565b60405180910390fd5b5b505050565b60606127fc8484600085612805565b90509392505050565b60608247101561284a576040517f08c379a000000000000000000000000000000000000000000000000000000000815260040161284190613b12565b60405180910390fd5b61285385612919565b612892576040517f08c379a000000000000000000000000000000000000000000000000000000000815260040161288990613b7e565b60405180910390fd5b6000808673ffffffffffffffffffffffffffffffffffffffff1685876040516128bb9190613be5565b60006040518083038185875af1925050503d80600081146128f8576040519150601f19603f3d011682016040523d82523d6000602084013e6128fd565b606091505b509150915061290d82828661292c565b92505050949350505050565b600080823b905060008111915050919050565b6060831561293c5782905061298c565b60008351111561294f5782518084602001fd5b816040517f08c379a00000000000000000000000000000000000000000000000000000000081526004016129839190613874565b60405180910390fd5b9392505050565b6040518060800160405280600081526020016000815260200160008152602001600081525090565b6040518060c00160405280600081526020016000815260200160008152602001600015158152602001600015158152602001606081525090565b60405180608001604052806000815260200160008152602001600081526020016000151581525090565b600080fd5b600073ffffffffffffffffffffffffffffffffffffffff82169050919050565b6000612a4f82612a24565b9050919050565b612a5f81612a44565b8114612a6a57600080fd5b50565b600081359050612a7c81612a56565b92915050565b60008060408385031215612a9957612a98612a1f565b5b6000612aa785828601612a6d565b9250506020612ab885828601612a6d565b9150509250929050565b6000819050919050565b612ad581612ac2565b82525050565b6000602082019050612af06000830184612acc565b92915050565b60007fffffffff0000000000000000000000000000000000000000000000000000000082169050919050565b612b2b81612af6565b8114612b3657600080fd5b50565b600081359050612b4881612b22565b92915050565b600060208284031215612b6457612b63612a1f565b5b6000612b7284828501612b39565b91505092915050565b60008115159050919050565b612b9081612b7b565b82525050565b6000602082019050612bab6000830184612b87565b92915050565b612bba81612ac2565b8114612bc557600080fd5b50565b600081359050612bd781612bb1565b92915050565b60008060008060808587031215612bf757612bf6612a1f565b5b6000612c0587828801612a6d565b9450506020612c1687828801612a6d565b9350506040612c2787828801612bc8565b9250506060612c3887828801612bc8565b91505092959194509250565b6000819050919050565b612c5781612c44565b8114612c6257600080fd5b50565b600081359050612c7481612c4e565b92915050565b600060208284031215612c9057612c8f612a1f565b5b6000612c9e84828501612c65565b91505092915050565b612cb081612c44565b82525050565b6000602082019050612ccb6000830184612ca7565b92915050565b60008060408385031215612ce857612ce7612a1f565b5b6000612cf685828601612c65565b9250506020612d0785828601612a6d565b9150509250929050565b60008060408385031215612d2857612d27612a1f565b5b6000612d3685828601612a6d565b9250506020612d4785828601612bc8565b9150509250929050565b600080600060608486031215612d6a57612d69612a1f565b5b6000612d7886828701612a6d565b9350506020612d8986828701612bc8565b9250506040612d9a86828701612a6d565b9150509250925092565b600080600060608486031215612dbd57612dbc612a1f565b5b6000612dcb86828701612a6d565b9350506020612ddc86828701612bc8565b9250506040612ded86828701612bc8565b9150509250925092565b612e0081612ac2565b82525050565b608082016000820151612e1c6000850182612df7565b506020820151612e2f6020850182612df7565b506040820151612e426040850182612df7565b506060820151612e556060850182612df7565b50505050565b6000608082019050612e706000830184612e06565b92915050565b600060208284031215612e8c57612e8b612a1f565b5b6000612e9a84828501612a6d565b91505092915050565b600080600060608486031215612ebc57612ebb612a1f565b5b6000612eca86828701612a6d565b9350506020612edb86828701612a6d565b9250506040612eec86828701612bc8565b9150509250925092565b612eff81612b7b565b82525050565b600081519050919050565b600082825260208201905092915050565b6000819050602082019050919050565b608082016000820151612f476000850182612df7565b506020820151612f5a6020850182612df7565b506040820151612f6d6040850182612df7565b506060820151612f806060850182612ef6565b50505050565b6000612f928383612f31565b60808301905092915050565b6000602082019050919050565b6000612fb682612f05565b612fc08185612f10565b9350612fcb83612f21565b8060005b83811015612ffc578151612fe38882612f86565b9750612fee83612f9e565b925050600181019050612fcf565b5085935050505092915050565b600060c0830160008301516130216000860182612df7565b5060208301516130346020860182612df7565b5060408301516130476040860182612df7565b50606083015161305a6060860182612ef6565b50608083015161306d6080860182612ef6565b5060a083015184820360a08601526130858282612fab565b9150508091505092915050565b600060208201905081810360008301526130ac8184613009565b905092915050565b6080820160008201516130ca6000850182612df7565b5060208201516130dd6020850182612df7565b5060408201516130f06040850182612df7565b5060608201516131036060850182612ef6565b50505050565b600060808201905061311e60008301846130b4565b92915050565b7f4e487b7100000000000000000000000000000000000000000000000000000000600052603260045260246000fd5b7f4e487b7100000000000000000000000000000000000000000000000000000000600052601160045260246000fd5b600061318d82612ac2565b915061319883612ac2565b9250827fffffffffffffffffffffffffffffffffffffffffffffffffffffffffffffffff038211156131cd576131cc613153565b5b828201905092915050565b60006131e382612ac2565b91507fffffffffffffffffffffffffffffffffffffffffffffffffffffffffffffffff82141561321657613215613153565b5b600182019050919050565b600061322c82612ac2565b915061323783612ac2565b92508282101561324a57613249613153565b5b828203905092915050565b600082825260208201905092915050565b7f5468697320706f6f6c20616c7265616479206578697374732e00000000000000600082015250565b600061329c601983613255565b91506132a782613266565b602082019050919050565b600060208201905081810360008301526132cb8161328f565b9050919050565b7f416363657373436f6e74726f6c3a2063616e206f6e6c792072656e6f756e636560008201527f20726f6c657320666f722073656c660000000000000000000000000000000000602082015250565b600061332e602f83613255565b9150613339826132d2565b604082019050919050565b6000602082019050818103600083015261335d81613321565b9050919050565b7f506f6f6c20646f6573206e6f7420657869737400000000000000000000000000600082015250565b600061339a601383613255565b91506133a582613364565b602082019050919050565b600060208201905081810360008301526133c98161338d565b9050919050565b7f5061757361626c653a2070617573656400000000000000000000000000000000600082015250565b6000613406601083613255565b9150613411826133d0565b602082019050919050565b60006020820190508181036000830152613435816133f9565b9050919050565b7f416d6f756e742030000000000000000000000000000000000000000000000000600082015250565b6000613472600883613255565b915061347d8261343c565b602082019050919050565b600060208201905081810360008301526134a181613465565b9050919050565b7f57697468647261776e20616d6f756e742065786365656420746865207573657260008201527f2062616c616e6365000000000000000000000000000000000000000000000000602082015250565b6000613504602883613255565b915061350f826134a8565b604082019050919050565b60006020820190508181036000830152613533816134f7565b9050919050565b61354381612a44565b82525050565b600060608201905061355e600083018661353a565b61356b602083018561353a565b6135786040830184612acc565b949350505050565b7f54686520706f6f6c20646f6573206e6f74206578697374732e00000000000000600082015250565b60006135b6601983613255565b91506135c182613580565b602082019050919050565b600060208201905081810360008301526135e5816135a9565b9050919050565b7f6e6f206d6174696320746f207769746864726177000000000000000000000000600082015250565b6000613622601483613255565b915061362d826135ec565b602082019050919050565b6000602082019050818103600083015261365181613615565b9050919050565b600060408201905061366d600083018561353a565b61367a6020830184612acc565b9392505050565b6000602082019050613696600083018461353a565b92915050565b6000815190506136ab81612bb1565b92915050565b6000602082840312156136c7576136c6612a1f565b5b60006136d58482850161369c565b91505092915050565b600081905092915050565b7f416363657373436f6e74726f6c3a206163636f756e7420000000000000000000600082015250565b600061371f6017836136de565b915061372a826136e9565b601782019050919050565b600081519050919050565b60005b8381101561375e578082015181840152602081019050613743565b8381111561376d576000848401525b50505050565b600061377e82613735565b61378881856136de565b9350613798818560208601613740565b80840191505092915050565b7f206973206d697373696e6720726f6c6520000000000000000000000000000000600082015250565b60006137da6011836136de565b91506137e5826137a4565b601182019050919050565b60006137fb82613712565b91506138078285613773565b9150613812826137cd565b915061381e8284613773565b91508190509392505050565b6000601f19601f8301169050919050565b600061384682613735565b6138508185613255565b9350613860818560208601613740565b6138698161382a565b840191505092915050565b6000602082019050818103600083015261388e818461383b565b905092915050565b60006138a182612ac2565b91506138ac83612ac2565b9250817fffffffffffffffffffffffffffffffffffffffffffffffffffffffffffffffff04831182151516156138e5576138e4613153565b5b828202905092915050565b7f4e487b7100000000000000000000000000000000000000000000000000000000600052604160045260246000fd5b600061392a82612ac2565b9150600082141561393e5761393d613153565b5b600182039050919050565b7f537472696e67733a20686578206c656e67746820696e73756666696369656e74600082015250565b600061397f602083613255565b915061398a82613949565b602082019050919050565b600060208201905081810360008301526139ae81613972565b9050919050565b6139be81612b7b565b81146139c957600080fd5b50565b6000815190506139db816139b5565b92915050565b6000602082840312156139f7576139f6612a1f565b5b6000613a05848285016139cc565b91505092915050565b7f5361666545524332303a204552433230206f7065726174696f6e20646964206e60008201527f6f74207375636365656400000000000000000000000000000000000000000000602082015250565b6000613a6a602a83613255565b9150613a7582613a0e565b604082019050919050565b60006020820190508181036000830152613a9981613a5d565b9050919050565b7f416464726573733a20696e73756666696369656e742062616c616e636520666f60008201527f722063616c6c0000000000000000000000000000000000000000000000000000602082015250565b6000613afc602683613255565b9150613b0782613aa0565b604082019050919050565b60006020820190508181036000830152613b2b81613aef565b9050919050565b7f416464726573733a2063616c6c20746f206e6f6e2d636f6e7472616374000000600082015250565b6000613b68601d83613255565b9150613b7382613b32565b602082019050919050565b60006020820190508181036000830152613b9781613b5b565b9050919050565b600081519050919050565b600081905092915050565b6000613bbf82613b9e565b613bc98185613ba9565b9350613bd9818560208601613740565b80840191505092915050565b6000613bf18284613bb4565b91508190509291505056fea2646970667358221220faeaa8ed1764555319bfbfb04f15d687473d553d438c1f6facb7a47ae11e69cc64736f6c634300080b0033",
  "linkReferences": {},
  "deployedLinkReferences": {}
}