{
  "_format": "hh-sol-artifact-1",
  "contractName": "Vault",
  "sourceName": "contracts/vault/Vault.sol",
  "abi": [
    {
      "inputs": [],
      "stateMutability": "nonpayable",
      "type": "constructor"
    },
    {
      "anonymous": false,
      "inputs": [
        {
          "indexed": false,
          "internalType": "address",
          "name": "user",
          "type": "address"
        },
        {
          "indexed": false,
          "internalType": "address",
          "name": "token",
          "type": "address"
        },
        {
          "indexed": false,
          "internalType": "uint256",
          "name": "amount",
          "type": "uint256"
        }
      ],
      "name": "DepositVault",
      "type": "event"
    },
    {
      "anonymous": false,
      "inputs": [
        {
          "indexed": false,
          "internalType": "address",
          "name": "account",
          "type": "address"
        }
      ],
      "name": "Paused",
      "type": "event"
    },
    {
      "anonymous": false,
      "inputs": [
        {
          "indexed": true,
          "internalType": "bytes32",
          "name": "role",
          "type": "bytes32"
        },
        {
          "indexed": true,
          "internalType": "bytes32",
          "name": "previousAdminRole",
          "type": "bytes32"
        },
        {
          "indexed": true,
          "internalType": "bytes32",
          "name": "newAdminRole",
          "type": "bytes32"
        }
      ],
      "name": "RoleAdminChanged",
      "type": "event"
    },
    {
      "anonymous": false,
      "inputs": [
        {
          "indexed": true,
          "internalType": "bytes32",
          "name": "role",
          "type": "bytes32"
        },
        {
          "indexed": true,
          "internalType": "address",
          "name": "account",
          "type": "address"
        },
        {
          "indexed": true,
          "internalType": "address",
          "name": "sender",
          "type": "address"
        }
      ],
      "name": "RoleGranted",
      "type": "event"
    },
    {
      "anonymous": false,
      "inputs": [
        {
          "indexed": true,
          "internalType": "bytes32",
          "name": "role",
          "type": "bytes32"
        },
        {
          "indexed": true,
          "internalType": "address",
          "name": "account",
          "type": "address"
        },
        {
          "indexed": true,
          "internalType": "address",
          "name": "sender",
          "type": "address"
        }
      ],
      "name": "RoleRevoked",
      "type": "event"
    },
    {
      "anonymous": false,
      "inputs": [
        {
          "indexed": false,
          "internalType": "address",
          "name": "account",
          "type": "address"
        }
      ],
      "name": "Unpaused",
      "type": "event"
    },
    {
      "anonymous": false,
      "inputs": [
        {
          "indexed": false,
          "internalType": "address",
          "name": "destination",
          "type": "address"
        },
        {
          "indexed": false,
          "internalType": "uint256",
          "name": "amount",
          "type": "uint256"
        }
      ],
      "name": "WithdrawMATIC",
      "type": "event"
    },
    {
      "anonymous": false,
      "inputs": [
        {
          "indexed": false,
          "internalType": "address",
          "name": "user",
          "type": "address"
        },
        {
          "indexed": false,
          "internalType": "address",
          "name": "token",
          "type": "address"
        },
        {
          "indexed": false,
          "internalType": "uint256",
          "name": "amount",
          "type": "uint256"
        }
      ],
      "name": "WithdrawVault",
      "type": "event"
    },
    {
      "inputs": [],
      "name": "DEFAULT_ADMIN_ROLE",
      "outputs": [
        {
          "internalType": "bytes32",
          "name": "",
          "type": "bytes32"
        }
      ],
      "stateMutability": "view",
      "type": "function"
    },
    {
      "inputs": [
        {
          "internalType": "address",
          "name": "_token",
          "type": "address"
        },
        {
          "internalType": "address",
          "name": "_user",
          "type": "address"
        }
      ],
      "name": "checkIfPoolExists",
      "outputs": [
        {
          "internalType": "bool",
          "name": "",
          "type": "bool"
        }
      ],
      "stateMutability": "view",
      "type": "function"
    },
    {
      "inputs": [
        {
          "internalType": "address",
          "name": "_token",
          "type": "address"
        },
        {
          "internalType": "uint256",
          "name": "_amount",
          "type": "uint256"
        },
        {
          "internalType": "uint256",
          "name": "_rewardsPerDay",
          "type": "uint256"
        }
      ],
      "name": "createNewPool",
      "outputs": [],
      "stateMutability": "nonpayable",
      "type": "function"
    },
    {
      "inputs": [
        {
          "internalType": "address",
          "name": "_user",
          "type": "address"
        },
        {
          "internalType": "address",
          "name": "_token",
          "type": "address"
        },
        {
          "internalType": "uint256",
          "name": "_amount",
          "type": "uint256"
        }
      ],
      "name": "depositVault",
      "outputs": [],
      "stateMutability": "nonpayable",
      "type": "function"
    },
    {
      "inputs": [
        {
          "internalType": "address",
          "name": "_token",
          "type": "address"
        }
      ],
      "name": "getPoolInfo",
      "outputs": [
        {
          "components": [
            {
              "internalType": "uint256",
              "name": "totalPooled",
              "type": "uint256"
            },
            {
              "internalType": "uint256",
              "name": "rewardsPerBlock",
              "type": "uint256"
            },
            {
              "internalType": "uint256",
              "name": "accCaplPerShare",
              "type": "uint256"
            },
            {
              "internalType": "uint256",
              "name": "lastRewardBlock",
              "type": "uint256"
            }
          ],
          "internalType": "struct Vault.Pool",
          "name": "",
          "type": "tuple"
        }
      ],
      "stateMutability": "view",
      "type": "function"
    },
    {
      "inputs": [
        {
          "internalType": "bytes32",
          "name": "role",
          "type": "bytes32"
        }
      ],
      "name": "getRoleAdmin",
      "outputs": [
        {
          "internalType": "bytes32",
          "name": "",
          "type": "bytes32"
        }
      ],
      "stateMutability": "view",
      "type": "function"
    },
    {
      "inputs": [
        {
          "internalType": "bytes32",
          "name": "role",
          "type": "bytes32"
        },
        {
          "internalType": "address",
          "name": "account",
          "type": "address"
        }
      ],
      "name": "grantRole",
      "outputs": [],
      "stateMutability": "nonpayable",
      "type": "function"
    },
    {
      "inputs": [
        {
          "internalType": "bytes32",
          "name": "role",
          "type": "bytes32"
        },
        {
          "internalType": "address",
          "name": "account",
          "type": "address"
        }
      ],
      "name": "hasRole",
      "outputs": [
        {
          "internalType": "bool",
          "name": "",
          "type": "bool"
        }
      ],
      "stateMutability": "view",
      "type": "function"
    },
    {
      "inputs": [],
      "name": "paused",
      "outputs": [
        {
          "internalType": "bool",
          "name": "",
          "type": "bool"
        }
      ],
      "stateMutability": "view",
      "type": "function"
    },
    {
      "inputs": [
        {
          "internalType": "bytes32",
          "name": "role",
          "type": "bytes32"
        },
        {
          "internalType": "address",
          "name": "account",
          "type": "address"
        }
      ],
      "name": "renounceRole",
      "outputs": [],
      "stateMutability": "nonpayable",
      "type": "function"
    },
    {
      "inputs": [
        {
          "internalType": "bytes32",
          "name": "role",
          "type": "bytes32"
        },
        {
          "internalType": "address",
          "name": "account",
          "type": "address"
        }
      ],
      "name": "revokeRole",
      "outputs": [],
      "stateMutability": "nonpayable",
      "type": "function"
    },
    {
      "inputs": [
        {
          "internalType": "uint256",
          "name": "_duration",
          "type": "uint256"
        }
      ],
      "name": "setTimeLock",
      "outputs": [],
      "stateMutability": "nonpayable",
      "type": "function"
    },
    {
      "inputs": [
        {
          "internalType": "bytes4",
          "name": "interfaceId",
          "type": "bytes4"
        }
      ],
      "name": "supportsInterface",
      "outputs": [
        {
          "internalType": "bool",
          "name": "",
          "type": "bool"
        }
      ],
      "stateMutability": "view",
      "type": "function"
    },
    {
      "inputs": [
        {
          "internalType": "address",
          "name": "_destination",
          "type": "address"
        }
      ],
      "name": "withdrawMATIC",
      "outputs": [],
      "stateMutability": "payable",
      "type": "function"
    },
    {
      "inputs": [
        {
          "internalType": "address",
          "name": "_token",
          "type": "address"
        },
        {
          "internalType": "uint256",
          "name": "_amount",
          "type": "uint256"
        },
        {
          "internalType": "address",
          "name": "_destination",
          "type": "address"
        }
      ],
      "name": "withdrawToken",
      "outputs": [],
      "stateMutability": "nonpayable",
      "type": "function"
    },
    {
      "inputs": [
        {
          "internalType": "address",
          "name": "_user",
          "type": "address"
        },
        {
          "internalType": "address",
          "name": "_token",
          "type": "address"
        },
        {
          "internalType": "uint256",
          "name": "_amount",
          "type": "uint256"
        },
        {
          "internalType": "uint256",
          "name": "_stakeId",
          "type": "uint256"
        }
      ],
      "name": "withdrawVault",
      "outputs": [],
      "stateMutability": "nonpayable",
      "type": "function"
    }
  ],
  "bytecode": "0x608060405263082bdcb46002553480156200001957600080fd5b5060008060006101000a81548160ff021916908315150217905550620000496000801b336200004f60201b60201c565b620001c9565b6200006182826200006560201b60201c565b5050565b6200007782826200015660201b60201c565b6200015257600180600084815260200190815260200160002060000160008373ffffffffffffffffffffffffffffffffffffffff1673ffffffffffffffffffffffffffffffffffffffff16815260200190815260200160002060006101000a81548160ff021916908315150217905550620000f7620001c160201b60201c565b73ffffffffffffffffffffffffffffffffffffffff168173ffffffffffffffffffffffffffffffffffffffff16837f2f8788117e7eff1d82e926ec794901d17c78024a50270940304540a733656f0d60405160405180910390a45b5050565b60006001600084815260200190815260200160002060000160008373ffffffffffffffffffffffffffffffffffffffff1673ffffffffffffffffffffffffffffffffffffffff16815260200190815260200160002060009054906101000a900460ff16905092915050565b600033905090565b612a1680620001d96000396000f3fe6080604052600436106100f35760003560e01c80635bcb318a1161008a578063a217fddf11610059578063a217fddf1461033d578063ac5c7fae14610368578063d547741f14610391578063fa9a1a04146103ba576100f3565b80635bcb318a1461026f5780635c975abb146102985780635f7f14db146102c357806391d1485414610300576100f3565b806330e7e743116100c657806330e7e743146101d857806336568abe146101f45780633a8a4e721461021d5780633ccdbb2814610246576100f3565b806301ffc9a7146100f857806306bfa93814610135578063248a9ca3146101725780632f2ff15d146101af575b600080fd5b34801561010457600080fd5b5061011f600480360381019061011a9190611bff565b6103e3565b60405161012c9190611c47565b60405180910390f35b34801561014157600080fd5b5061015c60048036038101906101579190611cc0565b61045d565b6040516101699190611d5b565b60405180910390f35b34801561017e57600080fd5b5061019960048036038101906101949190611dac565b6104de565b6040516101a69190611de8565b60405180910390f35b3480156101bb57600080fd5b506101d660048036038101906101d19190611e03565b6104fe565b005b6101f260048036038101906101ed9190611cc0565b610527565b005b34801561020057600080fd5b5061021b60048036038101906102169190611e03565b61062f565b005b34801561022957600080fd5b50610244600480360381019061023f9190611e6f565b6106b2565b005b34801561025257600080fd5b5061026d60048036038101906102689190611ed6565b610996565b005b34801561027b57600080fd5b5061029660048036038101906102919190611f29565b610a5a565b005b3480156102a457600080fd5b506102ad610a7a565b6040516102ba9190611c47565b60405180910390f35b3480156102cf57600080fd5b506102ea60048036038101906102e59190611f56565b610a90565b6040516102f79190611c47565b60405180910390f35b34801561030c57600080fd5b5061032760048036038101906103229190611e03565b610b1f565b6040516103349190611c47565b60405180910390f35b34801561034957600080fd5b50610352610b8a565b60405161035f9190611de8565b60405180910390f35b34801561037457600080fd5b5061038f600480360381019061038a9190611f96565b610b91565b005b34801561039d57600080fd5b506103b860048036038101906103b39190611e03565b610eba565b005b3480156103c657600080fd5b506103e160048036038101906103dc9190611fe9565b610ee3565b005b60007f7965db0b000000000000000000000000000000000000000000000000000000007bffffffffffffffffffffffffffffffffffffffffffffffffffffffff1916827bffffffffffffffffffffffffffffffffffffffffffffffffffffffff191614806104565750610455826112fd565b5b9050919050565b610465611b10565b600660008373ffffffffffffffffffffffffffffffffffffffff1673ffffffffffffffffffffffffffffffffffffffff1681526020019081526020016000206040518060800160405290816000820154815260200160018201548152602001600282015481526020016003820154815250509050919050565b600060016000838152602001908152602001600020600101549050919050565b610507826104de565b61051881610513611367565b61136f565b610522838361140c565b505050565b6000801b61053c81610537611367565b61136f565b60004790506000808473ffffffffffffffffffffffffffffffffffffffff16836040516105689061206d565b60006040518083038185875af1925050503d80600081146105a5576040519150601f19603f3d011682016040523d82523d6000602084013e6105aa565b606091505b5091509150816105ef576040517f08c379a00000000000000000000000000000000000000000000000000000000081526004016105e6906120df565b60405180910390fd5b7f43b2a2d6daf661162c8c435ac5820ea5b1e0046355c5faac17d06ecb4f60f153858460405161062092919061211d565b60405180910390a15050505050565b610637611367565b73ffffffffffffffffffffffffffffffffffffffff168173ffffffffffffffffffffffffffffffffffffffff16146106a4576040517f08c379a000000000000000000000000000000000000000000000000000000000815260040161069b906121b8565b60405180910390fd5b6106ae82826114ec565b5050565b6106ba610a7a565b156106fa576040517f08c379a00000000000000000000000000000000000000000000000000000000081526004016106f190612224565b60405180910390fd5b6000821161073d576040517f08c379a000000000000000000000000000000000000000000000000000000000815260040161073490612290565b60405180910390fd5b6000600460008673ffffffffffffffffffffffffffffffffffffffff1673ffffffffffffffffffffffffffffffffffffffff16815260200190815260200160002060008573ffffffffffffffffffffffffffffffffffffffff1673ffffffffffffffffffffffffffffffffffffffff168152602001908152602001600020905082816000015411610803576040517f08c379a00000000000000000000000000000000000000000000000000000000081526004016107fa90612322565b60405180910390fd5b828160000160008282546108179190612371565b925050819055506000600660008673ffffffffffffffffffffffffffffffffffffffff1673ffffffffffffffffffffffffffffffffffffffff1681526020019081526020016000209050838160000160008282546108759190612371565b925050819055506000600560008873ffffffffffffffffffffffffffffffffffffffff1673ffffffffffffffffffffffffffffffffffffffff16815260200190815260200160002084815481106108cf576108ce6123a5565b5b90600052602060002090600402019050848160000160008282546108f39190612371565b925050819055506000816000015414156109255760008160030160006101000a81548160ff0219169083151502179055505b6109523088878973ffffffffffffffffffffffffffffffffffffffff166115ce909392919063ffffffff16565b7f68456fba341f47bb61de8683463da43524ea3048b5cd06a414db6325e23ee398878787604051610985939291906123d4565b60405180910390a150505050505050565b6000801b6109ab816109a6611367565b61136f565b6000600660008673ffffffffffffffffffffffffffffffffffffffff1673ffffffffffffffffffffffffffffffffffffffff1681526020019081526020016000209050600084118015610a02575083816000015410155b610a0b57600080fd5b610a383084868873ffffffffffffffffffffffffffffffffffffffff166115ce909392919063ffffffff16565b83816000016000828254610a4c9190612371565b925050819055505050505050565b6000801b610a6f81610a6a611367565b61136f565b816002819055505050565b60008060009054906101000a900460ff16905090565b600080600460008473ffffffffffffffffffffffffffffffffffffffff1673ffffffffffffffffffffffffffffffffffffffff16815260200190815260200160002060008573ffffffffffffffffffffffffffffffffffffffff1673ffffffffffffffffffffffffffffffffffffffff1681526020019081526020016000206002018054905011905092915050565b60006001600084815260200190815260200160002060000160008373ffffffffffffffffffffffffffffffffffffffff1673ffffffffffffffffffffffffffffffffffffffff16815260200190815260200160002060009054906101000a900460ff16905092915050565b6000801b81565b610b9b8333610a90565b15610bdb576040517f08c379a0000000000000000000000000000000000000000000000000000000008152600401610bd290612457565b60405180910390fd5b6000604051806080016040528084815260200142815260200160025442610c029190612477565b8152602001600115158152509050606060006040518060a001604052808681526020016000815260200183815260200160001515815260200160011515815250905080600460003373ffffffffffffffffffffffffffffffffffffffff1673ffffffffffffffffffffffffffffffffffffffff16815260200190815260200160002060008873ffffffffffffffffffffffffffffffffffffffff1673ffffffffffffffffffffffffffffffffffffffff16815260200190815260200160002060008201518160000155602082015181600101556040820151816002019080519060200190610cf1929190611b38565b5060608201518160030160006101000a81548160ff02191690831515021790555060808201518160030160016101000a81548160ff021916908315150217905550905050600460003373ffffffffffffffffffffffffffffffffffffffff1673ffffffffffffffffffffffffffffffffffffffff16815260200190815260200160002060008773ffffffffffffffffffffffffffffffffffffffff1673ffffffffffffffffffffffffffffffffffffffff16815260200190815260200160002060020160009080600181540180825580915050600190039060005260206000200160009091909190915055600560003373ffffffffffffffffffffffffffffffffffffffff1673ffffffffffffffffffffffffffffffffffffffff16815260200190815260200160002083908060018154018082558091505060019003906000526020600020906004020160009091909190915060008201518160000155602082015181600101556040820151816002015560608201518160030160006101000a81548160ff0219169083151502179055505050610eb23330878973ffffffffffffffffffffffffffffffffffffffff166115ce909392919063ffffffff16565b505050505050565b610ec3826104de565b610ed481610ecf611367565b61136f565b610ede83836114ec565b505050565b610eeb610a7a565b15610f2b576040517f08c379a0000000000000000000000000000000000000000000000000000000008152600401610f2290612224565b60405180910390fd5b60008111610f6e576040517f08c379a0000000000000000000000000000000000000000000000000000000008152600401610f6590612290565b60405180910390fd5b6000600460008573ffffffffffffffffffffffffffffffffffffffff1673ffffffffffffffffffffffffffffffffffffffff16815260200190815260200160002060008473ffffffffffffffffffffffffffffffffffffffff1673ffffffffffffffffffffffffffffffffffffffff1681526020019081526020016000209050818160000160008282546110029190612477565b92505081905550600081600201600183600201805490506110239190612371565b81548110611034576110336123a5565b5b906000526020600020015490506000600560008773ffffffffffffffffffffffffffffffffffffffff1673ffffffffffffffffffffffffffffffffffffffff1681526020019081526020016000208281548110611094576110936123a5565b5b906000526020600020906004020190506110ad81611657565b15611212576110bc8587610a90565b156110fc576040517f08c379a00000000000000000000000000000000000000000000000000000000081526004016110f390612457565b60405180910390fd5b60006040518060800160405280868152602001428152602001600254426111239190612477565b8152602001600115158152509050600560008873ffffffffffffffffffffffffffffffffffffffff1673ffffffffffffffffffffffffffffffffffffffff16815260200190815260200160002081908060018154018082558091505060019003906000526020600020906004020160009091909190915060008201518160000155602082015181600101556040820151816002015560608201518160030160006101000a81548160ff021916908315150217905550505083600201846002018054905090806001815401808255809150506001900390600052602060002001600090919091909150555061122e565b838160000160008282546112269190612477565b925050819055505b6000600660008773ffffffffffffffffffffffffffffffffffffffff1673ffffffffffffffffffffffffffffffffffffffff1681526020019081526020016000209050848160000160008282546112859190612477565b925050819055506112b98730878973ffffffffffffffffffffffffffffffffffffffff166115ce909392919063ffffffff16565b7f1ec74d8e4dc81a83767aeed9d17d24ec86f40b06682f17bf94957f709a5ff9f08787876040516112ec939291906123d4565b60405180910390a150505050505050565b60007f01ffc9a7000000000000000000000000000000000000000000000000000000007bffffffffffffffffffffffffffffffffffffffffffffffffffffffff1916827bffffffffffffffffffffffffffffffffffffffffffffffffffffffff1916149050919050565b600033905090565b6113798282610b1f565b6114085761139e8173ffffffffffffffffffffffffffffffffffffffff166014611667565b6113ac8360001c6020611667565b6040516020016113bd9291906125df565b6040516020818303038152906040526040517f08c379a00000000000000000000000000000000000000000000000000000000081526004016113ff9190612663565b60405180910390fd5b5050565b6114168282610b1f565b6114e857600180600084815260200190815260200160002060000160008373ffffffffffffffffffffffffffffffffffffffff1673ffffffffffffffffffffffffffffffffffffffff16815260200190815260200160002060006101000a81548160ff02191690831515021790555061148d611367565b73ffffffffffffffffffffffffffffffffffffffff168173ffffffffffffffffffffffffffffffffffffffff16837f2f8788117e7eff1d82e926ec794901d17c78024a50270940304540a733656f0d60405160405180910390a45b5050565b6114f68282610b1f565b156115ca5760006001600084815260200190815260200160002060000160008373ffffffffffffffffffffffffffffffffffffffff1673ffffffffffffffffffffffffffffffffffffffff16815260200190815260200160002060006101000a81548160ff02191690831515021790555061156f611367565b73ffffffffffffffffffffffffffffffffffffffff168173ffffffffffffffffffffffffffffffffffffffff16837ff6391f5c32d9c69d2a47ea670b442974b53935d1edc7fd64eb21e047a839171b60405160405180910390a45b5050565b611651846323b872dd60e01b8585856040516024016115ef939291906123d4565b604051602081830303815290604052907bffffffffffffffffffffffffffffffffffffffffffffffffffffffff19166020820180517bffffffffffffffffffffffffffffffffffffffffffffffffffffffff83818316178352505050506118a3565b50505050565b6000428260020154109050919050565b60606000600283600261167a9190612685565b6116849190612477565b67ffffffffffffffff81111561169d5761169c6126df565b5b6040519080825280601f01601f1916602001820160405280156116cf5781602001600182028036833780820191505090505b5090507f300000000000000000000000000000000000000000000000000000000000000081600081518110611707576117066123a5565b5b60200101907effffffffffffffffffffffffffffffffffffffffffffffffffffffffffffff1916908160001a9053507f78000000000000000000000000000000000000000000000000000000000000008160018151811061176b5761176a6123a5565b5b60200101907effffffffffffffffffffffffffffffffffffffffffffffffffffffffffffff1916908160001a905350600060018460026117ab9190612685565b6117b59190612477565b90505b6001811115611855577f3031323334353637383961626364656600000000000000000000000000000000600f8616601081106117f7576117f66123a5565b5b1a60f81b82828151811061180e5761180d6123a5565b5b60200101907effffffffffffffffffffffffffffffffffffffffffffffffffffffffffffff1916908160001a905350600485901c94508061184e9061270e565b90506117b8565b5060008414611899576040517f08c379a000000000000000000000000000000000000000000000000000000000815260040161189090612784565b60405180910390fd5b8091505092915050565b6000611905826040518060400160405280602081526020017f5361666545524332303a206c6f772d6c6576656c2063616c6c206661696c65648152508573ffffffffffffffffffffffffffffffffffffffff1661196a9092919063ffffffff16565b9050600081511115611965578080602001905181019061192591906127d0565b611964576040517f08c379a000000000000000000000000000000000000000000000000000000000815260040161195b9061286f565b60405180910390fd5b5b505050565b60606119798484600085611982565b90509392505050565b6060824710156119c7576040517f08c379a00000000000000000000000000000000000000000000000000000000081526004016119be90612901565b60405180910390fd5b6119d085611a96565b611a0f576040517f08c379a0000000000000000000000000000000000000000000000000000000008152600401611a069061296d565b60405180910390fd5b6000808673ffffffffffffffffffffffffffffffffffffffff168587604051611a3891906129c9565b60006040518083038185875af1925050503d8060008114611a75576040519150601f19603f3d011682016040523d82523d6000602084013e611a7a565b606091505b5091509150611a8a828286611aa9565b92505050949350505050565b600080823b905060008111915050919050565b60608315611ab957829050611b09565b600083511115611acc5782518084602001fd5b816040517f08c379a0000000000000000000000000000000000000000000000000000000008152600401611b009190612663565b60405180910390fd5b9392505050565b6040518060800160405280600081526020016000815260200160008152602001600081525090565b828054828255906000526020600020908101928215611b74579160200282015b82811115611b73578251825591602001919060010190611b58565b5b509050611b819190611b85565b5090565b5b80821115611b9e576000816000905550600101611b86565b5090565b600080fd5b60007fffffffff0000000000000000000000000000000000000000000000000000000082169050919050565b611bdc81611ba7565b8114611be757600080fd5b50565b600081359050611bf981611bd3565b92915050565b600060208284031215611c1557611c14611ba2565b5b6000611c2384828501611bea565b91505092915050565b60008115159050919050565b611c4181611c2c565b82525050565b6000602082019050611c5c6000830184611c38565b92915050565b600073ffffffffffffffffffffffffffffffffffffffff82169050919050565b6000611c8d82611c62565b9050919050565b611c9d81611c82565b8114611ca857600080fd5b50565b600081359050611cba81611c94565b92915050565b600060208284031215611cd657611cd5611ba2565b5b6000611ce484828501611cab565b91505092915050565b6000819050919050565b611d0081611ced565b82525050565b608082016000820151611d1c6000850182611cf7565b506020820151611d2f6020850182611cf7565b506040820151611d426040850182611cf7565b506060820151611d556060850182611cf7565b50505050565b6000608082019050611d706000830184611d06565b92915050565b6000819050919050565b611d8981611d76565b8114611d9457600080fd5b50565b600081359050611da681611d80565b92915050565b600060208284031215611dc257611dc1611ba2565b5b6000611dd084828501611d97565b91505092915050565b611de281611d76565b82525050565b6000602082019050611dfd6000830184611dd9565b92915050565b60008060408385031215611e1a57611e19611ba2565b5b6000611e2885828601611d97565b9250506020611e3985828601611cab565b9150509250929050565b611e4c81611ced565b8114611e5757600080fd5b50565b600081359050611e6981611e43565b92915050565b60008060008060808587031215611e8957611e88611ba2565b5b6000611e9787828801611cab565b9450506020611ea887828801611cab565b9350506040611eb987828801611e5a565b9250506060611eca87828801611e5a565b91505092959194509250565b600080600060608486031215611eef57611eee611ba2565b5b6000611efd86828701611cab565b9350506020611f0e86828701611e5a565b9250506040611f1f86828701611cab565b9150509250925092565b600060208284031215611f3f57611f3e611ba2565b5b6000611f4d84828501611e5a565b91505092915050565b60008060408385031215611f6d57611f6c611ba2565b5b6000611f7b85828601611cab565b9250506020611f8c85828601611cab565b9150509250929050565b600080600060608486031215611faf57611fae611ba2565b5b6000611fbd86828701611cab565b9350506020611fce86828701611e5a565b9250506040611fdf86828701611e5a565b9150509250925092565b60008060006060848603121561200257612001611ba2565b5b600061201086828701611cab565b935050602061202186828701611cab565b925050604061203286828701611e5a565b9150509250925092565b600081905092915050565b50565b600061205760008361203c565b915061206282612047565b600082019050919050565b60006120788261204a565b9150819050919050565b600082825260208201905092915050565b7f4661696c656420746f2073656e64204d41544943000000000000000000000000600082015250565b60006120c9601483612082565b91506120d482612093565b602082019050919050565b600060208201905081810360008301526120f8816120bc565b9050919050565b61210881611c82565b82525050565b61211781611ced565b82525050565b600060408201905061213260008301856120ff565b61213f602083018461210e565b9392505050565b7f416363657373436f6e74726f6c3a2063616e206f6e6c792072656e6f756e636560008201527f20726f6c657320666f722073656c660000000000000000000000000000000000602082015250565b60006121a2602f83612082565b91506121ad82612146565b604082019050919050565b600060208201905081810360008301526121d181612195565b9050919050565b7f5061757361626c653a2070617573656400000000000000000000000000000000600082015250565b600061220e601083612082565b9150612219826121d8565b602082019050919050565b6000602082019050818103600083015261223d81612201565b9050919050565b7f416d6f756e742030000000000000000000000000000000000000000000000000600082015250565b600061227a600883612082565b915061228582612244565b602082019050919050565b600060208201905081810360008301526122a98161226d565b9050919050565b7f57697468647261776e20616d6f756e742065786365656420746865207573657260008201527f2062616c616e6365000000000000000000000000000000000000000000000000602082015250565b600061230c602883612082565b9150612317826122b0565b604082019050919050565b6000602082019050818103600083015261233b816122ff565b9050919050565b7f4e487b7100000000000000000000000000000000000000000000000000000000600052601160045260246000fd5b600061237c82611ced565b915061238783611ced565b92508282101561239a57612399612342565b5b828203905092915050565b7f4e487b7100000000000000000000000000000000000000000000000000000000600052603260045260246000fd5b60006060820190506123e960008301866120ff565b6123f660208301856120ff565b612403604083018461210e565b949350505050565b7f5468697320706f6f6c20616c7265616479206578697374732e00000000000000600082015250565b6000612441601983612082565b915061244c8261240b565b602082019050919050565b6000602082019050818103600083015261247081612434565b9050919050565b600061248282611ced565b915061248d83611ced565b9250827fffffffffffffffffffffffffffffffffffffffffffffffffffffffffffffffff038211156124c2576124c1612342565b5b828201905092915050565b600081905092915050565b7f416363657373436f6e74726f6c3a206163636f756e7420000000000000000000600082015250565b600061250e6017836124cd565b9150612519826124d8565b601782019050919050565b600081519050919050565b60005b8381101561254d578082015181840152602081019050612532565b8381111561255c576000848401525b50505050565b600061256d82612524565b61257781856124cd565b935061258781856020860161252f565b80840191505092915050565b7f206973206d697373696e6720726f6c6520000000000000000000000000000000600082015250565b60006125c96011836124cd565b91506125d482612593565b601182019050919050565b60006125ea82612501565b91506125f68285612562565b9150612601826125bc565b915061260d8284612562565b91508190509392505050565b6000601f19601f8301169050919050565b600061263582612524565b61263f8185612082565b935061264f81856020860161252f565b61265881612619565b840191505092915050565b6000602082019050818103600083015261267d818461262a565b905092915050565b600061269082611ced565b915061269b83611ced565b9250817fffffffffffffffffffffffffffffffffffffffffffffffffffffffffffffffff04831182151516156126d4576126d3612342565b5b828202905092915050565b7f4e487b7100000000000000000000000000000000000000000000000000000000600052604160045260246000fd5b600061271982611ced565b9150600082141561272d5761272c612342565b5b600182039050919050565b7f537472696e67733a20686578206c656e67746820696e73756666696369656e74600082015250565b600061276e602083612082565b915061277982612738565b602082019050919050565b6000602082019050818103600083015261279d81612761565b9050919050565b6127ad81611c2c565b81146127b857600080fd5b50565b6000815190506127ca816127a4565b92915050565b6000602082840312156127e6576127e5611ba2565b5b60006127f4848285016127bb565b91505092915050565b7f5361666545524332303a204552433230206f7065726174696f6e20646964206e60008201527f6f74207375636365656400000000000000000000000000000000000000000000602082015250565b6000612859602a83612082565b9150612864826127fd565b604082019050919050565b600060208201905081810360008301526128888161284c565b9050919050565b7f416464726573733a20696e73756666696369656e742062616c616e636520666f60008201527f722063616c6c0000000000000000000000000000000000000000000000000000602082015250565b60006128eb602683612082565b91506128f68261288f565b604082019050919050565b6000602082019050818103600083015261291a816128de565b9050919050565b7f416464726573733a2063616c6c20746f206e6f6e2d636f6e7472616374000000600082015250565b6000612957601d83612082565b915061296282612921565b602082019050919050565b600060208201905081810360008301526129868161294a565b9050919050565b600081519050919050565b60006129a38261298d565b6129ad818561203c565b93506129bd81856020860161252f565b80840191505092915050565b60006129d58284612998565b91508190509291505056fea26469706673582212206eeb80c2267930f81fcce746e93c81c14de9f95d234df1851166ff8bf1c5291d64736f6c634300080b0033",
  "linkReferences": {},
  "deployedLinkReferences": {}
}