{
  "_format": "hh-sol-artifact-1",
  "contractName": "RevenueController",
  "sourceName": "contracts/treasury/RevenueController.sol",
  "abi": [
    {
      "inputs": [
        {
          "internalType": "address",
          "name": "_capl",
          "type": "address"
        },
        {
          "internalType": "address",
          "name": "_treasuryStorage",
          "type": "address"
        }
      ],
      "stateMutability": "nonpayable",
      "type": "constructor"
    },
    {
      "anonymous": false,
      "inputs": [
        {
          "indexed": true,
          "internalType": "address",
          "name": "_token",
          "type": "address"
        },
        {
          "indexed": false,
          "internalType": "address",
          "name": "_user",
          "type": "address"
        },
        {
          "indexed": false,
          "internalType": "uint256",
          "name": "_amount",
          "type": "uint256"
        }
      ],
      "name": "Deposit",
      "type": "event"
    },
    {
      "anonymous": false,
      "inputs": [
        {
          "indexed": true,
          "internalType": "address",
          "name": "_token",
          "type": "address"
        },
        {
          "indexed": true,
          "internalType": "address",
          "name": "_user",
          "type": "address"
        },
        {
          "indexed": false,
          "internalType": "uint256",
          "name": "_amount",
          "type": "uint256"
        }
      ],
      "name": "DistributeTokenAlloc",
      "type": "event"
    },
    {
      "anonymous": false,
      "inputs": [
        {
          "indexed": true,
          "internalType": "address",
          "name": "_token",
          "type": "address"
        },
        {
          "indexed": true,
          "internalType": "address",
          "name": "_user",
          "type": "address"
        },
        {
          "indexed": false,
          "internalType": "uint256",
          "name": "_amount",
          "type": "uint256"
        }
      ],
      "name": "Loan",
      "type": "event"
    },
    {
      "anonymous": false,
      "inputs": [
        {
          "indexed": true,
          "internalType": "address",
          "name": "_token",
          "type": "address"
        }
      ],
      "name": "PoolAdded",
      "type": "event"
    },
    {
      "anonymous": false,
      "inputs": [
        {
          "indexed": true,
          "internalType": "address",
          "name": "_token",
          "type": "address"
        },
        {
          "indexed": false,
          "internalType": "uint256",
          "name": "_amount",
          "type": "uint256"
        }
      ],
      "name": "PoolUpdated",
      "type": "event"
    },
    {
      "anonymous": false,
      "inputs": [
        {
          "indexed": true,
          "internalType": "bytes32",
          "name": "role",
          "type": "bytes32"
        },
        {
          "indexed": true,
          "internalType": "bytes32",
          "name": "previousAdminRole",
          "type": "bytes32"
        },
        {
          "indexed": true,
          "internalType": "bytes32",
          "name": "newAdminRole",
          "type": "bytes32"
        }
      ],
      "name": "RoleAdminChanged",
      "type": "event"
    },
    {
      "anonymous": false,
      "inputs": [
        {
          "indexed": true,
          "internalType": "bytes32",
          "name": "role",
          "type": "bytes32"
        },
        {
          "indexed": true,
          "internalType": "address",
          "name": "account",
          "type": "address"
        },
        {
          "indexed": true,
          "internalType": "address",
          "name": "sender",
          "type": "address"
        }
      ],
      "name": "RoleGranted",
      "type": "event"
    },
    {
      "anonymous": false,
      "inputs": [
        {
          "indexed": true,
          "internalType": "bytes32",
          "name": "role",
          "type": "bytes32"
        },
        {
          "indexed": true,
          "internalType": "address",
          "name": "account",
          "type": "address"
        },
        {
          "indexed": true,
          "internalType": "address",
          "name": "sender",
          "type": "address"
        }
      ],
      "name": "RoleRevoked",
      "type": "event"
    },
    {
      "anonymous": false,
      "inputs": [
        {
          "indexed": true,
          "internalType": "address",
          "name": "_token",
          "type": "address"
        },
        {
          "indexed": true,
          "internalType": "address",
          "name": "_user",
          "type": "address"
        },
        {
          "indexed": false,
          "internalType": "uint256",
          "name": "_amount",
          "type": "uint256"
        }
      ],
      "name": "Withdraw",
      "type": "event"
    },
    {
      "inputs": [],
      "name": "DEFAULT_ADMIN_ROLE",
      "outputs": [
        {
          "internalType": "bytes32",
          "name": "",
          "type": "bytes32"
        }
      ],
      "stateMutability": "view",
      "type": "function"
    },
    {
      "inputs": [
        {
          "internalType": "address",
          "name": "_token",
          "type": "address"
        }
      ],
      "name": "addPool",
      "outputs": [],
      "stateMutability": "nonpayable",
      "type": "function"
    },
    {
      "inputs": [
        {
          "internalType": "address",
          "name": "_token",
          "type": "address"
        },
        {
          "internalType": "uint256",
          "name": "_amount",
          "type": "uint256"
        }
      ],
      "name": "deposit",
      "outputs": [],
      "stateMutability": "nonpayable",
      "type": "function"
    },
    {
      "inputs": [
        {
          "internalType": "address",
          "name": "_token",
          "type": "address"
        }
      ],
      "name": "distributeTokenAlloc",
      "outputs": [],
      "stateMutability": "nonpayable",
      "type": "function"
    },
    {
      "inputs": [
        {
          "internalType": "bytes32",
          "name": "role",
          "type": "bytes32"
        }
      ],
      "name": "getRoleAdmin",
      "outputs": [
        {
          "internalType": "bytes32",
          "name": "",
          "type": "bytes32"
        }
      ],
      "stateMutability": "view",
      "type": "function"
    },
    {
      "inputs": [
        {
          "internalType": "address",
          "name": "_token",
          "type": "address"
        }
      ],
      "name": "getTokenAlloc",
      "outputs": [
        {
          "internalType": "uint256",
          "name": "",
          "type": "uint256"
        }
      ],
      "stateMutability": "view",
      "type": "function"
    },
    {
      "inputs": [
        {
          "internalType": "address",
          "name": "_token",
          "type": "address"
        }
      ],
      "name": "getTotalManagedValue",
      "outputs": [
        {
          "internalType": "uint256",
          "name": "totalManagedValue",
          "type": "uint256"
        }
      ],
      "stateMutability": "nonpayable",
      "type": "function"
    },
    {
      "inputs": [
        {
          "internalType": "bytes32",
          "name": "role",
          "type": "bytes32"
        },
        {
          "internalType": "address",
          "name": "account",
          "type": "address"
        }
      ],
      "name": "grantRole",
      "outputs": [],
      "stateMutability": "nonpayable",
      "type": "function"
    },
    {
      "inputs": [
        {
          "internalType": "bytes32",
          "name": "role",
          "type": "bytes32"
        },
        {
          "internalType": "address",
          "name": "account",
          "type": "address"
        }
      ],
      "name": "hasRole",
      "outputs": [
        {
          "internalType": "bool",
          "name": "",
          "type": "bool"
        }
      ],
      "stateMutability": "view",
      "type": "function"
    },
    {
      "inputs": [
        {
          "internalType": "address",
          "name": "token",
          "type": "address"
        },
        {
          "internalType": "uint256",
          "name": "amount",
          "type": "uint256"
        }
      ],
      "name": "loan",
      "outputs": [],
      "stateMutability": "nonpayable",
      "type": "function"
    },
    {
      "inputs": [
        {
          "internalType": "bytes32",
          "name": "role",
          "type": "bytes32"
        },
        {
          "internalType": "address",
          "name": "account",
          "type": "address"
        }
      ],
      "name": "renounceRole",
      "outputs": [],
      "stateMutability": "nonpayable",
      "type": "function"
    },
    {
      "inputs": [
        {
          "internalType": "bytes32",
          "name": "role",
          "type": "bytes32"
        },
        {
          "internalType": "address",
          "name": "account",
          "type": "address"
        }
      ],
      "name": "revokeRole",
      "outputs": [],
      "stateMutability": "nonpayable",
      "type": "function"
    },
    {
      "inputs": [
        {
          "internalType": "address",
          "name": "_destination",
          "type": "address"
        }
      ],
      "name": "setTreasuryStorage",
      "outputs": [],
      "stateMutability": "nonpayable",
      "type": "function"
    },
    {
      "inputs": [
        {
          "internalType": "bytes4",
          "name": "interfaceId",
          "type": "bytes4"
        }
      ],
      "name": "supportsInterface",
      "outputs": [
        {
          "internalType": "bool",
          "name": "",
          "type": "bool"
        }
      ],
      "stateMutability": "view",
      "type": "function"
    },
    {
      "inputs": [
        {
          "internalType": "address",
          "name": "_token",
          "type": "address"
        },
        {
          "internalType": "uint256",
          "name": "_principal",
          "type": "uint256"
        },
        {
          "internalType": "uint256",
          "name": "_profit",
          "type": "uint256"
        }
      ],
      "name": "treasuryIncome",
      "outputs": [],
      "stateMutability": "nonpayable",
      "type": "function"
    },
    {
      "inputs": [
        {
          "internalType": "address",
          "name": "_token",
          "type": "address"
        }
      ],
      "name": "withdraw",
      "outputs": [],
      "stateMutability": "nonpayable",
      "type": "function"
    }
  ],
  "bytecode": "0x60806040526138406004553480156200001757600080fd5b5060405162002d8338038062002d8383398181016040528101906200003d9190620002bf565b81600160006101000a81548173ffffffffffffffffffffffffffffffffffffffff021916908373ffffffffffffffffffffffffffffffffffffffff16021790555080600360006101000a81548173ffffffffffffffffffffffffffffffffffffffff021916908373ffffffffffffffffffffffffffffffffffffffff160217905550620000d46000801b33620000dc60201b60201c565b505062000306565b620000ee8282620000f260201b60201c565b5050565b620001048282620001e360201b60201c565b620001df57600160008084815260200190815260200160002060000160008373ffffffffffffffffffffffffffffffffffffffff1673ffffffffffffffffffffffffffffffffffffffff16815260200190815260200160002060006101000a81548160ff021916908315150217905550620001846200024d60201b60201c565b73ffffffffffffffffffffffffffffffffffffffff168173ffffffffffffffffffffffffffffffffffffffff16837f2f8788117e7eff1d82e926ec794901d17c78024a50270940304540a733656f0d60405160405180910390a45b5050565b600080600084815260200190815260200160002060000160008373ffffffffffffffffffffffffffffffffffffffff1673ffffffffffffffffffffffffffffffffffffffff16815260200190815260200160002060009054906101000a900460ff16905092915050565b600033905090565b600080fd5b600073ffffffffffffffffffffffffffffffffffffffff82169050919050565b600062000287826200025a565b9050919050565b62000299816200027a565b8114620002a557600080fd5b50565b600081519050620002b9816200028e565b92915050565b60008060408385031215620002d957620002d862000255565b5b6000620002e985828601620002a8565b9250506020620002fc85828601620002a8565b9150509250929050565b612a6d80620003166000396000f3fe608060405234801561001057600080fd5b50600436106101005760003560e01c8063542e884311610097578063aec5341511610066578063aec53415146102a7578063c18ebcf1146102c3578063d547741f146102f3578063d914cd4b1461030f57610100565b8063542e8843146102215780638b467cd21461023d57806391d1485414610259578063a217fddf1461028957610100565b806336568abe116100d357806336568abe1461019d57806342c0c085146101b957806347e7ef24146101e957806351cff8d91461020557610100565b806301ffc9a714610105578063185cc75114610135578063248a9ca3146101515780632f2ff15d14610181575b600080fd5b61011f600480360381019061011a9190611cf1565b61032b565b60405161012c9190611d39565b60405180910390f35b61014f600480360381019061014a9190611de8565b6103a5565b005b61016b60048036038101906101669190611e5e565b610548565b6040516101789190611e9a565b60405180910390f35b61019b60048036038101906101969190611eb5565b610567565b005b6101b760048036038101906101b29190611eb5565b610590565b005b6101d360048036038101906101ce9190611ef5565b610613565b6040516101e09190611f31565b60405180910390f35b61020360048036038101906101fe9190611de8565b61078e565b005b61021f600480360381019061021a9190611ef5565b610a3d565b005b61023b60048036038101906102369190611f4c565b610bd9565b005b61025760048036038101906102529190611ef5565b610dcf565b005b610273600480360381019061026e9190611eb5565b610e29565b6040516102809190611d39565b60405180910390f35b610291610e93565b60405161029e9190611e9a565b60405180910390f35b6102c160048036038101906102bc9190611ef5565b610e9a565b005b6102dd60048036038101906102d89190611ef5565b611112565b6040516102ea9190611f31565b60405180910390f35b61030d60048036038101906103089190611eb5565b6111b9565b005b61032960048036038101906103249190611ef5565b6111e2565b005b60007f7965db0b000000000000000000000000000000000000000000000000000000007bffffffffffffffffffffffffffffffffffffffffffffffffffffffff1916827bffffffffffffffffffffffffffffffffffffffffffffffffffffffff1916148061039e575061039d82611288565b5b9050919050565b80600260009054906101000a900473ffffffffffffffffffffffffffffffffffffffff1673ffffffffffffffffffffffffffffffffffffffff16630122a7e884336040518363ffffffff1660e01b8152600401610403929190611fae565b602060405180830381865afa158015610420573d6000803e3d6000fd5b505050506040513d601f19601f820116820180604052508101906104449190611fec565b1161044e57600080fd5b600260009054906101000a900473ffffffffffffffffffffffffffffffffffffffff1673ffffffffffffffffffffffffffffffffffffffff166361c811208333846040518463ffffffff1660e01b81526004016104ad93929190612019565b600060405180830381600087803b1580156104c757600080fd5b505af11580156104db573d6000803e3d6000fd5b505050503373ffffffffffffffffffffffffffffffffffffffff168273ffffffffffffffffffffffffffffffffffffffff167f4d699c2a3f40be9f50773ce2da5d80769decfefe6c4d557178af6e4a412d29a78360405161053c9190611f31565b60405180910390a35050565b6000806000838152602001908152602001600020600101549050919050565b61057082610548565b6105818161057c6112f2565b6112fa565b61058b8383611397565b505050565b6105986112f2565b73ffffffffffffffffffffffffffffffffffffffff168173ffffffffffffffffffffffffffffffffffffffff1614610605576040517f08c379a00000000000000000000000000000000000000000000000000000000081526004016105fc906120d3565b60405180910390fd5b61060f8282611477565b5050565b6000808273ffffffffffffffffffffffffffffffffffffffff166370a08231306040518263ffffffff1660e01b815260040161064f91906120f3565b602060405180830381865afa15801561066c573d6000803e3d6000fd5b505050506040513d601f19601f820116820180604052508101906106909190611fec565b90506000600360009054906101000a900473ffffffffffffffffffffffffffffffffffffffff1673ffffffffffffffffffffffffffffffffffffffff166392a576e685336040518363ffffffff1660e01b81526004016106f1929190611fae565b608060405180830381865afa15801561070e573d6000803e3d6000fd5b505050506040513d601f19601f820116820180604052508101906107329190612217565b905060008160600151436107469190612273565b9050600081601e60045461075a91906122a7565b6107649190612301565b8461076f9190612386565b90506000828261077f91906122a7565b90508095505050505050919050565b600360009054906101000a900473ffffffffffffffffffffffffffffffffffffffff16600260006101000a81548173ffffffffffffffffffffffffffffffffffffffff021916908373ffffffffffffffffffffffffffffffffffffffff160217905550600260009054906101000a900473ffffffffffffffffffffffffffffffffffffffff1673ffffffffffffffffffffffffffffffffffffffff1663999126d7836040518263ffffffff1660e01b815260040161084c91906120f3565b6020604051808303816000875af115801561086b573d6000803e3d6000fd5b505050506040513d601f19601f8201168201806040525081019061088f91906123e3565b6108ce576040517f08c379a00000000000000000000000000000000000000000000000000000000081526004016108c59061245c565b60405180910390fd5b6108d88282611558565b508173ffffffffffffffffffffffffffffffffffffffff1663095ea7b330836040518363ffffffff1660e01b815260040161091492919061247c565b6020604051808303816000875af1158015610933573d6000803e3d6000fd5b505050506040513d601f19601f8201168201806040525081019061095791906123e3565b50600260009054906101000a900473ffffffffffffffffffffffffffffffffffffffff1673ffffffffffffffffffffffffffffffffffffffff16638340f5493384846040518463ffffffff1660e01b81526004016109b793929190612019565b600060405180830381600087803b1580156109d157600080fd5b505af11580156109e5573d6000803e3d6000fd5b505050508173ffffffffffffffffffffffffffffffffffffffff167f5548c837ab068cf56a2c2479df0882a4922fd203edb7517321831d95078c5f623383604051610a3192919061247c565b60405180910390a25050565b6000600260009054906101000a900473ffffffffffffffffffffffffffffffffffffffff1673ffffffffffffffffffffffffffffffffffffffff16630122a7e883336040518363ffffffff1660e01b8152600401610a9c929190611fae565b602060405180830381865afa158015610ab9573d6000803e3d6000fd5b505050506040513d601f19601f82011682018060405250810190610add9190611fec565b9050600260009054906101000a900473ffffffffffffffffffffffffffffffffffffffff1673ffffffffffffffffffffffffffffffffffffffff1663d9caed128333846040518463ffffffff1660e01b8152600401610b3e93929190612019565b600060405180830381600087803b158015610b5857600080fd5b505af1158015610b6c573d6000803e3d6000fd5b505050503373ffffffffffffffffffffffffffffffffffffffff168273ffffffffffffffffffffffffffffffffffffffff167f9b1bfa7fa9ee420a16e124f794c35ac9f90472acc99140eb2f6447c714cad8eb83604051610bcd9190611f31565b60405180910390a35050565b600360009054906101000a900473ffffffffffffffffffffffffffffffffffffffff1673ffffffffffffffffffffffffffffffffffffffff16638ed7333d84846040518363ffffffff1660e01b8152600401610c3692919061247c565b6020604051808303816000875af1158015610c55573d6000803e3d6000fd5b505050506040513d601f19601f82011682018060405250810190610c7991906124e1565b50600360009054906101000a900473ffffffffffffffffffffffffffffffffffffffff1673ffffffffffffffffffffffffffffffffffffffff16633e0a56183385856040518463ffffffff1660e01b8152600401610cd993929190612019565b600060405180830381600087803b158015610cf357600080fd5b505af1158015610d07573d6000803e3d6000fd5b50505050600360009054906101000a900473ffffffffffffffffffffffffffffffffffffffff1673ffffffffffffffffffffffffffffffffffffffff1663d2456a9584336000436040518563ffffffff1660e01b8152600401610d6d9493929190612553565b600060405180830381600087803b158015610d8757600080fd5b505af1158015610d9b573d6000803e3d6000fd5b50505050610dca30828573ffffffffffffffffffffffffffffffffffffffff166116bf9092919063ffffffff16565b505050565b6000801b610de481610ddf6112f2565b6112fa565b81600360006101000a81548173ffffffffffffffffffffffffffffffffffffffff021916908373ffffffffffffffffffffffffffffffffffffffff1602179055505050565b600080600084815260200190815260200160002060000160008373ffffffffffffffffffffffffffffffffffffffff1673ffffffffffffffffffffffffffffffffffffffff16815260200190815260200160002060009054906101000a900460ff16905092915050565b6000801b81565b6000610ea582610613565b9050600360009054906101000a900473ffffffffffffffffffffffffffffffffffffffff1673ffffffffffffffffffffffffffffffffffffffff1663d2456a95833384436040518563ffffffff1660e01b8152600401610f089493929190612598565b600060405180830381600087803b158015610f2257600080fd5b505af1158015610f36573d6000803e3d6000fd5b50505050600360009054906101000a900473ffffffffffffffffffffffffffffffffffffffff1673ffffffffffffffffffffffffffffffffffffffff16638ed7333d83836040518363ffffffff1660e01b8152600401610f9792919061247c565b6020604051808303816000875af1158015610fb6573d6000803e3d6000fd5b505050506040513d601f19601f82011682018060405250810190610fda91906124e1565b508173ffffffffffffffffffffffffffffffffffffffff1663095ea7b330836040518363ffffffff1660e01b815260040161101692919061247c565b6020604051808303816000875af1158015611035573d6000803e3d6000fd5b505050506040513d601f19601f8201168201806040525081019061105991906123e3565b506110a930600360009054906101000a900473ffffffffffffffffffffffffffffffffffffffff16838573ffffffffffffffffffffffffffffffffffffffff16611745909392919063ffffffff16565b3373ffffffffffffffffffffffffffffffffffffffff168273ffffffffffffffffffffffffffffffffffffffff167f6d45cc590722b80b4d04bfde236db12ba92032c51cf7a3e3a97c60d325018a5f836040516111069190611f31565b60405180910390a35050565b6000600360009054906101000a900473ffffffffffffffffffffffffffffffffffffffff1673ffffffffffffffffffffffffffffffffffffffff1663f2866c78836040518263ffffffff1660e01b815260040161116f91906120f3565b6020604051808303816000875af115801561118e573d6000803e3d6000fd5b505050506040513d601f19601f820116820180604052508101906111b29190611fec565b9050919050565b6111c282610548565b6111d3816111ce6112f2565b6112fa565b6111dd8383611477565b505050565b6000801b6111f7816111f26112f2565b6112fa565b600360009054906101000a900473ffffffffffffffffffffffffffffffffffffffff1673ffffffffffffffffffffffffffffffffffffffff1663d914cd4b836040518263ffffffff1660e01b815260040161125291906120f3565b600060405180830381600087803b15801561126c57600080fd5b505af1158015611280573d6000803e3d6000fd5b505050505050565b60007f01ffc9a7000000000000000000000000000000000000000000000000000000007bffffffffffffffffffffffffffffffffffffffffffffffffffffffff1916827bffffffffffffffffffffffffffffffffffffffffffffffffffffffff1916149050919050565b600033905090565b6113048282610e29565b611393576113298173ffffffffffffffffffffffffffffffffffffffff1660146117ce565b6113378360001c60206117ce565b6040516020016113489291906126ef565b6040516020818303038152906040526040517f08c379a000000000000000000000000000000000000000000000000000000000815260040161138a9190612762565b60405180910390fd5b5050565b6113a18282610e29565b61147357600160008084815260200190815260200160002060000160008373ffffffffffffffffffffffffffffffffffffffff1673ffffffffffffffffffffffffffffffffffffffff16815260200190815260200160002060006101000a81548160ff0219169083151502179055506114186112f2565b73ffffffffffffffffffffffffffffffffffffffff168173ffffffffffffffffffffffffffffffffffffffff16837f2f8788117e7eff1d82e926ec794901d17c78024a50270940304540a733656f0d60405160405180910390a45b5050565b6114818282610e29565b1561155457600080600084815260200190815260200160002060000160008373ffffffffffffffffffffffffffffffffffffffff1673ffffffffffffffffffffffffffffffffffffffff16815260200190815260200160002060006101000a81548160ff0219169083151502179055506114f96112f2565b73ffffffffffffffffffffffffffffffffffffffff168173ffffffffffffffffffffffffffffffffffffffff16837ff6391f5c32d9c69d2a47ea670b442974b53935d1edc7fd64eb21e047a839171b60405160405180910390a45b5050565b611560611c77565b600360009054906101000a900473ffffffffffffffffffffffffffffffffffffffff16600260006101000a81548173ffffffffffffffffffffffffffffffffffffffff021916908373ffffffffffffffffffffffffffffffffffffffff1602179055506000600260009054906101000a900473ffffffffffffffffffffffffffffffffffffffff1673ffffffffffffffffffffffffffffffffffffffff16638ed7333d85856040518363ffffffff1660e01b815260040161162292919061247c565b6020604051808303816000875af1158015611641573d6000803e3d6000fd5b505050506040513d601f19601f8201168201806040525081019061166591906124e1565b90508373ffffffffffffffffffffffffffffffffffffffff167f2f4ae87a584f00dc35b043dd1c5ac839c1f41cd3a66e834d4e13faa6251634e6846040516116ad9190611f31565b60405180910390a28091505092915050565b6117408363a9059cbb60e01b84846040516024016116de92919061247c565b604051602081830303815290604052907bffffffffffffffffffffffffffffffffffffffffffffffffffffffff19166020820180517bffffffffffffffffffffffffffffffffffffffffffffffffffffffff8381831617835250505050611a0a565b505050565b6117c8846323b872dd60e01b85858560405160240161176693929190612019565b604051602081830303815290604052907bffffffffffffffffffffffffffffffffffffffffffffffffffffffff19166020820180517bffffffffffffffffffffffffffffffffffffffffffffffffffffffff8381831617835250505050611a0a565b50505050565b6060600060028360026117e191906122a7565b6117eb9190612301565b67ffffffffffffffff81111561180457611803612124565b5b6040519080825280601f01601f1916602001820160405280156118365781602001600182028036833780820191505090505b5090507f30000000000000000000000000000000000000000000000000000000000000008160008151811061186e5761186d612784565b5b60200101907effffffffffffffffffffffffffffffffffffffffffffffffffffffffffffff1916908160001a9053507f7800000000000000000000000000000000000000000000000000000000000000816001815181106118d2576118d1612784565b5b60200101907effffffffffffffffffffffffffffffffffffffffffffffffffffffffffffff1916908160001a9053506000600184600261191291906122a7565b61191c9190612301565b90505b60018111156119bc577f3031323334353637383961626364656600000000000000000000000000000000600f86166010811061195e5761195d612784565b5b1a60f81b82828151811061197557611974612784565b5b60200101907effffffffffffffffffffffffffffffffffffffffffffffffffffffffffffff1916908160001a905350600485901c9450806119b5906127b3565b905061191f565b5060008414611a00576040517f08c379a00000000000000000000000000000000000000000000000000000000081526004016119f790612829565b60405180910390fd5b8091505092915050565b6000611a6c826040518060400160405280602081526020017f5361666545524332303a206c6f772d6c6576656c2063616c6c206661696c65648152508573ffffffffffffffffffffffffffffffffffffffff16611ad19092919063ffffffff16565b9050600081511115611acc5780806020019051810190611a8c91906123e3565b611acb576040517f08c379a0000000000000000000000000000000000000000000000000000000008152600401611ac2906128bb565b60405180910390fd5b5b505050565b6060611ae08484600085611ae9565b90509392505050565b606082471015611b2e576040517f08c379a0000000000000000000000000000000000000000000000000000000008152600401611b259061294d565b60405180910390fd5b611b3785611bfd565b611b76576040517f08c379a0000000000000000000000000000000000000000000000000000000008152600401611b6d906129b9565b60405180910390fd5b6000808673ffffffffffffffffffffffffffffffffffffffff168587604051611b9f9190612a20565b60006040518083038185875af1925050503d8060008114611bdc576040519150601f19603f3d011682016040523d82523d6000602084013e611be1565b606091505b5091509150611bf1828286611c10565b92505050949350505050565b600080823b905060008111915050919050565b60608315611c2057829050611c70565b600083511115611c335782518084602001fd5b816040517f08c379a0000000000000000000000000000000000000000000000000000000008152600401611c679190612762565b60405180910390fd5b9392505050565b6040518060200160405280600081525090565b6000604051905090565b600080fd5b60007fffffffff0000000000000000000000000000000000000000000000000000000082169050919050565b611cce81611c99565b8114611cd957600080fd5b50565b600081359050611ceb81611cc5565b92915050565b600060208284031215611d0757611d06611c94565b5b6000611d1584828501611cdc565b91505092915050565b60008115159050919050565b611d3381611d1e565b82525050565b6000602082019050611d4e6000830184611d2a565b92915050565b600073ffffffffffffffffffffffffffffffffffffffff82169050919050565b6000611d7f82611d54565b9050919050565b611d8f81611d74565b8114611d9a57600080fd5b50565b600081359050611dac81611d86565b92915050565b6000819050919050565b611dc581611db2565b8114611dd057600080fd5b50565b600081359050611de281611dbc565b92915050565b60008060408385031215611dff57611dfe611c94565b5b6000611e0d85828601611d9d565b9250506020611e1e85828601611dd3565b9150509250929050565b6000819050919050565b611e3b81611e28565b8114611e4657600080fd5b50565b600081359050611e5881611e32565b92915050565b600060208284031215611e7457611e73611c94565b5b6000611e8284828501611e49565b91505092915050565b611e9481611e28565b82525050565b6000602082019050611eaf6000830184611e8b565b92915050565b60008060408385031215611ecc57611ecb611c94565b5b6000611eda85828601611e49565b9250506020611eeb85828601611d9d565b9150509250929050565b600060208284031215611f0b57611f0a611c94565b5b6000611f1984828501611d9d565b91505092915050565b611f2b81611db2565b82525050565b6000602082019050611f466000830184611f22565b92915050565b600080600060608486031215611f6557611f64611c94565b5b6000611f7386828701611d9d565b9350506020611f8486828701611dd3565b9250506040611f9586828701611dd3565b9150509250925092565b611fa881611d74565b82525050565b6000604082019050611fc36000830185611f9f565b611fd06020830184611f9f565b9392505050565b600081519050611fe681611dbc565b92915050565b60006020828403121561200257612001611c94565b5b600061201084828501611fd7565b91505092915050565b600060608201905061202e6000830186611f9f565b61203b6020830185611f9f565b6120486040830184611f22565b949350505050565b600082825260208201905092915050565b7f416363657373436f6e74726f6c3a2063616e206f6e6c792072656e6f756e636560008201527f20726f6c657320666f722073656c660000000000000000000000000000000000602082015250565b60006120bd602f83612050565b91506120c882612061565b604082019050919050565b600060208201905081810360008301526120ec816120b0565b9050919050565b60006020820190506121086000830184611f9f565b92915050565b600080fd5b6000601f19601f8301169050919050565b7f4e487b7100000000000000000000000000000000000000000000000000000000600052604160045260246000fd5b61215c82612113565b810181811067ffffffffffffffff8211171561217b5761217a612124565b5b80604052505050565b600061218e611c8a565b905061219a8282612153565b919050565b6000608082840312156121b5576121b461210e565b5b6121bf6080612184565b905060006121cf84828501611fd7565b60008301525060206121e384828501611fd7565b60208301525060406121f784828501611fd7565b604083015250606061220b84828501611fd7565b60608301525092915050565b60006080828403121561222d5761222c611c94565b5b600061223b8482850161219f565b91505092915050565b7f4e487b7100000000000000000000000000000000000000000000000000000000600052601160045260246000fd5b600061227e82611db2565b915061228983611db2565b92508282101561229c5761229b612244565b5b828203905092915050565b60006122b282611db2565b91506122bd83611db2565b9250817fffffffffffffffffffffffffffffffffffffffffffffffffffffffffffffffff04831182151516156122f6576122f5612244565b5b828202905092915050565b600061230c82611db2565b915061231783611db2565b9250827fffffffffffffffffffffffffffffffffffffffffffffffffffffffffffffffff0382111561234c5761234b612244565b5b828201905092915050565b7f4e487b7100000000000000000000000000000000000000000000000000000000600052601260045260246000fd5b600061239182611db2565b915061239c83611db2565b9250826123ac576123ab612357565b5b828204905092915050565b6123c081611d1e565b81146123cb57600080fd5b50565b6000815190506123dd816123b7565b92915050565b6000602082840312156123f9576123f8611c94565b5b6000612407848285016123ce565b91505092915050565b7f506f6f6c20646f6573206e6f7420657869737400000000000000000000000000600082015250565b6000612446601383612050565b915061245182612410565b602082019050919050565b6000602082019050818103600083015261247581612439565b9050919050565b60006040820190506124916000830185611f9f565b61249e6020830184611f22565b9392505050565b6000602082840312156124bb576124ba61210e565b5b6124c56020612184565b905060006124d584828501611fd7565b60008301525092915050565b6000602082840312156124f7576124f6611c94565b5b6000612505848285016124a5565b91505092915050565b6000819050919050565b6000819050919050565b600061253d6125386125338461250e565b612518565b611db2565b9050919050565b61254d81612522565b82525050565b60006080820190506125686000830187611f9f565b6125756020830186611f9f565b6125826040830185612544565b61258f6060830184611f22565b95945050505050565b60006080820190506125ad6000830187611f9f565b6125ba6020830186611f9f565b6125c76040830185611f22565b6125d46060830184611f22565b95945050505050565b600081905092915050565b7f416363657373436f6e74726f6c3a206163636f756e7420000000000000000000600082015250565b600061261e6017836125dd565b9150612629826125e8565b601782019050919050565b600081519050919050565b60005b8381101561265d578082015181840152602081019050612642565b8381111561266c576000848401525b50505050565b600061267d82612634565b61268781856125dd565b935061269781856020860161263f565b80840191505092915050565b7f206973206d697373696e6720726f6c6520000000000000000000000000000000600082015250565b60006126d96011836125dd565b91506126e4826126a3565b601182019050919050565b60006126fa82612611565b91506127068285612672565b9150612711826126cc565b915061271d8284612672565b91508190509392505050565b600061273482612634565b61273e8185612050565b935061274e81856020860161263f565b61275781612113565b840191505092915050565b6000602082019050818103600083015261277c8184612729565b905092915050565b7f4e487b7100000000000000000000000000000000000000000000000000000000600052603260045260246000fd5b60006127be82611db2565b915060008214156127d2576127d1612244565b5b600182039050919050565b7f537472696e67733a20686578206c656e67746820696e73756666696369656e74600082015250565b6000612813602083612050565b915061281e826127dd565b602082019050919050565b6000602082019050818103600083015261284281612806565b9050919050565b7f5361666545524332303a204552433230206f7065726174696f6e20646964206e60008201527f6f74207375636365656400000000000000000000000000000000000000000000602082015250565b60006128a5602a83612050565b91506128b082612849565b604082019050919050565b600060208201905081810360008301526128d481612898565b9050919050565b7f416464726573733a20696e73756666696369656e742062616c616e636520666f60008201527f722063616c6c0000000000000000000000000000000000000000000000000000602082015250565b6000612937602683612050565b9150612942826128db565b604082019050919050565b600060208201905081810360008301526129668161292a565b9050919050565b7f416464726573733a2063616c6c20746f206e6f6e2d636f6e7472616374000000600082015250565b60006129a3601d83612050565b91506129ae8261296d565b602082019050919050565b600060208201905081810360008301526129d281612996565b9050919050565b600081519050919050565b600081905092915050565b60006129fa826129d9565b612a0481856129e4565b9350612a1481856020860161263f565b80840191505092915050565b6000612a2c82846129ef565b91508190509291505056fea2646970667358221220105e559ec1e4f1cd52421becf792b38e68c8b871437a2f9abd7804fe4602495c64736f6c634300080b0033",
  "linkReferences": {},
  "deployedLinkReferences": {}
}