{
  "_format": "hh-sol-artifact-1",
  "contractName": "controller",
  "sourceName": "contracts/tokenController/Controller.sol",
  "abi": [
    {
      "inputs": [
        {
          "internalType": "address",
          "name": "_CAPL",
          "type": "address"
        },
        {
          "internalType": "address",
          "name": "_burner",
          "type": "address"
        }
      ],
      "stateMutability": "nonpayable",
      "type": "constructor"
    },
    {
      "anonymous": false,
      "inputs": [
        {
          "indexed": true,
          "internalType": "bytes32",
          "name": "role",
          "type": "bytes32"
        },
        {
          "indexed": true,
          "internalType": "bytes32",
          "name": "previousAdminRole",
          "type": "bytes32"
        },
        {
          "indexed": true,
          "internalType": "bytes32",
          "name": "newAdminRole",
          "type": "bytes32"
        }
      ],
      "name": "RoleAdminChanged",
      "type": "event"
    },
    {
      "anonymous": false,
      "inputs": [
        {
          "indexed": true,
          "internalType": "bytes32",
          "name": "role",
          "type": "bytes32"
        },
        {
          "indexed": true,
          "internalType": "address",
          "name": "account",
          "type": "address"
        },
        {
          "indexed": true,
          "internalType": "address",
          "name": "sender",
          "type": "address"
        }
      ],
      "name": "RoleGranted",
      "type": "event"
    },
    {
      "anonymous": false,
      "inputs": [
        {
          "indexed": true,
          "internalType": "bytes32",
          "name": "role",
          "type": "bytes32"
        },
        {
          "indexed": true,
          "internalType": "address",
          "name": "account",
          "type": "address"
        },
        {
          "indexed": true,
          "internalType": "address",
          "name": "sender",
          "type": "address"
        }
      ],
      "name": "RoleRevoked",
      "type": "event"
    },
    {
      "inputs": [],
      "name": "CAPL",
      "outputs": [
        {
          "internalType": "address",
          "name": "",
          "type": "address"
        }
      ],
      "stateMutability": "view",
      "type": "function"
    },
    {
      "inputs": [],
      "name": "DEFAULT_ADMIN_ROLE",
      "outputs": [
        {
          "internalType": "bytes32",
          "name": "",
          "type": "bytes32"
        }
      ],
      "stateMutability": "view",
      "type": "function"
    },
    {
      "inputs": [],
      "name": "MINTER",
      "outputs": [
        {
          "internalType": "bytes32",
          "name": "",
          "type": "bytes32"
        }
      ],
      "stateMutability": "view",
      "type": "function"
    },
    {
      "inputs": [
        {
          "internalType": "address",
          "name": "_account",
          "type": "address"
        }
      ],
      "name": "addMinter",
      "outputs": [],
      "stateMutability": "nonpayable",
      "type": "function"
    },
    {
      "inputs": [
        {
          "internalType": "uint256",
          "name": "amount",
          "type": "uint256"
        }
      ],
      "name": "burn",
      "outputs": [],
      "stateMutability": "nonpayable",
      "type": "function"
    },
    {
      "inputs": [],
      "name": "burner",
      "outputs": [
        {
          "internalType": "address",
          "name": "",
          "type": "address"
        }
      ],
      "stateMutability": "view",
      "type": "function"
    },
    {
      "inputs": [
        {
          "internalType": "bytes32",
          "name": "role",
          "type": "bytes32"
        }
      ],
      "name": "getRoleAdmin",
      "outputs": [
        {
          "internalType": "bytes32",
          "name": "",
          "type": "bytes32"
        }
      ],
      "stateMutability": "view",
      "type": "function"
    },
    {
      "inputs": [
        {
          "internalType": "bytes32",
          "name": "role",
          "type": "bytes32"
        },
        {
          "internalType": "address",
          "name": "account",
          "type": "address"
        }
      ],
      "name": "grantRole",
      "outputs": [],
      "stateMutability": "nonpayable",
      "type": "function"
    },
    {
      "inputs": [
        {
          "internalType": "bytes32",
          "name": "role",
          "type": "bytes32"
        },
        {
          "internalType": "address",
          "name": "account",
          "type": "address"
        }
      ],
      "name": "hasRole",
      "outputs": [
        {
          "internalType": "bool",
          "name": "",
          "type": "bool"
        }
      ],
      "stateMutability": "view",
      "type": "function"
    },
    {
      "inputs": [
        {
          "internalType": "address",
          "name": "destination",
          "type": "address"
        },
        {
          "internalType": "uint256",
          "name": "amount",
          "type": "uint256"
        }
      ],
      "name": "mint",
      "outputs": [],
      "stateMutability": "nonpayable",
      "type": "function"
    },
    {
      "inputs": [
        {
          "internalType": "bytes32",
          "name": "role",
          "type": "bytes32"
        },
        {
          "internalType": "address",
          "name": "account",
          "type": "address"
        }
      ],
      "name": "renounceRole",
      "outputs": [],
      "stateMutability": "nonpayable",
      "type": "function"
    },
    {
      "inputs": [
        {
          "internalType": "bytes32",
          "name": "role",
          "type": "bytes32"
        },
        {
          "internalType": "address",
          "name": "account",
          "type": "address"
        }
      ],
      "name": "revokeRole",
      "outputs": [],
      "stateMutability": "nonpayable",
      "type": "function"
    },
    {
      "inputs": [
        {
          "internalType": "bytes4",
          "name": "interfaceId",
          "type": "bytes4"
        }
      ],
      "name": "supportsInterface",
      "outputs": [
        {
          "internalType": "bool",
          "name": "",
          "type": "bool"
        }
      ],
      "stateMutability": "view",
      "type": "function"
    }
  ],
  "bytecode": "0x60806040523480156200001157600080fd5b5060405162001b9238038062001b928339818101604052810190620000379190620002eb565b81600160006101000a81548173ffffffffffffffffffffffffffffffffffffffff021916908373ffffffffffffffffffffffffffffffffffffffff16021790555080600260006101000a81548173ffffffffffffffffffffffffffffffffffffffff021916908373ffffffffffffffffffffffffffffffffffffffff160217905550620000ce6000801b336200010860201b60201c565b620001007ff0887ba65ee2024ea881d91b74c2450ef19e1557f03bed3ea9f16b037cbe2dc9336200011e60201b60201c565b505062000332565b6200011a82826200011e60201b60201c565b5050565b6200013082826200020f60201b60201c565b6200020b57600160008084815260200190815260200160002060000160008373ffffffffffffffffffffffffffffffffffffffff1673ffffffffffffffffffffffffffffffffffffffff16815260200190815260200160002060006101000a81548160ff021916908315150217905550620001b06200027960201b60201c565b73ffffffffffffffffffffffffffffffffffffffff168173ffffffffffffffffffffffffffffffffffffffff16837f2f8788117e7eff1d82e926ec794901d17c78024a50270940304540a733656f0d60405160405180910390a45b5050565b600080600084815260200190815260200160002060000160008373ffffffffffffffffffffffffffffffffffffffff1673ffffffffffffffffffffffffffffffffffffffff16815260200190815260200160002060009054906101000a900460ff16905092915050565b600033905090565b600080fd5b600073ffffffffffffffffffffffffffffffffffffffff82169050919050565b6000620002b38262000286565b9050919050565b620002c581620002a6565b8114620002d157600080fd5b50565b600081519050620002e581620002ba565b92915050565b6000806040838503121562000305576200030462000281565b5b60006200031585828601620002d4565b92505060206200032885828601620002d4565b9150509250929050565b61185080620003426000396000f3fe608060405234801561001057600080fd5b50600436106100cf5760003560e01c806342966c681161008c578063a217fddf11610066578063a217fddf1461020e578063cd31c7951461022c578063d547741f1461024a578063fe6d812414610266576100cf565b806342966c68146101a657806391d14854146101c2578063983b2d56146101f2576100cf565b806301ffc9a7146100d4578063248a9ca31461010457806327810b6e146101345780632f2ff15d1461015257806336568abe1461016e57806340c10f191461018a575b600080fd5b6100ee60048036038101906100e99190610ee5565b610284565b6040516100fb9190610f2d565b60405180910390f35b61011e60048036038101906101199190610f7e565b6102fe565b60405161012b9190610fba565b60405180910390f35b61013c61031d565b6040516101499190611016565b60405180910390f35b61016c6004803603810190610167919061105d565b610343565b005b6101886004803603810190610183919061105d565b61036c565b005b6101a4600480360381019061019f91906110d3565b6103ef565b005b6101c060048036038101906101bb9190611113565b6104b5565b005b6101dc60048036038101906101d7919061105d565b61053d565b6040516101e99190610f2d565b60405180910390f35b61020c60048036038101906102079190611140565b6105a7565b005b61021661060f565b6040516102239190610fba565b60405180910390f35b610234610616565b6040516102419190611016565b60405180910390f35b610264600480360381019061025f919061105d565b61063c565b005b61026e610665565b60405161027b9190610fba565b60405180910390f35b60007f7965db0b000000000000000000000000000000000000000000000000000000007bffffffffffffffffffffffffffffffffffffffffffffffffffffffff1916827bffffffffffffffffffffffffffffffffffffffffffffffffffffffff191614806102f757506102f682610689565b5b9050919050565b6000806000838152602001908152602001600020600101549050919050565b600260009054906101000a900473ffffffffffffffffffffffffffffffffffffffff1681565b61034c826102fe565b61035d816103586106f3565b6106fb565b6103678383610798565b505050565b6103746106f3565b73ffffffffffffffffffffffffffffffffffffffff168173ffffffffffffffffffffffffffffffffffffffff16146103e1576040517f08c379a00000000000000000000000000000000000000000000000000000000081526004016103d8906111f0565b60405180910390fd5b6103eb8282610878565b5050565b7ff0887ba65ee2024ea881d91b74c2450ef19e1557f03bed3ea9f16b037cbe2dc96104218161041c6106f3565b6106fb565b600160009054906101000a900473ffffffffffffffffffffffffffffffffffffffff1673ffffffffffffffffffffffffffffffffffffffff166340c10f1984846040518363ffffffff1660e01b815260040161047e92919061121f565b600060405180830381600087803b15801561049857600080fd5b505af11580156104ac573d6000803e3d6000fd5b50505050505050565b6000801b6104ca816104c56106f3565b6106fb565b610539600260009054906101000a900473ffffffffffffffffffffffffffffffffffffffff1683600160009054906101000a900473ffffffffffffffffffffffffffffffffffffffff1673ffffffffffffffffffffffffffffffffffffffff166109599092919063ffffffff16565b5050565b600080600084815260200190815260200160002060000160008373ffffffffffffffffffffffffffffffffffffffff1673ffffffffffffffffffffffffffffffffffffffff16815260200190815260200160002060009054906101000a900460ff16905092915050565b6105d07ff0887ba65ee2024ea881d91b74c2450ef19e1557f03bed3ea9f16b037cbe2dc96102fe565b6105e1816105dc6106f3565b6106fb565b61060b7ff0887ba65ee2024ea881d91b74c2450ef19e1557f03bed3ea9f16b037cbe2dc983610343565b5050565b6000801b81565b600160009054906101000a900473ffffffffffffffffffffffffffffffffffffffff1681565b610645826102fe565b610656816106516106f3565b6106fb565b6106608383610878565b505050565b7ff0887ba65ee2024ea881d91b74c2450ef19e1557f03bed3ea9f16b037cbe2dc981565b60007f01ffc9a7000000000000000000000000000000000000000000000000000000007bffffffffffffffffffffffffffffffffffffffffffffffffffffffff1916827bffffffffffffffffffffffffffffffffffffffffffffffffffffffff1916149050919050565b600033905090565b610705828261053d565b6107945761072a8173ffffffffffffffffffffffffffffffffffffffff1660146109df565b6107388360001c60206109df565b60405160200161074992919061135a565b6040516020818303038152906040526040517f08c379a000000000000000000000000000000000000000000000000000000000815260040161078b91906113de565b60405180910390fd5b5050565b6107a2828261053d565b61087457600160008084815260200190815260200160002060000160008373ffffffffffffffffffffffffffffffffffffffff1673ffffffffffffffffffffffffffffffffffffffff16815260200190815260200160002060006101000a81548160ff0219169083151502179055506108196106f3565b73ffffffffffffffffffffffffffffffffffffffff168173ffffffffffffffffffffffffffffffffffffffff16837f2f8788117e7eff1d82e926ec794901d17c78024a50270940304540a733656f0d60405160405180910390a45b5050565b610882828261053d565b1561095557600080600084815260200190815260200160002060000160008373ffffffffffffffffffffffffffffffffffffffff1673ffffffffffffffffffffffffffffffffffffffff16815260200190815260200160002060006101000a81548160ff0219169083151502179055506108fa6106f3565b73ffffffffffffffffffffffffffffffffffffffff168173ffffffffffffffffffffffffffffffffffffffff16837ff6391f5c32d9c69d2a47ea670b442974b53935d1edc7fd64eb21e047a839171b60405160405180910390a45b5050565b6109da8363a9059cbb60e01b848460405160240161097892919061121f565b604051602081830303815290604052907bffffffffffffffffffffffffffffffffffffffffffffffffffffffff19166020820180517bffffffffffffffffffffffffffffffffffffffffffffffffffffffff8381831617835250505050610c1b565b505050565b6060600060028360026109f2919061142f565b6109fc9190611489565b67ffffffffffffffff811115610a1557610a146114df565b5b6040519080825280601f01601f191660200182016040528015610a475781602001600182028036833780820191505090505b5090507f300000000000000000000000000000000000000000000000000000000000000081600081518110610a7f57610a7e61150e565b5b60200101907effffffffffffffffffffffffffffffffffffffffffffffffffffffffffffff1916908160001a9053507f780000000000000000000000000000000000000000000000000000000000000081600181518110610ae357610ae261150e565b5b60200101907effffffffffffffffffffffffffffffffffffffffffffffffffffffffffffff1916908160001a90535060006001846002610b23919061142f565b610b2d9190611489565b90505b6001811115610bcd577f3031323334353637383961626364656600000000000000000000000000000000600f861660108110610b6f57610b6e61150e565b5b1a60f81b828281518110610b8657610b8561150e565b5b60200101907effffffffffffffffffffffffffffffffffffffffffffffffffffffffffffff1916908160001a905350600485901c945080610bc69061153d565b9050610b30565b5060008414610c11576040517f08c379a0000000000000000000000000000000000000000000000000000000008152600401610c08906115b3565b60405180910390fd5b8091505092915050565b6000610c7d826040518060400160405280602081526020017f5361666545524332303a206c6f772d6c6576656c2063616c6c206661696c65648152508573ffffffffffffffffffffffffffffffffffffffff16610ce29092919063ffffffff16565b9050600081511115610cdd5780806020019051810190610c9d91906115ff565b610cdc576040517f08c379a0000000000000000000000000000000000000000000000000000000008152600401610cd39061169e565b60405180910390fd5b5b505050565b6060610cf18484600085610cfa565b90509392505050565b606082471015610d3f576040517f08c379a0000000000000000000000000000000000000000000000000000000008152600401610d3690611730565b60405180910390fd5b610d4885610e0e565b610d87576040517f08c379a0000000000000000000000000000000000000000000000000000000008152600401610d7e9061179c565b60405180910390fd5b6000808673ffffffffffffffffffffffffffffffffffffffff168587604051610db09190611803565b60006040518083038185875af1925050503d8060008114610ded576040519150601f19603f3d011682016040523d82523d6000602084013e610df2565b606091505b5091509150610e02828286610e21565b92505050949350505050565b600080823b905060008111915050919050565b60608315610e3157829050610e81565b600083511115610e445782518084602001fd5b816040517f08c379a0000000000000000000000000000000000000000000000000000000008152600401610e7891906113de565b60405180910390fd5b9392505050565b600080fd5b60007fffffffff0000000000000000000000000000000000000000000000000000000082169050919050565b610ec281610e8d565b8114610ecd57600080fd5b50565b600081359050610edf81610eb9565b92915050565b600060208284031215610efb57610efa610e88565b5b6000610f0984828501610ed0565b91505092915050565b60008115159050919050565b610f2781610f12565b82525050565b6000602082019050610f426000830184610f1e565b92915050565b6000819050919050565b610f5b81610f48565b8114610f6657600080fd5b50565b600081359050610f7881610f52565b92915050565b600060208284031215610f9457610f93610e88565b5b6000610fa284828501610f69565b91505092915050565b610fb481610f48565b82525050565b6000602082019050610fcf6000830184610fab565b92915050565b600073ffffffffffffffffffffffffffffffffffffffff82169050919050565b600061100082610fd5565b9050919050565b61101081610ff5565b82525050565b600060208201905061102b6000830184611007565b92915050565b61103a81610ff5565b811461104557600080fd5b50565b60008135905061105781611031565b92915050565b6000806040838503121561107457611073610e88565b5b600061108285828601610f69565b925050602061109385828601611048565b9150509250929050565b6000819050919050565b6110b08161109d565b81146110bb57600080fd5b50565b6000813590506110cd816110a7565b92915050565b600080604083850312156110ea576110e9610e88565b5b60006110f885828601611048565b9250506020611109858286016110be565b9150509250929050565b60006020828403121561112957611128610e88565b5b6000611137848285016110be565b91505092915050565b60006020828403121561115657611155610e88565b5b600061116484828501611048565b91505092915050565b600082825260208201905092915050565b7f416363657373436f6e74726f6c3a2063616e206f6e6c792072656e6f756e636560008201527f20726f6c657320666f722073656c660000000000000000000000000000000000602082015250565b60006111da602f8361116d565b91506111e58261117e565b604082019050919050565b60006020820190508181036000830152611209816111cd565b9050919050565b6112198161109d565b82525050565b60006040820190506112346000830185611007565b6112416020830184611210565b9392505050565b600081905092915050565b7f416363657373436f6e74726f6c3a206163636f756e7420000000000000000000600082015250565b6000611289601783611248565b915061129482611253565b601782019050919050565b600081519050919050565b60005b838110156112c85780820151818401526020810190506112ad565b838111156112d7576000848401525b50505050565b60006112e88261129f565b6112f28185611248565b93506113028185602086016112aa565b80840191505092915050565b7f206973206d697373696e6720726f6c6520000000000000000000000000000000600082015250565b6000611344601183611248565b915061134f8261130e565b601182019050919050565b60006113658261127c565b915061137182856112dd565b915061137c82611337565b915061138882846112dd565b91508190509392505050565b6000601f19601f8301169050919050565b60006113b08261129f565b6113ba818561116d565b93506113ca8185602086016112aa565b6113d381611394565b840191505092915050565b600060208201905081810360008301526113f881846113a5565b905092915050565b7f4e487b7100000000000000000000000000000000000000000000000000000000600052601160045260246000fd5b600061143a8261109d565b91506114458361109d565b9250817fffffffffffffffffffffffffffffffffffffffffffffffffffffffffffffffff048311821515161561147e5761147d611400565b5b828202905092915050565b60006114948261109d565b915061149f8361109d565b9250827fffffffffffffffffffffffffffffffffffffffffffffffffffffffffffffffff038211156114d4576114d3611400565b5b828201905092915050565b7f4e487b7100000000000000000000000000000000000000000000000000000000600052604160045260246000fd5b7f4e487b7100000000000000000000000000000000000000000000000000000000600052603260045260246000fd5b60006115488261109d565b9150600082141561155c5761155b611400565b5b600182039050919050565b7f537472696e67733a20686578206c656e67746820696e73756666696369656e74600082015250565b600061159d60208361116d565b91506115a882611567565b602082019050919050565b600060208201905081810360008301526115cc81611590565b9050919050565b6115dc81610f12565b81146115e757600080fd5b50565b6000815190506115f9816115d3565b92915050565b60006020828403121561161557611614610e88565b5b6000611623848285016115ea565b91505092915050565b7f5361666545524332303a204552433230206f7065726174696f6e20646964206e60008201527f6f74207375636365656400000000000000000000000000000000000000000000602082015250565b6000611688602a8361116d565b91506116938261162c565b604082019050919050565b600060208201905081810360008301526116b78161167b565b9050919050565b7f416464726573733a20696e73756666696369656e742062616c616e636520666f60008201527f722063616c6c0000000000000000000000000000000000000000000000000000602082015250565b600061171a60268361116d565b9150611725826116be565b604082019050919050565b600060208201905081810360008301526117498161170d565b9050919050565b7f416464726573733a2063616c6c20746f206e6f6e2d636f6e7472616374000000600082015250565b6000611786601d8361116d565b915061179182611750565b602082019050919050565b600060208201905081810360008301526117b581611779565b9050919050565b600081519050919050565b600081905092915050565b60006117dd826117bc565b6117e781856117c7565b93506117f78185602086016112aa565b80840191505092915050565b600061180f82846117d2565b91508190509291505056fea2646970667358221220d0f68cf8104db888ba39da01d4ee0ae62443097f915b89754e3e8b2cff4307b564736f6c634300080b0033",
  "linkReferences": {},
  "deployedLinkReferences": {}
}