{
  "_format": "hh-sol-artifact-1",
  "contractName": "controller",
  "sourceName": "contracts/tokenController/Controller.sol",
  "abi": [
    {
      "inputs": [
        {
          "internalType": "address",
          "name": "_CAPL",
          "type": "address"
        }
      ],
      "stateMutability": "nonpayable",
      "type": "constructor"
    },
    {
      "anonymous": false,
      "inputs": [
        {
          "indexed": true,
          "internalType": "bytes32",
          "name": "role",
          "type": "bytes32"
        },
        {
          "indexed": true,
          "internalType": "bytes32",
          "name": "previousAdminRole",
          "type": "bytes32"
        },
        {
          "indexed": true,
          "internalType": "bytes32",
          "name": "newAdminRole",
          "type": "bytes32"
        }
      ],
      "name": "RoleAdminChanged",
      "type": "event"
    },
    {
      "anonymous": false,
      "inputs": [
        {
          "indexed": true,
          "internalType": "bytes32",
          "name": "role",
          "type": "bytes32"
        },
        {
          "indexed": true,
          "internalType": "address",
          "name": "account",
          "type": "address"
        },
        {
          "indexed": true,
          "internalType": "address",
          "name": "sender",
          "type": "address"
        }
      ],
      "name": "RoleGranted",
      "type": "event"
    },
    {
      "anonymous": false,
      "inputs": [
        {
          "indexed": true,
          "internalType": "bytes32",
          "name": "role",
          "type": "bytes32"
        },
        {
          "indexed": true,
          "internalType": "address",
          "name": "account",
          "type": "address"
        },
        {
          "indexed": true,
          "internalType": "address",
          "name": "sender",
          "type": "address"
        }
      ],
      "name": "RoleRevoked",
      "type": "event"
    },
    {
      "inputs": [],
      "name": "DEFAULT_ADMIN_ROLE",
      "outputs": [
        {
          "internalType": "bytes32",
          "name": "",
          "type": "bytes32"
        }
      ],
      "stateMutability": "view",
      "type": "function"
    },
    {
      "inputs": [
        {
          "internalType": "address",
          "name": "destination",
          "type": "address"
        },
        {
          "internalType": "uint256",
          "name": "amount",
          "type": "uint256"
        }
      ],
      "name": "burn",
      "outputs": [],
      "stateMutability": "nonpayable",
      "type": "function"
    },
    {
      "inputs": [
        {
          "internalType": "bytes32",
          "name": "role",
          "type": "bytes32"
        }
      ],
      "name": "getRoleAdmin",
      "outputs": [
        {
          "internalType": "bytes32",
          "name": "",
          "type": "bytes32"
        }
      ],
      "stateMutability": "view",
      "type": "function"
    },
    {
      "inputs": [
        {
          "internalType": "bytes32",
          "name": "role",
          "type": "bytes32"
        },
        {
          "internalType": "address",
          "name": "account",
          "type": "address"
        }
      ],
      "name": "grantRole",
      "outputs": [],
      "stateMutability": "nonpayable",
      "type": "function"
    },
    {
      "inputs": [
        {
          "internalType": "bytes32",
          "name": "role",
          "type": "bytes32"
        },
        {
          "internalType": "address",
          "name": "account",
          "type": "address"
        }
      ],
      "name": "hasRole",
      "outputs": [
        {
          "internalType": "bool",
          "name": "",
          "type": "bool"
        }
      ],
      "stateMutability": "view",
      "type": "function"
    },
    {
      "inputs": [
        {
          "internalType": "address",
          "name": "destination",
          "type": "address"
        },
        {
          "internalType": "uint256",
          "name": "amount",
          "type": "uint256"
        }
      ],
      "name": "mint",
      "outputs": [],
      "stateMutability": "nonpayable",
      "type": "function"
    },
    {
      "inputs": [],
      "name": "minter",
      "outputs": [
        {
          "internalType": "bytes32",
          "name": "",
          "type": "bytes32"
        }
      ],
      "stateMutability": "view",
      "type": "function"
    },
    {
      "inputs": [
        {
          "internalType": "bytes32",
          "name": "role",
          "type": "bytes32"
        },
        {
          "internalType": "address",
          "name": "account",
          "type": "address"
        }
      ],
      "name": "renounceRole",
      "outputs": [],
      "stateMutability": "nonpayable",
      "type": "function"
    },
    {
      "inputs": [
        {
          "internalType": "bytes32",
          "name": "role",
          "type": "bytes32"
        },
        {
          "internalType": "address",
          "name": "account",
          "type": "address"
        }
      ],
      "name": "revokeRole",
      "outputs": [],
      "stateMutability": "nonpayable",
      "type": "function"
    },
    {
      "inputs": [
        {
          "internalType": "bytes4",
          "name": "interfaceId",
          "type": "bytes4"
        }
      ],
      "name": "supportsInterface",
      "outputs": [
        {
          "internalType": "bool",
          "name": "",
          "type": "bool"
        }
      ],
      "stateMutability": "view",
      "type": "function"
    }
  ],
  "bytecode": "0x60806040523480156200001157600080fd5b50604051620010c1380380620010c18339818101604052810190620000379190620000a8565b50620000da565b600080fd5b600073ffffffffffffffffffffffffffffffffffffffff82169050919050565b6000620000708262000043565b9050919050565b620000828162000063565b81146200008e57600080fd5b50565b600081519050620000a28162000077565b92915050565b600060208284031215620000c157620000c06200003e565b5b6000620000d18482850162000091565b91505092915050565b610fd780620000ea6000396000f3fe608060405234801561001057600080fd5b506004361061009e5760003560e01c806340c10f191161006657806340c10f191461015957806391d14854146101755780639dc29fac146101a5578063a217fddf146101c1578063d547741f146101df5761009e565b806301ffc9a7146100a357806307546172146100d3578063248a9ca3146100f15780632f2ff15d1461012157806336568abe1461013d575b600080fd5b6100bd60048036038101906100b8919061096f565b6101fb565b6040516100ca91906109b7565b60405180910390f35b6100db610275565b6040516100e891906109eb565b60405180910390f35b61010b60048036038101906101069190610a32565b610299565b60405161011891906109eb565b60405180910390f35b61013b60048036038101906101369190610abd565b6102b8565b005b61015760048036038101906101529190610abd565b6102e1565b005b610173600480360381019061016e9190610b33565b610364565b005b61018f600480360381019061018a9190610abd565b610368565b60405161019c91906109b7565b60405180910390f35b6101bf60048036038101906101ba9190610b33565b6103d2565b005b6101c96103d6565b6040516101d691906109eb565b60405180910390f35b6101f960048036038101906101f49190610abd565b6103dd565b005b60007f7965db0b000000000000000000000000000000000000000000000000000000007bffffffffffffffffffffffffffffffffffffffffffffffffffffffff1916827bffffffffffffffffffffffffffffffffffffffffffffffffffffffff1916148061026e575061026d82610406565b5b9050919050565b7ff0887ba65ee2024ea881d91b74c2450ef19e1557f03bed3ea9f16b037cbe2dc981565b6000806000838152602001908152602001600020600101549050919050565b6102c182610299565b6102d2816102cd610470565b610478565b6102dc8383610515565b505050565b6102e9610470565b73ffffffffffffffffffffffffffffffffffffffff168173ffffffffffffffffffffffffffffffffffffffff1614610356576040517f08c379a000000000000000000000000000000000000000000000000000000000815260040161034d90610bf6565b60405180910390fd5b61036082826105f5565b5050565b5050565b600080600084815260200190815260200160002060000160008373ffffffffffffffffffffffffffffffffffffffff1673ffffffffffffffffffffffffffffffffffffffff16815260200190815260200160002060009054906101000a900460ff16905092915050565b5050565b6000801b81565b6103e682610299565b6103f7816103f2610470565b610478565b61040183836105f5565b505050565b60007f01ffc9a7000000000000000000000000000000000000000000000000000000007bffffffffffffffffffffffffffffffffffffffffffffffffffffffff1916827bffffffffffffffffffffffffffffffffffffffffffffffffffffffff1916149050919050565b600033905090565b6104828282610368565b610511576104a78173ffffffffffffffffffffffffffffffffffffffff1660146106d6565b6104b58360001c60206106d6565b6040516020016104c6929190610d28565b6040516020818303038152906040526040517f08c379a00000000000000000000000000000000000000000000000000000000081526004016105089190610dac565b60405180910390fd5b5050565b61051f8282610368565b6105f157600160008084815260200190815260200160002060000160008373ffffffffffffffffffffffffffffffffffffffff1673ffffffffffffffffffffffffffffffffffffffff16815260200190815260200160002060006101000a81548160ff021916908315150217905550610596610470565b73ffffffffffffffffffffffffffffffffffffffff168173ffffffffffffffffffffffffffffffffffffffff16837f2f8788117e7eff1d82e926ec794901d17c78024a50270940304540a733656f0d60405160405180910390a45b5050565b6105ff8282610368565b156106d257600080600084815260200190815260200160002060000160008373ffffffffffffffffffffffffffffffffffffffff1673ffffffffffffffffffffffffffffffffffffffff16815260200190815260200160002060006101000a81548160ff021916908315150217905550610677610470565b73ffffffffffffffffffffffffffffffffffffffff168173ffffffffffffffffffffffffffffffffffffffff16837ff6391f5c32d9c69d2a47ea670b442974b53935d1edc7fd64eb21e047a839171b60405160405180910390a45b5050565b6060600060028360026106e99190610dfd565b6106f39190610e57565b67ffffffffffffffff81111561070c5761070b610ead565b5b6040519080825280601f01601f19166020018201604052801561073e5781602001600182028036833780820191505090505b5090507f30000000000000000000000000000000000000000000000000000000000000008160008151811061077657610775610edc565b5b60200101907effffffffffffffffffffffffffffffffffffffffffffffffffffffffffffff1916908160001a9053507f7800000000000000000000000000000000000000000000000000000000000000816001815181106107da576107d9610edc565b5b60200101907effffffffffffffffffffffffffffffffffffffffffffffffffffffffffffff1916908160001a9053506000600184600261081a9190610dfd565b6108249190610e57565b90505b60018111156108c4577f3031323334353637383961626364656600000000000000000000000000000000600f86166010811061086657610865610edc565b5b1a60f81b82828151811061087d5761087c610edc565b5b60200101907effffffffffffffffffffffffffffffffffffffffffffffffffffffffffffff1916908160001a905350600485901c9450806108bd90610f0b565b9050610827565b5060008414610908576040517f08c379a00000000000000000000000000000000000000000000000000000000081526004016108ff90610f81565b60405180910390fd5b8091505092915050565b600080fd5b60007fffffffff0000000000000000000000000000000000000000000000000000000082169050919050565b61094c81610917565b811461095757600080fd5b50565b60008135905061096981610943565b92915050565b60006020828403121561098557610984610912565b5b60006109938482850161095a565b91505092915050565b60008115159050919050565b6109b18161099c565b82525050565b60006020820190506109cc60008301846109a8565b92915050565b6000819050919050565b6109e5816109d2565b82525050565b6000602082019050610a0060008301846109dc565b92915050565b610a0f816109d2565b8114610a1a57600080fd5b50565b600081359050610a2c81610a06565b92915050565b600060208284031215610a4857610a47610912565b5b6000610a5684828501610a1d565b91505092915050565b600073ffffffffffffffffffffffffffffffffffffffff82169050919050565b6000610a8a82610a5f565b9050919050565b610a9a81610a7f565b8114610aa557600080fd5b50565b600081359050610ab781610a91565b92915050565b60008060408385031215610ad457610ad3610912565b5b6000610ae285828601610a1d565b9250506020610af385828601610aa8565b9150509250929050565b6000819050919050565b610b1081610afd565b8114610b1b57600080fd5b50565b600081359050610b2d81610b07565b92915050565b60008060408385031215610b4a57610b49610912565b5b6000610b5885828601610aa8565b9250506020610b6985828601610b1e565b9150509250929050565b600082825260208201905092915050565b7f416363657373436f6e74726f6c3a2063616e206f6e6c792072656e6f756e636560008201527f20726f6c657320666f722073656c660000000000000000000000000000000000602082015250565b6000610be0602f83610b73565b9150610beb82610b84565b604082019050919050565b60006020820190508181036000830152610c0f81610bd3565b9050919050565b600081905092915050565b7f416363657373436f6e74726f6c3a206163636f756e7420000000000000000000600082015250565b6000610c57601783610c16565b9150610c6282610c21565b601782019050919050565b600081519050919050565b60005b83811015610c96578082015181840152602081019050610c7b565b83811115610ca5576000848401525b50505050565b6000610cb682610c6d565b610cc08185610c16565b9350610cd0818560208601610c78565b80840191505092915050565b7f206973206d697373696e6720726f6c6520000000000000000000000000000000600082015250565b6000610d12601183610c16565b9150610d1d82610cdc565b601182019050919050565b6000610d3382610c4a565b9150610d3f8285610cab565b9150610d4a82610d05565b9150610d568284610cab565b91508190509392505050565b6000601f19601f8301169050919050565b6000610d7e82610c6d565b610d888185610b73565b9350610d98818560208601610c78565b610da181610d62565b840191505092915050565b60006020820190508181036000830152610dc68184610d73565b905092915050565b7f4e487b7100000000000000000000000000000000000000000000000000000000600052601160045260246000fd5b6000610e0882610afd565b9150610e1383610afd565b9250817fffffffffffffffffffffffffffffffffffffffffffffffffffffffffffffffff0483118215151615610e4c57610e4b610dce565b5b828202905092915050565b6000610e6282610afd565b9150610e6d83610afd565b9250827fffffffffffffffffffffffffffffffffffffffffffffffffffffffffffffffff03821115610ea257610ea1610dce565b5b828201905092915050565b7f4e487b7100000000000000000000000000000000000000000000000000000000600052604160045260246000fd5b7f4e487b7100000000000000000000000000000000000000000000000000000000600052603260045260246000fd5b6000610f1682610afd565b91506000821415610f2a57610f29610dce565b5b600182039050919050565b7f537472696e67733a20686578206c656e67746820696e73756666696369656e74600082015250565b6000610f6b602083610b73565b9150610f7682610f35565b602082019050919050565b60006020820190508181036000830152610f9a81610f5e565b905091905056fea2646970667358221220a553a2bf24ce02a293c674a8b90c13fdf16d736bf389d05435347133c0661d4f64736f6c634300080b0033",
  "linkReferences": {},
  "deployedLinkReferences": {}
}