{
  "_format": "hh-sol-artifact-1",
  "contractName": "RewardsV2",
  "sourceName": "contracts/rewards/Rewards.sol",
  "abi": [
    {
      "inputs": [
        {
          "internalType": "address",
          "name": "_vault",
          "type": "address"
        }
      ],
      "stateMutability": "nonpayable",
      "type": "constructor"
    },
    {
      "anonymous": false,
      "inputs": [
        {
          "indexed": false,
          "internalType": "address",
          "name": "_token",
          "type": "address"
        },
        {
          "indexed": false,
          "internalType": "uint256",
          "name": "_rewardsPerBlock",
          "type": "uint256"
        }
      ],
      "name": "AddPool",
      "type": "event"
    },
    {
      "anonymous": false,
      "inputs": [
        {
          "indexed": true,
          "internalType": "address",
          "name": "_token",
          "type": "address"
        },
        {
          "indexed": true,
          "internalType": "address",
          "name": "_user",
          "type": "address"
        },
        {
          "indexed": false,
          "internalType": "uint256",
          "name": "_amount",
          "type": "uint256"
        }
      ],
      "name": "Claim",
      "type": "event"
    },
    {
      "anonymous": false,
      "inputs": [
        {
          "indexed": true,
          "internalType": "address",
          "name": "_token",
          "type": "address"
        },
        {
          "indexed": true,
          "internalType": "address",
          "name": "_user",
          "type": "address"
        },
        {
          "indexed": false,
          "internalType": "uint256",
          "name": "_amount",
          "type": "uint256"
        }
      ],
      "name": "Deposit",
      "type": "event"
    },
    {
      "anonymous": false,
      "inputs": [
        {
          "indexed": false,
          "internalType": "address",
          "name": "account",
          "type": "address"
        }
      ],
      "name": "Paused",
      "type": "event"
    },
    {
      "anonymous": false,
      "inputs": [
        {
          "indexed": true,
          "internalType": "address",
          "name": "_token",
          "type": "address"
        },
        {
          "indexed": false,
          "internalType": "uint256",
          "name": "_block",
          "type": "uint256"
        }
      ],
      "name": "PoolUpdated",
      "type": "event"
    },
    {
      "anonymous": false,
      "inputs": [
        {
          "indexed": true,
          "internalType": "bytes32",
          "name": "role",
          "type": "bytes32"
        },
        {
          "indexed": true,
          "internalType": "bytes32",
          "name": "previousAdminRole",
          "type": "bytes32"
        },
        {
          "indexed": true,
          "internalType": "bytes32",
          "name": "newAdminRole",
          "type": "bytes32"
        }
      ],
      "name": "RoleAdminChanged",
      "type": "event"
    },
    {
      "anonymous": false,
      "inputs": [
        {
          "indexed": true,
          "internalType": "bytes32",
          "name": "role",
          "type": "bytes32"
        },
        {
          "indexed": true,
          "internalType": "address",
          "name": "account",
          "type": "address"
        },
        {
          "indexed": true,
          "internalType": "address",
          "name": "sender",
          "type": "address"
        }
      ],
      "name": "RoleGranted",
      "type": "event"
    },
    {
      "anonymous": false,
      "inputs": [
        {
          "indexed": true,
          "internalType": "bytes32",
          "name": "role",
          "type": "bytes32"
        },
        {
          "indexed": true,
          "internalType": "address",
          "name": "account",
          "type": "address"
        },
        {
          "indexed": true,
          "internalType": "address",
          "name": "sender",
          "type": "address"
        }
      ],
      "name": "RoleRevoked",
      "type": "event"
    },
    {
      "anonymous": false,
      "inputs": [
        {
          "indexed": false,
          "internalType": "address",
          "name": "_controller",
          "type": "address"
        }
      ],
      "name": "SetController",
      "type": "event"
    },
    {
      "anonymous": false,
      "inputs": [
        {
          "indexed": false,
          "internalType": "address",
          "name": "account",
          "type": "address"
        }
      ],
      "name": "Unpaused",
      "type": "event"
    },
    {
      "anonymous": false,
      "inputs": [
        {
          "indexed": true,
          "internalType": "address",
          "name": "_token",
          "type": "address"
        },
        {
          "indexed": true,
          "internalType": "address",
          "name": "_user",
          "type": "address"
        },
        {
          "indexed": false,
          "internalType": "uint256",
          "name": "_amount",
          "type": "uint256"
        }
      ],
      "name": "Withdraw",
      "type": "event"
    },
    {
      "inputs": [],
      "name": "DEFAULT_ADMIN_ROLE",
      "outputs": [
        {
          "internalType": "bytes32",
          "name": "",
          "type": "bytes32"
        }
      ],
      "stateMutability": "view",
      "type": "function"
    },
    {
      "inputs": [
        {
          "internalType": "address",
          "name": "_token",
          "type": "address"
        },
        {
          "internalType": "address",
          "name": "_user",
          "type": "address"
        }
      ],
      "name": "claim",
      "outputs": [],
      "stateMutability": "nonpayable",
      "type": "function"
    },
    {
      "inputs": [
        {
          "internalType": "address",
          "name": "_token",
          "type": "address"
        },
        {
          "internalType": "uint256",
          "name": "_amount",
          "type": "uint256"
        }
      ],
      "name": "deposit",
      "outputs": [],
      "stateMutability": "nonpayable",
      "type": "function"
    },
    {
      "inputs": [
        {
          "internalType": "bytes32",
          "name": "role",
          "type": "bytes32"
        }
      ],
      "name": "getRoleAdmin",
      "outputs": [
        {
          "internalType": "bytes32",
          "name": "",
          "type": "bytes32"
        }
      ],
      "stateMutability": "view",
      "type": "function"
    },
    {
      "inputs": [
        {
          "internalType": "bytes32",
          "name": "role",
          "type": "bytes32"
        },
        {
          "internalType": "address",
          "name": "account",
          "type": "address"
        }
      ],
      "name": "grantRole",
      "outputs": [],
      "stateMutability": "nonpayable",
      "type": "function"
    },
    {
      "inputs": [
        {
          "internalType": "bytes32",
          "name": "role",
          "type": "bytes32"
        },
        {
          "internalType": "address",
          "name": "account",
          "type": "address"
        }
      ],
      "name": "hasRole",
      "outputs": [
        {
          "internalType": "bool",
          "name": "",
          "type": "bool"
        }
      ],
      "stateMutability": "view",
      "type": "function"
    },
    {
      "inputs": [],
      "name": "paused",
      "outputs": [
        {
          "internalType": "bool",
          "name": "",
          "type": "bool"
        }
      ],
      "stateMutability": "view",
      "type": "function"
    },
    {
      "inputs": [
        {
          "internalType": "address",
          "name": "_token",
          "type": "address"
        },
        {
          "internalType": "address",
          "name": "_user",
          "type": "address"
        }
      ],
      "name": "pendingRewards",
      "outputs": [
        {
          "internalType": "uint256",
          "name": "pending",
          "type": "uint256"
        }
      ],
      "stateMutability": "nonpayable",
      "type": "function"
    },
    {
      "inputs": [
        {
          "internalType": "address",
          "name": "_token",
          "type": "address"
        },
        {
          "internalType": "address",
          "name": "_user",
          "type": "address"
        }
      ],
      "name": "pendingWithdrawals",
      "outputs": [
        {
          "internalType": "uint256",
          "name": "_unlockedAmount",
          "type": "uint256"
        }
      ],
      "stateMutability": "nonpayable",
      "type": "function"
    },
    {
      "inputs": [
        {
          "internalType": "bytes32",
          "name": "role",
          "type": "bytes32"
        },
        {
          "internalType": "address",
          "name": "account",
          "type": "address"
        }
      ],
      "name": "renounceRole",
      "outputs": [],
      "stateMutability": "nonpayable",
      "type": "function"
    },
    {
      "inputs": [
        {
          "internalType": "bytes32",
          "name": "role",
          "type": "bytes32"
        },
        {
          "internalType": "address",
          "name": "account",
          "type": "address"
        }
      ],
      "name": "revokeRole",
      "outputs": [],
      "stateMutability": "nonpayable",
      "type": "function"
    },
    {
      "inputs": [
        {
          "internalType": "address",
          "name": "_controller",
          "type": "address"
        }
      ],
      "name": "setController",
      "outputs": [],
      "stateMutability": "nonpayable",
      "type": "function"
    },
    {
      "inputs": [
        {
          "internalType": "address",
          "name": "_token",
          "type": "address"
        }
      ],
      "name": "setPool",
      "outputs": [
        {
          "components": [
            {
              "internalType": "uint256",
              "name": "totalPooled",
              "type": "uint256"
            },
            {
              "internalType": "uint256",
              "name": "rewardsPerBlock",
              "type": "uint256"
            },
            {
              "internalType": "uint256",
              "name": "accCaplPerShare",
              "type": "uint256"
            },
            {
              "internalType": "uint256",
              "name": "lastRewardBlock",
              "type": "uint256"
            }
          ],
          "internalType": "struct IPool.Pool",
          "name": "pool",
          "type": "tuple"
        }
      ],
      "stateMutability": "nonpayable",
      "type": "function"
    },
    {
      "inputs": [
        {
          "internalType": "bytes4",
          "name": "interfaceId",
          "type": "bytes4"
        }
      ],
      "name": "supportsInterface",
      "outputs": [
        {
          "internalType": "bool",
          "name": "",
          "type": "bool"
        }
      ],
      "stateMutability": "view",
      "type": "function"
    },
    {
      "inputs": [
        {
          "internalType": "address",
          "name": "_token",
          "type": "address"
        },
        {
          "internalType": "address",
          "name": "_user",
          "type": "address"
        }
      ],
      "name": "withdraw",
      "outputs": [],
      "stateMutability": "nonpayable",
      "type": "function"
    },
    {
      "inputs": [
        {
          "internalType": "address",
          "name": "_destination",
          "type": "address"
        }
      ],
      "name": "withdrawMATIC",
      "outputs": [],
      "stateMutability": "nonpayable",
      "type": "function"
    },
    {
      "inputs": [
        {
          "internalType": "address",
          "name": "_token",
          "type": "address"
        },
        {
          "internalType": "uint256",
          "name": "_amount",
          "type": "uint256"
        },
        {
          "internalType": "address",
          "name": "_destination",
          "type": "address"
        }
      ],
      "name": "withdrawToken",
      "outputs": [],
      "stateMutability": "nonpayable",
      "type": "function"
    }
  ],
  "bytecode": "0x6080604052670de0b6b3a76400006003553480156200001d57600080fd5b5060405162002e0338038062002e0383398181016040528101906200004391906200029e565b60008060006101000a81548160ff02191690831515021790555080600260006101000a81548173ffffffffffffffffffffffffffffffffffffffff021916908373ffffffffffffffffffffffffffffffffffffffff160217905550620000b36000801b33620000ba60201b60201c565b50620002d0565b620000cc8282620000d060201b60201c565b5050565b620000e28282620001c160201b60201c565b620001bd57600180600084815260200190815260200160002060000160008373ffffffffffffffffffffffffffffffffffffffff1673ffffffffffffffffffffffffffffffffffffffff16815260200190815260200160002060006101000a81548160ff021916908315150217905550620001626200022c60201b60201c565b73ffffffffffffffffffffffffffffffffffffffff168173ffffffffffffffffffffffffffffffffffffffff16837f2f8788117e7eff1d82e926ec794901d17c78024a50270940304540a733656f0d60405160405180910390a45b5050565b60006001600084815260200190815260200160002060000160008373ffffffffffffffffffffffffffffffffffffffff1673ffffffffffffffffffffffffffffffffffffffff16815260200190815260200160002060009054906101000a900460ff16905092915050565b600033905090565b600080fd5b600073ffffffffffffffffffffffffffffffffffffffff82169050919050565b6000620002668262000239565b9050919050565b620002788162000259565b81146200028457600080fd5b50565b60008151905062000298816200026d565b92915050565b600060208284031215620002b757620002b662000234565b5b6000620002c78482850162000287565b91505092915050565b612b2380620002e06000396000f3fe608060405234801561001057600080fd5b506004361061010b5760003560e01c806347e7ef24116100a257806392eefe9b1161007157806392eefe9b146102c6578063a217fddf146102e2578063d547741f14610300578063e831be581461031c578063f940e3851461034c5761010b565b806347e7ef241461022c5780635c975abb1461024857806380ac82281461026657806391d14854146102965761010b565b806330e7e743116100de57806330e7e743146101a857806336568abe146101c45780633ccdbb28146101e05780634437152a146101fc5761010b565b806301ffc9a71461011057806321c0b34214610140578063248a9ca31461015c5780632f2ff15d1461018c575b600080fd5b61012a60048036038101906101259190611ca9565b610368565b6040516101379190611cf1565b60405180910390f35b61015a60048036038101906101559190611d6a565b6103e2565b005b61017660048036038101906101719190611de0565b610732565b6040516101839190611e1c565b60405180910390f35b6101a660048036038101906101a19190611e37565b610752565b005b6101c260048036038101906101bd9190611e77565b61077b565b005b6101de60048036038101906101d99190611e37565b610794565b005b6101fa60048036038101906101f59190611eda565b610817565b005b61021660048036038101906102119190611e77565b610832565b6040516102239190611f91565b60405180910390f35b61024660048036038101906102419190611fac565b610af9565b005b6102506110bf565b60405161025d9190611cf1565b60405180910390f35b610280600480360381019061027b9190611d6a565b6110d5565b60405161028d9190611ffb565b60405180910390f35b6102b060048036038101906102ab9190611e37565b61136e565b6040516102bd9190611cf1565b60405180910390f35b6102e060048036038101906102db9190611e77565b6113d9565b005b6102ea611433565b6040516102f79190611e1c565b60405180910390f35b61031a60048036038101906103159190611e37565b61143a565b005b61033660048036038101906103319190611d6a565b611463565b6040516103439190611ffb565b60405180910390f35b61036660048036038101906103619190611d6a565b61150d565b005b60007f7965db0b000000000000000000000000000000000000000000000000000000007bffffffffffffffffffffffffffffffffffffffffffffffffffffffff1916827bffffffffffffffffffffffffffffffffffffffffffffffffffffffff191614806103db57506103da82611701565b5b9050919050565b600560008373ffffffffffffffffffffffffffffffffffffffff1673ffffffffffffffffffffffffffffffffffffffff16815260200190815260200160002060008273ffffffffffffffffffffffffffffffffffffffff1673ffffffffffffffffffffffffffffffffffffffff16815260200190815260200160002060009054906101000a900460ff16156104ac576040517f08c379a00000000000000000000000000000000000000000000000000000000081526004016104a390612073565b60405180910390fd5b60006104b783610832565b90506000600260009054906101000a900473ffffffffffffffffffffffffffffffffffffffff1673ffffffffffffffffffffffffffffffffffffffff166392a576e685856040518363ffffffff1660e01b81526004016105189291906120a2565b6000604051808303816000875af1158015610537573d6000803e3d6000fd5b505050506040513d6000823e3d601f19601f82011682018060405250810190610560919061232c565b905060006003548360400151836020015161057b91906123a4565b610585919061242d565b90506000826040015182610599919061245e565b9050600260009054906101000a900473ffffffffffffffffffffffffffffffffffffffff1673ffffffffffffffffffffffffffffffffffffffff16638a5bff6b8787856040518463ffffffff1660e01b81526004016105fa93929190612492565b600060405180830381600087803b15801561061457600080fd5b505af1158015610628573d6000803e3d6000fd5b5050505060008111156106c557600460009054906101000a900473ffffffffffffffffffffffffffffffffffffffff1673ffffffffffffffffffffffffffffffffffffffff166340c10f1986836040518363ffffffff1660e01b81526004016106929291906124c9565b600060405180830381600087803b1580156106ac57600080fd5b505af11580156106c0573d6000803e3d6000fd5b505050505b8473ffffffffffffffffffffffffffffffffffffffff168673ffffffffffffffffffffffffffffffffffffffff167f70eb43c4a8ae8c40502dcf22436c509c28d6ff421cf07c491be56984bd987068836040516107229190611ffb565b60405180910390a3505050505050565b600060016000838152602001908152602001600020600101549050919050565b61075b82610732565b61076c8161076761176b565b611773565b6107768383611810565b505050565b6000801b6107908161078b61176b565b611773565b5050565b61079c61176b565b73ffffffffffffffffffffffffffffffffffffffff168173ffffffffffffffffffffffffffffffffffffffff1614610809576040517f08c379a000000000000000000000000000000000000000000000000000000000815260040161080090612564565b60405180910390fd5b61081382826118f0565b5050565b6000801b61082c8161082761176b565b611773565b50505050565b61083a611c15565b6000600260009054906101000a900473ffffffffffffffffffffffffffffffffffffffff1673ffffffffffffffffffffffffffffffffffffffff1663bbe4f6db846040518263ffffffff1660e01b81526004016108979190612584565b6080604051808303816000875af11580156108b6573d6000803e3d6000fd5b505050506040513d601f19601f820116820180604052508101906108da9190612617565b90506000600260009054906101000a900473ffffffffffffffffffffffffffffffffffffffff1673ffffffffffffffffffffffffffffffffffffffff1663f2866c78856040518263ffffffff1660e01b81526004016109399190612584565b6020604051808303816000875af1158015610958573d6000803e3d6000fd5b505050506040513d601f19601f8201168201806040525081019061097c9190612644565b905060008260600151431115610af05760008211156109ea5760008360600151436109a7919061245e565b905060008460200151826109bb91906123a4565b905083600354826109cc91906123a4565b6109d6919061242d565b85604001516109e59190612671565b925050505b60004390506000600260009054906101000a900473ffffffffffffffffffffffffffffffffffffffff1673ffffffffffffffffffffffffffffffffffffffff16633dff45e98885856040518463ffffffff1660e01b8152600401610a50939291906126c7565b6080604051808303816000875af1158015610a6f573d6000803e3d6000fd5b505050506040513d601f19601f82011682018060405250810190610a939190612617565b90508673ffffffffffffffffffffffffffffffffffffffff167f2f4ae87a584f00dc35b043dd1c5ac839c1f41cd3a66e834d4e13faa6251634e683604051610adb9190611ffb565b60405180910390a28095505050505050610af4565b5050505b919050565b600260009054906101000a900473ffffffffffffffffffffffffffffffffffffffff1673ffffffffffffffffffffffffffffffffffffffff1663999126d7836040518263ffffffff1660e01b8152600401610b549190612584565b602060405180830381865afa158015610b71573d6000803e3d6000fd5b505050506040513d601f19601f82011682018060405250810190610b9591906126fe565b610bd4576040517f08c379a0000000000000000000000000000000000000000000000000000000008152600401610bcb90612777565b60405180910390fd5b6000610bdf83610832565b90506000600354826040015184610bf691906123a4565b610c00919061242d565b9050600260009054906101000a900473ffffffffffffffffffffffffffffffffffffffff1673ffffffffffffffffffffffffffffffffffffffff166356e45e4b856040518263ffffffff1660e01b8152600401610c5d9190612584565b602060405180830381865afa158015610c7a573d6000803e3d6000fd5b505050506040513d601f19601f82011682018060405250810190610c9e91906126fe565b610d3a57600260009054906101000a900473ffffffffffffffffffffffffffffffffffffffff1673ffffffffffffffffffffffffffffffffffffffff1663f5b5d237853386856040518563ffffffff1660e01b8152600401610d039493929190612797565b600060405180830381600087803b158015610d1d57600080fd5b505af1158015610d31573d6000803e3d6000fd5b505050506110b9565b600260009054906101000a900473ffffffffffffffffffffffffffffffffffffffff1673ffffffffffffffffffffffffffffffffffffffff1663d2456a95853386856040518563ffffffff1660e01b8152600401610d9b9493929190612797565b600060405180830381600087803b158015610db557600080fd5b505af1158015610dc9573d6000803e3d6000fd5b505050506000600260009054906101000a900473ffffffffffffffffffffffffffffffffffffffff1673ffffffffffffffffffffffffffffffffffffffff16639338b7c986336040518363ffffffff1660e01b8152600401610e2c9291906120a2565b6080604051808303816000875af1158015610e4b573d6000803e3d6000fd5b505050506040513d601f19601f82011682018060405250810190610e6f9190612854565b9050610e7e81602001516119d2565b15610f1957600260009054906101000a900473ffffffffffffffffffffffffffffffffffffffff1673ffffffffffffffffffffffffffffffffffffffff1663dfc2d1ba8633876040518463ffffffff1660e01b8152600401610ee293929190612492565b600060405180830381600087803b158015610efc57600080fd5b505af1158015610f10573d6000803e3d6000fd5b50505050611052565b6000600260009054906101000a900473ffffffffffffffffffffffffffffffffffffffff1673ffffffffffffffffffffffffffffffffffffffff166312229f1387336040518363ffffffff1660e01b8152600401610f789291906120a2565b6020604051808303816000875af1158015610f97573d6000803e3d6000fd5b505050506040513d601f19601f82011682018060405250810190610fbb9190612644565b9050600260009054906101000a900473ffffffffffffffffffffffffffffffffffffffff1673ffffffffffffffffffffffffffffffffffffffff16631b2aa575873388856040518563ffffffff1660e01b815260040161101e9493929190612797565b600060405180830381600087803b15801561103857600080fd5b505af115801561104c573d6000803e3d6000fd5b50505050505b3373ffffffffffffffffffffffffffffffffffffffff168573ffffffffffffffffffffffffffffffffffffffff167f5548c837ab068cf56a2c2479df0882a4922fd203edb7517321831d95078c5f62866040516110af9190611ffb565b60405180910390a3505b50505050565b60008060009054906101000a900460ff16905090565b600080600260009054906101000a900473ffffffffffffffffffffffffffffffffffffffff1673ffffffffffffffffffffffffffffffffffffffff1663bbe4f6db856040518263ffffffff1660e01b81526004016111339190612584565b6080604051808303816000875af1158015611152573d6000803e3d6000fd5b505050506040513d601f19601f820116820180604052508101906111769190612617565b90506000600260009054906101000a900473ffffffffffffffffffffffffffffffffffffffff1673ffffffffffffffffffffffffffffffffffffffff166392a576e686866040518363ffffffff1660e01b81526004016111d79291906120a2565b6000604051808303816000875af11580156111f6573d6000803e3d6000fd5b505050506040513d6000823e3d601f19601f8201168201806040525081019061121f919061232c565b90506000826040015190506000600260009054906101000a900473ffffffffffffffffffffffffffffffffffffffff1673ffffffffffffffffffffffffffffffffffffffff1663f2866c78886040518263ffffffff1660e01b81526004016112879190612584565b6020604051808303816000875af11580156112a6573d6000803e3d6000fd5b505050506040513d601f19601f820116820180604052508101906112ca9190612644565b90508360600151431180156112e0575060008114155b156113365760008460600151436112f7919061245e565b9050600085602001518261130b91906123a4565b9050826003548261131c91906123a4565b611326919061242d565b846113319190612671565b935050505b826040015160035483856020015161134e91906123a4565b611358919061242d565b611362919061245e565b94505050505092915050565b60006001600084815260200190815260200160002060000160008373ffffffffffffffffffffffffffffffffffffffff1673ffffffffffffffffffffffffffffffffffffffff16815260200190815260200160002060009054906101000a900460ff16905092915050565b6000801b6113ee816113e961176b565b611773565b81600460006101000a81548173ffffffffffffffffffffffffffffffffffffffff021916908373ffffffffffffffffffffffffffffffffffffffff1602179055505050565b6000801b81565b61144382610732565b6114548161144f61176b565b611773565b61145e83836118f0565b505050565b6000600260009054906101000a900473ffffffffffffffffffffffffffffffffffffffff1673ffffffffffffffffffffffffffffffffffffffff16630122a7e884846040518363ffffffff1660e01b81526004016114c29291906120a2565b6020604051808303816000875af11580156114e1573d6000803e3d6000fd5b505050506040513d601f19601f820116820180604052508101906115059190612644565b905092915050565b600061151883610832565b90506000600260009054906101000a900473ffffffffffffffffffffffffffffffffffffffff1673ffffffffffffffffffffffffffffffffffffffff166392a576e685856040518363ffffffff1660e01b81526004016115799291906120a2565b6000604051808303816000875af1158015611598573d6000803e3d6000fd5b505050506040513d6000823e3d601f19601f820116820180604052508101906115c1919061232c565b905060006115cf8585611463565b905060006003548460400151836115e691906123a4565b6115f0919061242d565b83604001516115ff919061245e565b9050600260009054906101000a900473ffffffffffffffffffffffffffffffffffffffff1673ffffffffffffffffffffffffffffffffffffffff16637bfe950c878785856040518563ffffffff1660e01b81526004016116629493929190612797565b600060405180830381600087803b15801561167c57600080fd5b505af1158015611690573d6000803e3d6000fd5b505050508473ffffffffffffffffffffffffffffffffffffffff168673ffffffffffffffffffffffffffffffffffffffff167f9b1bfa7fa9ee420a16e124f794c35ac9f90472acc99140eb2f6447c714cad8eb846040516116f19190611ffb565b60405180910390a3505050505050565b60007f01ffc9a7000000000000000000000000000000000000000000000000000000007bffffffffffffffffffffffffffffffffffffffffffffffffffffffff1916827bffffffffffffffffffffffffffffffffffffffffffffffffffffffff1916149050919050565b600033905090565b61177d828261136e565b61180c576117a28173ffffffffffffffffffffffffffffffffffffffff1660146119d9565b6117b08360001c60206119d9565b6040516020016117c1929190612993565b6040516020818303038152906040526040517f08c379a00000000000000000000000000000000000000000000000000000000081526004016118039190612a06565b60405180910390fd5b5050565b61181a828261136e565b6118ec57600180600084815260200190815260200160002060000160008373ffffffffffffffffffffffffffffffffffffffff1673ffffffffffffffffffffffffffffffffffffffff16815260200190815260200160002060006101000a81548160ff02191690831515021790555061189161176b565b73ffffffffffffffffffffffffffffffffffffffff168173ffffffffffffffffffffffffffffffffffffffff16837f2f8788117e7eff1d82e926ec794901d17c78024a50270940304540a733656f0d60405160405180910390a45b5050565b6118fa828261136e565b156119ce5760006001600084815260200190815260200160002060000160008373ffffffffffffffffffffffffffffffffffffffff1673ffffffffffffffffffffffffffffffffffffffff16815260200190815260200160002060006101000a81548160ff02191690831515021790555061197361176b565b73ffffffffffffffffffffffffffffffffffffffff168173ffffffffffffffffffffffffffffffffffffffff16837ff6391f5c32d9c69d2a47ea670b442974b53935d1edc7fd64eb21e047a839171b60405160405180910390a45b5050565b6000919050565b6060600060028360026119ec91906123a4565b6119f69190612671565b67ffffffffffffffff811115611a0f57611a0e6120e1565b5b6040519080825280601f01601f191660200182016040528015611a415781602001600182028036833780820191505090505b5090507f300000000000000000000000000000000000000000000000000000000000000081600081518110611a7957611a78612a28565b5b60200101907effffffffffffffffffffffffffffffffffffffffffffffffffffffffffffff1916908160001a9053507f780000000000000000000000000000000000000000000000000000000000000081600181518110611add57611adc612a28565b5b60200101907effffffffffffffffffffffffffffffffffffffffffffffffffffffffffffff1916908160001a90535060006001846002611b1d91906123a4565b611b279190612671565b90505b6001811115611bc7577f3031323334353637383961626364656600000000000000000000000000000000600f861660108110611b6957611b68612a28565b5b1a60f81b828281518110611b8057611b7f612a28565b5b60200101907effffffffffffffffffffffffffffffffffffffffffffffffffffffffffffff1916908160001a905350600485901c945080611bc090612a57565b9050611b2a565b5060008414611c0b576040517f08c379a0000000000000000000000000000000000000000000000000000000008152600401611c0290612acd565b60405180910390fd5b8091505092915050565b6040518060800160405280600081526020016000815260200160008152602001600081525090565b6000604051905090565b600080fd5b600080fd5b60007fffffffff0000000000000000000000000000000000000000000000000000000082169050919050565b611c8681611c51565b8114611c9157600080fd5b50565b600081359050611ca381611c7d565b92915050565b600060208284031215611cbf57611cbe611c47565b5b6000611ccd84828501611c94565b91505092915050565b60008115159050919050565b611ceb81611cd6565b82525050565b6000602082019050611d066000830184611ce2565b92915050565b600073ffffffffffffffffffffffffffffffffffffffff82169050919050565b6000611d3782611d0c565b9050919050565b611d4781611d2c565b8114611d5257600080fd5b50565b600081359050611d6481611d3e565b92915050565b60008060408385031215611d8157611d80611c47565b5b6000611d8f85828601611d55565b9250506020611da085828601611d55565b9150509250929050565b6000819050919050565b611dbd81611daa565b8114611dc857600080fd5b50565b600081359050611dda81611db4565b92915050565b600060208284031215611df657611df5611c47565b5b6000611e0484828501611dcb565b91505092915050565b611e1681611daa565b82525050565b6000602082019050611e316000830184611e0d565b92915050565b60008060408385031215611e4e57611e4d611c47565b5b6000611e5c85828601611dcb565b9250506020611e6d85828601611d55565b9150509250929050565b600060208284031215611e8d57611e8c611c47565b5b6000611e9b84828501611d55565b91505092915050565b6000819050919050565b611eb781611ea4565b8114611ec257600080fd5b50565b600081359050611ed481611eae565b92915050565b600080600060608486031215611ef357611ef2611c47565b5b6000611f0186828701611d55565b9350506020611f1286828701611ec5565b9250506040611f2386828701611d55565b9150509250925092565b611f3681611ea4565b82525050565b608082016000820151611f526000850182611f2d565b506020820151611f656020850182611f2d565b506040820151611f786040850182611f2d565b506060820151611f8b6060850182611f2d565b50505050565b6000608082019050611fa66000830184611f3c565b92915050565b60008060408385031215611fc357611fc2611c47565b5b6000611fd185828601611d55565b9250506020611fe285828601611ec5565b9150509250929050565b611ff581611ea4565b82525050565b60006020820190506120106000830184611fec565b92915050565b600082825260208201905092915050565b7f6175746f636f6d706f756e64696e67206973206f6e0000000000000000000000600082015250565b600061205d601583612016565b915061206882612027565b602082019050919050565b6000602082019050818103600083015261208c81612050565b9050919050565b61209c81611d2c565b82525050565b60006040820190506120b76000830185612093565b6120c46020830184612093565b9392505050565b600080fd5b6000601f19601f8301169050919050565b7f4e487b7100000000000000000000000000000000000000000000000000000000600052604160045260246000fd5b612119826120d0565b810181811067ffffffffffffffff82111715612138576121376120e1565b5b80604052505050565b600061214b611c3d565b90506121578282612110565b919050565b600080fd5b60008151905061217081611d3e565b92915050565b60008151905061218581611eae565b92915050565b600080fd5b600067ffffffffffffffff8211156121ab576121aa6120e1565b5b602082029050602081019050919050565b600080fd5b60006121d46121cf84612190565b612141565b905080838252602082019050602084028301858111156121f7576121f66121bc565b5b835b81811015612220578061220c8882612176565b8452602084019350506020810190506121f9565b5050509392505050565b600082601f83011261223f5761223e61218b565b5b815161224f8482602086016121c1565b91505092915050565b61226181611cd6565b811461226c57600080fd5b50565b60008151905061227e81612258565b92915050565b600060a0828403121561229a576122996120cb565b5b6122a460a0612141565b905060006122b484828501612161565b60008301525060206122c884828501612176565b60208301525060406122dc84828501612176565b604083015250606082015167ffffffffffffffff811115612300576122ff61215c565b5b61230c8482850161222a565b60608301525060806123208482850161226f565b60808301525092915050565b60006020828403121561234257612341611c47565b5b600082015167ffffffffffffffff8111156123605761235f611c4c565b5b61236c84828501612284565b91505092915050565b7f4e487b7100000000000000000000000000000000000000000000000000000000600052601160045260246000fd5b60006123af82611ea4565b91506123ba83611ea4565b9250817fffffffffffffffffffffffffffffffffffffffffffffffffffffffffffffffff04831182151516156123f3576123f2612375565b5b828202905092915050565b7f4e487b7100000000000000000000000000000000000000000000000000000000600052601260045260246000fd5b600061243882611ea4565b915061244383611ea4565b925082612453576124526123fe565b5b828204905092915050565b600061246982611ea4565b915061247483611ea4565b92508282101561248757612486612375565b5b828203905092915050565b60006060820190506124a76000830186612093565b6124b46020830185612093565b6124c16040830184611fec565b949350505050565b60006040820190506124de6000830185612093565b6124eb6020830184611fec565b9392505050565b7f416363657373436f6e74726f6c3a2063616e206f6e6c792072656e6f756e636560008201527f20726f6c657320666f722073656c660000000000000000000000000000000000602082015250565b600061254e602f83612016565b9150612559826124f2565b604082019050919050565b6000602082019050818103600083015261257d81612541565b9050919050565b60006020820190506125996000830184612093565b92915050565b6000608082840312156125b5576125b46120cb565b5b6125bf6080612141565b905060006125cf84828501612176565b60008301525060206125e384828501612176565b60208301525060406125f784828501612176565b604083015250606061260b84828501612176565b60608301525092915050565b60006080828403121561262d5761262c611c47565b5b600061263b8482850161259f565b91505092915050565b60006020828403121561265a57612659611c47565b5b600061266884828501612176565b91505092915050565b600061267c82611ea4565b915061268783611ea4565b9250827fffffffffffffffffffffffffffffffffffffffffffffffffffffffffffffffff038211156126bc576126bb612375565b5b828201905092915050565b60006060820190506126dc6000830186612093565b6126e96020830185611fec565b6126f66040830184611fec565b949350505050565b60006020828403121561271457612713611c47565b5b60006127228482850161226f565b91505092915050565b7f506f6f6c20646f6573206e6f7420657869737400000000000000000000000000600082015250565b6000612761601383612016565b915061276c8261272b565b602082019050919050565b6000602082019050818103600083015261279081612754565b9050919050565b60006080820190506127ac6000830187612093565b6127b96020830186612093565b6127c66040830185611fec565b6127d36060830184611fec565b95945050505050565b6000608082840312156127f2576127f16120cb565b5b6127fc6080612141565b9050600061280c84828501612176565b600083015250602061282084828501612176565b602083015250604061283484828501612176565b60408301525060606128488482850161226f565b60608301525092915050565b60006080828403121561286a57612869611c47565b5b6000612878848285016127dc565b91505092915050565b600081905092915050565b7f416363657373436f6e74726f6c3a206163636f756e7420000000000000000000600082015250565b60006128c2601783612881565b91506128cd8261288c565b601782019050919050565b600081519050919050565b60005b838110156129015780820151818401526020810190506128e6565b83811115612910576000848401525b50505050565b6000612921826128d8565b61292b8185612881565b935061293b8185602086016128e3565b80840191505092915050565b7f206973206d697373696e6720726f6c6520000000000000000000000000000000600082015250565b600061297d601183612881565b915061298882612947565b601182019050919050565b600061299e826128b5565b91506129aa8285612916565b91506129b582612970565b91506129c18284612916565b91508190509392505050565b60006129d8826128d8565b6129e28185612016565b93506129f28185602086016128e3565b6129fb816120d0565b840191505092915050565b60006020820190508181036000830152612a2081846129cd565b905092915050565b7f4e487b7100000000000000000000000000000000000000000000000000000000600052603260045260246000fd5b6000612a6282611ea4565b91506000821415612a7657612a75612375565b5b600182039050919050565b7f537472696e67733a20686578206c656e67746820696e73756666696369656e74600082015250565b6000612ab7602083612016565b9150612ac282612a81565b602082019050919050565b60006020820190508181036000830152612ae681612aaa565b905091905056fea26469706673582212207c7fc0260899f60096b925bf985561425c3cecee69d3cbe8aa9faf458920a65764736f6c634300080b0033",
  "linkReferences": {},
  "deployedLinkReferences": {}
}