{
  "_format": "hh-sol-artifact-1",
  "contractName": "RewardsV2",
  "sourceName": "contracts/rewards/Rewards.sol",
  "abi": [
    {
      "inputs": [
        {
          "internalType": "address",
          "name": "_vault",
          "type": "address"
        }
      ],
      "stateMutability": "nonpayable",
      "type": "constructor"
    },
    {
      "anonymous": false,
      "inputs": [
        {
          "indexed": false,
          "internalType": "address",
          "name": "_token",
          "type": "address"
        },
        {
          "indexed": false,
          "internalType": "uint256",
          "name": "_rewardsPerBlock",
          "type": "uint256"
        }
      ],
      "name": "AddPool",
      "type": "event"
    },
    {
      "anonymous": false,
      "inputs": [
        {
          "indexed": true,
          "internalType": "address",
          "name": "_token",
          "type": "address"
        },
        {
          "indexed": true,
          "internalType": "address",
          "name": "_user",
          "type": "address"
        },
        {
          "indexed": false,
          "internalType": "uint256",
          "name": "_amount",
          "type": "uint256"
        }
      ],
      "name": "Claim",
      "type": "event"
    },
    {
      "anonymous": false,
      "inputs": [
        {
          "indexed": true,
          "internalType": "address",
          "name": "_token",
          "type": "address"
        },
        {
          "indexed": true,
          "internalType": "address",
          "name": "_user",
          "type": "address"
        },
        {
          "indexed": false,
          "internalType": "uint256",
          "name": "_amount",
          "type": "uint256"
        }
      ],
      "name": "Deposit",
      "type": "event"
    },
    {
      "anonymous": false,
      "inputs": [
        {
          "indexed": false,
          "internalType": "address",
          "name": "account",
          "type": "address"
        }
      ],
      "name": "Paused",
      "type": "event"
    },
    {
      "anonymous": false,
      "inputs": [
        {
          "indexed": true,
          "internalType": "address",
          "name": "_token",
          "type": "address"
        },
        {
          "indexed": false,
          "internalType": "uint256",
          "name": "_block",
          "type": "uint256"
        }
      ],
      "name": "PoolUpdated",
      "type": "event"
    },
    {
      "anonymous": false,
      "inputs": [
        {
          "indexed": true,
          "internalType": "bytes32",
          "name": "role",
          "type": "bytes32"
        },
        {
          "indexed": true,
          "internalType": "bytes32",
          "name": "previousAdminRole",
          "type": "bytes32"
        },
        {
          "indexed": true,
          "internalType": "bytes32",
          "name": "newAdminRole",
          "type": "bytes32"
        }
      ],
      "name": "RoleAdminChanged",
      "type": "event"
    },
    {
      "anonymous": false,
      "inputs": [
        {
          "indexed": true,
          "internalType": "bytes32",
          "name": "role",
          "type": "bytes32"
        },
        {
          "indexed": true,
          "internalType": "address",
          "name": "account",
          "type": "address"
        },
        {
          "indexed": true,
          "internalType": "address",
          "name": "sender",
          "type": "address"
        }
      ],
      "name": "RoleGranted",
      "type": "event"
    },
    {
      "anonymous": false,
      "inputs": [
        {
          "indexed": true,
          "internalType": "bytes32",
          "name": "role",
          "type": "bytes32"
        },
        {
          "indexed": true,
          "internalType": "address",
          "name": "account",
          "type": "address"
        },
        {
          "indexed": true,
          "internalType": "address",
          "name": "sender",
          "type": "address"
        }
      ],
      "name": "RoleRevoked",
      "type": "event"
    },
    {
      "anonymous": false,
      "inputs": [
        {
          "indexed": false,
          "internalType": "address",
          "name": "_controller",
          "type": "address"
        }
      ],
      "name": "SetController",
      "type": "event"
    },
    {
      "anonymous": false,
      "inputs": [
        {
          "indexed": false,
          "internalType": "address",
          "name": "account",
          "type": "address"
        }
      ],
      "name": "Unpaused",
      "type": "event"
    },
    {
      "anonymous": false,
      "inputs": [
        {
          "indexed": true,
          "internalType": "address",
          "name": "_token",
          "type": "address"
        },
        {
          "indexed": true,
          "internalType": "address",
          "name": "_user",
          "type": "address"
        },
        {
          "indexed": false,
          "internalType": "uint256",
          "name": "_amount",
          "type": "uint256"
        }
      ],
      "name": "Withdraw",
      "type": "event"
    },
    {
      "inputs": [],
      "name": "DEFAULT_ADMIN_ROLE",
      "outputs": [
        {
          "internalType": "bytes32",
          "name": "",
          "type": "bytes32"
        }
      ],
      "stateMutability": "view",
      "type": "function"
    },
    {
      "inputs": [
        {
          "internalType": "address",
          "name": "_token",
          "type": "address"
        },
        {
          "internalType": "address",
          "name": "_user",
          "type": "address"
        }
      ],
      "name": "claim",
      "outputs": [],
      "stateMutability": "nonpayable",
      "type": "function"
    },
    {
      "inputs": [
        {
          "internalType": "address",
          "name": "_token",
          "type": "address"
        },
        {
          "internalType": "uint256",
          "name": "_amount",
          "type": "uint256"
        }
      ],
      "name": "deposit",
      "outputs": [],
      "stateMutability": "nonpayable",
      "type": "function"
    },
    {
      "inputs": [
        {
          "internalType": "bytes32",
          "name": "role",
          "type": "bytes32"
        }
      ],
      "name": "getRoleAdmin",
      "outputs": [
        {
          "internalType": "bytes32",
          "name": "",
          "type": "bytes32"
        }
      ],
      "stateMutability": "view",
      "type": "function"
    },
    {
      "inputs": [
        {
          "internalType": "bytes32",
          "name": "role",
          "type": "bytes32"
        },
        {
          "internalType": "address",
          "name": "account",
          "type": "address"
        }
      ],
      "name": "grantRole",
      "outputs": [],
      "stateMutability": "nonpayable",
      "type": "function"
    },
    {
      "inputs": [
        {
          "internalType": "bytes32",
          "name": "role",
          "type": "bytes32"
        },
        {
          "internalType": "address",
          "name": "account",
          "type": "address"
        }
      ],
      "name": "hasRole",
      "outputs": [
        {
          "internalType": "bool",
          "name": "",
          "type": "bool"
        }
      ],
      "stateMutability": "view",
      "type": "function"
    },
    {
      "inputs": [],
      "name": "paused",
      "outputs": [
        {
          "internalType": "bool",
          "name": "",
          "type": "bool"
        }
      ],
      "stateMutability": "view",
      "type": "function"
    },
    {
      "inputs": [
        {
          "internalType": "address",
          "name": "_token",
          "type": "address"
        },
        {
          "internalType": "address",
          "name": "_user",
          "type": "address"
        }
      ],
      "name": "pendingRewards",
      "outputs": [
        {
          "internalType": "uint256",
          "name": "pending",
          "type": "uint256"
        }
      ],
      "stateMutability": "nonpayable",
      "type": "function"
    },
    {
      "inputs": [
        {
          "internalType": "address",
          "name": "_token",
          "type": "address"
        },
        {
          "internalType": "address",
          "name": "_user",
          "type": "address"
        }
      ],
      "name": "pendingWithdrawals",
      "outputs": [
        {
          "internalType": "uint256",
          "name": "_unlockedAmount",
          "type": "uint256"
        }
      ],
      "stateMutability": "nonpayable",
      "type": "function"
    },
    {
      "inputs": [
        {
          "internalType": "bytes32",
          "name": "role",
          "type": "bytes32"
        },
        {
          "internalType": "address",
          "name": "account",
          "type": "address"
        }
      ],
      "name": "renounceRole",
      "outputs": [],
      "stateMutability": "nonpayable",
      "type": "function"
    },
    {
      "inputs": [
        {
          "internalType": "bytes32",
          "name": "role",
          "type": "bytes32"
        },
        {
          "internalType": "address",
          "name": "account",
          "type": "address"
        }
      ],
      "name": "revokeRole",
      "outputs": [],
      "stateMutability": "nonpayable",
      "type": "function"
    },
    {
      "inputs": [
        {
          "internalType": "address",
          "name": "_controller",
          "type": "address"
        }
      ],
      "name": "setController",
      "outputs": [],
      "stateMutability": "nonpayable",
      "type": "function"
    },
    {
      "inputs": [
        {
          "internalType": "address",
          "name": "_token",
          "type": "address"
        }
      ],
      "name": "setPool",
      "outputs": [
        {
          "components": [
            {
              "internalType": "uint256",
              "name": "totalPooled",
              "type": "uint256"
            },
            {
              "internalType": "uint256",
              "name": "rewardsPerBlock",
              "type": "uint256"
            },
            {
              "internalType": "uint256",
              "name": "accCaplPerShare",
              "type": "uint256"
            },
            {
              "internalType": "uint256",
              "name": "lastRewardBlock",
              "type": "uint256"
            }
          ],
          "internalType": "struct IPool.Pool",
          "name": "pool",
          "type": "tuple"
        }
      ],
      "stateMutability": "nonpayable",
      "type": "function"
    },
    {
      "inputs": [
        {
          "internalType": "bytes4",
          "name": "interfaceId",
          "type": "bytes4"
        }
      ],
      "name": "supportsInterface",
      "outputs": [
        {
          "internalType": "bool",
          "name": "",
          "type": "bool"
        }
      ],
      "stateMutability": "view",
      "type": "function"
    },
    {
      "inputs": [
        {
          "internalType": "address",
          "name": "_token",
          "type": "address"
        },
        {
          "internalType": "address",
          "name": "_user",
          "type": "address"
        }
      ],
      "name": "withdraw",
      "outputs": [],
      "stateMutability": "nonpayable",
      "type": "function"
    },
    {
      "inputs": [
        {
          "internalType": "address",
          "name": "_destination",
          "type": "address"
        }
      ],
      "name": "withdrawMATIC",
      "outputs": [],
      "stateMutability": "nonpayable",
      "type": "function"
    },
    {
      "inputs": [
        {
          "internalType": "address",
          "name": "_token",
          "type": "address"
        },
        {
          "internalType": "uint256",
          "name": "_amount",
          "type": "uint256"
        },
        {
          "internalType": "address",
          "name": "_destination",
          "type": "address"
        }
      ],
      "name": "withdrawToken",
      "outputs": [],
      "stateMutability": "nonpayable",
      "type": "function"
    }
  ],
  "bytecode": "0x6080604052670de0b6b3a76400006003553480156200001d57600080fd5b5060405162002d5d38038062002d5d83398181016040528101906200004391906200029e565b60008060006101000a81548160ff02191690831515021790555080600260006101000a81548173ffffffffffffffffffffffffffffffffffffffff021916908373ffffffffffffffffffffffffffffffffffffffff160217905550620000b36000801b33620000ba60201b60201c565b50620002d0565b620000cc8282620000d060201b60201c565b5050565b620000e28282620001c160201b60201c565b620001bd57600180600084815260200190815260200160002060000160008373ffffffffffffffffffffffffffffffffffffffff1673ffffffffffffffffffffffffffffffffffffffff16815260200190815260200160002060006101000a81548160ff021916908315150217905550620001626200022c60201b60201c565b73ffffffffffffffffffffffffffffffffffffffff168173ffffffffffffffffffffffffffffffffffffffff16837f2f8788117e7eff1d82e926ec794901d17c78024a50270940304540a733656f0d60405160405180910390a45b5050565b60006001600084815260200190815260200160002060000160008373ffffffffffffffffffffffffffffffffffffffff1673ffffffffffffffffffffffffffffffffffffffff16815260200190815260200160002060009054906101000a900460ff16905092915050565b600033905090565b600080fd5b600073ffffffffffffffffffffffffffffffffffffffff82169050919050565b6000620002668262000239565b9050919050565b620002788162000259565b81146200028457600080fd5b50565b60008151905062000298816200026d565b92915050565b600060208284031215620002b757620002b662000234565b5b6000620002c78482850162000287565b91505092915050565b612a7d80620002e06000396000f3fe608060405234801561001057600080fd5b506004361061010b5760003560e01c806347e7ef24116100a257806392eefe9b1161007157806392eefe9b146102c6578063a217fddf146102e2578063d547741f14610300578063e831be581461031c578063f940e3851461034c5761010b565b806347e7ef241461022c5780635c975abb1461024857806380ac82281461026657806391d14854146102965761010b565b806330e7e743116100de57806330e7e743146101a857806336568abe146101c45780633ccdbb28146101e05780634437152a146101fc5761010b565b806301ffc9a71461011057806321c0b34214610140578063248a9ca31461015c5780632f2ff15d1461018c575b600080fd5b61012a60048036038101906101259190611bf4565b610368565b6040516101379190611c3c565b60405180910390f35b61015a60048036038101906101559190611cb5565b6103e2565b005b61017660048036038101906101719190611d2b565b610668565b6040516101839190611d67565b60405180910390f35b6101a660048036038101906101a19190611d82565b610688565b005b6101c260048036038101906101bd9190611dc2565b6106b1565b005b6101de60048036038101906101d99190611d82565b6106ca565b005b6101fa60048036038101906101f59190611e25565b61074d565b005b61021660048036038101906102119190611dc2565b610768565b6040516102239190611edc565b60405180910390f35b61024660048036038101906102419190611ef7565b610a2f565b005b610250610ff3565b60405161025d9190611c3c565b60405180910390f35b610280600480360381019061027b9190611cb5565b611009565b60405161028d9190611f46565b60405180910390f35b6102b060048036038101906102ab9190611d82565b6112a2565b6040516102bd9190611c3c565b60405180910390f35b6102e060048036038101906102db9190611dc2565b61130d565b005b6102ea611367565b6040516102f79190611d67565b60405180910390f35b61031a60048036038101906103159190611d82565b61136e565b005b61033660048036038101906103319190611cb5565b611397565b6040516103439190611f46565b60405180910390f35b61036660048036038101906103619190611cb5565b611441565b005b60007f7965db0b000000000000000000000000000000000000000000000000000000007bffffffffffffffffffffffffffffffffffffffffffffffffffffffff1916827bffffffffffffffffffffffffffffffffffffffffffffffffffffffff191614806103db57506103da8261164c565b5b9050919050565b60006103ed83610768565b90506000600260009054906101000a900473ffffffffffffffffffffffffffffffffffffffff1673ffffffffffffffffffffffffffffffffffffffff166392a576e685856040518363ffffffff1660e01b815260040161044e929190611f70565b6000604051808303816000875af115801561046d573d6000803e3d6000fd5b505050506040513d6000823e3d601f19601f820116820180604052508101906104969190612222565b90506000600354836040015183602001516104b1919061229a565b6104bb9190612323565b905060008260600151826104cf9190612354565b9050600260009054906101000a900473ffffffffffffffffffffffffffffffffffffffff1673ffffffffffffffffffffffffffffffffffffffff16638a5bff6b8787856040518463ffffffff1660e01b815260040161053093929190612388565b600060405180830381600087803b15801561054a57600080fd5b505af115801561055e573d6000803e3d6000fd5b5050505060008111156105fb57600460009054906101000a900473ffffffffffffffffffffffffffffffffffffffff1673ffffffffffffffffffffffffffffffffffffffff166340c10f1986836040518363ffffffff1660e01b81526004016105c89291906123bf565b600060405180830381600087803b1580156105e257600080fd5b505af11580156105f6573d6000803e3d6000fd5b505050505b8473ffffffffffffffffffffffffffffffffffffffff168673ffffffffffffffffffffffffffffffffffffffff167f70eb43c4a8ae8c40502dcf22436c509c28d6ff421cf07c491be56984bd987068836040516106589190611f46565b60405180910390a3505050505050565b600060016000838152602001908152602001600020600101549050919050565b61069182610668565b6106a28161069d6116b6565b6116be565b6106ac838361175b565b505050565b6000801b6106c6816106c16116b6565b6116be565b5050565b6106d26116b6565b73ffffffffffffffffffffffffffffffffffffffff168173ffffffffffffffffffffffffffffffffffffffff161461073f576040517f08c379a00000000000000000000000000000000000000000000000000000000081526004016107369061246b565b60405180910390fd5b610749828261183b565b5050565b6000801b6107628161075d6116b6565b6116be565b50505050565b610770611b60565b6000600260009054906101000a900473ffffffffffffffffffffffffffffffffffffffff1673ffffffffffffffffffffffffffffffffffffffff1663bbe4f6db846040518263ffffffff1660e01b81526004016107cd919061248b565b6080604051808303816000875af11580156107ec573d6000803e3d6000fd5b505050506040513d601f19601f82011682018060405250810190610810919061251e565b90506000600260009054906101000a900473ffffffffffffffffffffffffffffffffffffffff1673ffffffffffffffffffffffffffffffffffffffff1663f2866c78856040518263ffffffff1660e01b815260040161086f919061248b565b6020604051808303816000875af115801561088e573d6000803e3d6000fd5b505050506040513d601f19601f820116820180604052508101906108b2919061254b565b905060008260600151431115610a265760008211156109205760008360600151436108dd9190612354565b905060008460200151826108f1919061229a565b90508360035482610902919061229a565b61090c9190612323565b856040015161091b9190612578565b925050505b60004390506000600260009054906101000a900473ffffffffffffffffffffffffffffffffffffffff1673ffffffffffffffffffffffffffffffffffffffff16633dff45e98885856040518463ffffffff1660e01b8152600401610986939291906125ce565b6080604051808303816000875af11580156109a5573d6000803e3d6000fd5b505050506040513d601f19601f820116820180604052508101906109c9919061251e565b90508673ffffffffffffffffffffffffffffffffffffffff167f2f4ae87a584f00dc35b043dd1c5ac839c1f41cd3a66e834d4e13faa6251634e683604051610a119190611f46565b60405180910390a28095505050505050610a2a565b5050505b919050565b600260009054906101000a900473ffffffffffffffffffffffffffffffffffffffff1673ffffffffffffffffffffffffffffffffffffffff1663999126d7836040518263ffffffff1660e01b8152600401610a8a919061248b565b602060405180830381865afa158015610aa7573d6000803e3d6000fd5b505050506040513d601f19601f82011682018060405250810190610acb9190612605565b610b0a576040517f08c379a0000000000000000000000000000000000000000000000000000000008152600401610b019061267e565b60405180910390fd5b6000610b1583610768565b90506000600354826040015184610b2c919061229a565b610b369190612323565b9050600260009054906101000a900473ffffffffffffffffffffffffffffffffffffffff1673ffffffffffffffffffffffffffffffffffffffff166356e45e4b856040518263ffffffff1660e01b8152600401610b93919061248b565b602060405180830381865afa158015610bb0573d6000803e3d6000fd5b505050506040513d601f19601f82011682018060405250810190610bd49190612605565b610c7057600260009054906101000a900473ffffffffffffffffffffffffffffffffffffffff1673ffffffffffffffffffffffffffffffffffffffff1663f5b5d237853386856040518563ffffffff1660e01b8152600401610c39949392919061269e565b600060405180830381600087803b158015610c5357600080fd5b505af1158015610c67573d6000803e3d6000fd5b50505050610fed565b600260009054906101000a900473ffffffffffffffffffffffffffffffffffffffff1673ffffffffffffffffffffffffffffffffffffffff1663d2456a95853386856040518563ffffffff1660e01b8152600401610cd1949392919061269e565b600060405180830381600087803b158015610ceb57600080fd5b505af1158015610cff573d6000803e3d6000fd5b505050506000600260009054906101000a900473ffffffffffffffffffffffffffffffffffffffff1673ffffffffffffffffffffffffffffffffffffffff16639338b7c986336040518363ffffffff1660e01b8152600401610d62929190611f70565b6080604051808303816000875af1158015610d81573d6000803e3d6000fd5b505050506040513d601f19601f82011682018060405250810190610da5919061275b565b9050610db4816020015161191d565b15610e4d57600260009054906101000a900473ffffffffffffffffffffffffffffffffffffffff1673ffffffffffffffffffffffffffffffffffffffff16636374299e33866040518363ffffffff1660e01b8152600401610e169291906123bf565b600060405180830381600087803b158015610e3057600080fd5b505af1158015610e44573d6000803e3d6000fd5b50505050610f86565b6000600260009054906101000a900473ffffffffffffffffffffffffffffffffffffffff1673ffffffffffffffffffffffffffffffffffffffff166312229f1387336040518363ffffffff1660e01b8152600401610eac929190611f70565b6020604051808303816000875af1158015610ecb573d6000803e3d6000fd5b505050506040513d601f19601f82011682018060405250810190610eef919061254b565b9050600260009054906101000a900473ffffffffffffffffffffffffffffffffffffffff1673ffffffffffffffffffffffffffffffffffffffff16631b2aa575873388856040518563ffffffff1660e01b8152600401610f52949392919061269e565b600060405180830381600087803b158015610f6c57600080fd5b505af1158015610f80573d6000803e3d6000fd5b50505050505b3373ffffffffffffffffffffffffffffffffffffffff168573ffffffffffffffffffffffffffffffffffffffff167f5548c837ab068cf56a2c2479df0882a4922fd203edb7517321831d95078c5f6286604051610fe39190611f46565b60405180910390a3505b50505050565b60008060009054906101000a900460ff16905090565b600080600260009054906101000a900473ffffffffffffffffffffffffffffffffffffffff1673ffffffffffffffffffffffffffffffffffffffff1663bbe4f6db856040518263ffffffff1660e01b8152600401611067919061248b565b6080604051808303816000875af1158015611086573d6000803e3d6000fd5b505050506040513d601f19601f820116820180604052508101906110aa919061251e565b90506000600260009054906101000a900473ffffffffffffffffffffffffffffffffffffffff1673ffffffffffffffffffffffffffffffffffffffff166392a576e686866040518363ffffffff1660e01b815260040161110b929190611f70565b6000604051808303816000875af115801561112a573d6000803e3d6000fd5b505050506040513d6000823e3d601f19601f820116820180604052508101906111539190612222565b90506000826040015190506000600260009054906101000a900473ffffffffffffffffffffffffffffffffffffffff1673ffffffffffffffffffffffffffffffffffffffff1663f2866c78886040518263ffffffff1660e01b81526004016111bb919061248b565b6020604051808303816000875af11580156111da573d6000803e3d6000fd5b505050506040513d601f19601f820116820180604052508101906111fe919061254b565b9050836060015143118015611214575060008114155b1561126a57600084606001514361122b9190612354565b9050600085602001518261123f919061229a565b90508260035482611250919061229a565b61125a9190612323565b846112659190612578565b935050505b8260600151600354838560200151611282919061229a565b61128c9190612323565b6112969190612354565b94505050505092915050565b60006001600084815260200190815260200160002060000160008373ffffffffffffffffffffffffffffffffffffffff1673ffffffffffffffffffffffffffffffffffffffff16815260200190815260200160002060009054906101000a900460ff16905092915050565b6000801b6113228161131d6116b6565b6116be565b81600460006101000a81548173ffffffffffffffffffffffffffffffffffffffff021916908373ffffffffffffffffffffffffffffffffffffffff1602179055505050565b6000801b81565b61137782610668565b611388816113836116b6565b6116be565b611392838361183b565b505050565b6000600260009054906101000a900473ffffffffffffffffffffffffffffffffffffffff1673ffffffffffffffffffffffffffffffffffffffff16630122a7e884846040518363ffffffff1660e01b81526004016113f6929190611f70565b6020604051808303816000875af1158015611415573d6000803e3d6000fd5b505050506040513d601f19601f82011682018060405250810190611439919061254b565b905092915050565b600061144c83610768565b90506000600260009054906101000a900473ffffffffffffffffffffffffffffffffffffffff1673ffffffffffffffffffffffffffffffffffffffff166392a576e685856040518363ffffffff1660e01b81526004016114ad929190611f70565b6000604051808303816000875af11580156114cc573d6000803e3d6000fd5b505050506040513d6000823e3d601f19601f820116820180604052508101906114f59190612222565b905060006115038585611397565b9050600060035484604001518361151a919061229a565b6115249190612323565b83606001516115339190612354565b905060008284602001516115479190612354565b9050600260009054906101000a900473ffffffffffffffffffffffffffffffffffffffff1673ffffffffffffffffffffffffffffffffffffffff16637623475988888685876040518663ffffffff1660e01b81526004016115ac959493929190612788565b600060405180830381600087803b1580156115c657600080fd5b505af11580156115da573d6000803e3d6000fd5b505050508573ffffffffffffffffffffffffffffffffffffffff168773ffffffffffffffffffffffffffffffffffffffff167f9b1bfa7fa9ee420a16e124f794c35ac9f90472acc99140eb2f6447c714cad8eb8560405161163b9190611f46565b60405180910390a350505050505050565b60007f01ffc9a7000000000000000000000000000000000000000000000000000000007bffffffffffffffffffffffffffffffffffffffffffffffffffffffff1916827bffffffffffffffffffffffffffffffffffffffffffffffffffffffff1916149050919050565b600033905090565b6116c882826112a2565b611757576116ed8173ffffffffffffffffffffffffffffffffffffffff166014611924565b6116fb8360001c6020611924565b60405160200161170c9291906128ed565b6040516020818303038152906040526040517f08c379a000000000000000000000000000000000000000000000000000000000815260040161174e9190612960565b60405180910390fd5b5050565b61176582826112a2565b61183757600180600084815260200190815260200160002060000160008373ffffffffffffffffffffffffffffffffffffffff1673ffffffffffffffffffffffffffffffffffffffff16815260200190815260200160002060006101000a81548160ff0219169083151502179055506117dc6116b6565b73ffffffffffffffffffffffffffffffffffffffff168173ffffffffffffffffffffffffffffffffffffffff16837f2f8788117e7eff1d82e926ec794901d17c78024a50270940304540a733656f0d60405160405180910390a45b5050565b61184582826112a2565b156119195760006001600084815260200190815260200160002060000160008373ffffffffffffffffffffffffffffffffffffffff1673ffffffffffffffffffffffffffffffffffffffff16815260200190815260200160002060006101000a81548160ff0219169083151502179055506118be6116b6565b73ffffffffffffffffffffffffffffffffffffffff168173ffffffffffffffffffffffffffffffffffffffff16837ff6391f5c32d9c69d2a47ea670b442974b53935d1edc7fd64eb21e047a839171b60405160405180910390a45b5050565b6000919050565b606060006002836002611937919061229a565b6119419190612578565b67ffffffffffffffff81111561195a57611959611faf565b5b6040519080825280601f01601f19166020018201604052801561198c5781602001600182028036833780820191505090505b5090507f3000000000000000000000000000000000000000000000000000000000000000816000815181106119c4576119c3612982565b5b60200101907effffffffffffffffffffffffffffffffffffffffffffffffffffffffffffff1916908160001a9053507f780000000000000000000000000000000000000000000000000000000000000081600181518110611a2857611a27612982565b5b60200101907effffffffffffffffffffffffffffffffffffffffffffffffffffffffffffff1916908160001a90535060006001846002611a68919061229a565b611a729190612578565b90505b6001811115611b12577f3031323334353637383961626364656600000000000000000000000000000000600f861660108110611ab457611ab3612982565b5b1a60f81b828281518110611acb57611aca612982565b5b60200101907effffffffffffffffffffffffffffffffffffffffffffffffffffffffffffff1916908160001a905350600485901c945080611b0b906129b1565b9050611a75565b5060008414611b56576040517f08c379a0000000000000000000000000000000000000000000000000000000008152600401611b4d90612a27565b60405180910390fd5b8091505092915050565b6040518060800160405280600081526020016000815260200160008152602001600081525090565b6000604051905090565b600080fd5b600080fd5b60007fffffffff0000000000000000000000000000000000000000000000000000000082169050919050565b611bd181611b9c565b8114611bdc57600080fd5b50565b600081359050611bee81611bc8565b92915050565b600060208284031215611c0a57611c09611b92565b5b6000611c1884828501611bdf565b91505092915050565b60008115159050919050565b611c3681611c21565b82525050565b6000602082019050611c516000830184611c2d565b92915050565b600073ffffffffffffffffffffffffffffffffffffffff82169050919050565b6000611c8282611c57565b9050919050565b611c9281611c77565b8114611c9d57600080fd5b50565b600081359050611caf81611c89565b92915050565b60008060408385031215611ccc57611ccb611b92565b5b6000611cda85828601611ca0565b9250506020611ceb85828601611ca0565b9150509250929050565b6000819050919050565b611d0881611cf5565b8114611d1357600080fd5b50565b600081359050611d2581611cff565b92915050565b600060208284031215611d4157611d40611b92565b5b6000611d4f84828501611d16565b91505092915050565b611d6181611cf5565b82525050565b6000602082019050611d7c6000830184611d58565b92915050565b60008060408385031215611d9957611d98611b92565b5b6000611da785828601611d16565b9250506020611db885828601611ca0565b9150509250929050565b600060208284031215611dd857611dd7611b92565b5b6000611de684828501611ca0565b91505092915050565b6000819050919050565b611e0281611def565b8114611e0d57600080fd5b50565b600081359050611e1f81611df9565b92915050565b600080600060608486031215611e3e57611e3d611b92565b5b6000611e4c86828701611ca0565b9350506020611e5d86828701611e10565b9250506040611e6e86828701611ca0565b9150509250925092565b611e8181611def565b82525050565b608082016000820151611e9d6000850182611e78565b506020820151611eb06020850182611e78565b506040820151611ec36040850182611e78565b506060820151611ed66060850182611e78565b50505050565b6000608082019050611ef16000830184611e87565b92915050565b60008060408385031215611f0e57611f0d611b92565b5b6000611f1c85828601611ca0565b9250506020611f2d85828601611e10565b9150509250929050565b611f4081611def565b82525050565b6000602082019050611f5b6000830184611f37565b92915050565b611f6a81611c77565b82525050565b6000604082019050611f856000830185611f61565b611f926020830184611f61565b9392505050565b600080fd5b6000601f19601f8301169050919050565b7f4e487b7100000000000000000000000000000000000000000000000000000000600052604160045260246000fd5b611fe782611f9e565b810181811067ffffffffffffffff8211171561200657612005611faf565b5b80604052505050565b6000612019611b88565b90506120258282611fde565b919050565b600080fd5b60008151905061203e81611c89565b92915050565b60008151905061205381611df9565b92915050565b600080fd5b600067ffffffffffffffff82111561207957612078611faf565b5b602082029050602081019050919050565b600080fd5b60006120a261209d8461205e565b61200f565b905080838252602082019050602084028301858111156120c5576120c461208a565b5b835b818110156120ee57806120da8882612044565b8452602084019350506020810190506120c7565b5050509392505050565b600082601f83011261210d5761210c612059565b5b815161211d84826020860161208f565b91505092915050565b61212f81611c21565b811461213a57600080fd5b50565b60008151905061214c81612126565b92915050565b600060e0828403121561216857612167611f99565b5b61217260e061200f565b905060006121828482850161202f565b600083015250602061219684828501612044565b60208301525060406121aa84828501612044565b60408301525060606121be84828501612044565b60608301525060806121d284828501612044565b60808301525060a082015167ffffffffffffffff8111156121f6576121f561202a565b5b612202848285016120f8565b60a08301525060c06122168482850161213d565b60c08301525092915050565b60006020828403121561223857612237611b92565b5b600082015167ffffffffffffffff81111561225657612255611b97565b5b61226284828501612152565b91505092915050565b7f4e487b7100000000000000000000000000000000000000000000000000000000600052601160045260246000fd5b60006122a582611def565b91506122b083611def565b9250817fffffffffffffffffffffffffffffffffffffffffffffffffffffffffffffffff04831182151516156122e9576122e861226b565b5b828202905092915050565b7f4e487b7100000000000000000000000000000000000000000000000000000000600052601260045260246000fd5b600061232e82611def565b915061233983611def565b925082612349576123486122f4565b5b828204905092915050565b600061235f82611def565b915061236a83611def565b92508282101561237d5761237c61226b565b5b828203905092915050565b600060608201905061239d6000830186611f61565b6123aa6020830185611f61565b6123b76040830184611f37565b949350505050565b60006040820190506123d46000830185611f61565b6123e16020830184611f37565b9392505050565b600082825260208201905092915050565b7f416363657373436f6e74726f6c3a2063616e206f6e6c792072656e6f756e636560008201527f20726f6c657320666f722073656c660000000000000000000000000000000000602082015250565b6000612455602f836123e8565b9150612460826123f9565b604082019050919050565b6000602082019050818103600083015261248481612448565b9050919050565b60006020820190506124a06000830184611f61565b92915050565b6000608082840312156124bc576124bb611f99565b5b6124c6608061200f565b905060006124d684828501612044565b60008301525060206124ea84828501612044565b60208301525060406124fe84828501612044565b604083015250606061251284828501612044565b60608301525092915050565b60006080828403121561253457612533611b92565b5b6000612542848285016124a6565b91505092915050565b60006020828403121561256157612560611b92565b5b600061256f84828501612044565b91505092915050565b600061258382611def565b915061258e83611def565b9250827fffffffffffffffffffffffffffffffffffffffffffffffffffffffffffffffff038211156125c3576125c261226b565b5b828201905092915050565b60006060820190506125e36000830186611f61565b6125f06020830185611f37565b6125fd6040830184611f37565b949350505050565b60006020828403121561261b5761261a611b92565b5b60006126298482850161213d565b91505092915050565b7f506f6f6c20646f6573206e6f7420657869737400000000000000000000000000600082015250565b60006126686013836123e8565b915061267382612632565b602082019050919050565b600060208201905081810360008301526126978161265b565b9050919050565b60006080820190506126b36000830187611f61565b6126c06020830186611f61565b6126cd6040830185611f37565b6126da6060830184611f37565b95945050505050565b6000608082840312156126f9576126f8611f99565b5b612703608061200f565b9050600061271384828501612044565b600083015250602061272784828501612044565b602083015250604061273b84828501612044565b604083015250606061274f8482850161213d565b60608301525092915050565b60006080828403121561277157612770611b92565b5b600061277f848285016126e3565b91505092915050565b600060a08201905061279d6000830188611f61565b6127aa6020830187611f61565b6127b76040830186611f37565b6127c46060830185611f37565b6127d16080830184611f37565b9695505050505050565b600081905092915050565b7f416363657373436f6e74726f6c3a206163636f756e7420000000000000000000600082015250565b600061281c6017836127db565b9150612827826127e6565b601782019050919050565b600081519050919050565b60005b8381101561285b578082015181840152602081019050612840565b8381111561286a576000848401525b50505050565b600061287b82612832565b61288581856127db565b935061289581856020860161283d565b80840191505092915050565b7f206973206d697373696e6720726f6c6520000000000000000000000000000000600082015250565b60006128d76011836127db565b91506128e2826128a1565b601182019050919050565b60006128f88261280f565b91506129048285612870565b915061290f826128ca565b915061291b8284612870565b91508190509392505050565b600061293282612832565b61293c81856123e8565b935061294c81856020860161283d565b61295581611f9e565b840191505092915050565b6000602082019050818103600083015261297a8184612927565b905092915050565b7f4e487b7100000000000000000000000000000000000000000000000000000000600052603260045260246000fd5b60006129bc82611def565b915060008214156129d0576129cf61226b565b5b600182039050919050565b7f537472696e67733a20686578206c656e67746820696e73756666696369656e74600082015250565b6000612a116020836123e8565b9150612a1c826129db565b602082019050919050565b60006020820190508181036000830152612a4081612a04565b905091905056fea26469706673582212202c6e98eb5e0a9d3aa9e679175212285e4f2b11596be38f94b606f2d0ca446ea064736f6c634300080b0033",
  "linkReferences": {},
  "deployedLinkReferences": {}
}