{
  "_format": "hh-sol-artifact-1",
  "contractName": "RewardsV2",
  "sourceName": "contracts/rewards/Rewards.sol",
  "abi": [
    {
      "inputs": [
        {
          "internalType": "address",
          "name": "_vault",
          "type": "address"
        }
      ],
      "stateMutability": "nonpayable",
      "type": "constructor"
    },
    {
      "anonymous": false,
      "inputs": [
        {
          "indexed": false,
          "internalType": "address",
          "name": "_token",
          "type": "address"
        },
        {
          "indexed": false,
          "internalType": "uint256",
          "name": "_rewardsPerBlock",
          "type": "uint256"
        }
      ],
      "name": "AddPool",
      "type": "event"
    },
    {
      "anonymous": false,
      "inputs": [
        {
          "indexed": true,
          "internalType": "address",
          "name": "_token",
          "type": "address"
        },
        {
          "indexed": true,
          "internalType": "address",
          "name": "_user",
          "type": "address"
        },
        {
          "indexed": false,
          "internalType": "uint256",
          "name": "_amount",
          "type": "uint256"
        }
      ],
      "name": "Claim",
      "type": "event"
    },
    {
      "anonymous": false,
      "inputs": [
        {
          "indexed": true,
          "internalType": "address",
          "name": "_token",
          "type": "address"
        },
        {
          "indexed": true,
          "internalType": "address",
          "name": "_user",
          "type": "address"
        },
        {
          "indexed": false,
          "internalType": "uint256",
          "name": "_amount",
          "type": "uint256"
        }
      ],
      "name": "Deposit",
      "type": "event"
    },
    {
      "anonymous": false,
      "inputs": [
        {
          "indexed": false,
          "internalType": "address",
          "name": "account",
          "type": "address"
        }
      ],
      "name": "Paused",
      "type": "event"
    },
    {
      "anonymous": false,
      "inputs": [
        {
          "indexed": true,
          "internalType": "address",
          "name": "_token",
          "type": "address"
        },
        {
          "indexed": false,
          "internalType": "uint256",
          "name": "_block",
          "type": "uint256"
        }
      ],
      "name": "PoolUpdated",
      "type": "event"
    },
    {
      "anonymous": false,
      "inputs": [
        {
          "indexed": true,
          "internalType": "bytes32",
          "name": "role",
          "type": "bytes32"
        },
        {
          "indexed": true,
          "internalType": "bytes32",
          "name": "previousAdminRole",
          "type": "bytes32"
        },
        {
          "indexed": true,
          "internalType": "bytes32",
          "name": "newAdminRole",
          "type": "bytes32"
        }
      ],
      "name": "RoleAdminChanged",
      "type": "event"
    },
    {
      "anonymous": false,
      "inputs": [
        {
          "indexed": true,
          "internalType": "bytes32",
          "name": "role",
          "type": "bytes32"
        },
        {
          "indexed": true,
          "internalType": "address",
          "name": "account",
          "type": "address"
        },
        {
          "indexed": true,
          "internalType": "address",
          "name": "sender",
          "type": "address"
        }
      ],
      "name": "RoleGranted",
      "type": "event"
    },
    {
      "anonymous": false,
      "inputs": [
        {
          "indexed": true,
          "internalType": "bytes32",
          "name": "role",
          "type": "bytes32"
        },
        {
          "indexed": true,
          "internalType": "address",
          "name": "account",
          "type": "address"
        },
        {
          "indexed": true,
          "internalType": "address",
          "name": "sender",
          "type": "address"
        }
      ],
      "name": "RoleRevoked",
      "type": "event"
    },
    {
      "anonymous": false,
      "inputs": [
        {
          "indexed": false,
          "internalType": "address",
          "name": "_controller",
          "type": "address"
        }
      ],
      "name": "SetController",
      "type": "event"
    },
    {
      "anonymous": false,
      "inputs": [
        {
          "indexed": false,
          "internalType": "address",
          "name": "account",
          "type": "address"
        }
      ],
      "name": "Unpaused",
      "type": "event"
    },
    {
      "anonymous": false,
      "inputs": [
        {
          "indexed": true,
          "internalType": "address",
          "name": "_token",
          "type": "address"
        },
        {
          "indexed": true,
          "internalType": "address",
          "name": "_user",
          "type": "address"
        },
        {
          "indexed": false,
          "internalType": "uint256",
          "name": "_amount",
          "type": "uint256"
        }
      ],
      "name": "Withdraw",
      "type": "event"
    },
    {
      "anonymous": false,
      "inputs": [
        {
          "indexed": false,
          "internalType": "address",
          "name": "destination",
          "type": "address"
        },
        {
          "indexed": false,
          "internalType": "uint256",
          "name": "amount",
          "type": "uint256"
        }
      ],
      "name": "WithdrawMATIC",
      "type": "event"
    },
    {
      "inputs": [],
      "name": "DEFAULT_ADMIN_ROLE",
      "outputs": [
        {
          "internalType": "bytes32",
          "name": "",
          "type": "bytes32"
        }
      ],
      "stateMutability": "view",
      "type": "function"
    },
    {
      "inputs": [
        {
          "internalType": "address",
          "name": "_token",
          "type": "address"
        },
        {
          "internalType": "uint256",
          "name": "_rewardsPerBlock",
          "type": "uint256"
        }
      ],
      "name": "addPool",
      "outputs": [],
      "stateMutability": "nonpayable",
      "type": "function"
    },
    {
      "inputs": [
        {
          "internalType": "address",
          "name": "_token",
          "type": "address"
        },
        {
          "internalType": "address",
          "name": "_user",
          "type": "address"
        }
      ],
      "name": "claim",
      "outputs": [],
      "stateMutability": "nonpayable",
      "type": "function"
    },
    {
      "inputs": [
        {
          "internalType": "address",
          "name": "_token",
          "type": "address"
        },
        {
          "internalType": "uint256",
          "name": "_amount",
          "type": "uint256"
        }
      ],
      "name": "deposit",
      "outputs": [],
      "stateMutability": "nonpayable",
      "type": "function"
    },
    {
      "inputs": [
        {
          "internalType": "bytes32",
          "name": "role",
          "type": "bytes32"
        }
      ],
      "name": "getRoleAdmin",
      "outputs": [
        {
          "internalType": "bytes32",
          "name": "",
          "type": "bytes32"
        }
      ],
      "stateMutability": "view",
      "type": "function"
    },
    {
      "inputs": [
        {
          "internalType": "bytes32",
          "name": "role",
          "type": "bytes32"
        },
        {
          "internalType": "address",
          "name": "account",
          "type": "address"
        }
      ],
      "name": "grantRole",
      "outputs": [],
      "stateMutability": "nonpayable",
      "type": "function"
    },
    {
      "inputs": [
        {
          "internalType": "bytes32",
          "name": "role",
          "type": "bytes32"
        },
        {
          "internalType": "address",
          "name": "account",
          "type": "address"
        }
      ],
      "name": "hasRole",
      "outputs": [
        {
          "internalType": "bool",
          "name": "",
          "type": "bool"
        }
      ],
      "stateMutability": "view",
      "type": "function"
    },
    {
      "inputs": [],
      "name": "paused",
      "outputs": [
        {
          "internalType": "bool",
          "name": "",
          "type": "bool"
        }
      ],
      "stateMutability": "view",
      "type": "function"
    },
    {
      "inputs": [
        {
          "internalType": "address",
          "name": "_token",
          "type": "address"
        },
        {
          "internalType": "address",
          "name": "_user",
          "type": "address"
        }
      ],
      "name": "pendingRewards",
      "outputs": [
        {
          "internalType": "uint256",
          "name": "pending",
          "type": "uint256"
        }
      ],
      "stateMutability": "nonpayable",
      "type": "function"
    },
    {
      "inputs": [
        {
          "internalType": "bytes32",
          "name": "role",
          "type": "bytes32"
        },
        {
          "internalType": "address",
          "name": "account",
          "type": "address"
        }
      ],
      "name": "renounceRole",
      "outputs": [],
      "stateMutability": "nonpayable",
      "type": "function"
    },
    {
      "inputs": [
        {
          "internalType": "bytes32",
          "name": "role",
          "type": "bytes32"
        },
        {
          "internalType": "address",
          "name": "account",
          "type": "address"
        }
      ],
      "name": "revokeRole",
      "outputs": [],
      "stateMutability": "nonpayable",
      "type": "function"
    },
    {
      "inputs": [
        {
          "internalType": "address",
          "name": "_controller",
          "type": "address"
        }
      ],
      "name": "setController",
      "outputs": [],
      "stateMutability": "nonpayable",
      "type": "function"
    },
    {
      "inputs": [
        {
          "internalType": "bytes4",
          "name": "interfaceId",
          "type": "bytes4"
        }
      ],
      "name": "supportsInterface",
      "outputs": [
        {
          "internalType": "bool",
          "name": "",
          "type": "bool"
        }
      ],
      "stateMutability": "view",
      "type": "function"
    },
    {
      "inputs": [
        {
          "internalType": "address",
          "name": "_token",
          "type": "address"
        }
      ],
      "name": "updatePool",
      "outputs": [
        {
          "components": [
            {
              "internalType": "uint256",
              "name": "totalPooled",
              "type": "uint256"
            },
            {
              "internalType": "uint256",
              "name": "rewardsPerBlock",
              "type": "uint256"
            },
            {
              "internalType": "uint256",
              "name": "accCaplPerShare",
              "type": "uint256"
            },
            {
              "internalType": "uint256",
              "name": "lastRewardBlock",
              "type": "uint256"
            }
          ],
          "internalType": "struct IPool.Pool",
          "name": "pool",
          "type": "tuple"
        }
      ],
      "stateMutability": "nonpayable",
      "type": "function"
    },
    {
      "inputs": [
        {
          "internalType": "address",
          "name": "_token",
          "type": "address"
        },
        {
          "internalType": "address",
          "name": "_user",
          "type": "address"
        }
      ],
      "name": "withdraw",
      "outputs": [],
      "stateMutability": "nonpayable",
      "type": "function"
    },
    {
      "inputs": [
        {
          "internalType": "address",
          "name": "_destination",
          "type": "address"
        }
      ],
      "name": "withdrawMATIC",
      "outputs": [],
      "stateMutability": "nonpayable",
      "type": "function"
    },
    {
      "inputs": [
        {
          "internalType": "address",
          "name": "_token",
          "type": "address"
        },
        {
          "internalType": "uint256",
          "name": "_amount",
          "type": "uint256"
        },
        {
          "internalType": "address",
          "name": "_destination",
          "type": "address"
        }
      ],
      "name": "withdrawToken",
      "outputs": [],
      "stateMutability": "nonpayable",
      "type": "function"
    }
  ],
  "bytecode": "0x6080604052670de0b6b3a764000060035562093a806005553480156200002457600080fd5b5060405162002e9c38038062002e9c83398181016040528101906200004a9190620002a5565b60008060006101000a81548160ff02191690831515021790555080600260006101000a81548173ffffffffffffffffffffffffffffffffffffffff021916908373ffffffffffffffffffffffffffffffffffffffff160217905550620000ba6000801b33620000c160201b60201c565b50620002d7565b620000d38282620000d760201b60201c565b5050565b620000e98282620001c860201b60201c565b620001c457600180600084815260200190815260200160002060000160008373ffffffffffffffffffffffffffffffffffffffff1673ffffffffffffffffffffffffffffffffffffffff16815260200190815260200160002060006101000a81548160ff021916908315150217905550620001696200023360201b60201c565b73ffffffffffffffffffffffffffffffffffffffff168173ffffffffffffffffffffffffffffffffffffffff16837f2f8788117e7eff1d82e926ec794901d17c78024a50270940304540a733656f0d60405160405180910390a45b5050565b60006001600084815260200190815260200160002060000160008373ffffffffffffffffffffffffffffffffffffffff1673ffffffffffffffffffffffffffffffffffffffff16815260200190815260200160002060009054906101000a900460ff16905092915050565b600033905090565b600080fd5b600073ffffffffffffffffffffffffffffffffffffffff82169050919050565b60006200026d8262000240565b9050919050565b6200027f8162000260565b81146200028b57600080fd5b50565b6000815190506200029f8162000274565b92915050565b600060208284031215620002be57620002bd6200023b565b5b6000620002ce848285016200028e565b91505092915050565b612bb580620002e76000396000f3fe608060405234801561001057600080fd5b506004361061010b5760003560e01c806347e7ef24116100a257806391d148541161007157806391d14854146102b257806392eefe9b146102e2578063a217fddf146102fe578063d547741f1461031c578063f940e385146103385761010b565b806347e7ef24146102185780635c975abb146102345780637b46c54f1461025257806380ac8228146102825761010b565b806330e7e743116100de57806330e7e743146101a857806332a9caba146101c457806336568abe146101e05780633ccdbb28146101fc5761010b565b806301ffc9a71461011057806321c0b34214610140578063248a9ca31461015c5780632f2ff15d1461018c575b600080fd5b61012a60048036038101906101259190611d3b565b610354565b6040516101379190611d83565b60405180910390f35b61015a60048036038101906101559190611dfc565b6103ce565b005b61017660048036038101906101719190611e72565b610654565b6040516101839190611eae565b60405180910390f35b6101a660048036038101906101a19190611ec9565b610674565b005b6101c260048036038101906101bd9190611f09565b61069d565b005b6101de60048036038101906101d99190611f6c565b61077f565b005b6101fa60048036038101906101f59190611ec9565b610828565b005b61021660048036038101906102119190611fac565b6108ab565b005b610232600480360381019061022d9190611f6c565b6108c6565b005b61023c610e8c565b6040516102499190611d83565b60405180910390f35b61026c60048036038101906102679190611f09565b610ea2565b6040516102799190612063565b60405180910390f35b61029c60048036038101906102979190611dfc565b611169565b6040516102a9919061208d565b60405180910390f35b6102cc60048036038101906102c79190611ec9565b611402565b6040516102d99190611d83565b60405180910390f35b6102fc60048036038101906102f79190611f09565b61146d565b005b6103066114c7565b6040516103139190611eae565b60405180910390f35b61033660048036038101906103319190611ec9565b6114ce565b005b610352600480360381019061034d9190611dfc565b6114f7565b005b60007f7965db0b000000000000000000000000000000000000000000000000000000007bffffffffffffffffffffffffffffffffffffffffffffffffffffffff1916827bffffffffffffffffffffffffffffffffffffffffffffffffffffffff191614806103c757506103c682611781565b5b9050919050565b60006103d983610ea2565b90506000600260009054906101000a900473ffffffffffffffffffffffffffffffffffffffff1673ffffffffffffffffffffffffffffffffffffffff166392a576e685856040518363ffffffff1660e01b815260040161043a9291906120b7565b6000604051808303816000875af1158015610459573d6000803e3d6000fd5b505050506040513d6000823e3d601f19601f820116820180604052508101906104829190612341565b905060006003548360400151836020015161049d91906123b9565b6104a79190612442565b905060008260400151826104bb9190612473565b9050600260009054906101000a900473ffffffffffffffffffffffffffffffffffffffff1673ffffffffffffffffffffffffffffffffffffffff16638a5bff6b8787856040518463ffffffff1660e01b815260040161051c939291906124a7565b600060405180830381600087803b15801561053657600080fd5b505af115801561054a573d6000803e3d6000fd5b5050505060008111156105e757600460009054906101000a900473ffffffffffffffffffffffffffffffffffffffff1673ffffffffffffffffffffffffffffffffffffffff166340c10f1986836040518363ffffffff1660e01b81526004016105b49291906124de565b600060405180830381600087803b1580156105ce57600080fd5b505af11580156105e2573d6000803e3d6000fd5b505050505b8473ffffffffffffffffffffffffffffffffffffffff168673ffffffffffffffffffffffffffffffffffffffff167f70eb43c4a8ae8c40502dcf22436c509c28d6ff421cf07c491be56984bd98706883604051610644919061208d565b60405180910390a3505050505050565b600060016000838152602001908152602001600020600101549050919050565b61067d82610654565b61068e816106896117eb565b6117f3565b6106988383611890565b505050565b6000801b6106b2816106ad6117eb565b6117f3565b600047116106f5576040517f08c379a00000000000000000000000000000000000000000000000000000000081526004016106ec90612564565b60405180910390fd5b60004790503373ffffffffffffffffffffffffffffffffffffffff166108fc829081150290604051600060405180830381858888f19350505050158015610740573d6000803e3d6000fd5b507f43b2a2d6daf661162c8c435ac5820ea5b1e0046355c5faac17d06ecb4f60f15333826040516107729291906124de565b60405180910390a1505050565b6000801b6107948161078f6117eb565b6117f3565b600260009054906101000a900473ffffffffffffffffffffffffffffffffffffffff1673ffffffffffffffffffffffffffffffffffffffff166332a9caba84846040518363ffffffff1660e01b81526004016107f19291906124de565b600060405180830381600087803b15801561080b57600080fd5b505af115801561081f573d6000803e3d6000fd5b50505050505050565b6108306117eb565b73ffffffffffffffffffffffffffffffffffffffff168173ffffffffffffffffffffffffffffffffffffffff161461089d576040517f08c379a0000000000000000000000000000000000000000000000000000000008152600401610894906125f6565b60405180910390fd5b6108a78282611970565b5050565b6000801b6108c0816108bb6117eb565b6117f3565b50505050565b600260009054906101000a900473ffffffffffffffffffffffffffffffffffffffff1673ffffffffffffffffffffffffffffffffffffffff1663999126d7836040518263ffffffff1660e01b81526004016109219190612616565b602060405180830381865afa15801561093e573d6000803e3d6000fd5b505050506040513d601f19601f820116820180604052508101906109629190612631565b6109a1576040517f08c379a0000000000000000000000000000000000000000000000000000000008152600401610998906126aa565b60405180910390fd5b60006109ac83610ea2565b905060006003548260400151846109c391906123b9565b6109cd9190612442565b9050600260009054906101000a900473ffffffffffffffffffffffffffffffffffffffff1673ffffffffffffffffffffffffffffffffffffffff166356e45e4b856040518263ffffffff1660e01b8152600401610a2a9190612616565b602060405180830381865afa158015610a47573d6000803e3d6000fd5b505050506040513d601f19601f82011682018060405250810190610a6b9190612631565b610b0757600260009054906101000a900473ffffffffffffffffffffffffffffffffffffffff1673ffffffffffffffffffffffffffffffffffffffff1663f5b5d237853386856040518563ffffffff1660e01b8152600401610ad094939291906126ca565b600060405180830381600087803b158015610aea57600080fd5b505af1158015610afe573d6000803e3d6000fd5b50505050610e86565b600260009054906101000a900473ffffffffffffffffffffffffffffffffffffffff1673ffffffffffffffffffffffffffffffffffffffff1663d2456a95853386856040518563ffffffff1660e01b8152600401610b6894939291906126ca565b600060405180830381600087803b158015610b8257600080fd5b505af1158015610b96573d6000803e3d6000fd5b505050506000600260009054906101000a900473ffffffffffffffffffffffffffffffffffffffff1673ffffffffffffffffffffffffffffffffffffffff16639338b7c986336040518363ffffffff1660e01b8152600401610bf99291906120b7565b6080604051808303816000875af1158015610c18573d6000803e3d6000fd5b505050506040513d601f19601f82011682018060405250810190610c3c9190612787565b9050610c4b8160200151611a52565b15610ce657600260009054906101000a900473ffffffffffffffffffffffffffffffffffffffff1673ffffffffffffffffffffffffffffffffffffffff1663dfc2d1ba8633876040518463ffffffff1660e01b8152600401610caf939291906124a7565b600060405180830381600087803b158015610cc957600080fd5b505af1158015610cdd573d6000803e3d6000fd5b50505050610e1f565b6000600260009054906101000a900473ffffffffffffffffffffffffffffffffffffffff1673ffffffffffffffffffffffffffffffffffffffff166312229f1387336040518363ffffffff1660e01b8152600401610d459291906120b7565b6020604051808303816000875af1158015610d64573d6000803e3d6000fd5b505050506040513d601f19601f82011682018060405250810190610d8891906127b4565b9050600260009054906101000a900473ffffffffffffffffffffffffffffffffffffffff1673ffffffffffffffffffffffffffffffffffffffff16631b2aa575873388856040518563ffffffff1660e01b8152600401610deb94939291906126ca565b600060405180830381600087803b158015610e0557600080fd5b505af1158015610e19573d6000803e3d6000fd5b50505050505b3373ffffffffffffffffffffffffffffffffffffffff168573ffffffffffffffffffffffffffffffffffffffff167f5548c837ab068cf56a2c2479df0882a4922fd203edb7517321831d95078c5f6286604051610e7c919061208d565b60405180910390a3505b50505050565b60008060009054906101000a900460ff16905090565b610eaa611ca7565b6000600260009054906101000a900473ffffffffffffffffffffffffffffffffffffffff1673ffffffffffffffffffffffffffffffffffffffff1663bbe4f6db846040518263ffffffff1660e01b8152600401610f079190612616565b6080604051808303816000875af1158015610f26573d6000803e3d6000fd5b505050506040513d601f19601f82011682018060405250810190610f4a9190612859565b90506000600260009054906101000a900473ffffffffffffffffffffffffffffffffffffffff1673ffffffffffffffffffffffffffffffffffffffff1663f2866c78856040518263ffffffff1660e01b8152600401610fa99190612616565b6020604051808303816000875af1158015610fc8573d6000803e3d6000fd5b505050506040513d601f19601f82011682018060405250810190610fec91906127b4565b90506000826060015143111561116057600082111561105a5760008360600151436110179190612473565b9050600084602001518261102b91906123b9565b9050836003548261103c91906123b9565b6110469190612442565b85604001516110559190612886565b925050505b60004390506000600260009054906101000a900473ffffffffffffffffffffffffffffffffffffffff1673ffffffffffffffffffffffffffffffffffffffff1663695c0bb88885856040518463ffffffff1660e01b81526004016110c0939291906128dc565b6080604051808303816000875af11580156110df573d6000803e3d6000fd5b505050506040513d601f19601f820116820180604052508101906111039190612859565b90508673ffffffffffffffffffffffffffffffffffffffff167f2f4ae87a584f00dc35b043dd1c5ac839c1f41cd3a66e834d4e13faa6251634e68360405161114b919061208d565b60405180910390a28095505050505050611164565b5050505b919050565b600080600260009054906101000a900473ffffffffffffffffffffffffffffffffffffffff1673ffffffffffffffffffffffffffffffffffffffff1663bbe4f6db856040518263ffffffff1660e01b81526004016111c79190612616565b6080604051808303816000875af11580156111e6573d6000803e3d6000fd5b505050506040513d601f19601f8201168201806040525081019061120a9190612859565b90506000600260009054906101000a900473ffffffffffffffffffffffffffffffffffffffff1673ffffffffffffffffffffffffffffffffffffffff166392a576e686866040518363ffffffff1660e01b815260040161126b9291906120b7565b6000604051808303816000875af115801561128a573d6000803e3d6000fd5b505050506040513d6000823e3d601f19601f820116820180604052508101906112b39190612341565b90506000826040015190506000600260009054906101000a900473ffffffffffffffffffffffffffffffffffffffff1673ffffffffffffffffffffffffffffffffffffffff1663f2866c78886040518263ffffffff1660e01b815260040161131b9190612616565b6020604051808303816000875af115801561133a573d6000803e3d6000fd5b505050506040513d601f19601f8201168201806040525081019061135e91906127b4565b9050836060015143118015611374575060008114155b156113ca57600084606001514361138b9190612473565b9050600085602001518261139f91906123b9565b905082600354826113b091906123b9565b6113ba9190612442565b846113c59190612886565b935050505b82604001516003548385602001516113e291906123b9565b6113ec9190612442565b6113f69190612473565b94505050505092915050565b60006001600084815260200190815260200160002060000160008373ffffffffffffffffffffffffffffffffffffffff1673ffffffffffffffffffffffffffffffffffffffff16815260200190815260200160002060009054906101000a900460ff16905092915050565b6000801b6114828161147d6117eb565b6117f3565b81600460006101000a81548173ffffffffffffffffffffffffffffffffffffffff021916908373ffffffffffffffffffffffffffffffffffffffff1602179055505050565b6000801b81565b6114d782610654565b6114e8816114e36117eb565b6117f3565b6114f28383611970565b505050565b600061150283610ea2565b90506000600260009054906101000a900473ffffffffffffffffffffffffffffffffffffffff1673ffffffffffffffffffffffffffffffffffffffff166392a576e685856040518363ffffffff1660e01b81526004016115639291906120b7565b6000604051808303816000875af1158015611582573d6000803e3d6000fd5b505050506040513d6000823e3d601f19601f820116820180604052508101906115ab9190612341565b90506000600260009054906101000a900473ffffffffffffffffffffffffffffffffffffffff1673ffffffffffffffffffffffffffffffffffffffff16630122a7e886866040518363ffffffff1660e01b815260040161160c9291906120b7565b6020604051808303816000875af115801561162b573d6000803e3d6000fd5b505050506040513d601f19601f8201168201806040525081019061164f91906127b4565b9050600060035484604001518361166691906123b9565b6116709190612442565b836040015161167f9190612473565b9050600260009054906101000a900473ffffffffffffffffffffffffffffffffffffffff1673ffffffffffffffffffffffffffffffffffffffff16637bfe950c878785856040518563ffffffff1660e01b81526004016116e294939291906126ca565b600060405180830381600087803b1580156116fc57600080fd5b505af1158015611710573d6000803e3d6000fd5b505050508473ffffffffffffffffffffffffffffffffffffffff168673ffffffffffffffffffffffffffffffffffffffff167f9b1bfa7fa9ee420a16e124f794c35ac9f90472acc99140eb2f6447c714cad8eb84604051611771919061208d565b60405180910390a3505050505050565b60007f01ffc9a7000000000000000000000000000000000000000000000000000000007bffffffffffffffffffffffffffffffffffffffffffffffffffffffff1916827bffffffffffffffffffffffffffffffffffffffffffffffffffffffff1916149050919050565b600033905090565b6117fd8282611402565b61188c576118228173ffffffffffffffffffffffffffffffffffffffff166014611a6b565b6118308360001c6020611a6b565b604051602001611841929190612a25565b6040516020818303038152906040526040517f08c379a00000000000000000000000000000000000000000000000000000000081526004016118839190612a98565b60405180910390fd5b5050565b61189a8282611402565b61196c57600180600084815260200190815260200160002060000160008373ffffffffffffffffffffffffffffffffffffffff1673ffffffffffffffffffffffffffffffffffffffff16815260200190815260200160002060006101000a81548160ff0219169083151502179055506119116117eb565b73ffffffffffffffffffffffffffffffffffffffff168173ffffffffffffffffffffffffffffffffffffffff16837f2f8788117e7eff1d82e926ec794901d17c78024a50270940304540a733656f0d60405160405180910390a45b5050565b61197a8282611402565b15611a4e5760006001600084815260200190815260200160002060000160008373ffffffffffffffffffffffffffffffffffffffff1673ffffffffffffffffffffffffffffffffffffffff16815260200190815260200160002060006101000a81548160ff0219169083151502179055506119f36117eb565b73ffffffffffffffffffffffffffffffffffffffff168173ffffffffffffffffffffffffffffffffffffffff16837ff6391f5c32d9c69d2a47ea670b442974b53935d1edc7fd64eb21e047a839171b60405160405180910390a45b5050565b60004360055483611a639190612886565b109050919050565b606060006002836002611a7e91906123b9565b611a889190612886565b67ffffffffffffffff811115611aa157611aa06120f6565b5b6040519080825280601f01601f191660200182016040528015611ad35781602001600182028036833780820191505090505b5090507f300000000000000000000000000000000000000000000000000000000000000081600081518110611b0b57611b0a612aba565b5b60200101907effffffffffffffffffffffffffffffffffffffffffffffffffffffffffffff1916908160001a9053507f780000000000000000000000000000000000000000000000000000000000000081600181518110611b6f57611b6e612aba565b5b60200101907effffffffffffffffffffffffffffffffffffffffffffffffffffffffffffff1916908160001a90535060006001846002611baf91906123b9565b611bb99190612886565b90505b6001811115611c59577f3031323334353637383961626364656600000000000000000000000000000000600f861660108110611bfb57611bfa612aba565b5b1a60f81b828281518110611c1257611c11612aba565b5b60200101907effffffffffffffffffffffffffffffffffffffffffffffffffffffffffffff1916908160001a905350600485901c945080611c5290612ae9565b9050611bbc565b5060008414611c9d576040517f08c379a0000000000000000000000000000000000000000000000000000000008152600401611c9490612b5f565b60405180910390fd5b8091505092915050565b6040518060800160405280600081526020016000815260200160008152602001600081525090565b6000604051905090565b600080fd5b600080fd5b60007fffffffff0000000000000000000000000000000000000000000000000000000082169050919050565b611d1881611ce3565b8114611d2357600080fd5b50565b600081359050611d3581611d0f565b92915050565b600060208284031215611d5157611d50611cd9565b5b6000611d5f84828501611d26565b91505092915050565b60008115159050919050565b611d7d81611d68565b82525050565b6000602082019050611d986000830184611d74565b92915050565b600073ffffffffffffffffffffffffffffffffffffffff82169050919050565b6000611dc982611d9e565b9050919050565b611dd981611dbe565b8114611de457600080fd5b50565b600081359050611df681611dd0565b92915050565b60008060408385031215611e1357611e12611cd9565b5b6000611e2185828601611de7565b9250506020611e3285828601611de7565b9150509250929050565b6000819050919050565b611e4f81611e3c565b8114611e5a57600080fd5b50565b600081359050611e6c81611e46565b92915050565b600060208284031215611e8857611e87611cd9565b5b6000611e9684828501611e5d565b91505092915050565b611ea881611e3c565b82525050565b6000602082019050611ec36000830184611e9f565b92915050565b60008060408385031215611ee057611edf611cd9565b5b6000611eee85828601611e5d565b9250506020611eff85828601611de7565b9150509250929050565b600060208284031215611f1f57611f1e611cd9565b5b6000611f2d84828501611de7565b91505092915050565b6000819050919050565b611f4981611f36565b8114611f5457600080fd5b50565b600081359050611f6681611f40565b92915050565b60008060408385031215611f8357611f82611cd9565b5b6000611f9185828601611de7565b9250506020611fa285828601611f57565b9150509250929050565b600080600060608486031215611fc557611fc4611cd9565b5b6000611fd386828701611de7565b9350506020611fe486828701611f57565b9250506040611ff586828701611de7565b9150509250925092565b61200881611f36565b82525050565b6080820160008201516120246000850182611fff565b5060208201516120376020850182611fff565b50604082015161204a6040850182611fff565b50606082015161205d6060850182611fff565b50505050565b6000608082019050612078600083018461200e565b92915050565b61208781611f36565b82525050565b60006020820190506120a2600083018461207e565b92915050565b6120b181611dbe565b82525050565b60006040820190506120cc60008301856120a8565b6120d960208301846120a8565b9392505050565b600080fd5b6000601f19601f8301169050919050565b7f4e487b7100000000000000000000000000000000000000000000000000000000600052604160045260246000fd5b61212e826120e5565b810181811067ffffffffffffffff8211171561214d5761214c6120f6565b5b80604052505050565b6000612160611ccf565b905061216c8282612125565b919050565b600080fd5b60008151905061218581611dd0565b92915050565b60008151905061219a81611f40565b92915050565b600080fd5b600067ffffffffffffffff8211156121c0576121bf6120f6565b5b602082029050602081019050919050565b600080fd5b60006121e96121e4846121a5565b612156565b9050808382526020820190506020840283018581111561220c5761220b6121d1565b5b835b818110156122355780612221888261218b565b84526020840193505060208101905061220e565b5050509392505050565b600082601f830112612254576122536121a0565b5b81516122648482602086016121d6565b91505092915050565b61227681611d68565b811461228157600080fd5b50565b6000815190506122938161226d565b92915050565b600060a082840312156122af576122ae6120e0565b5b6122b960a0612156565b905060006122c984828501612176565b60008301525060206122dd8482850161218b565b60208301525060406122f18482850161218b565b604083015250606082015167ffffffffffffffff81111561231557612314612171565b5b6123218482850161223f565b606083015250608061233584828501612284565b60808301525092915050565b60006020828403121561235757612356611cd9565b5b600082015167ffffffffffffffff81111561237557612374611cde565b5b61238184828501612299565b91505092915050565b7f4e487b7100000000000000000000000000000000000000000000000000000000600052601160045260246000fd5b60006123c482611f36565b91506123cf83611f36565b9250817fffffffffffffffffffffffffffffffffffffffffffffffffffffffffffffffff04831182151516156124085761240761238a565b5b828202905092915050565b7f4e487b7100000000000000000000000000000000000000000000000000000000600052601260045260246000fd5b600061244d82611f36565b915061245883611f36565b92508261246857612467612413565b5b828204905092915050565b600061247e82611f36565b915061248983611f36565b92508282101561249c5761249b61238a565b5b828203905092915050565b60006060820190506124bc60008301866120a8565b6124c960208301856120a8565b6124d6604083018461207e565b949350505050565b60006040820190506124f360008301856120a8565b612500602083018461207e565b9392505050565b600082825260208201905092915050565b7f6e6f206d6174696320746f207769746864726177000000000000000000000000600082015250565b600061254e601483612507565b915061255982612518565b602082019050919050565b6000602082019050818103600083015261257d81612541565b9050919050565b7f416363657373436f6e74726f6c3a2063616e206f6e6c792072656e6f756e636560008201527f20726f6c657320666f722073656c660000000000000000000000000000000000602082015250565b60006125e0602f83612507565b91506125eb82612584565b604082019050919050565b6000602082019050818103600083015261260f816125d3565b9050919050565b600060208201905061262b60008301846120a8565b92915050565b60006020828403121561264757612646611cd9565b5b600061265584828501612284565b91505092915050565b7f506f6f6c20646f6573206e6f7420657869737400000000000000000000000000600082015250565b6000612694601383612507565b915061269f8261265e565b602082019050919050565b600060208201905081810360008301526126c381612687565b9050919050565b60006080820190506126df60008301876120a8565b6126ec60208301866120a8565b6126f9604083018561207e565b612706606083018461207e565b95945050505050565b600060808284031215612725576127246120e0565b5b61272f6080612156565b9050600061273f8482850161218b565b60008301525060206127538482850161218b565b60208301525060406127678482850161218b565b604083015250606061277b84828501612284565b60608301525092915050565b60006080828403121561279d5761279c611cd9565b5b60006127ab8482850161270f565b91505092915050565b6000602082840312156127ca576127c9611cd9565b5b60006127d88482850161218b565b91505092915050565b6000608082840312156127f7576127f66120e0565b5b6128016080612156565b905060006128118482850161218b565b60008301525060206128258482850161218b565b60208301525060406128398482850161218b565b604083015250606061284d8482850161218b565b60608301525092915050565b60006080828403121561286f5761286e611cd9565b5b600061287d848285016127e1565b91505092915050565b600061289182611f36565b915061289c83611f36565b9250827fffffffffffffffffffffffffffffffffffffffffffffffffffffffffffffffff038211156128d1576128d061238a565b5b828201905092915050565b60006060820190506128f160008301866120a8565b6128fe602083018561207e565b61290b604083018461207e565b949350505050565b600081905092915050565b7f416363657373436f6e74726f6c3a206163636f756e7420000000000000000000600082015250565b6000612954601783612913565b915061295f8261291e565b601782019050919050565b600081519050919050565b60005b83811015612993578082015181840152602081019050612978565b838111156129a2576000848401525b50505050565b60006129b38261296a565b6129bd8185612913565b93506129cd818560208601612975565b80840191505092915050565b7f206973206d697373696e6720726f6c6520000000000000000000000000000000600082015250565b6000612a0f601183612913565b9150612a1a826129d9565b601182019050919050565b6000612a3082612947565b9150612a3c82856129a8565b9150612a4782612a02565b9150612a5382846129a8565b91508190509392505050565b6000612a6a8261296a565b612a748185612507565b9350612a84818560208601612975565b612a8d816120e5565b840191505092915050565b60006020820190508181036000830152612ab28184612a5f565b905092915050565b7f4e487b7100000000000000000000000000000000000000000000000000000000600052603260045260246000fd5b6000612af482611f36565b91506000821415612b0857612b0761238a565b5b600182039050919050565b7f537472696e67733a20686578206c656e67746820696e73756666696369656e74600082015250565b6000612b49602083612507565b9150612b5482612b13565b602082019050919050565b60006020820190508181036000830152612b7881612b3c565b905091905056fea2646970667358221220a7d038a9e9d2d91434180fdd2b09c6a078d0bc512464c77538c122f6ed20c35164736f6c634300080b0033",
  "linkReferences": {},
  "deployedLinkReferences": {}
}