{
  "_format": "hh-sol-artifact-1",
  "contractName": "RewardsV2",
  "sourceName": "contracts/rewards/Rewards.sol",
  "abi": [
    {
      "inputs": [
        {
          "internalType": "address",
          "name": "_vault",
          "type": "address"
        }
      ],
      "stateMutability": "nonpayable",
      "type": "constructor"
    },
    {
      "anonymous": false,
      "inputs": [
        {
          "indexed": true,
          "internalType": "address",
          "name": "_token",
          "type": "address"
        },
        {
          "indexed": true,
          "internalType": "address",
          "name": "_user",
          "type": "address"
        },
        {
          "indexed": false,
          "internalType": "uint256",
          "name": "_amount",
          "type": "uint256"
        }
      ],
      "name": "Deposit",
      "type": "event"
    },
    {
      "anonymous": false,
      "inputs": [
        {
          "indexed": false,
          "internalType": "address",
          "name": "account",
          "type": "address"
        }
      ],
      "name": "Paused",
      "type": "event"
    },
    {
      "anonymous": false,
      "inputs": [],
      "name": "PoolUpdated",
      "type": "event"
    },
    {
      "anonymous": false,
      "inputs": [
        {
          "indexed": true,
          "internalType": "bytes32",
          "name": "role",
          "type": "bytes32"
        },
        {
          "indexed": true,
          "internalType": "bytes32",
          "name": "previousAdminRole",
          "type": "bytes32"
        },
        {
          "indexed": true,
          "internalType": "bytes32",
          "name": "newAdminRole",
          "type": "bytes32"
        }
      ],
      "name": "RoleAdminChanged",
      "type": "event"
    },
    {
      "anonymous": false,
      "inputs": [
        {
          "indexed": true,
          "internalType": "bytes32",
          "name": "role",
          "type": "bytes32"
        },
        {
          "indexed": true,
          "internalType": "address",
          "name": "account",
          "type": "address"
        },
        {
          "indexed": true,
          "internalType": "address",
          "name": "sender",
          "type": "address"
        }
      ],
      "name": "RoleGranted",
      "type": "event"
    },
    {
      "anonymous": false,
      "inputs": [
        {
          "indexed": true,
          "internalType": "bytes32",
          "name": "role",
          "type": "bytes32"
        },
        {
          "indexed": true,
          "internalType": "address",
          "name": "account",
          "type": "address"
        },
        {
          "indexed": true,
          "internalType": "address",
          "name": "sender",
          "type": "address"
        }
      ],
      "name": "RoleRevoked",
      "type": "event"
    },
    {
      "anonymous": false,
      "inputs": [
        {
          "indexed": false,
          "internalType": "address",
          "name": "account",
          "type": "address"
        }
      ],
      "name": "Unpaused",
      "type": "event"
    },
    {
      "inputs": [],
      "name": "DEFAULT_ADMIN_ROLE",
      "outputs": [
        {
          "internalType": "bytes32",
          "name": "",
          "type": "bytes32"
        }
      ],
      "stateMutability": "view",
      "type": "function"
    },
    {
      "inputs": [
        {
          "internalType": "address",
          "name": "_token",
          "type": "address"
        },
        {
          "internalType": "uint256",
          "name": "_rewardsPerBlock",
          "type": "uint256"
        }
      ],
      "name": "addPool",
      "outputs": [],
      "stateMutability": "nonpayable",
      "type": "function"
    },
    {
      "inputs": [
        {
          "internalType": "address",
          "name": "_token",
          "type": "address"
        },
        {
          "internalType": "address",
          "name": "_user",
          "type": "address"
        }
      ],
      "name": "claim",
      "outputs": [],
      "stateMutability": "nonpayable",
      "type": "function"
    },
    {
      "inputs": [
        {
          "internalType": "address",
          "name": "_token",
          "type": "address"
        },
        {
          "internalType": "uint256",
          "name": "_amount",
          "type": "uint256"
        }
      ],
      "name": "deposit",
      "outputs": [],
      "stateMutability": "nonpayable",
      "type": "function"
    },
    {
      "inputs": [
        {
          "internalType": "bytes32",
          "name": "role",
          "type": "bytes32"
        }
      ],
      "name": "getRoleAdmin",
      "outputs": [
        {
          "internalType": "bytes32",
          "name": "",
          "type": "bytes32"
        }
      ],
      "stateMutability": "view",
      "type": "function"
    },
    {
      "inputs": [
        {
          "internalType": "bytes32",
          "name": "role",
          "type": "bytes32"
        },
        {
          "internalType": "address",
          "name": "account",
          "type": "address"
        }
      ],
      "name": "grantRole",
      "outputs": [],
      "stateMutability": "nonpayable",
      "type": "function"
    },
    {
      "inputs": [
        {
          "internalType": "bytes32",
          "name": "role",
          "type": "bytes32"
        },
        {
          "internalType": "address",
          "name": "account",
          "type": "address"
        }
      ],
      "name": "hasRole",
      "outputs": [
        {
          "internalType": "bool",
          "name": "",
          "type": "bool"
        }
      ],
      "stateMutability": "view",
      "type": "function"
    },
    {
      "inputs": [],
      "name": "paused",
      "outputs": [
        {
          "internalType": "bool",
          "name": "",
          "type": "bool"
        }
      ],
      "stateMutability": "view",
      "type": "function"
    },
    {
      "inputs": [
        {
          "internalType": "address",
          "name": "_token",
          "type": "address"
        },
        {
          "internalType": "address",
          "name": "_user",
          "type": "address"
        }
      ],
      "name": "pendingRewards",
      "outputs": [
        {
          "internalType": "uint256",
          "name": "pending",
          "type": "uint256"
        }
      ],
      "stateMutability": "nonpayable",
      "type": "function"
    },
    {
      "inputs": [
        {
          "internalType": "address",
          "name": "_token",
          "type": "address"
        },
        {
          "internalType": "address",
          "name": "_user",
          "type": "address"
        }
      ],
      "name": "pendingWithdrawals",
      "outputs": [
        {
          "internalType": "uint256",
          "name": "_unlockedAmount",
          "type": "uint256"
        }
      ],
      "stateMutability": "nonpayable",
      "type": "function"
    },
    {
      "inputs": [
        {
          "internalType": "bytes32",
          "name": "role",
          "type": "bytes32"
        },
        {
          "internalType": "address",
          "name": "account",
          "type": "address"
        }
      ],
      "name": "renounceRole",
      "outputs": [],
      "stateMutability": "nonpayable",
      "type": "function"
    },
    {
      "inputs": [
        {
          "internalType": "bytes32",
          "name": "role",
          "type": "bytes32"
        },
        {
          "internalType": "address",
          "name": "account",
          "type": "address"
        }
      ],
      "name": "revokeRole",
      "outputs": [],
      "stateMutability": "nonpayable",
      "type": "function"
    },
    {
      "inputs": [
        {
          "internalType": "address",
          "name": "_controller",
          "type": "address"
        }
      ],
      "name": "setController",
      "outputs": [],
      "stateMutability": "nonpayable",
      "type": "function"
    },
    {
      "inputs": [
        {
          "internalType": "bytes4",
          "name": "interfaceId",
          "type": "bytes4"
        }
      ],
      "name": "supportsInterface",
      "outputs": [
        {
          "internalType": "bool",
          "name": "",
          "type": "bool"
        }
      ],
      "stateMutability": "view",
      "type": "function"
    },
    {
      "inputs": [
        {
          "internalType": "address",
          "name": "_token",
          "type": "address"
        }
      ],
      "name": "unclaimedRewards",
      "outputs": [],
      "stateMutability": "nonpayable",
      "type": "function"
    },
    {
      "inputs": [
        {
          "internalType": "address",
          "name": "_token",
          "type": "address"
        }
      ],
      "name": "updatePool",
      "outputs": [
        {
          "components": [
            {
              "internalType": "uint256",
              "name": "totalPooled",
              "type": "uint256"
            },
            {
              "internalType": "uint256",
              "name": "rewardsPerBlock",
              "type": "uint256"
            },
            {
              "internalType": "uint256",
              "name": "accCaplPerShare",
              "type": "uint256"
            },
            {
              "internalType": "uint256",
              "name": "lastRewardBlock",
              "type": "uint256"
            }
          ],
          "internalType": "struct IPool.Pool",
          "name": "pool",
          "type": "tuple"
        }
      ],
      "stateMutability": "nonpayable",
      "type": "function"
    },
    {
      "inputs": [
        {
          "internalType": "address",
          "name": "_token",
          "type": "address"
        },
        {
          "internalType": "address",
          "name": "_user",
          "type": "address"
        }
      ],
      "name": "withdraw",
      "outputs": [],
      "stateMutability": "nonpayable",
      "type": "function"
    },
    {
      "inputs": [
        {
          "internalType": "address",
          "name": "_destination",
          "type": "address"
        }
      ],
      "name": "withdrawMATIC",
      "outputs": [],
      "stateMutability": "nonpayable",
      "type": "function"
    },
    {
      "inputs": [
        {
          "internalType": "address",
          "name": "_token",
          "type": "address"
        },
        {
          "internalType": "uint256",
          "name": "_amount",
          "type": "uint256"
        },
        {
          "internalType": "address",
          "name": "_destination",
          "type": "address"
        }
      ],
      "name": "withdrawToken",
      "outputs": [],
      "stateMutability": "nonpayable",
      "type": "function"
    }
  ],
  "bytecode": "0x6080604052670de0b6b3a76400006003553480156200001d57600080fd5b5060405162002cd438038062002cd483398181016040528101906200004391906200029e565b60008060006101000a81548160ff02191690831515021790555080600260006101000a81548173ffffffffffffffffffffffffffffffffffffffff021916908373ffffffffffffffffffffffffffffffffffffffff160217905550620000b36000801b33620000ba60201b60201c565b50620002d0565b620000cc8282620000d060201b60201c565b5050565b620000e28282620001c160201b60201c565b620001bd57600180600084815260200190815260200160002060000160008373ffffffffffffffffffffffffffffffffffffffff1673ffffffffffffffffffffffffffffffffffffffff16815260200190815260200160002060006101000a81548160ff021916908315150217905550620001626200022c60201b60201c565b73ffffffffffffffffffffffffffffffffffffffff168173ffffffffffffffffffffffffffffffffffffffff16837f2f8788117e7eff1d82e926ec794901d17c78024a50270940304540a733656f0d60405160405180910390a45b5050565b60006001600084815260200190815260200160002060000160008373ffffffffffffffffffffffffffffffffffffffff1673ffffffffffffffffffffffffffffffffffffffff16815260200190815260200160002060009054906101000a900460ff16905092915050565b600033905090565b600080fd5b600073ffffffffffffffffffffffffffffffffffffffff82169050919050565b6000620002668262000239565b9050919050565b620002788162000259565b81146200028457600080fd5b50565b60008151905062000298816200026d565b92915050565b600060208284031215620002b757620002b662000234565b5b6000620002c78482850162000287565b91505092915050565b6129f480620002e06000396000f3fe608060405234801561001057600080fd5b50600436106101215760003560e01c80635c975abb116100ad578063949813b811610071578063949813b814610314578063a217fddf14610330578063d547741f1461034e578063e831be581461036a578063f940e3851461039a57610121565b80635c975abb1461024a5780637b46c54f1461026857806380ac82281461029857806391d14854146102c857806392eefe9b146102f857610121565b806330e7e743116100f457806330e7e743146101be57806332a9caba146101da57806336568abe146101f65780633ccdbb281461021257806347e7ef241461022e57610121565b806301ffc9a71461012657806321c0b34214610156578063248a9ca3146101725780632f2ff15d146101a2575b600080fd5b610140600480360381019061013b9190611b6b565b6103b6565b60405161014d9190611bb3565b60405180910390f35b610170600480360381019061016b9190611c2c565b610430565b005b61018c60048036038101906101879190611ca2565b610651565b6040516101999190611cde565b60405180910390f35b6101bc60048036038101906101b79190611cf9565b610671565b005b6101d860048036038101906101d39190611d39565b61069a565b005b6101f460048036038101906101ef9190611d9c565b6106b3565b005b610210600480360381019061020b9190611cf9565b61075c565b005b61022c60048036038101906102279190611ddc565b6107df565b005b61024860048036038101906102439190611d9c565b6107fa565b005b610252610d59565b60405161025f9190611bb3565b60405180910390f35b610282600480360381019061027d9190611d39565b610d6f565b60405161028f9190611e93565b60405180910390f35b6102b260048036038101906102ad9190611c2c565b610fe2565b6040516102bf9190611ebd565b60405180910390f35b6102e260048036038101906102dd9190611cf9565b61127b565b6040516102ef9190611bb3565b60405180910390f35b610312600480360381019061030d9190611d39565b6112e6565b005b61032e60048036038101906103299190611d39565b611340565b005b610338611343565b6040516103459190611cde565b60405180910390f35b61036860048036038101906103639190611cf9565b61134a565b005b610384600480360381019061037f9190611c2c565b611373565b6040516103919190611ebd565b60405180910390f35b6103b460048036038101906103af9190611c2c565b61141d565b005b60007f7965db0b000000000000000000000000000000000000000000000000000000007bffffffffffffffffffffffffffffffffffffffffffffffffffffffff1916827bffffffffffffffffffffffffffffffffffffffffffffffffffffffff191614806104295750610428826115c3565b5b9050919050565b600061043b83610d6f565b90506000600260009054906101000a900473ffffffffffffffffffffffffffffffffffffffff1673ffffffffffffffffffffffffffffffffffffffff166392a576e685856040518363ffffffff1660e01b815260040161049c929190611ee7565b6000604051808303816000875af11580156104bb573d6000803e3d6000fd5b505050506040513d6000823e3d601f19601f820116820180604052508101906104e49190612199565b90506000600354836040015183602001516104ff9190612211565b610509919061229a565b9050600082606001518261051d91906122cb565b9050600260009054906101000a900473ffffffffffffffffffffffffffffffffffffffff1673ffffffffffffffffffffffffffffffffffffffff1663c0b9dd788787856040518463ffffffff1660e01b815260040161057e939291906122ff565b600060405180830381600087803b15801561059857600080fd5b505af11580156105ac573d6000803e3d6000fd5b50505050600081111561064957600460009054906101000a900473ffffffffffffffffffffffffffffffffffffffff1673ffffffffffffffffffffffffffffffffffffffff166340c10f1986836040518363ffffffff1660e01b8152600401610616929190612336565b600060405180830381600087803b15801561063057600080fd5b505af1158015610644573d6000803e3d6000fd5b505050505b505050505050565b600060016000838152602001908152602001600020600101549050919050565b61067a82610651565b61068b8161068661162d565b611635565b61069583836116d2565b505050565b6000801b6106af816106aa61162d565b611635565b5050565b6000801b6106c8816106c361162d565b611635565b600260009054906101000a900473ffffffffffffffffffffffffffffffffffffffff1673ffffffffffffffffffffffffffffffffffffffff166332a9caba84846040518363ffffffff1660e01b8152600401610725929190612336565b600060405180830381600087803b15801561073f57600080fd5b505af1158015610753573d6000803e3d6000fd5b50505050505050565b61076461162d565b73ffffffffffffffffffffffffffffffffffffffff168173ffffffffffffffffffffffffffffffffffffffff16146107d1576040517f08c379a00000000000000000000000000000000000000000000000000000000081526004016107c8906123e2565b60405180910390fd5b6107db82826117b2565b5050565b6000801b6107f4816107ef61162d565b611635565b50505050565b600260009054906101000a900473ffffffffffffffffffffffffffffffffffffffff1673ffffffffffffffffffffffffffffffffffffffff1663999126d7836040518263ffffffff1660e01b81526004016108559190612402565b602060405180830381865afa158015610872573d6000803e3d6000fd5b505050506040513d601f19601f82011682018060405250810190610896919061241d565b6108d5576040517f08c379a00000000000000000000000000000000000000000000000000000000081526004016108cc90612496565b60405180910390fd5b60006108e083610d6f565b905060006003548260400151846108f79190612211565b610901919061229a565b9050600260009054906101000a900473ffffffffffffffffffffffffffffffffffffffff1673ffffffffffffffffffffffffffffffffffffffff166356e45e4b856040518263ffffffff1660e01b815260040161095e9190612402565b602060405180830381865afa15801561097b573d6000803e3d6000fd5b505050506040513d601f19601f8201168201806040525081019061099f919061241d565b610a3b57600260009054906101000a900473ffffffffffffffffffffffffffffffffffffffff1673ffffffffffffffffffffffffffffffffffffffff1663f5b5d237853386856040518563ffffffff1660e01b8152600401610a0494939291906124b6565b600060405180830381600087803b158015610a1e57600080fd5b505af1158015610a32573d6000803e3d6000fd5b50505050610d53565b600260009054906101000a900473ffffffffffffffffffffffffffffffffffffffff1673ffffffffffffffffffffffffffffffffffffffff166367373829853386856040518563ffffffff1660e01b8152600401610a9c94939291906124b6565b600060405180830381600087803b158015610ab657600080fd5b505af1158015610aca573d6000803e3d6000fd5b505050506000600260009054906101000a900473ffffffffffffffffffffffffffffffffffffffff1673ffffffffffffffffffffffffffffffffffffffff16639338b7c986336040518363ffffffff1660e01b8152600401610b2d929190611ee7565b6080604051808303816000875af1158015610b4c573d6000803e3d6000fd5b505050506040513d601f19601f82011682018060405250810190610b709190612573565b9050610b7f8160200151611894565b15610c1857600260009054906101000a900473ffffffffffffffffffffffffffffffffffffffff1673ffffffffffffffffffffffffffffffffffffffff16636374299e33866040518363ffffffff1660e01b8152600401610be1929190612336565b600060405180830381600087803b158015610bfb57600080fd5b505af1158015610c0f573d6000803e3d6000fd5b50505050610d51565b6000600260009054906101000a900473ffffffffffffffffffffffffffffffffffffffff1673ffffffffffffffffffffffffffffffffffffffff166312229f1387336040518363ffffffff1660e01b8152600401610c77929190611ee7565b6020604051808303816000875af1158015610c96573d6000803e3d6000fd5b505050506040513d601f19601f82011682018060405250810190610cba91906125a0565b9050600260009054906101000a900473ffffffffffffffffffffffffffffffffffffffff1673ffffffffffffffffffffffffffffffffffffffff16633d4cabf5873388856040518563ffffffff1660e01b8152600401610d1d94939291906124b6565b600060405180830381600087803b158015610d3757600080fd5b505af1158015610d4b573d6000803e3d6000fd5b50505050505b505b50505050565b60008060009054906101000a900460ff16905090565b610d77611ad7565b6000600260009054906101000a900473ffffffffffffffffffffffffffffffffffffffff1673ffffffffffffffffffffffffffffffffffffffff1663bbe4f6db846040518263ffffffff1660e01b8152600401610dd49190612402565b6080604051808303816000875af1158015610df3573d6000803e3d6000fd5b505050506040513d601f19601f82011682018060405250810190610e179190612645565b90506000600260009054906101000a900473ffffffffffffffffffffffffffffffffffffffff1673ffffffffffffffffffffffffffffffffffffffff1663f2866c78856040518263ffffffff1660e01b8152600401610e769190612402565b6020604051808303816000875af1158015610e95573d6000803e3d6000fd5b505050506040513d601f19601f82011682018060405250810190610eb991906125a0565b905060008260600151431115610fd9576000821115610f27576000836060015143610ee491906122cb565b90506000846020015182610ef89190612211565b90508360035482610f099190612211565b610f13919061229a565b8560400151610f229190612672565b925050505b6000439050600260009054906101000a900473ffffffffffffffffffffffffffffffffffffffff1673ffffffffffffffffffffffffffffffffffffffff1663695c0bb88784846040518463ffffffff1660e01b8152600401610f8b939291906126c8565b6080604051808303816000875af1158015610faa573d6000803e3d6000fd5b505050506040513d601f19601f82011682018060405250810190610fce9190612645565b945050505050610fdd565b5050505b919050565b600080600260009054906101000a900473ffffffffffffffffffffffffffffffffffffffff1673ffffffffffffffffffffffffffffffffffffffff1663bbe4f6db856040518263ffffffff1660e01b81526004016110409190612402565b6080604051808303816000875af115801561105f573d6000803e3d6000fd5b505050506040513d601f19601f820116820180604052508101906110839190612645565b90506000600260009054906101000a900473ffffffffffffffffffffffffffffffffffffffff1673ffffffffffffffffffffffffffffffffffffffff166392a576e686866040518363ffffffff1660e01b81526004016110e4929190611ee7565b6000604051808303816000875af1158015611103573d6000803e3d6000fd5b505050506040513d6000823e3d601f19601f8201168201806040525081019061112c9190612199565b90506000826040015190506000600260009054906101000a900473ffffffffffffffffffffffffffffffffffffffff1673ffffffffffffffffffffffffffffffffffffffff1663f2866c78886040518263ffffffff1660e01b81526004016111949190612402565b6020604051808303816000875af11580156111b3573d6000803e3d6000fd5b505050506040513d601f19601f820116820180604052508101906111d791906125a0565b90508360600151431180156111ed575060008114155b1561124357600084606001514361120491906122cb565b905060008560200151826112189190612211565b905082600354826112299190612211565b611233919061229a565b8461123e9190612672565b935050505b826060015160035483856020015161125b9190612211565b611265919061229a565b61126f91906122cb565b94505050505092915050565b60006001600084815260200190815260200160002060000160008373ffffffffffffffffffffffffffffffffffffffff1673ffffffffffffffffffffffffffffffffffffffff16815260200190815260200160002060009054906101000a900460ff16905092915050565b6000801b6112fb816112f661162d565b611635565b81600460006101000a81548173ffffffffffffffffffffffffffffffffffffffff021916908373ffffffffffffffffffffffffffffffffffffffff1602179055505050565b50565b6000801b81565b61135382610651565b6113648161135f61162d565b611635565b61136e83836117b2565b505050565b6000600260009054906101000a900473ffffffffffffffffffffffffffffffffffffffff1673ffffffffffffffffffffffffffffffffffffffff16630122a7e884846040518363ffffffff1660e01b81526004016113d2929190611ee7565b6020604051808303816000875af11580156113f1573d6000803e3d6000fd5b505050506040513d601f19601f8201168201806040525081019061141591906125a0565b905092915050565b600061142883610d6f565b90506000600260009054906101000a900473ffffffffffffffffffffffffffffffffffffffff1673ffffffffffffffffffffffffffffffffffffffff166392a576e685856040518363ffffffff1660e01b8152600401611489929190611ee7565b6000604051808303816000875af11580156114a8573d6000803e3d6000fd5b505050506040513d6000823e3d601f19601f820116820180604052508101906114d19190612199565b905060006114df8585611373565b905060006003548460400151836114f69190612211565b611500919061229a565b836060015161150f91906122cb565b9050600082846020015161152391906122cb565b9050600260009054906101000a900473ffffffffffffffffffffffffffffffffffffffff1673ffffffffffffffffffffffffffffffffffffffff16637623475988888685876040518663ffffffff1660e01b81526004016115889594939291906126ff565b600060405180830381600087803b1580156115a257600080fd5b505af11580156115b6573d6000803e3d6000fd5b5050505050505050505050565b60007f01ffc9a7000000000000000000000000000000000000000000000000000000007bffffffffffffffffffffffffffffffffffffffffffffffffffffffff1916827bffffffffffffffffffffffffffffffffffffffffffffffffffffffff1916149050919050565b600033905090565b61163f828261127b565b6116ce576116648173ffffffffffffffffffffffffffffffffffffffff16601461189b565b6116728360001c602061189b565b604051602001611683929190612864565b6040516020818303038152906040526040517f08c379a00000000000000000000000000000000000000000000000000000000081526004016116c591906128d7565b60405180910390fd5b5050565b6116dc828261127b565b6117ae57600180600084815260200190815260200160002060000160008373ffffffffffffffffffffffffffffffffffffffff1673ffffffffffffffffffffffffffffffffffffffff16815260200190815260200160002060006101000a81548160ff02191690831515021790555061175361162d565b73ffffffffffffffffffffffffffffffffffffffff168173ffffffffffffffffffffffffffffffffffffffff16837f2f8788117e7eff1d82e926ec794901d17c78024a50270940304540a733656f0d60405160405180910390a45b5050565b6117bc828261127b565b156118905760006001600084815260200190815260200160002060000160008373ffffffffffffffffffffffffffffffffffffffff1673ffffffffffffffffffffffffffffffffffffffff16815260200190815260200160002060006101000a81548160ff02191690831515021790555061183561162d565b73ffffffffffffffffffffffffffffffffffffffff168173ffffffffffffffffffffffffffffffffffffffff16837ff6391f5c32d9c69d2a47ea670b442974b53935d1edc7fd64eb21e047a839171b60405160405180910390a45b5050565b6000919050565b6060600060028360026118ae9190612211565b6118b89190612672565b67ffffffffffffffff8111156118d1576118d0611f26565b5b6040519080825280601f01601f1916602001820160405280156119035781602001600182028036833780820191505090505b5090507f30000000000000000000000000000000000000000000000000000000000000008160008151811061193b5761193a6128f9565b5b60200101907effffffffffffffffffffffffffffffffffffffffffffffffffffffffffffff1916908160001a9053507f78000000000000000000000000000000000000000000000000000000000000008160018151811061199f5761199e6128f9565b5b60200101907effffffffffffffffffffffffffffffffffffffffffffffffffffffffffffff1916908160001a905350600060018460026119df9190612211565b6119e99190612672565b90505b6001811115611a89577f3031323334353637383961626364656600000000000000000000000000000000600f861660108110611a2b57611a2a6128f9565b5b1a60f81b828281518110611a4257611a416128f9565b5b60200101907effffffffffffffffffffffffffffffffffffffffffffffffffffffffffffff1916908160001a905350600485901c945080611a8290612928565b90506119ec565b5060008414611acd576040517f08c379a0000000000000000000000000000000000000000000000000000000008152600401611ac49061299e565b60405180910390fd5b8091505092915050565b6040518060800160405280600081526020016000815260200160008152602001600081525090565b6000604051905090565b600080fd5b600080fd5b60007fffffffff0000000000000000000000000000000000000000000000000000000082169050919050565b611b4881611b13565b8114611b5357600080fd5b50565b600081359050611b6581611b3f565b92915050565b600060208284031215611b8157611b80611b09565b5b6000611b8f84828501611b56565b91505092915050565b60008115159050919050565b611bad81611b98565b82525050565b6000602082019050611bc86000830184611ba4565b92915050565b600073ffffffffffffffffffffffffffffffffffffffff82169050919050565b6000611bf982611bce565b9050919050565b611c0981611bee565b8114611c1457600080fd5b50565b600081359050611c2681611c00565b92915050565b60008060408385031215611c4357611c42611b09565b5b6000611c5185828601611c17565b9250506020611c6285828601611c17565b9150509250929050565b6000819050919050565b611c7f81611c6c565b8114611c8a57600080fd5b50565b600081359050611c9c81611c76565b92915050565b600060208284031215611cb857611cb7611b09565b5b6000611cc684828501611c8d565b91505092915050565b611cd881611c6c565b82525050565b6000602082019050611cf36000830184611ccf565b92915050565b60008060408385031215611d1057611d0f611b09565b5b6000611d1e85828601611c8d565b9250506020611d2f85828601611c17565b9150509250929050565b600060208284031215611d4f57611d4e611b09565b5b6000611d5d84828501611c17565b91505092915050565b6000819050919050565b611d7981611d66565b8114611d8457600080fd5b50565b600081359050611d9681611d70565b92915050565b60008060408385031215611db357611db2611b09565b5b6000611dc185828601611c17565b9250506020611dd285828601611d87565b9150509250929050565b600080600060608486031215611df557611df4611b09565b5b6000611e0386828701611c17565b9350506020611e1486828701611d87565b9250506040611e2586828701611c17565b9150509250925092565b611e3881611d66565b82525050565b608082016000820151611e546000850182611e2f565b506020820151611e676020850182611e2f565b506040820151611e7a6040850182611e2f565b506060820151611e8d6060850182611e2f565b50505050565b6000608082019050611ea86000830184611e3e565b92915050565b611eb781611d66565b82525050565b6000602082019050611ed26000830184611eae565b92915050565b611ee181611bee565b82525050565b6000604082019050611efc6000830185611ed8565b611f096020830184611ed8565b9392505050565b600080fd5b6000601f19601f8301169050919050565b7f4e487b7100000000000000000000000000000000000000000000000000000000600052604160045260246000fd5b611f5e82611f15565b810181811067ffffffffffffffff82111715611f7d57611f7c611f26565b5b80604052505050565b6000611f90611aff565b9050611f9c8282611f55565b919050565b600080fd5b600081519050611fb581611c00565b92915050565b600081519050611fca81611d70565b92915050565b600080fd5b600067ffffffffffffffff821115611ff057611fef611f26565b5b602082029050602081019050919050565b600080fd5b600061201961201484611fd5565b611f86565b9050808382526020820190506020840283018581111561203c5761203b612001565b5b835b8181101561206557806120518882611fbb565b84526020840193505060208101905061203e565b5050509392505050565b600082601f83011261208457612083611fd0565b5b8151612094848260208601612006565b91505092915050565b6120a681611b98565b81146120b157600080fd5b50565b6000815190506120c38161209d565b92915050565b600060e082840312156120df576120de611f10565b5b6120e960e0611f86565b905060006120f984828501611fa6565b600083015250602061210d84828501611fbb565b602083015250604061212184828501611fbb565b604083015250606061213584828501611fbb565b606083015250608061214984828501611fbb565b60808301525060a082015167ffffffffffffffff81111561216d5761216c611fa1565b5b6121798482850161206f565b60a08301525060c061218d848285016120b4565b60c08301525092915050565b6000602082840312156121af576121ae611b09565b5b600082015167ffffffffffffffff8111156121cd576121cc611b0e565b5b6121d9848285016120c9565b91505092915050565b7f4e487b7100000000000000000000000000000000000000000000000000000000600052601160045260246000fd5b600061221c82611d66565b915061222783611d66565b9250817fffffffffffffffffffffffffffffffffffffffffffffffffffffffffffffffff04831182151516156122605761225f6121e2565b5b828202905092915050565b7f4e487b7100000000000000000000000000000000000000000000000000000000600052601260045260246000fd5b60006122a582611d66565b91506122b083611d66565b9250826122c0576122bf61226b565b5b828204905092915050565b60006122d682611d66565b91506122e183611d66565b9250828210156122f4576122f36121e2565b5b828203905092915050565b60006060820190506123146000830186611ed8565b6123216020830185611ed8565b61232e6040830184611eae565b949350505050565b600060408201905061234b6000830185611ed8565b6123586020830184611eae565b9392505050565b600082825260208201905092915050565b7f416363657373436f6e74726f6c3a2063616e206f6e6c792072656e6f756e636560008201527f20726f6c657320666f722073656c660000000000000000000000000000000000602082015250565b60006123cc602f8361235f565b91506123d782612370565b604082019050919050565b600060208201905081810360008301526123fb816123bf565b9050919050565b60006020820190506124176000830184611ed8565b92915050565b60006020828403121561243357612432611b09565b5b6000612441848285016120b4565b91505092915050565b7f506f6f6c20646f6573206e6f7420657869737400000000000000000000000000600082015250565b600061248060138361235f565b915061248b8261244a565b602082019050919050565b600060208201905081810360008301526124af81612473565b9050919050565b60006080820190506124cb6000830187611ed8565b6124d86020830186611ed8565b6124e56040830185611eae565b6124f26060830184611eae565b95945050505050565b60006080828403121561251157612510611f10565b5b61251b6080611f86565b9050600061252b84828501611fbb565b600083015250602061253f84828501611fbb565b602083015250604061255384828501611fbb565b6040830152506060612567848285016120b4565b60608301525092915050565b60006080828403121561258957612588611b09565b5b6000612597848285016124fb565b91505092915050565b6000602082840312156125b6576125b5611b09565b5b60006125c484828501611fbb565b91505092915050565b6000608082840312156125e3576125e2611f10565b5b6125ed6080611f86565b905060006125fd84828501611fbb565b600083015250602061261184828501611fbb565b602083015250604061262584828501611fbb565b604083015250606061263984828501611fbb565b60608301525092915050565b60006080828403121561265b5761265a611b09565b5b6000612669848285016125cd565b91505092915050565b600061267d82611d66565b915061268883611d66565b9250827fffffffffffffffffffffffffffffffffffffffffffffffffffffffffffffffff038211156126bd576126bc6121e2565b5b828201905092915050565b60006060820190506126dd6000830186611ed8565b6126ea6020830185611eae565b6126f76040830184611eae565b949350505050565b600060a0820190506127146000830188611ed8565b6127216020830187611ed8565b61272e6040830186611eae565b61273b6060830185611eae565b6127486080830184611eae565b9695505050505050565b600081905092915050565b7f416363657373436f6e74726f6c3a206163636f756e7420000000000000000000600082015250565b6000612793601783612752565b915061279e8261275d565b601782019050919050565b600081519050919050565b60005b838110156127d25780820151818401526020810190506127b7565b838111156127e1576000848401525b50505050565b60006127f2826127a9565b6127fc8185612752565b935061280c8185602086016127b4565b80840191505092915050565b7f206973206d697373696e6720726f6c6520000000000000000000000000000000600082015250565b600061284e601183612752565b915061285982612818565b601182019050919050565b600061286f82612786565b915061287b82856127e7565b915061288682612841565b915061289282846127e7565b91508190509392505050565b60006128a9826127a9565b6128b3818561235f565b93506128c38185602086016127b4565b6128cc81611f15565b840191505092915050565b600060208201905081810360008301526128f1818461289e565b905092915050565b7f4e487b7100000000000000000000000000000000000000000000000000000000600052603260045260246000fd5b600061293382611d66565b91506000821415612947576129466121e2565b5b600182039050919050565b7f537472696e67733a20686578206c656e67746820696e73756666696369656e74600082015250565b600061298860208361235f565b915061299382612952565b602082019050919050565b600060208201905081810360008301526129b78161297b565b905091905056fea2646970667358221220ff3c058ee1f0bb5dfc479868b1e9b3d4239881984895a6950ec48cdb57f7f4d264736f6c634300080b0033",
  "linkReferences": {},
  "deployedLinkReferences": {}
}