{
  "_format": "hh-sol-artifact-1",
  "contractName": "RewardsV2",
  "sourceName": "contracts/rewards/Rewards.sol",
  "abi": [
    {
      "inputs": [
        {
          "internalType": "address",
          "name": "_vault",
          "type": "address"
        }
      ],
      "stateMutability": "nonpayable",
      "type": "constructor"
    },
    {
      "anonymous": false,
      "inputs": [
        {
          "indexed": false,
          "internalType": "address",
          "name": "_token",
          "type": "address"
        },
        {
          "indexed": false,
          "internalType": "uint256",
          "name": "_rewardsPerBlock",
          "type": "uint256"
        }
      ],
      "name": "AddPool",
      "type": "event"
    },
    {
      "anonymous": false,
      "inputs": [
        {
          "indexed": true,
          "internalType": "address",
          "name": "_token",
          "type": "address"
        },
        {
          "indexed": true,
          "internalType": "address",
          "name": "_user",
          "type": "address"
        },
        {
          "indexed": false,
          "internalType": "uint256",
          "name": "_amount",
          "type": "uint256"
        }
      ],
      "name": "Claim",
      "type": "event"
    },
    {
      "anonymous": false,
      "inputs": [
        {
          "indexed": true,
          "internalType": "address",
          "name": "_token",
          "type": "address"
        },
        {
          "indexed": true,
          "internalType": "address",
          "name": "_user",
          "type": "address"
        },
        {
          "indexed": false,
          "internalType": "uint256",
          "name": "_amount",
          "type": "uint256"
        }
      ],
      "name": "Deposit",
      "type": "event"
    },
    {
      "anonymous": false,
      "inputs": [
        {
          "indexed": false,
          "internalType": "address",
          "name": "account",
          "type": "address"
        }
      ],
      "name": "Paused",
      "type": "event"
    },
    {
      "anonymous": false,
      "inputs": [
        {
          "indexed": true,
          "internalType": "address",
          "name": "_token",
          "type": "address"
        },
        {
          "indexed": false,
          "internalType": "uint256",
          "name": "_block",
          "type": "uint256"
        }
      ],
      "name": "PoolUpdated",
      "type": "event"
    },
    {
      "anonymous": false,
      "inputs": [
        {
          "indexed": true,
          "internalType": "bytes32",
          "name": "role",
          "type": "bytes32"
        },
        {
          "indexed": true,
          "internalType": "bytes32",
          "name": "previousAdminRole",
          "type": "bytes32"
        },
        {
          "indexed": true,
          "internalType": "bytes32",
          "name": "newAdminRole",
          "type": "bytes32"
        }
      ],
      "name": "RoleAdminChanged",
      "type": "event"
    },
    {
      "anonymous": false,
      "inputs": [
        {
          "indexed": true,
          "internalType": "bytes32",
          "name": "role",
          "type": "bytes32"
        },
        {
          "indexed": true,
          "internalType": "address",
          "name": "account",
          "type": "address"
        },
        {
          "indexed": true,
          "internalType": "address",
          "name": "sender",
          "type": "address"
        }
      ],
      "name": "RoleGranted",
      "type": "event"
    },
    {
      "anonymous": false,
      "inputs": [
        {
          "indexed": true,
          "internalType": "bytes32",
          "name": "role",
          "type": "bytes32"
        },
        {
          "indexed": true,
          "internalType": "address",
          "name": "account",
          "type": "address"
        },
        {
          "indexed": true,
          "internalType": "address",
          "name": "sender",
          "type": "address"
        }
      ],
      "name": "RoleRevoked",
      "type": "event"
    },
    {
      "anonymous": false,
      "inputs": [
        {
          "indexed": false,
          "internalType": "address",
          "name": "_controller",
          "type": "address"
        }
      ],
      "name": "SetController",
      "type": "event"
    },
    {
      "anonymous": false,
      "inputs": [
        {
          "indexed": false,
          "internalType": "address",
          "name": "account",
          "type": "address"
        }
      ],
      "name": "Unpaused",
      "type": "event"
    },
    {
      "anonymous": false,
      "inputs": [
        {
          "indexed": true,
          "internalType": "address",
          "name": "_token",
          "type": "address"
        },
        {
          "indexed": true,
          "internalType": "address",
          "name": "_user",
          "type": "address"
        },
        {
          "indexed": false,
          "internalType": "uint256",
          "name": "_amount",
          "type": "uint256"
        }
      ],
      "name": "Withdraw",
      "type": "event"
    },
    {
      "inputs": [],
      "name": "DEFAULT_ADMIN_ROLE",
      "outputs": [
        {
          "internalType": "bytes32",
          "name": "",
          "type": "bytes32"
        }
      ],
      "stateMutability": "view",
      "type": "function"
    },
    {
      "inputs": [
        {
          "internalType": "address",
          "name": "_token",
          "type": "address"
        },
        {
          "internalType": "address",
          "name": "_user",
          "type": "address"
        }
      ],
      "name": "claim",
      "outputs": [],
      "stateMutability": "nonpayable",
      "type": "function"
    },
    {
      "inputs": [
        {
          "internalType": "address",
          "name": "_token",
          "type": "address"
        },
        {
          "internalType": "uint256",
          "name": "_amount",
          "type": "uint256"
        }
      ],
      "name": "deposit",
      "outputs": [],
      "stateMutability": "nonpayable",
      "type": "function"
    },
    {
      "inputs": [
        {
          "internalType": "bytes32",
          "name": "role",
          "type": "bytes32"
        }
      ],
      "name": "getRoleAdmin",
      "outputs": [
        {
          "internalType": "bytes32",
          "name": "",
          "type": "bytes32"
        }
      ],
      "stateMutability": "view",
      "type": "function"
    },
    {
      "inputs": [
        {
          "internalType": "bytes32",
          "name": "role",
          "type": "bytes32"
        },
        {
          "internalType": "address",
          "name": "account",
          "type": "address"
        }
      ],
      "name": "grantRole",
      "outputs": [],
      "stateMutability": "nonpayable",
      "type": "function"
    },
    {
      "inputs": [
        {
          "internalType": "bytes32",
          "name": "role",
          "type": "bytes32"
        },
        {
          "internalType": "address",
          "name": "account",
          "type": "address"
        }
      ],
      "name": "hasRole",
      "outputs": [
        {
          "internalType": "bool",
          "name": "",
          "type": "bool"
        }
      ],
      "stateMutability": "view",
      "type": "function"
    },
    {
      "inputs": [],
      "name": "paused",
      "outputs": [
        {
          "internalType": "bool",
          "name": "",
          "type": "bool"
        }
      ],
      "stateMutability": "view",
      "type": "function"
    },
    {
      "inputs": [
        {
          "internalType": "address",
          "name": "_token",
          "type": "address"
        },
        {
          "internalType": "address",
          "name": "_user",
          "type": "address"
        }
      ],
      "name": "pendingRewards",
      "outputs": [
        {
          "internalType": "uint256",
          "name": "pending",
          "type": "uint256"
        }
      ],
      "stateMutability": "nonpayable",
      "type": "function"
    },
    {
      "inputs": [
        {
          "internalType": "address",
          "name": "_token",
          "type": "address"
        },
        {
          "internalType": "address",
          "name": "_user",
          "type": "address"
        }
      ],
      "name": "pendingWithdrawals",
      "outputs": [
        {
          "internalType": "uint256",
          "name": "_unlockedAmount",
          "type": "uint256"
        }
      ],
      "stateMutability": "nonpayable",
      "type": "function"
    },
    {
      "inputs": [
        {
          "internalType": "bytes32",
          "name": "role",
          "type": "bytes32"
        },
        {
          "internalType": "address",
          "name": "account",
          "type": "address"
        }
      ],
      "name": "renounceRole",
      "outputs": [],
      "stateMutability": "nonpayable",
      "type": "function"
    },
    {
      "inputs": [
        {
          "internalType": "bytes32",
          "name": "role",
          "type": "bytes32"
        },
        {
          "internalType": "address",
          "name": "account",
          "type": "address"
        }
      ],
      "name": "revokeRole",
      "outputs": [],
      "stateMutability": "nonpayable",
      "type": "function"
    },
    {
      "inputs": [
        {
          "internalType": "address",
          "name": "_token",
          "type": "address"
        },
        {
          "internalType": "address",
          "name": "_user",
          "type": "address"
        },
        {
          "internalType": "bool",
          "name": "_active",
          "type": "bool"
        }
      ],
      "name": "setAutoCompound",
      "outputs": [],
      "stateMutability": "nonpayable",
      "type": "function"
    },
    {
      "inputs": [
        {
          "internalType": "address",
          "name": "_controller",
          "type": "address"
        }
      ],
      "name": "setController",
      "outputs": [],
      "stateMutability": "nonpayable",
      "type": "function"
    },
    {
      "inputs": [
        {
          "internalType": "address",
          "name": "_token",
          "type": "address"
        }
      ],
      "name": "setPool",
      "outputs": [
        {
          "components": [
            {
              "internalType": "uint256",
              "name": "totalPooled",
              "type": "uint256"
            },
            {
              "internalType": "uint256",
              "name": "rewardsPerBlock",
              "type": "uint256"
            },
            {
              "internalType": "uint256",
              "name": "accCaplPerShare",
              "type": "uint256"
            },
            {
              "internalType": "uint256",
              "name": "lastRewardBlock",
              "type": "uint256"
            }
          ],
          "internalType": "struct IPool.Pool",
          "name": "pool",
          "type": "tuple"
        }
      ],
      "stateMutability": "nonpayable",
      "type": "function"
    },
    {
      "inputs": [
        {
          "internalType": "bytes4",
          "name": "interfaceId",
          "type": "bytes4"
        }
      ],
      "name": "supportsInterface",
      "outputs": [
        {
          "internalType": "bool",
          "name": "",
          "type": "bool"
        }
      ],
      "stateMutability": "view",
      "type": "function"
    },
    {
      "inputs": [
        {
          "internalType": "address",
          "name": "_token",
          "type": "address"
        },
        {
          "internalType": "address",
          "name": "_user",
          "type": "address"
        }
      ],
      "name": "withdraw",
      "outputs": [],
      "stateMutability": "nonpayable",
      "type": "function"
    },
    {
      "inputs": [
        {
          "internalType": "address",
          "name": "_destination",
          "type": "address"
        }
      ],
      "name": "withdrawMATIC",
      "outputs": [],
      "stateMutability": "nonpayable",
      "type": "function"
    },
    {
      "inputs": [
        {
          "internalType": "address",
          "name": "_token",
          "type": "address"
        },
        {
          "internalType": "uint256",
          "name": "_amount",
          "type": "uint256"
        },
        {
          "internalType": "address",
          "name": "_destination",
          "type": "address"
        }
      ],
      "name": "withdrawToken",
      "outputs": [],
      "stateMutability": "nonpayable",
      "type": "function"
    }
  ],
  "bytecode": "0x6080604052670de0b6b3a76400006003553480156200001d57600080fd5b5060405162002f6f38038062002f6f83398181016040528101906200004391906200029e565b60008060006101000a81548160ff02191690831515021790555080600260006101000a81548173ffffffffffffffffffffffffffffffffffffffff021916908373ffffffffffffffffffffffffffffffffffffffff160217905550620000b36000801b33620000ba60201b60201c565b50620002d0565b620000cc8282620000d060201b60201c565b5050565b620000e28282620001c160201b60201c565b620001bd57600180600084815260200190815260200160002060000160008373ffffffffffffffffffffffffffffffffffffffff1673ffffffffffffffffffffffffffffffffffffffff16815260200190815260200160002060006101000a81548160ff021916908315150217905550620001626200022c60201b60201c565b73ffffffffffffffffffffffffffffffffffffffff168173ffffffffffffffffffffffffffffffffffffffff16837f2f8788117e7eff1d82e926ec794901d17c78024a50270940304540a733656f0d60405160405180910390a45b5050565b60006001600084815260200190815260200160002060000160008373ffffffffffffffffffffffffffffffffffffffff1673ffffffffffffffffffffffffffffffffffffffff16815260200190815260200160002060009054906101000a900460ff16905092915050565b600033905090565b600080fd5b600073ffffffffffffffffffffffffffffffffffffffff82169050919050565b6000620002668262000239565b9050919050565b620002788162000259565b81146200028457600080fd5b50565b60008151905062000298816200026d565b92915050565b600060208284031215620002b757620002b662000234565b5b6000620002c78482850162000287565b91505092915050565b612c8f80620002e06000396000f3fe608060405234801561001057600080fd5b50600436106101165760003560e01c806347e7ef24116100a257806392eefe9b1161007157806392eefe9b146102ed578063a217fddf14610309578063d547741f14610327578063e831be5814610343578063f940e3851461037357610116565b806347e7ef24146102535780635c975abb1461026f57806380ac82281461028d57806391d14854146102bd57610116565b80632f2ff15d116100e95780632f2ff15d146101b357806330e7e743146101cf57806336568abe146101eb5780633ccdbb28146102075780634437152a1461022357610116565b806301ffc9a71461011b5780630e174d721461014b57806321c0b34214610167578063248a9ca314610183575b600080fd5b61013560048036038101906101309190611d41565b61038f565b6040516101429190611d89565b60405180910390f35b61016560048036038101906101609190611e2e565b610409565b005b610181600480360381019061017c9190611e81565b61047c565b005b61019d60048036038101906101989190611ef7565b6107cc565b6040516101aa9190611f33565b60405180910390f35b6101cd60048036038101906101c89190611f4e565b6107ec565b005b6101e960048036038101906101e49190611f8e565b610815565b005b61020560048036038101906102009190611f4e565b61082e565b005b610221600480360381019061021c9190611ff1565b6108b1565b005b61023d60048036038101906102389190611f8e565b6108cc565b60405161024a91906120a8565b60405180910390f35b61026d600480360381019061026891906120c3565b610b93565b005b610277611157565b6040516102849190611d89565b60405180910390f35b6102a760048036038101906102a29190611e81565b61116d565b6040516102b49190612112565b60405180910390f35b6102d760048036038101906102d29190611f4e565b611406565b6040516102e49190611d89565b60405180910390f35b61030760048036038101906103029190611f8e565b611471565b005b6103116114cb565b60405161031e9190611f33565b60405180910390f35b610341600480360381019061033c9190611f4e565b6114d2565b005b61035d60048036038101906103589190611e81565b6114fb565b60405161036a9190612112565b60405180910390f35b61038d60048036038101906103889190611e81565b6115a5565b005b60007f7965db0b000000000000000000000000000000000000000000000000000000007bffffffffffffffffffffffffffffffffffffffffffffffffffffffff1916827bffffffffffffffffffffffffffffffffffffffffffffffffffffffff19161480610402575061040182611799565b5b9050919050565b8173ffffffffffffffffffffffffffffffffffffffff163373ffffffffffffffffffffffffffffffffffffffff1614610477576040517f08c379a000000000000000000000000000000000000000000000000000000000815260040161046e9061218a565b60405180910390fd5b505050565b600560008373ffffffffffffffffffffffffffffffffffffffff1673ffffffffffffffffffffffffffffffffffffffff16815260200190815260200160002060008273ffffffffffffffffffffffffffffffffffffffff1673ffffffffffffffffffffffffffffffffffffffff16815260200190815260200160002060009054906101000a900460ff1615610546576040517f08c379a000000000000000000000000000000000000000000000000000000000815260040161053d906121f6565b60405180910390fd5b6000610551836108cc565b90506000600260009054906101000a900473ffffffffffffffffffffffffffffffffffffffff1673ffffffffffffffffffffffffffffffffffffffff166392a576e685856040518363ffffffff1660e01b81526004016105b2929190612225565b6000604051808303816000875af11580156105d1573d6000803e3d6000fd5b505050506040513d6000823e3d601f19601f820116820180604052508101906105fa9190612498565b90506000600354836040015183602001516106159190612510565b61061f9190612599565b9050600082604001518261063391906125ca565b9050600260009054906101000a900473ffffffffffffffffffffffffffffffffffffffff1673ffffffffffffffffffffffffffffffffffffffff16638a5bff6b8787856040518463ffffffff1660e01b8152600401610694939291906125fe565b600060405180830381600087803b1580156106ae57600080fd5b505af11580156106c2573d6000803e3d6000fd5b50505050600081111561075f57600460009054906101000a900473ffffffffffffffffffffffffffffffffffffffff1673ffffffffffffffffffffffffffffffffffffffff166340c10f1986836040518363ffffffff1660e01b815260040161072c929190612635565b600060405180830381600087803b15801561074657600080fd5b505af115801561075a573d6000803e3d6000fd5b505050505b8473ffffffffffffffffffffffffffffffffffffffff168673ffffffffffffffffffffffffffffffffffffffff167f70eb43c4a8ae8c40502dcf22436c509c28d6ff421cf07c491be56984bd987068836040516107bc9190612112565b60405180910390a3505050505050565b600060016000838152602001908152602001600020600101549050919050565b6107f5826107cc565b61080681610801611803565b61180b565b61081083836118a8565b505050565b6000801b61082a81610825611803565b61180b565b5050565b610836611803565b73ffffffffffffffffffffffffffffffffffffffff168173ffffffffffffffffffffffffffffffffffffffff16146108a3576040517f08c379a000000000000000000000000000000000000000000000000000000000815260040161089a906126d0565b60405180910390fd5b6108ad8282611988565b5050565b6000801b6108c6816108c1611803565b61180b565b50505050565b6108d4611cad565b6000600260009054906101000a900473ffffffffffffffffffffffffffffffffffffffff1673ffffffffffffffffffffffffffffffffffffffff1663bbe4f6db846040518263ffffffff1660e01b815260040161093191906126f0565b6080604051808303816000875af1158015610950573d6000803e3d6000fd5b505050506040513d601f19601f820116820180604052508101906109749190612783565b90506000600260009054906101000a900473ffffffffffffffffffffffffffffffffffffffff1673ffffffffffffffffffffffffffffffffffffffff1663f2866c78856040518263ffffffff1660e01b81526004016109d391906126f0565b6020604051808303816000875af11580156109f2573d6000803e3d6000fd5b505050506040513d601f19601f82011682018060405250810190610a1691906127b0565b905060008260600151431115610b8a576000821115610a84576000836060015143610a4191906125ca565b90506000846020015182610a559190612510565b90508360035482610a669190612510565b610a709190612599565b8560400151610a7f91906127dd565b925050505b60004390506000600260009054906101000a900473ffffffffffffffffffffffffffffffffffffffff1673ffffffffffffffffffffffffffffffffffffffff16633dff45e98885856040518463ffffffff1660e01b8152600401610aea93929190612833565b6080604051808303816000875af1158015610b09573d6000803e3d6000fd5b505050506040513d601f19601f82011682018060405250810190610b2d9190612783565b90508673ffffffffffffffffffffffffffffffffffffffff167f2f4ae87a584f00dc35b043dd1c5ac839c1f41cd3a66e834d4e13faa6251634e683604051610b759190612112565b60405180910390a28095505050505050610b8e565b5050505b919050565b600260009054906101000a900473ffffffffffffffffffffffffffffffffffffffff1673ffffffffffffffffffffffffffffffffffffffff1663999126d7836040518263ffffffff1660e01b8152600401610bee91906126f0565b602060405180830381865afa158015610c0b573d6000803e3d6000fd5b505050506040513d601f19601f82011682018060405250810190610c2f919061286a565b610c6e576040517f08c379a0000000000000000000000000000000000000000000000000000000008152600401610c65906128e3565b60405180910390fd5b6000610c79836108cc565b90506000600354826040015184610c909190612510565b610c9a9190612599565b9050600260009054906101000a900473ffffffffffffffffffffffffffffffffffffffff1673ffffffffffffffffffffffffffffffffffffffff166356e45e4b856040518263ffffffff1660e01b8152600401610cf791906126f0565b602060405180830381865afa158015610d14573d6000803e3d6000fd5b505050506040513d601f19601f82011682018060405250810190610d38919061286a565b610dd457600260009054906101000a900473ffffffffffffffffffffffffffffffffffffffff1673ffffffffffffffffffffffffffffffffffffffff1663f5b5d237853386856040518563ffffffff1660e01b8152600401610d9d9493929190612903565b600060405180830381600087803b158015610db757600080fd5b505af1158015610dcb573d6000803e3d6000fd5b50505050611151565b600260009054906101000a900473ffffffffffffffffffffffffffffffffffffffff1673ffffffffffffffffffffffffffffffffffffffff1663d2456a95853386856040518563ffffffff1660e01b8152600401610e359493929190612903565b600060405180830381600087803b158015610e4f57600080fd5b505af1158015610e63573d6000803e3d6000fd5b505050506000600260009054906101000a900473ffffffffffffffffffffffffffffffffffffffff1673ffffffffffffffffffffffffffffffffffffffff16639338b7c986336040518363ffffffff1660e01b8152600401610ec6929190612225565b6080604051808303816000875af1158015610ee5573d6000803e3d6000fd5b505050506040513d601f19601f82011682018060405250810190610f0991906129c0565b9050610f188160200151611a6a565b15610fb157600260009054906101000a900473ffffffffffffffffffffffffffffffffffffffff1673ffffffffffffffffffffffffffffffffffffffff16636374299e33866040518363ffffffff1660e01b8152600401610f7a929190612635565b600060405180830381600087803b158015610f9457600080fd5b505af1158015610fa8573d6000803e3d6000fd5b505050506110ea565b6000600260009054906101000a900473ffffffffffffffffffffffffffffffffffffffff1673ffffffffffffffffffffffffffffffffffffffff166312229f1387336040518363ffffffff1660e01b8152600401611010929190612225565b6020604051808303816000875af115801561102f573d6000803e3d6000fd5b505050506040513d601f19601f8201168201806040525081019061105391906127b0565b9050600260009054906101000a900473ffffffffffffffffffffffffffffffffffffffff1673ffffffffffffffffffffffffffffffffffffffff16631b2aa575873388856040518563ffffffff1660e01b81526004016110b69493929190612903565b600060405180830381600087803b1580156110d057600080fd5b505af11580156110e4573d6000803e3d6000fd5b50505050505b3373ffffffffffffffffffffffffffffffffffffffff168573ffffffffffffffffffffffffffffffffffffffff167f5548c837ab068cf56a2c2479df0882a4922fd203edb7517321831d95078c5f62866040516111479190612112565b60405180910390a3505b50505050565b60008060009054906101000a900460ff16905090565b600080600260009054906101000a900473ffffffffffffffffffffffffffffffffffffffff1673ffffffffffffffffffffffffffffffffffffffff1663bbe4f6db856040518263ffffffff1660e01b81526004016111cb91906126f0565b6080604051808303816000875af11580156111ea573d6000803e3d6000fd5b505050506040513d601f19601f8201168201806040525081019061120e9190612783565b90506000600260009054906101000a900473ffffffffffffffffffffffffffffffffffffffff1673ffffffffffffffffffffffffffffffffffffffff166392a576e686866040518363ffffffff1660e01b815260040161126f929190612225565b6000604051808303816000875af115801561128e573d6000803e3d6000fd5b505050506040513d6000823e3d601f19601f820116820180604052508101906112b79190612498565b90506000826040015190506000600260009054906101000a900473ffffffffffffffffffffffffffffffffffffffff1673ffffffffffffffffffffffffffffffffffffffff1663f2866c78886040518263ffffffff1660e01b815260040161131f91906126f0565b6020604051808303816000875af115801561133e573d6000803e3d6000fd5b505050506040513d601f19601f8201168201806040525081019061136291906127b0565b9050836060015143118015611378575060008114155b156113ce57600084606001514361138f91906125ca565b905060008560200151826113a39190612510565b905082600354826113b49190612510565b6113be9190612599565b846113c991906127dd565b935050505b82604001516003548385602001516113e69190612510565b6113f09190612599565b6113fa91906125ca565b94505050505092915050565b60006001600084815260200190815260200160002060000160008373ffffffffffffffffffffffffffffffffffffffff1673ffffffffffffffffffffffffffffffffffffffff16815260200190815260200160002060009054906101000a900460ff16905092915050565b6000801b61148681611481611803565b61180b565b81600460006101000a81548173ffffffffffffffffffffffffffffffffffffffff021916908373ffffffffffffffffffffffffffffffffffffffff1602179055505050565b6000801b81565b6114db826107cc565b6114ec816114e7611803565b61180b565b6114f68383611988565b505050565b6000600260009054906101000a900473ffffffffffffffffffffffffffffffffffffffff1673ffffffffffffffffffffffffffffffffffffffff16630122a7e884846040518363ffffffff1660e01b815260040161155a929190612225565b6020604051808303816000875af1158015611579573d6000803e3d6000fd5b505050506040513d601f19601f8201168201806040525081019061159d91906127b0565b905092915050565b60006115b0836108cc565b90506000600260009054906101000a900473ffffffffffffffffffffffffffffffffffffffff1673ffffffffffffffffffffffffffffffffffffffff166392a576e685856040518363ffffffff1660e01b8152600401611611929190612225565b6000604051808303816000875af1158015611630573d6000803e3d6000fd5b505050506040513d6000823e3d601f19601f820116820180604052508101906116599190612498565b9050600061166785856114fb565b9050600060035484604001518361167e9190612510565b6116889190612599565b836040015161169791906125ca565b9050600260009054906101000a900473ffffffffffffffffffffffffffffffffffffffff1673ffffffffffffffffffffffffffffffffffffffff16637bfe950c878785856040518563ffffffff1660e01b81526004016116fa9493929190612903565b600060405180830381600087803b15801561171457600080fd5b505af1158015611728573d6000803e3d6000fd5b505050508473ffffffffffffffffffffffffffffffffffffffff168673ffffffffffffffffffffffffffffffffffffffff167f9b1bfa7fa9ee420a16e124f794c35ac9f90472acc99140eb2f6447c714cad8eb846040516117899190612112565b60405180910390a3505050505050565b60007f01ffc9a7000000000000000000000000000000000000000000000000000000007bffffffffffffffffffffffffffffffffffffffffffffffffffffffff1916827bffffffffffffffffffffffffffffffffffffffffffffffffffffffff1916149050919050565b600033905090565b6118158282611406565b6118a45761183a8173ffffffffffffffffffffffffffffffffffffffff166014611a71565b6118488360001c6020611a71565b604051602001611859929190612aff565b6040516020818303038152906040526040517f08c379a000000000000000000000000000000000000000000000000000000000815260040161189b9190612b72565b60405180910390fd5b5050565b6118b28282611406565b61198457600180600084815260200190815260200160002060000160008373ffffffffffffffffffffffffffffffffffffffff1673ffffffffffffffffffffffffffffffffffffffff16815260200190815260200160002060006101000a81548160ff021916908315150217905550611929611803565b73ffffffffffffffffffffffffffffffffffffffff168173ffffffffffffffffffffffffffffffffffffffff16837f2f8788117e7eff1d82e926ec794901d17c78024a50270940304540a733656f0d60405160405180910390a45b5050565b6119928282611406565b15611a665760006001600084815260200190815260200160002060000160008373ffffffffffffffffffffffffffffffffffffffff1673ffffffffffffffffffffffffffffffffffffffff16815260200190815260200160002060006101000a81548160ff021916908315150217905550611a0b611803565b73ffffffffffffffffffffffffffffffffffffffff168173ffffffffffffffffffffffffffffffffffffffff16837ff6391f5c32d9c69d2a47ea670b442974b53935d1edc7fd64eb21e047a839171b60405160405180910390a45b5050565b6000919050565b606060006002836002611a849190612510565b611a8e91906127dd565b67ffffffffffffffff811115611aa757611aa6612264565b5b6040519080825280601f01601f191660200182016040528015611ad95781602001600182028036833780820191505090505b5090507f300000000000000000000000000000000000000000000000000000000000000081600081518110611b1157611b10612b94565b5b60200101907effffffffffffffffffffffffffffffffffffffffffffffffffffffffffffff1916908160001a9053507f780000000000000000000000000000000000000000000000000000000000000081600181518110611b7557611b74612b94565b5b60200101907effffffffffffffffffffffffffffffffffffffffffffffffffffffffffffff1916908160001a90535060006001846002611bb59190612510565b611bbf91906127dd565b90505b6001811115611c5f577f3031323334353637383961626364656600000000000000000000000000000000600f861660108110611c0157611c00612b94565b5b1a60f81b828281518110611c1857611c17612b94565b5b60200101907effffffffffffffffffffffffffffffffffffffffffffffffffffffffffffff1916908160001a905350600485901c945080611c5890612bc3565b9050611bc2565b5060008414611ca3576040517f08c379a0000000000000000000000000000000000000000000000000000000008152600401611c9a90612c39565b60405180910390fd5b8091505092915050565b6040518060800160405280600081526020016000815260200160008152602001600081525090565b6000604051905090565b600080fd5b600080fd5b60007fffffffff0000000000000000000000000000000000000000000000000000000082169050919050565b611d1e81611ce9565b8114611d2957600080fd5b50565b600081359050611d3b81611d15565b92915050565b600060208284031215611d5757611d56611cdf565b5b6000611d6584828501611d2c565b91505092915050565b60008115159050919050565b611d8381611d6e565b82525050565b6000602082019050611d9e6000830184611d7a565b92915050565b600073ffffffffffffffffffffffffffffffffffffffff82169050919050565b6000611dcf82611da4565b9050919050565b611ddf81611dc4565b8114611dea57600080fd5b50565b600081359050611dfc81611dd6565b92915050565b611e0b81611d6e565b8114611e1657600080fd5b50565b600081359050611e2881611e02565b92915050565b600080600060608486031215611e4757611e46611cdf565b5b6000611e5586828701611ded565b9350506020611e6686828701611ded565b9250506040611e7786828701611e19565b9150509250925092565b60008060408385031215611e9857611e97611cdf565b5b6000611ea685828601611ded565b9250506020611eb785828601611ded565b9150509250929050565b6000819050919050565b611ed481611ec1565b8114611edf57600080fd5b50565b600081359050611ef181611ecb565b92915050565b600060208284031215611f0d57611f0c611cdf565b5b6000611f1b84828501611ee2565b91505092915050565b611f2d81611ec1565b82525050565b6000602082019050611f486000830184611f24565b92915050565b60008060408385031215611f6557611f64611cdf565b5b6000611f7385828601611ee2565b9250506020611f8485828601611ded565b9150509250929050565b600060208284031215611fa457611fa3611cdf565b5b6000611fb284828501611ded565b91505092915050565b6000819050919050565b611fce81611fbb565b8114611fd957600080fd5b50565b600081359050611feb81611fc5565b92915050565b60008060006060848603121561200a57612009611cdf565b5b600061201886828701611ded565b935050602061202986828701611fdc565b925050604061203a86828701611ded565b9150509250925092565b61204d81611fbb565b82525050565b6080820160008201516120696000850182612044565b50602082015161207c6020850182612044565b50604082015161208f6040850182612044565b5060608201516120a26060850182612044565b50505050565b60006080820190506120bd6000830184612053565b92915050565b600080604083850312156120da576120d9611cdf565b5b60006120e885828601611ded565b92505060206120f985828601611fdc565b9150509250929050565b61210c81611fbb565b82525050565b60006020820190506121276000830184612103565b92915050565b600082825260208201905092915050565b7f696e636f72726563742075736572000000000000000000000000000000000000600082015250565b6000612174600e8361212d565b915061217f8261213e565b602082019050919050565b600060208201905081810360008301526121a381612167565b9050919050565b7f6175746f636f6d706f756e64696e67206973206f6e0000000000000000000000600082015250565b60006121e060158361212d565b91506121eb826121aa565b602082019050919050565b6000602082019050818103600083015261220f816121d3565b9050919050565b61221f81611dc4565b82525050565b600060408201905061223a6000830185612216565b6122476020830184612216565b9392505050565b600080fd5b6000601f19601f8301169050919050565b7f4e487b7100000000000000000000000000000000000000000000000000000000600052604160045260246000fd5b61229c82612253565b810181811067ffffffffffffffff821117156122bb576122ba612264565b5b80604052505050565b60006122ce611cd5565b90506122da8282612293565b919050565b600080fd5b6000815190506122f381611dd6565b92915050565b60008151905061230881611fc5565b92915050565b600080fd5b600067ffffffffffffffff82111561232e5761232d612264565b5b602082029050602081019050919050565b600080fd5b600061235761235284612313565b6122c4565b9050808382526020820190506020840283018581111561237a5761237961233f565b5b835b818110156123a3578061238f88826122f9565b84526020840193505060208101905061237c565b5050509392505050565b600082601f8301126123c2576123c161230e565b5b81516123d2848260208601612344565b91505092915050565b6000815190506123ea81611e02565b92915050565b600060a082840312156124065761240561224e565b5b61241060a06122c4565b90506000612420848285016122e4565b6000830152506020612434848285016122f9565b6020830152506040612448848285016122f9565b604083015250606082015167ffffffffffffffff81111561246c5761246b6122df565b5b612478848285016123ad565b606083015250608061248c848285016123db565b60808301525092915050565b6000602082840312156124ae576124ad611cdf565b5b600082015167ffffffffffffffff8111156124cc576124cb611ce4565b5b6124d8848285016123f0565b91505092915050565b7f4e487b7100000000000000000000000000000000000000000000000000000000600052601160045260246000fd5b600061251b82611fbb565b915061252683611fbb565b9250817fffffffffffffffffffffffffffffffffffffffffffffffffffffffffffffffff048311821515161561255f5761255e6124e1565b5b828202905092915050565b7f4e487b7100000000000000000000000000000000000000000000000000000000600052601260045260246000fd5b60006125a482611fbb565b91506125af83611fbb565b9250826125bf576125be61256a565b5b828204905092915050565b60006125d582611fbb565b91506125e083611fbb565b9250828210156125f3576125f26124e1565b5b828203905092915050565b60006060820190506126136000830186612216565b6126206020830185612216565b61262d6040830184612103565b949350505050565b600060408201905061264a6000830185612216565b6126576020830184612103565b9392505050565b7f416363657373436f6e74726f6c3a2063616e206f6e6c792072656e6f756e636560008201527f20726f6c657320666f722073656c660000000000000000000000000000000000602082015250565b60006126ba602f8361212d565b91506126c58261265e565b604082019050919050565b600060208201905081810360008301526126e9816126ad565b9050919050565b60006020820190506127056000830184612216565b92915050565b6000608082840312156127215761272061224e565b5b61272b60806122c4565b9050600061273b848285016122f9565b600083015250602061274f848285016122f9565b6020830152506040612763848285016122f9565b6040830152506060612777848285016122f9565b60608301525092915050565b60006080828403121561279957612798611cdf565b5b60006127a78482850161270b565b91505092915050565b6000602082840312156127c6576127c5611cdf565b5b60006127d4848285016122f9565b91505092915050565b60006127e882611fbb565b91506127f383611fbb565b9250827fffffffffffffffffffffffffffffffffffffffffffffffffffffffffffffffff03821115612828576128276124e1565b5b828201905092915050565b60006060820190506128486000830186612216565b6128556020830185612103565b6128626040830184612103565b949350505050565b6000602082840312156128805761287f611cdf565b5b600061288e848285016123db565b91505092915050565b7f506f6f6c20646f6573206e6f7420657869737400000000000000000000000000600082015250565b60006128cd60138361212d565b91506128d882612897565b602082019050919050565b600060208201905081810360008301526128fc816128c0565b9050919050565b60006080820190506129186000830187612216565b6129256020830186612216565b6129326040830185612103565b61293f6060830184612103565b95945050505050565b60006080828403121561295e5761295d61224e565b5b61296860806122c4565b90506000612978848285016122f9565b600083015250602061298c848285016122f9565b60208301525060406129a0848285016122f9565b60408301525060606129b4848285016123db565b60608301525092915050565b6000608082840312156129d6576129d5611cdf565b5b60006129e484828501612948565b91505092915050565b600081905092915050565b7f416363657373436f6e74726f6c3a206163636f756e7420000000000000000000600082015250565b6000612a2e6017836129ed565b9150612a39826129f8565b601782019050919050565b600081519050919050565b60005b83811015612a6d578082015181840152602081019050612a52565b83811115612a7c576000848401525b50505050565b6000612a8d82612a44565b612a9781856129ed565b9350612aa7818560208601612a4f565b80840191505092915050565b7f206973206d697373696e6720726f6c6520000000000000000000000000000000600082015250565b6000612ae96011836129ed565b9150612af482612ab3565b601182019050919050565b6000612b0a82612a21565b9150612b168285612a82565b9150612b2182612adc565b9150612b2d8284612a82565b91508190509392505050565b6000612b4482612a44565b612b4e818561212d565b9350612b5e818560208601612a4f565b612b6781612253565b840191505092915050565b60006020820190508181036000830152612b8c8184612b39565b905092915050565b7f4e487b7100000000000000000000000000000000000000000000000000000000600052603260045260246000fd5b6000612bce82611fbb565b91506000821415612be257612be16124e1565b5b600182039050919050565b7f537472696e67733a20686578206c656e67746820696e73756666696369656e74600082015250565b6000612c2360208361212d565b9150612c2e82612bed565b602082019050919050565b60006020820190508181036000830152612c5281612c16565b905091905056fea2646970667358221220a77ace71eb3fb294b915456c18cb6cf1adb365a962489dd15cf1aef2e554757664736f6c634300080b0033",
  "linkReferences": {},
  "deployedLinkReferences": {}
}