{
  "_format": "hh-sol-artifact-1",
  "contractName": "RewardsV2",
  "sourceName": "contracts/rewards/Rewards.sol",
  "abi": [
    {
      "inputs": [
        {
          "internalType": "address",
          "name": "_vault",
          "type": "address"
        }
      ],
      "stateMutability": "nonpayable",
      "type": "constructor"
    },
    {
      "anonymous": false,
      "inputs": [
        {
          "indexed": false,
          "internalType": "address",
          "name": "_token",
          "type": "address"
        },
        {
          "indexed": false,
          "internalType": "uint256",
          "name": "_rewardsPerBlock",
          "type": "uint256"
        }
      ],
      "name": "AddPool",
      "type": "event"
    },
    {
      "anonymous": false,
      "inputs": [
        {
          "indexed": true,
          "internalType": "address",
          "name": "_token",
          "type": "address"
        },
        {
          "indexed": true,
          "internalType": "address",
          "name": "_user",
          "type": "address"
        },
        {
          "indexed": false,
          "internalType": "uint256",
          "name": "_amount",
          "type": "uint256"
        }
      ],
      "name": "Claim",
      "type": "event"
    },
    {
      "anonymous": false,
      "inputs": [
        {
          "indexed": true,
          "internalType": "address",
          "name": "_token",
          "type": "address"
        },
        {
          "indexed": true,
          "internalType": "address",
          "name": "_user",
          "type": "address"
        },
        {
          "indexed": false,
          "internalType": "uint256",
          "name": "_amount",
          "type": "uint256"
        }
      ],
      "name": "Deposit",
      "type": "event"
    },
    {
      "anonymous": false,
      "inputs": [
        {
          "indexed": false,
          "internalType": "address",
          "name": "account",
          "type": "address"
        }
      ],
      "name": "Paused",
      "type": "event"
    },
    {
      "anonymous": false,
      "inputs": [
        {
          "indexed": true,
          "internalType": "address",
          "name": "_token",
          "type": "address"
        },
        {
          "indexed": false,
          "internalType": "uint256",
          "name": "_block",
          "type": "uint256"
        }
      ],
      "name": "PoolUpdated",
      "type": "event"
    },
    {
      "anonymous": false,
      "inputs": [
        {
          "indexed": true,
          "internalType": "bytes32",
          "name": "role",
          "type": "bytes32"
        },
        {
          "indexed": true,
          "internalType": "bytes32",
          "name": "previousAdminRole",
          "type": "bytes32"
        },
        {
          "indexed": true,
          "internalType": "bytes32",
          "name": "newAdminRole",
          "type": "bytes32"
        }
      ],
      "name": "RoleAdminChanged",
      "type": "event"
    },
    {
      "anonymous": false,
      "inputs": [
        {
          "indexed": true,
          "internalType": "bytes32",
          "name": "role",
          "type": "bytes32"
        },
        {
          "indexed": true,
          "internalType": "address",
          "name": "account",
          "type": "address"
        },
        {
          "indexed": true,
          "internalType": "address",
          "name": "sender",
          "type": "address"
        }
      ],
      "name": "RoleGranted",
      "type": "event"
    },
    {
      "anonymous": false,
      "inputs": [
        {
          "indexed": true,
          "internalType": "bytes32",
          "name": "role",
          "type": "bytes32"
        },
        {
          "indexed": true,
          "internalType": "address",
          "name": "account",
          "type": "address"
        },
        {
          "indexed": true,
          "internalType": "address",
          "name": "sender",
          "type": "address"
        }
      ],
      "name": "RoleRevoked",
      "type": "event"
    },
    {
      "anonymous": false,
      "inputs": [
        {
          "indexed": false,
          "internalType": "address",
          "name": "_controller",
          "type": "address"
        }
      ],
      "name": "SetController",
      "type": "event"
    },
    {
      "anonymous": false,
      "inputs": [
        {
          "indexed": false,
          "internalType": "address",
          "name": "account",
          "type": "address"
        }
      ],
      "name": "Unpaused",
      "type": "event"
    },
    {
      "anonymous": false,
      "inputs": [
        {
          "indexed": true,
          "internalType": "address",
          "name": "_token",
          "type": "address"
        },
        {
          "indexed": true,
          "internalType": "address",
          "name": "_user",
          "type": "address"
        },
        {
          "indexed": false,
          "internalType": "uint256",
          "name": "_amount",
          "type": "uint256"
        }
      ],
      "name": "Withdraw",
      "type": "event"
    },
    {
      "anonymous": false,
      "inputs": [
        {
          "indexed": false,
          "internalType": "address",
          "name": "destination",
          "type": "address"
        },
        {
          "indexed": false,
          "internalType": "uint256",
          "name": "amount",
          "type": "uint256"
        }
      ],
      "name": "WithdrawMATIC",
      "type": "event"
    },
    {
      "inputs": [],
      "name": "DEFAULT_ADMIN_ROLE",
      "outputs": [
        {
          "internalType": "bytes32",
          "name": "",
          "type": "bytes32"
        }
      ],
      "stateMutability": "view",
      "type": "function"
    },
    {
      "inputs": [
        {
          "internalType": "address",
          "name": "_token",
          "type": "address"
        },
        {
          "internalType": "uint256",
          "name": "_rewardsPerBlock",
          "type": "uint256"
        }
      ],
      "name": "addPool",
      "outputs": [],
      "stateMutability": "nonpayable",
      "type": "function"
    },
    {
      "inputs": [
        {
          "internalType": "address",
          "name": "_token",
          "type": "address"
        },
        {
          "internalType": "address",
          "name": "_user",
          "type": "address"
        }
      ],
      "name": "claim",
      "outputs": [],
      "stateMutability": "nonpayable",
      "type": "function"
    },
    {
      "inputs": [
        {
          "internalType": "address",
          "name": "_token",
          "type": "address"
        },
        {
          "internalType": "uint256",
          "name": "_amount",
          "type": "uint256"
        }
      ],
      "name": "deposit",
      "outputs": [],
      "stateMutability": "nonpayable",
      "type": "function"
    },
    {
      "inputs": [
        {
          "internalType": "bytes32",
          "name": "role",
          "type": "bytes32"
        }
      ],
      "name": "getRoleAdmin",
      "outputs": [
        {
          "internalType": "bytes32",
          "name": "",
          "type": "bytes32"
        }
      ],
      "stateMutability": "view",
      "type": "function"
    },
    {
      "inputs": [
        {
          "internalType": "bytes32",
          "name": "role",
          "type": "bytes32"
        },
        {
          "internalType": "address",
          "name": "account",
          "type": "address"
        }
      ],
      "name": "grantRole",
      "outputs": [],
      "stateMutability": "nonpayable",
      "type": "function"
    },
    {
      "inputs": [
        {
          "internalType": "bytes32",
          "name": "role",
          "type": "bytes32"
        },
        {
          "internalType": "address",
          "name": "account",
          "type": "address"
        }
      ],
      "name": "hasRole",
      "outputs": [
        {
          "internalType": "bool",
          "name": "",
          "type": "bool"
        }
      ],
      "stateMutability": "view",
      "type": "function"
    },
    {
      "inputs": [],
      "name": "paused",
      "outputs": [
        {
          "internalType": "bool",
          "name": "",
          "type": "bool"
        }
      ],
      "stateMutability": "view",
      "type": "function"
    },
    {
      "inputs": [
        {
          "internalType": "address",
          "name": "_token",
          "type": "address"
        },
        {
          "internalType": "address",
          "name": "_user",
          "type": "address"
        }
      ],
      "name": "pendingRewards",
      "outputs": [
        {
          "internalType": "uint256",
          "name": "pending",
          "type": "uint256"
        }
      ],
      "stateMutability": "nonpayable",
      "type": "function"
    },
    {
      "inputs": [
        {
          "internalType": "bytes32",
          "name": "role",
          "type": "bytes32"
        },
        {
          "internalType": "address",
          "name": "account",
          "type": "address"
        }
      ],
      "name": "renounceRole",
      "outputs": [],
      "stateMutability": "nonpayable",
      "type": "function"
    },
    {
      "inputs": [
        {
          "internalType": "bytes32",
          "name": "role",
          "type": "bytes32"
        },
        {
          "internalType": "address",
          "name": "account",
          "type": "address"
        }
      ],
      "name": "revokeRole",
      "outputs": [],
      "stateMutability": "nonpayable",
      "type": "function"
    },
    {
      "inputs": [
        {
          "internalType": "address",
          "name": "_controller",
          "type": "address"
        }
      ],
      "name": "setController",
      "outputs": [],
      "stateMutability": "nonpayable",
      "type": "function"
    },
    {
      "inputs": [
        {
          "internalType": "bytes4",
          "name": "interfaceId",
          "type": "bytes4"
        }
      ],
      "name": "supportsInterface",
      "outputs": [
        {
          "internalType": "bool",
          "name": "",
          "type": "bool"
        }
      ],
      "stateMutability": "view",
      "type": "function"
    },
    {
      "inputs": [
        {
          "internalType": "address",
          "name": "_token",
          "type": "address"
        }
      ],
      "name": "updatePool",
      "outputs": [
        {
          "components": [
            {
              "internalType": "uint256",
              "name": "totalPooled",
              "type": "uint256"
            },
            {
              "internalType": "uint256",
              "name": "rewardsPerBlock",
              "type": "uint256"
            },
            {
              "internalType": "uint256",
              "name": "accCaplPerShare",
              "type": "uint256"
            },
            {
              "internalType": "uint256",
              "name": "lastRewardBlock",
              "type": "uint256"
            }
          ],
          "internalType": "struct IPool.Pool",
          "name": "pool",
          "type": "tuple"
        }
      ],
      "stateMutability": "nonpayable",
      "type": "function"
    },
    {
      "inputs": [
        {
          "internalType": "address",
          "name": "_token",
          "type": "address"
        },
        {
          "internalType": "address",
          "name": "_user",
          "type": "address"
        }
      ],
      "name": "withdraw",
      "outputs": [],
      "stateMutability": "nonpayable",
      "type": "function"
    },
    {
      "inputs": [],
      "name": "withdrawMATIC",
      "outputs": [],
      "stateMutability": "nonpayable",
      "type": "function"
    },
    {
      "inputs": [
        {
          "internalType": "address",
          "name": "_token",
          "type": "address"
        },
        {
          "internalType": "uint256",
          "name": "_amount",
          "type": "uint256"
        },
        {
          "internalType": "address",
          "name": "_destination",
          "type": "address"
        }
      ],
      "name": "withdrawToken",
      "outputs": [],
      "stateMutability": "nonpayable",
      "type": "function"
    }
  ],
  "bytecode": "0x6080604052670de0b6b3a764000060045562093a806006553480156200002457600080fd5b506040516200349f3803806200349f83398181016040528101906200004a9190620002e6565b60008060006101000a81548160ff02191690831515021790555080600260006101000a81548173ffffffffffffffffffffffffffffffffffffffff021916908373ffffffffffffffffffffffffffffffffffffffff16021790555080600360006101000a81548173ffffffffffffffffffffffffffffffffffffffff021916908373ffffffffffffffffffffffffffffffffffffffff160217905550620000fb6000801b336200010260201b60201c565b5062000318565b6200011482826200011860201b60201c565b5050565b6200012a82826200020960201b60201c565b6200020557600180600084815260200190815260200160002060000160008373ffffffffffffffffffffffffffffffffffffffff1673ffffffffffffffffffffffffffffffffffffffff16815260200190815260200160002060006101000a81548160ff021916908315150217905550620001aa6200027460201b60201c565b73ffffffffffffffffffffffffffffffffffffffff168173ffffffffffffffffffffffffffffffffffffffff16837f2f8788117e7eff1d82e926ec794901d17c78024a50270940304540a733656f0d60405160405180910390a45b5050565b60006001600084815260200190815260200160002060000160008373ffffffffffffffffffffffffffffffffffffffff1673ffffffffffffffffffffffffffffffffffffffff16815260200190815260200160002060009054906101000a900460ff16905092915050565b600033905090565b600080fd5b600073ffffffffffffffffffffffffffffffffffffffff82169050919050565b6000620002ae8262000281565b9050919050565b620002c081620002a1565b8114620002cc57600080fd5b50565b600081519050620002e081620002b5565b92915050565b600060208284031215620002ff57620002fe6200027c565b5b60006200030f84828501620002cf565b91505092915050565b61317780620003286000396000f3fe608060405234801561001057600080fd5b506004361061010b5760003560e01c80635c975abb116100a257806392eefe9b1161007157806392eefe9b146102c6578063a217fddf146102e2578063d547741f14610300578063d99f66681461031c578063f940e385146103265761010b565b80635c975abb146102185780637b46c54f1461023657806380ac82281461026657806391d14854146102965761010b565b806332a9caba116100de57806332a9caba146101a857806336568abe146101c45780633ccdbb28146101e057806347e7ef24146101fc5761010b565b806301ffc9a71461011057806321c0b34214610140578063248a9ca31461015c5780632f2ff15d1461018c575b600080fd5b61012a60048036038101906101259190612110565b610342565b6040516101379190612158565b60405180910390f35b61015a600480360381019061015591906121d1565b6103bc565b005b61017660048036038101906101719190612247565b610642565b6040516101839190612283565b60405180910390f35b6101a660048036038101906101a1919061229e565b610662565b005b6101c260048036038101906101bd9190612314565b61068b565b005b6101de60048036038101906101d9919061229e565b610734565b005b6101fa60048036038101906101f59190612354565b6107b7565b005b61021660048036038101906102119190612314565b6107d2565b005b610220610de9565b60405161022d9190612158565b60405180910390f35b610250600480360381019061024b91906123a7565b610dff565b60405161025d9190612438565b60405180910390f35b610280600480360381019061027b91906121d1565b6110c6565b60405161028d9190612462565b60405180910390f35b6102b060048036038101906102ab919061229e565b61135f565b6040516102bd9190612158565b60405180910390f35b6102e060048036038101906102db91906123a7565b6113ca565b005b6102ea611424565b6040516102f79190612283565b60405180910390f35b61031a6004803603810190610315919061229e565b61142b565b005b610324611454565b005b610340600480360381019061033b91906121d1565b611535565b005b60007f7965db0b000000000000000000000000000000000000000000000000000000007bffffffffffffffffffffffffffffffffffffffffffffffffffffffff1916827bffffffffffffffffffffffffffffffffffffffffffffffffffffffff191614806103b557506103b482611860565b5b9050919050565b60006103c783610dff565b90506000600260009054906101000a900473ffffffffffffffffffffffffffffffffffffffff1673ffffffffffffffffffffffffffffffffffffffff166392a576e685856040518363ffffffff1660e01b815260040161042892919061248c565b6000604051808303816000875af1158015610447573d6000803e3d6000fd5b505050506040513d6000823e3d601f19601f82011682018060405250810190610470919061278d565b905060006004548360400151836000015161048b9190612805565b610495919061288e565b905060008260200151826104a991906128bf565b9050600260009054906101000a900473ffffffffffffffffffffffffffffffffffffffff1673ffffffffffffffffffffffffffffffffffffffff16638a5bff6b8787856040518463ffffffff1660e01b815260040161050a939291906128f3565b600060405180830381600087803b15801561052457600080fd5b505af1158015610538573d6000803e3d6000fd5b5050505060008111156105d557600560009054906101000a900473ffffffffffffffffffffffffffffffffffffffff1673ffffffffffffffffffffffffffffffffffffffff166340c10f1986836040518363ffffffff1660e01b81526004016105a292919061292a565b600060405180830381600087803b1580156105bc57600080fd5b505af11580156105d0573d6000803e3d6000fd5b505050505b8473ffffffffffffffffffffffffffffffffffffffff168673ffffffffffffffffffffffffffffffffffffffff167f70eb43c4a8ae8c40502dcf22436c509c28d6ff421cf07c491be56984bd987068836040516106329190612462565b60405180910390a3505050505050565b600060016000838152602001908152602001600020600101549050919050565b61066b82610642565b61067c816106776118ca565b6118d2565b610686838361196f565b505050565b6000801b6106a08161069b6118ca565b6118d2565b600260009054906101000a900473ffffffffffffffffffffffffffffffffffffffff1673ffffffffffffffffffffffffffffffffffffffff166332a9caba84846040518363ffffffff1660e01b81526004016106fd92919061292a565b600060405180830381600087803b15801561071757600080fd5b505af115801561072b573d6000803e3d6000fd5b50505050505050565b61073c6118ca565b73ffffffffffffffffffffffffffffffffffffffff168173ffffffffffffffffffffffffffffffffffffffff16146107a9576040517f08c379a00000000000000000000000000000000000000000000000000000000081526004016107a0906129d6565b60405180910390fd5b6107b38282611a4f565b5050565b6000801b6107cc816107c76118ca565b6118d2565b50505050565b600260009054906101000a900473ffffffffffffffffffffffffffffffffffffffff1673ffffffffffffffffffffffffffffffffffffffff1663999126d7836040518263ffffffff1660e01b815260040161082d91906129f6565b602060405180830381865afa15801561084a573d6000803e3d6000fd5b505050506040513d601f19601f8201168201806040525081019061086e9190612a11565b6108ad576040517f08c379a00000000000000000000000000000000000000000000000000000000081526004016108a490612a8a565b60405180910390fd5b60006108b883610dff565b905060006004548260400151846108cf9190612805565b6108d9919061288e565b9050600260009054906101000a900473ffffffffffffffffffffffffffffffffffffffff1673ffffffffffffffffffffffffffffffffffffffff1663b6f867a885336040518363ffffffff1660e01b815260040161093892919061248c565b602060405180830381865afa158015610955573d6000803e3d6000fd5b505050506040513d601f19601f820116820180604052508101906109799190612a11565b610a1557600260009054906101000a900473ffffffffffffffffffffffffffffffffffffffff1673ffffffffffffffffffffffffffffffffffffffff1663f5b5d237853386856040518563ffffffff1660e01b81526004016109de9493929190612aaa565b600060405180830381600087803b1580156109f857600080fd5b505af1158015610a0c573d6000803e3d6000fd5b50505050610d2f565b600260009054906101000a900473ffffffffffffffffffffffffffffffffffffffff1673ffffffffffffffffffffffffffffffffffffffff1663d2456a95853386856040518563ffffffff1660e01b8152600401610a769493929190612aaa565b600060405180830381600087803b158015610a9057600080fd5b505af1158015610aa4573d6000803e3d6000fd5b505050506000600260009054906101000a900473ffffffffffffffffffffffffffffffffffffffff1673ffffffffffffffffffffffffffffffffffffffff16639338b7c986336040518363ffffffff1660e01b8152600401610b0792919061248c565b6080604051808303816000875af1158015610b26573d6000803e3d6000fd5b505050506040513d601f19601f82011682018060405250810190610b4a9190612aef565b9050610b598160200151611b31565b15610bf457600260009054906101000a900473ffffffffffffffffffffffffffffffffffffffff1673ffffffffffffffffffffffffffffffffffffffff1663dfc2d1ba8633876040518463ffffffff1660e01b8152600401610bbd939291906128f3565b600060405180830381600087803b158015610bd757600080fd5b505af1158015610beb573d6000803e3d6000fd5b50505050610d2d565b6000600260009054906101000a900473ffffffffffffffffffffffffffffffffffffffff1673ffffffffffffffffffffffffffffffffffffffff166312229f1387336040518363ffffffff1660e01b8152600401610c5392919061248c565b6020604051808303816000875af1158015610c72573d6000803e3d6000fd5b505050506040513d601f19601f82011682018060405250810190610c969190612b1c565b9050600260009054906101000a900473ffffffffffffffffffffffffffffffffffffffff1673ffffffffffffffffffffffffffffffffffffffff16631b2aa575873388856040518563ffffffff1660e01b8152600401610cf99493929190612aaa565b600060405180830381600087803b158015610d1357600080fd5b505af1158015610d27573d6000803e3d6000fd5b50505050505b505b610d7e33600360009054906101000a900473ffffffffffffffffffffffffffffffffffffffff16858773ffffffffffffffffffffffffffffffffffffffff16611b4a909392919063ffffffff16565b3373ffffffffffffffffffffffffffffffffffffffff168473ffffffffffffffffffffffffffffffffffffffff167f5548c837ab068cf56a2c2479df0882a4922fd203edb7517321831d95078c5f6285604051610ddb9190612462565b60405180910390a350505050565b60008060009054906101000a900460ff16905090565b610e0761207c565b6000600260009054906101000a900473ffffffffffffffffffffffffffffffffffffffff1673ffffffffffffffffffffffffffffffffffffffff1663bbe4f6db846040518263ffffffff1660e01b8152600401610e6491906129f6565b6080604051808303816000875af1158015610e83573d6000803e3d6000fd5b505050506040513d601f19601f82011682018060405250810190610ea79190612bc1565b90506000600260009054906101000a900473ffffffffffffffffffffffffffffffffffffffff1673ffffffffffffffffffffffffffffffffffffffff1663f2866c78856040518263ffffffff1660e01b8152600401610f0691906129f6565b6020604051808303816000875af1158015610f25573d6000803e3d6000fd5b505050506040513d601f19601f82011682018060405250810190610f499190612b1c565b9050600082606001514311156110bd576000821115610fb7576000836060015143610f7491906128bf565b90506000846020015182610f889190612805565b90508360045482610f999190612805565b610fa3919061288e565b8560400151610fb29190612bee565b925050505b60004390506000600260009054906101000a900473ffffffffffffffffffffffffffffffffffffffff1673ffffffffffffffffffffffffffffffffffffffff1663695c0bb88885856040518463ffffffff1660e01b815260040161101d93929190612c44565b6080604051808303816000875af115801561103c573d6000803e3d6000fd5b505050506040513d601f19601f820116820180604052508101906110609190612bc1565b90508673ffffffffffffffffffffffffffffffffffffffff167f2f4ae87a584f00dc35b043dd1c5ac839c1f41cd3a66e834d4e13faa6251634e6836040516110a89190612462565b60405180910390a280955050505050506110c1565b5050505b919050565b600080600260009054906101000a900473ffffffffffffffffffffffffffffffffffffffff1673ffffffffffffffffffffffffffffffffffffffff1663bbe4f6db856040518263ffffffff1660e01b815260040161112491906129f6565b6080604051808303816000875af1158015611143573d6000803e3d6000fd5b505050506040513d601f19601f820116820180604052508101906111679190612bc1565b90506000600260009054906101000a900473ffffffffffffffffffffffffffffffffffffffff1673ffffffffffffffffffffffffffffffffffffffff166392a576e686866040518363ffffffff1660e01b81526004016111c892919061248c565b6000604051808303816000875af11580156111e7573d6000803e3d6000fd5b505050506040513d6000823e3d601f19601f82011682018060405250810190611210919061278d565b90506000826040015190506000600260009054906101000a900473ffffffffffffffffffffffffffffffffffffffff1673ffffffffffffffffffffffffffffffffffffffff1663f2866c78886040518263ffffffff1660e01b815260040161127891906129f6565b6020604051808303816000875af1158015611297573d6000803e3d6000fd5b505050506040513d601f19601f820116820180604052508101906112bb9190612b1c565b90508360600151431180156112d1575060008114155b156113275760008460600151436112e891906128bf565b905060008560200151826112fc9190612805565b9050826004548261130d9190612805565b611317919061288e565b846113229190612bee565b935050505b826020015160045483856000015161133f9190612805565b611349919061288e565b61135391906128bf565b94505050505092915050565b60006001600084815260200190815260200160002060000160008373ffffffffffffffffffffffffffffffffffffffff1673ffffffffffffffffffffffffffffffffffffffff16815260200190815260200160002060009054906101000a900460ff16905092915050565b6000801b6113df816113da6118ca565b6118d2565b81600560006101000a81548173ffffffffffffffffffffffffffffffffffffffff021916908373ffffffffffffffffffffffffffffffffffffffff1602179055505050565b6000801b81565b61143482610642565b611445816114406118ca565b6118d2565b61144f8383611a4f565b505050565b6000801b611469816114646118ca565b6118d2565b600047116114ac576040517f08c379a00000000000000000000000000000000000000000000000000000000081526004016114a390612cc7565b60405180910390fd5b60004790503373ffffffffffffffffffffffffffffffffffffffff166108fc829081150290604051600060405180830381858888f193505050501580156114f7573d6000803e3d6000fd5b507f43b2a2d6daf661162c8c435ac5820ea5b1e0046355c5faac17d06ecb4f60f153338260405161152992919061292a565b60405180910390a15050565b600061154083610dff565b90506000600260009054906101000a900473ffffffffffffffffffffffffffffffffffffffff1673ffffffffffffffffffffffffffffffffffffffff166392a576e685856040518363ffffffff1660e01b81526004016115a192919061248c565b6000604051808303816000875af11580156115c0573d6000803e3d6000fd5b505050506040513d6000823e3d601f19601f820116820180604052508101906115e9919061278d565b90506000600260009054906101000a900473ffffffffffffffffffffffffffffffffffffffff1673ffffffffffffffffffffffffffffffffffffffff16630122a7e886866040518363ffffffff1660e01b815260040161164a92919061248c565b6020604051808303816000875af1158015611669573d6000803e3d6000fd5b505050506040513d601f19601f8201168201806040525081019061168d9190612b1c565b905060006004548460400151836116a49190612805565b6116ae919061288e565b83602001516116bd91906128bf565b90508573ffffffffffffffffffffffffffffffffffffffff1663095ea7b3600260009054906101000a900473ffffffffffffffffffffffffffffffffffffffff16846040518363ffffffff1660e01b815260040161171c92919061292a565b6020604051808303816000875af115801561173b573d6000803e3d6000fd5b505050506040513d601f19601f8201168201806040525081019061175f9190612a11565b50600260009054906101000a900473ffffffffffffffffffffffffffffffffffffffff1673ffffffffffffffffffffffffffffffffffffffff16637bfe950c878785856040518563ffffffff1660e01b81526004016117c19493929190612aaa565b600060405180830381600087803b1580156117db57600080fd5b505af11580156117ef573d6000803e3d6000fd5b505050508473ffffffffffffffffffffffffffffffffffffffff168673ffffffffffffffffffffffffffffffffffffffff167f9b1bfa7fa9ee420a16e124f794c35ac9f90472acc99140eb2f6447c714cad8eb846040516118509190612462565b60405180910390a3505050505050565b60007f01ffc9a7000000000000000000000000000000000000000000000000000000007bffffffffffffffffffffffffffffffffffffffffffffffffffffffff1916827bffffffffffffffffffffffffffffffffffffffffffffffffffffffff1916149050919050565b600033905090565b6118dc828261135f565b61196b576119018173ffffffffffffffffffffffffffffffffffffffff166014611bd3565b61190f8360001c6020611bd3565b604051602001611920929190612df9565b6040516020818303038152906040526040517f08c379a00000000000000000000000000000000000000000000000000000000081526004016119629190612e6c565b60405180910390fd5b5050565b611979828261135f565b611a4b57600180600084815260200190815260200160002060000160008373ffffffffffffffffffffffffffffffffffffffff1673ffffffffffffffffffffffffffffffffffffffff16815260200190815260200160002060006101000a81548160ff0219169083151502179055506119f06118ca565b73ffffffffffffffffffffffffffffffffffffffff168173ffffffffffffffffffffffffffffffffffffffff16837f2f8788117e7eff1d82e926ec794901d17c78024a50270940304540a733656f0d60405160405180910390a45b5050565b611a59828261135f565b15611b2d5760006001600084815260200190815260200160002060000160008373ffffffffffffffffffffffffffffffffffffffff1673ffffffffffffffffffffffffffffffffffffffff16815260200190815260200160002060006101000a81548160ff021916908315150217905550611ad26118ca565b73ffffffffffffffffffffffffffffffffffffffff168173ffffffffffffffffffffffffffffffffffffffff16837ff6391f5c32d9c69d2a47ea670b442974b53935d1edc7fd64eb21e047a839171b60405160405180910390a45b5050565b60004360065483611b429190612bee565b109050919050565b611bcd846323b872dd60e01b858585604051602401611b6b939291906128f3565b604051602081830303815290604052907bffffffffffffffffffffffffffffffffffffffffffffffffffffffff19166020820180517bffffffffffffffffffffffffffffffffffffffffffffffffffffffff8381831617835250505050611e0f565b50505050565b606060006002836002611be69190612805565b611bf09190612bee565b67ffffffffffffffff811115611c0957611c086124cb565b5b6040519080825280601f01601f191660200182016040528015611c3b5781602001600182028036833780820191505090505b5090507f300000000000000000000000000000000000000000000000000000000000000081600081518110611c7357611c72612e8e565b5b60200101907effffffffffffffffffffffffffffffffffffffffffffffffffffffffffffff1916908160001a9053507f780000000000000000000000000000000000000000000000000000000000000081600181518110611cd757611cd6612e8e565b5b60200101907effffffffffffffffffffffffffffffffffffffffffffffffffffffffffffff1916908160001a90535060006001846002611d179190612805565b611d219190612bee565b90505b6001811115611dc1577f3031323334353637383961626364656600000000000000000000000000000000600f861660108110611d6357611d62612e8e565b5b1a60f81b828281518110611d7a57611d79612e8e565b5b60200101907effffffffffffffffffffffffffffffffffffffffffffffffffffffffffffff1916908160001a905350600485901c945080611dba90612ebd565b9050611d24565b5060008414611e05576040517f08c379a0000000000000000000000000000000000000000000000000000000008152600401611dfc90612f33565b60405180910390fd5b8091505092915050565b6000611e71826040518060400160405280602081526020017f5361666545524332303a206c6f772d6c6576656c2063616c6c206661696c65648152508573ffffffffffffffffffffffffffffffffffffffff16611ed69092919063ffffffff16565b9050600081511115611ed15780806020019051810190611e919190612a11565b611ed0576040517f08c379a0000000000000000000000000000000000000000000000000000000008152600401611ec790612fc5565b60405180910390fd5b5b505050565b6060611ee58484600085611eee565b90509392505050565b606082471015611f33576040517f08c379a0000000000000000000000000000000000000000000000000000000008152600401611f2a90613057565b60405180910390fd5b611f3c85612002565b611f7b576040517f08c379a0000000000000000000000000000000000000000000000000000000008152600401611f72906130c3565b60405180910390fd5b6000808673ffffffffffffffffffffffffffffffffffffffff168587604051611fa4919061312a565b60006040518083038185875af1925050503d8060008114611fe1576040519150601f19603f3d011682016040523d82523d6000602084013e611fe6565b606091505b5091509150611ff6828286612015565b92505050949350505050565b600080823b905060008111915050919050565b6060831561202557829050612075565b6000835111156120385782518084602001fd5b816040517f08c379a000000000000000000000000000000000000000000000000000000000815260040161206c9190612e6c565b60405180910390fd5b9392505050565b6040518060800160405280600081526020016000815260200160008152602001600081525090565b6000604051905090565b600080fd5b600080fd5b60007fffffffff0000000000000000000000000000000000000000000000000000000082169050919050565b6120ed816120b8565b81146120f857600080fd5b50565b60008135905061210a816120e4565b92915050565b600060208284031215612126576121256120ae565b5b6000612134848285016120fb565b91505092915050565b60008115159050919050565b6121528161213d565b82525050565b600060208201905061216d6000830184612149565b92915050565b600073ffffffffffffffffffffffffffffffffffffffff82169050919050565b600061219e82612173565b9050919050565b6121ae81612193565b81146121b957600080fd5b50565b6000813590506121cb816121a5565b92915050565b600080604083850312156121e8576121e76120ae565b5b60006121f6858286016121bc565b9250506020612207858286016121bc565b9150509250929050565b6000819050919050565b61222481612211565b811461222f57600080fd5b50565b6000813590506122418161221b565b92915050565b60006020828403121561225d5761225c6120ae565b5b600061226b84828501612232565b91505092915050565b61227d81612211565b82525050565b60006020820190506122986000830184612274565b92915050565b600080604083850312156122b5576122b46120ae565b5b60006122c385828601612232565b92505060206122d4858286016121bc565b9150509250929050565b6000819050919050565b6122f1816122de565b81146122fc57600080fd5b50565b60008135905061230e816122e8565b92915050565b6000806040838503121561232b5761232a6120ae565b5b6000612339858286016121bc565b925050602061234a858286016122ff565b9150509250929050565b60008060006060848603121561236d5761236c6120ae565b5b600061237b868287016121bc565b935050602061238c868287016122ff565b925050604061239d868287016121bc565b9150509250925092565b6000602082840312156123bd576123bc6120ae565b5b60006123cb848285016121bc565b91505092915050565b6123dd816122de565b82525050565b6080820160008201516123f960008501826123d4565b50602082015161240c60208501826123d4565b50604082015161241f60408501826123d4565b50606082015161243260608501826123d4565b50505050565b600060808201905061244d60008301846123e3565b92915050565b61245c816122de565b82525050565b60006020820190506124776000830184612453565b92915050565b61248681612193565b82525050565b60006040820190506124a1600083018561247d565b6124ae602083018461247d565b9392505050565b600080fd5b6000601f19601f8301169050919050565b7f4e487b7100000000000000000000000000000000000000000000000000000000600052604160045260246000fd5b612503826124ba565b810181811067ffffffffffffffff82111715612522576125216124cb565b5b80604052505050565b60006125356120a4565b905061254182826124fa565b919050565b600080fd5b60008151905061255a816122e8565b92915050565b6125698161213d565b811461257457600080fd5b50565b60008151905061258681612560565b92915050565b600080fd5b600067ffffffffffffffff8211156125ac576125ab6124cb565b5b602082029050602081019050919050565b600080fd5b6000608082840312156125d8576125d76124b5565b5b6125e2608061252b565b905060006125f28482850161254b565b60008301525060206126068482850161254b565b602083015250604061261a8482850161254b565b604083015250606061262e84828501612577565b60608301525092915050565b600061264d61264884612591565b61252b565b905080838252602082019050608084028301858111156126705761266f6125bd565b5b835b81811015612699578061268588826125c2565b845260208401935050608081019050612672565b5050509392505050565b600082601f8301126126b8576126b761258c565b5b81516126c884826020860161263a565b91505092915050565b600060c082840312156126e7576126e66124b5565b5b6126f160c061252b565b905060006127018482850161254b565b60008301525060206127158482850161254b565b60208301525060406127298482850161254b565b604083015250606061273d84828501612577565b606083015250608061275184828501612577565b60808301525060a082015167ffffffffffffffff81111561277557612774612546565b5b612781848285016126a3565b60a08301525092915050565b6000602082840312156127a3576127a26120ae565b5b600082015167ffffffffffffffff8111156127c1576127c06120b3565b5b6127cd848285016126d1565b91505092915050565b7f4e487b7100000000000000000000000000000000000000000000000000000000600052601160045260246000fd5b6000612810826122de565b915061281b836122de565b9250817fffffffffffffffffffffffffffffffffffffffffffffffffffffffffffffffff0483118215151615612854576128536127d6565b5b828202905092915050565b7f4e487b7100000000000000000000000000000000000000000000000000000000600052601260045260246000fd5b6000612899826122de565b91506128a4836122de565b9250826128b4576128b361285f565b5b828204905092915050565b60006128ca826122de565b91506128d5836122de565b9250828210156128e8576128e76127d6565b5b828203905092915050565b6000606082019050612908600083018661247d565b612915602083018561247d565b6129226040830184612453565b949350505050565b600060408201905061293f600083018561247d565b61294c6020830184612453565b9392505050565b600082825260208201905092915050565b7f416363657373436f6e74726f6c3a2063616e206f6e6c792072656e6f756e636560008201527f20726f6c657320666f722073656c660000000000000000000000000000000000602082015250565b60006129c0602f83612953565b91506129cb82612964565b604082019050919050565b600060208201905081810360008301526129ef816129b3565b9050919050565b6000602082019050612a0b600083018461247d565b92915050565b600060208284031215612a2757612a266120ae565b5b6000612a3584828501612577565b91505092915050565b7f506f6f6c20646f6573206e6f7420657869737400000000000000000000000000600082015250565b6000612a74601383612953565b9150612a7f82612a3e565b602082019050919050565b60006020820190508181036000830152612aa381612a67565b9050919050565b6000608082019050612abf600083018761247d565b612acc602083018661247d565b612ad96040830185612453565b612ae66060830184612453565b95945050505050565b600060808284031215612b0557612b046120ae565b5b6000612b13848285016125c2565b91505092915050565b600060208284031215612b3257612b316120ae565b5b6000612b408482850161254b565b91505092915050565b600060808284031215612b5f57612b5e6124b5565b5b612b69608061252b565b90506000612b798482850161254b565b6000830152506020612b8d8482850161254b565b6020830152506040612ba18482850161254b565b6040830152506060612bb58482850161254b565b60608301525092915050565b600060808284031215612bd757612bd66120ae565b5b6000612be584828501612b49565b91505092915050565b6000612bf9826122de565b9150612c04836122de565b9250827fffffffffffffffffffffffffffffffffffffffffffffffffffffffffffffffff03821115612c3957612c386127d6565b5b828201905092915050565b6000606082019050612c59600083018661247d565b612c666020830185612453565b612c736040830184612453565b949350505050565b7f6e6f206d6174696320746f207769746864726177000000000000000000000000600082015250565b6000612cb1601483612953565b9150612cbc82612c7b565b602082019050919050565b60006020820190508181036000830152612ce081612ca4565b9050919050565b600081905092915050565b7f416363657373436f6e74726f6c3a206163636f756e7420000000000000000000600082015250565b6000612d28601783612ce7565b9150612d3382612cf2565b601782019050919050565b600081519050919050565b60005b83811015612d67578082015181840152602081019050612d4c565b83811115612d76576000848401525b50505050565b6000612d8782612d3e565b612d918185612ce7565b9350612da1818560208601612d49565b80840191505092915050565b7f206973206d697373696e6720726f6c6520000000000000000000000000000000600082015250565b6000612de3601183612ce7565b9150612dee82612dad565b601182019050919050565b6000612e0482612d1b565b9150612e108285612d7c565b9150612e1b82612dd6565b9150612e278284612d7c565b91508190509392505050565b6000612e3e82612d3e565b612e488185612953565b9350612e58818560208601612d49565b612e61816124ba565b840191505092915050565b60006020820190508181036000830152612e868184612e33565b905092915050565b7f4e487b7100000000000000000000000000000000000000000000000000000000600052603260045260246000fd5b6000612ec8826122de565b91506000821415612edc57612edb6127d6565b5b600182039050919050565b7f537472696e67733a20686578206c656e67746820696e73756666696369656e74600082015250565b6000612f1d602083612953565b9150612f2882612ee7565b602082019050919050565b60006020820190508181036000830152612f4c81612f10565b9050919050565b7f5361666545524332303a204552433230206f7065726174696f6e20646964206e60008201527f6f74207375636365656400000000000000000000000000000000000000000000602082015250565b6000612faf602a83612953565b9150612fba82612f53565b604082019050919050565b60006020820190508181036000830152612fde81612fa2565b9050919050565b7f416464726573733a20696e73756666696369656e742062616c616e636520666f60008201527f722063616c6c0000000000000000000000000000000000000000000000000000602082015250565b6000613041602683612953565b915061304c82612fe5565b604082019050919050565b6000602082019050818103600083015261307081613034565b9050919050565b7f416464726573733a2063616c6c20746f206e6f6e2d636f6e7472616374000000600082015250565b60006130ad601d83612953565b91506130b882613077565b602082019050919050565b600060208201905081810360008301526130dc816130a0565b9050919050565b600081519050919050565b600081905092915050565b6000613104826130e3565b61310e81856130ee565b935061311e818560208601612d49565b80840191505092915050565b600061313682846130f9565b91508190509291505056fea26469706673582212204959b7383dc350488bfd3743655968b558f0a38b7e678d8f87b7cc17aba1b57c64736f6c634300080b0033",
  "linkReferences": {},
  "deployedLinkReferences": {}
}