{
  "_format": "hh-sol-artifact-1",
  "contractName": "RewardsV2",
  "sourceName": "contracts/rewards/Rewards.sol",
  "abi": [
    {
      "inputs": [
        {
          "internalType": "address",
          "name": "_vault",
          "type": "address"
        }
      ],
      "stateMutability": "nonpayable",
      "type": "constructor"
    },
    {
      "anonymous": false,
      "inputs": [
        {
          "indexed": false,
          "internalType": "address",
          "name": "_token",
          "type": "address"
        },
        {
          "indexed": false,
          "internalType": "uint256",
          "name": "_rewardsPerBlock",
          "type": "uint256"
        }
      ],
      "name": "AddPool",
      "type": "event"
    },
    {
      "anonymous": false,
      "inputs": [
        {
          "indexed": true,
          "internalType": "address",
          "name": "_token",
          "type": "address"
        },
        {
          "indexed": true,
          "internalType": "address",
          "name": "_user",
          "type": "address"
        },
        {
          "indexed": false,
          "internalType": "uint256",
          "name": "_amount",
          "type": "uint256"
        }
      ],
      "name": "Claim",
      "type": "event"
    },
    {
      "anonymous": false,
      "inputs": [
        {
          "indexed": true,
          "internalType": "address",
          "name": "_token",
          "type": "address"
        },
        {
          "indexed": true,
          "internalType": "address",
          "name": "_user",
          "type": "address"
        },
        {
          "indexed": false,
          "internalType": "uint256",
          "name": "_amount",
          "type": "uint256"
        }
      ],
      "name": "Deposit",
      "type": "event"
    },
    {
      "anonymous": false,
      "inputs": [
        {
          "indexed": false,
          "internalType": "address",
          "name": "account",
          "type": "address"
        }
      ],
      "name": "Paused",
      "type": "event"
    },
    {
      "anonymous": false,
      "inputs": [
        {
          "indexed": true,
          "internalType": "address",
          "name": "_token",
          "type": "address"
        },
        {
          "indexed": false,
          "internalType": "uint256",
          "name": "_block",
          "type": "uint256"
        }
      ],
      "name": "PoolUpdated",
      "type": "event"
    },
    {
      "anonymous": false,
      "inputs": [
        {
          "indexed": true,
          "internalType": "bytes32",
          "name": "role",
          "type": "bytes32"
        },
        {
          "indexed": true,
          "internalType": "bytes32",
          "name": "previousAdminRole",
          "type": "bytes32"
        },
        {
          "indexed": true,
          "internalType": "bytes32",
          "name": "newAdminRole",
          "type": "bytes32"
        }
      ],
      "name": "RoleAdminChanged",
      "type": "event"
    },
    {
      "anonymous": false,
      "inputs": [
        {
          "indexed": true,
          "internalType": "bytes32",
          "name": "role",
          "type": "bytes32"
        },
        {
          "indexed": true,
          "internalType": "address",
          "name": "account",
          "type": "address"
        },
        {
          "indexed": true,
          "internalType": "address",
          "name": "sender",
          "type": "address"
        }
      ],
      "name": "RoleGranted",
      "type": "event"
    },
    {
      "anonymous": false,
      "inputs": [
        {
          "indexed": true,
          "internalType": "bytes32",
          "name": "role",
          "type": "bytes32"
        },
        {
          "indexed": true,
          "internalType": "address",
          "name": "account",
          "type": "address"
        },
        {
          "indexed": true,
          "internalType": "address",
          "name": "sender",
          "type": "address"
        }
      ],
      "name": "RoleRevoked",
      "type": "event"
    },
    {
      "anonymous": false,
      "inputs": [
        {
          "indexed": false,
          "internalType": "address",
          "name": "_controller",
          "type": "address"
        }
      ],
      "name": "SetController",
      "type": "event"
    },
    {
      "anonymous": false,
      "inputs": [
        {
          "indexed": false,
          "internalType": "address",
          "name": "account",
          "type": "address"
        }
      ],
      "name": "Unpaused",
      "type": "event"
    },
    {
      "anonymous": false,
      "inputs": [
        {
          "indexed": true,
          "internalType": "address",
          "name": "_token",
          "type": "address"
        },
        {
          "indexed": true,
          "internalType": "address",
          "name": "_user",
          "type": "address"
        },
        {
          "indexed": false,
          "internalType": "uint256",
          "name": "_amount",
          "type": "uint256"
        }
      ],
      "name": "Withdraw",
      "type": "event"
    },
    {
      "anonymous": false,
      "inputs": [
        {
          "indexed": false,
          "internalType": "address",
          "name": "destination",
          "type": "address"
        },
        {
          "indexed": false,
          "internalType": "uint256",
          "name": "amount",
          "type": "uint256"
        }
      ],
      "name": "WithdrawMATIC",
      "type": "event"
    },
    {
      "inputs": [],
      "name": "DEFAULT_ADMIN_ROLE",
      "outputs": [
        {
          "internalType": "bytes32",
          "name": "",
          "type": "bytes32"
        }
      ],
      "stateMutability": "view",
      "type": "function"
    },
    {
      "inputs": [
        {
          "internalType": "address",
          "name": "_token",
          "type": "address"
        },
        {
          "internalType": "uint256",
          "name": "_rewardsPerBlock",
          "type": "uint256"
        }
      ],
      "name": "addPool",
      "outputs": [],
      "stateMutability": "nonpayable",
      "type": "function"
    },
    {
      "inputs": [
        {
          "internalType": "address",
          "name": "_token",
          "type": "address"
        },
        {
          "internalType": "address",
          "name": "_user",
          "type": "address"
        }
      ],
      "name": "claim",
      "outputs": [],
      "stateMutability": "nonpayable",
      "type": "function"
    },
    {
      "inputs": [
        {
          "internalType": "address",
          "name": "_token",
          "type": "address"
        },
        {
          "internalType": "uint256",
          "name": "_amount",
          "type": "uint256"
        }
      ],
      "name": "deposit",
      "outputs": [],
      "stateMutability": "nonpayable",
      "type": "function"
    },
    {
      "inputs": [
        {
          "internalType": "bytes32",
          "name": "role",
          "type": "bytes32"
        }
      ],
      "name": "getRoleAdmin",
      "outputs": [
        {
          "internalType": "bytes32",
          "name": "",
          "type": "bytes32"
        }
      ],
      "stateMutability": "view",
      "type": "function"
    },
    {
      "inputs": [
        {
          "internalType": "bytes32",
          "name": "role",
          "type": "bytes32"
        },
        {
          "internalType": "address",
          "name": "account",
          "type": "address"
        }
      ],
      "name": "grantRole",
      "outputs": [],
      "stateMutability": "nonpayable",
      "type": "function"
    },
    {
      "inputs": [
        {
          "internalType": "bytes32",
          "name": "role",
          "type": "bytes32"
        },
        {
          "internalType": "address",
          "name": "account",
          "type": "address"
        }
      ],
      "name": "hasRole",
      "outputs": [
        {
          "internalType": "bool",
          "name": "",
          "type": "bool"
        }
      ],
      "stateMutability": "view",
      "type": "function"
    },
    {
      "inputs": [],
      "name": "paused",
      "outputs": [
        {
          "internalType": "bool",
          "name": "",
          "type": "bool"
        }
      ],
      "stateMutability": "view",
      "type": "function"
    },
    {
      "inputs": [
        {
          "internalType": "address",
          "name": "_token",
          "type": "address"
        },
        {
          "internalType": "address",
          "name": "_user",
          "type": "address"
        }
      ],
      "name": "pendingRewards",
      "outputs": [
        {
          "internalType": "uint256",
          "name": "pending",
          "type": "uint256"
        }
      ],
      "stateMutability": "nonpayable",
      "type": "function"
    },
    {
      "inputs": [
        {
          "internalType": "address",
          "name": "_token",
          "type": "address"
        },
        {
          "internalType": "address",
          "name": "_user",
          "type": "address"
        }
      ],
      "name": "pendingWithdrawals",
      "outputs": [
        {
          "internalType": "uint256",
          "name": "_unlockedAmount",
          "type": "uint256"
        }
      ],
      "stateMutability": "nonpayable",
      "type": "function"
    },
    {
      "inputs": [
        {
          "internalType": "bytes32",
          "name": "role",
          "type": "bytes32"
        },
        {
          "internalType": "address",
          "name": "account",
          "type": "address"
        }
      ],
      "name": "renounceRole",
      "outputs": [],
      "stateMutability": "nonpayable",
      "type": "function"
    },
    {
      "inputs": [
        {
          "internalType": "bytes32",
          "name": "role",
          "type": "bytes32"
        },
        {
          "internalType": "address",
          "name": "account",
          "type": "address"
        }
      ],
      "name": "revokeRole",
      "outputs": [],
      "stateMutability": "nonpayable",
      "type": "function"
    },
    {
      "inputs": [
        {
          "internalType": "address",
          "name": "_controller",
          "type": "address"
        }
      ],
      "name": "setController",
      "outputs": [],
      "stateMutability": "nonpayable",
      "type": "function"
    },
    {
      "inputs": [
        {
          "internalType": "bytes4",
          "name": "interfaceId",
          "type": "bytes4"
        }
      ],
      "name": "supportsInterface",
      "outputs": [
        {
          "internalType": "bool",
          "name": "",
          "type": "bool"
        }
      ],
      "stateMutability": "view",
      "type": "function"
    },
    {
      "inputs": [
        {
          "internalType": "address",
          "name": "_token",
          "type": "address"
        }
      ],
      "name": "updatePool",
      "outputs": [
        {
          "components": [
            {
              "internalType": "uint256",
              "name": "totalPooled",
              "type": "uint256"
            },
            {
              "internalType": "uint256",
              "name": "rewardsPerBlock",
              "type": "uint256"
            },
            {
              "internalType": "uint256",
              "name": "accCaplPerShare",
              "type": "uint256"
            },
            {
              "internalType": "uint256",
              "name": "lastRewardBlock",
              "type": "uint256"
            }
          ],
          "internalType": "struct IPool.Pool",
          "name": "pool",
          "type": "tuple"
        }
      ],
      "stateMutability": "nonpayable",
      "type": "function"
    },
    {
      "inputs": [
        {
          "internalType": "address",
          "name": "_token",
          "type": "address"
        },
        {
          "internalType": "address",
          "name": "_user",
          "type": "address"
        }
      ],
      "name": "withdraw",
      "outputs": [],
      "stateMutability": "nonpayable",
      "type": "function"
    },
    {
      "inputs": [
        {
          "internalType": "address",
          "name": "_destination",
          "type": "address"
        }
      ],
      "name": "withdrawMATIC",
      "outputs": [],
      "stateMutability": "nonpayable",
      "type": "function"
    },
    {
      "inputs": [
        {
          "internalType": "address",
          "name": "_token",
          "type": "address"
        },
        {
          "internalType": "uint256",
          "name": "_amount",
          "type": "uint256"
        },
        {
          "internalType": "address",
          "name": "_destination",
          "type": "address"
        }
      ],
      "name": "withdrawToken",
      "outputs": [],
      "stateMutability": "nonpayable",
      "type": "function"
    }
  ],
  "bytecode": "0x6080604052670de0b6b3a764000060035562093a806005553480156200002457600080fd5b5060405162002eeb38038062002eeb83398181016040528101906200004a9190620002a5565b60008060006101000a81548160ff02191690831515021790555080600260006101000a81548173ffffffffffffffffffffffffffffffffffffffff021916908373ffffffffffffffffffffffffffffffffffffffff160217905550620000ba6000801b33620000c160201b60201c565b50620002d7565b620000d38282620000d760201b60201c565b5050565b620000e98282620001c860201b60201c565b620001c457600180600084815260200190815260200160002060000160008373ffffffffffffffffffffffffffffffffffffffff1673ffffffffffffffffffffffffffffffffffffffff16815260200190815260200160002060006101000a81548160ff021916908315150217905550620001696200023360201b60201c565b73ffffffffffffffffffffffffffffffffffffffff168173ffffffffffffffffffffffffffffffffffffffff16837f2f8788117e7eff1d82e926ec794901d17c78024a50270940304540a733656f0d60405160405180910390a45b5050565b60006001600084815260200190815260200160002060000160008373ffffffffffffffffffffffffffffffffffffffff1673ffffffffffffffffffffffffffffffffffffffff16815260200190815260200160002060009054906101000a900460ff16905092915050565b600033905090565b600080fd5b600073ffffffffffffffffffffffffffffffffffffffff82169050919050565b60006200026d8262000240565b9050919050565b6200027f8162000260565b81146200028b57600080fd5b50565b6000815190506200029f8162000274565b92915050565b600060208284031215620002be57620002bd6200023b565b5b6000620002ce848285016200028e565b91505092915050565b612c0480620002e76000396000f3fe608060405234801561001057600080fd5b50600436106101165760003560e01c80635c975abb116100a257806392eefe9b1161007157806392eefe9b146102ed578063a217fddf14610309578063d547741f14610327578063e831be5814610343578063f940e3851461037357610116565b80635c975abb1461023f5780637b46c54f1461025d57806380ac82281461028d57806391d14854146102bd57610116565b806330e7e743116100e957806330e7e743146101b357806332a9caba146101cf57806336568abe146101eb5780633ccdbb281461020757806347e7ef241461022357610116565b806301ffc9a71461011b57806321c0b3421461014b578063248a9ca3146101675780632f2ff15d14610197575b600080fd5b61013560048036038101906101309190611d8a565b61038f565b6040516101429190611dd2565b60405180910390f35b61016560048036038101906101609190611e4b565b610409565b005b610181600480360381019061017c9190611ec1565b61068f565b60405161018e9190611efd565b60405180910390f35b6101b160048036038101906101ac9190611f18565b6106af565b005b6101cd60048036038101906101c89190611f58565b6106d8565b005b6101e960048036038101906101e49190611fbb565b6107ba565b005b61020560048036038101906102009190611f18565b610863565b005b610221600480360381019061021c9190611ffb565b6108e6565b005b61023d60048036038101906102389190611fbb565b610901565b005b610247610ec7565b6040516102549190611dd2565b60405180910390f35b61027760048036038101906102729190611f58565b610edd565b60405161028491906120b2565b60405180910390f35b6102a760048036038101906102a29190611e4b565b6111a4565b6040516102b491906120dc565b60405180910390f35b6102d760048036038101906102d29190611f18565b61143d565b6040516102e49190611dd2565b60405180910390f35b61030760048036038101906103029190611f58565b6114a8565b005b610311611502565b60405161031e9190611efd565b60405180910390f35b610341600480360381019061033c9190611f18565b611509565b005b61035d60048036038101906103589190611e4b565b611532565b60405161036a91906120dc565b60405180910390f35b61038d60048036038101906103889190611e4b565b6115dc565b005b60007f7965db0b000000000000000000000000000000000000000000000000000000007bffffffffffffffffffffffffffffffffffffffffffffffffffffffff1916827bffffffffffffffffffffffffffffffffffffffffffffffffffffffff191614806104025750610401826117d0565b5b9050919050565b600061041483610edd565b90506000600260009054906101000a900473ffffffffffffffffffffffffffffffffffffffff1673ffffffffffffffffffffffffffffffffffffffff166392a576e685856040518363ffffffff1660e01b8152600401610475929190612106565b6000604051808303816000875af1158015610494573d6000803e3d6000fd5b505050506040513d6000823e3d601f19601f820116820180604052508101906104bd9190612390565b90506000600354836040015183602001516104d89190612408565b6104e29190612491565b905060008260400151826104f691906124c2565b9050600260009054906101000a900473ffffffffffffffffffffffffffffffffffffffff1673ffffffffffffffffffffffffffffffffffffffff16638a5bff6b8787856040518463ffffffff1660e01b8152600401610557939291906124f6565b600060405180830381600087803b15801561057157600080fd5b505af1158015610585573d6000803e3d6000fd5b50505050600081111561062257600460009054906101000a900473ffffffffffffffffffffffffffffffffffffffff1673ffffffffffffffffffffffffffffffffffffffff166340c10f1986836040518363ffffffff1660e01b81526004016105ef92919061252d565b600060405180830381600087803b15801561060957600080fd5b505af115801561061d573d6000803e3d6000fd5b505050505b8473ffffffffffffffffffffffffffffffffffffffff168673ffffffffffffffffffffffffffffffffffffffff167f70eb43c4a8ae8c40502dcf22436c509c28d6ff421cf07c491be56984bd9870688360405161067f91906120dc565b60405180910390a3505050505050565b600060016000838152602001908152602001600020600101549050919050565b6106b88261068f565b6106c9816106c461183a565b611842565b6106d383836118df565b505050565b6000801b6106ed816106e861183a565b611842565b60004711610730576040517f08c379a0000000000000000000000000000000000000000000000000000000008152600401610727906125b3565b60405180910390fd5b60004790503373ffffffffffffffffffffffffffffffffffffffff166108fc829081150290604051600060405180830381858888f1935050505015801561077b573d6000803e3d6000fd5b507f43b2a2d6daf661162c8c435ac5820ea5b1e0046355c5faac17d06ecb4f60f15333826040516107ad92919061252d565b60405180910390a1505050565b6000801b6107cf816107ca61183a565b611842565b600260009054906101000a900473ffffffffffffffffffffffffffffffffffffffff1673ffffffffffffffffffffffffffffffffffffffff166332a9caba84846040518363ffffffff1660e01b815260040161082c92919061252d565b600060405180830381600087803b15801561084657600080fd5b505af115801561085a573d6000803e3d6000fd5b50505050505050565b61086b61183a565b73ffffffffffffffffffffffffffffffffffffffff168173ffffffffffffffffffffffffffffffffffffffff16146108d8576040517f08c379a00000000000000000000000000000000000000000000000000000000081526004016108cf90612645565b60405180910390fd5b6108e282826119bf565b5050565b6000801b6108fb816108f661183a565b611842565b50505050565b600260009054906101000a900473ffffffffffffffffffffffffffffffffffffffff1673ffffffffffffffffffffffffffffffffffffffff1663999126d7836040518263ffffffff1660e01b815260040161095c9190612665565b602060405180830381865afa158015610979573d6000803e3d6000fd5b505050506040513d601f19601f8201168201806040525081019061099d9190612680565b6109dc576040517f08c379a00000000000000000000000000000000000000000000000000000000081526004016109d3906126f9565b60405180910390fd5b60006109e783610edd565b905060006003548260400151846109fe9190612408565b610a089190612491565b9050600260009054906101000a900473ffffffffffffffffffffffffffffffffffffffff1673ffffffffffffffffffffffffffffffffffffffff166356e45e4b856040518263ffffffff1660e01b8152600401610a659190612665565b602060405180830381865afa158015610a82573d6000803e3d6000fd5b505050506040513d601f19601f82011682018060405250810190610aa69190612680565b610b4257600260009054906101000a900473ffffffffffffffffffffffffffffffffffffffff1673ffffffffffffffffffffffffffffffffffffffff1663f5b5d237853386856040518563ffffffff1660e01b8152600401610b0b9493929190612719565b600060405180830381600087803b158015610b2557600080fd5b505af1158015610b39573d6000803e3d6000fd5b50505050610ec1565b600260009054906101000a900473ffffffffffffffffffffffffffffffffffffffff1673ffffffffffffffffffffffffffffffffffffffff1663d2456a95853386856040518563ffffffff1660e01b8152600401610ba39493929190612719565b600060405180830381600087803b158015610bbd57600080fd5b505af1158015610bd1573d6000803e3d6000fd5b505050506000600260009054906101000a900473ffffffffffffffffffffffffffffffffffffffff1673ffffffffffffffffffffffffffffffffffffffff16639338b7c986336040518363ffffffff1660e01b8152600401610c34929190612106565b6080604051808303816000875af1158015610c53573d6000803e3d6000fd5b505050506040513d601f19601f82011682018060405250810190610c7791906127d6565b9050610c868160200151611aa1565b15610d2157600260009054906101000a900473ffffffffffffffffffffffffffffffffffffffff1673ffffffffffffffffffffffffffffffffffffffff1663dfc2d1ba8633876040518463ffffffff1660e01b8152600401610cea939291906124f6565b600060405180830381600087803b158015610d0457600080fd5b505af1158015610d18573d6000803e3d6000fd5b50505050610e5a565b6000600260009054906101000a900473ffffffffffffffffffffffffffffffffffffffff1673ffffffffffffffffffffffffffffffffffffffff166312229f1387336040518363ffffffff1660e01b8152600401610d80929190612106565b6020604051808303816000875af1158015610d9f573d6000803e3d6000fd5b505050506040513d601f19601f82011682018060405250810190610dc39190612803565b9050600260009054906101000a900473ffffffffffffffffffffffffffffffffffffffff1673ffffffffffffffffffffffffffffffffffffffff16631b2aa575873388856040518563ffffffff1660e01b8152600401610e269493929190612719565b600060405180830381600087803b158015610e4057600080fd5b505af1158015610e54573d6000803e3d6000fd5b50505050505b3373ffffffffffffffffffffffffffffffffffffffff168573ffffffffffffffffffffffffffffffffffffffff167f5548c837ab068cf56a2c2479df0882a4922fd203edb7517321831d95078c5f6286604051610eb791906120dc565b60405180910390a3505b50505050565b60008060009054906101000a900460ff16905090565b610ee5611cf6565b6000600260009054906101000a900473ffffffffffffffffffffffffffffffffffffffff1673ffffffffffffffffffffffffffffffffffffffff1663bbe4f6db846040518263ffffffff1660e01b8152600401610f429190612665565b6080604051808303816000875af1158015610f61573d6000803e3d6000fd5b505050506040513d601f19601f82011682018060405250810190610f8591906128a8565b90506000600260009054906101000a900473ffffffffffffffffffffffffffffffffffffffff1673ffffffffffffffffffffffffffffffffffffffff1663f2866c78856040518263ffffffff1660e01b8152600401610fe49190612665565b6020604051808303816000875af1158015611003573d6000803e3d6000fd5b505050506040513d601f19601f820116820180604052508101906110279190612803565b90506000826060015143111561119b57600082111561109557600083606001514361105291906124c2565b905060008460200151826110669190612408565b905083600354826110779190612408565b6110819190612491565b856040015161109091906128d5565b925050505b60004390506000600260009054906101000a900473ffffffffffffffffffffffffffffffffffffffff1673ffffffffffffffffffffffffffffffffffffffff1663695c0bb88885856040518463ffffffff1660e01b81526004016110fb9392919061292b565b6080604051808303816000875af115801561111a573d6000803e3d6000fd5b505050506040513d601f19601f8201168201806040525081019061113e91906128a8565b90508673ffffffffffffffffffffffffffffffffffffffff167f2f4ae87a584f00dc35b043dd1c5ac839c1f41cd3a66e834d4e13faa6251634e68360405161118691906120dc565b60405180910390a2809550505050505061119f565b5050505b919050565b600080600260009054906101000a900473ffffffffffffffffffffffffffffffffffffffff1673ffffffffffffffffffffffffffffffffffffffff1663bbe4f6db856040518263ffffffff1660e01b81526004016112029190612665565b6080604051808303816000875af1158015611221573d6000803e3d6000fd5b505050506040513d601f19601f8201168201806040525081019061124591906128a8565b90506000600260009054906101000a900473ffffffffffffffffffffffffffffffffffffffff1673ffffffffffffffffffffffffffffffffffffffff166392a576e686866040518363ffffffff1660e01b81526004016112a6929190612106565b6000604051808303816000875af11580156112c5573d6000803e3d6000fd5b505050506040513d6000823e3d601f19601f820116820180604052508101906112ee9190612390565b90506000826040015190506000600260009054906101000a900473ffffffffffffffffffffffffffffffffffffffff1673ffffffffffffffffffffffffffffffffffffffff1663f2866c78886040518263ffffffff1660e01b81526004016113569190612665565b6020604051808303816000875af1158015611375573d6000803e3d6000fd5b505050506040513d601f19601f820116820180604052508101906113999190612803565b90508360600151431180156113af575060008114155b156114055760008460600151436113c691906124c2565b905060008560200151826113da9190612408565b905082600354826113eb9190612408565b6113f59190612491565b8461140091906128d5565b935050505b826040015160035483856020015161141d9190612408565b6114279190612491565b61143191906124c2565b94505050505092915050565b60006001600084815260200190815260200160002060000160008373ffffffffffffffffffffffffffffffffffffffff1673ffffffffffffffffffffffffffffffffffffffff16815260200190815260200160002060009054906101000a900460ff16905092915050565b6000801b6114bd816114b861183a565b611842565b81600460006101000a81548173ffffffffffffffffffffffffffffffffffffffff021916908373ffffffffffffffffffffffffffffffffffffffff1602179055505050565b6000801b81565b6115128261068f565b6115238161151e61183a565b611842565b61152d83836119bf565b505050565b6000600260009054906101000a900473ffffffffffffffffffffffffffffffffffffffff1673ffffffffffffffffffffffffffffffffffffffff16630122a7e884846040518363ffffffff1660e01b8152600401611591929190612106565b6020604051808303816000875af11580156115b0573d6000803e3d6000fd5b505050506040513d601f19601f820116820180604052508101906115d49190612803565b905092915050565b60006115e783610edd565b90506000600260009054906101000a900473ffffffffffffffffffffffffffffffffffffffff1673ffffffffffffffffffffffffffffffffffffffff166392a576e685856040518363ffffffff1660e01b8152600401611648929190612106565b6000604051808303816000875af1158015611667573d6000803e3d6000fd5b505050506040513d6000823e3d601f19601f820116820180604052508101906116909190612390565b9050600061169e8585611532565b905060006003548460400151836116b59190612408565b6116bf9190612491565b83604001516116ce91906124c2565b9050600260009054906101000a900473ffffffffffffffffffffffffffffffffffffffff1673ffffffffffffffffffffffffffffffffffffffff16637bfe950c878785856040518563ffffffff1660e01b81526004016117319493929190612719565b600060405180830381600087803b15801561174b57600080fd5b505af115801561175f573d6000803e3d6000fd5b505050508473ffffffffffffffffffffffffffffffffffffffff168673ffffffffffffffffffffffffffffffffffffffff167f9b1bfa7fa9ee420a16e124f794c35ac9f90472acc99140eb2f6447c714cad8eb846040516117c091906120dc565b60405180910390a3505050505050565b60007f01ffc9a7000000000000000000000000000000000000000000000000000000007bffffffffffffffffffffffffffffffffffffffffffffffffffffffff1916827bffffffffffffffffffffffffffffffffffffffffffffffffffffffff1916149050919050565b600033905090565b61184c828261143d565b6118db576118718173ffffffffffffffffffffffffffffffffffffffff166014611aba565b61187f8360001c6020611aba565b604051602001611890929190612a74565b6040516020818303038152906040526040517f08c379a00000000000000000000000000000000000000000000000000000000081526004016118d29190612ae7565b60405180910390fd5b5050565b6118e9828261143d565b6119bb57600180600084815260200190815260200160002060000160008373ffffffffffffffffffffffffffffffffffffffff1673ffffffffffffffffffffffffffffffffffffffff16815260200190815260200160002060006101000a81548160ff02191690831515021790555061196061183a565b73ffffffffffffffffffffffffffffffffffffffff168173ffffffffffffffffffffffffffffffffffffffff16837f2f8788117e7eff1d82e926ec794901d17c78024a50270940304540a733656f0d60405160405180910390a45b5050565b6119c9828261143d565b15611a9d5760006001600084815260200190815260200160002060000160008373ffffffffffffffffffffffffffffffffffffffff1673ffffffffffffffffffffffffffffffffffffffff16815260200190815260200160002060006101000a81548160ff021916908315150217905550611a4261183a565b73ffffffffffffffffffffffffffffffffffffffff168173ffffffffffffffffffffffffffffffffffffffff16837ff6391f5c32d9c69d2a47ea670b442974b53935d1edc7fd64eb21e047a839171b60405160405180910390a45b5050565b60004360055483611ab291906128d5565b109050919050565b606060006002836002611acd9190612408565b611ad791906128d5565b67ffffffffffffffff811115611af057611aef612145565b5b6040519080825280601f01601f191660200182016040528015611b225781602001600182028036833780820191505090505b5090507f300000000000000000000000000000000000000000000000000000000000000081600081518110611b5a57611b59612b09565b5b60200101907effffffffffffffffffffffffffffffffffffffffffffffffffffffffffffff1916908160001a9053507f780000000000000000000000000000000000000000000000000000000000000081600181518110611bbe57611bbd612b09565b5b60200101907effffffffffffffffffffffffffffffffffffffffffffffffffffffffffffff1916908160001a90535060006001846002611bfe9190612408565b611c0891906128d5565b90505b6001811115611ca8577f3031323334353637383961626364656600000000000000000000000000000000600f861660108110611c4a57611c49612b09565b5b1a60f81b828281518110611c6157611c60612b09565b5b60200101907effffffffffffffffffffffffffffffffffffffffffffffffffffffffffffff1916908160001a905350600485901c945080611ca190612b38565b9050611c0b565b5060008414611cec576040517f08c379a0000000000000000000000000000000000000000000000000000000008152600401611ce390612bae565b60405180910390fd5b8091505092915050565b6040518060800160405280600081526020016000815260200160008152602001600081525090565b6000604051905090565b600080fd5b600080fd5b60007fffffffff0000000000000000000000000000000000000000000000000000000082169050919050565b611d6781611d32565b8114611d7257600080fd5b50565b600081359050611d8481611d5e565b92915050565b600060208284031215611da057611d9f611d28565b5b6000611dae84828501611d75565b91505092915050565b60008115159050919050565b611dcc81611db7565b82525050565b6000602082019050611de76000830184611dc3565b92915050565b600073ffffffffffffffffffffffffffffffffffffffff82169050919050565b6000611e1882611ded565b9050919050565b611e2881611e0d565b8114611e3357600080fd5b50565b600081359050611e4581611e1f565b92915050565b60008060408385031215611e6257611e61611d28565b5b6000611e7085828601611e36565b9250506020611e8185828601611e36565b9150509250929050565b6000819050919050565b611e9e81611e8b565b8114611ea957600080fd5b50565b600081359050611ebb81611e95565b92915050565b600060208284031215611ed757611ed6611d28565b5b6000611ee584828501611eac565b91505092915050565b611ef781611e8b565b82525050565b6000602082019050611f126000830184611eee565b92915050565b60008060408385031215611f2f57611f2e611d28565b5b6000611f3d85828601611eac565b9250506020611f4e85828601611e36565b9150509250929050565b600060208284031215611f6e57611f6d611d28565b5b6000611f7c84828501611e36565b91505092915050565b6000819050919050565b611f9881611f85565b8114611fa357600080fd5b50565b600081359050611fb581611f8f565b92915050565b60008060408385031215611fd257611fd1611d28565b5b6000611fe085828601611e36565b9250506020611ff185828601611fa6565b9150509250929050565b60008060006060848603121561201457612013611d28565b5b600061202286828701611e36565b935050602061203386828701611fa6565b925050604061204486828701611e36565b9150509250925092565b61205781611f85565b82525050565b608082016000820151612073600085018261204e565b506020820151612086602085018261204e565b506040820151612099604085018261204e565b5060608201516120ac606085018261204e565b50505050565b60006080820190506120c7600083018461205d565b92915050565b6120d681611f85565b82525050565b60006020820190506120f160008301846120cd565b92915050565b61210081611e0d565b82525050565b600060408201905061211b60008301856120f7565b61212860208301846120f7565b9392505050565b600080fd5b6000601f19601f8301169050919050565b7f4e487b7100000000000000000000000000000000000000000000000000000000600052604160045260246000fd5b61217d82612134565b810181811067ffffffffffffffff8211171561219c5761219b612145565b5b80604052505050565b60006121af611d1e565b90506121bb8282612174565b919050565b600080fd5b6000815190506121d481611e1f565b92915050565b6000815190506121e981611f8f565b92915050565b600080fd5b600067ffffffffffffffff82111561220f5761220e612145565b5b602082029050602081019050919050565b600080fd5b6000612238612233846121f4565b6121a5565b9050808382526020820190506020840283018581111561225b5761225a612220565b5b835b81811015612284578061227088826121da565b84526020840193505060208101905061225d565b5050509392505050565b600082601f8301126122a3576122a26121ef565b5b81516122b3848260208601612225565b91505092915050565b6122c581611db7565b81146122d057600080fd5b50565b6000815190506122e2816122bc565b92915050565b600060a082840312156122fe576122fd61212f565b5b61230860a06121a5565b90506000612318848285016121c5565b600083015250602061232c848285016121da565b6020830152506040612340848285016121da565b604083015250606082015167ffffffffffffffff811115612364576123636121c0565b5b6123708482850161228e565b6060830152506080612384848285016122d3565b60808301525092915050565b6000602082840312156123a6576123a5611d28565b5b600082015167ffffffffffffffff8111156123c4576123c3611d2d565b5b6123d0848285016122e8565b91505092915050565b7f4e487b7100000000000000000000000000000000000000000000000000000000600052601160045260246000fd5b600061241382611f85565b915061241e83611f85565b9250817fffffffffffffffffffffffffffffffffffffffffffffffffffffffffffffffff0483118215151615612457576124566123d9565b5b828202905092915050565b7f4e487b7100000000000000000000000000000000000000000000000000000000600052601260045260246000fd5b600061249c82611f85565b91506124a783611f85565b9250826124b7576124b6612462565b5b828204905092915050565b60006124cd82611f85565b91506124d883611f85565b9250828210156124eb576124ea6123d9565b5b828203905092915050565b600060608201905061250b60008301866120f7565b61251860208301856120f7565b61252560408301846120cd565b949350505050565b600060408201905061254260008301856120f7565b61254f60208301846120cd565b9392505050565b600082825260208201905092915050565b7f6e6f206d6174696320746f207769746864726177000000000000000000000000600082015250565b600061259d601483612556565b91506125a882612567565b602082019050919050565b600060208201905081810360008301526125cc81612590565b9050919050565b7f416363657373436f6e74726f6c3a2063616e206f6e6c792072656e6f756e636560008201527f20726f6c657320666f722073656c660000000000000000000000000000000000602082015250565b600061262f602f83612556565b915061263a826125d3565b604082019050919050565b6000602082019050818103600083015261265e81612622565b9050919050565b600060208201905061267a60008301846120f7565b92915050565b60006020828403121561269657612695611d28565b5b60006126a4848285016122d3565b91505092915050565b7f506f6f6c20646f6573206e6f7420657869737400000000000000000000000000600082015250565b60006126e3601383612556565b91506126ee826126ad565b602082019050919050565b60006020820190508181036000830152612712816126d6565b9050919050565b600060808201905061272e60008301876120f7565b61273b60208301866120f7565b61274860408301856120cd565b61275560608301846120cd565b95945050505050565b6000608082840312156127745761277361212f565b5b61277e60806121a5565b9050600061278e848285016121da565b60008301525060206127a2848285016121da565b60208301525060406127b6848285016121da565b60408301525060606127ca848285016122d3565b60608301525092915050565b6000608082840312156127ec576127eb611d28565b5b60006127fa8482850161275e565b91505092915050565b60006020828403121561281957612818611d28565b5b6000612827848285016121da565b91505092915050565b6000608082840312156128465761284561212f565b5b61285060806121a5565b90506000612860848285016121da565b6000830152506020612874848285016121da565b6020830152506040612888848285016121da565b604083015250606061289c848285016121da565b60608301525092915050565b6000608082840312156128be576128bd611d28565b5b60006128cc84828501612830565b91505092915050565b60006128e082611f85565b91506128eb83611f85565b9250827fffffffffffffffffffffffffffffffffffffffffffffffffffffffffffffffff038211156129205761291f6123d9565b5b828201905092915050565b600060608201905061294060008301866120f7565b61294d60208301856120cd565b61295a60408301846120cd565b949350505050565b600081905092915050565b7f416363657373436f6e74726f6c3a206163636f756e7420000000000000000000600082015250565b60006129a3601783612962565b91506129ae8261296d565b601782019050919050565b600081519050919050565b60005b838110156129e25780820151818401526020810190506129c7565b838111156129f1576000848401525b50505050565b6000612a02826129b9565b612a0c8185612962565b9350612a1c8185602086016129c4565b80840191505092915050565b7f206973206d697373696e6720726f6c6520000000000000000000000000000000600082015250565b6000612a5e601183612962565b9150612a6982612a28565b601182019050919050565b6000612a7f82612996565b9150612a8b82856129f7565b9150612a9682612a51565b9150612aa282846129f7565b91508190509392505050565b6000612ab9826129b9565b612ac38185612556565b9350612ad38185602086016129c4565b612adc81612134565b840191505092915050565b60006020820190508181036000830152612b018184612aae565b905092915050565b7f4e487b7100000000000000000000000000000000000000000000000000000000600052603260045260246000fd5b6000612b4382611f85565b91506000821415612b5757612b566123d9565b5b600182039050919050565b7f537472696e67733a20686578206c656e67746820696e73756666696369656e74600082015250565b6000612b98602083612556565b9150612ba382612b62565b602082019050919050565b60006020820190508181036000830152612bc781612b8b565b905091905056fea2646970667358221220a1ed132b0e434e6eb2d66a9b0ddefeecbe312234c1c7d37da766894c9d78574f64736f6c634300080b0033",
  "linkReferences": {},
  "deployedLinkReferences": {}
}