{
  "_format": "hh-sol-artifact-1",
  "contractName": "RewardsV2",
  "sourceName": "contracts/rewards/Rewards.sol",
  "abi": [
    {
      "inputs": [
        {
          "internalType": "address",
          "name": "_vault",
          "type": "address"
        }
      ],
      "stateMutability": "nonpayable",
      "type": "constructor"
    },
    {
      "anonymous": false,
      "inputs": [
        {
          "indexed": false,
          "internalType": "address",
          "name": "account",
          "type": "address"
        }
      ],
      "name": "Paused",
      "type": "event"
    },
    {
      "anonymous": false,
      "inputs": [
        {
          "indexed": true,
          "internalType": "bytes32",
          "name": "role",
          "type": "bytes32"
        },
        {
          "indexed": true,
          "internalType": "bytes32",
          "name": "previousAdminRole",
          "type": "bytes32"
        },
        {
          "indexed": true,
          "internalType": "bytes32",
          "name": "newAdminRole",
          "type": "bytes32"
        }
      ],
      "name": "RoleAdminChanged",
      "type": "event"
    },
    {
      "anonymous": false,
      "inputs": [
        {
          "indexed": true,
          "internalType": "bytes32",
          "name": "role",
          "type": "bytes32"
        },
        {
          "indexed": true,
          "internalType": "address",
          "name": "account",
          "type": "address"
        },
        {
          "indexed": true,
          "internalType": "address",
          "name": "sender",
          "type": "address"
        }
      ],
      "name": "RoleGranted",
      "type": "event"
    },
    {
      "anonymous": false,
      "inputs": [
        {
          "indexed": true,
          "internalType": "bytes32",
          "name": "role",
          "type": "bytes32"
        },
        {
          "indexed": true,
          "internalType": "address",
          "name": "account",
          "type": "address"
        },
        {
          "indexed": true,
          "internalType": "address",
          "name": "sender",
          "type": "address"
        }
      ],
      "name": "RoleRevoked",
      "type": "event"
    },
    {
      "anonymous": false,
      "inputs": [
        {
          "indexed": false,
          "internalType": "address",
          "name": "account",
          "type": "address"
        }
      ],
      "name": "Unpaused",
      "type": "event"
    },
    {
      "inputs": [],
      "name": "DEFAULT_ADMIN_ROLE",
      "outputs": [
        {
          "internalType": "bytes32",
          "name": "",
          "type": "bytes32"
        }
      ],
      "stateMutability": "view",
      "type": "function"
    },
    {
      "inputs": [
        {
          "internalType": "address",
          "name": "_token",
          "type": "address"
        },
        {
          "internalType": "uint256",
          "name": "_rewardsPerBlock",
          "type": "uint256"
        }
      ],
      "name": "addPool",
      "outputs": [],
      "stateMutability": "nonpayable",
      "type": "function"
    },
    {
      "inputs": [
        {
          "internalType": "address",
          "name": "_token",
          "type": "address"
        },
        {
          "internalType": "address",
          "name": "_user",
          "type": "address"
        }
      ],
      "name": "claim",
      "outputs": [],
      "stateMutability": "nonpayable",
      "type": "function"
    },
    {
      "inputs": [
        {
          "internalType": "address",
          "name": "_token",
          "type": "address"
        },
        {
          "internalType": "uint256",
          "name": "_amount",
          "type": "uint256"
        }
      ],
      "name": "deposit",
      "outputs": [],
      "stateMutability": "nonpayable",
      "type": "function"
    },
    {
      "inputs": [
        {
          "internalType": "bytes32",
          "name": "role",
          "type": "bytes32"
        }
      ],
      "name": "getRoleAdmin",
      "outputs": [
        {
          "internalType": "bytes32",
          "name": "",
          "type": "bytes32"
        }
      ],
      "stateMutability": "view",
      "type": "function"
    },
    {
      "inputs": [
        {
          "internalType": "bytes32",
          "name": "role",
          "type": "bytes32"
        },
        {
          "internalType": "address",
          "name": "account",
          "type": "address"
        }
      ],
      "name": "grantRole",
      "outputs": [],
      "stateMutability": "nonpayable",
      "type": "function"
    },
    {
      "inputs": [
        {
          "internalType": "bytes32",
          "name": "role",
          "type": "bytes32"
        },
        {
          "internalType": "address",
          "name": "account",
          "type": "address"
        }
      ],
      "name": "hasRole",
      "outputs": [
        {
          "internalType": "bool",
          "name": "",
          "type": "bool"
        }
      ],
      "stateMutability": "view",
      "type": "function"
    },
    {
      "inputs": [],
      "name": "paused",
      "outputs": [
        {
          "internalType": "bool",
          "name": "",
          "type": "bool"
        }
      ],
      "stateMutability": "view",
      "type": "function"
    },
    {
      "inputs": [
        {
          "internalType": "address",
          "name": "_token",
          "type": "address"
        },
        {
          "internalType": "address",
          "name": "_user",
          "type": "address"
        }
      ],
      "name": "pendingRewards",
      "outputs": [
        {
          "internalType": "uint256",
          "name": "pending",
          "type": "uint256"
        }
      ],
      "stateMutability": "nonpayable",
      "type": "function"
    },
    {
      "inputs": [
        {
          "internalType": "address",
          "name": "_token",
          "type": "address"
        },
        {
          "internalType": "address",
          "name": "_user",
          "type": "address"
        }
      ],
      "name": "pendingWithdrawals",
      "outputs": [
        {
          "internalType": "uint256",
          "name": "_unlockedAmount",
          "type": "uint256"
        }
      ],
      "stateMutability": "nonpayable",
      "type": "function"
    },
    {
      "inputs": [
        {
          "internalType": "bytes32",
          "name": "role",
          "type": "bytes32"
        },
        {
          "internalType": "address",
          "name": "account",
          "type": "address"
        }
      ],
      "name": "renounceRole",
      "outputs": [],
      "stateMutability": "nonpayable",
      "type": "function"
    },
    {
      "inputs": [
        {
          "internalType": "bytes32",
          "name": "role",
          "type": "bytes32"
        },
        {
          "internalType": "address",
          "name": "account",
          "type": "address"
        }
      ],
      "name": "revokeRole",
      "outputs": [],
      "stateMutability": "nonpayable",
      "type": "function"
    },
    {
      "inputs": [
        {
          "internalType": "address",
          "name": "_controller",
          "type": "address"
        }
      ],
      "name": "setController",
      "outputs": [],
      "stateMutability": "nonpayable",
      "type": "function"
    },
    {
      "inputs": [
        {
          "internalType": "bytes4",
          "name": "interfaceId",
          "type": "bytes4"
        }
      ],
      "name": "supportsInterface",
      "outputs": [
        {
          "internalType": "bool",
          "name": "",
          "type": "bool"
        }
      ],
      "stateMutability": "view",
      "type": "function"
    },
    {
      "inputs": [
        {
          "internalType": "address",
          "name": "_token",
          "type": "address"
        }
      ],
      "name": "unclaimedRewards",
      "outputs": [],
      "stateMutability": "nonpayable",
      "type": "function"
    },
    {
      "inputs": [
        {
          "internalType": "address",
          "name": "_token",
          "type": "address"
        }
      ],
      "name": "updatePool",
      "outputs": [
        {
          "components": [
            {
              "internalType": "uint256",
              "name": "totalPooled",
              "type": "uint256"
            },
            {
              "internalType": "uint256",
              "name": "rewardsPerBlock",
              "type": "uint256"
            },
            {
              "internalType": "uint256",
              "name": "accCaplPerShare",
              "type": "uint256"
            },
            {
              "internalType": "uint256",
              "name": "lastRewardBlock",
              "type": "uint256"
            }
          ],
          "internalType": "struct IPool.Pool",
          "name": "pool",
          "type": "tuple"
        }
      ],
      "stateMutability": "nonpayable",
      "type": "function"
    },
    {
      "inputs": [
        {
          "internalType": "address",
          "name": "_token",
          "type": "address"
        },
        {
          "internalType": "address",
          "name": "_user",
          "type": "address"
        }
      ],
      "name": "withdraw",
      "outputs": [],
      "stateMutability": "nonpayable",
      "type": "function"
    },
    {
      "inputs": [
        {
          "internalType": "address",
          "name": "_destination",
          "type": "address"
        }
      ],
      "name": "withdrawMATIC",
      "outputs": [],
      "stateMutability": "nonpayable",
      "type": "function"
    },
    {
      "inputs": [
        {
          "internalType": "address",
          "name": "_token",
          "type": "address"
        },
        {
          "internalType": "uint256",
          "name": "_amount",
          "type": "uint256"
        },
        {
          "internalType": "address",
          "name": "_destination",
          "type": "address"
        }
      ],
      "name": "withdrawToken",
      "outputs": [],
      "stateMutability": "nonpayable",
      "type": "function"
    }
  ],
  "bytecode": "0x6080604052670de0b6b3a76400006003553480156200001d57600080fd5b5060405162002c2d38038062002c2d83398181016040528101906200004391906200029e565b60008060006101000a81548160ff02191690831515021790555080600260006101000a81548173ffffffffffffffffffffffffffffffffffffffff021916908373ffffffffffffffffffffffffffffffffffffffff160217905550620000b36000801b33620000ba60201b60201c565b50620002d0565b620000cc8282620000d060201b60201c565b5050565b620000e28282620001c160201b60201c565b620001bd57600180600084815260200190815260200160002060000160008373ffffffffffffffffffffffffffffffffffffffff1673ffffffffffffffffffffffffffffffffffffffff16815260200190815260200160002060006101000a81548160ff021916908315150217905550620001626200022c60201b60201c565b73ffffffffffffffffffffffffffffffffffffffff168173ffffffffffffffffffffffffffffffffffffffff16837f2f8788117e7eff1d82e926ec794901d17c78024a50270940304540a733656f0d60405160405180910390a45b5050565b60006001600084815260200190815260200160002060000160008373ffffffffffffffffffffffffffffffffffffffff1673ffffffffffffffffffffffffffffffffffffffff16815260200190815260200160002060009054906101000a900460ff16905092915050565b600033905090565b600080fd5b600073ffffffffffffffffffffffffffffffffffffffff82169050919050565b6000620002668262000239565b9050919050565b620002788162000259565b81146200028457600080fd5b50565b60008151905062000298816200026d565b92915050565b600060208284031215620002b757620002b662000234565b5b6000620002c78482850162000287565b91505092915050565b61294d80620002e06000396000f3fe608060405234801561001057600080fd5b50600436106101215760003560e01c80635c975abb116100ad578063949813b811610071578063949813b814610314578063a217fddf14610330578063d547741f1461034e578063e831be581461036a578063f940e3851461039a57610121565b80635c975abb1461024a5780637b46c54f1461026857806380ac82281461029857806391d14854146102c857806392eefe9b146102f857610121565b806330e7e743116100f457806330e7e743146101be57806332a9caba146101da57806336568abe146101f65780633ccdbb281461021257806347e7ef241461022e57610121565b806301ffc9a71461012657806321c0b34214610156578063248a9ca3146101725780632f2ff15d146101a2575b600080fd5b610140600480360381019061013b9190611ac4565b6103b6565b60405161014d9190611b0c565b60405180910390f35b610170600480360381019061016b9190611b85565b610430565b005b61018c60048036038101906101879190611bfb565b610651565b6040516101999190611c37565b60405180910390f35b6101bc60048036038101906101b79190611c52565b610671565b005b6101d860048036038101906101d39190611c92565b61069a565b005b6101f460048036038101906101ef9190611cf5565b6106b3565b005b610210600480360381019061020b9190611c52565b61075c565b005b61022c60048036038101906102279190611d35565b6107df565b005b61024860048036038101906102439190611cf5565b6107fa565b005b610252610cb2565b60405161025f9190611b0c565b60405180910390f35b610282600480360381019061027d9190611c92565b610cc8565b60405161028f9190611dec565b60405180910390f35b6102b260048036038101906102ad9190611b85565b610f3b565b6040516102bf9190611e16565b60405180910390f35b6102e260048036038101906102dd9190611c52565b6111d4565b6040516102ef9190611b0c565b60405180910390f35b610312600480360381019061030d9190611c92565b61123f565b005b61032e60048036038101906103299190611c92565b611299565b005b61033861129c565b6040516103459190611c37565b60405180910390f35b61036860048036038101906103639190611c52565b6112a3565b005b610384600480360381019061037f9190611b85565b6112cc565b6040516103919190611e16565b60405180910390f35b6103b460048036038101906103af9190611b85565b611376565b005b60007f7965db0b000000000000000000000000000000000000000000000000000000007bffffffffffffffffffffffffffffffffffffffffffffffffffffffff1916827bffffffffffffffffffffffffffffffffffffffffffffffffffffffff1916148061042957506104288261151c565b5b9050919050565b600061043b83610cc8565b90506000600260009054906101000a900473ffffffffffffffffffffffffffffffffffffffff1673ffffffffffffffffffffffffffffffffffffffff166392a576e685856040518363ffffffff1660e01b815260040161049c929190611e40565b6000604051808303816000875af11580156104bb573d6000803e3d6000fd5b505050506040513d6000823e3d601f19601f820116820180604052508101906104e491906120f2565b90506000600354836040015183602001516104ff919061216a565b61050991906121f3565b9050600082606001518261051d9190612224565b9050600260009054906101000a900473ffffffffffffffffffffffffffffffffffffffff1673ffffffffffffffffffffffffffffffffffffffff1663c0b9dd788787856040518463ffffffff1660e01b815260040161057e93929190612258565b600060405180830381600087803b15801561059857600080fd5b505af11580156105ac573d6000803e3d6000fd5b50505050600081111561064957600460009054906101000a900473ffffffffffffffffffffffffffffffffffffffff1673ffffffffffffffffffffffffffffffffffffffff166340c10f1986836040518363ffffffff1660e01b815260040161061692919061228f565b600060405180830381600087803b15801561063057600080fd5b505af1158015610644573d6000803e3d6000fd5b505050505b505050505050565b600060016000838152602001908152602001600020600101549050919050565b61067a82610651565b61068b81610686611586565b61158e565b610695838361162b565b505050565b6000801b6106af816106aa611586565b61158e565b5050565b6000801b6106c8816106c3611586565b61158e565b600260009054906101000a900473ffffffffffffffffffffffffffffffffffffffff1673ffffffffffffffffffffffffffffffffffffffff166332a9caba84846040518363ffffffff1660e01b815260040161072592919061228f565b600060405180830381600087803b15801561073f57600080fd5b505af1158015610753573d6000803e3d6000fd5b50505050505050565b610764611586565b73ffffffffffffffffffffffffffffffffffffffff168173ffffffffffffffffffffffffffffffffffffffff16146107d1576040517f08c379a00000000000000000000000000000000000000000000000000000000081526004016107c89061233b565b60405180910390fd5b6107db828261170b565b5050565b6000801b6107f4816107ef611586565b61158e565b50505050565b600260009054906101000a900473ffffffffffffffffffffffffffffffffffffffff1673ffffffffffffffffffffffffffffffffffffffff1663999126d7836040518263ffffffff1660e01b8152600401610855919061235b565b602060405180830381865afa158015610872573d6000803e3d6000fd5b505050506040513d601f19601f820116820180604052508101906108969190612376565b6108d5576040517f08c379a00000000000000000000000000000000000000000000000000000000081526004016108cc906123ef565b60405180910390fd5b60006108e083610cc8565b905060006003548260400151846108f7919061216a565b61090191906121f3565b9050600260009054906101000a900473ffffffffffffffffffffffffffffffffffffffff1673ffffffffffffffffffffffffffffffffffffffff166356e45e4b856040518263ffffffff1660e01b815260040161095e919061235b565b602060405180830381865afa15801561097b573d6000803e3d6000fd5b505050506040513d601f19601f8201168201806040525081019061099f9190612376565b610a3b57600260009054906101000a900473ffffffffffffffffffffffffffffffffffffffff1673ffffffffffffffffffffffffffffffffffffffff1663f5b5d237853386856040518563ffffffff1660e01b8152600401610a04949392919061240f565b600060405180830381600087803b158015610a1e57600080fd5b505af1158015610a32573d6000803e3d6000fd5b50505050610cac565b600260009054906101000a900473ffffffffffffffffffffffffffffffffffffffff1673ffffffffffffffffffffffffffffffffffffffff166367373829853386856040518563ffffffff1660e01b8152600401610a9c949392919061240f565b600060405180830381600087803b158015610ab657600080fd5b505af1158015610aca573d6000803e3d6000fd5b505050506000600260009054906101000a900473ffffffffffffffffffffffffffffffffffffffff1673ffffffffffffffffffffffffffffffffffffffff16639338b7c986336040518363ffffffff1660e01b8152600401610b2d929190611e40565b6080604051808303816000875af1158015610b4c573d6000803e3d6000fd5b505050506040513d601f19601f82011682018060405250810190610b7091906124cc565b9050610b7f81602001516117ed565b15610c1857600260009054906101000a900473ffffffffffffffffffffffffffffffffffffffff1673ffffffffffffffffffffffffffffffffffffffff16636374299e33866040518363ffffffff1660e01b8152600401610be192919061228f565b600060405180830381600087803b158015610bfb57600080fd5b505af1158015610c0f573d6000803e3d6000fd5b50505050610caa565b600260009054906101000a900473ffffffffffffffffffffffffffffffffffffffff1673ffffffffffffffffffffffffffffffffffffffff16630c6fd4988633876040518463ffffffff1660e01b8152600401610c7793929190612258565b600060405180830381600087803b158015610c9157600080fd5b505af1158015610ca5573d6000803e3d6000fd5b505050505b505b50505050565b60008060009054906101000a900460ff16905090565b610cd0611a30565b6000600260009054906101000a900473ffffffffffffffffffffffffffffffffffffffff1673ffffffffffffffffffffffffffffffffffffffff1663bbe4f6db846040518263ffffffff1660e01b8152600401610d2d919061235b565b6080604051808303816000875af1158015610d4c573d6000803e3d6000fd5b505050506040513d601f19601f82011682018060405250810190610d709190612571565b90506000600260009054906101000a900473ffffffffffffffffffffffffffffffffffffffff1673ffffffffffffffffffffffffffffffffffffffff1663f2866c78856040518263ffffffff1660e01b8152600401610dcf919061235b565b6020604051808303816000875af1158015610dee573d6000803e3d6000fd5b505050506040513d601f19601f82011682018060405250810190610e12919061259e565b905060008260600151431115610f32576000821115610e80576000836060015143610e3d9190612224565b90506000846020015182610e51919061216a565b90508360035482610e62919061216a565b610e6c91906121f3565b8560400151610e7b91906125cb565b925050505b6000439050600260009054906101000a900473ffffffffffffffffffffffffffffffffffffffff1673ffffffffffffffffffffffffffffffffffffffff1663695c0bb88784846040518463ffffffff1660e01b8152600401610ee493929190612621565b6080604051808303816000875af1158015610f03573d6000803e3d6000fd5b505050506040513d601f19601f82011682018060405250810190610f279190612571565b945050505050610f36565b5050505b919050565b600080600260009054906101000a900473ffffffffffffffffffffffffffffffffffffffff1673ffffffffffffffffffffffffffffffffffffffff1663bbe4f6db856040518263ffffffff1660e01b8152600401610f99919061235b565b6080604051808303816000875af1158015610fb8573d6000803e3d6000fd5b505050506040513d601f19601f82011682018060405250810190610fdc9190612571565b90506000600260009054906101000a900473ffffffffffffffffffffffffffffffffffffffff1673ffffffffffffffffffffffffffffffffffffffff166392a576e686866040518363ffffffff1660e01b815260040161103d929190611e40565b6000604051808303816000875af115801561105c573d6000803e3d6000fd5b505050506040513d6000823e3d601f19601f8201168201806040525081019061108591906120f2565b90506000826040015190506000600260009054906101000a900473ffffffffffffffffffffffffffffffffffffffff1673ffffffffffffffffffffffffffffffffffffffff1663f2866c78886040518263ffffffff1660e01b81526004016110ed919061235b565b6020604051808303816000875af115801561110c573d6000803e3d6000fd5b505050506040513d601f19601f82011682018060405250810190611130919061259e565b9050836060015143118015611146575060008114155b1561119c57600084606001514361115d9190612224565b90506000856020015182611171919061216a565b90508260035482611182919061216a565b61118c91906121f3565b8461119791906125cb565b935050505b82606001516003548385602001516111b4919061216a565b6111be91906121f3565b6111c89190612224565b94505050505092915050565b60006001600084815260200190815260200160002060000160008373ffffffffffffffffffffffffffffffffffffffff1673ffffffffffffffffffffffffffffffffffffffff16815260200190815260200160002060009054906101000a900460ff16905092915050565b6000801b6112548161124f611586565b61158e565b81600460006101000a81548173ffffffffffffffffffffffffffffffffffffffff021916908373ffffffffffffffffffffffffffffffffffffffff1602179055505050565b50565b6000801b81565b6112ac82610651565b6112bd816112b8611586565b61158e565b6112c7838361170b565b505050565b6000600260009054906101000a900473ffffffffffffffffffffffffffffffffffffffff1673ffffffffffffffffffffffffffffffffffffffff16630122a7e884846040518363ffffffff1660e01b815260040161132b929190611e40565b6020604051808303816000875af115801561134a573d6000803e3d6000fd5b505050506040513d601f19601f8201168201806040525081019061136e919061259e565b905092915050565b600061138183610cc8565b90506000600260009054906101000a900473ffffffffffffffffffffffffffffffffffffffff1673ffffffffffffffffffffffffffffffffffffffff166392a576e685856040518363ffffffff1660e01b81526004016113e2929190611e40565b6000604051808303816000875af1158015611401573d6000803e3d6000fd5b505050506040513d6000823e3d601f19601f8201168201806040525081019061142a91906120f2565b9050600061143885856112cc565b9050600060035484604001518361144f919061216a565b61145991906121f3565b83606001516114689190612224565b9050600082846020015161147c9190612224565b9050600260009054906101000a900473ffffffffffffffffffffffffffffffffffffffff1673ffffffffffffffffffffffffffffffffffffffff16637623475988888685876040518663ffffffff1660e01b81526004016114e1959493929190612658565b600060405180830381600087803b1580156114fb57600080fd5b505af115801561150f573d6000803e3d6000fd5b5050505050505050505050565b60007f01ffc9a7000000000000000000000000000000000000000000000000000000007bffffffffffffffffffffffffffffffffffffffffffffffffffffffff1916827bffffffffffffffffffffffffffffffffffffffffffffffffffffffff1916149050919050565b600033905090565b61159882826111d4565b611627576115bd8173ffffffffffffffffffffffffffffffffffffffff1660146117f4565b6115cb8360001c60206117f4565b6040516020016115dc9291906127bd565b6040516020818303038152906040526040517f08c379a000000000000000000000000000000000000000000000000000000000815260040161161e9190612830565b60405180910390fd5b5050565b61163582826111d4565b61170757600180600084815260200190815260200160002060000160008373ffffffffffffffffffffffffffffffffffffffff1673ffffffffffffffffffffffffffffffffffffffff16815260200190815260200160002060006101000a81548160ff0219169083151502179055506116ac611586565b73ffffffffffffffffffffffffffffffffffffffff168173ffffffffffffffffffffffffffffffffffffffff16837f2f8788117e7eff1d82e926ec794901d17c78024a50270940304540a733656f0d60405160405180910390a45b5050565b61171582826111d4565b156117e95760006001600084815260200190815260200160002060000160008373ffffffffffffffffffffffffffffffffffffffff1673ffffffffffffffffffffffffffffffffffffffff16815260200190815260200160002060006101000a81548160ff02191690831515021790555061178e611586565b73ffffffffffffffffffffffffffffffffffffffff168173ffffffffffffffffffffffffffffffffffffffff16837ff6391f5c32d9c69d2a47ea670b442974b53935d1edc7fd64eb21e047a839171b60405160405180910390a45b5050565b6000919050565b606060006002836002611807919061216a565b61181191906125cb565b67ffffffffffffffff81111561182a57611829611e7f565b5b6040519080825280601f01601f19166020018201604052801561185c5781602001600182028036833780820191505090505b5090507f30000000000000000000000000000000000000000000000000000000000000008160008151811061189457611893612852565b5b60200101907effffffffffffffffffffffffffffffffffffffffffffffffffffffffffffff1916908160001a9053507f7800000000000000000000000000000000000000000000000000000000000000816001815181106118f8576118f7612852565b5b60200101907effffffffffffffffffffffffffffffffffffffffffffffffffffffffffffff1916908160001a90535060006001846002611938919061216a565b61194291906125cb565b90505b60018111156119e2577f3031323334353637383961626364656600000000000000000000000000000000600f86166010811061198457611983612852565b5b1a60f81b82828151811061199b5761199a612852565b5b60200101907effffffffffffffffffffffffffffffffffffffffffffffffffffffffffffff1916908160001a905350600485901c9450806119db90612881565b9050611945565b5060008414611a26576040517f08c379a0000000000000000000000000000000000000000000000000000000008152600401611a1d906128f7565b60405180910390fd5b8091505092915050565b6040518060800160405280600081526020016000815260200160008152602001600081525090565b6000604051905090565b600080fd5b600080fd5b60007fffffffff0000000000000000000000000000000000000000000000000000000082169050919050565b611aa181611a6c565b8114611aac57600080fd5b50565b600081359050611abe81611a98565b92915050565b600060208284031215611ada57611ad9611a62565b5b6000611ae884828501611aaf565b91505092915050565b60008115159050919050565b611b0681611af1565b82525050565b6000602082019050611b216000830184611afd565b92915050565b600073ffffffffffffffffffffffffffffffffffffffff82169050919050565b6000611b5282611b27565b9050919050565b611b6281611b47565b8114611b6d57600080fd5b50565b600081359050611b7f81611b59565b92915050565b60008060408385031215611b9c57611b9b611a62565b5b6000611baa85828601611b70565b9250506020611bbb85828601611b70565b9150509250929050565b6000819050919050565b611bd881611bc5565b8114611be357600080fd5b50565b600081359050611bf581611bcf565b92915050565b600060208284031215611c1157611c10611a62565b5b6000611c1f84828501611be6565b91505092915050565b611c3181611bc5565b82525050565b6000602082019050611c4c6000830184611c28565b92915050565b60008060408385031215611c6957611c68611a62565b5b6000611c7785828601611be6565b9250506020611c8885828601611b70565b9150509250929050565b600060208284031215611ca857611ca7611a62565b5b6000611cb684828501611b70565b91505092915050565b6000819050919050565b611cd281611cbf565b8114611cdd57600080fd5b50565b600081359050611cef81611cc9565b92915050565b60008060408385031215611d0c57611d0b611a62565b5b6000611d1a85828601611b70565b9250506020611d2b85828601611ce0565b9150509250929050565b600080600060608486031215611d4e57611d4d611a62565b5b6000611d5c86828701611b70565b9350506020611d6d86828701611ce0565b9250506040611d7e86828701611b70565b9150509250925092565b611d9181611cbf565b82525050565b608082016000820151611dad6000850182611d88565b506020820151611dc06020850182611d88565b506040820151611dd36040850182611d88565b506060820151611de66060850182611d88565b50505050565b6000608082019050611e016000830184611d97565b92915050565b611e1081611cbf565b82525050565b6000602082019050611e2b6000830184611e07565b92915050565b611e3a81611b47565b82525050565b6000604082019050611e556000830185611e31565b611e626020830184611e31565b9392505050565b600080fd5b6000601f19601f8301169050919050565b7f4e487b7100000000000000000000000000000000000000000000000000000000600052604160045260246000fd5b611eb782611e6e565b810181811067ffffffffffffffff82111715611ed657611ed5611e7f565b5b80604052505050565b6000611ee9611a58565b9050611ef58282611eae565b919050565b600080fd5b600081519050611f0e81611b59565b92915050565b600081519050611f2381611cc9565b92915050565b600080fd5b600067ffffffffffffffff821115611f4957611f48611e7f565b5b602082029050602081019050919050565b600080fd5b6000611f72611f6d84611f2e565b611edf565b90508083825260208201905060208402830185811115611f9557611f94611f5a565b5b835b81811015611fbe5780611faa8882611f14565b845260208401935050602081019050611f97565b5050509392505050565b600082601f830112611fdd57611fdc611f29565b5b8151611fed848260208601611f5f565b91505092915050565b611fff81611af1565b811461200a57600080fd5b50565b60008151905061201c81611ff6565b92915050565b600060e0828403121561203857612037611e69565b5b61204260e0611edf565b9050600061205284828501611eff565b600083015250602061206684828501611f14565b602083015250604061207a84828501611f14565b604083015250606061208e84828501611f14565b60608301525060806120a284828501611f14565b60808301525060a082015167ffffffffffffffff8111156120c6576120c5611efa565b5b6120d284828501611fc8565b60a08301525060c06120e68482850161200d565b60c08301525092915050565b60006020828403121561210857612107611a62565b5b600082015167ffffffffffffffff81111561212657612125611a67565b5b61213284828501612022565b91505092915050565b7f4e487b7100000000000000000000000000000000000000000000000000000000600052601160045260246000fd5b600061217582611cbf565b915061218083611cbf565b9250817fffffffffffffffffffffffffffffffffffffffffffffffffffffffffffffffff04831182151516156121b9576121b861213b565b5b828202905092915050565b7f4e487b7100000000000000000000000000000000000000000000000000000000600052601260045260246000fd5b60006121fe82611cbf565b915061220983611cbf565b925082612219576122186121c4565b5b828204905092915050565b600061222f82611cbf565b915061223a83611cbf565b92508282101561224d5761224c61213b565b5b828203905092915050565b600060608201905061226d6000830186611e31565b61227a6020830185611e31565b6122876040830184611e07565b949350505050565b60006040820190506122a46000830185611e31565b6122b16020830184611e07565b9392505050565b600082825260208201905092915050565b7f416363657373436f6e74726f6c3a2063616e206f6e6c792072656e6f756e636560008201527f20726f6c657320666f722073656c660000000000000000000000000000000000602082015250565b6000612325602f836122b8565b9150612330826122c9565b604082019050919050565b6000602082019050818103600083015261235481612318565b9050919050565b60006020820190506123706000830184611e31565b92915050565b60006020828403121561238c5761238b611a62565b5b600061239a8482850161200d565b91505092915050565b7f506f6f6c20646f6573206e6f7420657869737400000000000000000000000000600082015250565b60006123d96013836122b8565b91506123e4826123a3565b602082019050919050565b60006020820190508181036000830152612408816123cc565b9050919050565b60006080820190506124246000830187611e31565b6124316020830186611e31565b61243e6040830185611e07565b61244b6060830184611e07565b95945050505050565b60006080828403121561246a57612469611e69565b5b6124746080611edf565b9050600061248484828501611f14565b600083015250602061249884828501611f14565b60208301525060406124ac84828501611f14565b60408301525060606124c08482850161200d565b60608301525092915050565b6000608082840312156124e2576124e1611a62565b5b60006124f084828501612454565b91505092915050565b60006080828403121561250f5761250e611e69565b5b6125196080611edf565b9050600061252984828501611f14565b600083015250602061253d84828501611f14565b602083015250604061255184828501611f14565b604083015250606061256584828501611f14565b60608301525092915050565b60006080828403121561258757612586611a62565b5b6000612595848285016124f9565b91505092915050565b6000602082840312156125b4576125b3611a62565b5b60006125c284828501611f14565b91505092915050565b60006125d682611cbf565b91506125e183611cbf565b9250827fffffffffffffffffffffffffffffffffffffffffffffffffffffffffffffffff038211156126165761261561213b565b5b828201905092915050565b60006060820190506126366000830186611e31565b6126436020830185611e07565b6126506040830184611e07565b949350505050565b600060a08201905061266d6000830188611e31565b61267a6020830187611e31565b6126876040830186611e07565b6126946060830185611e07565b6126a16080830184611e07565b9695505050505050565b600081905092915050565b7f416363657373436f6e74726f6c3a206163636f756e7420000000000000000000600082015250565b60006126ec6017836126ab565b91506126f7826126b6565b601782019050919050565b600081519050919050565b60005b8381101561272b578082015181840152602081019050612710565b8381111561273a576000848401525b50505050565b600061274b82612702565b61275581856126ab565b935061276581856020860161270d565b80840191505092915050565b7f206973206d697373696e6720726f6c6520000000000000000000000000000000600082015250565b60006127a76011836126ab565b91506127b282612771565b601182019050919050565b60006127c8826126df565b91506127d48285612740565b91506127df8261279a565b91506127eb8284612740565b91508190509392505050565b600061280282612702565b61280c81856122b8565b935061281c81856020860161270d565b61282581611e6e565b840191505092915050565b6000602082019050818103600083015261284a81846127f7565b905092915050565b7f4e487b7100000000000000000000000000000000000000000000000000000000600052603260045260246000fd5b600061288c82611cbf565b915060008214156128a05761289f61213b565b5b600182039050919050565b7f537472696e67733a20686578206c656e67746820696e73756666696369656e74600082015250565b60006128e16020836122b8565b91506128ec826128ab565b602082019050919050565b60006020820190508181036000830152612910816128d4565b905091905056fea264697066735822122057b3ccf9b0d4d98d4a5dc473b370538cae2897cefbe40861f253c087df17d30964736f6c634300080b0033",
  "linkReferences": {},
  "deployedLinkReferences": {}
}