{
  "_format": "hh-sol-artifact-1",
  "contractName": "RewardsV2",
  "sourceName": "contracts/rewards/Rewards.sol",
  "abi": [
    {
      "inputs": [
        {
          "internalType": "address",
          "name": "_vault",
          "type": "address"
        }
      ],
      "stateMutability": "nonpayable",
      "type": "constructor"
    },
    {
      "anonymous": false,
      "inputs": [
        {
          "indexed": false,
          "internalType": "address",
          "name": "account",
          "type": "address"
        }
      ],
      "name": "Paused",
      "type": "event"
    },
    {
      "anonymous": false,
      "inputs": [
        {
          "indexed": true,
          "internalType": "bytes32",
          "name": "role",
          "type": "bytes32"
        },
        {
          "indexed": true,
          "internalType": "bytes32",
          "name": "previousAdminRole",
          "type": "bytes32"
        },
        {
          "indexed": true,
          "internalType": "bytes32",
          "name": "newAdminRole",
          "type": "bytes32"
        }
      ],
      "name": "RoleAdminChanged",
      "type": "event"
    },
    {
      "anonymous": false,
      "inputs": [
        {
          "indexed": true,
          "internalType": "bytes32",
          "name": "role",
          "type": "bytes32"
        },
        {
          "indexed": true,
          "internalType": "address",
          "name": "account",
          "type": "address"
        },
        {
          "indexed": true,
          "internalType": "address",
          "name": "sender",
          "type": "address"
        }
      ],
      "name": "RoleGranted",
      "type": "event"
    },
    {
      "anonymous": false,
      "inputs": [
        {
          "indexed": true,
          "internalType": "bytes32",
          "name": "role",
          "type": "bytes32"
        },
        {
          "indexed": true,
          "internalType": "address",
          "name": "account",
          "type": "address"
        },
        {
          "indexed": true,
          "internalType": "address",
          "name": "sender",
          "type": "address"
        }
      ],
      "name": "RoleRevoked",
      "type": "event"
    },
    {
      "anonymous": false,
      "inputs": [
        {
          "indexed": false,
          "internalType": "address",
          "name": "account",
          "type": "address"
        }
      ],
      "name": "Unpaused",
      "type": "event"
    },
    {
      "inputs": [],
      "name": "DEFAULT_ADMIN_ROLE",
      "outputs": [
        {
          "internalType": "bytes32",
          "name": "",
          "type": "bytes32"
        }
      ],
      "stateMutability": "view",
      "type": "function"
    },
    {
      "inputs": [
        {
          "internalType": "address",
          "name": "_token",
          "type": "address"
        },
        {
          "internalType": "uint256",
          "name": "_rewardsPerBlock",
          "type": "uint256"
        }
      ],
      "name": "addPool",
      "outputs": [],
      "stateMutability": "nonpayable",
      "type": "function"
    },
    {
      "inputs": [
        {
          "internalType": "address",
          "name": "_token",
          "type": "address"
        },
        {
          "internalType": "uint256",
          "name": "_amount",
          "type": "uint256"
        }
      ],
      "name": "addUserPosition",
      "outputs": [],
      "stateMutability": "nonpayable",
      "type": "function"
    },
    {
      "inputs": [
        {
          "internalType": "address",
          "name": "_token",
          "type": "address"
        }
      ],
      "name": "claimRewards",
      "outputs": [],
      "stateMutability": "nonpayable",
      "type": "function"
    },
    {
      "inputs": [
        {
          "internalType": "bytes32",
          "name": "role",
          "type": "bytes32"
        }
      ],
      "name": "getRoleAdmin",
      "outputs": [
        {
          "internalType": "bytes32",
          "name": "",
          "type": "bytes32"
        }
      ],
      "stateMutability": "view",
      "type": "function"
    },
    {
      "inputs": [
        {
          "internalType": "bytes32",
          "name": "role",
          "type": "bytes32"
        },
        {
          "internalType": "address",
          "name": "account",
          "type": "address"
        }
      ],
      "name": "grantRole",
      "outputs": [],
      "stateMutability": "nonpayable",
      "type": "function"
    },
    {
      "inputs": [
        {
          "internalType": "bytes32",
          "name": "role",
          "type": "bytes32"
        },
        {
          "internalType": "address",
          "name": "account",
          "type": "address"
        }
      ],
      "name": "hasRole",
      "outputs": [
        {
          "internalType": "bool",
          "name": "",
          "type": "bool"
        }
      ],
      "stateMutability": "view",
      "type": "function"
    },
    {
      "inputs": [],
      "name": "paused",
      "outputs": [
        {
          "internalType": "bool",
          "name": "",
          "type": "bool"
        }
      ],
      "stateMutability": "view",
      "type": "function"
    },
    {
      "inputs": [
        {
          "internalType": "bytes32",
          "name": "role",
          "type": "bytes32"
        },
        {
          "internalType": "address",
          "name": "account",
          "type": "address"
        }
      ],
      "name": "renounceRole",
      "outputs": [],
      "stateMutability": "nonpayable",
      "type": "function"
    },
    {
      "inputs": [
        {
          "internalType": "bytes32",
          "name": "role",
          "type": "bytes32"
        },
        {
          "internalType": "address",
          "name": "account",
          "type": "address"
        }
      ],
      "name": "revokeRole",
      "outputs": [],
      "stateMutability": "nonpayable",
      "type": "function"
    },
    {
      "inputs": [
        {
          "internalType": "address",
          "name": "_token",
          "type": "address"
        },
        {
          "internalType": "uint256",
          "name": "_stakeId",
          "type": "uint256"
        }
      ],
      "name": "setStaticLock",
      "outputs": [],
      "stateMutability": "nonpayable",
      "type": "function"
    },
    {
      "inputs": [
        {
          "internalType": "bytes4",
          "name": "interfaceId",
          "type": "bytes4"
        }
      ],
      "name": "supportsInterface",
      "outputs": [
        {
          "internalType": "bool",
          "name": "",
          "type": "bool"
        }
      ],
      "stateMutability": "view",
      "type": "function"
    },
    {
      "inputs": [
        {
          "internalType": "address",
          "name": "_token",
          "type": "address"
        }
      ],
      "name": "unclaimedRewards",
      "outputs": [],
      "stateMutability": "nonpayable",
      "type": "function"
    },
    {
      "inputs": [
        {
          "internalType": "address",
          "name": "_token",
          "type": "address"
        },
        {
          "internalType": "uint256",
          "name": "_amount",
          "type": "uint256"
        }
      ],
      "name": "unclaimedRewards",
      "outputs": [],
      "stateMutability": "nonpayable",
      "type": "function"
    },
    {
      "inputs": [
        {
          "internalType": "address",
          "name": "_token",
          "type": "address"
        }
      ],
      "name": "updatePool",
      "outputs": [
        {
          "components": [
            {
              "internalType": "uint256",
              "name": "totalPooled",
              "type": "uint256"
            },
            {
              "internalType": "uint256",
              "name": "rewardsPerBlock",
              "type": "uint256"
            },
            {
              "internalType": "uint256",
              "name": "accCaplPerShare",
              "type": "uint256"
            },
            {
              "internalType": "uint256",
              "name": "lastRewardBlock",
              "type": "uint256"
            }
          ],
          "internalType": "struct IPool.Pool",
          "name": "pool",
          "type": "tuple"
        }
      ],
      "stateMutability": "nonpayable",
      "type": "function"
    },
    {
      "inputs": [
        {
          "internalType": "uint256",
          "name": "_duration",
          "type": "uint256"
        }
      ],
      "name": "updateTimelockDuration",
      "outputs": [],
      "stateMutability": "nonpayable",
      "type": "function"
    },
    {
      "inputs": [
        {
          "internalType": "address",
          "name": "_token",
          "type": "address"
        }
      ],
      "name": "withdrawAllStake",
      "outputs": [],
      "stateMutability": "nonpayable",
      "type": "function"
    },
    {
      "inputs": [
        {
          "internalType": "address",
          "name": "_destination",
          "type": "address"
        }
      ],
      "name": "withdrawMATIC",
      "outputs": [],
      "stateMutability": "nonpayable",
      "type": "function"
    },
    {
      "inputs": [
        {
          "internalType": "address",
          "name": "_token",
          "type": "address"
        },
        {
          "internalType": "uint256",
          "name": "_stake",
          "type": "uint256"
        },
        {
          "internalType": "uint256",
          "name": "_amount",
          "type": "uint256"
        }
      ],
      "name": "withdrawStake",
      "outputs": [],
      "stateMutability": "nonpayable",
      "type": "function"
    },
    {
      "inputs": [
        {
          "internalType": "address",
          "name": "_token",
          "type": "address"
        },
        {
          "internalType": "uint256",
          "name": "_amount",
          "type": "uint256"
        },
        {
          "internalType": "address",
          "name": "_destination",
          "type": "address"
        }
      ],
      "name": "withdrawToken",
      "outputs": [],
      "stateMutability": "nonpayable",
      "type": "function"
    }
  ],
  "bytecode": "0x6080604052670de0b6b3a76400006003553480156200001d57600080fd5b50604051620021b6380380620021b683398181016040528101906200004391906200029e565b60008060006101000a81548160ff02191690831515021790555080600260006101000a81548173ffffffffffffffffffffffffffffffffffffffff021916908373ffffffffffffffffffffffffffffffffffffffff160217905550620000b36000801b33620000ba60201b60201c565b50620002d0565b620000cc8282620000d060201b60201c565b5050565b620000e28282620001c160201b60201c565b620001bd57600180600084815260200190815260200160002060000160008373ffffffffffffffffffffffffffffffffffffffff1673ffffffffffffffffffffffffffffffffffffffff16815260200190815260200160002060006101000a81548160ff021916908315150217905550620001626200022c60201b60201c565b73ffffffffffffffffffffffffffffffffffffffff168173ffffffffffffffffffffffffffffffffffffffff16837f2f8788117e7eff1d82e926ec794901d17c78024a50270940304540a733656f0d60405160405180910390a45b5050565b60006001600084815260200190815260200160002060000160008373ffffffffffffffffffffffffffffffffffffffff1673ffffffffffffffffffffffffffffffffffffffff16815260200190815260200160002060009054906101000a900460ff16905092915050565b600033905090565b600080fd5b600073ffffffffffffffffffffffffffffffffffffffff82169050919050565b6000620002668262000239565b9050919050565b620002788162000259565b81146200028457600080fd5b50565b60008151905062000298816200026d565b92915050565b600060208284031215620002b757620002b662000234565b5b6000620002c78482850162000287565b91505092915050565b611ed680620002e06000396000f3fe608060405234801561001057600080fd5b506004361061012c5760003560e01c806384957191116100ad578063a217fddf11610071578063a217fddf14610327578063c8daa85d14610345578063d547741f14610361578063e7e67e621461037d578063ef5cfb8c146103995761012c565b8063849571911461028757806390294673146102a357806391d14854146102bf578063949813b8146102ef578063976a9e221461030b5761012c565b806332a9caba116100f457806332a9caba146101e557806336568abe146102015780633ccdbb281461021d5780635c975abb146102395780637b46c54f146102575761012c565b806301ffc9a714610131578063184466c914610161578063248a9ca31461017d5780632f2ff15d146101ad57806330e7e743146101c9575b600080fd5b61014b600480360381019061014691906112a8565b6103b5565b60405161015891906112f0565b60405180910390f35b61017b60048036038101906101769190611341565b61042f565b005b610197600480360381019061019291906113a4565b610432565b6040516101a491906113e0565b60405180910390f35b6101c760048036038101906101c29190611459565b610452565b005b6101e360048036038101906101de9190611499565b61047b565b005b6101ff60048036038101906101fa91906114c6565b61047e565b005b61021b60048036038101906102169190611459565b610527565b005b61023760048036038101906102329190611506565b6105aa565b005b6102416105af565b60405161024e91906112f0565b60405180910390f35b610271600480360381019061026c9190611499565b6105c5565b60405161027e91906115bd565b60405180910390f35b6102a1600480360381019061029c9190611499565b61079c565b005b6102bd60048036038101906102b891906114c6565b61079f565b005b6102d960048036038101906102d49190611459565b610c57565b6040516102e691906112f0565b60405180910390f35b61030960048036038101906103049190611499565b610cc2565b005b610325600480360381019061032091906114c6565b610cc5565b005b61032f610cc9565b60405161033c91906113e0565b60405180910390f35b61035f600480360381019061035a91906114c6565b610cd0565b005b61037b60048036038101906103769190611459565b610cd4565b005b610397600480360381019061039291906115d8565b610cfd565b005b6103b360048036038101906103ae9190611499565b610d02565b005b60007f7965db0b000000000000000000000000000000000000000000000000000000007bffffffffffffffffffffffffffffffffffffffffffffffffffffffff1916827bffffffffffffffffffffffffffffffffffffffffffffffffffffffff19161480610428575061042782610d05565b5b9050919050565b50565b600060016000838152602001908152602001600020600101549050919050565b61045b82610432565b61046c81610467610d6f565b610d77565b6104768383610e14565b505050565b50565b6000801b6104938161048e610d6f565b610d77565b600260009054906101000a900473ffffffffffffffffffffffffffffffffffffffff1673ffffffffffffffffffffffffffffffffffffffff166332a9caba84846040518363ffffffff1660e01b81526004016104f0929190611649565b600060405180830381600087803b15801561050a57600080fd5b505af115801561051e573d6000803e3d6000fd5b50505050505050565b61052f610d6f565b73ffffffffffffffffffffffffffffffffffffffff168173ffffffffffffffffffffffffffffffffffffffff161461059c576040517f08c379a0000000000000000000000000000000000000000000000000000000008152600401610593906116f5565b60405180910390fd5b6105a68282610ef4565b5050565b505050565b60008060009054906101000a900460ff16905090565b6105cd611219565b6000600260009054906101000a900473ffffffffffffffffffffffffffffffffffffffff1673ffffffffffffffffffffffffffffffffffffffff1663bbe4f6db846040518263ffffffff1660e01b815260040161062a9190611715565b6080604051808303816000875af1158015610649573d6000803e3d6000fd5b505050506040513d601f19601f8201168201806040525081019061066d919061184e565b905060008160600151431115610794576000826000015111156106e357600082606001514361069c91906118aa565b905060008360200151826106b091906118de565b90508360000151600354826106c591906118de565b6106cf9190611967565b84604001516106de9190611998565b925050505b6000439050600260009054906101000a900473ffffffffffffffffffffffffffffffffffffffff1673ffffffffffffffffffffffffffffffffffffffff1663695c0bb88684846040518463ffffffff1660e01b8152600401610747939291906119ee565b6080604051808303816000875af1158015610766573d6000803e3d6000fd5b505050506040513d601f19601f8201168201806040525081019061078a919061184e565b9350505050610797565b50505b919050565b50565b600260009054906101000a900473ffffffffffffffffffffffffffffffffffffffff1673ffffffffffffffffffffffffffffffffffffffff1663999126d7836040518263ffffffff1660e01b81526004016107fa9190611715565b602060405180830381865afa158015610817573d6000803e3d6000fd5b505050506040513d601f19601f8201168201806040525081019061083b9190611a51565b61087a576040517f08c379a000000000000000000000000000000000000000000000000000000000815260040161087190611aca565b60405180910390fd5b6000610885836105c5565b9050600060035482604001518461089c91906118de565b6108a69190611967565b9050600260009054906101000a900473ffffffffffffffffffffffffffffffffffffffff1673ffffffffffffffffffffffffffffffffffffffff166356e45e4b856040518263ffffffff1660e01b81526004016109039190611715565b602060405180830381865afa158015610920573d6000803e3d6000fd5b505050506040513d601f19601f820116820180604052508101906109449190611a51565b6109e057600260009054906101000a900473ffffffffffffffffffffffffffffffffffffffff1673ffffffffffffffffffffffffffffffffffffffff1663f5b5d237853386856040518563ffffffff1660e01b81526004016109a99493929190611aea565b600060405180830381600087803b1580156109c357600080fd5b505af11580156109d7573d6000803e3d6000fd5b50505050610c51565b600260009054906101000a900473ffffffffffffffffffffffffffffffffffffffff1673ffffffffffffffffffffffffffffffffffffffff166367373829853386856040518563ffffffff1660e01b8152600401610a419493929190611aea565b600060405180830381600087803b158015610a5b57600080fd5b505af1158015610a6f573d6000803e3d6000fd5b505050506000600260009054906101000a900473ffffffffffffffffffffffffffffffffffffffff1673ffffffffffffffffffffffffffffffffffffffff16639338b7c986336040518363ffffffff1660e01b8152600401610ad2929190611b2f565b6080604051808303816000875af1158015610af1573d6000803e3d6000fd5b505050506040513d601f19601f82011682018060405250810190610b159190611bd0565b9050610b248160200151610fd6565b15610bbd57600260009054906101000a900473ffffffffffffffffffffffffffffffffffffffff1673ffffffffffffffffffffffffffffffffffffffff16636374299e33866040518363ffffffff1660e01b8152600401610b86929190611649565b600060405180830381600087803b158015610ba057600080fd5b505af1158015610bb4573d6000803e3d6000fd5b50505050610c4f565b600260009054906101000a900473ffffffffffffffffffffffffffffffffffffffff1673ffffffffffffffffffffffffffffffffffffffff16630c6fd4988633876040518463ffffffff1660e01b8152600401610c1c93929190611bfd565b600060405180830381600087803b158015610c3657600080fd5b505af1158015610c4a573d6000803e3d6000fd5b505050505b505b50505050565b60006001600084815260200190815260200160002060000160008373ffffffffffffffffffffffffffffffffffffffff1673ffffffffffffffffffffffffffffffffffffffff16815260200190815260200160002060009054906101000a900460ff16905092915050565b50565b5050565b6000801b81565b5050565b610cdd82610432565b610cee81610ce9610d6f565b610d77565b610cf88383610ef4565b505050565b505050565b50565b60007f01ffc9a7000000000000000000000000000000000000000000000000000000007bffffffffffffffffffffffffffffffffffffffffffffffffffffffff1916827bffffffffffffffffffffffffffffffffffffffffffffffffffffffff1916149050919050565b600033905090565b610d818282610c57565b610e1057610da68173ffffffffffffffffffffffffffffffffffffffff166014610fdd565b610db48360001c6020610fdd565b604051602001610dc5929190611d46565b6040516020818303038152906040526040517f08c379a0000000000000000000000000000000000000000000000000000000008152600401610e079190611db9565b60405180910390fd5b5050565b610e1e8282610c57565b610ef057600180600084815260200190815260200160002060000160008373ffffffffffffffffffffffffffffffffffffffff1673ffffffffffffffffffffffffffffffffffffffff16815260200190815260200160002060006101000a81548160ff021916908315150217905550610e95610d6f565b73ffffffffffffffffffffffffffffffffffffffff168173ffffffffffffffffffffffffffffffffffffffff16837f2f8788117e7eff1d82e926ec794901d17c78024a50270940304540a733656f0d60405160405180910390a45b5050565b610efe8282610c57565b15610fd25760006001600084815260200190815260200160002060000160008373ffffffffffffffffffffffffffffffffffffffff1673ffffffffffffffffffffffffffffffffffffffff16815260200190815260200160002060006101000a81548160ff021916908315150217905550610f77610d6f565b73ffffffffffffffffffffffffffffffffffffffff168173ffffffffffffffffffffffffffffffffffffffff16837ff6391f5c32d9c69d2a47ea670b442974b53935d1edc7fd64eb21e047a839171b60405160405180910390a45b5050565b6000919050565b606060006002836002610ff091906118de565b610ffa9190611998565b67ffffffffffffffff81111561101357611012611746565b5b6040519080825280601f01601f1916602001820160405280156110455781602001600182028036833780820191505090505b5090507f30000000000000000000000000000000000000000000000000000000000000008160008151811061107d5761107c611ddb565b5b60200101907effffffffffffffffffffffffffffffffffffffffffffffffffffffffffffff1916908160001a9053507f7800000000000000000000000000000000000000000000000000000000000000816001815181106110e1576110e0611ddb565b5b60200101907effffffffffffffffffffffffffffffffffffffffffffffffffffffffffffff1916908160001a9053506000600184600261112191906118de565b61112b9190611998565b90505b60018111156111cb577f3031323334353637383961626364656600000000000000000000000000000000600f86166010811061116d5761116c611ddb565b5b1a60f81b82828151811061118457611183611ddb565b5b60200101907effffffffffffffffffffffffffffffffffffffffffffffffffffffffffffff1916908160001a905350600485901c9450806111c490611e0a565b905061112e565b506000841461120f576040517f08c379a000000000000000000000000000000000000000000000000000000000815260040161120690611e80565b60405180910390fd5b8091505092915050565b6040518060800160405280600081526020016000815260200160008152602001600081525090565b6000604051905090565b600080fd5b60007fffffffff0000000000000000000000000000000000000000000000000000000082169050919050565b61128581611250565b811461129057600080fd5b50565b6000813590506112a28161127c565b92915050565b6000602082840312156112be576112bd61124b565b5b60006112cc84828501611293565b91505092915050565b60008115159050919050565b6112ea816112d5565b82525050565b600060208201905061130560008301846112e1565b92915050565b6000819050919050565b61131e8161130b565b811461132957600080fd5b50565b60008135905061133b81611315565b92915050565b6000602082840312156113575761135661124b565b5b60006113658482850161132c565b91505092915050565b6000819050919050565b6113818161136e565b811461138c57600080fd5b50565b60008135905061139e81611378565b92915050565b6000602082840312156113ba576113b961124b565b5b60006113c88482850161138f565b91505092915050565b6113da8161136e565b82525050565b60006020820190506113f560008301846113d1565b92915050565b600073ffffffffffffffffffffffffffffffffffffffff82169050919050565b6000611426826113fb565b9050919050565b6114368161141b565b811461144157600080fd5b50565b6000813590506114538161142d565b92915050565b600080604083850312156114705761146f61124b565b5b600061147e8582860161138f565b925050602061148f85828601611444565b9150509250929050565b6000602082840312156114af576114ae61124b565b5b60006114bd84828501611444565b91505092915050565b600080604083850312156114dd576114dc61124b565b5b60006114eb85828601611444565b92505060206114fc8582860161132c565b9150509250929050565b60008060006060848603121561151f5761151e61124b565b5b600061152d86828701611444565b935050602061153e8682870161132c565b925050604061154f86828701611444565b9150509250925092565b6115628161130b565b82525050565b60808201600082015161157e6000850182611559565b5060208201516115916020850182611559565b5060408201516115a46040850182611559565b5060608201516115b76060850182611559565b50505050565b60006080820190506115d26000830184611568565b92915050565b6000806000606084860312156115f1576115f061124b565b5b60006115ff86828701611444565b93505060206116108682870161132c565b92505060406116218682870161132c565b9150509250925092565b6116348161141b565b82525050565b6116438161130b565b82525050565b600060408201905061165e600083018561162b565b61166b602083018461163a565b9392505050565b600082825260208201905092915050565b7f416363657373436f6e74726f6c3a2063616e206f6e6c792072656e6f756e636560008201527f20726f6c657320666f722073656c660000000000000000000000000000000000602082015250565b60006116df602f83611672565b91506116ea82611683565b604082019050919050565b6000602082019050818103600083015261170e816116d2565b9050919050565b600060208201905061172a600083018461162b565b92915050565b600080fd5b6000601f19601f8301169050919050565b7f4e487b7100000000000000000000000000000000000000000000000000000000600052604160045260246000fd5b61177e82611735565b810181811067ffffffffffffffff8211171561179d5761179c611746565b5b80604052505050565b60006117b0611241565b90506117bc8282611775565b919050565b6000815190506117d081611315565b92915050565b6000608082840312156117ec576117eb611730565b5b6117f660806117a6565b90506000611806848285016117c1565b600083015250602061181a848285016117c1565b602083015250604061182e848285016117c1565b6040830152506060611842848285016117c1565b60608301525092915050565b6000608082840312156118645761186361124b565b5b6000611872848285016117d6565b91505092915050565b7f4e487b7100000000000000000000000000000000000000000000000000000000600052601160045260246000fd5b60006118b58261130b565b91506118c08361130b565b9250828210156118d3576118d261187b565b5b828203905092915050565b60006118e98261130b565b91506118f48361130b565b9250817fffffffffffffffffffffffffffffffffffffffffffffffffffffffffffffffff048311821515161561192d5761192c61187b565b5b828202905092915050565b7f4e487b7100000000000000000000000000000000000000000000000000000000600052601260045260246000fd5b60006119728261130b565b915061197d8361130b565b92508261198d5761198c611938565b5b828204905092915050565b60006119a38261130b565b91506119ae8361130b565b9250827fffffffffffffffffffffffffffffffffffffffffffffffffffffffffffffffff038211156119e3576119e261187b565b5b828201905092915050565b6000606082019050611a03600083018661162b565b611a10602083018561163a565b611a1d604083018461163a565b949350505050565b611a2e816112d5565b8114611a3957600080fd5b50565b600081519050611a4b81611a25565b92915050565b600060208284031215611a6757611a6661124b565b5b6000611a7584828501611a3c565b91505092915050565b7f506f6f6c20646f6573206e6f7420657869737400000000000000000000000000600082015250565b6000611ab4601383611672565b9150611abf82611a7e565b602082019050919050565b60006020820190508181036000830152611ae381611aa7565b9050919050565b6000608082019050611aff600083018761162b565b611b0c602083018661162b565b611b19604083018561163a565b611b26606083018461163a565b95945050505050565b6000604082019050611b44600083018561162b565b611b51602083018461162b565b9392505050565b600060808284031215611b6e57611b6d611730565b5b611b7860806117a6565b90506000611b88848285016117c1565b6000830152506020611b9c848285016117c1565b6020830152506040611bb0848285016117c1565b6040830152506060611bc484828501611a3c565b60608301525092915050565b600060808284031215611be657611be561124b565b5b6000611bf484828501611b58565b91505092915050565b6000606082019050611c12600083018661162b565b611c1f602083018561162b565b611c2c604083018461163a565b949350505050565b600081905092915050565b7f416363657373436f6e74726f6c3a206163636f756e7420000000000000000000600082015250565b6000611c75601783611c34565b9150611c8082611c3f565b601782019050919050565b600081519050919050565b60005b83811015611cb4578082015181840152602081019050611c99565b83811115611cc3576000848401525b50505050565b6000611cd482611c8b565b611cde8185611c34565b9350611cee818560208601611c96565b80840191505092915050565b7f206973206d697373696e6720726f6c6520000000000000000000000000000000600082015250565b6000611d30601183611c34565b9150611d3b82611cfa565b601182019050919050565b6000611d5182611c68565b9150611d5d8285611cc9565b9150611d6882611d23565b9150611d748284611cc9565b91508190509392505050565b6000611d8b82611c8b565b611d958185611672565b9350611da5818560208601611c96565b611dae81611735565b840191505092915050565b60006020820190508181036000830152611dd38184611d80565b905092915050565b7f4e487b7100000000000000000000000000000000000000000000000000000000600052603260045260246000fd5b6000611e158261130b565b91506000821415611e2957611e2861187b565b5b600182039050919050565b7f537472696e67733a20686578206c656e67746820696e73756666696369656e74600082015250565b6000611e6a602083611672565b9150611e7582611e34565b602082019050919050565b60006020820190508181036000830152611e9981611e5d565b905091905056fea2646970667358221220c8e88b0bfbe056c3476bceb7602950774f098bf865564a2cce151a7c1aba942764736f6c634300080b0033",
  "linkReferences": {},
  "deployedLinkReferences": {}
}