{
  "_format": "hh-sol-artifact-1",
  "contractName": "RewardsV2",
  "sourceName": "contracts/rewards/Rewards.sol",
  "abi": [
    {
      "inputs": [
        {
          "internalType": "address",
          "name": "_vault",
          "type": "address"
        }
      ],
      "stateMutability": "nonpayable",
      "type": "constructor"
    },
    {
      "anonymous": false,
      "inputs": [
        {
          "indexed": false,
          "internalType": "address",
          "name": "_token",
          "type": "address"
        },
        {
          "indexed": false,
          "internalType": "uint256",
          "name": "_rewardsPerBlock",
          "type": "uint256"
        }
      ],
      "name": "AddPool",
      "type": "event"
    },
    {
      "anonymous": false,
      "inputs": [
        {
          "indexed": true,
          "internalType": "address",
          "name": "_token",
          "type": "address"
        },
        {
          "indexed": true,
          "internalType": "address",
          "name": "_user",
          "type": "address"
        },
        {
          "indexed": false,
          "internalType": "uint256",
          "name": "_amount",
          "type": "uint256"
        }
      ],
      "name": "Claim",
      "type": "event"
    },
    {
      "anonymous": false,
      "inputs": [
        {
          "indexed": true,
          "internalType": "address",
          "name": "_token",
          "type": "address"
        },
        {
          "indexed": true,
          "internalType": "address",
          "name": "_user",
          "type": "address"
        },
        {
          "indexed": false,
          "internalType": "uint256",
          "name": "_amount",
          "type": "uint256"
        }
      ],
      "name": "Deposit",
      "type": "event"
    },
    {
      "anonymous": false,
      "inputs": [
        {
          "indexed": false,
          "internalType": "address",
          "name": "account",
          "type": "address"
        }
      ],
      "name": "Paused",
      "type": "event"
    },
    {
      "anonymous": false,
      "inputs": [
        {
          "indexed": true,
          "internalType": "address",
          "name": "_token",
          "type": "address"
        },
        {
          "indexed": false,
          "internalType": "uint256",
          "name": "_block",
          "type": "uint256"
        }
      ],
      "name": "PoolUpdated",
      "type": "event"
    },
    {
      "anonymous": false,
      "inputs": [
        {
          "indexed": true,
          "internalType": "bytes32",
          "name": "role",
          "type": "bytes32"
        },
        {
          "indexed": true,
          "internalType": "bytes32",
          "name": "previousAdminRole",
          "type": "bytes32"
        },
        {
          "indexed": true,
          "internalType": "bytes32",
          "name": "newAdminRole",
          "type": "bytes32"
        }
      ],
      "name": "RoleAdminChanged",
      "type": "event"
    },
    {
      "anonymous": false,
      "inputs": [
        {
          "indexed": true,
          "internalType": "bytes32",
          "name": "role",
          "type": "bytes32"
        },
        {
          "indexed": true,
          "internalType": "address",
          "name": "account",
          "type": "address"
        },
        {
          "indexed": true,
          "internalType": "address",
          "name": "sender",
          "type": "address"
        }
      ],
      "name": "RoleGranted",
      "type": "event"
    },
    {
      "anonymous": false,
      "inputs": [
        {
          "indexed": true,
          "internalType": "bytes32",
          "name": "role",
          "type": "bytes32"
        },
        {
          "indexed": true,
          "internalType": "address",
          "name": "account",
          "type": "address"
        },
        {
          "indexed": true,
          "internalType": "address",
          "name": "sender",
          "type": "address"
        }
      ],
      "name": "RoleRevoked",
      "type": "event"
    },
    {
      "anonymous": false,
      "inputs": [
        {
          "indexed": false,
          "internalType": "address",
          "name": "_controller",
          "type": "address"
        }
      ],
      "name": "SetController",
      "type": "event"
    },
    {
      "anonymous": false,
      "inputs": [
        {
          "indexed": false,
          "internalType": "address",
          "name": "account",
          "type": "address"
        }
      ],
      "name": "Unpaused",
      "type": "event"
    },
    {
      "anonymous": false,
      "inputs": [
        {
          "indexed": true,
          "internalType": "address",
          "name": "_token",
          "type": "address"
        },
        {
          "indexed": true,
          "internalType": "address",
          "name": "_user",
          "type": "address"
        },
        {
          "indexed": false,
          "internalType": "uint256",
          "name": "_amount",
          "type": "uint256"
        }
      ],
      "name": "Withdraw",
      "type": "event"
    },
    {
      "inputs": [],
      "name": "DEFAULT_ADMIN_ROLE",
      "outputs": [
        {
          "internalType": "bytes32",
          "name": "",
          "type": "bytes32"
        }
      ],
      "stateMutability": "view",
      "type": "function"
    },
    {
      "inputs": [
        {
          "internalType": "address",
          "name": "_token",
          "type": "address"
        },
        {
          "internalType": "address",
          "name": "_user",
          "type": "address"
        }
      ],
      "name": "claim",
      "outputs": [],
      "stateMutability": "nonpayable",
      "type": "function"
    },
    {
      "inputs": [
        {
          "internalType": "address",
          "name": "_token",
          "type": "address"
        },
        {
          "internalType": "uint256",
          "name": "_amount",
          "type": "uint256"
        }
      ],
      "name": "deposit",
      "outputs": [],
      "stateMutability": "nonpayable",
      "type": "function"
    },
    {
      "inputs": [
        {
          "internalType": "bytes32",
          "name": "role",
          "type": "bytes32"
        }
      ],
      "name": "getRoleAdmin",
      "outputs": [
        {
          "internalType": "bytes32",
          "name": "",
          "type": "bytes32"
        }
      ],
      "stateMutability": "view",
      "type": "function"
    },
    {
      "inputs": [
        {
          "internalType": "bytes32",
          "name": "role",
          "type": "bytes32"
        },
        {
          "internalType": "address",
          "name": "account",
          "type": "address"
        }
      ],
      "name": "grantRole",
      "outputs": [],
      "stateMutability": "nonpayable",
      "type": "function"
    },
    {
      "inputs": [
        {
          "internalType": "bytes32",
          "name": "role",
          "type": "bytes32"
        },
        {
          "internalType": "address",
          "name": "account",
          "type": "address"
        }
      ],
      "name": "hasRole",
      "outputs": [
        {
          "internalType": "bool",
          "name": "",
          "type": "bool"
        }
      ],
      "stateMutability": "view",
      "type": "function"
    },
    {
      "inputs": [],
      "name": "paused",
      "outputs": [
        {
          "internalType": "bool",
          "name": "",
          "type": "bool"
        }
      ],
      "stateMutability": "view",
      "type": "function"
    },
    {
      "inputs": [
        {
          "internalType": "address",
          "name": "_token",
          "type": "address"
        },
        {
          "internalType": "address",
          "name": "_user",
          "type": "address"
        }
      ],
      "name": "pendingRewards",
      "outputs": [
        {
          "internalType": "uint256",
          "name": "pending",
          "type": "uint256"
        }
      ],
      "stateMutability": "nonpayable",
      "type": "function"
    },
    {
      "inputs": [
        {
          "internalType": "address",
          "name": "_token",
          "type": "address"
        },
        {
          "internalType": "address",
          "name": "_user",
          "type": "address"
        }
      ],
      "name": "pendingWithdrawals",
      "outputs": [
        {
          "internalType": "uint256",
          "name": "_unlockedAmount",
          "type": "uint256"
        }
      ],
      "stateMutability": "nonpayable",
      "type": "function"
    },
    {
      "inputs": [
        {
          "internalType": "bytes32",
          "name": "role",
          "type": "bytes32"
        },
        {
          "internalType": "address",
          "name": "account",
          "type": "address"
        }
      ],
      "name": "renounceRole",
      "outputs": [],
      "stateMutability": "nonpayable",
      "type": "function"
    },
    {
      "inputs": [
        {
          "internalType": "bytes32",
          "name": "role",
          "type": "bytes32"
        },
        {
          "internalType": "address",
          "name": "account",
          "type": "address"
        }
      ],
      "name": "revokeRole",
      "outputs": [],
      "stateMutability": "nonpayable",
      "type": "function"
    },
    {
      "inputs": [
        {
          "internalType": "address",
          "name": "_token",
          "type": "address"
        },
        {
          "internalType": "address",
          "name": "_user",
          "type": "address"
        },
        {
          "internalType": "bool",
          "name": "_active",
          "type": "bool"
        }
      ],
      "name": "setAutoCompound",
      "outputs": [],
      "stateMutability": "nonpayable",
      "type": "function"
    },
    {
      "inputs": [
        {
          "internalType": "address",
          "name": "_controller",
          "type": "address"
        }
      ],
      "name": "setController",
      "outputs": [],
      "stateMutability": "nonpayable",
      "type": "function"
    },
    {
      "inputs": [
        {
          "internalType": "address",
          "name": "_token",
          "type": "address"
        }
      ],
      "name": "setPool",
      "outputs": [
        {
          "components": [
            {
              "internalType": "uint256",
              "name": "totalPooled",
              "type": "uint256"
            },
            {
              "internalType": "uint256",
              "name": "rewardsPerBlock",
              "type": "uint256"
            },
            {
              "internalType": "uint256",
              "name": "accCaplPerShare",
              "type": "uint256"
            },
            {
              "internalType": "uint256",
              "name": "lastRewardBlock",
              "type": "uint256"
            }
          ],
          "internalType": "struct IPool.Pool",
          "name": "pool",
          "type": "tuple"
        }
      ],
      "stateMutability": "nonpayable",
      "type": "function"
    },
    {
      "inputs": [
        {
          "internalType": "bytes4",
          "name": "interfaceId",
          "type": "bytes4"
        }
      ],
      "name": "supportsInterface",
      "outputs": [
        {
          "internalType": "bool",
          "name": "",
          "type": "bool"
        }
      ],
      "stateMutability": "view",
      "type": "function"
    },
    {
      "inputs": [
        {
          "internalType": "address",
          "name": "_token",
          "type": "address"
        },
        {
          "internalType": "address",
          "name": "_user",
          "type": "address"
        }
      ],
      "name": "withdraw",
      "outputs": [],
      "stateMutability": "nonpayable",
      "type": "function"
    },
    {
      "inputs": [
        {
          "internalType": "address",
          "name": "_destination",
          "type": "address"
        }
      ],
      "name": "withdrawMATIC",
      "outputs": [],
      "stateMutability": "nonpayable",
      "type": "function"
    },
    {
      "inputs": [
        {
          "internalType": "address",
          "name": "_token",
          "type": "address"
        },
        {
          "internalType": "uint256",
          "name": "_amount",
          "type": "uint256"
        },
        {
          "internalType": "address",
          "name": "_destination",
          "type": "address"
        }
      ],
      "name": "withdrawToken",
      "outputs": [],
      "stateMutability": "nonpayable",
      "type": "function"
    }
  ],
  "bytecode": "0x6080604052670de0b6b3a76400006003553480156200001d57600080fd5b50604051620030393803806200303983398181016040528101906200004391906200029e565b60008060006101000a81548160ff02191690831515021790555080600260006101000a81548173ffffffffffffffffffffffffffffffffffffffff021916908373ffffffffffffffffffffffffffffffffffffffff160217905550620000b36000801b33620000ba60201b60201c565b50620002d0565b620000cc8282620000d060201b60201c565b5050565b620000e28282620001c160201b60201c565b620001bd57600180600084815260200190815260200160002060000160008373ffffffffffffffffffffffffffffffffffffffff1673ffffffffffffffffffffffffffffffffffffffff16815260200190815260200160002060006101000a81548160ff021916908315150217905550620001626200022c60201b60201c565b73ffffffffffffffffffffffffffffffffffffffff168173ffffffffffffffffffffffffffffffffffffffff16837f2f8788117e7eff1d82e926ec794901d17c78024a50270940304540a733656f0d60405160405180910390a45b5050565b60006001600084815260200190815260200160002060000160008373ffffffffffffffffffffffffffffffffffffffff1673ffffffffffffffffffffffffffffffffffffffff16815260200190815260200160002060009054906101000a900460ff16905092915050565b600033905090565b600080fd5b600073ffffffffffffffffffffffffffffffffffffffff82169050919050565b6000620002668262000239565b9050919050565b620002788162000259565b81146200028457600080fd5b50565b60008151905062000298816200026d565b92915050565b600060208284031215620002b757620002b662000234565b5b6000620002c78482850162000287565b91505092915050565b612d5980620002e06000396000f3fe608060405234801561001057600080fd5b50600436106101165760003560e01c806347e7ef24116100a257806392eefe9b1161007157806392eefe9b146102ed578063a217fddf14610309578063d547741f14610327578063e831be5814610343578063f940e3851461037357610116565b806347e7ef24146102535780635c975abb1461026f57806380ac82281461028d57806391d14854146102bd57610116565b80632f2ff15d116100e95780632f2ff15d146101b357806330e7e743146101cf57806336568abe146101eb5780633ccdbb28146102075780634437152a1461022357610116565b806301ffc9a71461011b5780630e174d721461014b57806321c0b34214610167578063248a9ca314610183575b600080fd5b61013560048036038101906101309190611dd4565b61038f565b6040516101429190611e1c565b60405180910390f35b61016560048036038101906101609190611ec1565b610409565b005b610181600480360381019061017c9190611f14565b61050d565b005b61019d60048036038101906101989190611f8a565b61085d565b6040516101aa9190611fc6565b60405180910390f35b6101cd60048036038101906101c89190611fe1565b61087d565b005b6101e960048036038101906101e49190612021565b6108a6565b005b61020560048036038101906102009190611fe1565b6108bf565b005b610221600480360381019061021c9190612084565b610942565b005b61023d60048036038101906102389190612021565b61095d565b60405161024a919061213b565b60405180910390f35b61026d60048036038101906102689190612156565b610c24565b005b6102776111ea565b6040516102849190611e1c565b60405180910390f35b6102a760048036038101906102a29190611f14565b611200565b6040516102b491906121a5565b60405180910390f35b6102d760048036038101906102d29190611fe1565b611499565b6040516102e49190611e1c565b60405180910390f35b61030760048036038101906103029190612021565b611504565b005b61031161155e565b60405161031e9190611fc6565b60405180910390f35b610341600480360381019061033c9190611fe1565b611565565b005b61035d60048036038101906103589190611f14565b61158e565b60405161036a91906121a5565b60405180910390f35b61038d60048036038101906103889190611f14565b611638565b005b60007f7965db0b000000000000000000000000000000000000000000000000000000007bffffffffffffffffffffffffffffffffffffffffffffffffffffffff1916827bffffffffffffffffffffffffffffffffffffffffffffffffffffffff1916148061040257506104018261182c565b5b9050919050565b8173ffffffffffffffffffffffffffffffffffffffff163373ffffffffffffffffffffffffffffffffffffffff1614610477576040517f08c379a000000000000000000000000000000000000000000000000000000000815260040161046e9061221d565b60405180910390fd5b600260009054906101000a900473ffffffffffffffffffffffffffffffffffffffff1673ffffffffffffffffffffffffffffffffffffffff16630e174d728484846040518463ffffffff1660e01b81526004016104d69392919061224c565b600060405180830381600087803b1580156104f057600080fd5b505af1158015610504573d6000803e3d6000fd5b50505050505050565b600560008373ffffffffffffffffffffffffffffffffffffffff1673ffffffffffffffffffffffffffffffffffffffff16815260200190815260200160002060008273ffffffffffffffffffffffffffffffffffffffff1673ffffffffffffffffffffffffffffffffffffffff16815260200190815260200160002060009054906101000a900460ff16156105d7576040517f08c379a00000000000000000000000000000000000000000000000000000000081526004016105ce906122cf565b60405180910390fd5b60006105e28361095d565b90506000600260009054906101000a900473ffffffffffffffffffffffffffffffffffffffff1673ffffffffffffffffffffffffffffffffffffffff166392a576e685856040518363ffffffff1660e01b81526004016106439291906122ef565b6000604051808303816000875af1158015610662573d6000803e3d6000fd5b505050506040513d6000823e3d601f19601f8201168201806040525081019061068b9190612562565b90506000600354836040015183602001516106a691906125da565b6106b09190612663565b905060008260400151826106c49190612694565b9050600260009054906101000a900473ffffffffffffffffffffffffffffffffffffffff1673ffffffffffffffffffffffffffffffffffffffff16638a5bff6b8787856040518463ffffffff1660e01b8152600401610725939291906126c8565b600060405180830381600087803b15801561073f57600080fd5b505af1158015610753573d6000803e3d6000fd5b5050505060008111156107f057600460009054906101000a900473ffffffffffffffffffffffffffffffffffffffff1673ffffffffffffffffffffffffffffffffffffffff166340c10f1986836040518363ffffffff1660e01b81526004016107bd9291906126ff565b600060405180830381600087803b1580156107d757600080fd5b505af11580156107eb573d6000803e3d6000fd5b505050505b8473ffffffffffffffffffffffffffffffffffffffff168673ffffffffffffffffffffffffffffffffffffffff167f70eb43c4a8ae8c40502dcf22436c509c28d6ff421cf07c491be56984bd9870688360405161084d91906121a5565b60405180910390a3505050505050565b600060016000838152602001908152602001600020600101549050919050565b6108868261085d565b61089781610892611896565b61189e565b6108a1838361193b565b505050565b6000801b6108bb816108b6611896565b61189e565b5050565b6108c7611896565b73ffffffffffffffffffffffffffffffffffffffff168173ffffffffffffffffffffffffffffffffffffffff1614610934576040517f08c379a000000000000000000000000000000000000000000000000000000000815260040161092b9061279a565b60405180910390fd5b61093e8282611a1b565b5050565b6000801b61095781610952611896565b61189e565b50505050565b610965611d40565b6000600260009054906101000a900473ffffffffffffffffffffffffffffffffffffffff1673ffffffffffffffffffffffffffffffffffffffff1663bbe4f6db846040518263ffffffff1660e01b81526004016109c291906127ba565b6080604051808303816000875af11580156109e1573d6000803e3d6000fd5b505050506040513d601f19601f82011682018060405250810190610a05919061284d565b90506000600260009054906101000a900473ffffffffffffffffffffffffffffffffffffffff1673ffffffffffffffffffffffffffffffffffffffff1663f2866c78856040518263ffffffff1660e01b8152600401610a6491906127ba565b6020604051808303816000875af1158015610a83573d6000803e3d6000fd5b505050506040513d601f19601f82011682018060405250810190610aa7919061287a565b905060008260600151431115610c1b576000821115610b15576000836060015143610ad29190612694565b90506000846020015182610ae691906125da565b90508360035482610af791906125da565b610b019190612663565b8560400151610b1091906128a7565b925050505b60004390506000600260009054906101000a900473ffffffffffffffffffffffffffffffffffffffff1673ffffffffffffffffffffffffffffffffffffffff16633dff45e98885856040518463ffffffff1660e01b8152600401610b7b939291906128fd565b6080604051808303816000875af1158015610b9a573d6000803e3d6000fd5b505050506040513d601f19601f82011682018060405250810190610bbe919061284d565b90508673ffffffffffffffffffffffffffffffffffffffff167f2f4ae87a584f00dc35b043dd1c5ac839c1f41cd3a66e834d4e13faa6251634e683604051610c0691906121a5565b60405180910390a28095505050505050610c1f565b5050505b919050565b600260009054906101000a900473ffffffffffffffffffffffffffffffffffffffff1673ffffffffffffffffffffffffffffffffffffffff1663999126d7836040518263ffffffff1660e01b8152600401610c7f91906127ba565b602060405180830381865afa158015610c9c573d6000803e3d6000fd5b505050506040513d601f19601f82011682018060405250810190610cc09190612934565b610cff576040517f08c379a0000000000000000000000000000000000000000000000000000000008152600401610cf6906129ad565b60405180910390fd5b6000610d0a8361095d565b90506000600354826040015184610d2191906125da565b610d2b9190612663565b9050600260009054906101000a900473ffffffffffffffffffffffffffffffffffffffff1673ffffffffffffffffffffffffffffffffffffffff166356e45e4b856040518263ffffffff1660e01b8152600401610d8891906127ba565b602060405180830381865afa158015610da5573d6000803e3d6000fd5b505050506040513d601f19601f82011682018060405250810190610dc99190612934565b610e6557600260009054906101000a900473ffffffffffffffffffffffffffffffffffffffff1673ffffffffffffffffffffffffffffffffffffffff1663f5b5d237853386856040518563ffffffff1660e01b8152600401610e2e94939291906129cd565b600060405180830381600087803b158015610e4857600080fd5b505af1158015610e5c573d6000803e3d6000fd5b505050506111e4565b600260009054906101000a900473ffffffffffffffffffffffffffffffffffffffff1673ffffffffffffffffffffffffffffffffffffffff1663d2456a95853386856040518563ffffffff1660e01b8152600401610ec694939291906129cd565b600060405180830381600087803b158015610ee057600080fd5b505af1158015610ef4573d6000803e3d6000fd5b505050506000600260009054906101000a900473ffffffffffffffffffffffffffffffffffffffff1673ffffffffffffffffffffffffffffffffffffffff16639338b7c986336040518363ffffffff1660e01b8152600401610f579291906122ef565b6080604051808303816000875af1158015610f76573d6000803e3d6000fd5b505050506040513d601f19601f82011682018060405250810190610f9a9190612a8a565b9050610fa98160200151611afd565b1561104457600260009054906101000a900473ffffffffffffffffffffffffffffffffffffffff1673ffffffffffffffffffffffffffffffffffffffff1663dfc2d1ba8633876040518463ffffffff1660e01b815260040161100d939291906126c8565b600060405180830381600087803b15801561102757600080fd5b505af115801561103b573d6000803e3d6000fd5b5050505061117d565b6000600260009054906101000a900473ffffffffffffffffffffffffffffffffffffffff1673ffffffffffffffffffffffffffffffffffffffff166312229f1387336040518363ffffffff1660e01b81526004016110a39291906122ef565b6020604051808303816000875af11580156110c2573d6000803e3d6000fd5b505050506040513d601f19601f820116820180604052508101906110e6919061287a565b9050600260009054906101000a900473ffffffffffffffffffffffffffffffffffffffff1673ffffffffffffffffffffffffffffffffffffffff16631b2aa575873388856040518563ffffffff1660e01b815260040161114994939291906129cd565b600060405180830381600087803b15801561116357600080fd5b505af1158015611177573d6000803e3d6000fd5b50505050505b3373ffffffffffffffffffffffffffffffffffffffff168573ffffffffffffffffffffffffffffffffffffffff167f5548c837ab068cf56a2c2479df0882a4922fd203edb7517321831d95078c5f62866040516111da91906121a5565b60405180910390a3505b50505050565b60008060009054906101000a900460ff16905090565b600080600260009054906101000a900473ffffffffffffffffffffffffffffffffffffffff1673ffffffffffffffffffffffffffffffffffffffff1663bbe4f6db856040518263ffffffff1660e01b815260040161125e91906127ba565b6080604051808303816000875af115801561127d573d6000803e3d6000fd5b505050506040513d601f19601f820116820180604052508101906112a1919061284d565b90506000600260009054906101000a900473ffffffffffffffffffffffffffffffffffffffff1673ffffffffffffffffffffffffffffffffffffffff166392a576e686866040518363ffffffff1660e01b81526004016113029291906122ef565b6000604051808303816000875af1158015611321573d6000803e3d6000fd5b505050506040513d6000823e3d601f19601f8201168201806040525081019061134a9190612562565b90506000826040015190506000600260009054906101000a900473ffffffffffffffffffffffffffffffffffffffff1673ffffffffffffffffffffffffffffffffffffffff1663f2866c78886040518263ffffffff1660e01b81526004016113b291906127ba565b6020604051808303816000875af11580156113d1573d6000803e3d6000fd5b505050506040513d601f19601f820116820180604052508101906113f5919061287a565b905083606001514311801561140b575060008114155b156114615760008460600151436114229190612694565b9050600085602001518261143691906125da565b9050826003548261144791906125da565b6114519190612663565b8461145c91906128a7565b935050505b826040015160035483856020015161147991906125da565b6114839190612663565b61148d9190612694565b94505050505092915050565b60006001600084815260200190815260200160002060000160008373ffffffffffffffffffffffffffffffffffffffff1673ffffffffffffffffffffffffffffffffffffffff16815260200190815260200160002060009054906101000a900460ff16905092915050565b6000801b61151981611514611896565b61189e565b81600460006101000a81548173ffffffffffffffffffffffffffffffffffffffff021916908373ffffffffffffffffffffffffffffffffffffffff1602179055505050565b6000801b81565b61156e8261085d565b61157f8161157a611896565b61189e565b6115898383611a1b565b505050565b6000600260009054906101000a900473ffffffffffffffffffffffffffffffffffffffff1673ffffffffffffffffffffffffffffffffffffffff16630122a7e884846040518363ffffffff1660e01b81526004016115ed9291906122ef565b6020604051808303816000875af115801561160c573d6000803e3d6000fd5b505050506040513d601f19601f82011682018060405250810190611630919061287a565b905092915050565b60006116438361095d565b90506000600260009054906101000a900473ffffffffffffffffffffffffffffffffffffffff1673ffffffffffffffffffffffffffffffffffffffff166392a576e685856040518363ffffffff1660e01b81526004016116a49291906122ef565b6000604051808303816000875af11580156116c3573d6000803e3d6000fd5b505050506040513d6000823e3d601f19601f820116820180604052508101906116ec9190612562565b905060006116fa858561158e565b9050600060035484604001518361171191906125da565b61171b9190612663565b836040015161172a9190612694565b9050600260009054906101000a900473ffffffffffffffffffffffffffffffffffffffff1673ffffffffffffffffffffffffffffffffffffffff16637bfe950c878785856040518563ffffffff1660e01b815260040161178d94939291906129cd565b600060405180830381600087803b1580156117a757600080fd5b505af11580156117bb573d6000803e3d6000fd5b505050508473ffffffffffffffffffffffffffffffffffffffff168673ffffffffffffffffffffffffffffffffffffffff167f9b1bfa7fa9ee420a16e124f794c35ac9f90472acc99140eb2f6447c714cad8eb8460405161181c91906121a5565b60405180910390a3505050505050565b60007f01ffc9a7000000000000000000000000000000000000000000000000000000007bffffffffffffffffffffffffffffffffffffffffffffffffffffffff1916827bffffffffffffffffffffffffffffffffffffffffffffffffffffffff1916149050919050565b600033905090565b6118a88282611499565b611937576118cd8173ffffffffffffffffffffffffffffffffffffffff166014611b04565b6118db8360001c6020611b04565b6040516020016118ec929190612bc9565b6040516020818303038152906040526040517f08c379a000000000000000000000000000000000000000000000000000000000815260040161192e9190612c3c565b60405180910390fd5b5050565b6119458282611499565b611a1757600180600084815260200190815260200160002060000160008373ffffffffffffffffffffffffffffffffffffffff1673ffffffffffffffffffffffffffffffffffffffff16815260200190815260200160002060006101000a81548160ff0219169083151502179055506119bc611896565b73ffffffffffffffffffffffffffffffffffffffff168173ffffffffffffffffffffffffffffffffffffffff16837f2f8788117e7eff1d82e926ec794901d17c78024a50270940304540a733656f0d60405160405180910390a45b5050565b611a258282611499565b15611af95760006001600084815260200190815260200160002060000160008373ffffffffffffffffffffffffffffffffffffffff1673ffffffffffffffffffffffffffffffffffffffff16815260200190815260200160002060006101000a81548160ff021916908315150217905550611a9e611896565b73ffffffffffffffffffffffffffffffffffffffff168173ffffffffffffffffffffffffffffffffffffffff16837ff6391f5c32d9c69d2a47ea670b442974b53935d1edc7fd64eb21e047a839171b60405160405180910390a45b5050565b6000919050565b606060006002836002611b1791906125da565b611b2191906128a7565b67ffffffffffffffff811115611b3a57611b3961232e565b5b6040519080825280601f01601f191660200182016040528015611b6c5781602001600182028036833780820191505090505b5090507f300000000000000000000000000000000000000000000000000000000000000081600081518110611ba457611ba3612c5e565b5b60200101907effffffffffffffffffffffffffffffffffffffffffffffffffffffffffffff1916908160001a9053507f780000000000000000000000000000000000000000000000000000000000000081600181518110611c0857611c07612c5e565b5b60200101907effffffffffffffffffffffffffffffffffffffffffffffffffffffffffffff1916908160001a90535060006001846002611c4891906125da565b611c5291906128a7565b90505b6001811115611cf2577f3031323334353637383961626364656600000000000000000000000000000000600f861660108110611c9457611c93612c5e565b5b1a60f81b828281518110611cab57611caa612c5e565b5b60200101907effffffffffffffffffffffffffffffffffffffffffffffffffffffffffffff1916908160001a905350600485901c945080611ceb90612c8d565b9050611c55565b5060008414611d36576040517f08c379a0000000000000000000000000000000000000000000000000000000008152600401611d2d90612d03565b60405180910390fd5b8091505092915050565b6040518060800160405280600081526020016000815260200160008152602001600081525090565b6000604051905090565b600080fd5b600080fd5b60007fffffffff0000000000000000000000000000000000000000000000000000000082169050919050565b611db181611d7c565b8114611dbc57600080fd5b50565b600081359050611dce81611da8565b92915050565b600060208284031215611dea57611de9611d72565b5b6000611df884828501611dbf565b91505092915050565b60008115159050919050565b611e1681611e01565b82525050565b6000602082019050611e316000830184611e0d565b92915050565b600073ffffffffffffffffffffffffffffffffffffffff82169050919050565b6000611e6282611e37565b9050919050565b611e7281611e57565b8114611e7d57600080fd5b50565b600081359050611e8f81611e69565b92915050565b611e9e81611e01565b8114611ea957600080fd5b50565b600081359050611ebb81611e95565b92915050565b600080600060608486031215611eda57611ed9611d72565b5b6000611ee886828701611e80565b9350506020611ef986828701611e80565b9250506040611f0a86828701611eac565b9150509250925092565b60008060408385031215611f2b57611f2a611d72565b5b6000611f3985828601611e80565b9250506020611f4a85828601611e80565b9150509250929050565b6000819050919050565b611f6781611f54565b8114611f7257600080fd5b50565b600081359050611f8481611f5e565b92915050565b600060208284031215611fa057611f9f611d72565b5b6000611fae84828501611f75565b91505092915050565b611fc081611f54565b82525050565b6000602082019050611fdb6000830184611fb7565b92915050565b60008060408385031215611ff857611ff7611d72565b5b600061200685828601611f75565b925050602061201785828601611e80565b9150509250929050565b60006020828403121561203757612036611d72565b5b600061204584828501611e80565b91505092915050565b6000819050919050565b6120618161204e565b811461206c57600080fd5b50565b60008135905061207e81612058565b92915050565b60008060006060848603121561209d5761209c611d72565b5b60006120ab86828701611e80565b93505060206120bc8682870161206f565b92505060406120cd86828701611e80565b9150509250925092565b6120e08161204e565b82525050565b6080820160008201516120fc60008501826120d7565b50602082015161210f60208501826120d7565b50604082015161212260408501826120d7565b50606082015161213560608501826120d7565b50505050565b600060808201905061215060008301846120e6565b92915050565b6000806040838503121561216d5761216c611d72565b5b600061217b85828601611e80565b925050602061218c8582860161206f565b9150509250929050565b61219f8161204e565b82525050565b60006020820190506121ba6000830184612196565b92915050565b600082825260208201905092915050565b7f696e636f72726563742075736572000000000000000000000000000000000000600082015250565b6000612207600e836121c0565b9150612212826121d1565b602082019050919050565b60006020820190508181036000830152612236816121fa565b9050919050565b61224681611e57565b82525050565b6000606082019050612261600083018661223d565b61226e602083018561223d565b61227b6040830184611e0d565b949350505050565b7f6175746f636f6d706f756e64696e67206973206f6e0000000000000000000000600082015250565b60006122b96015836121c0565b91506122c482612283565b602082019050919050565b600060208201905081810360008301526122e8816122ac565b9050919050565b6000604082019050612304600083018561223d565b612311602083018461223d565b9392505050565b600080fd5b6000601f19601f8301169050919050565b7f4e487b7100000000000000000000000000000000000000000000000000000000600052604160045260246000fd5b6123668261231d565b810181811067ffffffffffffffff821117156123855761238461232e565b5b80604052505050565b6000612398611d68565b90506123a4828261235d565b919050565b600080fd5b6000815190506123bd81611e69565b92915050565b6000815190506123d281612058565b92915050565b600080fd5b600067ffffffffffffffff8211156123f8576123f761232e565b5b602082029050602081019050919050565b600080fd5b600061242161241c846123dd565b61238e565b9050808382526020820190506020840283018581111561244457612443612409565b5b835b8181101561246d578061245988826123c3565b845260208401935050602081019050612446565b5050509392505050565b600082601f83011261248c5761248b6123d8565b5b815161249c84826020860161240e565b91505092915050565b6000815190506124b481611e95565b92915050565b600060a082840312156124d0576124cf612318565b5b6124da60a061238e565b905060006124ea848285016123ae565b60008301525060206124fe848285016123c3565b6020830152506040612512848285016123c3565b604083015250606082015167ffffffffffffffff811115612536576125356123a9565b5b61254284828501612477565b6060830152506080612556848285016124a5565b60808301525092915050565b60006020828403121561257857612577611d72565b5b600082015167ffffffffffffffff81111561259657612595611d77565b5b6125a2848285016124ba565b91505092915050565b7f4e487b7100000000000000000000000000000000000000000000000000000000600052601160045260246000fd5b60006125e58261204e565b91506125f08361204e565b9250817fffffffffffffffffffffffffffffffffffffffffffffffffffffffffffffffff0483118215151615612629576126286125ab565b5b828202905092915050565b7f4e487b7100000000000000000000000000000000000000000000000000000000600052601260045260246000fd5b600061266e8261204e565b91506126798361204e565b92508261268957612688612634565b5b828204905092915050565b600061269f8261204e565b91506126aa8361204e565b9250828210156126bd576126bc6125ab565b5b828203905092915050565b60006060820190506126dd600083018661223d565b6126ea602083018561223d565b6126f76040830184612196565b949350505050565b6000604082019050612714600083018561223d565b6127216020830184612196565b9392505050565b7f416363657373436f6e74726f6c3a2063616e206f6e6c792072656e6f756e636560008201527f20726f6c657320666f722073656c660000000000000000000000000000000000602082015250565b6000612784602f836121c0565b915061278f82612728565b604082019050919050565b600060208201905081810360008301526127b381612777565b9050919050565b60006020820190506127cf600083018461223d565b92915050565b6000608082840312156127eb576127ea612318565b5b6127f5608061238e565b90506000612805848285016123c3565b6000830152506020612819848285016123c3565b602083015250604061282d848285016123c3565b6040830152506060612841848285016123c3565b60608301525092915050565b60006080828403121561286357612862611d72565b5b6000612871848285016127d5565b91505092915050565b6000602082840312156128905761288f611d72565b5b600061289e848285016123c3565b91505092915050565b60006128b28261204e565b91506128bd8361204e565b9250827fffffffffffffffffffffffffffffffffffffffffffffffffffffffffffffffff038211156128f2576128f16125ab565b5b828201905092915050565b6000606082019050612912600083018661223d565b61291f6020830185612196565b61292c6040830184612196565b949350505050565b60006020828403121561294a57612949611d72565b5b6000612958848285016124a5565b91505092915050565b7f506f6f6c20646f6573206e6f7420657869737400000000000000000000000000600082015250565b60006129976013836121c0565b91506129a282612961565b602082019050919050565b600060208201905081810360008301526129c68161298a565b9050919050565b60006080820190506129e2600083018761223d565b6129ef602083018661223d565b6129fc6040830185612196565b612a096060830184612196565b95945050505050565b600060808284031215612a2857612a27612318565b5b612a32608061238e565b90506000612a42848285016123c3565b6000830152506020612a56848285016123c3565b6020830152506040612a6a848285016123c3565b6040830152506060612a7e848285016124a5565b60608301525092915050565b600060808284031215612aa057612a9f611d72565b5b6000612aae84828501612a12565b91505092915050565b600081905092915050565b7f416363657373436f6e74726f6c3a206163636f756e7420000000000000000000600082015250565b6000612af8601783612ab7565b9150612b0382612ac2565b601782019050919050565b600081519050919050565b60005b83811015612b37578082015181840152602081019050612b1c565b83811115612b46576000848401525b50505050565b6000612b5782612b0e565b612b618185612ab7565b9350612b71818560208601612b19565b80840191505092915050565b7f206973206d697373696e6720726f6c6520000000000000000000000000000000600082015250565b6000612bb3601183612ab7565b9150612bbe82612b7d565b601182019050919050565b6000612bd482612aeb565b9150612be08285612b4c565b9150612beb82612ba6565b9150612bf78284612b4c565b91508190509392505050565b6000612c0e82612b0e565b612c1881856121c0565b9350612c28818560208601612b19565b612c318161231d565b840191505092915050565b60006020820190508181036000830152612c568184612c03565b905092915050565b7f4e487b7100000000000000000000000000000000000000000000000000000000600052603260045260246000fd5b6000612c988261204e565b91506000821415612cac57612cab6125ab565b5b600182039050919050565b7f537472696e67733a20686578206c656e67746820696e73756666696369656e74600082015250565b6000612ced6020836121c0565b9150612cf882612cb7565b602082019050919050565b60006020820190508181036000830152612d1c81612ce0565b905091905056fea26469706673582212206ea916b254f1488608df8a40201c73b728429d458c499479677d7c935999613e64736f6c634300080b0033",
  "linkReferences": {},
  "deployedLinkReferences": {}
}