{
  "_format": "hh-sol-artifact-1",
  "contractName": "RewardsV2",
  "sourceName": "contracts/rewards/Rewards.sol",
  "abi": [
    {
      "inputs": [
        {
          "internalType": "address",
          "name": "_vault",
          "type": "address"
        }
      ],
      "stateMutability": "nonpayable",
      "type": "constructor"
    },
    {
      "anonymous": false,
      "inputs": [
        {
          "indexed": false,
          "internalType": "address",
          "name": "_token",
          "type": "address"
        },
        {
          "indexed": false,
          "internalType": "uint256",
          "name": "_rewardsPerBlock",
          "type": "uint256"
        }
      ],
      "name": "AddPool",
      "type": "event"
    },
    {
      "anonymous": false,
      "inputs": [
        {
          "indexed": true,
          "internalType": "address",
          "name": "_token",
          "type": "address"
        },
        {
          "indexed": true,
          "internalType": "address",
          "name": "_user",
          "type": "address"
        },
        {
          "indexed": false,
          "internalType": "uint256",
          "name": "_amount",
          "type": "uint256"
        }
      ],
      "name": "Claim",
      "type": "event"
    },
    {
      "anonymous": false,
      "inputs": [
        {
          "indexed": true,
          "internalType": "address",
          "name": "_token",
          "type": "address"
        },
        {
          "indexed": true,
          "internalType": "address",
          "name": "_user",
          "type": "address"
        },
        {
          "indexed": false,
          "internalType": "uint256",
          "name": "_amount",
          "type": "uint256"
        }
      ],
      "name": "Deposit",
      "type": "event"
    },
    {
      "anonymous": false,
      "inputs": [
        {
          "indexed": false,
          "internalType": "address",
          "name": "account",
          "type": "address"
        }
      ],
      "name": "Paused",
      "type": "event"
    },
    {
      "anonymous": false,
      "inputs": [
        {
          "indexed": true,
          "internalType": "address",
          "name": "_token",
          "type": "address"
        },
        {
          "indexed": false,
          "internalType": "uint256",
          "name": "_block",
          "type": "uint256"
        }
      ],
      "name": "PoolUpdated",
      "type": "event"
    },
    {
      "anonymous": false,
      "inputs": [
        {
          "indexed": true,
          "internalType": "bytes32",
          "name": "role",
          "type": "bytes32"
        },
        {
          "indexed": true,
          "internalType": "bytes32",
          "name": "previousAdminRole",
          "type": "bytes32"
        },
        {
          "indexed": true,
          "internalType": "bytes32",
          "name": "newAdminRole",
          "type": "bytes32"
        }
      ],
      "name": "RoleAdminChanged",
      "type": "event"
    },
    {
      "anonymous": false,
      "inputs": [
        {
          "indexed": true,
          "internalType": "bytes32",
          "name": "role",
          "type": "bytes32"
        },
        {
          "indexed": true,
          "internalType": "address",
          "name": "account",
          "type": "address"
        },
        {
          "indexed": true,
          "internalType": "address",
          "name": "sender",
          "type": "address"
        }
      ],
      "name": "RoleGranted",
      "type": "event"
    },
    {
      "anonymous": false,
      "inputs": [
        {
          "indexed": true,
          "internalType": "bytes32",
          "name": "role",
          "type": "bytes32"
        },
        {
          "indexed": true,
          "internalType": "address",
          "name": "account",
          "type": "address"
        },
        {
          "indexed": true,
          "internalType": "address",
          "name": "sender",
          "type": "address"
        }
      ],
      "name": "RoleRevoked",
      "type": "event"
    },
    {
      "anonymous": false,
      "inputs": [
        {
          "indexed": false,
          "internalType": "address",
          "name": "_controller",
          "type": "address"
        }
      ],
      "name": "SetController",
      "type": "event"
    },
    {
      "anonymous": false,
      "inputs": [
        {
          "indexed": false,
          "internalType": "address",
          "name": "account",
          "type": "address"
        }
      ],
      "name": "Unpaused",
      "type": "event"
    },
    {
      "anonymous": false,
      "inputs": [
        {
          "indexed": true,
          "internalType": "address",
          "name": "_token",
          "type": "address"
        },
        {
          "indexed": true,
          "internalType": "address",
          "name": "_user",
          "type": "address"
        },
        {
          "indexed": false,
          "internalType": "uint256",
          "name": "_amount",
          "type": "uint256"
        }
      ],
      "name": "Withdraw",
      "type": "event"
    },
    {
      "anonymous": false,
      "inputs": [
        {
          "indexed": false,
          "internalType": "address",
          "name": "destination",
          "type": "address"
        },
        {
          "indexed": false,
          "internalType": "uint256",
          "name": "amount",
          "type": "uint256"
        }
      ],
      "name": "WithdrawMATIC",
      "type": "event"
    },
    {
      "inputs": [],
      "name": "DEFAULT_ADMIN_ROLE",
      "outputs": [
        {
          "internalType": "bytes32",
          "name": "",
          "type": "bytes32"
        }
      ],
      "stateMutability": "view",
      "type": "function"
    },
    {
      "inputs": [
        {
          "internalType": "address",
          "name": "_token",
          "type": "address"
        },
        {
          "internalType": "uint256",
          "name": "_rewardsPerBlock",
          "type": "uint256"
        }
      ],
      "name": "addPool",
      "outputs": [],
      "stateMutability": "nonpayable",
      "type": "function"
    },
    {
      "inputs": [
        {
          "internalType": "address",
          "name": "_token",
          "type": "address"
        },
        {
          "internalType": "address",
          "name": "_user",
          "type": "address"
        }
      ],
      "name": "claim",
      "outputs": [],
      "stateMutability": "nonpayable",
      "type": "function"
    },
    {
      "inputs": [
        {
          "internalType": "address",
          "name": "_token",
          "type": "address"
        },
        {
          "internalType": "uint256",
          "name": "_amount",
          "type": "uint256"
        }
      ],
      "name": "deposit",
      "outputs": [],
      "stateMutability": "nonpayable",
      "type": "function"
    },
    {
      "inputs": [
        {
          "internalType": "bytes32",
          "name": "role",
          "type": "bytes32"
        }
      ],
      "name": "getRoleAdmin",
      "outputs": [
        {
          "internalType": "bytes32",
          "name": "",
          "type": "bytes32"
        }
      ],
      "stateMutability": "view",
      "type": "function"
    },
    {
      "inputs": [
        {
          "internalType": "bytes32",
          "name": "role",
          "type": "bytes32"
        },
        {
          "internalType": "address",
          "name": "account",
          "type": "address"
        }
      ],
      "name": "grantRole",
      "outputs": [],
      "stateMutability": "nonpayable",
      "type": "function"
    },
    {
      "inputs": [
        {
          "internalType": "bytes32",
          "name": "role",
          "type": "bytes32"
        },
        {
          "internalType": "address",
          "name": "account",
          "type": "address"
        }
      ],
      "name": "hasRole",
      "outputs": [
        {
          "internalType": "bool",
          "name": "",
          "type": "bool"
        }
      ],
      "stateMutability": "view",
      "type": "function"
    },
    {
      "inputs": [],
      "name": "paused",
      "outputs": [
        {
          "internalType": "bool",
          "name": "",
          "type": "bool"
        }
      ],
      "stateMutability": "view",
      "type": "function"
    },
    {
      "inputs": [
        {
          "internalType": "address",
          "name": "_token",
          "type": "address"
        },
        {
          "internalType": "address",
          "name": "_user",
          "type": "address"
        }
      ],
      "name": "pendingRewards",
      "outputs": [
        {
          "internalType": "uint256",
          "name": "pending",
          "type": "uint256"
        }
      ],
      "stateMutability": "nonpayable",
      "type": "function"
    },
    {
      "inputs": [
        {
          "internalType": "bytes32",
          "name": "role",
          "type": "bytes32"
        },
        {
          "internalType": "address",
          "name": "account",
          "type": "address"
        }
      ],
      "name": "renounceRole",
      "outputs": [],
      "stateMutability": "nonpayable",
      "type": "function"
    },
    {
      "inputs": [
        {
          "internalType": "bytes32",
          "name": "role",
          "type": "bytes32"
        },
        {
          "internalType": "address",
          "name": "account",
          "type": "address"
        }
      ],
      "name": "revokeRole",
      "outputs": [],
      "stateMutability": "nonpayable",
      "type": "function"
    },
    {
      "inputs": [
        {
          "internalType": "address",
          "name": "_controller",
          "type": "address"
        }
      ],
      "name": "setController",
      "outputs": [],
      "stateMutability": "nonpayable",
      "type": "function"
    },
    {
      "inputs": [
        {
          "internalType": "bytes4",
          "name": "interfaceId",
          "type": "bytes4"
        }
      ],
      "name": "supportsInterface",
      "outputs": [
        {
          "internalType": "bool",
          "name": "",
          "type": "bool"
        }
      ],
      "stateMutability": "view",
      "type": "function"
    },
    {
      "inputs": [
        {
          "internalType": "address",
          "name": "_token",
          "type": "address"
        }
      ],
      "name": "updatePool",
      "outputs": [
        {
          "components": [
            {
              "internalType": "uint256",
              "name": "totalPooled",
              "type": "uint256"
            },
            {
              "internalType": "uint256",
              "name": "rewardsPerBlock",
              "type": "uint256"
            },
            {
              "internalType": "uint256",
              "name": "accCaplPerShare",
              "type": "uint256"
            },
            {
              "internalType": "uint256",
              "name": "lastRewardBlock",
              "type": "uint256"
            }
          ],
          "internalType": "struct IPool.Pool",
          "name": "pool",
          "type": "tuple"
        }
      ],
      "stateMutability": "nonpayable",
      "type": "function"
    },
    {
      "inputs": [
        {
          "internalType": "address",
          "name": "_token",
          "type": "address"
        },
        {
          "internalType": "address",
          "name": "_user",
          "type": "address"
        }
      ],
      "name": "withdraw",
      "outputs": [],
      "stateMutability": "nonpayable",
      "type": "function"
    },
    {
      "inputs": [],
      "name": "withdrawMATIC",
      "outputs": [],
      "stateMutability": "nonpayable",
      "type": "function"
    },
    {
      "inputs": [
        {
          "internalType": "address",
          "name": "_token",
          "type": "address"
        },
        {
          "internalType": "uint256",
          "name": "_amount",
          "type": "uint256"
        },
        {
          "internalType": "address",
          "name": "_destination",
          "type": "address"
        }
      ],
      "name": "withdrawToken",
      "outputs": [],
      "stateMutability": "nonpayable",
      "type": "function"
    }
  ],
  "bytecode": "0x6080604052670de0b6b3a764000060035562093a806005553480156200002457600080fd5b5060405162002f1938038062002f1983398181016040528101906200004a9190620002a5565b60008060006101000a81548160ff02191690831515021790555080600260006101000a81548173ffffffffffffffffffffffffffffffffffffffff021916908373ffffffffffffffffffffffffffffffffffffffff160217905550620000ba6000801b33620000c160201b60201c565b50620002d7565b620000d38282620000d760201b60201c565b5050565b620000e98282620001c860201b60201c565b620001c457600180600084815260200190815260200160002060000160008373ffffffffffffffffffffffffffffffffffffffff1673ffffffffffffffffffffffffffffffffffffffff16815260200190815260200160002060006101000a81548160ff021916908315150217905550620001696200023360201b60201c565b73ffffffffffffffffffffffffffffffffffffffff168173ffffffffffffffffffffffffffffffffffffffff16837f2f8788117e7eff1d82e926ec794901d17c78024a50270940304540a733656f0d60405160405180910390a45b5050565b60006001600084815260200190815260200160002060000160008373ffffffffffffffffffffffffffffffffffffffff1673ffffffffffffffffffffffffffffffffffffffff16815260200190815260200160002060009054906101000a900460ff16905092915050565b600033905090565b600080fd5b600073ffffffffffffffffffffffffffffffffffffffff82169050919050565b60006200026d8262000240565b9050919050565b6200027f8162000260565b81146200028b57600080fd5b50565b6000815190506200029f8162000274565b92915050565b600060208284031215620002be57620002bd6200023b565b5b6000620002ce848285016200028e565b91505092915050565b612c3280620002e76000396000f3fe608060405234801561001057600080fd5b506004361061010b5760003560e01c80635c975abb116100a257806392eefe9b1161007157806392eefe9b146102c6578063a217fddf146102e2578063d547741f14610300578063d99f66681461031c578063f940e385146103265761010b565b80635c975abb146102185780637b46c54f1461023657806380ac82281461026657806391d14854146102965761010b565b806332a9caba116100de57806332a9caba146101a857806336568abe146101c45780633ccdbb28146101e057806347e7ef24146101fc5761010b565b806301ffc9a71461011057806321c0b34214610140578063248a9ca31461015c5780632f2ff15d1461018c575b600080fd5b61012a60048036038101906101259190611db9565b610342565b6040516101379190611e01565b60405180910390f35b61015a60048036038101906101559190611e7a565b6103bc565b005b61017660048036038101906101719190611ef0565b610642565b6040516101839190611f2c565b60405180910390f35b6101a660048036038101906101a19190611f47565b610662565b005b6101c260048036038101906101bd9190611fbd565b61068b565b005b6101de60048036038101906101d99190611f47565b610734565b005b6101fa60048036038101906101f59190611ffd565b6107b7565b005b61021660048036038101906102119190611fbd565b6107d2565b005b610220610e29565b60405161022d9190611e01565b60405180910390f35b610250600480360381019061024b9190612050565b610e3f565b60405161025d91906120e1565b60405180910390f35b610280600480360381019061027b9190611e7a565b611106565b60405161028d919061210b565b60405180910390f35b6102b060048036038101906102ab9190611f47565b61139f565b6040516102bd9190611e01565b60405180910390f35b6102e060048036038101906102db9190612050565b61140a565b005b6102ea611464565b6040516102f79190611f2c565b60405180910390f35b61031a60048036038101906103159190611f47565b61146b565b005b610324611494565b005b610340600480360381019061033b9190611e7a565b611575565b005b60007f7965db0b000000000000000000000000000000000000000000000000000000007bffffffffffffffffffffffffffffffffffffffffffffffffffffffff1916827bffffffffffffffffffffffffffffffffffffffffffffffffffffffff191614806103b557506103b4826117ff565b5b9050919050565b60006103c783610e3f565b90506000600260009054906101000a900473ffffffffffffffffffffffffffffffffffffffff1673ffffffffffffffffffffffffffffffffffffffff166392a576e685856040518363ffffffff1660e01b8152600401610428929190612135565b6000604051808303816000875af1158015610447573d6000803e3d6000fd5b505050506040513d6000823e3d601f19601f820116820180604052508101906104709190612436565b905060006003548360400151836000015161048b91906124ae565b6104959190612537565b905060008260200151826104a99190612568565b9050600260009054906101000a900473ffffffffffffffffffffffffffffffffffffffff1673ffffffffffffffffffffffffffffffffffffffff16638a5bff6b8787856040518463ffffffff1660e01b815260040161050a9392919061259c565b600060405180830381600087803b15801561052457600080fd5b505af1158015610538573d6000803e3d6000fd5b5050505060008111156105d557600460009054906101000a900473ffffffffffffffffffffffffffffffffffffffff1673ffffffffffffffffffffffffffffffffffffffff166340c10f1986836040518363ffffffff1660e01b81526004016105a29291906125d3565b600060405180830381600087803b1580156105bc57600080fd5b505af11580156105d0573d6000803e3d6000fd5b505050505b8473ffffffffffffffffffffffffffffffffffffffff168673ffffffffffffffffffffffffffffffffffffffff167f70eb43c4a8ae8c40502dcf22436c509c28d6ff421cf07c491be56984bd98706883604051610632919061210b565b60405180910390a3505050505050565b600060016000838152602001908152602001600020600101549050919050565b61066b82610642565b61067c81610677611869565b611871565b610686838361190e565b505050565b6000801b6106a08161069b611869565b611871565b600260009054906101000a900473ffffffffffffffffffffffffffffffffffffffff1673ffffffffffffffffffffffffffffffffffffffff166332a9caba84846040518363ffffffff1660e01b81526004016106fd9291906125d3565b600060405180830381600087803b15801561071757600080fd5b505af115801561072b573d6000803e3d6000fd5b50505050505050565b61073c611869565b73ffffffffffffffffffffffffffffffffffffffff168173ffffffffffffffffffffffffffffffffffffffff16146107a9576040517f08c379a00000000000000000000000000000000000000000000000000000000081526004016107a09061267f565b60405180910390fd5b6107b382826119ee565b5050565b6000801b6107cc816107c7611869565b611871565b50505050565b600260009054906101000a900473ffffffffffffffffffffffffffffffffffffffff1673ffffffffffffffffffffffffffffffffffffffff1663999126d7836040518263ffffffff1660e01b815260040161082d919061269f565b602060405180830381865afa15801561084a573d6000803e3d6000fd5b505050506040513d601f19601f8201168201806040525081019061086e91906126ba565b6108ad576040517f08c379a00000000000000000000000000000000000000000000000000000000081526004016108a490612733565b60405180910390fd5b60006108b883610e3f565b905060006003548260400151846108cf91906124ae565b6108d99190612537565b9050600260009054906101000a900473ffffffffffffffffffffffffffffffffffffffff1673ffffffffffffffffffffffffffffffffffffffff166356e45e4b856040518263ffffffff1660e01b8152600401610936919061269f565b602060405180830381865afa158015610953573d6000803e3d6000fd5b505050506040513d601f19601f8201168201806040525081019061097791906126ba565b610a1357600260009054906101000a900473ffffffffffffffffffffffffffffffffffffffff1673ffffffffffffffffffffffffffffffffffffffff1663f5b5d237853386856040518563ffffffff1660e01b81526004016109dc9493929190612753565b600060405180830381600087803b1580156109f657600080fd5b505af1158015610a0a573d6000803e3d6000fd5b50505050610d2d565b600260009054906101000a900473ffffffffffffffffffffffffffffffffffffffff1673ffffffffffffffffffffffffffffffffffffffff1663d2456a95853386856040518563ffffffff1660e01b8152600401610a749493929190612753565b600060405180830381600087803b158015610a8e57600080fd5b505af1158015610aa2573d6000803e3d6000fd5b505050506000600260009054906101000a900473ffffffffffffffffffffffffffffffffffffffff1673ffffffffffffffffffffffffffffffffffffffff16639338b7c986336040518363ffffffff1660e01b8152600401610b05929190612135565b6080604051808303816000875af1158015610b24573d6000803e3d6000fd5b505050506040513d601f19601f82011682018060405250810190610b489190612798565b9050610b578160200151611ad0565b15610bf257600260009054906101000a900473ffffffffffffffffffffffffffffffffffffffff1673ffffffffffffffffffffffffffffffffffffffff1663dfc2d1ba8633876040518463ffffffff1660e01b8152600401610bbb9392919061259c565b600060405180830381600087803b158015610bd557600080fd5b505af1158015610be9573d6000803e3d6000fd5b50505050610d2b565b6000600260009054906101000a900473ffffffffffffffffffffffffffffffffffffffff1673ffffffffffffffffffffffffffffffffffffffff166312229f1387336040518363ffffffff1660e01b8152600401610c51929190612135565b6020604051808303816000875af1158015610c70573d6000803e3d6000fd5b505050506040513d601f19601f82011682018060405250810190610c9491906127c5565b9050600260009054906101000a900473ffffffffffffffffffffffffffffffffffffffff1673ffffffffffffffffffffffffffffffffffffffff16631b2aa575873388856040518563ffffffff1660e01b8152600401610cf79493929190612753565b600060405180830381600087803b158015610d1157600080fd5b505af1158015610d25573d6000803e3d6000fd5b50505050505b505b600260009054906101000a900473ffffffffffffffffffffffffffffffffffffffff1673ffffffffffffffffffffffffffffffffffffffff16638340f5498533866040518463ffffffff1660e01b8152600401610d8c9392919061259c565b600060405180830381600087803b158015610da657600080fd5b505af1158015610dba573d6000803e3d6000fd5b505050503373ffffffffffffffffffffffffffffffffffffffff168473ffffffffffffffffffffffffffffffffffffffff167f5548c837ab068cf56a2c2479df0882a4922fd203edb7517321831d95078c5f6285604051610e1b919061210b565b60405180910390a350505050565b60008060009054906101000a900460ff16905090565b610e47611d25565b6000600260009054906101000a900473ffffffffffffffffffffffffffffffffffffffff1673ffffffffffffffffffffffffffffffffffffffff1663bbe4f6db846040518263ffffffff1660e01b8152600401610ea4919061269f565b6080604051808303816000875af1158015610ec3573d6000803e3d6000fd5b505050506040513d601f19601f82011682018060405250810190610ee7919061286a565b90506000600260009054906101000a900473ffffffffffffffffffffffffffffffffffffffff1673ffffffffffffffffffffffffffffffffffffffff1663f2866c78856040518263ffffffff1660e01b8152600401610f46919061269f565b6020604051808303816000875af1158015610f65573d6000803e3d6000fd5b505050506040513d601f19601f82011682018060405250810190610f8991906127c5565b9050600082606001514311156110fd576000821115610ff7576000836060015143610fb49190612568565b90506000846020015182610fc891906124ae565b90508360035482610fd991906124ae565b610fe39190612537565b8560400151610ff29190612897565b925050505b60004390506000600260009054906101000a900473ffffffffffffffffffffffffffffffffffffffff1673ffffffffffffffffffffffffffffffffffffffff1663695c0bb88885856040518463ffffffff1660e01b815260040161105d939291906128ed565b6080604051808303816000875af115801561107c573d6000803e3d6000fd5b505050506040513d601f19601f820116820180604052508101906110a0919061286a565b90508673ffffffffffffffffffffffffffffffffffffffff167f2f4ae87a584f00dc35b043dd1c5ac839c1f41cd3a66e834d4e13faa6251634e6836040516110e8919061210b565b60405180910390a28095505050505050611101565b5050505b919050565b600080600260009054906101000a900473ffffffffffffffffffffffffffffffffffffffff1673ffffffffffffffffffffffffffffffffffffffff1663bbe4f6db856040518263ffffffff1660e01b8152600401611164919061269f565b6080604051808303816000875af1158015611183573d6000803e3d6000fd5b505050506040513d601f19601f820116820180604052508101906111a7919061286a565b90506000600260009054906101000a900473ffffffffffffffffffffffffffffffffffffffff1673ffffffffffffffffffffffffffffffffffffffff166392a576e686866040518363ffffffff1660e01b8152600401611208929190612135565b6000604051808303816000875af1158015611227573d6000803e3d6000fd5b505050506040513d6000823e3d601f19601f820116820180604052508101906112509190612436565b90506000826040015190506000600260009054906101000a900473ffffffffffffffffffffffffffffffffffffffff1673ffffffffffffffffffffffffffffffffffffffff1663f2866c78886040518263ffffffff1660e01b81526004016112b8919061269f565b6020604051808303816000875af11580156112d7573d6000803e3d6000fd5b505050506040513d601f19601f820116820180604052508101906112fb91906127c5565b9050836060015143118015611311575060008114155b156113675760008460600151436113289190612568565b9050600085602001518261133c91906124ae565b9050826003548261134d91906124ae565b6113579190612537565b846113629190612897565b935050505b826020015160035483856000015161137f91906124ae565b6113899190612537565b6113939190612568565b94505050505092915050565b60006001600084815260200190815260200160002060000160008373ffffffffffffffffffffffffffffffffffffffff1673ffffffffffffffffffffffffffffffffffffffff16815260200190815260200160002060009054906101000a900460ff16905092915050565b6000801b61141f8161141a611869565b611871565b81600460006101000a81548173ffffffffffffffffffffffffffffffffffffffff021916908373ffffffffffffffffffffffffffffffffffffffff1602179055505050565b6000801b81565b61147482610642565b61148581611480611869565b611871565b61148f83836119ee565b505050565b6000801b6114a9816114a4611869565b611871565b600047116114ec576040517f08c379a00000000000000000000000000000000000000000000000000000000081526004016114e390612970565b60405180910390fd5b60004790503373ffffffffffffffffffffffffffffffffffffffff166108fc829081150290604051600060405180830381858888f19350505050158015611537573d6000803e3d6000fd5b507f43b2a2d6daf661162c8c435ac5820ea5b1e0046355c5faac17d06ecb4f60f15333826040516115699291906125d3565b60405180910390a15050565b600061158083610e3f565b90506000600260009054906101000a900473ffffffffffffffffffffffffffffffffffffffff1673ffffffffffffffffffffffffffffffffffffffff166392a576e685856040518363ffffffff1660e01b81526004016115e1929190612135565b6000604051808303816000875af1158015611600573d6000803e3d6000fd5b505050506040513d6000823e3d601f19601f820116820180604052508101906116299190612436565b90506000600260009054906101000a900473ffffffffffffffffffffffffffffffffffffffff1673ffffffffffffffffffffffffffffffffffffffff16630122a7e886866040518363ffffffff1660e01b815260040161168a929190612135565b6020604051808303816000875af11580156116a9573d6000803e3d6000fd5b505050506040513d601f19601f820116820180604052508101906116cd91906127c5565b905060006003548460400151836116e491906124ae565b6116ee9190612537565b83602001516116fd9190612568565b9050600260009054906101000a900473ffffffffffffffffffffffffffffffffffffffff1673ffffffffffffffffffffffffffffffffffffffff16637bfe950c878785856040518563ffffffff1660e01b81526004016117609493929190612753565b600060405180830381600087803b15801561177a57600080fd5b505af115801561178e573d6000803e3d6000fd5b505050508473ffffffffffffffffffffffffffffffffffffffff168673ffffffffffffffffffffffffffffffffffffffff167f9b1bfa7fa9ee420a16e124f794c35ac9f90472acc99140eb2f6447c714cad8eb846040516117ef919061210b565b60405180910390a3505050505050565b60007f01ffc9a7000000000000000000000000000000000000000000000000000000007bffffffffffffffffffffffffffffffffffffffffffffffffffffffff1916827bffffffffffffffffffffffffffffffffffffffffffffffffffffffff1916149050919050565b600033905090565b61187b828261139f565b61190a576118a08173ffffffffffffffffffffffffffffffffffffffff166014611ae9565b6118ae8360001c6020611ae9565b6040516020016118bf929190612aa2565b6040516020818303038152906040526040517f08c379a00000000000000000000000000000000000000000000000000000000081526004016119019190612b15565b60405180910390fd5b5050565b611918828261139f565b6119ea57600180600084815260200190815260200160002060000160008373ffffffffffffffffffffffffffffffffffffffff1673ffffffffffffffffffffffffffffffffffffffff16815260200190815260200160002060006101000a81548160ff02191690831515021790555061198f611869565b73ffffffffffffffffffffffffffffffffffffffff168173ffffffffffffffffffffffffffffffffffffffff16837f2f8788117e7eff1d82e926ec794901d17c78024a50270940304540a733656f0d60405160405180910390a45b5050565b6119f8828261139f565b15611acc5760006001600084815260200190815260200160002060000160008373ffffffffffffffffffffffffffffffffffffffff1673ffffffffffffffffffffffffffffffffffffffff16815260200190815260200160002060006101000a81548160ff021916908315150217905550611a71611869565b73ffffffffffffffffffffffffffffffffffffffff168173ffffffffffffffffffffffffffffffffffffffff16837ff6391f5c32d9c69d2a47ea670b442974b53935d1edc7fd64eb21e047a839171b60405160405180910390a45b5050565b60004360055483611ae19190612897565b109050919050565b606060006002836002611afc91906124ae565b611b069190612897565b67ffffffffffffffff811115611b1f57611b1e612174565b5b6040519080825280601f01601f191660200182016040528015611b515781602001600182028036833780820191505090505b5090507f300000000000000000000000000000000000000000000000000000000000000081600081518110611b8957611b88612b37565b5b60200101907effffffffffffffffffffffffffffffffffffffffffffffffffffffffffffff1916908160001a9053507f780000000000000000000000000000000000000000000000000000000000000081600181518110611bed57611bec612b37565b5b60200101907effffffffffffffffffffffffffffffffffffffffffffffffffffffffffffff1916908160001a90535060006001846002611c2d91906124ae565b611c379190612897565b90505b6001811115611cd7577f3031323334353637383961626364656600000000000000000000000000000000600f861660108110611c7957611c78612b37565b5b1a60f81b828281518110611c9057611c8f612b37565b5b60200101907effffffffffffffffffffffffffffffffffffffffffffffffffffffffffffff1916908160001a905350600485901c945080611cd090612b66565b9050611c3a565b5060008414611d1b576040517f08c379a0000000000000000000000000000000000000000000000000000000008152600401611d1290612bdc565b60405180910390fd5b8091505092915050565b6040518060800160405280600081526020016000815260200160008152602001600081525090565b6000604051905090565b600080fd5b600080fd5b60007fffffffff0000000000000000000000000000000000000000000000000000000082169050919050565b611d9681611d61565b8114611da157600080fd5b50565b600081359050611db381611d8d565b92915050565b600060208284031215611dcf57611dce611d57565b5b6000611ddd84828501611da4565b91505092915050565b60008115159050919050565b611dfb81611de6565b82525050565b6000602082019050611e166000830184611df2565b92915050565b600073ffffffffffffffffffffffffffffffffffffffff82169050919050565b6000611e4782611e1c565b9050919050565b611e5781611e3c565b8114611e6257600080fd5b50565b600081359050611e7481611e4e565b92915050565b60008060408385031215611e9157611e90611d57565b5b6000611e9f85828601611e65565b9250506020611eb085828601611e65565b9150509250929050565b6000819050919050565b611ecd81611eba565b8114611ed857600080fd5b50565b600081359050611eea81611ec4565b92915050565b600060208284031215611f0657611f05611d57565b5b6000611f1484828501611edb565b91505092915050565b611f2681611eba565b82525050565b6000602082019050611f416000830184611f1d565b92915050565b60008060408385031215611f5e57611f5d611d57565b5b6000611f6c85828601611edb565b9250506020611f7d85828601611e65565b9150509250929050565b6000819050919050565b611f9a81611f87565b8114611fa557600080fd5b50565b600081359050611fb781611f91565b92915050565b60008060408385031215611fd457611fd3611d57565b5b6000611fe285828601611e65565b9250506020611ff385828601611fa8565b9150509250929050565b60008060006060848603121561201657612015611d57565b5b600061202486828701611e65565b935050602061203586828701611fa8565b925050604061204686828701611e65565b9150509250925092565b60006020828403121561206657612065611d57565b5b600061207484828501611e65565b91505092915050565b61208681611f87565b82525050565b6080820160008201516120a2600085018261207d565b5060208201516120b5602085018261207d565b5060408201516120c8604085018261207d565b5060608201516120db606085018261207d565b50505050565b60006080820190506120f6600083018461208c565b92915050565b61210581611f87565b82525050565b600060208201905061212060008301846120fc565b92915050565b61212f81611e3c565b82525050565b600060408201905061214a6000830185612126565b6121576020830184612126565b9392505050565b600080fd5b6000601f19601f8301169050919050565b7f4e487b7100000000000000000000000000000000000000000000000000000000600052604160045260246000fd5b6121ac82612163565b810181811067ffffffffffffffff821117156121cb576121ca612174565b5b80604052505050565b60006121de611d4d565b90506121ea82826121a3565b919050565b600080fd5b60008151905061220381611f91565b92915050565b61221281611de6565b811461221d57600080fd5b50565b60008151905061222f81612209565b92915050565b600080fd5b600067ffffffffffffffff82111561225557612254612174565b5b602082029050602081019050919050565b600080fd5b6000608082840312156122815761228061215e565b5b61228b60806121d4565b9050600061229b848285016121f4565b60008301525060206122af848285016121f4565b60208301525060406122c3848285016121f4565b60408301525060606122d784828501612220565b60608301525092915050565b60006122f66122f18461223a565b6121d4565b9050808382526020820190506080840283018581111561231957612318612266565b5b835b81811015612342578061232e888261226b565b84526020840193505060808101905061231b565b5050509392505050565b600082601f83011261236157612360612235565b5b81516123718482602086016122e3565b91505092915050565b600060c082840312156123905761238f61215e565b5b61239a60c06121d4565b905060006123aa848285016121f4565b60008301525060206123be848285016121f4565b60208301525060406123d2848285016121f4565b60408301525060606123e684828501612220565b60608301525060806123fa84828501612220565b60808301525060a082015167ffffffffffffffff81111561241e5761241d6121ef565b5b61242a8482850161234c565b60a08301525092915050565b60006020828403121561244c5761244b611d57565b5b600082015167ffffffffffffffff81111561246a57612469611d5c565b5b6124768482850161237a565b91505092915050565b7f4e487b7100000000000000000000000000000000000000000000000000000000600052601160045260246000fd5b60006124b982611f87565b91506124c483611f87565b9250817fffffffffffffffffffffffffffffffffffffffffffffffffffffffffffffffff04831182151516156124fd576124fc61247f565b5b828202905092915050565b7f4e487b7100000000000000000000000000000000000000000000000000000000600052601260045260246000fd5b600061254282611f87565b915061254d83611f87565b92508261255d5761255c612508565b5b828204905092915050565b600061257382611f87565b915061257e83611f87565b9250828210156125915761259061247f565b5b828203905092915050565b60006060820190506125b16000830186612126565b6125be6020830185612126565b6125cb60408301846120fc565b949350505050565b60006040820190506125e86000830185612126565b6125f560208301846120fc565b9392505050565b600082825260208201905092915050565b7f416363657373436f6e74726f6c3a2063616e206f6e6c792072656e6f756e636560008201527f20726f6c657320666f722073656c660000000000000000000000000000000000602082015250565b6000612669602f836125fc565b91506126748261260d565b604082019050919050565b600060208201905081810360008301526126988161265c565b9050919050565b60006020820190506126b46000830184612126565b92915050565b6000602082840312156126d0576126cf611d57565b5b60006126de84828501612220565b91505092915050565b7f506f6f6c20646f6573206e6f7420657869737400000000000000000000000000600082015250565b600061271d6013836125fc565b9150612728826126e7565b602082019050919050565b6000602082019050818103600083015261274c81612710565b9050919050565b60006080820190506127686000830187612126565b6127756020830186612126565b61278260408301856120fc565b61278f60608301846120fc565b95945050505050565b6000608082840312156127ae576127ad611d57565b5b60006127bc8482850161226b565b91505092915050565b6000602082840312156127db576127da611d57565b5b60006127e9848285016121f4565b91505092915050565b6000608082840312156128085761280761215e565b5b61281260806121d4565b90506000612822848285016121f4565b6000830152506020612836848285016121f4565b602083015250604061284a848285016121f4565b604083015250606061285e848285016121f4565b60608301525092915050565b6000608082840312156128805761287f611d57565b5b600061288e848285016127f2565b91505092915050565b60006128a282611f87565b91506128ad83611f87565b9250827fffffffffffffffffffffffffffffffffffffffffffffffffffffffffffffffff038211156128e2576128e161247f565b5b828201905092915050565b60006060820190506129026000830186612126565b61290f60208301856120fc565b61291c60408301846120fc565b949350505050565b7f6e6f206d6174696320746f207769746864726177000000000000000000000000600082015250565b600061295a6014836125fc565b915061296582612924565b602082019050919050565b600060208201905081810360008301526129898161294d565b9050919050565b600081905092915050565b7f416363657373436f6e74726f6c3a206163636f756e7420000000000000000000600082015250565b60006129d1601783612990565b91506129dc8261299b565b601782019050919050565b600081519050919050565b60005b83811015612a105780820151818401526020810190506129f5565b83811115612a1f576000848401525b50505050565b6000612a30826129e7565b612a3a8185612990565b9350612a4a8185602086016129f2565b80840191505092915050565b7f206973206d697373696e6720726f6c6520000000000000000000000000000000600082015250565b6000612a8c601183612990565b9150612a9782612a56565b601182019050919050565b6000612aad826129c4565b9150612ab98285612a25565b9150612ac482612a7f565b9150612ad08284612a25565b91508190509392505050565b6000612ae7826129e7565b612af181856125fc565b9350612b018185602086016129f2565b612b0a81612163565b840191505092915050565b60006020820190508181036000830152612b2f8184612adc565b905092915050565b7f4e487b7100000000000000000000000000000000000000000000000000000000600052603260045260246000fd5b6000612b7182611f87565b91506000821415612b8557612b8461247f565b5b600182039050919050565b7f537472696e67733a20686578206c656e67746820696e73756666696369656e74600082015250565b6000612bc66020836125fc565b9150612bd182612b90565b602082019050919050565b60006020820190508181036000830152612bf581612bb9565b905091905056fea2646970667358221220dd9fd24c187b58d72a9e4567d42f7695e137117d338de92b24a20e992dfd081f64736f6c634300080b0033",
  "linkReferences": {},
  "deployedLinkReferences": {}
}