{
  "_format": "hh-sol-artifact-1",
  "contractName": "CAPL",
  "sourceName": "contracts/tokens/CAPL.sol",
  "abi": [
    {
      "inputs": [
        {
          "internalType": "uint256",
          "name": "tokenAmount",
          "type": "uint256"
        }
      ],
      "stateMutability": "nonpayable",
      "type": "constructor"
    },
    {
      "anonymous": false,
      "inputs": [
        {
          "indexed": true,
          "internalType": "address",
          "name": "owner",
          "type": "address"
        },
        {
          "indexed": true,
          "internalType": "address",
          "name": "spender",
          "type": "address"
        },
        {
          "indexed": false,
          "internalType": "uint256",
          "name": "value",
          "type": "uint256"
        }
      ],
      "name": "Approval",
      "type": "event"
    },
    {
      "anonymous": false,
      "inputs": [
        {
          "indexed": true,
          "internalType": "address",
          "name": "previousOwner",
          "type": "address"
        },
        {
          "indexed": true,
          "internalType": "address",
          "name": "newOwner",
          "type": "address"
        }
      ],
      "name": "OwnershipTransferred",
      "type": "event"
    },
    {
      "anonymous": false,
      "inputs": [
        {
          "indexed": true,
          "internalType": "address",
          "name": "from",
          "type": "address"
        },
        {
          "indexed": true,
          "internalType": "address",
          "name": "to",
          "type": "address"
        },
        {
          "indexed": false,
          "internalType": "uint256",
          "name": "value",
          "type": "uint256"
        }
      ],
      "name": "Transfer",
      "type": "event"
    },
    {
      "inputs": [],
      "name": "TotalSupplyOfCapl",
      "outputs": [
        {
          "internalType": "uint256",
          "name": "",
          "type": "uint256"
        }
      ],
      "stateMutability": "view",
      "type": "function"
    },
    {
      "inputs": [
        {
          "internalType": "address",
          "name": "owner",
          "type": "address"
        },
        {
          "internalType": "address",
          "name": "spender",
          "type": "address"
        }
      ],
      "name": "allowance",
      "outputs": [
        {
          "internalType": "uint256",
          "name": "",
          "type": "uint256"
        }
      ],
      "stateMutability": "view",
      "type": "function"
    },
    {
      "inputs": [
        {
          "internalType": "address",
          "name": "spender",
          "type": "address"
        },
        {
          "internalType": "uint256",
          "name": "amount",
          "type": "uint256"
        }
      ],
      "name": "approve",
      "outputs": [
        {
          "internalType": "bool",
          "name": "",
          "type": "bool"
        }
      ],
      "stateMutability": "nonpayable",
      "type": "function"
    },
    {
      "inputs": [
        {
          "internalType": "address",
          "name": "account",
          "type": "address"
        }
      ],
      "name": "balanceOf",
      "outputs": [
        {
          "internalType": "uint256",
          "name": "",
          "type": "uint256"
        }
      ],
      "stateMutability": "view",
      "type": "function"
    },
    {
      "inputs": [],
      "name": "currentSupply",
      "outputs": [
        {
          "internalType": "uint256",
          "name": "",
          "type": "uint256"
        }
      ],
      "stateMutability": "view",
      "type": "function"
    },
    {
      "inputs": [],
      "name": "decimals",
      "outputs": [
        {
          "internalType": "uint8",
          "name": "",
          "type": "uint8"
        }
      ],
      "stateMutability": "pure",
      "type": "function"
    },
    {
      "inputs": [
        {
          "internalType": "address",
          "name": "spender",
          "type": "address"
        },
        {
          "internalType": "uint256",
          "name": "subtractedValue",
          "type": "uint256"
        }
      ],
      "name": "decreaseAllowance",
      "outputs": [
        {
          "internalType": "bool",
          "name": "",
          "type": "bool"
        }
      ],
      "stateMutability": "nonpayable",
      "type": "function"
    },
    {
      "inputs": [],
      "name": "geUnlockTime",
      "outputs": [
        {
          "internalType": "uint256",
          "name": "",
          "type": "uint256"
        }
      ],
      "stateMutability": "view",
      "type": "function"
    },
    {
      "inputs": [
        {
          "internalType": "address",
          "name": "spender",
          "type": "address"
        },
        {
          "internalType": "uint256",
          "name": "addedValue",
          "type": "uint256"
        }
      ],
      "name": "increaseAllowance",
      "outputs": [
        {
          "internalType": "bool",
          "name": "",
          "type": "bool"
        }
      ],
      "stateMutability": "nonpayable",
      "type": "function"
    },
    {
      "inputs": [
        {
          "internalType": "address",
          "name": "_to",
          "type": "address"
        },
        {
          "internalType": "uint256",
          "name": "_amount",
          "type": "uint256"
        }
      ],
      "name": "mint",
      "outputs": [],
      "stateMutability": "nonpayable",
      "type": "function"
    },
    {
      "inputs": [],
      "name": "name",
      "outputs": [
        {
          "internalType": "string",
          "name": "",
          "type": "string"
        }
      ],
      "stateMutability": "view",
      "type": "function"
    },
    {
      "inputs": [],
      "name": "owner",
      "outputs": [
        {
          "internalType": "address",
          "name": "",
          "type": "address"
        }
      ],
      "stateMutability": "view",
      "type": "function"
    },
    {
      "inputs": [],
      "name": "renounceOwnership",
      "outputs": [],
      "stateMutability": "nonpayable",
      "type": "function"
    },
    {
      "inputs": [],
      "name": "symbol",
      "outputs": [
        {
          "internalType": "string",
          "name": "",
          "type": "string"
        }
      ],
      "stateMutability": "view",
      "type": "function"
    },
    {
      "inputs": [],
      "name": "totalSupply",
      "outputs": [
        {
          "internalType": "uint256",
          "name": "",
          "type": "uint256"
        }
      ],
      "stateMutability": "view",
      "type": "function"
    },
    {
      "inputs": [
        {
          "internalType": "address",
          "name": "recipient",
          "type": "address"
        },
        {
          "internalType": "uint256",
          "name": "amount",
          "type": "uint256"
        }
      ],
      "name": "transfer",
      "outputs": [
        {
          "internalType": "bool",
          "name": "",
          "type": "bool"
        }
      ],
      "stateMutability": "nonpayable",
      "type": "function"
    },
    {
      "inputs": [
        {
          "internalType": "address",
          "name": "sender",
          "type": "address"
        },
        {
          "internalType": "address",
          "name": "recipient",
          "type": "address"
        },
        {
          "internalType": "uint256",
          "name": "amount",
          "type": "uint256"
        }
      ],
      "name": "transferFrom",
      "outputs": [
        {
          "internalType": "bool",
          "name": "",
          "type": "bool"
        }
      ],
      "stateMutability": "nonpayable",
      "type": "function"
    },
    {
      "inputs": [
        {
          "internalType": "address",
          "name": "newOwner",
          "type": "address"
        }
      ],
      "name": "transferOwnership",
      "outputs": [],
      "stateMutability": "nonpayable",
      "type": "function"
    }
  ],
  "bytecode": "0x60806040523480156200001157600080fd5b50604051620022aa380380620022aa833981810160405281019062000037919062000423565b6040518060400160405280600981526020017f4341504c20436f696e00000000000000000000000000000000000000000000008152506040518060400160405280600481526020017f4341504c000000000000000000000000000000000000000000000000000000008152508160039080519060200190620000bb92919062000333565b508060049080519060200190620000d492919062000333565b5050506000620000e9620001a860201b60201c565b905080600560006101000a81548173ffffffffffffffffffffffffffffffffffffffff021916908373ffffffffffffffffffffffffffffffffffffffff1602179055508073ffffffffffffffffffffffffffffffffffffffff16600073ffffffffffffffffffffffffffffffffffffffff167f8be0079c531659141344cd1fd0a4f28419497f9722a3daafe3b4186f6b6457e060405160405180910390a3506200019a3382620001b060201b60201c565b8060088190555050620005f7565b600033905090565b600073ffffffffffffffffffffffffffffffffffffffff168273ffffffffffffffffffffffffffffffffffffffff16141562000223576040517f08c379a00000000000000000000000000000000000000000000000000000000081526004016200021a90620004b6565b60405180910390fd5b62000237600083836200032960201b60201c565b80600260008282546200024b919062000507565b92505081905550806000808473ffffffffffffffffffffffffffffffffffffffff1673ffffffffffffffffffffffffffffffffffffffff1681526020019081526020016000206000828254620002a2919062000507565b925050819055508173ffffffffffffffffffffffffffffffffffffffff16600073ffffffffffffffffffffffffffffffffffffffff167fddf252ad1be2c89b69c2b068fc378daa952ba7f163c4a11628f55a4df523b3ef8360405162000309919062000575565b60405180910390a362000325600083836200032e60201b60201c565b5050565b505050565b505050565b8280546200034190620005c1565b90600052602060002090601f016020900481019282620003655760008555620003b1565b82601f106200038057805160ff1916838001178555620003b1565b82800160010185558215620003b1579182015b82811115620003b057825182559160200191906001019062000393565b5b509050620003c09190620003c4565b5090565b5b80821115620003df576000816000905550600101620003c5565b5090565b600080fd5b6000819050919050565b620003fd81620003e8565b81146200040957600080fd5b50565b6000815190506200041d81620003f2565b92915050565b6000602082840312156200043c576200043b620003e3565b5b60006200044c848285016200040c565b91505092915050565b600082825260208201905092915050565b7f45524332303a206d696e7420746f20746865207a65726f206164647265737300600082015250565b60006200049e601f8362000455565b9150620004ab8262000466565b602082019050919050565b60006020820190508181036000830152620004d1816200048f565b9050919050565b7f4e487b7100000000000000000000000000000000000000000000000000000000600052601160045260246000fd5b60006200051482620003e8565b91506200052183620003e8565b9250827fffffffffffffffffffffffffffffffffffffffffffffffffffffffffffffffff03821115620005595762000558620004d8565b5b828201905092915050565b6200056f81620003e8565b82525050565b60006020820190506200058c600083018462000564565b92915050565b7f4e487b7100000000000000000000000000000000000000000000000000000000600052602260045260246000fd5b60006002820490506001821680620005da57607f821691505b60208210811415620005f157620005f062000592565b5b50919050565b611ca380620006076000396000f3fe608060405234801561001057600080fd5b50600436106101165760003560e01c8063771282f6116100a2578063a9059cbb11610071578063a9059cbb146102e5578063b6c5232414610315578063dd62ed3e14610333578063f2fde38b14610363578063fb0fd96d1461037f57610116565b8063771282f61461025b5780638da5cb5b1461027957806395d89b4114610297578063a457c2d7146102b557610116565b8063313ce567116100e9578063313ce567146101b757806339509351146101d557806340c10f191461020557806370a0823114610221578063715018a61461025157610116565b806306fdde031461011b578063095ea7b31461013957806318160ddd1461016957806323b872dd14610187575b600080fd5b61012361039d565b6040516101309190611337565b60405180910390f35b610153600480360381019061014e91906113f2565b61042f565b604051610160919061144d565b60405180910390f35b61017161044d565b60405161017e9190611477565b60405180910390f35b6101a1600480360381019061019c9190611492565b610457565b6040516101ae919061144d565b60405180910390f35b6101bf61054f565b6040516101cc9190611501565b60405180910390f35b6101ef60048036038101906101ea91906113f2565b610558565b6040516101fc919061144d565b60405180910390f35b61021f600480360381019061021a91906113f2565b610604565b005b61023b6004803603810190610236919061151c565b610713565b6040516102489190611477565b60405180910390f35b61025961075b565b005b6102636108b3565b6040516102709190611477565b60405180910390f35b6102816108b9565b60405161028e9190611558565b60405180910390f35b61029f6108e3565b6040516102ac9190611337565b60405180910390f35b6102cf60048036038101906102ca91906113f2565b610975565b6040516102dc919061144d565b60405180910390f35b6102ff60048036038101906102fa91906113f2565b610a60565b60405161030c919061144d565b60405180910390f35b61031d610a7e565b60405161032a9190611477565b60405180910390f35b61034d60048036038101906103489190611573565b610a88565b60405161035a9190611477565b60405180910390f35b61037d6004803603810190610378919061151c565b610b0f565b005b610387610cd6565b6040516103949190611477565b60405180910390f35b6060600380546103ac906115e2565b80601f01602080910402602001604051908101604052809291908181526020018280546103d8906115e2565b80156104255780601f106103fa57610100808354040283529160200191610425565b820191906000526020600020905b81548152906001019060200180831161040857829003601f168201915b5050505050905090565b600061044361043c610ce0565b8484610ce8565b6001905092915050565b6000600254905090565b6000610464848484610eb3565b6000600160008673ffffffffffffffffffffffffffffffffffffffff1673ffffffffffffffffffffffffffffffffffffffff16815260200190815260200160002060006104af610ce0565b73ffffffffffffffffffffffffffffffffffffffff1673ffffffffffffffffffffffffffffffffffffffff1681526020019081526020016000205490508281101561052f576040517f08c379a000000000000000000000000000000000000000000000000000000000815260040161052690611686565b60405180910390fd5b6105438561053b610ce0565b858403610ce8565b60019150509392505050565b60006006905090565b60006105fa610565610ce0565b848460016000610573610ce0565b73ffffffffffffffffffffffffffffffffffffffff1673ffffffffffffffffffffffffffffffffffffffff16815260200190815260200160002060008873ffffffffffffffffffffffffffffffffffffffff1673ffffffffffffffffffffffffffffffffffffffff168152602001908152602001600020546105f591906116d5565b610ce8565b6001905092915050565b61060c610ce0565b73ffffffffffffffffffffffffffffffffffffffff16600560009054906101000a900473ffffffffffffffffffffffffffffffffffffffff1673ffffffffffffffffffffffffffffffffffffffff161461069b576040517f08c379a000000000000000000000000000000000000000000000000000000000815260040161069290611777565b60405180910390fd5b655af3107a4000816008546106b091906116d5565b11156106f1576040517f08c379a00000000000000000000000000000000000000000000000000000000081526004016106e8906117e3565b60405180910390fd5b6106fb8282611134565b8060085461070991906116d5565b6008819055505050565b60008060008373ffffffffffffffffffffffffffffffffffffffff1673ffffffffffffffffffffffffffffffffffffffff168152602001908152602001600020549050919050565b610763610ce0565b73ffffffffffffffffffffffffffffffffffffffff16600560009054906101000a900473ffffffffffffffffffffffffffffffffffffffff1673ffffffffffffffffffffffffffffffffffffffff16146107f2576040517f08c379a00000000000000000000000000000000000000000000000000000000081526004016107e990611777565b60405180910390fd5b600073ffffffffffffffffffffffffffffffffffffffff16600560009054906101000a900473ffffffffffffffffffffffffffffffffffffffff1673ffffffffffffffffffffffffffffffffffffffff167f8be0079c531659141344cd1fd0a4f28419497f9722a3daafe3b4186f6b6457e060405160405180910390a36000600560006101000a81548173ffffffffffffffffffffffffffffffffffffffff021916908373ffffffffffffffffffffffffffffffffffffffff160217905550565b60085481565b6000600560009054906101000a900473ffffffffffffffffffffffffffffffffffffffff16905090565b6060600480546108f2906115e2565b80601f016020809104026020016040519081016040528092919081815260200182805461091e906115e2565b801561096b5780601f106109405761010080835404028352916020019161096b565b820191906000526020600020905b81548152906001019060200180831161094e57829003601f168201915b5050505050905090565b60008060016000610984610ce0565b73ffffffffffffffffffffffffffffffffffffffff1673ffffffffffffffffffffffffffffffffffffffff16815260200190815260200160002060008573ffffffffffffffffffffffffffffffffffffffff1673ffffffffffffffffffffffffffffffffffffffff16815260200190815260200160002054905082811015610a41576040517f08c379a0000000000000000000000000000000000000000000000000000000008152600401610a3890611875565b60405180910390fd5b610a55610a4c610ce0565b85858403610ce8565b600191505092915050565b6000610a74610a6d610ce0565b8484610eb3565b6001905092915050565b6000600754905090565b6000600160008473ffffffffffffffffffffffffffffffffffffffff1673ffffffffffffffffffffffffffffffffffffffff16815260200190815260200160002060008373ffffffffffffffffffffffffffffffffffffffff1673ffffffffffffffffffffffffffffffffffffffff16815260200190815260200160002054905092915050565b610b17610ce0565b73ffffffffffffffffffffffffffffffffffffffff16600560009054906101000a900473ffffffffffffffffffffffffffffffffffffffff1673ffffffffffffffffffffffffffffffffffffffff1614610ba6576040517f08c379a0000000000000000000000000000000000000000000000000000000008152600401610b9d90611777565b60405180910390fd5b600073ffffffffffffffffffffffffffffffffffffffff168173ffffffffffffffffffffffffffffffffffffffff161415610c16576040517f08c379a0000000000000000000000000000000000000000000000000000000008152600401610c0d90611907565b60405180910390fd5b8073ffffffffffffffffffffffffffffffffffffffff16600560009054906101000a900473ffffffffffffffffffffffffffffffffffffffff1673ffffffffffffffffffffffffffffffffffffffff167f8be0079c531659141344cd1fd0a4f28419497f9722a3daafe3b4186f6b6457e060405160405180910390a380600560006101000a81548173ffffffffffffffffffffffffffffffffffffffff021916908373ffffffffffffffffffffffffffffffffffffffff16021790555050565b655af3107a400081565b600033905090565b600073ffffffffffffffffffffffffffffffffffffffff168373ffffffffffffffffffffffffffffffffffffffff161415610d58576040517f08c379a0000000000000000000000000000000000000000000000000000000008152600401610d4f90611999565b60405180910390fd5b600073ffffffffffffffffffffffffffffffffffffffff168273ffffffffffffffffffffffffffffffffffffffff161415610dc8576040517f08c379a0000000000000000000000000000000000000000000000000000000008152600401610dbf90611a2b565b60405180910390fd5b80600160008573ffffffffffffffffffffffffffffffffffffffff1673ffffffffffffffffffffffffffffffffffffffff16815260200190815260200160002060008473ffffffffffffffffffffffffffffffffffffffff1673ffffffffffffffffffffffffffffffffffffffff168152602001908152602001600020819055508173ffffffffffffffffffffffffffffffffffffffff168373ffffffffffffffffffffffffffffffffffffffff167f8c5be1e5ebec7d5bd14f71427d1e84f3dd0314c0f7b2291e5b200ac8c7c3b92583604051610ea69190611477565b60405180910390a3505050565b600073ffffffffffffffffffffffffffffffffffffffff168373ffffffffffffffffffffffffffffffffffffffff161415610f23576040517f08c379a0000000000000000000000000000000000000000000000000000000008152600401610f1a90611abd565b60405180910390fd5b600073ffffffffffffffffffffffffffffffffffffffff168273ffffffffffffffffffffffffffffffffffffffff161415610f93576040517f08c379a0000000000000000000000000000000000000000000000000000000008152600401610f8a90611b4f565b60405180910390fd5b610f9e838383611294565b60008060008573ffffffffffffffffffffffffffffffffffffffff1673ffffffffffffffffffffffffffffffffffffffff16815260200190815260200160002054905081811015611024576040517f08c379a000000000000000000000000000000000000000000000000000000000815260040161101b90611be1565b60405180910390fd5b8181036000808673ffffffffffffffffffffffffffffffffffffffff1673ffffffffffffffffffffffffffffffffffffffff16815260200190815260200160002081905550816000808573ffffffffffffffffffffffffffffffffffffffff1673ffffffffffffffffffffffffffffffffffffffff16815260200190815260200160002060008282546110b791906116d5565b925050819055508273ffffffffffffffffffffffffffffffffffffffff168473ffffffffffffffffffffffffffffffffffffffff167fddf252ad1be2c89b69c2b068fc378daa952ba7f163c4a11628f55a4df523b3ef8460405161111b9190611477565b60405180910390a361112e848484611299565b50505050565b600073ffffffffffffffffffffffffffffffffffffffff168273ffffffffffffffffffffffffffffffffffffffff1614156111a4576040517f08c379a000000000000000000000000000000000000000000000000000000000815260040161119b90611c4d565b60405180910390fd5b6111b060008383611294565b80600260008282546111c291906116d5565b92505081905550806000808473ffffffffffffffffffffffffffffffffffffffff1673ffffffffffffffffffffffffffffffffffffffff168152602001908152602001600020600082825461121791906116d5565b925050819055508173ffffffffffffffffffffffffffffffffffffffff16600073ffffffffffffffffffffffffffffffffffffffff167fddf252ad1be2c89b69c2b068fc378daa952ba7f163c4a11628f55a4df523b3ef8360405161127c9190611477565b60405180910390a361129060008383611299565b5050565b505050565b505050565b600081519050919050565b600082825260208201905092915050565b60005b838110156112d85780820151818401526020810190506112bd565b838111156112e7576000848401525b50505050565b6000601f19601f8301169050919050565b60006113098261129e565b61131381856112a9565b93506113238185602086016112ba565b61132c816112ed565b840191505092915050565b6000602082019050818103600083015261135181846112fe565b905092915050565b600080fd5b600073ffffffffffffffffffffffffffffffffffffffff82169050919050565b60006113898261135e565b9050919050565b6113998161137e565b81146113a457600080fd5b50565b6000813590506113b681611390565b92915050565b6000819050919050565b6113cf816113bc565b81146113da57600080fd5b50565b6000813590506113ec816113c6565b92915050565b6000806040838503121561140957611408611359565b5b6000611417858286016113a7565b9250506020611428858286016113dd565b9150509250929050565b60008115159050919050565b61144781611432565b82525050565b6000602082019050611462600083018461143e565b92915050565b611471816113bc565b82525050565b600060208201905061148c6000830184611468565b92915050565b6000806000606084860312156114ab576114aa611359565b5b60006114b9868287016113a7565b93505060206114ca868287016113a7565b92505060406114db868287016113dd565b9150509250925092565b600060ff82169050919050565b6114fb816114e5565b82525050565b600060208201905061151660008301846114f2565b92915050565b60006020828403121561153257611531611359565b5b6000611540848285016113a7565b91505092915050565b6115528161137e565b82525050565b600060208201905061156d6000830184611549565b92915050565b6000806040838503121561158a57611589611359565b5b6000611598858286016113a7565b92505060206115a9858286016113a7565b9150509250929050565b7f4e487b7100000000000000000000000000000000000000000000000000000000600052602260045260246000fd5b600060028204905060018216806115fa57607f821691505b6020821081141561160e5761160d6115b3565b5b50919050565b7f45524332303a207472616e7366657220616d6f756e742065786365656473206160008201527f6c6c6f77616e6365000000000000000000000000000000000000000000000000602082015250565b60006116706028836112a9565b915061167b82611614565b604082019050919050565b6000602082019050818103600083015261169f81611663565b9050919050565b7f4e487b7100000000000000000000000000000000000000000000000000000000600052601160045260246000fd5b60006116e0826113bc565b91506116eb836113bc565b9250827fffffffffffffffffffffffffffffffffffffffffffffffffffffffffffffffff038211156117205761171f6116a6565b5b828201905092915050565b7f4f776e61626c653a2063616c6c6572206973206e6f7420746865206f776e6572600082015250565b60006117616020836112a9565b915061176c8261172b565b602082019050919050565b6000602082019050818103600083015261179081611754565b9050919050565b7f546f74616c20537570706c792065786365656465640000000000000000000000600082015250565b60006117cd6015836112a9565b91506117d882611797565b602082019050919050565b600060208201905081810360008301526117fc816117c0565b9050919050565b7f45524332303a2064656372656173656420616c6c6f77616e63652062656c6f7760008201527f207a65726f000000000000000000000000000000000000000000000000000000602082015250565b600061185f6025836112a9565b915061186a82611803565b604082019050919050565b6000602082019050818103600083015261188e81611852565b9050919050565b7f4f776e61626c653a206e6577206f776e657220697320746865207a65726f206160008201527f6464726573730000000000000000000000000000000000000000000000000000602082015250565b60006118f16026836112a9565b91506118fc82611895565b604082019050919050565b60006020820190508181036000830152611920816118e4565b9050919050565b7f45524332303a20617070726f76652066726f6d20746865207a65726f2061646460008201527f7265737300000000000000000000000000000000000000000000000000000000602082015250565b60006119836024836112a9565b915061198e82611927565b604082019050919050565b600060208201905081810360008301526119b281611976565b9050919050565b7f45524332303a20617070726f766520746f20746865207a65726f20616464726560008201527f7373000000000000000000000000000000000000000000000000000000000000602082015250565b6000611a156022836112a9565b9150611a20826119b9565b604082019050919050565b60006020820190508181036000830152611a4481611a08565b9050919050565b7f45524332303a207472616e736665722066726f6d20746865207a65726f20616460008201527f6472657373000000000000000000000000000000000000000000000000000000602082015250565b6000611aa76025836112a9565b9150611ab282611a4b565b604082019050919050565b60006020820190508181036000830152611ad681611a9a565b9050919050565b7f45524332303a207472616e7366657220746f20746865207a65726f206164647260008201527f6573730000000000000000000000000000000000000000000000000000000000602082015250565b6000611b396023836112a9565b9150611b4482611add565b604082019050919050565b60006020820190508181036000830152611b6881611b2c565b9050919050565b7f45524332303a207472616e7366657220616d6f756e742065786365656473206260008201527f616c616e63650000000000000000000000000000000000000000000000000000602082015250565b6000611bcb6026836112a9565b9150611bd682611b6f565b604082019050919050565b60006020820190508181036000830152611bfa81611bbe565b9050919050565b7f45524332303a206d696e7420746f20746865207a65726f206164647265737300600082015250565b6000611c37601f836112a9565b9150611c4282611c01565b602082019050919050565b60006020820190508181036000830152611c6681611c2a565b905091905056fea264697066735822122082dfb551b9f1bc1599b3075b8d67a6b99a942c28cb3c68b9db06f24961cda6a264736f6c634300080b0033",
  "linkReferences": {},
  "deployedLinkReferences": {}
}