{
  "_format": "hh-sol-artifact-1",
  "contractName": "TreasuryStorage",
  "sourceName": "contracts/treasury/TreasuryStorage.sol",
  "abi": [
    {
      "inputs": [
        {
          "internalType": "address",
          "name": "_treasuryShares",
          "type": "address"
        }
      ],
      "stateMutability": "nonpayable",
      "type": "constructor"
    },
    {
      "anonymous": false,
      "inputs": [
        {
          "indexed": true,
          "internalType": "bytes32",
          "name": "role",
          "type": "bytes32"
        },
        {
          "indexed": true,
          "internalType": "bytes32",
          "name": "previousAdminRole",
          "type": "bytes32"
        },
        {
          "indexed": true,
          "internalType": "bytes32",
          "name": "newAdminRole",
          "type": "bytes32"
        }
      ],
      "name": "RoleAdminChanged",
      "type": "event"
    },
    {
      "anonymous": false,
      "inputs": [
        {
          "indexed": true,
          "internalType": "bytes32",
          "name": "role",
          "type": "bytes32"
        },
        {
          "indexed": true,
          "internalType": "address",
          "name": "account",
          "type": "address"
        },
        {
          "indexed": true,
          "internalType": "address",
          "name": "sender",
          "type": "address"
        }
      ],
      "name": "RoleGranted",
      "type": "event"
    },
    {
      "anonymous": false,
      "inputs": [
        {
          "indexed": true,
          "internalType": "bytes32",
          "name": "role",
          "type": "bytes32"
        },
        {
          "indexed": true,
          "internalType": "address",
          "name": "account",
          "type": "address"
        },
        {
          "indexed": true,
          "internalType": "address",
          "name": "sender",
          "type": "address"
        }
      ],
      "name": "RoleRevoked",
      "type": "event"
    },
    {
      "inputs": [],
      "name": "DEFAULT_ADMIN_ROLE",
      "outputs": [
        {
          "internalType": "bytes32",
          "name": "",
          "type": "bytes32"
        }
      ],
      "stateMutability": "view",
      "type": "function"
    },
    {
      "inputs": [],
      "name": "TREASURY_FUND",
      "outputs": [
        {
          "internalType": "bytes32",
          "name": "",
          "type": "bytes32"
        }
      ],
      "stateMutability": "view",
      "type": "function"
    },
    {
      "inputs": [
        {
          "internalType": "address",
          "name": "_token",
          "type": "address"
        },
        {
          "internalType": "address",
          "name": "_user",
          "type": "address"
        },
        {
          "internalType": "uint256",
          "name": "_totalAmount",
          "type": "uint256"
        },
        {
          "internalType": "uint256",
          "name": "_rewardDebt",
          "type": "uint256"
        }
      ],
      "name": "addUserPosition",
      "outputs": [],
      "stateMutability": "nonpayable",
      "type": "function"
    },
    {
      "inputs": [
        {
          "internalType": "address",
          "name": "_token",
          "type": "address"
        }
      ],
      "name": "checkIfPoolExists",
      "outputs": [
        {
          "internalType": "bool",
          "name": "",
          "type": "bool"
        }
      ],
      "stateMutability": "view",
      "type": "function"
    },
    {
      "inputs": [
        {
          "internalType": "address",
          "name": "_user",
          "type": "address"
        },
        {
          "internalType": "address",
          "name": "_token",
          "type": "address"
        }
      ],
      "name": "checkIfUserPositionExists",
      "outputs": [
        {
          "internalType": "bool",
          "name": "",
          "type": "bool"
        }
      ],
      "stateMutability": "view",
      "type": "function"
    },
    {
      "inputs": [
        {
          "internalType": "address",
          "name": "_user",
          "type": "address"
        },
        {
          "internalType": "uint256",
          "name": "_amount",
          "type": "uint256"
        },
        {
          "internalType": "uint256",
          "name": "_rewardDebt",
          "type": "uint256"
        }
      ],
      "name": "deposit",
      "outputs": [],
      "stateMutability": "nonpayable",
      "type": "function"
    },
    {
      "inputs": [
        {
          "internalType": "address",
          "name": "_token",
          "type": "address"
        }
      ],
      "name": "getPool",
      "outputs": [
        {
          "components": [
            {
              "internalType": "uint256",
              "name": "totalPooled",
              "type": "uint256"
            },
            {
              "internalType": "uint256",
              "name": "rewardsPerBlock",
              "type": "uint256"
            },
            {
              "internalType": "uint256",
              "name": "accCaplPerShare",
              "type": "uint256"
            },
            {
              "internalType": "uint256",
              "name": "lastRewardBlock",
              "type": "uint256"
            }
          ],
          "internalType": "struct TreasuryStorage.Pool",
          "name": "",
          "type": "tuple"
        }
      ],
      "stateMutability": "view",
      "type": "function"
    },
    {
      "inputs": [
        {
          "internalType": "bytes32",
          "name": "role",
          "type": "bytes32"
        }
      ],
      "name": "getRoleAdmin",
      "outputs": [
        {
          "internalType": "bytes32",
          "name": "",
          "type": "bytes32"
        }
      ],
      "stateMutability": "view",
      "type": "function"
    },
    {
      "inputs": [
        {
          "internalType": "address",
          "name": "_token",
          "type": "address"
        }
      ],
      "name": "getTokenSupply",
      "outputs": [
        {
          "internalType": "uint256",
          "name": "",
          "type": "uint256"
        }
      ],
      "stateMutability": "view",
      "type": "function"
    },
    {
      "inputs": [
        {
          "internalType": "address",
          "name": "_token",
          "type": "address"
        },
        {
          "internalType": "address",
          "name": "_user",
          "type": "address"
        }
      ],
      "name": "getUnlockedAmount",
      "outputs": [
        {
          "internalType": "uint256",
          "name": "unlockedAmount",
          "type": "uint256"
        }
      ],
      "stateMutability": "view",
      "type": "function"
    },
    {
      "inputs": [
        {
          "internalType": "address",
          "name": "_token",
          "type": "address"
        },
        {
          "internalType": "address",
          "name": "_user",
          "type": "address"
        }
      ],
      "name": "getUserPosition",
      "outputs": [
        {
          "components": [
            {
              "internalType": "uint256",
              "name": "totalAmount",
              "type": "uint256"
            },
            {
              "internalType": "uint256",
              "name": "rewardDebt",
              "type": "uint256"
            },
            {
              "internalType": "uint256",
              "name": "loanedAmount",
              "type": "uint256"
            }
          ],
          "internalType": "struct TreasuryStorage.UserPosition",
          "name": "",
          "type": "tuple"
        }
      ],
      "stateMutability": "view",
      "type": "function"
    },
    {
      "inputs": [
        {
          "internalType": "bytes32",
          "name": "role",
          "type": "bytes32"
        },
        {
          "internalType": "address",
          "name": "account",
          "type": "address"
        }
      ],
      "name": "grantRole",
      "outputs": [],
      "stateMutability": "nonpayable",
      "type": "function"
    },
    {
      "inputs": [
        {
          "internalType": "bytes32",
          "name": "role",
          "type": "bytes32"
        },
        {
          "internalType": "address",
          "name": "account",
          "type": "address"
        }
      ],
      "name": "hasRole",
      "outputs": [
        {
          "internalType": "bool",
          "name": "",
          "type": "bool"
        }
      ],
      "stateMutability": "view",
      "type": "function"
    },
    {
      "inputs": [
        {
          "internalType": "address",
          "name": "_token",
          "type": "address"
        },
        {
          "internalType": "address",
          "name": "_user",
          "type": "address"
        },
        {
          "internalType": "uint256",
          "name": "_amount",
          "type": "uint256"
        }
      ],
      "name": "loan",
      "outputs": [],
      "stateMutability": "nonpayable",
      "type": "function"
    },
    {
      "inputs": [
        {
          "internalType": "bytes32",
          "name": "role",
          "type": "bytes32"
        },
        {
          "internalType": "address",
          "name": "account",
          "type": "address"
        }
      ],
      "name": "renounceRole",
      "outputs": [],
      "stateMutability": "nonpayable",
      "type": "function"
    },
    {
      "inputs": [
        {
          "internalType": "address",
          "name": "_user",
          "type": "address"
        },
        {
          "internalType": "address",
          "name": "_token",
          "type": "address"
        },
        {
          "internalType": "uint256",
          "name": "_principal",
          "type": "uint256"
        }
      ],
      "name": "returnPrincipal",
      "outputs": [],
      "stateMutability": "nonpayable",
      "type": "function"
    },
    {
      "inputs": [
        {
          "internalType": "bytes32",
          "name": "role",
          "type": "bytes32"
        },
        {
          "internalType": "address",
          "name": "account",
          "type": "address"
        }
      ],
      "name": "revokeRole",
      "outputs": [],
      "stateMutability": "nonpayable",
      "type": "function"
    },
    {
      "inputs": [
        {
          "internalType": "address",
          "name": "_token",
          "type": "address"
        },
        {
          "internalType": "address",
          "name": "_user",
          "type": "address"
        },
        {
          "internalType": "uint256",
          "name": "_amount",
          "type": "uint256"
        },
        {
          "internalType": "uint256",
          "name": "_rewardDebt",
          "type": "uint256"
        }
      ],
      "name": "setUserPosition",
      "outputs": [],
      "stateMutability": "nonpayable",
      "type": "function"
    },
    {
      "inputs": [
        {
          "internalType": "bytes4",
          "name": "interfaceId",
          "type": "bytes4"
        }
      ],
      "name": "supportsInterface",
      "outputs": [
        {
          "internalType": "bool",
          "name": "",
          "type": "bool"
        }
      ],
      "stateMutability": "view",
      "type": "function"
    },
    {
      "inputs": [
        {
          "internalType": "address",
          "name": "_token",
          "type": "address"
        },
        {
          "internalType": "uint256",
          "name": "_accCaplPerShare",
          "type": "uint256"
        },
        {
          "internalType": "uint256",
          "name": "_lastRewardBlock",
          "type": "uint256"
        }
      ],
      "name": "updatePool",
      "outputs": [
        {
          "components": [
            {
              "internalType": "uint256",
              "name": "totalPooled",
              "type": "uint256"
            },
            {
              "internalType": "uint256",
              "name": "rewardsPerBlock",
              "type": "uint256"
            },
            {
              "internalType": "uint256",
              "name": "accCaplPerShare",
              "type": "uint256"
            },
            {
              "internalType": "uint256",
              "name": "lastRewardBlock",
              "type": "uint256"
            }
          ],
          "internalType": "struct TreasuryStorage.Pool",
          "name": "",
          "type": "tuple"
        }
      ],
      "stateMutability": "nonpayable",
      "type": "function"
    },
    {
      "inputs": [
        {
          "internalType": "address",
          "name": "_token",
          "type": "address"
        },
        {
          "internalType": "address",
          "name": "_user",
          "type": "address"
        },
        {
          "internalType": "uint256",
          "name": "_amount",
          "type": "uint256"
        },
        {
          "internalType": "uint256",
          "name": "_newRewardDebt",
          "type": "uint256"
        }
      ],
      "name": "withdraw",
      "outputs": [],
      "stateMutability": "nonpayable",
      "type": "function"
    }
  ],
  "bytecode": "0x60806040523480156200001157600080fd5b5060405162002c9238038062002c928339818101604052810190620000379190620000e9565b80600160006101000a81548173ffffffffffffffffffffffffffffffffffffffff021916908373ffffffffffffffffffffffffffffffffffffffff160217905550506200011b565b600080fd5b600073ffffffffffffffffffffffffffffffffffffffff82169050919050565b6000620000b18262000084565b9050919050565b620000c381620000a4565b8114620000cf57600080fd5b50565b600081519050620000e381620000b8565b92915050565b6000602082840312156200010257620001016200007f565b5b60006200011284828501620000d2565b91505092915050565b612b67806200012b6000396000f3fe608060405234801561001057600080fd5b50600436106101375760003560e01c806391d14854116100b8578063bbe4f6db1161007c578063bbe4f6db14610382578063c346771b146103b2578063d2456a95146103d0578063d547741f146103ec578063f2866c7814610408578063f5b5d2371461043857610137565b806391d14854146102a457806392a576e6146102d4578063999126d714610304578063a217fddf14610334578063b6f867a81461035257610137565b806336568abe116100ff57806336568abe146102045780633e0a56181461022057806361c811201461023c578063695c0bb8146102585780637bfe950c1461028857610137565b80630122a7e81461013c57806301ffc9a71461016c5780630efe6a8b1461019c578063248a9ca3146101b85780632f2ff15d146101e8575b600080fd5b61015660048036038101906101519190611cee565b610454565b6040516101639190611d47565b60405180910390f35b61018660048036038101906101819190611dba565b6104f2565b6040516101939190611e02565b60405180910390f35b6101b660048036038101906101b19190611e49565b61056c565b005b6101d260048036038101906101cd9190611ed2565b6107cf565b6040516101df9190611f0e565b60405180910390f35b61020260048036038101906101fd9190611f29565b6107ee565b005b61021e60048036038101906102199190611f29565b610817565b005b61023a60048036038101906102359190611f69565b61089a565b005b61025660048036038101906102519190611f69565b610983565b005b610272600480360381019061026d9190611e49565b610b3f565b60405161027f9190612020565b60405180910390f35b6102a2600480360381019061029d919061203b565b610c50565b005b6102be60048036038101906102b99190611f29565b610e10565b6040516102cb9190611e02565b60405180910390f35b6102ee60048036038101906102e99190611cee565b610e7a565b6040516102fb91906120e4565b60405180910390f35b61031e600480360381019061031991906120ff565b610f2f565b60405161032b9190611e02565b60405180910390f35b61033c610f7d565b6040516103499190611f0e565b60405180910390f35b61036c60048036038101906103679190611cee565b610f84565b6040516103799190611e02565b60405180910390f35b61039c600480360381019061039791906120ff565b611010565b6040516103a99190612020565b60405180910390f35b6103ba61114a565b6040516103c79190611f0e565b60405180910390f35b6103ea60048036038101906103e5919061203b565b61116e565b005b61040660048036038101906104019190611f29565b611219565b005b610422600480360381019061041d91906120ff565b611242565b60405161042f9190611d47565b60405180910390f35b610452600480360381019061044d919061203b565b6112c5565b005b600080600260008473ffffffffffffffffffffffffffffffffffffffff1673ffffffffffffffffffffffffffffffffffffffff16815260200190815260200160002060008573ffffffffffffffffffffffffffffffffffffffff1673ffffffffffffffffffffffffffffffffffffffff1681526020019081526020016000209050806002015481600001546104e9919061215b565b91505092915050565b60007f7965db0b000000000000000000000000000000000000000000000000000000007bffffffffffffffffffffffffffffffffffffffffffffffffffffffff1916827bffffffffffffffffffffffffffffffffffffffffffffffffffffffff19161480610565575061056482611440565b5b9050919050565b3073ffffffffffffffffffffffffffffffffffffffff1663b6f867a884600160009054906101000a900473ffffffffffffffffffffffffffffffffffffffff166040518363ffffffff1660e01b81526004016105c992919061219e565b602060405180830381865afa1580156105e6573d6000803e3d6000fd5b505050506040513d601f19601f8201168201806040525081019061060a91906121f3565b156106a7573073ffffffffffffffffffffffffffffffffffffffff1663f5b5d237600160009054906101000a900473ffffffffffffffffffffffffffffffffffffffff168585856040518563ffffffff1660e01b81526004016106709493929190612220565b600060405180830381600087803b15801561068a57600080fd5b505af115801561069e573d6000803e3d6000fd5b5050505061073b565b3073ffffffffffffffffffffffffffffffffffffffff1663d2456a95600160009054906101000a900473ffffffffffffffffffffffffffffffffffffffff168585856040518563ffffffff1660e01b81526004016107089493929190612220565b600060405180830381600087803b15801561072257600080fd5b505af1158015610736573d6000803e3d6000fd5b505050505b600160009054906101000a900473ffffffffffffffffffffffffffffffffffffffff1673ffffffffffffffffffffffffffffffffffffffff166340c10f1930846040518363ffffffff1660e01b8152600401610798929190612265565b600060405180830381600087803b1580156107b257600080fd5b505af11580156107c6573d6000803e3d6000fd5b50505050505050565b6000806000838152602001908152602001600020600101549050919050565b6107f7826107cf565b610808816108036114aa565b6114b2565b610812838361154f565b505050565b61081f6114aa565b73ffffffffffffffffffffffffffffffffffffffff168173ffffffffffffffffffffffffffffffffffffffff161461088c576040517f08c379a000000000000000000000000000000000000000000000000000000000815260040161088390612311565b60405180910390fd5b610896828261162f565b5050565b6000600260008573ffffffffffffffffffffffffffffffffffffffff1673ffffffffffffffffffffffffffffffffffffffff16815260200190815260200160002060008473ffffffffffffffffffffffffffffffffffffffff1673ffffffffffffffffffffffffffffffffffffffff16815260200190815260200160002090508181600201600082825461092e919061215b565b92505081905550818160000160008282546109499190612331565b9250508190555061097d8430848673ffffffffffffffffffffffffffffffffffffffff16611710909392919063ffffffff16565b50505050565b7f8e34397ebfb2b30de879ba566695932178f46861e3b05dcf2f402a62b072e4ac6109b5816109b06114aa565b6114b2565b818473ffffffffffffffffffffffffffffffffffffffff166370a08231306040518263ffffffff1660e01b81526004016109ef9190612387565b602060405180830381865afa158015610a0c573d6000803e3d6000fd5b505050506040513d601f19601f82011682018060405250810190610a3091906123b7565b11610a70576040517f08c379a0000000000000000000000000000000000000000000000000000000008152600401610a6790612456565b60405180910390fd5b6000600260008573ffffffffffffffffffffffffffffffffffffffff1673ffffffffffffffffffffffffffffffffffffffff16815260200190815260200160002060008673ffffffffffffffffffffffffffffffffffffffff1673ffffffffffffffffffffffffffffffffffffffff168152602001908152602001600020905082816002016000828254610b049190612331565b92505081905550610b383085858873ffffffffffffffffffffffffffffffffffffffff16611710909392919063ffffffff16565b5050505050565b610b47611c42565b81600360008673ffffffffffffffffffffffffffffffffffffffff1673ffffffffffffffffffffffffffffffffffffffff1681526020019081526020016000206003018190555082600360008673ffffffffffffffffffffffffffffffffffffffff1673ffffffffffffffffffffffffffffffffffffffff16815260200190815260200160002060020181905550600360008573ffffffffffffffffffffffffffffffffffffffff1673ffffffffffffffffffffffffffffffffffffffff16815260200190815260200160002060405180608001604052908160008201548152602001600182015481526020016002820154815260200160038201548152505090509392505050565b813073ffffffffffffffffffffffffffffffffffffffff16630122a7e886866040518363ffffffff1660e01b8152600401610c8c92919061219e565b602060405180830381865afa158015610ca9573d6000803e3d6000fd5b505050506040513d601f19601f82011682018060405250810190610ccd91906123b7565b11610d0d576040517f08c379a0000000000000000000000000000000000000000000000000000000008152600401610d04906124e8565b60405180910390fd5b3073ffffffffffffffffffffffffffffffffffffffff1663d2456a95858585856040518563ffffffff1660e01b8152600401610d4c9493929190612220565b600060405180830381600087803b158015610d6657600080fd5b505af1158015610d7a573d6000803e3d6000fd5b505050506000600360008673ffffffffffffffffffffffffffffffffffffffff1673ffffffffffffffffffffffffffffffffffffffff168152602001908152602001600020905082816000016000828254610dd5919061215b565b92505081905550610e093085858873ffffffffffffffffffffffffffffffffffffffff16611710909392919063ffffffff16565b5050505050565b600080600084815260200190815260200160002060000160008373ffffffffffffffffffffffffffffffffffffffff1673ffffffffffffffffffffffffffffffffffffffff16815260200190815260200160002060009054906101000a900460ff16905092915050565b610e82611c6a565b600260008373ffffffffffffffffffffffffffffffffffffffff1673ffffffffffffffffffffffffffffffffffffffff16815260200190815260200160002060008473ffffffffffffffffffffffffffffffffffffffff1673ffffffffffffffffffffffffffffffffffffffff1681526020019081526020016000206040518060600160405290816000820154815260200160018201548152602001600282015481525050905092915050565b600080600360008473ffffffffffffffffffffffffffffffffffffffff1673ffffffffffffffffffffffffffffffffffffffff16815260200190815260200160002060010154119050919050565b6000801b81565b600080600260008573ffffffffffffffffffffffffffffffffffffffff1673ffffffffffffffffffffffffffffffffffffffff16815260200190815260200160002060008473ffffffffffffffffffffffffffffffffffffffff1673ffffffffffffffffffffffffffffffffffffffff1681526020019081526020016000206000015411905092915050565b611018611c42565b3073ffffffffffffffffffffffffffffffffffffffff1663999126d7836040518263ffffffff1660e01b81526004016110519190612387565b602060405180830381865afa15801561106e573d6000803e3d6000fd5b505050506040513d601f19601f8201168201806040525081019061109291906121f3565b6110d1576040517f08c379a00000000000000000000000000000000000000000000000000000000081526004016110c890612554565b60405180910390fd5b600360008373ffffffffffffffffffffffffffffffffffffffff1673ffffffffffffffffffffffffffffffffffffffff1681526020019081526020016000206040518060800160405290816000820154815260200160018201548152602001600282015481526020016003820154815250509050919050565b7f8e34397ebfb2b30de879ba566695932178f46861e3b05dcf2f402a62b072e4ac81565b6000600260008573ffffffffffffffffffffffffffffffffffffffff1673ffffffffffffffffffffffffffffffffffffffff16815260200190815260200160002060008673ffffffffffffffffffffffffffffffffffffffff1673ffffffffffffffffffffffffffffffffffffffff1681526020019081526020016000209050828160000160008282546112029190612331565b925050819055508181600101819055505050505050565b611222826107cf565b6112338161122e6114aa565b6114b2565b61123d838361162f565b505050565b60008173ffffffffffffffffffffffffffffffffffffffff166370a08231306040518263ffffffff1660e01b815260040161127d9190612387565b602060405180830381865afa15801561129a573d6000803e3d6000fd5b505050506040513d601f19601f820116820180604052508101906112be91906123b7565b9050919050565b3073ffffffffffffffffffffffffffffffffffffffff1663b6f867a884866040518363ffffffff1660e01b815260040161130092919061219e565b602060405180830381865afa15801561131d573d6000803e3d6000fd5b505050506040513d601f19601f8201168201806040525081019061134191906121f3565b15611381576040517f08c379a0000000000000000000000000000000000000000000000000000000008152600401611378906125e6565b60405180910390fd5b60405180606001604052808381526020018281526020016000815250600260008573ffffffffffffffffffffffffffffffffffffffff1673ffffffffffffffffffffffffffffffffffffffff16815260200190815260200160002060008673ffffffffffffffffffffffffffffffffffffffff1673ffffffffffffffffffffffffffffffffffffffff16815260200190815260200160002060008201518160000155602082015181600101556040820151816002015590505050505050565b60007f01ffc9a7000000000000000000000000000000000000000000000000000000007bffffffffffffffffffffffffffffffffffffffffffffffffffffffff1916827bffffffffffffffffffffffffffffffffffffffffffffffffffffffff1916149050919050565b600033905090565b6114bc8282610e10565b61154b576114e18173ffffffffffffffffffffffffffffffffffffffff166014611799565b6114ef8360001c6020611799565b604051602001611500929190612718565b6040516020818303038152906040526040517f08c379a0000000000000000000000000000000000000000000000000000000008152600401611542919061279c565b60405180910390fd5b5050565b6115598282610e10565b61162b57600160008084815260200190815260200160002060000160008373ffffffffffffffffffffffffffffffffffffffff1673ffffffffffffffffffffffffffffffffffffffff16815260200190815260200160002060006101000a81548160ff0219169083151502179055506115d06114aa565b73ffffffffffffffffffffffffffffffffffffffff168173ffffffffffffffffffffffffffffffffffffffff16837f2f8788117e7eff1d82e926ec794901d17c78024a50270940304540a733656f0d60405160405180910390a45b5050565b6116398282610e10565b1561170c57600080600084815260200190815260200160002060000160008373ffffffffffffffffffffffffffffffffffffffff1673ffffffffffffffffffffffffffffffffffffffff16815260200190815260200160002060006101000a81548160ff0219169083151502179055506116b16114aa565b73ffffffffffffffffffffffffffffffffffffffff168173ffffffffffffffffffffffffffffffffffffffff16837ff6391f5c32d9c69d2a47ea670b442974b53935d1edc7fd64eb21e047a839171b60405160405180910390a45b5050565b611793846323b872dd60e01b858585604051602401611731939291906127be565b604051602081830303815290604052907bffffffffffffffffffffffffffffffffffffffffffffffffffffffff19166020820180517bffffffffffffffffffffffffffffffffffffffffffffffffffffffff83818316178352505050506119d5565b50505050565b6060600060028360026117ac91906127f5565b6117b69190612331565b67ffffffffffffffff8111156117cf576117ce61284f565b5b6040519080825280601f01601f1916602001820160405280156118015781602001600182028036833780820191505090505b5090507f3000000000000000000000000000000000000000000000000000000000000000816000815181106118395761183861287e565b5b60200101907effffffffffffffffffffffffffffffffffffffffffffffffffffffffffffff1916908160001a9053507f78000000000000000000000000000000000000000000000000000000000000008160018151811061189d5761189c61287e565b5b60200101907effffffffffffffffffffffffffffffffffffffffffffffffffffffffffffff1916908160001a905350600060018460026118dd91906127f5565b6118e79190612331565b90505b6001811115611987577f3031323334353637383961626364656600000000000000000000000000000000600f8616601081106119295761192861287e565b5b1a60f81b8282815181106119405761193f61287e565b5b60200101907effffffffffffffffffffffffffffffffffffffffffffffffffffffffffffff1916908160001a905350600485901c945080611980906128ad565b90506118ea565b50600084146119cb576040517f08c379a00000000000000000000000000000000000000000000000000000000081526004016119c290612923565b60405180910390fd5b8091505092915050565b6000611a37826040518060400160405280602081526020017f5361666545524332303a206c6f772d6c6576656c2063616c6c206661696c65648152508573ffffffffffffffffffffffffffffffffffffffff16611a9c9092919063ffffffff16565b9050600081511115611a975780806020019051810190611a5791906121f3565b611a96576040517f08c379a0000000000000000000000000000000000000000000000000000000008152600401611a8d906129b5565b60405180910390fd5b5b505050565b6060611aab8484600085611ab4565b90509392505050565b606082471015611af9576040517f08c379a0000000000000000000000000000000000000000000000000000000008152600401611af090612a47565b60405180910390fd5b611b0285611bc8565b611b41576040517f08c379a0000000000000000000000000000000000000000000000000000000008152600401611b3890612ab3565b60405180910390fd5b6000808673ffffffffffffffffffffffffffffffffffffffff168587604051611b6a9190612b1a565b60006040518083038185875af1925050503d8060008114611ba7576040519150601f19603f3d011682016040523d82523d6000602084013e611bac565b606091505b5091509150611bbc828286611bdb565b92505050949350505050565b600080823b905060008111915050919050565b60608315611beb57829050611c3b565b600083511115611bfe5782518084602001fd5b816040517f08c379a0000000000000000000000000000000000000000000000000000000008152600401611c32919061279c565b60405180910390fd5b9392505050565b6040518060800160405280600081526020016000815260200160008152602001600081525090565b60405180606001604052806000815260200160008152602001600081525090565b600080fd5b600073ffffffffffffffffffffffffffffffffffffffff82169050919050565b6000611cbb82611c90565b9050919050565b611ccb81611cb0565b8114611cd657600080fd5b50565b600081359050611ce881611cc2565b92915050565b60008060408385031215611d0557611d04611c8b565b5b6000611d1385828601611cd9565b9250506020611d2485828601611cd9565b9150509250929050565b6000819050919050565b611d4181611d2e565b82525050565b6000602082019050611d5c6000830184611d38565b92915050565b60007fffffffff0000000000000000000000000000000000000000000000000000000082169050919050565b611d9781611d62565b8114611da257600080fd5b50565b600081359050611db481611d8e565b92915050565b600060208284031215611dd057611dcf611c8b565b5b6000611dde84828501611da5565b91505092915050565b60008115159050919050565b611dfc81611de7565b82525050565b6000602082019050611e176000830184611df3565b92915050565b611e2681611d2e565b8114611e3157600080fd5b50565b600081359050611e4381611e1d565b92915050565b600080600060608486031215611e6257611e61611c8b565b5b6000611e7086828701611cd9565b9350506020611e8186828701611e34565b9250506040611e9286828701611e34565b9150509250925092565b6000819050919050565b611eaf81611e9c565b8114611eba57600080fd5b50565b600081359050611ecc81611ea6565b92915050565b600060208284031215611ee857611ee7611c8b565b5b6000611ef684828501611ebd565b91505092915050565b611f0881611e9c565b82525050565b6000602082019050611f236000830184611eff565b92915050565b60008060408385031215611f4057611f3f611c8b565b5b6000611f4e85828601611ebd565b9250506020611f5f85828601611cd9565b9150509250929050565b600080600060608486031215611f8257611f81611c8b565b5b6000611f9086828701611cd9565b9350506020611fa186828701611cd9565b9250506040611fb286828701611e34565b9150509250925092565b611fc581611d2e565b82525050565b608082016000820151611fe16000850182611fbc565b506020820151611ff46020850182611fbc565b5060408201516120076040850182611fbc565b50606082015161201a6060850182611fbc565b50505050565b60006080820190506120356000830184611fcb565b92915050565b6000806000806080858703121561205557612054611c8b565b5b600061206387828801611cd9565b945050602061207487828801611cd9565b935050604061208587828801611e34565b925050606061209687828801611e34565b91505092959194509250565b6060820160008201516120b86000850182611fbc565b5060208201516120cb6020850182611fbc565b5060408201516120de6040850182611fbc565b50505050565b60006060820190506120f960008301846120a2565b92915050565b60006020828403121561211557612114611c8b565b5b600061212384828501611cd9565b91505092915050565b7f4e487b7100000000000000000000000000000000000000000000000000000000600052601160045260246000fd5b600061216682611d2e565b915061217183611d2e565b9250828210156121845761218361212c565b5b828203905092915050565b61219881611cb0565b82525050565b60006040820190506121b3600083018561218f565b6121c0602083018461218f565b9392505050565b6121d081611de7565b81146121db57600080fd5b50565b6000815190506121ed816121c7565b92915050565b60006020828403121561220957612208611c8b565b5b6000612217848285016121de565b91505092915050565b6000608082019050612235600083018761218f565b612242602083018661218f565b61224f6040830185611d38565b61225c6060830184611d38565b95945050505050565b600060408201905061227a600083018561218f565b6122876020830184611d38565b9392505050565b600082825260208201905092915050565b7f416363657373436f6e74726f6c3a2063616e206f6e6c792072656e6f756e636560008201527f20726f6c657320666f722073656c660000000000000000000000000000000000602082015250565b60006122fb602f8361228e565b91506123068261229f565b604082019050919050565b6000602082019050818103600083015261232a816122ee565b9050919050565b600061233c82611d2e565b915061234783611d2e565b9250827fffffffffffffffffffffffffffffffffffffffffffffffffffffffffffffffff0382111561237c5761237b61212c565b5b828201905092915050565b600060208201905061239c600083018461218f565b92915050565b6000815190506123b181611e1d565b92915050565b6000602082840312156123cd576123cc611c8b565b5b60006123db848285016123a2565b91505092915050565b7f54686520616d6f756e742065786365656420746865207472656173757279206260008201527f616c616e63652e00000000000000000000000000000000000000000000000000602082015250565b600061244060278361228e565b915061244b826123e4565b604082019050919050565b6000602082019050818103600083015261246f81612433565b9050919050565b7f57697468647261776e20616d6f756e742065786365656420746865207573657260008201527f2062616c616e6365000000000000000000000000000000000000000000000000602082015250565b60006124d260288361228e565b91506124dd82612476565b604082019050919050565b60006020820190508181036000830152612501816124c5565b9050919050565b7f54686520706f6f6c20646f6573206e6f74206578697374732e00000000000000600082015250565b600061253e60198361228e565b915061254982612508565b602082019050919050565b6000602082019050818103600083015261256d81612531565b9050919050565b7f546865207573657220706f736974696f6e20697320616c72656164792065786960008201527f7374730000000000000000000000000000000000000000000000000000000000602082015250565b60006125d060238361228e565b91506125db82612574565b604082019050919050565b600060208201905081810360008301526125ff816125c3565b9050919050565b600081905092915050565b7f416363657373436f6e74726f6c3a206163636f756e7420000000000000000000600082015250565b6000612647601783612606565b915061265282612611565b601782019050919050565b600081519050919050565b60005b8381101561268657808201518184015260208101905061266b565b83811115612695576000848401525b50505050565b60006126a68261265d565b6126b08185612606565b93506126c0818560208601612668565b80840191505092915050565b7f206973206d697373696e6720726f6c6520000000000000000000000000000000600082015250565b6000612702601183612606565b915061270d826126cc565b601182019050919050565b60006127238261263a565b915061272f828561269b565b915061273a826126f5565b9150612746828461269b565b91508190509392505050565b6000601f19601f8301169050919050565b600061276e8261265d565b612778818561228e565b9350612788818560208601612668565b61279181612752565b840191505092915050565b600060208201905081810360008301526127b68184612763565b905092915050565b60006060820190506127d3600083018661218f565b6127e0602083018561218f565b6127ed6040830184611d38565b949350505050565b600061280082611d2e565b915061280b83611d2e565b9250817fffffffffffffffffffffffffffffffffffffffffffffffffffffffffffffffff04831182151516156128445761284361212c565b5b828202905092915050565b7f4e487b7100000000000000000000000000000000000000000000000000000000600052604160045260246000fd5b7f4e487b7100000000000000000000000000000000000000000000000000000000600052603260045260246000fd5b60006128b882611d2e565b915060008214156128cc576128cb61212c565b5b600182039050919050565b7f537472696e67733a20686578206c656e67746820696e73756666696369656e74600082015250565b600061290d60208361228e565b9150612918826128d7565b602082019050919050565b6000602082019050818103600083015261293c81612900565b9050919050565b7f5361666545524332303a204552433230206f7065726174696f6e20646964206e60008201527f6f74207375636365656400000000000000000000000000000000000000000000602082015250565b600061299f602a8361228e565b91506129aa82612943565b604082019050919050565b600060208201905081810360008301526129ce81612992565b9050919050565b7f416464726573733a20696e73756666696369656e742062616c616e636520666f60008201527f722063616c6c0000000000000000000000000000000000000000000000000000602082015250565b6000612a3160268361228e565b9150612a3c826129d5565b604082019050919050565b60006020820190508181036000830152612a6081612a24565b9050919050565b7f416464726573733a2063616c6c20746f206e6f6e2d636f6e7472616374000000600082015250565b6000612a9d601d8361228e565b9150612aa882612a67565b602082019050919050565b60006020820190508181036000830152612acc81612a90565b9050919050565b600081519050919050565b600081905092915050565b6000612af482612ad3565b612afe8185612ade565b9350612b0e818560208601612668565b80840191505092915050565b6000612b268284612ae9565b91508190509291505056fea2646970667358221220981c12374a3d1974cadfd24b791940407e92ab3dfced57ca02180a9d0a361a2b64736f6c634300080b0033",
  "linkReferences": {},
  "deployedLinkReferences": {}
}