{
  "_format": "hh-sol-artifact-1",
  "contractName": "TreasuryStorage",
  "sourceName": "contracts/treasury/TreasuryStorage.sol",
  "abi": [
    {
      "inputs": [
        {
          "internalType": "address",
          "name": "_treasuryShares",
          "type": "address"
        }
      ],
      "stateMutability": "nonpayable",
      "type": "constructor"
    },
    {
      "anonymous": false,
      "inputs": [
        {
          "indexed": true,
          "internalType": "bytes32",
          "name": "role",
          "type": "bytes32"
        },
        {
          "indexed": true,
          "internalType": "bytes32",
          "name": "previousAdminRole",
          "type": "bytes32"
        },
        {
          "indexed": true,
          "internalType": "bytes32",
          "name": "newAdminRole",
          "type": "bytes32"
        }
      ],
      "name": "RoleAdminChanged",
      "type": "event"
    },
    {
      "anonymous": false,
      "inputs": [
        {
          "indexed": true,
          "internalType": "bytes32",
          "name": "role",
          "type": "bytes32"
        },
        {
          "indexed": true,
          "internalType": "address",
          "name": "account",
          "type": "address"
        },
        {
          "indexed": true,
          "internalType": "address",
          "name": "sender",
          "type": "address"
        }
      ],
      "name": "RoleGranted",
      "type": "event"
    },
    {
      "anonymous": false,
      "inputs": [
        {
          "indexed": true,
          "internalType": "bytes32",
          "name": "role",
          "type": "bytes32"
        },
        {
          "indexed": true,
          "internalType": "address",
          "name": "account",
          "type": "address"
        },
        {
          "indexed": true,
          "internalType": "address",
          "name": "sender",
          "type": "address"
        }
      ],
      "name": "RoleRevoked",
      "type": "event"
    },
    {
      "inputs": [],
      "name": "DEFAULT_ADMIN_ROLE",
      "outputs": [
        {
          "internalType": "bytes32",
          "name": "",
          "type": "bytes32"
        }
      ],
      "stateMutability": "view",
      "type": "function"
    },
    {
      "inputs": [],
      "name": "REVENUE_CONTROLLER",
      "outputs": [
        {
          "internalType": "bytes32",
          "name": "",
          "type": "bytes32"
        }
      ],
      "stateMutability": "view",
      "type": "function"
    },
    {
      "inputs": [
        {
          "internalType": "address",
          "name": "_token",
          "type": "address"
        }
      ],
      "name": "checkIfPoolExists",
      "outputs": [
        {
          "internalType": "bool",
          "name": "",
          "type": "bool"
        }
      ],
      "stateMutability": "view",
      "type": "function"
    },
    {
      "inputs": [
        {
          "internalType": "address",
          "name": "_user",
          "type": "address"
        },
        {
          "internalType": "address",
          "name": "_token",
          "type": "address"
        }
      ],
      "name": "checkIfUserPositionExists",
      "outputs": [
        {
          "internalType": "bool",
          "name": "",
          "type": "bool"
        }
      ],
      "stateMutability": "view",
      "type": "function"
    },
    {
      "inputs": [
        {
          "internalType": "address",
          "name": "_user",
          "type": "address"
        },
        {
          "internalType": "address",
          "name": "_token",
          "type": "address"
        },
        {
          "internalType": "uint256",
          "name": "_amount",
          "type": "uint256"
        }
      ],
      "name": "deposit",
      "outputs": [],
      "stateMutability": "nonpayable",
      "type": "function"
    },
    {
      "inputs": [
        {
          "internalType": "bytes32",
          "name": "role",
          "type": "bytes32"
        }
      ],
      "name": "getRoleAdmin",
      "outputs": [
        {
          "internalType": "bytes32",
          "name": "",
          "type": "bytes32"
        }
      ],
      "stateMutability": "view",
      "type": "function"
    },
    {
      "inputs": [
        {
          "internalType": "address",
          "name": "_token",
          "type": "address"
        }
      ],
      "name": "getTokenSupply",
      "outputs": [
        {
          "internalType": "uint256",
          "name": "",
          "type": "uint256"
        }
      ],
      "stateMutability": "view",
      "type": "function"
    },
    {
      "inputs": [
        {
          "internalType": "address",
          "name": "_token",
          "type": "address"
        },
        {
          "internalType": "address",
          "name": "_user",
          "type": "address"
        }
      ],
      "name": "getUnlockedAmount",
      "outputs": [
        {
          "internalType": "uint256",
          "name": "unlockedAmount",
          "type": "uint256"
        }
      ],
      "stateMutability": "view",
      "type": "function"
    },
    {
      "inputs": [
        {
          "internalType": "address",
          "name": "_token",
          "type": "address"
        },
        {
          "internalType": "address",
          "name": "_user",
          "type": "address"
        }
      ],
      "name": "getUserPosition",
      "outputs": [
        {
          "components": [
            {
              "internalType": "uint256",
              "name": "totalAmount",
              "type": "uint256"
            },
            {
              "internalType": "uint256",
              "name": "loanedAmount",
              "type": "uint256"
            },
            {
              "internalType": "uint256",
              "name": "profit",
              "type": "uint256"
            },
            {
              "internalType": "uint256",
              "name": "lastAllocRequestBlock",
              "type": "uint256"
            }
          ],
          "internalType": "struct TreasuryStorage.UserPosition",
          "name": "",
          "type": "tuple"
        }
      ],
      "stateMutability": "view",
      "type": "function"
    },
    {
      "inputs": [
        {
          "internalType": "bytes32",
          "name": "role",
          "type": "bytes32"
        },
        {
          "internalType": "address",
          "name": "account",
          "type": "address"
        }
      ],
      "name": "grantRole",
      "outputs": [],
      "stateMutability": "nonpayable",
      "type": "function"
    },
    {
      "inputs": [
        {
          "internalType": "bytes32",
          "name": "role",
          "type": "bytes32"
        },
        {
          "internalType": "address",
          "name": "account",
          "type": "address"
        }
      ],
      "name": "hasRole",
      "outputs": [
        {
          "internalType": "bool",
          "name": "",
          "type": "bool"
        }
      ],
      "stateMutability": "view",
      "type": "function"
    },
    {
      "inputs": [
        {
          "internalType": "address",
          "name": "_token",
          "type": "address"
        },
        {
          "internalType": "address",
          "name": "_user",
          "type": "address"
        },
        {
          "internalType": "uint256",
          "name": "_amount",
          "type": "uint256"
        }
      ],
      "name": "loan",
      "outputs": [],
      "stateMutability": "nonpayable",
      "type": "function"
    },
    {
      "inputs": [
        {
          "internalType": "address",
          "name": "_destination",
          "type": "address"
        },
        {
          "internalType": "uint256",
          "name": "_amount",
          "type": "uint256"
        }
      ],
      "name": "mintTreasuryShares",
      "outputs": [],
      "stateMutability": "nonpayable",
      "type": "function"
    },
    {
      "inputs": [
        {
          "internalType": "bytes32",
          "name": "role",
          "type": "bytes32"
        },
        {
          "internalType": "address",
          "name": "account",
          "type": "address"
        }
      ],
      "name": "renounceRole",
      "outputs": [],
      "stateMutability": "nonpayable",
      "type": "function"
    },
    {
      "inputs": [
        {
          "internalType": "address",
          "name": "_user",
          "type": "address"
        },
        {
          "internalType": "address",
          "name": "_token",
          "type": "address"
        },
        {
          "internalType": "uint256",
          "name": "_principal",
          "type": "uint256"
        }
      ],
      "name": "returnPrincipal",
      "outputs": [],
      "stateMutability": "nonpayable",
      "type": "function"
    },
    {
      "inputs": [
        {
          "internalType": "bytes32",
          "name": "role",
          "type": "bytes32"
        },
        {
          "internalType": "address",
          "name": "account",
          "type": "address"
        }
      ],
      "name": "revokeRole",
      "outputs": [],
      "stateMutability": "nonpayable",
      "type": "function"
    },
    {
      "inputs": [
        {
          "internalType": "address",
          "name": "_token",
          "type": "address"
        },
        {
          "internalType": "address",
          "name": "_user",
          "type": "address"
        },
        {
          "internalType": "uint256",
          "name": "_profit",
          "type": "uint256"
        },
        {
          "internalType": "uint256",
          "name": "_lastAllockRequetBlock",
          "type": "uint256"
        }
      ],
      "name": "setUserPosition",
      "outputs": [],
      "stateMutability": "nonpayable",
      "type": "function"
    },
    {
      "inputs": [
        {
          "internalType": "bytes4",
          "name": "interfaceId",
          "type": "bytes4"
        }
      ],
      "name": "supportsInterface",
      "outputs": [
        {
          "internalType": "bool",
          "name": "",
          "type": "bool"
        }
      ],
      "stateMutability": "view",
      "type": "function"
    },
    {
      "inputs": [
        {
          "internalType": "address",
          "name": "_token",
          "type": "address"
        },
        {
          "internalType": "uint256",
          "name": "_allocAmount",
          "type": "uint256"
        }
      ],
      "name": "updatePool",
      "outputs": [
        {
          "components": [
            {
              "internalType": "uint256",
              "name": "totalPooled",
              "type": "uint256"
            }
          ],
          "internalType": "struct TreasuryStorage.Pool",
          "name": "",
          "type": "tuple"
        }
      ],
      "stateMutability": "nonpayable",
      "type": "function"
    },
    {
      "inputs": [
        {
          "internalType": "address",
          "name": "_token",
          "type": "address"
        },
        {
          "internalType": "address",
          "name": "_user",
          "type": "address"
        },
        {
          "internalType": "uint256",
          "name": "_amount",
          "type": "uint256"
        }
      ],
      "name": "withdraw",
      "outputs": [],
      "stateMutability": "nonpayable",
      "type": "function"
    }
  ],
  "bytecode": "0x60806040523480156200001157600080fd5b5060405162002c9138038062002c91833981810160405281019062000037919062000277565b80600160006101000a81548173ffffffffffffffffffffffffffffffffffffffff021916908373ffffffffffffffffffffffffffffffffffffffff1602179055506200008d6000801b336200009460201b60201c565b50620002a9565b620000a68282620000aa60201b60201c565b5050565b620000bc82826200019b60201b60201c565b6200019757600160008084815260200190815260200160002060000160008373ffffffffffffffffffffffffffffffffffffffff1673ffffffffffffffffffffffffffffffffffffffff16815260200190815260200160002060006101000a81548160ff0219169083151502179055506200013c6200020560201b60201c565b73ffffffffffffffffffffffffffffffffffffffff168173ffffffffffffffffffffffffffffffffffffffff16837f2f8788117e7eff1d82e926ec794901d17c78024a50270940304540a733656f0d60405160405180910390a45b5050565b600080600084815260200190815260200160002060000160008373ffffffffffffffffffffffffffffffffffffffff1673ffffffffffffffffffffffffffffffffffffffff16815260200190815260200160002060009054906101000a900460ff16905092915050565b600033905090565b600080fd5b600073ffffffffffffffffffffffffffffffffffffffff82169050919050565b60006200023f8262000212565b9050919050565b620002518162000232565b81146200025d57600080fd5b50565b600081519050620002718162000246565b92915050565b60006020828403121562000290576200028f6200020d565b5b6000620002a08482850162000260565b91505092915050565b6129d880620002b96000396000f3fe608060405234801561001057600080fd5b506004361061012c5760003560e01c806391d14854116100ad578063d2456a9511610071578063d2456a9514610377578063d547741f14610393578063d9caed12146103af578063f2866c78146103cb578063f897e376146103fb5761012c565b806391d148541461029957806392a576e6146102c9578063999126d7146102f9578063a217fddf14610329578063b6f867a8146103475761012c565b806336568abe116100f457806336568abe146101f95780633e0a56181461021557806361c81120146102315780638340f5491461024d5780638ed7333d146102695761012c565b80630122a7e81461013157806301ce30701461016157806301ffc9a71461017d578063248a9ca3146101ad5780632f2ff15d146101dd575b600080fd5b61014b60048036038101906101469190611c6f565b610419565b6040516101589190611cc8565b60405180910390f35b61017b60048036038101906101769190611d0f565b6104b7565b005b61019760048036038101906101929190611da7565b610560565b6040516101a49190611def565b60405180910390f35b6101c760048036038101906101c29190611e40565b6105da565b6040516101d49190611e7c565b60405180910390f35b6101f760048036038101906101f29190611e97565b6105f9565b005b610213600480360381019061020e9190611e97565b610622565b005b61022f600480360381019061022a9190611ed7565b6106a5565b005b61024b60048036038101906102469190611ed7565b6107ed565b005b61026760048036038101906102629190611ed7565b6109f9565b005b610283600480360381019061027e9190611d0f565b610c7e565b6040516102909190611f55565b60405180910390f35b6102b360048036038101906102ae9190611e97565b610d36565b6040516102c09190611def565b60405180910390f35b6102e360048036038101906102de9190611c6f565b610da0565b6040516102f09190611fc5565b60405180910390f35b610313600480360381019061030e9190611fe0565b610e5f565b6040516103209190611def565b60405180910390f35b610331610ead565b60405161033e9190611e7c565b60405180910390f35b610361600480360381019061035c9190611c6f565b610eb4565b60405161036e9190611def565b60405180910390f35b610391600480360381019061038c919061200d565b610f40565b005b6103ad60048036038101906103a89190611e97565b611039565b005b6103c960048036038101906103c49190611ed7565b611062565b005b6103e560048036038101906103e09190611fe0565b611259565b6040516103f29190611cc8565b60405180910390f35b6104036112dc565b6040516104109190611e7c565b60405180910390f35b600080600260008473ffffffffffffffffffffffffffffffffffffffff1673ffffffffffffffffffffffffffffffffffffffff16815260200190815260200160002060008573ffffffffffffffffffffffffffffffffffffffff1673ffffffffffffffffffffffffffffffffffffffff1681526020019081526020016000209050806001015481600001546104ae91906120a3565b91505092915050565b6000801b6104cc816104c7611300565b611308565b600160009054906101000a900473ffffffffffffffffffffffffffffffffffffffff1673ffffffffffffffffffffffffffffffffffffffff166340c10f1984846040518363ffffffff1660e01b81526004016105299291906120e6565b600060405180830381600087803b15801561054357600080fd5b505af1158015610557573d6000803e3d6000fd5b50505050505050565b60007f7965db0b000000000000000000000000000000000000000000000000000000007bffffffffffffffffffffffffffffffffffffffffffffffffffffffff1916827bffffffffffffffffffffffffffffffffffffffffffffffffffffffff191614806105d357506105d2826113a5565b5b9050919050565b6000806000838152602001908152602001600020600101549050919050565b610602826105da565b6106138161060e611300565b611308565b61061d838361140f565b505050565b61062a611300565b73ffffffffffffffffffffffffffffffffffffffff168173ffffffffffffffffffffffffffffffffffffffff1614610697576040517f08c379a000000000000000000000000000000000000000000000000000000000815260040161068e90612192565b60405180910390fd5b6106a182826114ef565b5050565b7ffa146205d79c04d22c6b2309d75a6844cd1b28ad727f2383e3ee22681f0013996106d7816106d2611300565b611308565b6000600260008673ffffffffffffffffffffffffffffffffffffffff1673ffffffffffffffffffffffffffffffffffffffff16815260200190815260200160002060008573ffffffffffffffffffffffffffffffffffffffff1673ffffffffffffffffffffffffffffffffffffffff16815260200190815260200160002090508281600101600082825461076b91906120a3565b925050819055508281600001600082825461078691906121b2565b9250508190555082600360008673ffffffffffffffffffffffffffffffffffffffff1673ffffffffffffffffffffffffffffffffffffffff16815260200190815260200160002060000160008282546107df91906121b2565b925050819055505050505050565b806107f88484610419565b11610838576040517f08c379a000000000000000000000000000000000000000000000000000000000815260040161082f9061227a565b60405180910390fd5b6000600260008473ffffffffffffffffffffffffffffffffffffffff1673ffffffffffffffffffffffffffffffffffffffff16815260200190815260200160002060008573ffffffffffffffffffffffffffffffffffffffff1673ffffffffffffffffffffffffffffffffffffffff1681526020019081526020016000209050818160010160008282546108cc91906121b2565b92505081905550818160000160008282546108e791906120a3565b9250508190555081600360008673ffffffffffffffffffffffffffffffffffffffff1673ffffffffffffffffffffffffffffffffffffffff168152602001908152602001600020600001600082825461094091906120a3565b925050819055508373ffffffffffffffffffffffffffffffffffffffff1663095ea7b330846040518363ffffffff1660e01b81526004016109829291906120e6565b6020604051808303816000875af11580156109a1573d6000803e3d6000fd5b505050506040513d601f19601f820116820180604052508101906109c591906122c6565b506109f33084848773ffffffffffffffffffffffffffffffffffffffff166115d0909392919063ffffffff16565b50505050565b610a0282610e5f565b610a41576040517f08c379a0000000000000000000000000000000000000000000000000000000008152600401610a389061233f565b60405180910390fd5b6000600360008473ffffffffffffffffffffffffffffffffffffffff1673ffffffffffffffffffffffffffffffffffffffff168152602001908152602001600020905081816000016000828254610a9891906121b2565b925050819055503073ffffffffffffffffffffffffffffffffffffffff1663b6f867a885856040518363ffffffff1660e01b8152600401610ada92919061235f565b602060405180830381865afa158015610af7573d6000803e3d6000fd5b505050506040513d601f19601f82011682018060405250810190610b1b91906122c6565b610b2f57610b2a838584611659565b610bcc565b6000600260008573ffffffffffffffffffffffffffffffffffffffff1673ffffffffffffffffffffffffffffffffffffffff16815260200190815260200160002060008673ffffffffffffffffffffffffffffffffffffffff1673ffffffffffffffffffffffffffffffffffffffff168152602001908152602001600020905082816000016000828254610bc391906121b2565b92505081905550505b8273ffffffffffffffffffffffffffffffffffffffff1663095ea7b385846040518363ffffffff1660e01b8152600401610c079291906120e6565b6020604051808303816000875af1158015610c26573d6000803e3d6000fd5b505050506040513d601f19601f82011682018060405250810190610c4a91906122c6565b50610c788430848673ffffffffffffffffffffffffffffffffffffffff166115d0909392919063ffffffff16565b50505050565b610c86611bd1565b7ffa146205d79c04d22c6b2309d75a6844cd1b28ad727f2383e3ee22681f001399610cb881610cb3611300565b611308565b6000600360008673ffffffffffffffffffffffffffffffffffffffff1673ffffffffffffffffffffffffffffffffffffffff168152602001908152602001600020905083816000016000828254610d0f91906121b2565b92505081905550806040518060200160405290816000820154815250509250505092915050565b600080600084815260200190815260200160002060000160008373ffffffffffffffffffffffffffffffffffffffff1673ffffffffffffffffffffffffffffffffffffffff16815260200190815260200160002060009054906101000a900460ff16905092915050565b610da8611be4565b600260008373ffffffffffffffffffffffffffffffffffffffff1673ffffffffffffffffffffffffffffffffffffffff16815260200190815260200160002060008473ffffffffffffffffffffffffffffffffffffffff1673ffffffffffffffffffffffffffffffffffffffff168152602001908152602001600020604051806080016040529081600082015481526020016001820154815260200160028201548152602001600382015481525050905092915050565b600080600360008473ffffffffffffffffffffffffffffffffffffffff1673ffffffffffffffffffffffffffffffffffffffff16815260200190815260200160002060000154119050919050565b6000801b81565b600080600260008573ffffffffffffffffffffffffffffffffffffffff1673ffffffffffffffffffffffffffffffffffffffff16815260200190815260200160002060008473ffffffffffffffffffffffffffffffffffffffff1673ffffffffffffffffffffffffffffffffffffffff1681526020019081526020016000206000015411905092915050565b7ffa146205d79c04d22c6b2309d75a6844cd1b28ad727f2383e3ee22681f001399610f7281610f6d611300565b611308565b6000600260008673ffffffffffffffffffffffffffffffffffffffff1673ffffffffffffffffffffffffffffffffffffffff16815260200190815260200160002060008773ffffffffffffffffffffffffffffffffffffffff1673ffffffffffffffffffffffffffffffffffffffff16815260200190815260200160002090508381600201600082825461100691906121b2565b925050819055508381600001600082825461102191906121b2565b92505081905550828160030181905550505050505050565b611042826105da565b6110538161104e611300565b611308565b61105d83836114ef565b505050565b8061106d8484610419565b116110ad576040517f08c379a00000000000000000000000000000000000000000000000000000000081526004016110a4906123fa565b60405180910390fd5b6000600260008573ffffffffffffffffffffffffffffffffffffffff1673ffffffffffffffffffffffffffffffffffffffff16815260200190815260200160002060008473ffffffffffffffffffffffffffffffffffffffff1673ffffffffffffffffffffffffffffffffffffffff16815260200190815260200160002090508181600001600082825461114191906120a3565b925050819055506000600360008673ffffffffffffffffffffffffffffffffffffffff1673ffffffffffffffffffffffffffffffffffffffff16815260200190815260200160002090508281600001600082825461119f91906120a3565b925050819055508473ffffffffffffffffffffffffffffffffffffffff1663095ea7b330856040518363ffffffff1660e01b81526004016111e19291906120e6565b6020604051808303816000875af1158015611200573d6000803e3d6000fd5b505050506040513d601f19601f8201168201806040525081019061122491906122c6565b506112523085858873ffffffffffffffffffffffffffffffffffffffff166115d0909392919063ffffffff16565b5050505050565b60008173ffffffffffffffffffffffffffffffffffffffff166370a08231306040518263ffffffff1660e01b8152600401611294919061241a565b602060405180830381865afa1580156112b1573d6000803e3d6000fd5b505050506040513d601f19601f820116820180604052508101906112d5919061244a565b9050919050565b7ffa146205d79c04d22c6b2309d75a6844cd1b28ad727f2383e3ee22681f00139981565b600033905090565b6113128282610d36565b6113a1576113378173ffffffffffffffffffffffffffffffffffffffff166014611728565b6113458360001c6020611728565b604051602001611356929190612589565b6040516020818303038152906040526040517f08c379a0000000000000000000000000000000000000000000000000000000008152600401611398919061260d565b60405180910390fd5b5050565b60007f01ffc9a7000000000000000000000000000000000000000000000000000000007bffffffffffffffffffffffffffffffffffffffffffffffffffffffff1916827bffffffffffffffffffffffffffffffffffffffffffffffffffffffff1916149050919050565b6114198282610d36565b6114eb57600160008084815260200190815260200160002060000160008373ffffffffffffffffffffffffffffffffffffffff1673ffffffffffffffffffffffffffffffffffffffff16815260200190815260200160002060006101000a81548160ff021916908315150217905550611490611300565b73ffffffffffffffffffffffffffffffffffffffff168173ffffffffffffffffffffffffffffffffffffffff16837f2f8788117e7eff1d82e926ec794901d17c78024a50270940304540a733656f0d60405160405180910390a45b5050565b6114f98282610d36565b156115cc57600080600084815260200190815260200160002060000160008373ffffffffffffffffffffffffffffffffffffffff1673ffffffffffffffffffffffffffffffffffffffff16815260200190815260200160002060006101000a81548160ff021916908315150217905550611571611300565b73ffffffffffffffffffffffffffffffffffffffff168173ffffffffffffffffffffffffffffffffffffffff16837ff6391f5c32d9c69d2a47ea670b442974b53935d1edc7fd64eb21e047a839171b60405160405180910390a45b5050565b611653846323b872dd60e01b8585856040516024016115f19392919061262f565b604051602081830303815290604052907bffffffffffffffffffffffffffffffffffffffffffffffffffffffff19166020820180517bffffffffffffffffffffffffffffffffffffffffffffffffffffffff8381831617835250505050611964565b50505050565b6040518060800160405280828152602001600081526020016000815260200143815250600260008473ffffffffffffffffffffffffffffffffffffffff1673ffffffffffffffffffffffffffffffffffffffff16815260200190815260200160002060008573ffffffffffffffffffffffffffffffffffffffff1673ffffffffffffffffffffffffffffffffffffffff16815260200190815260200160002060008201518160000155602082015181600101556040820151816002015560608201518160030155905050505050565b60606000600283600261173b9190612666565b61174591906121b2565b67ffffffffffffffff81111561175e5761175d6126c0565b5b6040519080825280601f01601f1916602001820160405280156117905781602001600182028036833780820191505090505b5090507f3000000000000000000000000000000000000000000000000000000000000000816000815181106117c8576117c76126ef565b5b60200101907effffffffffffffffffffffffffffffffffffffffffffffffffffffffffffff1916908160001a9053507f78000000000000000000000000000000000000000000000000000000000000008160018151811061182c5761182b6126ef565b5b60200101907effffffffffffffffffffffffffffffffffffffffffffffffffffffffffffff1916908160001a9053506000600184600261186c9190612666565b61187691906121b2565b90505b6001811115611916577f3031323334353637383961626364656600000000000000000000000000000000600f8616601081106118b8576118b76126ef565b5b1a60f81b8282815181106118cf576118ce6126ef565b5b60200101907effffffffffffffffffffffffffffffffffffffffffffffffffffffffffffff1916908160001a905350600485901c94508061190f9061271e565b9050611879565b506000841461195a576040517f08c379a000000000000000000000000000000000000000000000000000000000815260040161195190612794565b60405180910390fd5b8091505092915050565b60006119c6826040518060400160405280602081526020017f5361666545524332303a206c6f772d6c6576656c2063616c6c206661696c65648152508573ffffffffffffffffffffffffffffffffffffffff16611a2b9092919063ffffffff16565b9050600081511115611a2657808060200190518101906119e691906122c6565b611a25576040517f08c379a0000000000000000000000000000000000000000000000000000000008152600401611a1c90612826565b60405180910390fd5b5b505050565b6060611a3a8484600085611a43565b90509392505050565b606082471015611a88576040517f08c379a0000000000000000000000000000000000000000000000000000000008152600401611a7f906128b8565b60405180910390fd5b611a9185611b57565b611ad0576040517f08c379a0000000000000000000000000000000000000000000000000000000008152600401611ac790612924565b60405180910390fd5b6000808673ffffffffffffffffffffffffffffffffffffffff168587604051611af9919061298b565b60006040518083038185875af1925050503d8060008114611b36576040519150601f19603f3d011682016040523d82523d6000602084013e611b3b565b606091505b5091509150611b4b828286611b6a565b92505050949350505050565b600080823b905060008111915050919050565b60608315611b7a57829050611bca565b600083511115611b8d5782518084602001fd5b816040517f08c379a0000000000000000000000000000000000000000000000000000000008152600401611bc1919061260d565b60405180910390fd5b9392505050565b6040518060200160405280600081525090565b6040518060800160405280600081526020016000815260200160008152602001600081525090565b600080fd5b600073ffffffffffffffffffffffffffffffffffffffff82169050919050565b6000611c3c82611c11565b9050919050565b611c4c81611c31565b8114611c5757600080fd5b50565b600081359050611c6981611c43565b92915050565b60008060408385031215611c8657611c85611c0c565b5b6000611c9485828601611c5a565b9250506020611ca585828601611c5a565b9150509250929050565b6000819050919050565b611cc281611caf565b82525050565b6000602082019050611cdd6000830184611cb9565b92915050565b611cec81611caf565b8114611cf757600080fd5b50565b600081359050611d0981611ce3565b92915050565b60008060408385031215611d2657611d25611c0c565b5b6000611d3485828601611c5a565b9250506020611d4585828601611cfa565b9150509250929050565b60007fffffffff0000000000000000000000000000000000000000000000000000000082169050919050565b611d8481611d4f565b8114611d8f57600080fd5b50565b600081359050611da181611d7b565b92915050565b600060208284031215611dbd57611dbc611c0c565b5b6000611dcb84828501611d92565b91505092915050565b60008115159050919050565b611de981611dd4565b82525050565b6000602082019050611e046000830184611de0565b92915050565b6000819050919050565b611e1d81611e0a565b8114611e2857600080fd5b50565b600081359050611e3a81611e14565b92915050565b600060208284031215611e5657611e55611c0c565b5b6000611e6484828501611e2b565b91505092915050565b611e7681611e0a565b82525050565b6000602082019050611e916000830184611e6d565b92915050565b60008060408385031215611eae57611ead611c0c565b5b6000611ebc85828601611e2b565b9250506020611ecd85828601611c5a565b9150509250929050565b600080600060608486031215611ef057611eef611c0c565b5b6000611efe86828701611c5a565b9350506020611f0f86828701611c5a565b9250506040611f2086828701611cfa565b9150509250925092565b611f3381611caf565b82525050565b602082016000820151611f4f6000850182611f2a565b50505050565b6000602082019050611f6a6000830184611f39565b92915050565b608082016000820151611f866000850182611f2a565b506020820151611f996020850182611f2a565b506040820151611fac6040850182611f2a565b506060820151611fbf6060850182611f2a565b50505050565b6000608082019050611fda6000830184611f70565b92915050565b600060208284031215611ff657611ff5611c0c565b5b600061200484828501611c5a565b91505092915050565b6000806000806080858703121561202757612026611c0c565b5b600061203587828801611c5a565b945050602061204687828801611c5a565b935050604061205787828801611cfa565b925050606061206887828801611cfa565b91505092959194509250565b7f4e487b7100000000000000000000000000000000000000000000000000000000600052601160045260246000fd5b60006120ae82611caf565b91506120b983611caf565b9250828210156120cc576120cb612074565b5b828203905092915050565b6120e081611c31565b82525050565b60006040820190506120fb60008301856120d7565b6121086020830184611cb9565b9392505050565b600082825260208201905092915050565b7f416363657373436f6e74726f6c3a2063616e206f6e6c792072656e6f756e636560008201527f20726f6c657320666f722073656c660000000000000000000000000000000000602082015250565b600061217c602f8361210f565b915061218782612120565b604082019050919050565b600060208201905081810360008301526121ab8161216f565b9050919050565b60006121bd82611caf565b91506121c883611caf565b9250827fffffffffffffffffffffffffffffffffffffffffffffffffffffffffffffffff038211156121fd576121fc612074565b5b828201905092915050565b7f54686520616d6f756e742065786365656420746865207472656173757279206260008201527f616c616e63652e00000000000000000000000000000000000000000000000000602082015250565b600061226460278361210f565b915061226f82612208565b604082019050919050565b6000602082019050818103600083015261229381612257565b9050919050565b6122a381611dd4565b81146122ae57600080fd5b50565b6000815190506122c08161229a565b92915050565b6000602082840312156122dc576122db611c0c565b5b60006122ea848285016122b1565b91505092915050565b7f506f6f6c20646f6573206e6f7420657869737400000000000000000000000000600082015250565b600061232960138361210f565b9150612334826122f3565b602082019050919050565b600060208201905081810360008301526123588161231c565b9050919050565b600060408201905061237460008301856120d7565b61238160208301846120d7565b9392505050565b7f57697468647261776e20616d6f756e74206578636565642074686520616c6c6f60008201527f77616e6365000000000000000000000000000000000000000000000000000000602082015250565b60006123e460258361210f565b91506123ef82612388565b604082019050919050565b60006020820190508181036000830152612413816123d7565b9050919050565b600060208201905061242f60008301846120d7565b92915050565b60008151905061244481611ce3565b92915050565b6000602082840312156124605761245f611c0c565b5b600061246e84828501612435565b91505092915050565b600081905092915050565b7f416363657373436f6e74726f6c3a206163636f756e7420000000000000000000600082015250565b60006124b8601783612477565b91506124c382612482565b601782019050919050565b600081519050919050565b60005b838110156124f75780820151818401526020810190506124dc565b83811115612506576000848401525b50505050565b6000612517826124ce565b6125218185612477565b93506125318185602086016124d9565b80840191505092915050565b7f206973206d697373696e6720726f6c6520000000000000000000000000000000600082015250565b6000612573601183612477565b915061257e8261253d565b601182019050919050565b6000612594826124ab565b91506125a0828561250c565b91506125ab82612566565b91506125b7828461250c565b91508190509392505050565b6000601f19601f8301169050919050565b60006125df826124ce565b6125e9818561210f565b93506125f98185602086016124d9565b612602816125c3565b840191505092915050565b6000602082019050818103600083015261262781846125d4565b905092915050565b600060608201905061264460008301866120d7565b61265160208301856120d7565b61265e6040830184611cb9565b949350505050565b600061267182611caf565b915061267c83611caf565b9250817fffffffffffffffffffffffffffffffffffffffffffffffffffffffffffffffff04831182151516156126b5576126b4612074565b5b828202905092915050565b7f4e487b7100000000000000000000000000000000000000000000000000000000600052604160045260246000fd5b7f4e487b7100000000000000000000000000000000000000000000000000000000600052603260045260246000fd5b600061272982611caf565b9150600082141561273d5761273c612074565b5b600182039050919050565b7f537472696e67733a20686578206c656e67746820696e73756666696369656e74600082015250565b600061277e60208361210f565b915061278982612748565b602082019050919050565b600060208201905081810360008301526127ad81612771565b9050919050565b7f5361666545524332303a204552433230206f7065726174696f6e20646964206e60008201527f6f74207375636365656400000000000000000000000000000000000000000000602082015250565b6000612810602a8361210f565b915061281b826127b4565b604082019050919050565b6000602082019050818103600083015261283f81612803565b9050919050565b7f416464726573733a20696e73756666696369656e742062616c616e636520666f60008201527f722063616c6c0000000000000000000000000000000000000000000000000000602082015250565b60006128a260268361210f565b91506128ad82612846565b604082019050919050565b600060208201905081810360008301526128d181612895565b9050919050565b7f416464726573733a2063616c6c20746f206e6f6e2d636f6e7472616374000000600082015250565b600061290e601d8361210f565b9150612919826128d8565b602082019050919050565b6000602082019050818103600083015261293d81612901565b9050919050565b600081519050919050565b600081905092915050565b600061296582612944565b61296f818561294f565b935061297f8185602086016124d9565b80840191505092915050565b6000612997828461295a565b91508190509291505056fea264697066735822122004f63c36c582cd2148074b93fc2bb41c61b7f2832c48acb2974f34911e94834964736f6c634300080b0033",
  "linkReferences": {},
  "deployedLinkReferences": {}
}