{
  "_format": "hh-sol-artifact-1",
  "contractName": "TreasuryStorage",
  "sourceName": "contracts/treasury/TreasuryStorage.sol",
  "abi": [
    {
      "inputs": [
        {
          "internalType": "address",
          "name": "_treasuryShares",
          "type": "address"
        }
      ],
      "stateMutability": "nonpayable",
      "type": "constructor"
    },
    {
      "anonymous": false,
      "inputs": [
        {
          "indexed": true,
          "internalType": "bytes32",
          "name": "role",
          "type": "bytes32"
        },
        {
          "indexed": true,
          "internalType": "bytes32",
          "name": "previousAdminRole",
          "type": "bytes32"
        },
        {
          "indexed": true,
          "internalType": "bytes32",
          "name": "newAdminRole",
          "type": "bytes32"
        }
      ],
      "name": "RoleAdminChanged",
      "type": "event"
    },
    {
      "anonymous": false,
      "inputs": [
        {
          "indexed": true,
          "internalType": "bytes32",
          "name": "role",
          "type": "bytes32"
        },
        {
          "indexed": true,
          "internalType": "address",
          "name": "account",
          "type": "address"
        },
        {
          "indexed": true,
          "internalType": "address",
          "name": "sender",
          "type": "address"
        }
      ],
      "name": "RoleGranted",
      "type": "event"
    },
    {
      "anonymous": false,
      "inputs": [
        {
          "indexed": true,
          "internalType": "bytes32",
          "name": "role",
          "type": "bytes32"
        },
        {
          "indexed": true,
          "internalType": "address",
          "name": "account",
          "type": "address"
        },
        {
          "indexed": true,
          "internalType": "address",
          "name": "sender",
          "type": "address"
        }
      ],
      "name": "RoleRevoked",
      "type": "event"
    },
    {
      "inputs": [],
      "name": "DEFAULT_ADMIN_ROLE",
      "outputs": [
        {
          "internalType": "bytes32",
          "name": "",
          "type": "bytes32"
        }
      ],
      "stateMutability": "view",
      "type": "function"
    },
    {
      "inputs": [],
      "name": "REVENUE_CONTROLLER",
      "outputs": [
        {
          "internalType": "bytes32",
          "name": "",
          "type": "bytes32"
        }
      ],
      "stateMutability": "view",
      "type": "function"
    },
    {
      "inputs": [
        {
          "internalType": "address",
          "name": "_token",
          "type": "address"
        }
      ],
      "name": "addPool",
      "outputs": [],
      "stateMutability": "nonpayable",
      "type": "function"
    },
    {
      "inputs": [
        {
          "internalType": "address",
          "name": "_token",
          "type": "address"
        }
      ],
      "name": "checkIfPoolExists",
      "outputs": [
        {
          "internalType": "bool",
          "name": "",
          "type": "bool"
        }
      ],
      "stateMutability": "view",
      "type": "function"
    },
    {
      "inputs": [
        {
          "internalType": "address",
          "name": "_user",
          "type": "address"
        },
        {
          "internalType": "address",
          "name": "_token",
          "type": "address"
        }
      ],
      "name": "checkIfUserPositionExists",
      "outputs": [
        {
          "internalType": "bool",
          "name": "",
          "type": "bool"
        }
      ],
      "stateMutability": "view",
      "type": "function"
    },
    {
      "inputs": [
        {
          "internalType": "address",
          "name": "_user",
          "type": "address"
        },
        {
          "internalType": "address",
          "name": "_token",
          "type": "address"
        },
        {
          "internalType": "uint256",
          "name": "_amount",
          "type": "uint256"
        }
      ],
      "name": "deposit",
      "outputs": [],
      "stateMutability": "nonpayable",
      "type": "function"
    },
    {
      "inputs": [
        {
          "internalType": "bytes32",
          "name": "role",
          "type": "bytes32"
        }
      ],
      "name": "getRoleAdmin",
      "outputs": [
        {
          "internalType": "bytes32",
          "name": "",
          "type": "bytes32"
        }
      ],
      "stateMutability": "view",
      "type": "function"
    },
    {
      "inputs": [
        {
          "internalType": "address",
          "name": "_token",
          "type": "address"
        }
      ],
      "name": "getTokenSupply",
      "outputs": [
        {
          "internalType": "uint256",
          "name": "",
          "type": "uint256"
        }
      ],
      "stateMutability": "view",
      "type": "function"
    },
    {
      "inputs": [
        {
          "internalType": "address",
          "name": "_token",
          "type": "address"
        },
        {
          "internalType": "address",
          "name": "_user",
          "type": "address"
        }
      ],
      "name": "getUnlockedAmount",
      "outputs": [
        {
          "internalType": "uint256",
          "name": "unlockedAmount",
          "type": "uint256"
        }
      ],
      "stateMutability": "view",
      "type": "function"
    },
    {
      "inputs": [
        {
          "internalType": "address",
          "name": "_token",
          "type": "address"
        },
        {
          "internalType": "address",
          "name": "_user",
          "type": "address"
        }
      ],
      "name": "getUserPosition",
      "outputs": [
        {
          "components": [
            {
              "internalType": "uint256",
              "name": "totalAmount",
              "type": "uint256"
            },
            {
              "internalType": "uint256",
              "name": "loanedAmount",
              "type": "uint256"
            },
            {
              "internalType": "uint256",
              "name": "profit",
              "type": "uint256"
            },
            {
              "internalType": "uint256",
              "name": "lastAllocRequestBlock",
              "type": "uint256"
            }
          ],
          "internalType": "struct TreasuryStorage.UserPosition",
          "name": "",
          "type": "tuple"
        }
      ],
      "stateMutability": "view",
      "type": "function"
    },
    {
      "inputs": [
        {
          "internalType": "bytes32",
          "name": "role",
          "type": "bytes32"
        },
        {
          "internalType": "address",
          "name": "account",
          "type": "address"
        }
      ],
      "name": "grantRole",
      "outputs": [],
      "stateMutability": "nonpayable",
      "type": "function"
    },
    {
      "inputs": [
        {
          "internalType": "bytes32",
          "name": "role",
          "type": "bytes32"
        },
        {
          "internalType": "address",
          "name": "account",
          "type": "address"
        }
      ],
      "name": "hasRole",
      "outputs": [
        {
          "internalType": "bool",
          "name": "",
          "type": "bool"
        }
      ],
      "stateMutability": "view",
      "type": "function"
    },
    {
      "inputs": [
        {
          "internalType": "address",
          "name": "_token",
          "type": "address"
        },
        {
          "internalType": "address",
          "name": "_user",
          "type": "address"
        },
        {
          "internalType": "uint256",
          "name": "_amount",
          "type": "uint256"
        }
      ],
      "name": "loan",
      "outputs": [],
      "stateMutability": "nonpayable",
      "type": "function"
    },
    {
      "inputs": [
        {
          "internalType": "address",
          "name": "_destination",
          "type": "address"
        },
        {
          "internalType": "uint256",
          "name": "_amount",
          "type": "uint256"
        }
      ],
      "name": "mintTreasuryShares",
      "outputs": [],
      "stateMutability": "nonpayable",
      "type": "function"
    },
    {
      "inputs": [
        {
          "internalType": "bytes32",
          "name": "role",
          "type": "bytes32"
        },
        {
          "internalType": "address",
          "name": "account",
          "type": "address"
        }
      ],
      "name": "renounceRole",
      "outputs": [],
      "stateMutability": "nonpayable",
      "type": "function"
    },
    {
      "inputs": [
        {
          "internalType": "address",
          "name": "_user",
          "type": "address"
        },
        {
          "internalType": "address",
          "name": "_token",
          "type": "address"
        },
        {
          "internalType": "uint256",
          "name": "_principal",
          "type": "uint256"
        }
      ],
      "name": "returnPrincipal",
      "outputs": [],
      "stateMutability": "nonpayable",
      "type": "function"
    },
    {
      "inputs": [
        {
          "internalType": "bytes32",
          "name": "role",
          "type": "bytes32"
        },
        {
          "internalType": "address",
          "name": "account",
          "type": "address"
        }
      ],
      "name": "revokeRole",
      "outputs": [],
      "stateMutability": "nonpayable",
      "type": "function"
    },
    {
      "inputs": [
        {
          "internalType": "address",
          "name": "_token",
          "type": "address"
        },
        {
          "internalType": "address",
          "name": "_user",
          "type": "address"
        },
        {
          "internalType": "uint256",
          "name": "_profit",
          "type": "uint256"
        },
        {
          "internalType": "uint256",
          "name": "_lastAllockRequetBlock",
          "type": "uint256"
        }
      ],
      "name": "setUserPosition",
      "outputs": [],
      "stateMutability": "nonpayable",
      "type": "function"
    },
    {
      "inputs": [
        {
          "internalType": "bytes4",
          "name": "interfaceId",
          "type": "bytes4"
        }
      ],
      "name": "supportsInterface",
      "outputs": [
        {
          "internalType": "bool",
          "name": "",
          "type": "bool"
        }
      ],
      "stateMutability": "view",
      "type": "function"
    },
    {
      "inputs": [
        {
          "internalType": "address",
          "name": "_token",
          "type": "address"
        },
        {
          "internalType": "uint256",
          "name": "_amount",
          "type": "uint256"
        }
      ],
      "name": "updatePool",
      "outputs": [
        {
          "components": [
            {
              "internalType": "uint256",
              "name": "totalPooled",
              "type": "uint256"
            }
          ],
          "internalType": "struct TreasuryStorage.Pool",
          "name": "",
          "type": "tuple"
        }
      ],
      "stateMutability": "nonpayable",
      "type": "function"
    },
    {
      "inputs": [
        {
          "internalType": "address",
          "name": "_token",
          "type": "address"
        },
        {
          "internalType": "address",
          "name": "_user",
          "type": "address"
        },
        {
          "internalType": "uint256",
          "name": "_amount",
          "type": "uint256"
        }
      ],
      "name": "withdraw",
      "outputs": [],
      "stateMutability": "nonpayable",
      "type": "function"
    }
  ],
  "bytecode": "0x60806040523480156200001157600080fd5b5060405162002d4738038062002d47833981810160405281019062000037919062000277565b80600160006101000a81548173ffffffffffffffffffffffffffffffffffffffff021916908373ffffffffffffffffffffffffffffffffffffffff1602179055506200008d6000801b336200009460201b60201c565b50620002a9565b620000a68282620000aa60201b60201c565b5050565b620000bc82826200019b60201b60201c565b6200019757600160008084815260200190815260200160002060000160008373ffffffffffffffffffffffffffffffffffffffff1673ffffffffffffffffffffffffffffffffffffffff16815260200190815260200160002060006101000a81548160ff0219169083151502179055506200013c6200020560201b60201c565b73ffffffffffffffffffffffffffffffffffffffff168173ffffffffffffffffffffffffffffffffffffffff16837f2f8788117e7eff1d82e926ec794901d17c78024a50270940304540a733656f0d60405160405180910390a45b5050565b600080600084815260200190815260200160002060000160008373ffffffffffffffffffffffffffffffffffffffff1673ffffffffffffffffffffffffffffffffffffffff16815260200190815260200160002060009054906101000a900460ff16905092915050565b600033905090565b600080fd5b600073ffffffffffffffffffffffffffffffffffffffff82169050919050565b60006200023f8262000212565b9050919050565b620002518162000232565b81146200025d57600080fd5b50565b600081519050620002718162000246565b92915050565b60006020828403121562000290576200028f6200020d565b5b6000620002a08482850162000260565b91505092915050565b612a8e80620002b96000396000f3fe608060405234801561001057600080fd5b50600436106101375760003560e01c806391d14854116100b8578063d2456a951161007c578063d2456a9514610382578063d547741f1461039e578063d914cd4b146103ba578063d9caed12146103d6578063f2866c78146103f2578063f897e3761461042257610137565b806391d14854146102a457806392a576e6146102d4578063999126d714610304578063a217fddf14610334578063b6f867a81461035257610137565b806336568abe116100ff57806336568abe146102045780633e0a56181461022057806361c811201461023c5780638340f549146102585780638ed7333d1461027457610137565b80630122a7e81461013c57806301ce30701461016c57806301ffc9a714610188578063248a9ca3146101b85780632f2ff15d146101e8575b600080fd5b61015660048036038101906101519190611cb9565b610440565b6040516101639190611d12565b60405180910390f35b61018660048036038101906101819190611d59565b6104de565b005b6101a2600480360381019061019d9190611df1565b610587565b6040516101af9190611e39565b60405180910390f35b6101d260048036038101906101cd9190611e8a565b610601565b6040516101df9190611ec6565b60405180910390f35b61020260048036038101906101fd9190611ee1565b610620565b005b61021e60048036038101906102199190611ee1565b610649565b005b61023a60048036038101906102359190611f21565b6106cc565b005b61025660048036038101906102519190611f21565b6107bb565b005b610272600480360381019061026d9190611f21565b6109c7565b005b61028e60048036038101906102899190611d59565b610bed565b60405161029b9190611f9f565b60405180910390f35b6102be60048036038101906102b99190611ee1565b610ca5565b6040516102cb9190611e39565b60405180910390f35b6102ee60048036038101906102e99190611cb9565b610d0f565b6040516102fb919061200f565b60405180910390f35b61031e6004803603810190610319919061202a565b610dce565b60405161032b9190611e39565b60405180910390f35b61033c610e1c565b6040516103499190611ec6565b60405180910390f35b61036c60048036038101906103679190611cb9565b610e23565b6040516103799190611e39565b60405180910390f35b61039c60048036038101906103979190612057565b610eaf565b005b6103b860048036038101906103b39190611ee1565b610fa8565b005b6103d460048036038101906103cf919061202a565b610fd1565b005b6103f060048036038101906103eb9190611f21565b6110ac565b005b61040c6004803603810190610407919061202a565b6112a3565b6040516104199190611d12565b60405180910390f35b61042a611326565b6040516104379190611ec6565b60405180910390f35b600080600260008473ffffffffffffffffffffffffffffffffffffffff1673ffffffffffffffffffffffffffffffffffffffff16815260200190815260200160002060008573ffffffffffffffffffffffffffffffffffffffff1673ffffffffffffffffffffffffffffffffffffffff1681526020019081526020016000209050806001015481600001546104d591906120ed565b91505092915050565b6000801b6104f3816104ee61134a565b611352565b600160009054906101000a900473ffffffffffffffffffffffffffffffffffffffff1673ffffffffffffffffffffffffffffffffffffffff166340c10f1984846040518363ffffffff1660e01b8152600401610550929190612130565b600060405180830381600087803b15801561056a57600080fd5b505af115801561057e573d6000803e3d6000fd5b50505050505050565b60007f7965db0b000000000000000000000000000000000000000000000000000000007bffffffffffffffffffffffffffffffffffffffffffffffffffffffff1916827bffffffffffffffffffffffffffffffffffffffffffffffffffffffff191614806105fa57506105f9826113ef565b5b9050919050565b6000806000838152602001908152602001600020600101549050919050565b61062982610601565b61063a8161063561134a565b611352565b6106448383611459565b505050565b61065161134a565b73ffffffffffffffffffffffffffffffffffffffff168173ffffffffffffffffffffffffffffffffffffffff16146106be576040517f08c379a00000000000000000000000000000000000000000000000000000000081526004016106b5906121dc565b60405180910390fd5b6106c88282611539565b5050565b7ffa146205d79c04d22c6b2309d75a6844cd1b28ad727f2383e3ee22681f0013996106fe816106f961134a565b611352565b6000600260008673ffffffffffffffffffffffffffffffffffffffff1673ffffffffffffffffffffffffffffffffffffffff16815260200190815260200160002060008573ffffffffffffffffffffffffffffffffffffffff1673ffffffffffffffffffffffffffffffffffffffff16815260200190815260200160002090508281600101600082825461079291906120ed565b92505081905550828160000160008282546107ad91906121fc565b925050819055505050505050565b806107c68484610440565b11610806576040517f08c379a00000000000000000000000000000000000000000000000000000000081526004016107fd906122c4565b60405180910390fd5b6000600260008473ffffffffffffffffffffffffffffffffffffffff1673ffffffffffffffffffffffffffffffffffffffff16815260200190815260200160002060008573ffffffffffffffffffffffffffffffffffffffff1673ffffffffffffffffffffffffffffffffffffffff16815260200190815260200160002090508181600101600082825461089a91906121fc565b92505081905550818160000160008282546108b591906120ed565b9250508190555081600360008673ffffffffffffffffffffffffffffffffffffffff1673ffffffffffffffffffffffffffffffffffffffff168152602001908152602001600020600001600082825461090e91906120ed565b925050819055508373ffffffffffffffffffffffffffffffffffffffff1663095ea7b330846040518363ffffffff1660e01b8152600401610950929190612130565b6020604051808303816000875af115801561096f573d6000803e3d6000fd5b505050506040513d601f19601f820116820180604052508101906109939190612310565b506109c13084848773ffffffffffffffffffffffffffffffffffffffff1661161a909392919063ffffffff16565b50505050565b6109d082610dce565b610a0f576040517f08c379a0000000000000000000000000000000000000000000000000000000008152600401610a0690612389565b60405180910390fd5b3073ffffffffffffffffffffffffffffffffffffffff1663b6f867a884846040518363ffffffff1660e01b8152600401610a4a9291906123a9565b602060405180830381865afa158015610a67573d6000803e3d6000fd5b505050506040513d601f19601f82011682018060405250810190610a8b9190612310565b610a9f57610a9a8284836116a3565b610b3c565b6000600260008473ffffffffffffffffffffffffffffffffffffffff1673ffffffffffffffffffffffffffffffffffffffff16815260200190815260200160002060008573ffffffffffffffffffffffffffffffffffffffff1673ffffffffffffffffffffffffffffffffffffffff168152602001908152602001600020905081816000016000828254610b3391906121fc565b92505081905550505b8173ffffffffffffffffffffffffffffffffffffffff1663095ea7b384836040518363ffffffff1660e01b8152600401610b77929190612130565b6020604051808303816000875af1158015610b96573d6000803e3d6000fd5b505050506040513d601f19601f82011682018060405250810190610bba9190612310565b50610be88330838573ffffffffffffffffffffffffffffffffffffffff1661161a909392919063ffffffff16565b505050565b610bf5611c1b565b7ffa146205d79c04d22c6b2309d75a6844cd1b28ad727f2383e3ee22681f001399610c2781610c2261134a565b611352565b6000600360008673ffffffffffffffffffffffffffffffffffffffff1673ffffffffffffffffffffffffffffffffffffffff168152602001908152602001600020905083816000016000828254610c7e91906121fc565b92505081905550806040518060200160405290816000820154815250509250505092915050565b600080600084815260200190815260200160002060000160008373ffffffffffffffffffffffffffffffffffffffff1673ffffffffffffffffffffffffffffffffffffffff16815260200190815260200160002060009054906101000a900460ff16905092915050565b610d17611c2e565b600260008373ffffffffffffffffffffffffffffffffffffffff1673ffffffffffffffffffffffffffffffffffffffff16815260200190815260200160002060008473ffffffffffffffffffffffffffffffffffffffff1673ffffffffffffffffffffffffffffffffffffffff168152602001908152602001600020604051806080016040529081600082015481526020016001820154815260200160028201548152602001600382015481525050905092915050565b600080600360008473ffffffffffffffffffffffffffffffffffffffff1673ffffffffffffffffffffffffffffffffffffffff16815260200190815260200160002060000154119050919050565b6000801b81565b600080600260008573ffffffffffffffffffffffffffffffffffffffff1673ffffffffffffffffffffffffffffffffffffffff16815260200190815260200160002060008473ffffffffffffffffffffffffffffffffffffffff1673ffffffffffffffffffffffffffffffffffffffff1681526020019081526020016000206000015411905092915050565b7ffa146205d79c04d22c6b2309d75a6844cd1b28ad727f2383e3ee22681f001399610ee181610edc61134a565b611352565b6000600260008673ffffffffffffffffffffffffffffffffffffffff1673ffffffffffffffffffffffffffffffffffffffff16815260200190815260200160002060008773ffffffffffffffffffffffffffffffffffffffff1673ffffffffffffffffffffffffffffffffffffffff168152602001908152602001600020905083816002016000828254610f7591906121fc565b9250508190555083816000016000828254610f9091906121fc565b92505081905550828160030181905550505050505050565b610fb182610601565b610fc281610fbd61134a565b611352565b610fcc8383611539565b505050565b7ffa146205d79c04d22c6b2309d75a6844cd1b28ad727f2383e3ee22681f00139961100381610ffe61134a565b611352565b61100c82610dce565b1561104c576040517f08c379a00000000000000000000000000000000000000000000000000000000081526004016110439061241e565b60405180910390fd5b60405180602001604052806000815250600360008473ffffffffffffffffffffffffffffffffffffffff1673ffffffffffffffffffffffffffffffffffffffff168152602001908152602001600020600082015181600001559050505050565b806110b78484610440565b116110f7576040517f08c379a00000000000000000000000000000000000000000000000000000000081526004016110ee906124b0565b60405180910390fd5b6000600260008573ffffffffffffffffffffffffffffffffffffffff1673ffffffffffffffffffffffffffffffffffffffff16815260200190815260200160002060008473ffffffffffffffffffffffffffffffffffffffff1673ffffffffffffffffffffffffffffffffffffffff16815260200190815260200160002090508181600001600082825461118b91906120ed565b925050819055506000600360008673ffffffffffffffffffffffffffffffffffffffff1673ffffffffffffffffffffffffffffffffffffffff1681526020019081526020016000209050828160000160008282546111e991906120ed565b925050819055508473ffffffffffffffffffffffffffffffffffffffff1663095ea7b330856040518363ffffffff1660e01b815260040161122b929190612130565b6020604051808303816000875af115801561124a573d6000803e3d6000fd5b505050506040513d601f19601f8201168201806040525081019061126e9190612310565b5061129c3085858873ffffffffffffffffffffffffffffffffffffffff1661161a909392919063ffffffff16565b5050505050565b60008173ffffffffffffffffffffffffffffffffffffffff166370a08231306040518263ffffffff1660e01b81526004016112de91906124d0565b602060405180830381865afa1580156112fb573d6000803e3d6000fd5b505050506040513d601f19601f8201168201806040525081019061131f9190612500565b9050919050565b7ffa146205d79c04d22c6b2309d75a6844cd1b28ad727f2383e3ee22681f00139981565b600033905090565b61135c8282610ca5565b6113eb576113818173ffffffffffffffffffffffffffffffffffffffff166014611772565b61138f8360001c6020611772565b6040516020016113a092919061263f565b6040516020818303038152906040526040517f08c379a00000000000000000000000000000000000000000000000000000000081526004016113e291906126c3565b60405180910390fd5b5050565b60007f01ffc9a7000000000000000000000000000000000000000000000000000000007bffffffffffffffffffffffffffffffffffffffffffffffffffffffff1916827bffffffffffffffffffffffffffffffffffffffffffffffffffffffff1916149050919050565b6114638282610ca5565b61153557600160008084815260200190815260200160002060000160008373ffffffffffffffffffffffffffffffffffffffff1673ffffffffffffffffffffffffffffffffffffffff16815260200190815260200160002060006101000a81548160ff0219169083151502179055506114da61134a565b73ffffffffffffffffffffffffffffffffffffffff168173ffffffffffffffffffffffffffffffffffffffff16837f2f8788117e7eff1d82e926ec794901d17c78024a50270940304540a733656f0d60405160405180910390a45b5050565b6115438282610ca5565b1561161657600080600084815260200190815260200160002060000160008373ffffffffffffffffffffffffffffffffffffffff1673ffffffffffffffffffffffffffffffffffffffff16815260200190815260200160002060006101000a81548160ff0219169083151502179055506115bb61134a565b73ffffffffffffffffffffffffffffffffffffffff168173ffffffffffffffffffffffffffffffffffffffff16837ff6391f5c32d9c69d2a47ea670b442974b53935d1edc7fd64eb21e047a839171b60405160405180910390a45b5050565b61169d846323b872dd60e01b85858560405160240161163b939291906126e5565b604051602081830303815290604052907bffffffffffffffffffffffffffffffffffffffffffffffffffffffff19166020820180517bffffffffffffffffffffffffffffffffffffffffffffffffffffffff83818316178352505050506119ae565b50505050565b6040518060800160405280828152602001600081526020016000815260200143815250600260008473ffffffffffffffffffffffffffffffffffffffff1673ffffffffffffffffffffffffffffffffffffffff16815260200190815260200160002060008573ffffffffffffffffffffffffffffffffffffffff1673ffffffffffffffffffffffffffffffffffffffff16815260200190815260200160002060008201518160000155602082015181600101556040820151816002015560608201518160030155905050505050565b606060006002836002611785919061271c565b61178f91906121fc565b67ffffffffffffffff8111156117a8576117a7612776565b5b6040519080825280601f01601f1916602001820160405280156117da5781602001600182028036833780820191505090505b5090507f300000000000000000000000000000000000000000000000000000000000000081600081518110611812576118116127a5565b5b60200101907effffffffffffffffffffffffffffffffffffffffffffffffffffffffffffff1916908160001a9053507f780000000000000000000000000000000000000000000000000000000000000081600181518110611876576118756127a5565b5b60200101907effffffffffffffffffffffffffffffffffffffffffffffffffffffffffffff1916908160001a905350600060018460026118b6919061271c565b6118c091906121fc565b90505b6001811115611960577f3031323334353637383961626364656600000000000000000000000000000000600f861660108110611902576119016127a5565b5b1a60f81b828281518110611919576119186127a5565b5b60200101907effffffffffffffffffffffffffffffffffffffffffffffffffffffffffffff1916908160001a905350600485901c945080611959906127d4565b90506118c3565b50600084146119a4576040517f08c379a000000000000000000000000000000000000000000000000000000000815260040161199b9061284a565b60405180910390fd5b8091505092915050565b6000611a10826040518060400160405280602081526020017f5361666545524332303a206c6f772d6c6576656c2063616c6c206661696c65648152508573ffffffffffffffffffffffffffffffffffffffff16611a759092919063ffffffff16565b9050600081511115611a705780806020019051810190611a309190612310565b611a6f576040517f08c379a0000000000000000000000000000000000000000000000000000000008152600401611a66906128dc565b60405180910390fd5b5b505050565b6060611a848484600085611a8d565b90509392505050565b606082471015611ad2576040517f08c379a0000000000000000000000000000000000000000000000000000000008152600401611ac99061296e565b60405180910390fd5b611adb85611ba1565b611b1a576040517f08c379a0000000000000000000000000000000000000000000000000000000008152600401611b11906129da565b60405180910390fd5b6000808673ffffffffffffffffffffffffffffffffffffffff168587604051611b439190612a41565b60006040518083038185875af1925050503d8060008114611b80576040519150601f19603f3d011682016040523d82523d6000602084013e611b85565b606091505b5091509150611b95828286611bb4565b92505050949350505050565b600080823b905060008111915050919050565b60608315611bc457829050611c14565b600083511115611bd75782518084602001fd5b816040517f08c379a0000000000000000000000000000000000000000000000000000000008152600401611c0b91906126c3565b60405180910390fd5b9392505050565b6040518060200160405280600081525090565b6040518060800160405280600081526020016000815260200160008152602001600081525090565b600080fd5b600073ffffffffffffffffffffffffffffffffffffffff82169050919050565b6000611c8682611c5b565b9050919050565b611c9681611c7b565b8114611ca157600080fd5b50565b600081359050611cb381611c8d565b92915050565b60008060408385031215611cd057611ccf611c56565b5b6000611cde85828601611ca4565b9250506020611cef85828601611ca4565b9150509250929050565b6000819050919050565b611d0c81611cf9565b82525050565b6000602082019050611d276000830184611d03565b92915050565b611d3681611cf9565b8114611d4157600080fd5b50565b600081359050611d5381611d2d565b92915050565b60008060408385031215611d7057611d6f611c56565b5b6000611d7e85828601611ca4565b9250506020611d8f85828601611d44565b9150509250929050565b60007fffffffff0000000000000000000000000000000000000000000000000000000082169050919050565b611dce81611d99565b8114611dd957600080fd5b50565b600081359050611deb81611dc5565b92915050565b600060208284031215611e0757611e06611c56565b5b6000611e1584828501611ddc565b91505092915050565b60008115159050919050565b611e3381611e1e565b82525050565b6000602082019050611e4e6000830184611e2a565b92915050565b6000819050919050565b611e6781611e54565b8114611e7257600080fd5b50565b600081359050611e8481611e5e565b92915050565b600060208284031215611ea057611e9f611c56565b5b6000611eae84828501611e75565b91505092915050565b611ec081611e54565b82525050565b6000602082019050611edb6000830184611eb7565b92915050565b60008060408385031215611ef857611ef7611c56565b5b6000611f0685828601611e75565b9250506020611f1785828601611ca4565b9150509250929050565b600080600060608486031215611f3a57611f39611c56565b5b6000611f4886828701611ca4565b9350506020611f5986828701611ca4565b9250506040611f6a86828701611d44565b9150509250925092565b611f7d81611cf9565b82525050565b602082016000820151611f996000850182611f74565b50505050565b6000602082019050611fb46000830184611f83565b92915050565b608082016000820151611fd06000850182611f74565b506020820151611fe36020850182611f74565b506040820151611ff66040850182611f74565b5060608201516120096060850182611f74565b50505050565b60006080820190506120246000830184611fba565b92915050565b6000602082840312156120405761203f611c56565b5b600061204e84828501611ca4565b91505092915050565b6000806000806080858703121561207157612070611c56565b5b600061207f87828801611ca4565b945050602061209087828801611ca4565b93505060406120a187828801611d44565b92505060606120b287828801611d44565b91505092959194509250565b7f4e487b7100000000000000000000000000000000000000000000000000000000600052601160045260246000fd5b60006120f882611cf9565b915061210383611cf9565b925082821015612116576121156120be565b5b828203905092915050565b61212a81611c7b565b82525050565b60006040820190506121456000830185612121565b6121526020830184611d03565b9392505050565b600082825260208201905092915050565b7f416363657373436f6e74726f6c3a2063616e206f6e6c792072656e6f756e636560008201527f20726f6c657320666f722073656c660000000000000000000000000000000000602082015250565b60006121c6602f83612159565b91506121d18261216a565b604082019050919050565b600060208201905081810360008301526121f5816121b9565b9050919050565b600061220782611cf9565b915061221283611cf9565b9250827fffffffffffffffffffffffffffffffffffffffffffffffffffffffffffffffff03821115612247576122466120be565b5b828201905092915050565b7f54686520616d6f756e742065786365656420746865207472656173757279206260008201527f616c616e63652e00000000000000000000000000000000000000000000000000602082015250565b60006122ae602783612159565b91506122b982612252565b604082019050919050565b600060208201905081810360008301526122dd816122a1565b9050919050565b6122ed81611e1e565b81146122f857600080fd5b50565b60008151905061230a816122e4565b92915050565b60006020828403121561232657612325611c56565b5b6000612334848285016122fb565b91505092915050565b7f506f6f6c20646f6573206e6f7420657869737400000000000000000000000000600082015250565b6000612373601383612159565b915061237e8261233d565b602082019050919050565b600060208201905081810360008301526123a281612366565b9050919050565b60006040820190506123be6000830185612121565b6123cb6020830184612121565b9392505050565b7f5468697320706f6f6c20616c7265616479206578697374732e00000000000000600082015250565b6000612408601983612159565b9150612413826123d2565b602082019050919050565b60006020820190508181036000830152612437816123fb565b9050919050565b7f57697468647261776e20616d6f756e74206578636565642074686520616c6c6f60008201527f77616e6365000000000000000000000000000000000000000000000000000000602082015250565b600061249a602583612159565b91506124a58261243e565b604082019050919050565b600060208201905081810360008301526124c98161248d565b9050919050565b60006020820190506124e56000830184612121565b92915050565b6000815190506124fa81611d2d565b92915050565b60006020828403121561251657612515611c56565b5b6000612524848285016124eb565b91505092915050565b600081905092915050565b7f416363657373436f6e74726f6c3a206163636f756e7420000000000000000000600082015250565b600061256e60178361252d565b915061257982612538565b601782019050919050565b600081519050919050565b60005b838110156125ad578082015181840152602081019050612592565b838111156125bc576000848401525b50505050565b60006125cd82612584565b6125d7818561252d565b93506125e781856020860161258f565b80840191505092915050565b7f206973206d697373696e6720726f6c6520000000000000000000000000000000600082015250565b600061262960118361252d565b9150612634826125f3565b601182019050919050565b600061264a82612561565b915061265682856125c2565b91506126618261261c565b915061266d82846125c2565b91508190509392505050565b6000601f19601f8301169050919050565b600061269582612584565b61269f8185612159565b93506126af81856020860161258f565b6126b881612679565b840191505092915050565b600060208201905081810360008301526126dd818461268a565b905092915050565b60006060820190506126fa6000830186612121565b6127076020830185612121565b6127146040830184611d03565b949350505050565b600061272782611cf9565b915061273283611cf9565b9250817fffffffffffffffffffffffffffffffffffffffffffffffffffffffffffffffff048311821515161561276b5761276a6120be565b5b828202905092915050565b7f4e487b7100000000000000000000000000000000000000000000000000000000600052604160045260246000fd5b7f4e487b7100000000000000000000000000000000000000000000000000000000600052603260045260246000fd5b60006127df82611cf9565b915060008214156127f3576127f26120be565b5b600182039050919050565b7f537472696e67733a20686578206c656e67746820696e73756666696369656e74600082015250565b6000612834602083612159565b915061283f826127fe565b602082019050919050565b6000602082019050818103600083015261286381612827565b9050919050565b7f5361666545524332303a204552433230206f7065726174696f6e20646964206e60008201527f6f74207375636365656400000000000000000000000000000000000000000000602082015250565b60006128c6602a83612159565b91506128d18261286a565b604082019050919050565b600060208201905081810360008301526128f5816128b9565b9050919050565b7f416464726573733a20696e73756666696369656e742062616c616e636520666f60008201527f722063616c6c0000000000000000000000000000000000000000000000000000602082015250565b6000612958602683612159565b9150612963826128fc565b604082019050919050565b600060208201905081810360008301526129878161294b565b9050919050565b7f416464726573733a2063616c6c20746f206e6f6e2d636f6e7472616374000000600082015250565b60006129c4601d83612159565b91506129cf8261298e565b602082019050919050565b600060208201905081810360008301526129f3816129b7565b9050919050565b600081519050919050565b600081905092915050565b6000612a1b826129fa565b612a258185612a05565b9350612a3581856020860161258f565b80840191505092915050565b6000612a4d8284612a10565b91508190509291505056fea264697066735822122069130477ce55bae4a614943bd5898d6349e417e48196c40e8bf0323f4bf2cff164736f6c634300080b0033",
  "linkReferences": {},
  "deployedLinkReferences": {}
}