{
  "_format": "hh-sol-artifact-1",
  "contractName": "TreasuryStorage",
  "sourceName": "contracts/treasury/TreasuryStorage.sol",
  "abi": [
    {
      "inputs": [
        {
          "internalType": "address",
          "name": "_treasuryShares",
          "type": "address"
        }
      ],
      "stateMutability": "nonpayable",
      "type": "constructor"
    },
    {
      "anonymous": false,
      "inputs": [
        {
          "indexed": true,
          "internalType": "bytes32",
          "name": "role",
          "type": "bytes32"
        },
        {
          "indexed": true,
          "internalType": "bytes32",
          "name": "previousAdminRole",
          "type": "bytes32"
        },
        {
          "indexed": true,
          "internalType": "bytes32",
          "name": "newAdminRole",
          "type": "bytes32"
        }
      ],
      "name": "RoleAdminChanged",
      "type": "event"
    },
    {
      "anonymous": false,
      "inputs": [
        {
          "indexed": true,
          "internalType": "bytes32",
          "name": "role",
          "type": "bytes32"
        },
        {
          "indexed": true,
          "internalType": "address",
          "name": "account",
          "type": "address"
        },
        {
          "indexed": true,
          "internalType": "address",
          "name": "sender",
          "type": "address"
        }
      ],
      "name": "RoleGranted",
      "type": "event"
    },
    {
      "anonymous": false,
      "inputs": [
        {
          "indexed": true,
          "internalType": "bytes32",
          "name": "role",
          "type": "bytes32"
        },
        {
          "indexed": true,
          "internalType": "address",
          "name": "account",
          "type": "address"
        },
        {
          "indexed": true,
          "internalType": "address",
          "name": "sender",
          "type": "address"
        }
      ],
      "name": "RoleRevoked",
      "type": "event"
    },
    {
      "inputs": [],
      "name": "DEFAULT_ADMIN_ROLE",
      "outputs": [
        {
          "internalType": "bytes32",
          "name": "",
          "type": "bytes32"
        }
      ],
      "stateMutability": "view",
      "type": "function"
    },
    {
      "inputs": [
        {
          "internalType": "address",
          "name": "_token",
          "type": "address"
        },
        {
          "internalType": "uint256",
          "name": "_totalAmount",
          "type": "uint256"
        }
      ],
      "name": "addUserPosition",
      "outputs": [],
      "stateMutability": "nonpayable",
      "type": "function"
    },
    {
      "inputs": [
        {
          "internalType": "uint256",
          "name": "_amount",
          "type": "uint256"
        }
      ],
      "name": "deposit",
      "outputs": [],
      "stateMutability": "nonpayable",
      "type": "function"
    },
    {
      "inputs": [
        {
          "internalType": "bytes32",
          "name": "role",
          "type": "bytes32"
        }
      ],
      "name": "getRoleAdmin",
      "outputs": [
        {
          "internalType": "bytes32",
          "name": "",
          "type": "bytes32"
        }
      ],
      "stateMutability": "view",
      "type": "function"
    },
    {
      "inputs": [
        {
          "internalType": "address",
          "name": "_token",
          "type": "address"
        }
      ],
      "name": "getTokenSupply",
      "outputs": [
        {
          "internalType": "uint256",
          "name": "",
          "type": "uint256"
        }
      ],
      "stateMutability": "view",
      "type": "function"
    },
    {
      "inputs": [
        {
          "internalType": "bytes32",
          "name": "role",
          "type": "bytes32"
        },
        {
          "internalType": "address",
          "name": "account",
          "type": "address"
        }
      ],
      "name": "grantRole",
      "outputs": [],
      "stateMutability": "nonpayable",
      "type": "function"
    },
    {
      "inputs": [
        {
          "internalType": "bytes32",
          "name": "role",
          "type": "bytes32"
        },
        {
          "internalType": "address",
          "name": "account",
          "type": "address"
        }
      ],
      "name": "hasRole",
      "outputs": [
        {
          "internalType": "bool",
          "name": "",
          "type": "bool"
        }
      ],
      "stateMutability": "view",
      "type": "function"
    },
    {
      "inputs": [
        {
          "internalType": "address",
          "name": "_token",
          "type": "address"
        },
        {
          "internalType": "uint256",
          "name": "_amount",
          "type": "uint256"
        }
      ],
      "name": "loan",
      "outputs": [],
      "stateMutability": "nonpayable",
      "type": "function"
    },
    {
      "inputs": [
        {
          "internalType": "bytes32",
          "name": "role",
          "type": "bytes32"
        },
        {
          "internalType": "address",
          "name": "account",
          "type": "address"
        }
      ],
      "name": "renounceRole",
      "outputs": [],
      "stateMutability": "nonpayable",
      "type": "function"
    },
    {
      "inputs": [
        {
          "internalType": "bytes32",
          "name": "role",
          "type": "bytes32"
        },
        {
          "internalType": "address",
          "name": "account",
          "type": "address"
        }
      ],
      "name": "revokeRole",
      "outputs": [],
      "stateMutability": "nonpayable",
      "type": "function"
    },
    {
      "inputs": [
        {
          "internalType": "bytes4",
          "name": "interfaceId",
          "type": "bytes4"
        }
      ],
      "name": "supportsInterface",
      "outputs": [
        {
          "internalType": "bool",
          "name": "",
          "type": "bool"
        }
      ],
      "stateMutability": "view",
      "type": "function"
    }
  ],
  "bytecode": "0x60806040523480156200001157600080fd5b506040516200128d3803806200128d8339818101604052810190620000379190620000e9565b80600260006101000a81548173ffffffffffffffffffffffffffffffffffffffff021916908373ffffffffffffffffffffffffffffffffffffffff160217905550506200011b565b600080fd5b600073ffffffffffffffffffffffffffffffffffffffff82169050919050565b6000620000b18262000084565b9050919050565b620000c381620000a4565b8114620000cf57600080fd5b50565b600081519050620000e381620000b8565b92915050565b6000602082840312156200010257620001016200007f565b5b60006200011284828501620000d2565b91505092915050565b611162806200012b6000396000f3fe608060405234801561001057600080fd5b50600436106100a95760003560e01c80639029467311610071578063902946731461016257806391d148541461017e578063a217fddf146101ae578063b6b55f25146101cc578063d547741f146101e8578063f2866c7814610204576100a9565b806301ffc9a7146100ae578063185cc751146100de578063248a9ca3146100fa5780632f2ff15d1461012a57806336568abe14610146575b600080fd5b6100c860048036038101906100c39190610a0a565b610234565b6040516100d59190610a52565b60405180910390f35b6100f860048036038101906100f39190610b01565b6102ae565b005b610114600480360381019061010f9190610b77565b6102b2565b6040516101219190610bb3565b60405180910390f35b610144600480360381019061013f9190610bce565b6102d1565b005b610160600480360381019061015b9190610bce565b6102fa565b005b61017c60048036038101906101779190610b01565b61037d565b005b61019860048036038101906101939190610bce565b610381565b6040516101a59190610a52565b60405180910390f35b6101b66103eb565b6040516101c39190610bb3565b60405180910390f35b6101e660048036038101906101e19190610c0e565b6103f2565b005b61020260048036038101906101fd9190610bce565b6103f5565b005b61021e60048036038101906102199190610c3b565b61041e565b60405161022b9190610c77565b60405180910390f35b60007f7965db0b000000000000000000000000000000000000000000000000000000007bffffffffffffffffffffffffffffffffffffffffffffffffffffffff1916827bffffffffffffffffffffffffffffffffffffffffffffffffffffffff191614806102a757506102a6826104a1565b5b9050919050565b5050565b6000806000838152602001908152602001600020600101549050919050565b6102da826102b2565b6102eb816102e661050b565b610513565b6102f583836105b0565b505050565b61030261050b565b73ffffffffffffffffffffffffffffffffffffffff168173ffffffffffffffffffffffffffffffffffffffff161461036f576040517f08c379a000000000000000000000000000000000000000000000000000000000815260040161036690610d15565b60405180910390fd5b6103798282610690565b5050565b5050565b600080600084815260200190815260200160002060000160008373ffffffffffffffffffffffffffffffffffffffff1673ffffffffffffffffffffffffffffffffffffffff16815260200190815260200160002060009054906101000a900460ff16905092915050565b6000801b81565b50565b6103fe826102b2565b61040f8161040a61050b565b610513565b6104198383610690565b505050565b60008173ffffffffffffffffffffffffffffffffffffffff166370a08231306040518263ffffffff1660e01b81526004016104599190610d44565b602060405180830381865afa158015610476573d6000803e3d6000fd5b505050506040513d601f19601f8201168201806040525081019061049a9190610d74565b9050919050565b60007f01ffc9a7000000000000000000000000000000000000000000000000000000007bffffffffffffffffffffffffffffffffffffffffffffffffffffffff1916827bffffffffffffffffffffffffffffffffffffffffffffffffffffffff1916149050919050565b600033905090565b61051d8282610381565b6105ac576105428173ffffffffffffffffffffffffffffffffffffffff166014610771565b6105508360001c6020610771565b604051602001610561929190610eb3565b6040516020818303038152906040526040517f08c379a00000000000000000000000000000000000000000000000000000000081526004016105a39190610f37565b60405180910390fd5b5050565b6105ba8282610381565b61068c57600160008084815260200190815260200160002060000160008373ffffffffffffffffffffffffffffffffffffffff1673ffffffffffffffffffffffffffffffffffffffff16815260200190815260200160002060006101000a81548160ff02191690831515021790555061063161050b565b73ffffffffffffffffffffffffffffffffffffffff168173ffffffffffffffffffffffffffffffffffffffff16837f2f8788117e7eff1d82e926ec794901d17c78024a50270940304540a733656f0d60405160405180910390a45b5050565b61069a8282610381565b1561076d57600080600084815260200190815260200160002060000160008373ffffffffffffffffffffffffffffffffffffffff1673ffffffffffffffffffffffffffffffffffffffff16815260200190815260200160002060006101000a81548160ff02191690831515021790555061071261050b565b73ffffffffffffffffffffffffffffffffffffffff168173ffffffffffffffffffffffffffffffffffffffff16837ff6391f5c32d9c69d2a47ea670b442974b53935d1edc7fd64eb21e047a839171b60405160405180910390a45b5050565b6060600060028360026107849190610f88565b61078e9190610fe2565b67ffffffffffffffff8111156107a7576107a6611038565b5b6040519080825280601f01601f1916602001820160405280156107d95781602001600182028036833780820191505090505b5090507f30000000000000000000000000000000000000000000000000000000000000008160008151811061081157610810611067565b5b60200101907effffffffffffffffffffffffffffffffffffffffffffffffffffffffffffff1916908160001a9053507f78000000000000000000000000000000000000000000000000000000000000008160018151811061087557610874611067565b5b60200101907effffffffffffffffffffffffffffffffffffffffffffffffffffffffffffff1916908160001a905350600060018460026108b59190610f88565b6108bf9190610fe2565b90505b600181111561095f577f3031323334353637383961626364656600000000000000000000000000000000600f86166010811061090157610900611067565b5b1a60f81b82828151811061091857610917611067565b5b60200101907effffffffffffffffffffffffffffffffffffffffffffffffffffffffffffff1916908160001a905350600485901c94508061095890611096565b90506108c2565b50600084146109a3576040517f08c379a000000000000000000000000000000000000000000000000000000000815260040161099a9061110c565b60405180910390fd5b8091505092915050565b600080fd5b60007fffffffff0000000000000000000000000000000000000000000000000000000082169050919050565b6109e7816109b2565b81146109f257600080fd5b50565b600081359050610a04816109de565b92915050565b600060208284031215610a2057610a1f6109ad565b5b6000610a2e848285016109f5565b91505092915050565b60008115159050919050565b610a4c81610a37565b82525050565b6000602082019050610a676000830184610a43565b92915050565b600073ffffffffffffffffffffffffffffffffffffffff82169050919050565b6000610a9882610a6d565b9050919050565b610aa881610a8d565b8114610ab357600080fd5b50565b600081359050610ac581610a9f565b92915050565b6000819050919050565b610ade81610acb565b8114610ae957600080fd5b50565b600081359050610afb81610ad5565b92915050565b60008060408385031215610b1857610b176109ad565b5b6000610b2685828601610ab6565b9250506020610b3785828601610aec565b9150509250929050565b6000819050919050565b610b5481610b41565b8114610b5f57600080fd5b50565b600081359050610b7181610b4b565b92915050565b600060208284031215610b8d57610b8c6109ad565b5b6000610b9b84828501610b62565b91505092915050565b610bad81610b41565b82525050565b6000602082019050610bc86000830184610ba4565b92915050565b60008060408385031215610be557610be46109ad565b5b6000610bf385828601610b62565b9250506020610c0485828601610ab6565b9150509250929050565b600060208284031215610c2457610c236109ad565b5b6000610c3284828501610aec565b91505092915050565b600060208284031215610c5157610c506109ad565b5b6000610c5f84828501610ab6565b91505092915050565b610c7181610acb565b82525050565b6000602082019050610c8c6000830184610c68565b92915050565b600082825260208201905092915050565b7f416363657373436f6e74726f6c3a2063616e206f6e6c792072656e6f756e636560008201527f20726f6c657320666f722073656c660000000000000000000000000000000000602082015250565b6000610cff602f83610c92565b9150610d0a82610ca3565b604082019050919050565b60006020820190508181036000830152610d2e81610cf2565b9050919050565b610d3e81610a8d565b82525050565b6000602082019050610d596000830184610d35565b92915050565b600081519050610d6e81610ad5565b92915050565b600060208284031215610d8a57610d896109ad565b5b6000610d9884828501610d5f565b91505092915050565b600081905092915050565b7f416363657373436f6e74726f6c3a206163636f756e7420000000000000000000600082015250565b6000610de2601783610da1565b9150610ded82610dac565b601782019050919050565b600081519050919050565b60005b83811015610e21578082015181840152602081019050610e06565b83811115610e30576000848401525b50505050565b6000610e4182610df8565b610e4b8185610da1565b9350610e5b818560208601610e03565b80840191505092915050565b7f206973206d697373696e6720726f6c6520000000000000000000000000000000600082015250565b6000610e9d601183610da1565b9150610ea882610e67565b601182019050919050565b6000610ebe82610dd5565b9150610eca8285610e36565b9150610ed582610e90565b9150610ee18284610e36565b91508190509392505050565b6000601f19601f8301169050919050565b6000610f0982610df8565b610f138185610c92565b9350610f23818560208601610e03565b610f2c81610eed565b840191505092915050565b60006020820190508181036000830152610f518184610efe565b905092915050565b7f4e487b7100000000000000000000000000000000000000000000000000000000600052601160045260246000fd5b6000610f9382610acb565b9150610f9e83610acb565b9250817fffffffffffffffffffffffffffffffffffffffffffffffffffffffffffffffff0483118215151615610fd757610fd6610f59565b5b828202905092915050565b6000610fed82610acb565b9150610ff883610acb565b9250827fffffffffffffffffffffffffffffffffffffffffffffffffffffffffffffffff0382111561102d5761102c610f59565b5b828201905092915050565b7f4e487b7100000000000000000000000000000000000000000000000000000000600052604160045260246000fd5b7f4e487b7100000000000000000000000000000000000000000000000000000000600052603260045260246000fd5b60006110a182610acb565b915060008214156110b5576110b4610f59565b5b600182039050919050565b7f537472696e67733a20686578206c656e67746820696e73756666696369656e74600082015250565b60006110f6602083610c92565b9150611101826110c0565b602082019050919050565b60006020820190508181036000830152611125816110e9565b905091905056fea2646970667358221220ce89654ef3ed870ecb0ae45232d4f81e97b499e9c8b95742026e545ff5d68b8864736f6c634300080b0033",
  "linkReferences": {},
  "deployedLinkReferences": {}
}