{
  "_format": "hh-sol-artifact-1",
  "contractName": "TreasuryStorage",
  "sourceName": "contracts/treasury/TreasuryStorage.sol",
  "abi": [
    {
      "inputs": [
        {
          "internalType": "address",
          "name": "_treasuryShares",
          "type": "address"
        }
      ],
      "stateMutability": "nonpayable",
      "type": "constructor"
    },
    {
      "anonymous": false,
      "inputs": [
        {
          "indexed": true,
          "internalType": "bytes32",
          "name": "role",
          "type": "bytes32"
        },
        {
          "indexed": true,
          "internalType": "bytes32",
          "name": "previousAdminRole",
          "type": "bytes32"
        },
        {
          "indexed": true,
          "internalType": "bytes32",
          "name": "newAdminRole",
          "type": "bytes32"
        }
      ],
      "name": "RoleAdminChanged",
      "type": "event"
    },
    {
      "anonymous": false,
      "inputs": [
        {
          "indexed": true,
          "internalType": "bytes32",
          "name": "role",
          "type": "bytes32"
        },
        {
          "indexed": true,
          "internalType": "address",
          "name": "account",
          "type": "address"
        },
        {
          "indexed": true,
          "internalType": "address",
          "name": "sender",
          "type": "address"
        }
      ],
      "name": "RoleGranted",
      "type": "event"
    },
    {
      "anonymous": false,
      "inputs": [
        {
          "indexed": true,
          "internalType": "bytes32",
          "name": "role",
          "type": "bytes32"
        },
        {
          "indexed": true,
          "internalType": "address",
          "name": "account",
          "type": "address"
        },
        {
          "indexed": true,
          "internalType": "address",
          "name": "sender",
          "type": "address"
        }
      ],
      "name": "RoleRevoked",
      "type": "event"
    },
    {
      "inputs": [],
      "name": "DEFAULT_ADMIN_ROLE",
      "outputs": [
        {
          "internalType": "bytes32",
          "name": "",
          "type": "bytes32"
        }
      ],
      "stateMutability": "view",
      "type": "function"
    },
    {
      "inputs": [],
      "name": "REVENUE_CONTROLLER",
      "outputs": [
        {
          "internalType": "bytes32",
          "name": "",
          "type": "bytes32"
        }
      ],
      "stateMutability": "view",
      "type": "function"
    },
    {
      "inputs": [],
      "name": "TREASURY_FUND",
      "outputs": [
        {
          "internalType": "bytes32",
          "name": "",
          "type": "bytes32"
        }
      ],
      "stateMutability": "view",
      "type": "function"
    },
    {
      "inputs": [
        {
          "internalType": "address",
          "name": "_token",
          "type": "address"
        },
        {
          "internalType": "address",
          "name": "_user",
          "type": "address"
        },
        {
          "internalType": "uint256",
          "name": "_totalAmount",
          "type": "uint256"
        },
        {
          "internalType": "uint256",
          "name": "_rewardDebt",
          "type": "uint256"
        }
      ],
      "name": "addUserPosition",
      "outputs": [],
      "stateMutability": "nonpayable",
      "type": "function"
    },
    {
      "inputs": [
        {
          "internalType": "address",
          "name": "_token",
          "type": "address"
        }
      ],
      "name": "checkIfPoolExists",
      "outputs": [
        {
          "internalType": "bool",
          "name": "",
          "type": "bool"
        }
      ],
      "stateMutability": "view",
      "type": "function"
    },
    {
      "inputs": [
        {
          "internalType": "address",
          "name": "_user",
          "type": "address"
        },
        {
          "internalType": "address",
          "name": "_token",
          "type": "address"
        }
      ],
      "name": "checkIfUserPositionExists",
      "outputs": [
        {
          "internalType": "bool",
          "name": "",
          "type": "bool"
        }
      ],
      "stateMutability": "view",
      "type": "function"
    },
    {
      "inputs": [
        {
          "internalType": "address",
          "name": "_user",
          "type": "address"
        },
        {
          "internalType": "uint256",
          "name": "_amount",
          "type": "uint256"
        },
        {
          "internalType": "uint256",
          "name": "_rewardDebt",
          "type": "uint256"
        }
      ],
      "name": "deposit",
      "outputs": [],
      "stateMutability": "nonpayable",
      "type": "function"
    },
    {
      "inputs": [
        {
          "internalType": "address",
          "name": "_token",
          "type": "address"
        }
      ],
      "name": "getPool",
      "outputs": [
        {
          "components": [
            {
              "internalType": "uint256",
              "name": "totalPooled",
              "type": "uint256"
            },
            {
              "internalType": "uint256",
              "name": "rewardsPerBlock",
              "type": "uint256"
            },
            {
              "internalType": "uint256",
              "name": "accCaplPerShare",
              "type": "uint256"
            },
            {
              "internalType": "uint256",
              "name": "lastRewardBlock",
              "type": "uint256"
            }
          ],
          "internalType": "struct TreasuryStorage.Pool",
          "name": "",
          "type": "tuple"
        }
      ],
      "stateMutability": "view",
      "type": "function"
    },
    {
      "inputs": [
        {
          "internalType": "bytes32",
          "name": "role",
          "type": "bytes32"
        }
      ],
      "name": "getRoleAdmin",
      "outputs": [
        {
          "internalType": "bytes32",
          "name": "",
          "type": "bytes32"
        }
      ],
      "stateMutability": "view",
      "type": "function"
    },
    {
      "inputs": [
        {
          "internalType": "address",
          "name": "_token",
          "type": "address"
        }
      ],
      "name": "getTokenSupply",
      "outputs": [
        {
          "internalType": "uint256",
          "name": "",
          "type": "uint256"
        }
      ],
      "stateMutability": "view",
      "type": "function"
    },
    {
      "inputs": [
        {
          "internalType": "address",
          "name": "_token",
          "type": "address"
        },
        {
          "internalType": "address",
          "name": "_user",
          "type": "address"
        }
      ],
      "name": "getUnlockedAmount",
      "outputs": [
        {
          "internalType": "uint256",
          "name": "unlockedAmount",
          "type": "uint256"
        }
      ],
      "stateMutability": "view",
      "type": "function"
    },
    {
      "inputs": [
        {
          "internalType": "address",
          "name": "_token",
          "type": "address"
        },
        {
          "internalType": "address",
          "name": "_user",
          "type": "address"
        }
      ],
      "name": "getUserPosition",
      "outputs": [
        {
          "components": [
            {
              "internalType": "uint256",
              "name": "totalAmount",
              "type": "uint256"
            },
            {
              "internalType": "uint256",
              "name": "rewardDebt",
              "type": "uint256"
            },
            {
              "internalType": "uint256",
              "name": "loanedAmount",
              "type": "uint256"
            }
          ],
          "internalType": "struct TreasuryStorage.UserPosition",
          "name": "",
          "type": "tuple"
        }
      ],
      "stateMutability": "view",
      "type": "function"
    },
    {
      "inputs": [
        {
          "internalType": "bytes32",
          "name": "role",
          "type": "bytes32"
        },
        {
          "internalType": "address",
          "name": "account",
          "type": "address"
        }
      ],
      "name": "grantRole",
      "outputs": [],
      "stateMutability": "nonpayable",
      "type": "function"
    },
    {
      "inputs": [
        {
          "internalType": "bytes32",
          "name": "role",
          "type": "bytes32"
        },
        {
          "internalType": "address",
          "name": "account",
          "type": "address"
        }
      ],
      "name": "hasRole",
      "outputs": [
        {
          "internalType": "bool",
          "name": "",
          "type": "bool"
        }
      ],
      "stateMutability": "view",
      "type": "function"
    },
    {
      "inputs": [
        {
          "internalType": "address",
          "name": "_token",
          "type": "address"
        },
        {
          "internalType": "address",
          "name": "_user",
          "type": "address"
        },
        {
          "internalType": "uint256",
          "name": "_amount",
          "type": "uint256"
        }
      ],
      "name": "loan",
      "outputs": [],
      "stateMutability": "nonpayable",
      "type": "function"
    },
    {
      "inputs": [
        {
          "internalType": "bytes32",
          "name": "role",
          "type": "bytes32"
        },
        {
          "internalType": "address",
          "name": "account",
          "type": "address"
        }
      ],
      "name": "renounceRole",
      "outputs": [],
      "stateMutability": "nonpayable",
      "type": "function"
    },
    {
      "inputs": [
        {
          "internalType": "address",
          "name": "_user",
          "type": "address"
        },
        {
          "internalType": "address",
          "name": "_token",
          "type": "address"
        },
        {
          "internalType": "uint256",
          "name": "_principal",
          "type": "uint256"
        }
      ],
      "name": "returnPrincipal",
      "outputs": [],
      "stateMutability": "nonpayable",
      "type": "function"
    },
    {
      "inputs": [
        {
          "internalType": "bytes32",
          "name": "role",
          "type": "bytes32"
        },
        {
          "internalType": "address",
          "name": "account",
          "type": "address"
        }
      ],
      "name": "revokeRole",
      "outputs": [],
      "stateMutability": "nonpayable",
      "type": "function"
    },
    {
      "inputs": [
        {
          "internalType": "address",
          "name": "_token",
          "type": "address"
        },
        {
          "internalType": "address",
          "name": "_user",
          "type": "address"
        },
        {
          "internalType": "uint256",
          "name": "_amount",
          "type": "uint256"
        },
        {
          "internalType": "uint256",
          "name": "_rewardDebt",
          "type": "uint256"
        }
      ],
      "name": "setUserPosition",
      "outputs": [],
      "stateMutability": "nonpayable",
      "type": "function"
    },
    {
      "inputs": [
        {
          "internalType": "bytes4",
          "name": "interfaceId",
          "type": "bytes4"
        }
      ],
      "name": "supportsInterface",
      "outputs": [
        {
          "internalType": "bool",
          "name": "",
          "type": "bool"
        }
      ],
      "stateMutability": "view",
      "type": "function"
    },
    {
      "inputs": [
        {
          "internalType": "address",
          "name": "_token",
          "type": "address"
        },
        {
          "internalType": "uint256",
          "name": "_accCaplPerShare",
          "type": "uint256"
        },
        {
          "internalType": "uint256",
          "name": "_lastRewardBlock",
          "type": "uint256"
        }
      ],
      "name": "updatePool",
      "outputs": [
        {
          "components": [
            {
              "internalType": "uint256",
              "name": "totalPooled",
              "type": "uint256"
            },
            {
              "internalType": "uint256",
              "name": "rewardsPerBlock",
              "type": "uint256"
            },
            {
              "internalType": "uint256",
              "name": "accCaplPerShare",
              "type": "uint256"
            },
            {
              "internalType": "uint256",
              "name": "lastRewardBlock",
              "type": "uint256"
            }
          ],
          "internalType": "struct TreasuryStorage.Pool",
          "name": "",
          "type": "tuple"
        }
      ],
      "stateMutability": "nonpayable",
      "type": "function"
    },
    {
      "inputs": [
        {
          "internalType": "address",
          "name": "_token",
          "type": "address"
        },
        {
          "internalType": "address",
          "name": "_user",
          "type": "address"
        },
        {
          "internalType": "uint256",
          "name": "_amount",
          "type": "uint256"
        },
        {
          "internalType": "uint256",
          "name": "_newRewardDebt",
          "type": "uint256"
        }
      ],
      "name": "withdraw",
      "outputs": [],
      "stateMutability": "nonpayable",
      "type": "function"
    }
  ],
  "bytecode": "0x60806040523480156200001157600080fd5b5060405162002f0738038062002f07833981810160405281019062000037919062000277565b80600160006101000a81548173ffffffffffffffffffffffffffffffffffffffff021916908373ffffffffffffffffffffffffffffffffffffffff1602179055506200008d6000801b336200009460201b60201c565b50620002a9565b620000a68282620000aa60201b60201c565b5050565b620000bc82826200019b60201b60201c565b6200019757600160008084815260200190815260200160002060000160008373ffffffffffffffffffffffffffffffffffffffff1673ffffffffffffffffffffffffffffffffffffffff16815260200190815260200160002060006101000a81548160ff0219169083151502179055506200013c6200020560201b60201c565b73ffffffffffffffffffffffffffffffffffffffff168173ffffffffffffffffffffffffffffffffffffffff16837f2f8788117e7eff1d82e926ec794901d17c78024a50270940304540a733656f0d60405160405180910390a45b5050565b600080600084815260200190815260200160002060000160008373ffffffffffffffffffffffffffffffffffffffff1673ffffffffffffffffffffffffffffffffffffffff16815260200190815260200160002060009054906101000a900460ff16905092915050565b600033905090565b600080fd5b600073ffffffffffffffffffffffffffffffffffffffff82169050919050565b60006200023f8262000212565b9050919050565b620002518162000232565b81146200025d57600080fd5b50565b600081519050620002718162000246565b92915050565b60006020828403121562000290576200028f6200020d565b5b6000620002a08482850162000260565b91505092915050565b612c4e80620002b96000396000f3fe608060405234801561001057600080fd5b50600436106101425760003560e01c806392a576e6116100b8578063c346771b1161007c578063c346771b146103bd578063d2456a95146103db578063d547741f146103f7578063f2866c7814610413578063f5b5d23714610443578063f897e3761461045f57610142565b806392a576e6146102df578063999126d71461030f578063a217fddf1461033f578063b6f867a81461035d578063bbe4f6db1461038d57610142565b806336568abe1161010a57806336568abe1461020f5780633e0a56181461022b57806361c8112014610247578063695c0bb8146102635780637bfe950c1461029357806391d14854146102af57610142565b80630122a7e81461014757806301ffc9a7146101775780630efe6a8b146101a7578063248a9ca3146101c35780632f2ff15d146101f3575b600080fd5b610161600480360381019061015c9190611dd5565b61047d565b60405161016e9190611e2e565b60405180910390f35b610191600480360381019061018c9190611ea1565b61054f565b60405161019e9190611ee9565b60405180910390f35b6101c160048036038101906101bc9190611f30565b6105c9565b005b6101dd60048036038101906101d89190611fb9565b61082c565b6040516101ea9190611ff5565b60405180910390f35b61020d60048036038101906102089190612010565b61084b565b005b61022960048036038101906102249190612010565b610874565b005b61024560048036038101906102409190612050565b6108f7565b005b610261600480360381019061025c9190612050565b610a13565b005b61027d60048036038101906102789190611f30565b610bcf565b60405161028a9190612107565b60405180910390f35b6102ad60048036038101906102a89190612122565b610ce0565b005b6102c960048036038101906102c49190612010565b610ea0565b6040516102d69190611ee9565b60405180910390f35b6102f960048036038101906102f49190611dd5565b610f0a565b60405161030691906121cb565b60405180910390f35b610329600480360381019061032491906121e6565b610ff2565b6040516103369190611ee9565b60405180910390f35b610347611040565b6040516103549190611ff5565b60405180910390f35b61037760048036038101906103729190611dd5565b611047565b6040516103849190611ee9565b60405180910390f35b6103a760048036038101906103a291906121e6565b6110d3565b6040516103b49190612107565b60405180910390f35b6103c561120d565b6040516103d29190611ff5565b60405180910390f35b6103f560048036038101906103f09190612122565b611231565b005b610411600480360381019061040c9190612010565b6112dc565b005b61042d600480360381019061042891906121e6565b611305565b60405161043a9190611e2e565b60405180910390f35b61045d60048036038101906104589190612122565b611388565b005b610467611503565b6040516104749190611ff5565b60405180910390f35b60007f8e34397ebfb2b30de879ba566695932178f46861e3b05dcf2f402a62b072e4ac6104b1816104ac611527565b61152f565b6000600260008573ffffffffffffffffffffffffffffffffffffffff1673ffffffffffffffffffffffffffffffffffffffff16815260200190815260200160002060008673ffffffffffffffffffffffffffffffffffffffff1673ffffffffffffffffffffffffffffffffffffffff1681526020019081526020016000209050806002015481600001546105459190612242565b9250505092915050565b60007f7965db0b000000000000000000000000000000000000000000000000000000007bffffffffffffffffffffffffffffffffffffffffffffffffffffffff1916827bffffffffffffffffffffffffffffffffffffffffffffffffffffffff191614806105c257506105c1826115cc565b5b9050919050565b3073ffffffffffffffffffffffffffffffffffffffff1663b6f867a884600160009054906101000a900473ffffffffffffffffffffffffffffffffffffffff166040518363ffffffff1660e01b8152600401610626929190612285565b602060405180830381865afa158015610643573d6000803e3d6000fd5b505050506040513d601f19601f8201168201806040525081019061066791906122da565b15610704573073ffffffffffffffffffffffffffffffffffffffff1663f5b5d237600160009054906101000a900473ffffffffffffffffffffffffffffffffffffffff168585856040518563ffffffff1660e01b81526004016106cd9493929190612307565b600060405180830381600087803b1580156106e757600080fd5b505af11580156106fb573d6000803e3d6000fd5b50505050610798565b3073ffffffffffffffffffffffffffffffffffffffff1663d2456a95600160009054906101000a900473ffffffffffffffffffffffffffffffffffffffff168585856040518563ffffffff1660e01b81526004016107659493929190612307565b600060405180830381600087803b15801561077f57600080fd5b505af1158015610793573d6000803e3d6000fd5b505050505b600160009054906101000a900473ffffffffffffffffffffffffffffffffffffffff1673ffffffffffffffffffffffffffffffffffffffff166340c10f1930846040518363ffffffff1660e01b81526004016107f592919061234c565b600060405180830381600087803b15801561080f57600080fd5b505af1158015610823573d6000803e3d6000fd5b50505050505050565b6000806000838152602001908152602001600020600101549050919050565b6108548261082c565b61086581610860611527565b61152f565b61086f8383611636565b505050565b61087c611527565b73ffffffffffffffffffffffffffffffffffffffff168173ffffffffffffffffffffffffffffffffffffffff16146108e9576040517f08c379a00000000000000000000000000000000000000000000000000000000081526004016108e0906123f8565b60405180910390fd5b6108f38282611716565b5050565b7ffa146205d79c04d22c6b2309d75a6844cd1b28ad727f2383e3ee22681f00139961092981610924611527565b61152f565b6000600260008673ffffffffffffffffffffffffffffffffffffffff1673ffffffffffffffffffffffffffffffffffffffff16815260200190815260200160002060008573ffffffffffffffffffffffffffffffffffffffff1673ffffffffffffffffffffffffffffffffffffffff1681526020019081526020016000209050828160020160008282546109bd9190612242565b92505081905550828160000160008282546109d89190612418565b92505081905550610a0c8530858773ffffffffffffffffffffffffffffffffffffffff166117f7909392919063ffffffff16565b5050505050565b7f8e34397ebfb2b30de879ba566695932178f46861e3b05dcf2f402a62b072e4ac610a4581610a40611527565b61152f565b818473ffffffffffffffffffffffffffffffffffffffff166370a08231306040518263ffffffff1660e01b8152600401610a7f919061246e565b602060405180830381865afa158015610a9c573d6000803e3d6000fd5b505050506040513d601f19601f82011682018060405250810190610ac0919061249e565b11610b00576040517f08c379a0000000000000000000000000000000000000000000000000000000008152600401610af79061253d565b60405180910390fd5b6000600260008573ffffffffffffffffffffffffffffffffffffffff1673ffffffffffffffffffffffffffffffffffffffff16815260200190815260200160002060008673ffffffffffffffffffffffffffffffffffffffff1673ffffffffffffffffffffffffffffffffffffffff168152602001908152602001600020905082816002016000828254610b949190612418565b92505081905550610bc83085858873ffffffffffffffffffffffffffffffffffffffff166117f7909392919063ffffffff16565b5050505050565b610bd7611d29565b81600360008673ffffffffffffffffffffffffffffffffffffffff1673ffffffffffffffffffffffffffffffffffffffff1681526020019081526020016000206003018190555082600360008673ffffffffffffffffffffffffffffffffffffffff1673ffffffffffffffffffffffffffffffffffffffff16815260200190815260200160002060020181905550600360008573ffffffffffffffffffffffffffffffffffffffff1673ffffffffffffffffffffffffffffffffffffffff16815260200190815260200160002060405180608001604052908160008201548152602001600182015481526020016002820154815260200160038201548152505090509392505050565b813073ffffffffffffffffffffffffffffffffffffffff16630122a7e886866040518363ffffffff1660e01b8152600401610d1c929190612285565b602060405180830381865afa158015610d39573d6000803e3d6000fd5b505050506040513d601f19601f82011682018060405250810190610d5d919061249e565b11610d9d576040517f08c379a0000000000000000000000000000000000000000000000000000000008152600401610d94906125cf565b60405180910390fd5b3073ffffffffffffffffffffffffffffffffffffffff1663d2456a95858585856040518563ffffffff1660e01b8152600401610ddc9493929190612307565b600060405180830381600087803b158015610df657600080fd5b505af1158015610e0a573d6000803e3d6000fd5b505050506000600360008673ffffffffffffffffffffffffffffffffffffffff1673ffffffffffffffffffffffffffffffffffffffff168152602001908152602001600020905082816000016000828254610e659190612242565b92505081905550610e993085858873ffffffffffffffffffffffffffffffffffffffff166117f7909392919063ffffffff16565b5050505050565b600080600084815260200190815260200160002060000160008373ffffffffffffffffffffffffffffffffffffffff1673ffffffffffffffffffffffffffffffffffffffff16815260200190815260200160002060009054906101000a900460ff16905092915050565b610f12611d51565b7f8e34397ebfb2b30de879ba566695932178f46861e3b05dcf2f402a62b072e4ac610f4481610f3f611527565b61152f565b600260008473ffffffffffffffffffffffffffffffffffffffff1673ffffffffffffffffffffffffffffffffffffffff16815260200190815260200160002060008573ffffffffffffffffffffffffffffffffffffffff1673ffffffffffffffffffffffffffffffffffffffff168152602001908152602001600020604051806060016040529081600082015481526020016001820154815260200160028201548152505091505092915050565b600080600360008473ffffffffffffffffffffffffffffffffffffffff1673ffffffffffffffffffffffffffffffffffffffff16815260200190815260200160002060010154119050919050565b6000801b81565b600080600260008573ffffffffffffffffffffffffffffffffffffffff1673ffffffffffffffffffffffffffffffffffffffff16815260200190815260200160002060008473ffffffffffffffffffffffffffffffffffffffff1673ffffffffffffffffffffffffffffffffffffffff1681526020019081526020016000206000015411905092915050565b6110db611d29565b3073ffffffffffffffffffffffffffffffffffffffff1663999126d7836040518263ffffffff1660e01b8152600401611114919061246e565b602060405180830381865afa158015611131573d6000803e3d6000fd5b505050506040513d601f19601f8201168201806040525081019061115591906122da565b611194576040517f08c379a000000000000000000000000000000000000000000000000000000000815260040161118b9061263b565b60405180910390fd5b600360008373ffffffffffffffffffffffffffffffffffffffff1673ffffffffffffffffffffffffffffffffffffffff1681526020019081526020016000206040518060800160405290816000820154815260200160018201548152602001600282015481526020016003820154815250509050919050565b7f8e34397ebfb2b30de879ba566695932178f46861e3b05dcf2f402a62b072e4ac81565b6000600260008573ffffffffffffffffffffffffffffffffffffffff1673ffffffffffffffffffffffffffffffffffffffff16815260200190815260200160002060008673ffffffffffffffffffffffffffffffffffffffff1673ffffffffffffffffffffffffffffffffffffffff1681526020019081526020016000209050828160000160008282546112c59190612418565b925050819055508181600101819055505050505050565b6112e58261082c565b6112f6816112f1611527565b61152f565b6113008383611716565b505050565b60008173ffffffffffffffffffffffffffffffffffffffff166370a08231306040518263ffffffff1660e01b8152600401611340919061246e565b602060405180830381865afa15801561135d573d6000803e3d6000fd5b505050506040513d601f19601f82011682018060405250810190611381919061249e565b9050919050565b3073ffffffffffffffffffffffffffffffffffffffff1663b6f867a884866040518363ffffffff1660e01b81526004016113c3929190612285565b602060405180830381865afa1580156113e0573d6000803e3d6000fd5b505050506040513d601f19601f8201168201806040525081019061140491906122da565b15611444576040517f08c379a000000000000000000000000000000000000000000000000000000000815260040161143b906126cd565b60405180910390fd5b60405180606001604052808381526020018281526020016000815250600260008573ffffffffffffffffffffffffffffffffffffffff1673ffffffffffffffffffffffffffffffffffffffff16815260200190815260200160002060008673ffffffffffffffffffffffffffffffffffffffff1673ffffffffffffffffffffffffffffffffffffffff16815260200190815260200160002060008201518160000155602082015181600101556040820151816002015590505050505050565b7ffa146205d79c04d22c6b2309d75a6844cd1b28ad727f2383e3ee22681f00139981565b600033905090565b6115398282610ea0565b6115c85761155e8173ffffffffffffffffffffffffffffffffffffffff166014611880565b61156c8360001c6020611880565b60405160200161157d9291906127ff565b6040516020818303038152906040526040517f08c379a00000000000000000000000000000000000000000000000000000000081526004016115bf9190612883565b60405180910390fd5b5050565b60007f01ffc9a7000000000000000000000000000000000000000000000000000000007bffffffffffffffffffffffffffffffffffffffffffffffffffffffff1916827bffffffffffffffffffffffffffffffffffffffffffffffffffffffff1916149050919050565b6116408282610ea0565b61171257600160008084815260200190815260200160002060000160008373ffffffffffffffffffffffffffffffffffffffff1673ffffffffffffffffffffffffffffffffffffffff16815260200190815260200160002060006101000a81548160ff0219169083151502179055506116b7611527565b73ffffffffffffffffffffffffffffffffffffffff168173ffffffffffffffffffffffffffffffffffffffff16837f2f8788117e7eff1d82e926ec794901d17c78024a50270940304540a733656f0d60405160405180910390a45b5050565b6117208282610ea0565b156117f357600080600084815260200190815260200160002060000160008373ffffffffffffffffffffffffffffffffffffffff1673ffffffffffffffffffffffffffffffffffffffff16815260200190815260200160002060006101000a81548160ff021916908315150217905550611798611527565b73ffffffffffffffffffffffffffffffffffffffff168173ffffffffffffffffffffffffffffffffffffffff16837ff6391f5c32d9c69d2a47ea670b442974b53935d1edc7fd64eb21e047a839171b60405160405180910390a45b5050565b61187a846323b872dd60e01b858585604051602401611818939291906128a5565b604051602081830303815290604052907bffffffffffffffffffffffffffffffffffffffffffffffffffffffff19166020820180517bffffffffffffffffffffffffffffffffffffffffffffffffffffffff8381831617835250505050611abc565b50505050565b60606000600283600261189391906128dc565b61189d9190612418565b67ffffffffffffffff8111156118b6576118b5612936565b5b6040519080825280601f01601f1916602001820160405280156118e85781602001600182028036833780820191505090505b5090507f3000000000000000000000000000000000000000000000000000000000000000816000815181106119205761191f612965565b5b60200101907effffffffffffffffffffffffffffffffffffffffffffffffffffffffffffff1916908160001a9053507f78000000000000000000000000000000000000000000000000000000000000008160018151811061198457611983612965565b5b60200101907effffffffffffffffffffffffffffffffffffffffffffffffffffffffffffff1916908160001a905350600060018460026119c491906128dc565b6119ce9190612418565b90505b6001811115611a6e577f3031323334353637383961626364656600000000000000000000000000000000600f861660108110611a1057611a0f612965565b5b1a60f81b828281518110611a2757611a26612965565b5b60200101907effffffffffffffffffffffffffffffffffffffffffffffffffffffffffffff1916908160001a905350600485901c945080611a6790612994565b90506119d1565b5060008414611ab2576040517f08c379a0000000000000000000000000000000000000000000000000000000008152600401611aa990612a0a565b60405180910390fd5b8091505092915050565b6000611b1e826040518060400160405280602081526020017f5361666545524332303a206c6f772d6c6576656c2063616c6c206661696c65648152508573ffffffffffffffffffffffffffffffffffffffff16611b839092919063ffffffff16565b9050600081511115611b7e5780806020019051810190611b3e91906122da565b611b7d576040517f08c379a0000000000000000000000000000000000000000000000000000000008152600401611b7490612a9c565b60405180910390fd5b5b505050565b6060611b928484600085611b9b565b90509392505050565b606082471015611be0576040517f08c379a0000000000000000000000000000000000000000000000000000000008152600401611bd790612b2e565b60405180910390fd5b611be985611caf565b611c28576040517f08c379a0000000000000000000000000000000000000000000000000000000008152600401611c1f90612b9a565b60405180910390fd5b6000808673ffffffffffffffffffffffffffffffffffffffff168587604051611c519190612c01565b60006040518083038185875af1925050503d8060008114611c8e576040519150601f19603f3d011682016040523d82523d6000602084013e611c93565b606091505b5091509150611ca3828286611cc2565b92505050949350505050565b600080823b905060008111915050919050565b60608315611cd257829050611d22565b600083511115611ce55782518084602001fd5b816040517f08c379a0000000000000000000000000000000000000000000000000000000008152600401611d199190612883565b60405180910390fd5b9392505050565b6040518060800160405280600081526020016000815260200160008152602001600081525090565b60405180606001604052806000815260200160008152602001600081525090565b600080fd5b600073ffffffffffffffffffffffffffffffffffffffff82169050919050565b6000611da282611d77565b9050919050565b611db281611d97565b8114611dbd57600080fd5b50565b600081359050611dcf81611da9565b92915050565b60008060408385031215611dec57611deb611d72565b5b6000611dfa85828601611dc0565b9250506020611e0b85828601611dc0565b9150509250929050565b6000819050919050565b611e2881611e15565b82525050565b6000602082019050611e436000830184611e1f565b92915050565b60007fffffffff0000000000000000000000000000000000000000000000000000000082169050919050565b611e7e81611e49565b8114611e8957600080fd5b50565b600081359050611e9b81611e75565b92915050565b600060208284031215611eb757611eb6611d72565b5b6000611ec584828501611e8c565b91505092915050565b60008115159050919050565b611ee381611ece565b82525050565b6000602082019050611efe6000830184611eda565b92915050565b611f0d81611e15565b8114611f1857600080fd5b50565b600081359050611f2a81611f04565b92915050565b600080600060608486031215611f4957611f48611d72565b5b6000611f5786828701611dc0565b9350506020611f6886828701611f1b565b9250506040611f7986828701611f1b565b9150509250925092565b6000819050919050565b611f9681611f83565b8114611fa157600080fd5b50565b600081359050611fb381611f8d565b92915050565b600060208284031215611fcf57611fce611d72565b5b6000611fdd84828501611fa4565b91505092915050565b611fef81611f83565b82525050565b600060208201905061200a6000830184611fe6565b92915050565b6000806040838503121561202757612026611d72565b5b600061203585828601611fa4565b925050602061204685828601611dc0565b9150509250929050565b60008060006060848603121561206957612068611d72565b5b600061207786828701611dc0565b935050602061208886828701611dc0565b925050604061209986828701611f1b565b9150509250925092565b6120ac81611e15565b82525050565b6080820160008201516120c860008501826120a3565b5060208201516120db60208501826120a3565b5060408201516120ee60408501826120a3565b50606082015161210160608501826120a3565b50505050565b600060808201905061211c60008301846120b2565b92915050565b6000806000806080858703121561213c5761213b611d72565b5b600061214a87828801611dc0565b945050602061215b87828801611dc0565b935050604061216c87828801611f1b565b925050606061217d87828801611f1b565b91505092959194509250565b60608201600082015161219f60008501826120a3565b5060208201516121b260208501826120a3565b5060408201516121c560408501826120a3565b50505050565b60006060820190506121e06000830184612189565b92915050565b6000602082840312156121fc576121fb611d72565b5b600061220a84828501611dc0565b91505092915050565b7f4e487b7100000000000000000000000000000000000000000000000000000000600052601160045260246000fd5b600061224d82611e15565b915061225883611e15565b92508282101561226b5761226a612213565b5b828203905092915050565b61227f81611d97565b82525050565b600060408201905061229a6000830185612276565b6122a76020830184612276565b9392505050565b6122b781611ece565b81146122c257600080fd5b50565b6000815190506122d4816122ae565b92915050565b6000602082840312156122f0576122ef611d72565b5b60006122fe848285016122c5565b91505092915050565b600060808201905061231c6000830187612276565b6123296020830186612276565b6123366040830185611e1f565b6123436060830184611e1f565b95945050505050565b60006040820190506123616000830185612276565b61236e6020830184611e1f565b9392505050565b600082825260208201905092915050565b7f416363657373436f6e74726f6c3a2063616e206f6e6c792072656e6f756e636560008201527f20726f6c657320666f722073656c660000000000000000000000000000000000602082015250565b60006123e2602f83612375565b91506123ed82612386565b604082019050919050565b60006020820190508181036000830152612411816123d5565b9050919050565b600061242382611e15565b915061242e83611e15565b9250827fffffffffffffffffffffffffffffffffffffffffffffffffffffffffffffffff0382111561246357612462612213565b5b828201905092915050565b60006020820190506124836000830184612276565b92915050565b60008151905061249881611f04565b92915050565b6000602082840312156124b4576124b3611d72565b5b60006124c284828501612489565b91505092915050565b7f54686520616d6f756e742065786365656420746865207472656173757279206260008201527f616c616e63652e00000000000000000000000000000000000000000000000000602082015250565b6000612527602783612375565b9150612532826124cb565b604082019050919050565b600060208201905081810360008301526125568161251a565b9050919050565b7f57697468647261776e20616d6f756e742065786365656420746865207573657260008201527f2062616c616e6365000000000000000000000000000000000000000000000000602082015250565b60006125b9602883612375565b91506125c48261255d565b604082019050919050565b600060208201905081810360008301526125e8816125ac565b9050919050565b7f54686520706f6f6c20646f6573206e6f74206578697374732e00000000000000600082015250565b6000612625601983612375565b9150612630826125ef565b602082019050919050565b6000602082019050818103600083015261265481612618565b9050919050565b7f546865207573657220706f736974696f6e20697320616c72656164792065786960008201527f7374730000000000000000000000000000000000000000000000000000000000602082015250565b60006126b7602383612375565b91506126c28261265b565b604082019050919050565b600060208201905081810360008301526126e6816126aa565b9050919050565b600081905092915050565b7f416363657373436f6e74726f6c3a206163636f756e7420000000000000000000600082015250565b600061272e6017836126ed565b9150612739826126f8565b601782019050919050565b600081519050919050565b60005b8381101561276d578082015181840152602081019050612752565b8381111561277c576000848401525b50505050565b600061278d82612744565b61279781856126ed565b93506127a781856020860161274f565b80840191505092915050565b7f206973206d697373696e6720726f6c6520000000000000000000000000000000600082015250565b60006127e96011836126ed565b91506127f4826127b3565b601182019050919050565b600061280a82612721565b91506128168285612782565b9150612821826127dc565b915061282d8284612782565b91508190509392505050565b6000601f19601f8301169050919050565b600061285582612744565b61285f8185612375565b935061286f81856020860161274f565b61287881612839565b840191505092915050565b6000602082019050818103600083015261289d818461284a565b905092915050565b60006060820190506128ba6000830186612276565b6128c76020830185612276565b6128d46040830184611e1f565b949350505050565b60006128e782611e15565b91506128f283611e15565b9250817fffffffffffffffffffffffffffffffffffffffffffffffffffffffffffffffff048311821515161561292b5761292a612213565b5b828202905092915050565b7f4e487b7100000000000000000000000000000000000000000000000000000000600052604160045260246000fd5b7f4e487b7100000000000000000000000000000000000000000000000000000000600052603260045260246000fd5b600061299f82611e15565b915060008214156129b3576129b2612213565b5b600182039050919050565b7f537472696e67733a20686578206c656e67746820696e73756666696369656e74600082015250565b60006129f4602083612375565b91506129ff826129be565b602082019050919050565b60006020820190508181036000830152612a23816129e7565b9050919050565b7f5361666545524332303a204552433230206f7065726174696f6e20646964206e60008201527f6f74207375636365656400000000000000000000000000000000000000000000602082015250565b6000612a86602a83612375565b9150612a9182612a2a565b604082019050919050565b60006020820190508181036000830152612ab581612a79565b9050919050565b7f416464726573733a20696e73756666696369656e742062616c616e636520666f60008201527f722063616c6c0000000000000000000000000000000000000000000000000000602082015250565b6000612b18602683612375565b9150612b2382612abc565b604082019050919050565b60006020820190508181036000830152612b4781612b0b565b9050919050565b7f416464726573733a2063616c6c20746f206e6f6e2d636f6e7472616374000000600082015250565b6000612b84601d83612375565b9150612b8f82612b4e565b602082019050919050565b60006020820190508181036000830152612bb381612b77565b9050919050565b600081519050919050565b600081905092915050565b6000612bdb82612bba565b612be58185612bc5565b9350612bf581856020860161274f565b80840191505092915050565b6000612c0d8284612bd0565b91508190509291505056fea26469706673582212204cc0903d65eb3f2ecc5d87176d84fc6af36abd46e0b6d3abcb7211e3f289526b64736f6c634300080b0033",
  "linkReferences": {},
  "deployedLinkReferences": {}
}