{
  "_format": "hh-sol-artifact-1",
  "contractName": "TreasuryStorage",
  "sourceName": "contracts/treasury/TreasuryStorage.sol",
  "abi": [
    {
      "inputs": [
        {
          "internalType": "address",
          "name": "_treasuryShares",
          "type": "address"
        }
      ],
      "stateMutability": "nonpayable",
      "type": "constructor"
    },
    {
      "anonymous": false,
      "inputs": [
        {
          "indexed": true,
          "internalType": "bytes32",
          "name": "role",
          "type": "bytes32"
        },
        {
          "indexed": true,
          "internalType": "bytes32",
          "name": "previousAdminRole",
          "type": "bytes32"
        },
        {
          "indexed": true,
          "internalType": "bytes32",
          "name": "newAdminRole",
          "type": "bytes32"
        }
      ],
      "name": "RoleAdminChanged",
      "type": "event"
    },
    {
      "anonymous": false,
      "inputs": [
        {
          "indexed": true,
          "internalType": "bytes32",
          "name": "role",
          "type": "bytes32"
        },
        {
          "indexed": true,
          "internalType": "address",
          "name": "account",
          "type": "address"
        },
        {
          "indexed": true,
          "internalType": "address",
          "name": "sender",
          "type": "address"
        }
      ],
      "name": "RoleGranted",
      "type": "event"
    },
    {
      "anonymous": false,
      "inputs": [
        {
          "indexed": true,
          "internalType": "bytes32",
          "name": "role",
          "type": "bytes32"
        },
        {
          "indexed": true,
          "internalType": "address",
          "name": "account",
          "type": "address"
        },
        {
          "indexed": true,
          "internalType": "address",
          "name": "sender",
          "type": "address"
        }
      ],
      "name": "RoleRevoked",
      "type": "event"
    },
    {
      "inputs": [],
      "name": "DEFAULT_ADMIN_ROLE",
      "outputs": [
        {
          "internalType": "bytes32",
          "name": "",
          "type": "bytes32"
        }
      ],
      "stateMutability": "view",
      "type": "function"
    },
    {
      "inputs": [],
      "name": "TREASURY_FUND",
      "outputs": [
        {
          "internalType": "bytes32",
          "name": "",
          "type": "bytes32"
        }
      ],
      "stateMutability": "view",
      "type": "function"
    },
    {
      "inputs": [
        {
          "internalType": "address",
          "name": "_token",
          "type": "address"
        },
        {
          "internalType": "address",
          "name": "_user",
          "type": "address"
        },
        {
          "internalType": "uint256",
          "name": "_totalAmount",
          "type": "uint256"
        },
        {
          "internalType": "uint256",
          "name": "_rewardDebt",
          "type": "uint256"
        }
      ],
      "name": "addUserPosition",
      "outputs": [],
      "stateMutability": "nonpayable",
      "type": "function"
    },
    {
      "inputs": [
        {
          "internalType": "address",
          "name": "_user",
          "type": "address"
        },
        {
          "internalType": "address",
          "name": "_token",
          "type": "address"
        }
      ],
      "name": "checkIfUserPositionExists",
      "outputs": [
        {
          "internalType": "bool",
          "name": "",
          "type": "bool"
        }
      ],
      "stateMutability": "view",
      "type": "function"
    },
    {
      "inputs": [
        {
          "internalType": "address",
          "name": "_user",
          "type": "address"
        },
        {
          "internalType": "uint256",
          "name": "_amount",
          "type": "uint256"
        },
        {
          "internalType": "uint256",
          "name": "_rewardDebt",
          "type": "uint256"
        }
      ],
      "name": "deposit",
      "outputs": [],
      "stateMutability": "nonpayable",
      "type": "function"
    },
    {
      "inputs": [
        {
          "internalType": "bytes32",
          "name": "role",
          "type": "bytes32"
        }
      ],
      "name": "getRoleAdmin",
      "outputs": [
        {
          "internalType": "bytes32",
          "name": "",
          "type": "bytes32"
        }
      ],
      "stateMutability": "view",
      "type": "function"
    },
    {
      "inputs": [
        {
          "internalType": "address",
          "name": "_token",
          "type": "address"
        }
      ],
      "name": "getTokenSupply",
      "outputs": [
        {
          "internalType": "uint256",
          "name": "",
          "type": "uint256"
        }
      ],
      "stateMutability": "view",
      "type": "function"
    },
    {
      "inputs": [
        {
          "internalType": "bytes32",
          "name": "role",
          "type": "bytes32"
        },
        {
          "internalType": "address",
          "name": "account",
          "type": "address"
        }
      ],
      "name": "grantRole",
      "outputs": [],
      "stateMutability": "nonpayable",
      "type": "function"
    },
    {
      "inputs": [
        {
          "internalType": "bytes32",
          "name": "role",
          "type": "bytes32"
        },
        {
          "internalType": "address",
          "name": "account",
          "type": "address"
        }
      ],
      "name": "hasRole",
      "outputs": [
        {
          "internalType": "bool",
          "name": "",
          "type": "bool"
        }
      ],
      "stateMutability": "view",
      "type": "function"
    },
    {
      "inputs": [
        {
          "internalType": "address",
          "name": "_token",
          "type": "address"
        },
        {
          "internalType": "address",
          "name": "_user",
          "type": "address"
        },
        {
          "internalType": "uint256",
          "name": "_amount",
          "type": "uint256"
        }
      ],
      "name": "loan",
      "outputs": [],
      "stateMutability": "nonpayable",
      "type": "function"
    },
    {
      "inputs": [
        {
          "internalType": "bytes32",
          "name": "role",
          "type": "bytes32"
        },
        {
          "internalType": "address",
          "name": "account",
          "type": "address"
        }
      ],
      "name": "renounceRole",
      "outputs": [],
      "stateMutability": "nonpayable",
      "type": "function"
    },
    {
      "inputs": [
        {
          "internalType": "address",
          "name": "_user",
          "type": "address"
        },
        {
          "internalType": "address",
          "name": "_token",
          "type": "address"
        },
        {
          "internalType": "uint256",
          "name": "_principal",
          "type": "uint256"
        }
      ],
      "name": "returnPrincipal",
      "outputs": [],
      "stateMutability": "nonpayable",
      "type": "function"
    },
    {
      "inputs": [
        {
          "internalType": "bytes32",
          "name": "role",
          "type": "bytes32"
        },
        {
          "internalType": "address",
          "name": "account",
          "type": "address"
        }
      ],
      "name": "revokeRole",
      "outputs": [],
      "stateMutability": "nonpayable",
      "type": "function"
    },
    {
      "inputs": [
        {
          "internalType": "address",
          "name": "_token",
          "type": "address"
        },
        {
          "internalType": "address",
          "name": "_user",
          "type": "address"
        },
        {
          "internalType": "uint256",
          "name": "_amount",
          "type": "uint256"
        },
        {
          "internalType": "uint256",
          "name": "_rewardDebt",
          "type": "uint256"
        }
      ],
      "name": "setUserPosition",
      "outputs": [],
      "stateMutability": "nonpayable",
      "type": "function"
    },
    {
      "inputs": [
        {
          "internalType": "bytes4",
          "name": "interfaceId",
          "type": "bytes4"
        }
      ],
      "name": "supportsInterface",
      "outputs": [
        {
          "internalType": "bool",
          "name": "",
          "type": "bool"
        }
      ],
      "stateMutability": "view",
      "type": "function"
    }
  ],
  "bytecode": "0x60806040523480156200001157600080fd5b506040516200232d3803806200232d8339818101604052810190620000379190620000e9565b80600260006101000a81548173ffffffffffffffffffffffffffffffffffffffff021916908373ffffffffffffffffffffffffffffffffffffffff160217905550506200011b565b600080fd5b600073ffffffffffffffffffffffffffffffffffffffff82169050919050565b6000620000b18262000084565b9050919050565b620000c381620000a4565b8114620000cf57600080fd5b50565b600081519050620000e381620000b8565b92915050565b6000602082840312156200010257620001016200007f565b5b60006200011284828501620000d2565b91505092915050565b612202806200012b6000396000f3fe608060405234801561001057600080fd5b50600436106100f55760003560e01c806391d1485411610097578063d2456a9511610066578063d2456a9514610282578063d547741f1461029e578063f2866c78146102ba578063f5b5d237146102ea576100f5565b806391d14854146101e6578063a217fddf14610216578063b6f867a814610234578063c346771b14610264576100f5565b80632f2ff15d116100d35780632f2ff15d1461017657806336568abe146101925780633e0a5618146101ae57806361c81120146101ca576100f5565b806301ffc9a7146100fa5780630efe6a8b1461012a578063248a9ca314610146575b600080fd5b610114600480360381019061010f919061155d565b610306565b60405161012191906115a5565b60405180910390f35b610144600480360381019061013f9190611654565b610380565b005b610160600480360381019061015b91906116dd565b6105e3565b60405161016d9190611719565b60405180910390f35b610190600480360381019061018b9190611734565b610602565b005b6101ac60048036038101906101a79190611734565b61062b565b005b6101c860048036038101906101c39190611774565b6106ae565b005b6101e460048036038101906101df9190611774565b61074f565b005b61020060048036038101906101fb9190611734565b61090b565b60405161020d91906115a5565b60405180910390f35b61021e610975565b60405161022b9190611719565b60405180910390f35b61024e600480360381019061024991906117c7565b61097c565b60405161025b91906115a5565b60405180910390f35b61026c610a08565b6040516102799190611719565b60405180910390f35b61029c60048036038101906102979190611807565b610a2c565b005b6102b860048036038101906102b39190611734565b610ad7565b005b6102d460048036038101906102cf919061186e565b610b00565b6040516102e191906118aa565b60405180910390f35b61030460048036038101906102ff9190611807565b610b83565b005b60007f7965db0b000000000000000000000000000000000000000000000000000000007bffffffffffffffffffffffffffffffffffffffffffffffffffffffff1916827bffffffffffffffffffffffffffffffffffffffffffffffffffffffff19161480610379575061037882610cfe565b5b9050919050565b3073ffffffffffffffffffffffffffffffffffffffff1663b6f867a884600260009054906101000a900473ffffffffffffffffffffffffffffffffffffffff166040518363ffffffff1660e01b81526004016103dd9291906118d4565b602060405180830381865afa1580156103fa573d6000803e3d6000fd5b505050506040513d601f19601f8201168201806040525081019061041e9190611929565b156104bb573073ffffffffffffffffffffffffffffffffffffffff1663f5b5d237600260009054906101000a900473ffffffffffffffffffffffffffffffffffffffff168585856040518563ffffffff1660e01b81526004016104849493929190611956565b600060405180830381600087803b15801561049e57600080fd5b505af11580156104b2573d6000803e3d6000fd5b5050505061054f565b3073ffffffffffffffffffffffffffffffffffffffff1663d2456a95600260009054906101000a900473ffffffffffffffffffffffffffffffffffffffff168585856040518563ffffffff1660e01b815260040161051c9493929190611956565b600060405180830381600087803b15801561053657600080fd5b505af115801561054a573d6000803e3d6000fd5b505050505b600260009054906101000a900473ffffffffffffffffffffffffffffffffffffffff1673ffffffffffffffffffffffffffffffffffffffff166340c10f1984846040518363ffffffff1660e01b81526004016105ac92919061199b565b600060405180830381600087803b1580156105c657600080fd5b505af11580156105da573d6000803e3d6000fd5b50505050505050565b6000806000838152602001908152602001600020600101549050919050565b61060b826105e3565b61061c81610617610d68565b610d70565b6106268383610e0d565b505050565b610633610d68565b73ffffffffffffffffffffffffffffffffffffffff168173ffffffffffffffffffffffffffffffffffffffff16146106a0576040517f08c379a000000000000000000000000000000000000000000000000000000000815260040161069790611a47565b60405180910390fd5b6106aa8282610eed565b5050565b6000600160008573ffffffffffffffffffffffffffffffffffffffff1673ffffffffffffffffffffffffffffffffffffffff16815260200190815260200160002060008473ffffffffffffffffffffffffffffffffffffffff1673ffffffffffffffffffffffffffffffffffffffff1681526020019081526020016000209050818160020160008282546107429190611a96565b9250508190555050505050565b7f8e34397ebfb2b30de879ba566695932178f46861e3b05dcf2f402a62b072e4ac6107818161077c610d68565b610d70565b818473ffffffffffffffffffffffffffffffffffffffff166370a08231306040518263ffffffff1660e01b81526004016107bb9190611aca565b602060405180830381865afa1580156107d8573d6000803e3d6000fd5b505050506040513d601f19601f820116820180604052508101906107fc9190611afa565b1161083c576040517f08c379a000000000000000000000000000000000000000000000000000000000815260040161083390611b99565b60405180910390fd5b6000600160008573ffffffffffffffffffffffffffffffffffffffff1673ffffffffffffffffffffffffffffffffffffffff16815260200190815260200160002060008673ffffffffffffffffffffffffffffffffffffffff1673ffffffffffffffffffffffffffffffffffffffff1681526020019081526020016000209050828160020160008282546108d09190611bb9565b925050819055506109043085858873ffffffffffffffffffffffffffffffffffffffff16610fce909392919063ffffffff16565b5050505050565b600080600084815260200190815260200160002060000160008373ffffffffffffffffffffffffffffffffffffffff1673ffffffffffffffffffffffffffffffffffffffff16815260200190815260200160002060009054906101000a900460ff16905092915050565b6000801b81565b600080600160008573ffffffffffffffffffffffffffffffffffffffff1673ffffffffffffffffffffffffffffffffffffffff16815260200190815260200160002060008473ffffffffffffffffffffffffffffffffffffffff1673ffffffffffffffffffffffffffffffffffffffff1681526020019081526020016000206000015411905092915050565b7f8e34397ebfb2b30de879ba566695932178f46861e3b05dcf2f402a62b072e4ac81565b6000600160008573ffffffffffffffffffffffffffffffffffffffff1673ffffffffffffffffffffffffffffffffffffffff16815260200190815260200160002060008673ffffffffffffffffffffffffffffffffffffffff1673ffffffffffffffffffffffffffffffffffffffff168152602001908152602001600020905082816000016000828254610ac09190611bb9565b925050819055508181600101819055505050505050565b610ae0826105e3565b610af181610aec610d68565b610d70565b610afb8383610eed565b505050565b60008173ffffffffffffffffffffffffffffffffffffffff166370a08231306040518263ffffffff1660e01b8152600401610b3b9190611aca565b602060405180830381865afa158015610b58573d6000803e3d6000fd5b505050506040513d601f19601f82011682018060405250810190610b7c9190611afa565b9050919050565b3073ffffffffffffffffffffffffffffffffffffffff1663b6f867a884866040518363ffffffff1660e01b8152600401610bbe9291906118d4565b602060405180830381865afa158015610bdb573d6000803e3d6000fd5b505050506040513d601f19601f82011682018060405250810190610bff9190611929565b15610c3f576040517f08c379a0000000000000000000000000000000000000000000000000000000008152600401610c3690611c81565b60405180910390fd5b60405180606001604052808381526020018281526020016000815250600160008573ffffffffffffffffffffffffffffffffffffffff1673ffffffffffffffffffffffffffffffffffffffff16815260200190815260200160002060008673ffffffffffffffffffffffffffffffffffffffff1673ffffffffffffffffffffffffffffffffffffffff16815260200190815260200160002060008201518160000155602082015181600101556040820151816002015590505050505050565b60007f01ffc9a7000000000000000000000000000000000000000000000000000000007bffffffffffffffffffffffffffffffffffffffffffffffffffffffff1916827bffffffffffffffffffffffffffffffffffffffffffffffffffffffff1916149050919050565b600033905090565b610d7a828261090b565b610e0957610d9f8173ffffffffffffffffffffffffffffffffffffffff166014611057565b610dad8360001c6020611057565b604051602001610dbe929190611db3565b6040516020818303038152906040526040517f08c379a0000000000000000000000000000000000000000000000000000000008152600401610e009190611e37565b60405180910390fd5b5050565b610e17828261090b565b610ee957600160008084815260200190815260200160002060000160008373ffffffffffffffffffffffffffffffffffffffff1673ffffffffffffffffffffffffffffffffffffffff16815260200190815260200160002060006101000a81548160ff021916908315150217905550610e8e610d68565b73ffffffffffffffffffffffffffffffffffffffff168173ffffffffffffffffffffffffffffffffffffffff16837f2f8788117e7eff1d82e926ec794901d17c78024a50270940304540a733656f0d60405160405180910390a45b5050565b610ef7828261090b565b15610fca57600080600084815260200190815260200160002060000160008373ffffffffffffffffffffffffffffffffffffffff1673ffffffffffffffffffffffffffffffffffffffff16815260200190815260200160002060006101000a81548160ff021916908315150217905550610f6f610d68565b73ffffffffffffffffffffffffffffffffffffffff168173ffffffffffffffffffffffffffffffffffffffff16837ff6391f5c32d9c69d2a47ea670b442974b53935d1edc7fd64eb21e047a839171b60405160405180910390a45b5050565b611051846323b872dd60e01b858585604051602401610fef93929190611e59565b604051602081830303815290604052907bffffffffffffffffffffffffffffffffffffffffffffffffffffffff19166020820180517bffffffffffffffffffffffffffffffffffffffffffffffffffffffff8381831617835250505050611293565b50505050565b60606000600283600261106a9190611e90565b6110749190611bb9565b67ffffffffffffffff81111561108d5761108c611eea565b5b6040519080825280601f01601f1916602001820160405280156110bf5781602001600182028036833780820191505090505b5090507f3000000000000000000000000000000000000000000000000000000000000000816000815181106110f7576110f6611f19565b5b60200101907effffffffffffffffffffffffffffffffffffffffffffffffffffffffffffff1916908160001a9053507f78000000000000000000000000000000000000000000000000000000000000008160018151811061115b5761115a611f19565b5b60200101907effffffffffffffffffffffffffffffffffffffffffffffffffffffffffffff1916908160001a9053506000600184600261119b9190611e90565b6111a59190611bb9565b90505b6001811115611245577f3031323334353637383961626364656600000000000000000000000000000000600f8616601081106111e7576111e6611f19565b5b1a60f81b8282815181106111fe576111fd611f19565b5b60200101907effffffffffffffffffffffffffffffffffffffffffffffffffffffffffffff1916908160001a905350600485901c94508061123e90611f48565b90506111a8565b5060008414611289576040517f08c379a000000000000000000000000000000000000000000000000000000000815260040161128090611fbe565b60405180910390fd5b8091505092915050565b60006112f5826040518060400160405280602081526020017f5361666545524332303a206c6f772d6c6576656c2063616c6c206661696c65648152508573ffffffffffffffffffffffffffffffffffffffff1661135a9092919063ffffffff16565b905060008151111561135557808060200190518101906113159190611929565b611354576040517f08c379a000000000000000000000000000000000000000000000000000000000815260040161134b90612050565b60405180910390fd5b5b505050565b60606113698484600085611372565b90509392505050565b6060824710156113b7576040517f08c379a00000000000000000000000000000000000000000000000000000000081526004016113ae906120e2565b60405180910390fd5b6113c085611486565b6113ff576040517f08c379a00000000000000000000000000000000000000000000000000000000081526004016113f69061214e565b60405180910390fd5b6000808673ffffffffffffffffffffffffffffffffffffffff16858760405161142891906121b5565b60006040518083038185875af1925050503d8060008114611465576040519150601f19603f3d011682016040523d82523d6000602084013e61146a565b606091505b509150915061147a828286611499565b92505050949350505050565b600080823b905060008111915050919050565b606083156114a9578290506114f9565b6000835111156114bc5782518084602001fd5b816040517f08c379a00000000000000000000000000000000000000000000000000000000081526004016114f09190611e37565b60405180910390fd5b9392505050565b600080fd5b60007fffffffff0000000000000000000000000000000000000000000000000000000082169050919050565b61153a81611505565b811461154557600080fd5b50565b60008135905061155781611531565b92915050565b60006020828403121561157357611572611500565b5b600061158184828501611548565b91505092915050565b60008115159050919050565b61159f8161158a565b82525050565b60006020820190506115ba6000830184611596565b92915050565b600073ffffffffffffffffffffffffffffffffffffffff82169050919050565b60006115eb826115c0565b9050919050565b6115fb816115e0565b811461160657600080fd5b50565b600081359050611618816115f2565b92915050565b6000819050919050565b6116318161161e565b811461163c57600080fd5b50565b60008135905061164e81611628565b92915050565b60008060006060848603121561166d5761166c611500565b5b600061167b86828701611609565b935050602061168c8682870161163f565b925050604061169d8682870161163f565b9150509250925092565b6000819050919050565b6116ba816116a7565b81146116c557600080fd5b50565b6000813590506116d7816116b1565b92915050565b6000602082840312156116f3576116f2611500565b5b6000611701848285016116c8565b91505092915050565b611713816116a7565b82525050565b600060208201905061172e600083018461170a565b92915050565b6000806040838503121561174b5761174a611500565b5b6000611759858286016116c8565b925050602061176a85828601611609565b9150509250929050565b60008060006060848603121561178d5761178c611500565b5b600061179b86828701611609565b93505060206117ac86828701611609565b92505060406117bd8682870161163f565b9150509250925092565b600080604083850312156117de576117dd611500565b5b60006117ec85828601611609565b92505060206117fd85828601611609565b9150509250929050565b6000806000806080858703121561182157611820611500565b5b600061182f87828801611609565b945050602061184087828801611609565b93505060406118518782880161163f565b92505060606118628782880161163f565b91505092959194509250565b60006020828403121561188457611883611500565b5b600061189284828501611609565b91505092915050565b6118a48161161e565b82525050565b60006020820190506118bf600083018461189b565b92915050565b6118ce816115e0565b82525050565b60006040820190506118e960008301856118c5565b6118f660208301846118c5565b9392505050565b6119068161158a565b811461191157600080fd5b50565b600081519050611923816118fd565b92915050565b60006020828403121561193f5761193e611500565b5b600061194d84828501611914565b91505092915050565b600060808201905061196b60008301876118c5565b61197860208301866118c5565b611985604083018561189b565b611992606083018461189b565b95945050505050565b60006040820190506119b060008301856118c5565b6119bd602083018461189b565b9392505050565b600082825260208201905092915050565b7f416363657373436f6e74726f6c3a2063616e206f6e6c792072656e6f756e636560008201527f20726f6c657320666f722073656c660000000000000000000000000000000000602082015250565b6000611a31602f836119c4565b9150611a3c826119d5565b604082019050919050565b60006020820190508181036000830152611a6081611a24565b9050919050565b7f4e487b7100000000000000000000000000000000000000000000000000000000600052601160045260246000fd5b6000611aa18261161e565b9150611aac8361161e565b925082821015611abf57611abe611a67565b5b828203905092915050565b6000602082019050611adf60008301846118c5565b92915050565b600081519050611af481611628565b92915050565b600060208284031215611b1057611b0f611500565b5b6000611b1e84828501611ae5565b91505092915050565b7f54686520616d6f756e742065786365656420746865207472656173757279206260008201527f616c616e63652e00000000000000000000000000000000000000000000000000602082015250565b6000611b836027836119c4565b9150611b8e82611b27565b604082019050919050565b60006020820190508181036000830152611bb281611b76565b9050919050565b6000611bc48261161e565b9150611bcf8361161e565b9250827fffffffffffffffffffffffffffffffffffffffffffffffffffffffffffffffff03821115611c0457611c03611a67565b5b828201905092915050565b7f546865207573657220706f736974696f6e20697320616c72656164792065786960008201527f7374730000000000000000000000000000000000000000000000000000000000602082015250565b6000611c6b6023836119c4565b9150611c7682611c0f565b604082019050919050565b60006020820190508181036000830152611c9a81611c5e565b9050919050565b600081905092915050565b7f416363657373436f6e74726f6c3a206163636f756e7420000000000000000000600082015250565b6000611ce2601783611ca1565b9150611ced82611cac565b601782019050919050565b600081519050919050565b60005b83811015611d21578082015181840152602081019050611d06565b83811115611d30576000848401525b50505050565b6000611d4182611cf8565b611d4b8185611ca1565b9350611d5b818560208601611d03565b80840191505092915050565b7f206973206d697373696e6720726f6c6520000000000000000000000000000000600082015250565b6000611d9d601183611ca1565b9150611da882611d67565b601182019050919050565b6000611dbe82611cd5565b9150611dca8285611d36565b9150611dd582611d90565b9150611de18284611d36565b91508190509392505050565b6000601f19601f8301169050919050565b6000611e0982611cf8565b611e1381856119c4565b9350611e23818560208601611d03565b611e2c81611ded565b840191505092915050565b60006020820190508181036000830152611e518184611dfe565b905092915050565b6000606082019050611e6e60008301866118c5565b611e7b60208301856118c5565b611e88604083018461189b565b949350505050565b6000611e9b8261161e565b9150611ea68361161e565b9250817fffffffffffffffffffffffffffffffffffffffffffffffffffffffffffffffff0483118215151615611edf57611ede611a67565b5b828202905092915050565b7f4e487b7100000000000000000000000000000000000000000000000000000000600052604160045260246000fd5b7f4e487b7100000000000000000000000000000000000000000000000000000000600052603260045260246000fd5b6000611f538261161e565b91506000821415611f6757611f66611a67565b5b600182039050919050565b7f537472696e67733a20686578206c656e67746820696e73756666696369656e74600082015250565b6000611fa86020836119c4565b9150611fb382611f72565b602082019050919050565b60006020820190508181036000830152611fd781611f9b565b9050919050565b7f5361666545524332303a204552433230206f7065726174696f6e20646964206e60008201527f6f74207375636365656400000000000000000000000000000000000000000000602082015250565b600061203a602a836119c4565b915061204582611fde565b604082019050919050565b600060208201905081810360008301526120698161202d565b9050919050565b7f416464726573733a20696e73756666696369656e742062616c616e636520666f60008201527f722063616c6c0000000000000000000000000000000000000000000000000000602082015250565b60006120cc6026836119c4565b91506120d782612070565b604082019050919050565b600060208201905081810360008301526120fb816120bf565b9050919050565b7f416464726573733a2063616c6c20746f206e6f6e2d636f6e7472616374000000600082015250565b6000612138601d836119c4565b915061214382612102565b602082019050919050565b600060208201905081810360008301526121678161212b565b9050919050565b600081519050919050565b600081905092915050565b600061218f8261216e565b6121998185612179565b93506121a9818560208601611d03565b80840191505092915050565b60006121c18284612184565b91508190509291505056fea2646970667358221220a7db89da916b56a1b204c2faaa947e3d002502bfe83c21a036d6029d97eab9a364736f6c634300080b0033",
  "linkReferences": {},
  "deployedLinkReferences": {}
}