{
  "_format": "hh-sol-artifact-1",
  "contractName": "TreasuryStorage",
  "sourceName": "contracts/treasury/TreasuryStorage.sol",
  "abi": [
    {
      "inputs": [
        {
          "internalType": "address",
          "name": "_treasuryShares",
          "type": "address"
        }
      ],
      "stateMutability": "nonpayable",
      "type": "constructor"
    },
    {
      "anonymous": false,
      "inputs": [
        {
          "indexed": true,
          "internalType": "bytes32",
          "name": "role",
          "type": "bytes32"
        },
        {
          "indexed": true,
          "internalType": "bytes32",
          "name": "previousAdminRole",
          "type": "bytes32"
        },
        {
          "indexed": true,
          "internalType": "bytes32",
          "name": "newAdminRole",
          "type": "bytes32"
        }
      ],
      "name": "RoleAdminChanged",
      "type": "event"
    },
    {
      "anonymous": false,
      "inputs": [
        {
          "indexed": true,
          "internalType": "bytes32",
          "name": "role",
          "type": "bytes32"
        },
        {
          "indexed": true,
          "internalType": "address",
          "name": "account",
          "type": "address"
        },
        {
          "indexed": true,
          "internalType": "address",
          "name": "sender",
          "type": "address"
        }
      ],
      "name": "RoleGranted",
      "type": "event"
    },
    {
      "anonymous": false,
      "inputs": [
        {
          "indexed": true,
          "internalType": "bytes32",
          "name": "role",
          "type": "bytes32"
        },
        {
          "indexed": true,
          "internalType": "address",
          "name": "account",
          "type": "address"
        },
        {
          "indexed": true,
          "internalType": "address",
          "name": "sender",
          "type": "address"
        }
      ],
      "name": "RoleRevoked",
      "type": "event"
    },
    {
      "inputs": [],
      "name": "DEFAULT_ADMIN_ROLE",
      "outputs": [
        {
          "internalType": "bytes32",
          "name": "",
          "type": "bytes32"
        }
      ],
      "stateMutability": "view",
      "type": "function"
    },
    {
      "inputs": [],
      "name": "TREASURY_FUND",
      "outputs": [
        {
          "internalType": "bytes32",
          "name": "",
          "type": "bytes32"
        }
      ],
      "stateMutability": "view",
      "type": "function"
    },
    {
      "inputs": [
        {
          "internalType": "address",
          "name": "_token",
          "type": "address"
        },
        {
          "internalType": "address",
          "name": "_user",
          "type": "address"
        },
        {
          "internalType": "uint256",
          "name": "_totalAmount",
          "type": "uint256"
        },
        {
          "internalType": "uint256",
          "name": "_rewardDebt",
          "type": "uint256"
        }
      ],
      "name": "addUserPosition",
      "outputs": [],
      "stateMutability": "nonpayable",
      "type": "function"
    },
    {
      "inputs": [
        {
          "internalType": "address",
          "name": "_user",
          "type": "address"
        },
        {
          "internalType": "address",
          "name": "_token",
          "type": "address"
        }
      ],
      "name": "checkIfUserPositionExists",
      "outputs": [
        {
          "internalType": "bool",
          "name": "",
          "type": "bool"
        }
      ],
      "stateMutability": "view",
      "type": "function"
    },
    {
      "inputs": [
        {
          "internalType": "address",
          "name": "_user",
          "type": "address"
        },
        {
          "internalType": "uint256",
          "name": "_amount",
          "type": "uint256"
        },
        {
          "internalType": "uint256",
          "name": "_rewardDebt",
          "type": "uint256"
        }
      ],
      "name": "deposit",
      "outputs": [],
      "stateMutability": "nonpayable",
      "type": "function"
    },
    {
      "inputs": [
        {
          "internalType": "bytes32",
          "name": "role",
          "type": "bytes32"
        }
      ],
      "name": "getRoleAdmin",
      "outputs": [
        {
          "internalType": "bytes32",
          "name": "",
          "type": "bytes32"
        }
      ],
      "stateMutability": "view",
      "type": "function"
    },
    {
      "inputs": [
        {
          "internalType": "address",
          "name": "_token",
          "type": "address"
        }
      ],
      "name": "getTokenSupply",
      "outputs": [
        {
          "internalType": "uint256",
          "name": "",
          "type": "uint256"
        }
      ],
      "stateMutability": "view",
      "type": "function"
    },
    {
      "inputs": [
        {
          "internalType": "bytes32",
          "name": "role",
          "type": "bytes32"
        },
        {
          "internalType": "address",
          "name": "account",
          "type": "address"
        }
      ],
      "name": "grantRole",
      "outputs": [],
      "stateMutability": "nonpayable",
      "type": "function"
    },
    {
      "inputs": [
        {
          "internalType": "bytes32",
          "name": "role",
          "type": "bytes32"
        },
        {
          "internalType": "address",
          "name": "account",
          "type": "address"
        }
      ],
      "name": "hasRole",
      "outputs": [
        {
          "internalType": "bool",
          "name": "",
          "type": "bool"
        }
      ],
      "stateMutability": "view",
      "type": "function"
    },
    {
      "inputs": [
        {
          "internalType": "address",
          "name": "_token",
          "type": "address"
        },
        {
          "internalType": "address",
          "name": "_user",
          "type": "address"
        },
        {
          "internalType": "uint256",
          "name": "_amount",
          "type": "uint256"
        }
      ],
      "name": "loan",
      "outputs": [],
      "stateMutability": "nonpayable",
      "type": "function"
    },
    {
      "inputs": [
        {
          "internalType": "bytes32",
          "name": "role",
          "type": "bytes32"
        },
        {
          "internalType": "address",
          "name": "account",
          "type": "address"
        }
      ],
      "name": "renounceRole",
      "outputs": [],
      "stateMutability": "nonpayable",
      "type": "function"
    },
    {
      "inputs": [
        {
          "internalType": "bytes32",
          "name": "role",
          "type": "bytes32"
        },
        {
          "internalType": "address",
          "name": "account",
          "type": "address"
        }
      ],
      "name": "revokeRole",
      "outputs": [],
      "stateMutability": "nonpayable",
      "type": "function"
    },
    {
      "inputs": [
        {
          "internalType": "address",
          "name": "_token",
          "type": "address"
        },
        {
          "internalType": "address",
          "name": "_user",
          "type": "address"
        },
        {
          "internalType": "uint256",
          "name": "_amount",
          "type": "uint256"
        },
        {
          "internalType": "uint256",
          "name": "_rewardDebt",
          "type": "uint256"
        }
      ],
      "name": "setUserPosition",
      "outputs": [],
      "stateMutability": "nonpayable",
      "type": "function"
    },
    {
      "inputs": [
        {
          "internalType": "bytes4",
          "name": "interfaceId",
          "type": "bytes4"
        }
      ],
      "name": "supportsInterface",
      "outputs": [
        {
          "internalType": "bool",
          "name": "",
          "type": "bool"
        }
      ],
      "stateMutability": "view",
      "type": "function"
    }
  ],
  "bytecode": "0x60806040523480156200001157600080fd5b5060405162002231380380620022318339818101604052810190620000379190620000e9565b80600260006101000a81548173ffffffffffffffffffffffffffffffffffffffff021916908373ffffffffffffffffffffffffffffffffffffffff160217905550506200011b565b600080fd5b600073ffffffffffffffffffffffffffffffffffffffff82169050919050565b6000620000b18262000084565b9050919050565b620000c381620000a4565b8114620000cf57600080fd5b50565b600081519050620000e381620000b8565b92915050565b6000602082840312156200010257620001016200007f565b5b60006200011284828501620000d2565b91505092915050565b612106806200012b6000396000f3fe608060405234801561001057600080fd5b50600436106100ea5760003560e01c8063a217fddf1161008c578063d2456a9511610066578063d2456a951461025b578063d547741f14610277578063f2866c7814610293578063f5b5d237146102c3576100ea565b8063a217fddf146101ef578063b6f867a81461020d578063c346771b1461023d576100ea565b80632f2ff15d116100c85780632f2ff15d1461016b57806336568abe1461018757806361c81120146101a357806391d14854146101bf576100ea565b806301ffc9a7146100ef5780630efe6a8b1461011f578063248a9ca31461013b575b600080fd5b61010960048036038101906101049190611495565b6102df565b60405161011691906114dd565b60405180910390f35b6101396004803603810190610134919061158c565b610359565b005b61015560048036038101906101509190611615565b6105bc565b6040516101629190611651565b60405180910390f35b6101856004803603810190610180919061166c565b6105db565b005b6101a1600480360381019061019c919061166c565b610604565b005b6101bd60048036038101906101b891906116ac565b610687565b005b6101d960048036038101906101d4919061166c565b610843565b6040516101e691906114dd565b60405180910390f35b6101f76108ad565b6040516102049190611651565b60405180910390f35b610227600480360381019061022291906116ff565b6108b4565b60405161023491906114dd565b60405180910390f35b610245610940565b6040516102529190611651565b60405180910390f35b6102756004803603810190610270919061173f565b610964565b005b610291600480360381019061028c919061166c565b610a0f565b005b6102ad60048036038101906102a891906117a6565b610a38565b6040516102ba91906117e2565b60405180910390f35b6102dd60048036038101906102d8919061173f565b610abb565b005b60007f7965db0b000000000000000000000000000000000000000000000000000000007bffffffffffffffffffffffffffffffffffffffffffffffffffffffff1916827bffffffffffffffffffffffffffffffffffffffffffffffffffffffff19161480610352575061035182610c36565b5b9050919050565b3073ffffffffffffffffffffffffffffffffffffffff1663b6f867a884600260009054906101000a900473ffffffffffffffffffffffffffffffffffffffff166040518363ffffffff1660e01b81526004016103b692919061180c565b602060405180830381865afa1580156103d3573d6000803e3d6000fd5b505050506040513d601f19601f820116820180604052508101906103f79190611861565b15610494573073ffffffffffffffffffffffffffffffffffffffff1663f5b5d237600260009054906101000a900473ffffffffffffffffffffffffffffffffffffffff168585856040518563ffffffff1660e01b815260040161045d949392919061188e565b600060405180830381600087803b15801561047757600080fd5b505af115801561048b573d6000803e3d6000fd5b50505050610528565b3073ffffffffffffffffffffffffffffffffffffffff1663d2456a95600260009054906101000a900473ffffffffffffffffffffffffffffffffffffffff168585856040518563ffffffff1660e01b81526004016104f5949392919061188e565b600060405180830381600087803b15801561050f57600080fd5b505af1158015610523573d6000803e3d6000fd5b505050505b600260009054906101000a900473ffffffffffffffffffffffffffffffffffffffff1673ffffffffffffffffffffffffffffffffffffffff166340c10f1984846040518363ffffffff1660e01b81526004016105859291906118d3565b600060405180830381600087803b15801561059f57600080fd5b505af11580156105b3573d6000803e3d6000fd5b50505050505050565b6000806000838152602001908152602001600020600101549050919050565b6105e4826105bc565b6105f5816105f0610ca0565b610ca8565b6105ff8383610d45565b505050565b61060c610ca0565b73ffffffffffffffffffffffffffffffffffffffff168173ffffffffffffffffffffffffffffffffffffffff1614610679576040517f08c379a00000000000000000000000000000000000000000000000000000000081526004016106709061197f565b60405180910390fd5b6106838282610e25565b5050565b7f8e34397ebfb2b30de879ba566695932178f46861e3b05dcf2f402a62b072e4ac6106b9816106b4610ca0565b610ca8565b818473ffffffffffffffffffffffffffffffffffffffff166370a08231306040518263ffffffff1660e01b81526004016106f3919061199f565b602060405180830381865afa158015610710573d6000803e3d6000fd5b505050506040513d601f19601f8201168201806040525081019061073491906119cf565b11610774576040517f08c379a000000000000000000000000000000000000000000000000000000000815260040161076b90611a6e565b60405180910390fd5b6000600160008573ffffffffffffffffffffffffffffffffffffffff1673ffffffffffffffffffffffffffffffffffffffff16815260200190815260200160002060008673ffffffffffffffffffffffffffffffffffffffff1673ffffffffffffffffffffffffffffffffffffffff1681526020019081526020016000209050828160020160008282546108089190611abd565b9250508190555061083c3085858873ffffffffffffffffffffffffffffffffffffffff16610f06909392919063ffffffff16565b5050505050565b600080600084815260200190815260200160002060000160008373ffffffffffffffffffffffffffffffffffffffff1673ffffffffffffffffffffffffffffffffffffffff16815260200190815260200160002060009054906101000a900460ff16905092915050565b6000801b81565b600080600160008573ffffffffffffffffffffffffffffffffffffffff1673ffffffffffffffffffffffffffffffffffffffff16815260200190815260200160002060008473ffffffffffffffffffffffffffffffffffffffff1673ffffffffffffffffffffffffffffffffffffffff1681526020019081526020016000206000015411905092915050565b7f8e34397ebfb2b30de879ba566695932178f46861e3b05dcf2f402a62b072e4ac81565b6000600160008573ffffffffffffffffffffffffffffffffffffffff1673ffffffffffffffffffffffffffffffffffffffff16815260200190815260200160002060008673ffffffffffffffffffffffffffffffffffffffff1673ffffffffffffffffffffffffffffffffffffffff1681526020019081526020016000209050828160000160008282546109f89190611abd565b925050819055508181600101819055505050505050565b610a18826105bc565b610a2981610a24610ca0565b610ca8565b610a338383610e25565b505050565b60008173ffffffffffffffffffffffffffffffffffffffff166370a08231306040518263ffffffff1660e01b8152600401610a73919061199f565b602060405180830381865afa158015610a90573d6000803e3d6000fd5b505050506040513d601f19601f82011682018060405250810190610ab491906119cf565b9050919050565b3073ffffffffffffffffffffffffffffffffffffffff1663b6f867a884866040518363ffffffff1660e01b8152600401610af692919061180c565b602060405180830381865afa158015610b13573d6000803e3d6000fd5b505050506040513d601f19601f82011682018060405250810190610b379190611861565b15610b77576040517f08c379a0000000000000000000000000000000000000000000000000000000008152600401610b6e90611b85565b60405180910390fd5b60405180606001604052808381526020018281526020016000815250600160008573ffffffffffffffffffffffffffffffffffffffff1673ffffffffffffffffffffffffffffffffffffffff16815260200190815260200160002060008673ffffffffffffffffffffffffffffffffffffffff1673ffffffffffffffffffffffffffffffffffffffff16815260200190815260200160002060008201518160000155602082015181600101556040820151816002015590505050505050565b60007f01ffc9a7000000000000000000000000000000000000000000000000000000007bffffffffffffffffffffffffffffffffffffffffffffffffffffffff1916827bffffffffffffffffffffffffffffffffffffffffffffffffffffffff1916149050919050565b600033905090565b610cb28282610843565b610d4157610cd78173ffffffffffffffffffffffffffffffffffffffff166014610f8f565b610ce58360001c6020610f8f565b604051602001610cf6929190611cb7565b6040516020818303038152906040526040517f08c379a0000000000000000000000000000000000000000000000000000000008152600401610d389190611d3b565b60405180910390fd5b5050565b610d4f8282610843565b610e2157600160008084815260200190815260200160002060000160008373ffffffffffffffffffffffffffffffffffffffff1673ffffffffffffffffffffffffffffffffffffffff16815260200190815260200160002060006101000a81548160ff021916908315150217905550610dc6610ca0565b73ffffffffffffffffffffffffffffffffffffffff168173ffffffffffffffffffffffffffffffffffffffff16837f2f8788117e7eff1d82e926ec794901d17c78024a50270940304540a733656f0d60405160405180910390a45b5050565b610e2f8282610843565b15610f0257600080600084815260200190815260200160002060000160008373ffffffffffffffffffffffffffffffffffffffff1673ffffffffffffffffffffffffffffffffffffffff16815260200190815260200160002060006101000a81548160ff021916908315150217905550610ea7610ca0565b73ffffffffffffffffffffffffffffffffffffffff168173ffffffffffffffffffffffffffffffffffffffff16837ff6391f5c32d9c69d2a47ea670b442974b53935d1edc7fd64eb21e047a839171b60405160405180910390a45b5050565b610f89846323b872dd60e01b858585604051602401610f2793929190611d5d565b604051602081830303815290604052907bffffffffffffffffffffffffffffffffffffffffffffffffffffffff19166020820180517bffffffffffffffffffffffffffffffffffffffffffffffffffffffff83818316178352505050506111cb565b50505050565b606060006002836002610fa29190611d94565b610fac9190611abd565b67ffffffffffffffff811115610fc557610fc4611dee565b5b6040519080825280601f01601f191660200182016040528015610ff75781602001600182028036833780820191505090505b5090507f30000000000000000000000000000000000000000000000000000000000000008160008151811061102f5761102e611e1d565b5b60200101907effffffffffffffffffffffffffffffffffffffffffffffffffffffffffffff1916908160001a9053507f78000000000000000000000000000000000000000000000000000000000000008160018151811061109357611092611e1d565b5b60200101907effffffffffffffffffffffffffffffffffffffffffffffffffffffffffffff1916908160001a905350600060018460026110d39190611d94565b6110dd9190611abd565b90505b600181111561117d577f3031323334353637383961626364656600000000000000000000000000000000600f86166010811061111f5761111e611e1d565b5b1a60f81b82828151811061113657611135611e1d565b5b60200101907effffffffffffffffffffffffffffffffffffffffffffffffffffffffffffff1916908160001a905350600485901c94508061117690611e4c565b90506110e0565b50600084146111c1576040517f08c379a00000000000000000000000000000000000000000000000000000000081526004016111b890611ec2565b60405180910390fd5b8091505092915050565b600061122d826040518060400160405280602081526020017f5361666545524332303a206c6f772d6c6576656c2063616c6c206661696c65648152508573ffffffffffffffffffffffffffffffffffffffff166112929092919063ffffffff16565b905060008151111561128d578080602001905181019061124d9190611861565b61128c576040517f08c379a000000000000000000000000000000000000000000000000000000000815260040161128390611f54565b60405180910390fd5b5b505050565b60606112a184846000856112aa565b90509392505050565b6060824710156112ef576040517f08c379a00000000000000000000000000000000000000000000000000000000081526004016112e690611fe6565b60405180910390fd5b6112f8856113be565b611337576040517f08c379a000000000000000000000000000000000000000000000000000000000815260040161132e90612052565b60405180910390fd5b6000808673ffffffffffffffffffffffffffffffffffffffff16858760405161136091906120b9565b60006040518083038185875af1925050503d806000811461139d576040519150601f19603f3d011682016040523d82523d6000602084013e6113a2565b606091505b50915091506113b28282866113d1565b92505050949350505050565b600080823b905060008111915050919050565b606083156113e157829050611431565b6000835111156113f45782518084602001fd5b816040517f08c379a00000000000000000000000000000000000000000000000000000000081526004016114289190611d3b565b60405180910390fd5b9392505050565b600080fd5b60007fffffffff0000000000000000000000000000000000000000000000000000000082169050919050565b6114728161143d565b811461147d57600080fd5b50565b60008135905061148f81611469565b92915050565b6000602082840312156114ab576114aa611438565b5b60006114b984828501611480565b91505092915050565b60008115159050919050565b6114d7816114c2565b82525050565b60006020820190506114f260008301846114ce565b92915050565b600073ffffffffffffffffffffffffffffffffffffffff82169050919050565b6000611523826114f8565b9050919050565b61153381611518565b811461153e57600080fd5b50565b6000813590506115508161152a565b92915050565b6000819050919050565b61156981611556565b811461157457600080fd5b50565b60008135905061158681611560565b92915050565b6000806000606084860312156115a5576115a4611438565b5b60006115b386828701611541565b93505060206115c486828701611577565b92505060406115d586828701611577565b9150509250925092565b6000819050919050565b6115f2816115df565b81146115fd57600080fd5b50565b60008135905061160f816115e9565b92915050565b60006020828403121561162b5761162a611438565b5b600061163984828501611600565b91505092915050565b61164b816115df565b82525050565b60006020820190506116666000830184611642565b92915050565b6000806040838503121561168357611682611438565b5b600061169185828601611600565b92505060206116a285828601611541565b9150509250929050565b6000806000606084860312156116c5576116c4611438565b5b60006116d386828701611541565b93505060206116e486828701611541565b92505060406116f586828701611577565b9150509250925092565b6000806040838503121561171657611715611438565b5b600061172485828601611541565b925050602061173585828601611541565b9150509250929050565b6000806000806080858703121561175957611758611438565b5b600061176787828801611541565b945050602061177887828801611541565b935050604061178987828801611577565b925050606061179a87828801611577565b91505092959194509250565b6000602082840312156117bc576117bb611438565b5b60006117ca84828501611541565b91505092915050565b6117dc81611556565b82525050565b60006020820190506117f760008301846117d3565b92915050565b61180681611518565b82525050565b600060408201905061182160008301856117fd565b61182e60208301846117fd565b9392505050565b61183e816114c2565b811461184957600080fd5b50565b60008151905061185b81611835565b92915050565b60006020828403121561187757611876611438565b5b60006118858482850161184c565b91505092915050565b60006080820190506118a360008301876117fd565b6118b060208301866117fd565b6118bd60408301856117d3565b6118ca60608301846117d3565b95945050505050565b60006040820190506118e860008301856117fd565b6118f560208301846117d3565b9392505050565b600082825260208201905092915050565b7f416363657373436f6e74726f6c3a2063616e206f6e6c792072656e6f756e636560008201527f20726f6c657320666f722073656c660000000000000000000000000000000000602082015250565b6000611969602f836118fc565b91506119748261190d565b604082019050919050565b600060208201905081810360008301526119988161195c565b9050919050565b60006020820190506119b460008301846117fd565b92915050565b6000815190506119c981611560565b92915050565b6000602082840312156119e5576119e4611438565b5b60006119f3848285016119ba565b91505092915050565b7f54686520616d6f756e742065786365656420746865207472656173757279206260008201527f616c616e63652e00000000000000000000000000000000000000000000000000602082015250565b6000611a586027836118fc565b9150611a63826119fc565b604082019050919050565b60006020820190508181036000830152611a8781611a4b565b9050919050565b7f4e487b7100000000000000000000000000000000000000000000000000000000600052601160045260246000fd5b6000611ac882611556565b9150611ad383611556565b9250827fffffffffffffffffffffffffffffffffffffffffffffffffffffffffffffffff03821115611b0857611b07611a8e565b5b828201905092915050565b7f546865207573657220706f736974696f6e20697320616c72656164792065786960008201527f7374730000000000000000000000000000000000000000000000000000000000602082015250565b6000611b6f6023836118fc565b9150611b7a82611b13565b604082019050919050565b60006020820190508181036000830152611b9e81611b62565b9050919050565b600081905092915050565b7f416363657373436f6e74726f6c3a206163636f756e7420000000000000000000600082015250565b6000611be6601783611ba5565b9150611bf182611bb0565b601782019050919050565b600081519050919050565b60005b83811015611c25578082015181840152602081019050611c0a565b83811115611c34576000848401525b50505050565b6000611c4582611bfc565b611c4f8185611ba5565b9350611c5f818560208601611c07565b80840191505092915050565b7f206973206d697373696e6720726f6c6520000000000000000000000000000000600082015250565b6000611ca1601183611ba5565b9150611cac82611c6b565b601182019050919050565b6000611cc282611bd9565b9150611cce8285611c3a565b9150611cd982611c94565b9150611ce58284611c3a565b91508190509392505050565b6000601f19601f8301169050919050565b6000611d0d82611bfc565b611d1781856118fc565b9350611d27818560208601611c07565b611d3081611cf1565b840191505092915050565b60006020820190508181036000830152611d558184611d02565b905092915050565b6000606082019050611d7260008301866117fd565b611d7f60208301856117fd565b611d8c60408301846117d3565b949350505050565b6000611d9f82611556565b9150611daa83611556565b9250817fffffffffffffffffffffffffffffffffffffffffffffffffffffffffffffffff0483118215151615611de357611de2611a8e565b5b828202905092915050565b7f4e487b7100000000000000000000000000000000000000000000000000000000600052604160045260246000fd5b7f4e487b7100000000000000000000000000000000000000000000000000000000600052603260045260246000fd5b6000611e5782611556565b91506000821415611e6b57611e6a611a8e565b5b600182039050919050565b7f537472696e67733a20686578206c656e67746820696e73756666696369656e74600082015250565b6000611eac6020836118fc565b9150611eb782611e76565b602082019050919050565b60006020820190508181036000830152611edb81611e9f565b9050919050565b7f5361666545524332303a204552433230206f7065726174696f6e20646964206e60008201527f6f74207375636365656400000000000000000000000000000000000000000000602082015250565b6000611f3e602a836118fc565b9150611f4982611ee2565b604082019050919050565b60006020820190508181036000830152611f6d81611f31565b9050919050565b7f416464726573733a20696e73756666696369656e742062616c616e636520666f60008201527f722063616c6c0000000000000000000000000000000000000000000000000000602082015250565b6000611fd06026836118fc565b9150611fdb82611f74565b604082019050919050565b60006020820190508181036000830152611fff81611fc3565b9050919050565b7f416464726573733a2063616c6c20746f206e6f6e2d636f6e7472616374000000600082015250565b600061203c601d836118fc565b915061204782612006565b602082019050919050565b6000602082019050818103600083015261206b8161202f565b9050919050565b600081519050919050565b600081905092915050565b600061209382612072565b61209d818561207d565b93506120ad818560208601611c07565b80840191505092915050565b60006120c58284612088565b91508190509291505056fea26469706673582212204b433e14c15f4869cf32ebdc5fe514dc331b57ac555ffbbcbd01c657f7634ca564736f6c634300080b0033",
  "linkReferences": {},
  "deployedLinkReferences": {}
}