{
  "_format": "hh-sol-artifact-1",
  "contractName": "TreasuryStorage",
  "sourceName": "contracts/treasury/TreasuryStorage.sol",
  "abi": [
    {
      "inputs": [
        {
          "internalType": "address",
          "name": "_treasuryShares",
          "type": "address"
        }
      ],
      "stateMutability": "nonpayable",
      "type": "constructor"
    },
    {
      "anonymous": false,
      "inputs": [
        {
          "indexed": true,
          "internalType": "bytes32",
          "name": "role",
          "type": "bytes32"
        },
        {
          "indexed": true,
          "internalType": "bytes32",
          "name": "previousAdminRole",
          "type": "bytes32"
        },
        {
          "indexed": true,
          "internalType": "bytes32",
          "name": "newAdminRole",
          "type": "bytes32"
        }
      ],
      "name": "RoleAdminChanged",
      "type": "event"
    },
    {
      "anonymous": false,
      "inputs": [
        {
          "indexed": true,
          "internalType": "bytes32",
          "name": "role",
          "type": "bytes32"
        },
        {
          "indexed": true,
          "internalType": "address",
          "name": "account",
          "type": "address"
        },
        {
          "indexed": true,
          "internalType": "address",
          "name": "sender",
          "type": "address"
        }
      ],
      "name": "RoleGranted",
      "type": "event"
    },
    {
      "anonymous": false,
      "inputs": [
        {
          "indexed": true,
          "internalType": "bytes32",
          "name": "role",
          "type": "bytes32"
        },
        {
          "indexed": true,
          "internalType": "address",
          "name": "account",
          "type": "address"
        },
        {
          "indexed": true,
          "internalType": "address",
          "name": "sender",
          "type": "address"
        }
      ],
      "name": "RoleRevoked",
      "type": "event"
    },
    {
      "inputs": [],
      "name": "DEFAULT_ADMIN_ROLE",
      "outputs": [
        {
          "internalType": "bytes32",
          "name": "",
          "type": "bytes32"
        }
      ],
      "stateMutability": "view",
      "type": "function"
    },
    {
      "inputs": [],
      "name": "REVENUE_CONTROLLER",
      "outputs": [
        {
          "internalType": "bytes32",
          "name": "",
          "type": "bytes32"
        }
      ],
      "stateMutability": "view",
      "type": "function"
    },
    {
      "inputs": [],
      "name": "TREASURY_FUND",
      "outputs": [
        {
          "internalType": "bytes32",
          "name": "",
          "type": "bytes32"
        }
      ],
      "stateMutability": "view",
      "type": "function"
    },
    {
      "inputs": [
        {
          "internalType": "address",
          "name": "_token",
          "type": "address"
        },
        {
          "internalType": "address",
          "name": "_user",
          "type": "address"
        },
        {
          "internalType": "uint256",
          "name": "_totalAmount",
          "type": "uint256"
        }
      ],
      "name": "addUserPosition",
      "outputs": [],
      "stateMutability": "nonpayable",
      "type": "function"
    },
    {
      "inputs": [
        {
          "internalType": "address",
          "name": "_token",
          "type": "address"
        }
      ],
      "name": "checkIfPoolExists",
      "outputs": [
        {
          "internalType": "bool",
          "name": "",
          "type": "bool"
        }
      ],
      "stateMutability": "view",
      "type": "function"
    },
    {
      "inputs": [
        {
          "internalType": "address",
          "name": "_user",
          "type": "address"
        },
        {
          "internalType": "address",
          "name": "_token",
          "type": "address"
        }
      ],
      "name": "checkIfUserPositionExists",
      "outputs": [
        {
          "internalType": "bool",
          "name": "",
          "type": "bool"
        }
      ],
      "stateMutability": "view",
      "type": "function"
    },
    {
      "inputs": [
        {
          "internalType": "address",
          "name": "_user",
          "type": "address"
        },
        {
          "internalType": "address",
          "name": "_token",
          "type": "address"
        },
        {
          "internalType": "uint256",
          "name": "_amount",
          "type": "uint256"
        }
      ],
      "name": "deposit",
      "outputs": [],
      "stateMutability": "nonpayable",
      "type": "function"
    },
    {
      "inputs": [
        {
          "internalType": "bytes32",
          "name": "role",
          "type": "bytes32"
        }
      ],
      "name": "getRoleAdmin",
      "outputs": [
        {
          "internalType": "bytes32",
          "name": "",
          "type": "bytes32"
        }
      ],
      "stateMutability": "view",
      "type": "function"
    },
    {
      "inputs": [
        {
          "internalType": "address",
          "name": "_token",
          "type": "address"
        },
        {
          "internalType": "address",
          "name": "_user",
          "type": "address"
        }
      ],
      "name": "getUnlockedAmount",
      "outputs": [
        {
          "internalType": "uint256",
          "name": "unlockedAmount",
          "type": "uint256"
        }
      ],
      "stateMutability": "view",
      "type": "function"
    },
    {
      "inputs": [
        {
          "internalType": "bytes32",
          "name": "role",
          "type": "bytes32"
        },
        {
          "internalType": "address",
          "name": "account",
          "type": "address"
        }
      ],
      "name": "grantRole",
      "outputs": [],
      "stateMutability": "nonpayable",
      "type": "function"
    },
    {
      "inputs": [
        {
          "internalType": "bytes32",
          "name": "role",
          "type": "bytes32"
        },
        {
          "internalType": "address",
          "name": "account",
          "type": "address"
        }
      ],
      "name": "hasRole",
      "outputs": [
        {
          "internalType": "bool",
          "name": "",
          "type": "bool"
        }
      ],
      "stateMutability": "view",
      "type": "function"
    },
    {
      "inputs": [
        {
          "internalType": "address",
          "name": "_token",
          "type": "address"
        },
        {
          "internalType": "address",
          "name": "_user",
          "type": "address"
        },
        {
          "internalType": "uint256",
          "name": "_amount",
          "type": "uint256"
        }
      ],
      "name": "loan",
      "outputs": [],
      "stateMutability": "nonpayable",
      "type": "function"
    },
    {
      "inputs": [
        {
          "internalType": "address",
          "name": "_destination",
          "type": "address"
        },
        {
          "internalType": "uint256",
          "name": "_amount",
          "type": "uint256"
        }
      ],
      "name": "mintTreasuryShares",
      "outputs": [],
      "stateMutability": "nonpayable",
      "type": "function"
    },
    {
      "inputs": [
        {
          "internalType": "bytes32",
          "name": "role",
          "type": "bytes32"
        },
        {
          "internalType": "address",
          "name": "account",
          "type": "address"
        }
      ],
      "name": "renounceRole",
      "outputs": [],
      "stateMutability": "nonpayable",
      "type": "function"
    },
    {
      "inputs": [
        {
          "internalType": "bytes32",
          "name": "role",
          "type": "bytes32"
        },
        {
          "internalType": "address",
          "name": "account",
          "type": "address"
        }
      ],
      "name": "revokeRole",
      "outputs": [],
      "stateMutability": "nonpayable",
      "type": "function"
    },
    {
      "inputs": [
        {
          "internalType": "address",
          "name": "_token",
          "type": "address"
        },
        {
          "internalType": "address",
          "name": "_user",
          "type": "address"
        },
        {
          "internalType": "uint256",
          "name": "_amount",
          "type": "uint256"
        }
      ],
      "name": "setUserPosition",
      "outputs": [],
      "stateMutability": "nonpayable",
      "type": "function"
    },
    {
      "inputs": [
        {
          "internalType": "bytes4",
          "name": "interfaceId",
          "type": "bytes4"
        }
      ],
      "name": "supportsInterface",
      "outputs": [
        {
          "internalType": "bool",
          "name": "",
          "type": "bool"
        }
      ],
      "stateMutability": "view",
      "type": "function"
    },
    {
      "inputs": [
        {
          "internalType": "address",
          "name": "_token",
          "type": "address"
        },
        {
          "internalType": "address",
          "name": "_user",
          "type": "address"
        },
        {
          "internalType": "uint256",
          "name": "_amount",
          "type": "uint256"
        }
      ],
      "name": "withdraw",
      "outputs": [],
      "stateMutability": "nonpayable",
      "type": "function"
    }
  ],
  "bytecode": "0x60806040523480156200001157600080fd5b50604051620027c6380380620027c6833981810160405281019062000037919062000277565b80600160006101000a81548173ffffffffffffffffffffffffffffffffffffffff021916908373ffffffffffffffffffffffffffffffffffffffff1602179055506200008d6000801b336200009460201b60201c565b50620002a9565b620000a68282620000aa60201b60201c565b5050565b620000bc82826200019b60201b60201c565b6200019757600160008084815260200190815260200160002060000160008373ffffffffffffffffffffffffffffffffffffffff1673ffffffffffffffffffffffffffffffffffffffff16815260200190815260200160002060006101000a81548160ff0219169083151502179055506200013c6200020560201b60201c565b73ffffffffffffffffffffffffffffffffffffffff168173ffffffffffffffffffffffffffffffffffffffff16837f2f8788117e7eff1d82e926ec794901d17c78024a50270940304540a733656f0d60405160405180910390a45b5050565b600080600084815260200190815260200160002060000160008373ffffffffffffffffffffffffffffffffffffffff1673ffffffffffffffffffffffffffffffffffffffff16815260200190815260200160002060009054906101000a900460ff16905092915050565b600033905090565b600080fd5b600073ffffffffffffffffffffffffffffffffffffffff82169050919050565b60006200023f8262000212565b9050919050565b620002518162000232565b81146200025d57600080fd5b50565b600081519050620002718162000246565b92915050565b60006020828403121562000290576200028f6200020d565b5b6000620002a08482850162000260565b91505092915050565b61250d80620002b96000396000f3fe608060405234801561001057600080fd5b50600436106101165760003560e01c80638340f549116100a2578063b6f867a811610071578063b6f867a8146102ed578063c346771b1461031d578063d547741f1461033b578063d9caed1214610357578063f897e3761461037357610116565b80638340f5491461025357806391d148541461026f578063999126d71461029f578063a217fddf146102cf57610116565b8063259242d3116100e9578063259242d3146101c75780632f2ff15d146101e357806336568abe146101ff5780633aac84591461021b57806361c811201461023757610116565b80630122a7e81461011b57806301ce30701461014b57806301ffc9a714610167578063248a9ca314610197575b600080fd5b6101356004803603810190610130919061189b565b610391565b60405161014291906118f4565b60405180910390f35b6101656004803603810190610160919061193b565b610463565b005b610181600480360381019061017c91906119d3565b610529565b60405161018e9190611a1b565b60405180910390f35b6101b160048036038101906101ac9190611a6c565b6105a3565b6040516101be9190611aa8565b60405180910390f35b6101e160048036038101906101dc9190611ac3565b6105c2565b005b6101fd60048036038101906101f89190611b16565b61075f565b005b61021960048036038101906102149190611b16565b610788565b005b61023560048036038101906102309190611ac3565b61080b565b005b610251600480360381019061024c9190611ac3565b6108df565b005b61026d60048036038101906102689190611ac3565b610b1a565b005b61028960048036038101906102849190611b16565b610d2f565b6040516102969190611a1b565b60405180910390f35b6102b960048036038101906102b49190611b56565b610d99565b6040516102c69190611a1b565b60405180910390f35b6102d7610de7565b6040516102e49190611aa8565b60405180910390f35b6103076004803603810190610302919061189b565b610dee565b6040516103149190611a1b565b60405180910390f35b610325610e7a565b6040516103329190611aa8565b60405180910390f35b61035560048036038101906103509190611b16565b610e9e565b005b610371600480360381019061036c9190611ac3565b610ec7565b005b61037b611012565b6040516103889190611aa8565b60405180910390f35b60007f8e34397ebfb2b30de879ba566695932178f46861e3b05dcf2f402a62b072e4ac6103c5816103c0611036565b61103e565b6000600260008573ffffffffffffffffffffffffffffffffffffffff1673ffffffffffffffffffffffffffffffffffffffff16815260200190815260200160002060008673ffffffffffffffffffffffffffffffffffffffff1673ffffffffffffffffffffffffffffffffffffffff1681526020019081526020016000209050806001015481600001546104599190611bb2565b9250505092915050565b7f8e34397ebfb2b30de879ba566695932178f46861e3b05dcf2f402a62b072e4ac61049581610490611036565b61103e565b600160009054906101000a900473ffffffffffffffffffffffffffffffffffffffff1673ffffffffffffffffffffffffffffffffffffffff166340c10f1984846040518363ffffffff1660e01b81526004016104f2929190611bf5565b600060405180830381600087803b15801561050c57600080fd5b505af1158015610520573d6000803e3d6000fd5b50505050505050565b60007f7965db0b000000000000000000000000000000000000000000000000000000007bffffffffffffffffffffffffffffffffffffffffffffffffffffffff1916827bffffffffffffffffffffffffffffffffffffffffffffffffffffffff1916148061059c575061059b826110db565b5b9050919050565b6000806000838152602001908152602001600020600101549050919050565b7f8e34397ebfb2b30de879ba566695932178f46861e3b05dcf2f402a62b072e4ac6105f4816105ef611036565b61103e565b3073ffffffffffffffffffffffffffffffffffffffff1663b6f867a884866040518363ffffffff1660e01b815260040161062f929190611c1e565b602060405180830381865afa15801561064c573d6000803e3d6000fd5b505050506040513d601f19601f820116820180604052508101906106709190611c73565b156106b0576040517f08c379a00000000000000000000000000000000000000000000000000000000081526004016106a790611d23565b60405180910390fd5b60405180604001604052808381526020016000815250600260008573ffffffffffffffffffffffffffffffffffffffff1673ffffffffffffffffffffffffffffffffffffffff16815260200190815260200160002060008673ffffffffffffffffffffffffffffffffffffffff1673ffffffffffffffffffffffffffffffffffffffff168152602001908152602001600020600082015181600001556020820151816001015590505050505050565b610768826105a3565b61077981610774611036565b61103e565b6107838383611145565b505050565b610790611036565b73ffffffffffffffffffffffffffffffffffffffff168173ffffffffffffffffffffffffffffffffffffffff16146107fd576040517f08c379a00000000000000000000000000000000000000000000000000000000081526004016107f490611db5565b60405180910390fd5b6108078282611225565b5050565b7f8e34397ebfb2b30de879ba566695932178f46861e3b05dcf2f402a62b072e4ac61083d81610838611036565b61103e565b6000600260008573ffffffffffffffffffffffffffffffffffffffff1673ffffffffffffffffffffffffffffffffffffffff16815260200190815260200160002060008673ffffffffffffffffffffffffffffffffffffffff1673ffffffffffffffffffffffffffffffffffffffff1681526020019081526020016000209050828160000160008282546108d19190611dd5565b925050819055505050505050565b7f8e34397ebfb2b30de879ba566695932178f46861e3b05dcf2f402a62b072e4ac6109118161090c611036565b61103e565b818473ffffffffffffffffffffffffffffffffffffffff166370a08231306040518263ffffffff1660e01b815260040161094b9190611e2b565b602060405180830381865afa158015610968573d6000803e3d6000fd5b505050506040513d601f19601f8201168201806040525081019061098c9190611e5b565b116109cc576040517f08c379a00000000000000000000000000000000000000000000000000000000081526004016109c390611efa565b60405180910390fd5b6000600260008573ffffffffffffffffffffffffffffffffffffffff1673ffffffffffffffffffffffffffffffffffffffff16815260200190815260200160002060008673ffffffffffffffffffffffffffffffffffffffff1673ffffffffffffffffffffffffffffffffffffffff168152602001908152602001600020905082816001016000828254610a609190611dd5565b925050819055508473ffffffffffffffffffffffffffffffffffffffff1663095ea7b330856040518363ffffffff1660e01b8152600401610aa2929190611bf5565b6020604051808303816000875af1158015610ac1573d6000803e3d6000fd5b505050506040513d601f19601f82011682018060405250810190610ae59190611c73565b50610b133085858873ffffffffffffffffffffffffffffffffffffffff16611306909392919063ffffffff16565b5050505050565b3073ffffffffffffffffffffffffffffffffffffffff1663b6f867a833846040518363ffffffff1660e01b8152600401610b55929190611c1e565b602060405180830381865afa158015610b72573d6000803e3d6000fd5b505050506040513d601f19601f82011682018060405250810190610b969190611c73565b610c0e573073ffffffffffffffffffffffffffffffffffffffff1663259242d38333846040518463ffffffff1660e01b8152600401610bd793929190611f1a565b600060405180830381600087803b158015610bf157600080fd5b505af1158015610c05573d6000803e3d6000fd5b50505050610c7e565b3073ffffffffffffffffffffffffffffffffffffffff16633aac84598333846040518463ffffffff1660e01b8152600401610c4b93929190611f1a565b600060405180830381600087803b158015610c6557600080fd5b505af1158015610c79573d6000803e3d6000fd5b505050505b8173ffffffffffffffffffffffffffffffffffffffff1663095ea7b384836040518363ffffffff1660e01b8152600401610cb9929190611bf5565b6020604051808303816000875af1158015610cd8573d6000803e3d6000fd5b505050506040513d601f19601f82011682018060405250810190610cfc9190611c73565b50610d2a8330838573ffffffffffffffffffffffffffffffffffffffff16611306909392919063ffffffff16565b505050565b600080600084815260200190815260200160002060000160008373ffffffffffffffffffffffffffffffffffffffff1673ffffffffffffffffffffffffffffffffffffffff16815260200190815260200160002060009054906101000a900460ff16905092915050565b600080600360008473ffffffffffffffffffffffffffffffffffffffff1673ffffffffffffffffffffffffffffffffffffffff16815260200190815260200160002060000154119050919050565b6000801b81565b600080600260008573ffffffffffffffffffffffffffffffffffffffff1673ffffffffffffffffffffffffffffffffffffffff16815260200190815260200160002060008473ffffffffffffffffffffffffffffffffffffffff1673ffffffffffffffffffffffffffffffffffffffff1681526020019081526020016000206000015411905092915050565b7f8e34397ebfb2b30de879ba566695932178f46861e3b05dcf2f402a62b072e4ac81565b610ea7826105a3565b610eb881610eb3611036565b61103e565b610ec28383611225565b505050565b80610ed28484610391565b11610f12576040517f08c379a0000000000000000000000000000000000000000000000000000000008152600401610f0990611fc3565b60405180910390fd5b3073ffffffffffffffffffffffffffffffffffffffff16633aac84598484846040518463ffffffff1660e01b8152600401610f4f93929190611f1a565b600060405180830381600087803b158015610f6957600080fd5b505af1158015610f7d573d6000803e3d6000fd5b505050506000600360008573ffffffffffffffffffffffffffffffffffffffff1673ffffffffffffffffffffffffffffffffffffffff168152602001908152602001600020905081816000016000828254610fd89190611bb2565b9250508190555061100c3084848773ffffffffffffffffffffffffffffffffffffffff16611306909392919063ffffffff16565b50505050565b7ffa146205d79c04d22c6b2309d75a6844cd1b28ad727f2383e3ee22681f00139981565b600033905090565b6110488282610d2f565b6110d75761106d8173ffffffffffffffffffffffffffffffffffffffff16601461138f565b61107b8360001c602061138f565b60405160200161108c9291906120f5565b6040516020818303038152906040526040517f08c379a00000000000000000000000000000000000000000000000000000000081526004016110ce9190612179565b60405180910390fd5b5050565b60007f01ffc9a7000000000000000000000000000000000000000000000000000000007bffffffffffffffffffffffffffffffffffffffffffffffffffffffff1916827bffffffffffffffffffffffffffffffffffffffffffffffffffffffff1916149050919050565b61114f8282610d2f565b61122157600160008084815260200190815260200160002060000160008373ffffffffffffffffffffffffffffffffffffffff1673ffffffffffffffffffffffffffffffffffffffff16815260200190815260200160002060006101000a81548160ff0219169083151502179055506111c6611036565b73ffffffffffffffffffffffffffffffffffffffff168173ffffffffffffffffffffffffffffffffffffffff16837f2f8788117e7eff1d82e926ec794901d17c78024a50270940304540a733656f0d60405160405180910390a45b5050565b61122f8282610d2f565b1561130257600080600084815260200190815260200160002060000160008373ffffffffffffffffffffffffffffffffffffffff1673ffffffffffffffffffffffffffffffffffffffff16815260200190815260200160002060006101000a81548160ff0219169083151502179055506112a7611036565b73ffffffffffffffffffffffffffffffffffffffff168173ffffffffffffffffffffffffffffffffffffffff16837ff6391f5c32d9c69d2a47ea670b442974b53935d1edc7fd64eb21e047a839171b60405160405180910390a45b5050565b611389846323b872dd60e01b85858560405160240161132793929190611f1a565b604051602081830303815290604052907bffffffffffffffffffffffffffffffffffffffffffffffffffffffff19166020820180517bffffffffffffffffffffffffffffffffffffffffffffffffffffffff83818316178352505050506115cb565b50505050565b6060600060028360026113a2919061219b565b6113ac9190611dd5565b67ffffffffffffffff8111156113c5576113c46121f5565b5b6040519080825280601f01601f1916602001820160405280156113f75781602001600182028036833780820191505090505b5090507f30000000000000000000000000000000000000000000000000000000000000008160008151811061142f5761142e612224565b5b60200101907effffffffffffffffffffffffffffffffffffffffffffffffffffffffffffff1916908160001a9053507f78000000000000000000000000000000000000000000000000000000000000008160018151811061149357611492612224565b5b60200101907effffffffffffffffffffffffffffffffffffffffffffffffffffffffffffff1916908160001a905350600060018460026114d3919061219b565b6114dd9190611dd5565b90505b600181111561157d577f3031323334353637383961626364656600000000000000000000000000000000600f86166010811061151f5761151e612224565b5b1a60f81b82828151811061153657611535612224565b5b60200101907effffffffffffffffffffffffffffffffffffffffffffffffffffffffffffff1916908160001a905350600485901c94508061157690612253565b90506114e0565b50600084146115c1576040517f08c379a00000000000000000000000000000000000000000000000000000000081526004016115b8906122c9565b60405180910390fd5b8091505092915050565b600061162d826040518060400160405280602081526020017f5361666545524332303a206c6f772d6c6576656c2063616c6c206661696c65648152508573ffffffffffffffffffffffffffffffffffffffff166116929092919063ffffffff16565b905060008151111561168d578080602001905181019061164d9190611c73565b61168c576040517f08c379a00000000000000000000000000000000000000000000000000000000081526004016116839061235b565b60405180910390fd5b5b505050565b60606116a184846000856116aa565b90509392505050565b6060824710156116ef576040517f08c379a00000000000000000000000000000000000000000000000000000000081526004016116e6906123ed565b60405180910390fd5b6116f8856117be565b611737576040517f08c379a000000000000000000000000000000000000000000000000000000000815260040161172e90612459565b60405180910390fd5b6000808673ffffffffffffffffffffffffffffffffffffffff16858760405161176091906124c0565b60006040518083038185875af1925050503d806000811461179d576040519150601f19603f3d011682016040523d82523d6000602084013e6117a2565b606091505b50915091506117b28282866117d1565b92505050949350505050565b600080823b905060008111915050919050565b606083156117e157829050611831565b6000835111156117f45782518084602001fd5b816040517f08c379a00000000000000000000000000000000000000000000000000000000081526004016118289190612179565b60405180910390fd5b9392505050565b600080fd5b600073ffffffffffffffffffffffffffffffffffffffff82169050919050565b60006118688261183d565b9050919050565b6118788161185d565b811461188357600080fd5b50565b6000813590506118958161186f565b92915050565b600080604083850312156118b2576118b1611838565b5b60006118c085828601611886565b92505060206118d185828601611886565b9150509250929050565b6000819050919050565b6118ee816118db565b82525050565b600060208201905061190960008301846118e5565b92915050565b611918816118db565b811461192357600080fd5b50565b6000813590506119358161190f565b92915050565b6000806040838503121561195257611951611838565b5b600061196085828601611886565b925050602061197185828601611926565b9150509250929050565b60007fffffffff0000000000000000000000000000000000000000000000000000000082169050919050565b6119b08161197b565b81146119bb57600080fd5b50565b6000813590506119cd816119a7565b92915050565b6000602082840312156119e9576119e8611838565b5b60006119f7848285016119be565b91505092915050565b60008115159050919050565b611a1581611a00565b82525050565b6000602082019050611a306000830184611a0c565b92915050565b6000819050919050565b611a4981611a36565b8114611a5457600080fd5b50565b600081359050611a6681611a40565b92915050565b600060208284031215611a8257611a81611838565b5b6000611a9084828501611a57565b91505092915050565b611aa281611a36565b82525050565b6000602082019050611abd6000830184611a99565b92915050565b600080600060608486031215611adc57611adb611838565b5b6000611aea86828701611886565b9350506020611afb86828701611886565b9250506040611b0c86828701611926565b9150509250925092565b60008060408385031215611b2d57611b2c611838565b5b6000611b3b85828601611a57565b9250506020611b4c85828601611886565b9150509250929050565b600060208284031215611b6c57611b6b611838565b5b6000611b7a84828501611886565b91505092915050565b7f4e487b7100000000000000000000000000000000000000000000000000000000600052601160045260246000fd5b6000611bbd826118db565b9150611bc8836118db565b925082821015611bdb57611bda611b83565b5b828203905092915050565b611bef8161185d565b82525050565b6000604082019050611c0a6000830185611be6565b611c1760208301846118e5565b9392505050565b6000604082019050611c336000830185611be6565b611c406020830184611be6565b9392505050565b611c5081611a00565b8114611c5b57600080fd5b50565b600081519050611c6d81611c47565b92915050565b600060208284031215611c8957611c88611838565b5b6000611c9784828501611c5e565b91505092915050565b600082825260208201905092915050565b7f546865207573657220706f736974696f6e20697320616c72656164792065786960008201527f7374730000000000000000000000000000000000000000000000000000000000602082015250565b6000611d0d602383611ca0565b9150611d1882611cb1565b604082019050919050565b60006020820190508181036000830152611d3c81611d00565b9050919050565b7f416363657373436f6e74726f6c3a2063616e206f6e6c792072656e6f756e636560008201527f20726f6c657320666f722073656c660000000000000000000000000000000000602082015250565b6000611d9f602f83611ca0565b9150611daa82611d43565b604082019050919050565b60006020820190508181036000830152611dce81611d92565b9050919050565b6000611de0826118db565b9150611deb836118db565b9250827fffffffffffffffffffffffffffffffffffffffffffffffffffffffffffffffff03821115611e2057611e1f611b83565b5b828201905092915050565b6000602082019050611e406000830184611be6565b92915050565b600081519050611e558161190f565b92915050565b600060208284031215611e7157611e70611838565b5b6000611e7f84828501611e46565b91505092915050565b7f54686520616d6f756e742065786365656420746865207472656173757279206260008201527f616c616e63652e00000000000000000000000000000000000000000000000000602082015250565b6000611ee4602783611ca0565b9150611eef82611e88565b604082019050919050565b60006020820190508181036000830152611f1381611ed7565b9050919050565b6000606082019050611f2f6000830186611be6565b611f3c6020830185611be6565b611f4960408301846118e5565b949350505050565b7f57697468647261776e20616d6f756e742065786365656420746865207573657260008201527f2062616c616e6365000000000000000000000000000000000000000000000000602082015250565b6000611fad602883611ca0565b9150611fb882611f51565b604082019050919050565b60006020820190508181036000830152611fdc81611fa0565b9050919050565b600081905092915050565b7f416363657373436f6e74726f6c3a206163636f756e7420000000000000000000600082015250565b6000612024601783611fe3565b915061202f82611fee565b601782019050919050565b600081519050919050565b60005b83811015612063578082015181840152602081019050612048565b83811115612072576000848401525b50505050565b60006120838261203a565b61208d8185611fe3565b935061209d818560208601612045565b80840191505092915050565b7f206973206d697373696e6720726f6c6520000000000000000000000000000000600082015250565b60006120df601183611fe3565b91506120ea826120a9565b601182019050919050565b600061210082612017565b915061210c8285612078565b9150612117826120d2565b91506121238284612078565b91508190509392505050565b6000601f19601f8301169050919050565b600061214b8261203a565b6121558185611ca0565b9350612165818560208601612045565b61216e8161212f565b840191505092915050565b600060208201905081810360008301526121938184612140565b905092915050565b60006121a6826118db565b91506121b1836118db565b9250817fffffffffffffffffffffffffffffffffffffffffffffffffffffffffffffffff04831182151516156121ea576121e9611b83565b5b828202905092915050565b7f4e487b7100000000000000000000000000000000000000000000000000000000600052604160045260246000fd5b7f4e487b7100000000000000000000000000000000000000000000000000000000600052603260045260246000fd5b600061225e826118db565b9150600082141561227257612271611b83565b5b600182039050919050565b7f537472696e67733a20686578206c656e67746820696e73756666696369656e74600082015250565b60006122b3602083611ca0565b91506122be8261227d565b602082019050919050565b600060208201905081810360008301526122e2816122a6565b9050919050565b7f5361666545524332303a204552433230206f7065726174696f6e20646964206e60008201527f6f74207375636365656400000000000000000000000000000000000000000000602082015250565b6000612345602a83611ca0565b9150612350826122e9565b604082019050919050565b6000602082019050818103600083015261237481612338565b9050919050565b7f416464726573733a20696e73756666696369656e742062616c616e636520666f60008201527f722063616c6c0000000000000000000000000000000000000000000000000000602082015250565b60006123d7602683611ca0565b91506123e28261237b565b604082019050919050565b60006020820190508181036000830152612406816123ca565b9050919050565b7f416464726573733a2063616c6c20746f206e6f6e2d636f6e7472616374000000600082015250565b6000612443601d83611ca0565b915061244e8261240d565b602082019050919050565b6000602082019050818103600083015261247281612436565b9050919050565b600081519050919050565b600081905092915050565b600061249a82612479565b6124a48185612484565b93506124b4818560208601612045565b80840191505092915050565b60006124cc828461248f565b91508190509291505056fea26469706673582212200672954dbd35777e601dba8fa9000cb359ab5b95c489a4227a51503b21457c5664736f6c634300080b0033",
  "linkReferences": {},
  "deployedLinkReferences": {}
}