{
  "_format": "hh-sol-artifact-1",
  "contractName": "TreasuryStorage",
  "sourceName": "contracts/treasury/TreasuryStorage.sol",
  "abi": [
    {
      "inputs": [
        {
          "internalType": "address",
          "name": "_treasuryShares",
          "type": "address"
        }
      ],
      "stateMutability": "nonpayable",
      "type": "constructor"
    },
    {
      "anonymous": false,
      "inputs": [
        {
          "indexed": true,
          "internalType": "bytes32",
          "name": "role",
          "type": "bytes32"
        },
        {
          "indexed": true,
          "internalType": "bytes32",
          "name": "previousAdminRole",
          "type": "bytes32"
        },
        {
          "indexed": true,
          "internalType": "bytes32",
          "name": "newAdminRole",
          "type": "bytes32"
        }
      ],
      "name": "RoleAdminChanged",
      "type": "event"
    },
    {
      "anonymous": false,
      "inputs": [
        {
          "indexed": true,
          "internalType": "bytes32",
          "name": "role",
          "type": "bytes32"
        },
        {
          "indexed": true,
          "internalType": "address",
          "name": "account",
          "type": "address"
        },
        {
          "indexed": true,
          "internalType": "address",
          "name": "sender",
          "type": "address"
        }
      ],
      "name": "RoleGranted",
      "type": "event"
    },
    {
      "anonymous": false,
      "inputs": [
        {
          "indexed": true,
          "internalType": "bytes32",
          "name": "role",
          "type": "bytes32"
        },
        {
          "indexed": true,
          "internalType": "address",
          "name": "account",
          "type": "address"
        },
        {
          "indexed": true,
          "internalType": "address",
          "name": "sender",
          "type": "address"
        }
      ],
      "name": "RoleRevoked",
      "type": "event"
    },
    {
      "inputs": [],
      "name": "DEFAULT_ADMIN_ROLE",
      "outputs": [
        {
          "internalType": "bytes32",
          "name": "",
          "type": "bytes32"
        }
      ],
      "stateMutability": "view",
      "type": "function"
    },
    {
      "inputs": [],
      "name": "REVENUE_CONTROLLER",
      "outputs": [
        {
          "internalType": "bytes32",
          "name": "",
          "type": "bytes32"
        }
      ],
      "stateMutability": "view",
      "type": "function"
    },
    {
      "inputs": [],
      "name": "TREASURY_FUND",
      "outputs": [
        {
          "internalType": "bytes32",
          "name": "",
          "type": "bytes32"
        }
      ],
      "stateMutability": "view",
      "type": "function"
    },
    {
      "inputs": [
        {
          "internalType": "address",
          "name": "_token",
          "type": "address"
        },
        {
          "internalType": "address",
          "name": "_user",
          "type": "address"
        },
        {
          "internalType": "uint256",
          "name": "_totalAmount",
          "type": "uint256"
        }
      ],
      "name": "addUserPosition",
      "outputs": [],
      "stateMutability": "nonpayable",
      "type": "function"
    },
    {
      "inputs": [
        {
          "internalType": "address",
          "name": "_token",
          "type": "address"
        }
      ],
      "name": "checkIfPoolExists",
      "outputs": [
        {
          "internalType": "bool",
          "name": "",
          "type": "bool"
        }
      ],
      "stateMutability": "view",
      "type": "function"
    },
    {
      "inputs": [
        {
          "internalType": "address",
          "name": "_user",
          "type": "address"
        },
        {
          "internalType": "address",
          "name": "_token",
          "type": "address"
        }
      ],
      "name": "checkIfUserPositionExists",
      "outputs": [
        {
          "internalType": "bool",
          "name": "",
          "type": "bool"
        }
      ],
      "stateMutability": "view",
      "type": "function"
    },
    {
      "inputs": [
        {
          "internalType": "address",
          "name": "_user",
          "type": "address"
        },
        {
          "internalType": "address",
          "name": "_token",
          "type": "address"
        },
        {
          "internalType": "uint256",
          "name": "_amount",
          "type": "uint256"
        }
      ],
      "name": "deposit",
      "outputs": [],
      "stateMutability": "nonpayable",
      "type": "function"
    },
    {
      "inputs": [
        {
          "internalType": "address",
          "name": "_token",
          "type": "address"
        }
      ],
      "name": "getPool",
      "outputs": [
        {
          "components": [
            {
              "internalType": "uint256",
              "name": "totalPooled",
              "type": "uint256"
            }
          ],
          "internalType": "struct TreasuryStorage.Pool",
          "name": "",
          "type": "tuple"
        }
      ],
      "stateMutability": "view",
      "type": "function"
    },
    {
      "inputs": [
        {
          "internalType": "bytes32",
          "name": "role",
          "type": "bytes32"
        }
      ],
      "name": "getRoleAdmin",
      "outputs": [
        {
          "internalType": "bytes32",
          "name": "",
          "type": "bytes32"
        }
      ],
      "stateMutability": "view",
      "type": "function"
    },
    {
      "inputs": [
        {
          "internalType": "address",
          "name": "_token",
          "type": "address"
        }
      ],
      "name": "getTokenSupply",
      "outputs": [
        {
          "internalType": "uint256",
          "name": "",
          "type": "uint256"
        }
      ],
      "stateMutability": "view",
      "type": "function"
    },
    {
      "inputs": [
        {
          "internalType": "address",
          "name": "_token",
          "type": "address"
        },
        {
          "internalType": "address",
          "name": "_user",
          "type": "address"
        }
      ],
      "name": "getUnlockedAmount",
      "outputs": [
        {
          "internalType": "uint256",
          "name": "unlockedAmount",
          "type": "uint256"
        }
      ],
      "stateMutability": "view",
      "type": "function"
    },
    {
      "inputs": [
        {
          "internalType": "address",
          "name": "_token",
          "type": "address"
        },
        {
          "internalType": "address",
          "name": "_user",
          "type": "address"
        }
      ],
      "name": "getUserPosition",
      "outputs": [
        {
          "components": [
            {
              "internalType": "uint256",
              "name": "totalAmount",
              "type": "uint256"
            },
            {
              "internalType": "uint256",
              "name": "loanedAmount",
              "type": "uint256"
            }
          ],
          "internalType": "struct TreasuryStorage.UserPosition",
          "name": "",
          "type": "tuple"
        }
      ],
      "stateMutability": "view",
      "type": "function"
    },
    {
      "inputs": [
        {
          "internalType": "bytes32",
          "name": "role",
          "type": "bytes32"
        },
        {
          "internalType": "address",
          "name": "account",
          "type": "address"
        }
      ],
      "name": "grantRole",
      "outputs": [],
      "stateMutability": "nonpayable",
      "type": "function"
    },
    {
      "inputs": [
        {
          "internalType": "bytes32",
          "name": "role",
          "type": "bytes32"
        },
        {
          "internalType": "address",
          "name": "account",
          "type": "address"
        }
      ],
      "name": "hasRole",
      "outputs": [
        {
          "internalType": "bool",
          "name": "",
          "type": "bool"
        }
      ],
      "stateMutability": "view",
      "type": "function"
    },
    {
      "inputs": [
        {
          "internalType": "address",
          "name": "_token",
          "type": "address"
        },
        {
          "internalType": "address",
          "name": "_user",
          "type": "address"
        },
        {
          "internalType": "uint256",
          "name": "_amount",
          "type": "uint256"
        }
      ],
      "name": "loan",
      "outputs": [],
      "stateMutability": "nonpayable",
      "type": "function"
    },
    {
      "inputs": [
        {
          "internalType": "address",
          "name": "_destination",
          "type": "address"
        },
        {
          "internalType": "uint256",
          "name": "_amount",
          "type": "uint256"
        }
      ],
      "name": "mintTreasuryShares",
      "outputs": [],
      "stateMutability": "nonpayable",
      "type": "function"
    },
    {
      "inputs": [
        {
          "internalType": "bytes32",
          "name": "role",
          "type": "bytes32"
        },
        {
          "internalType": "address",
          "name": "account",
          "type": "address"
        }
      ],
      "name": "renounceRole",
      "outputs": [],
      "stateMutability": "nonpayable",
      "type": "function"
    },
    {
      "inputs": [
        {
          "internalType": "bytes32",
          "name": "role",
          "type": "bytes32"
        },
        {
          "internalType": "address",
          "name": "account",
          "type": "address"
        }
      ],
      "name": "revokeRole",
      "outputs": [],
      "stateMutability": "nonpayable",
      "type": "function"
    },
    {
      "inputs": [
        {
          "internalType": "address",
          "name": "_token",
          "type": "address"
        },
        {
          "internalType": "address",
          "name": "_user",
          "type": "address"
        },
        {
          "internalType": "uint256",
          "name": "_amount",
          "type": "uint256"
        }
      ],
      "name": "setUserPosition",
      "outputs": [],
      "stateMutability": "nonpayable",
      "type": "function"
    },
    {
      "inputs": [
        {
          "internalType": "bytes4",
          "name": "interfaceId",
          "type": "bytes4"
        }
      ],
      "name": "supportsInterface",
      "outputs": [
        {
          "internalType": "bool",
          "name": "",
          "type": "bool"
        }
      ],
      "stateMutability": "view",
      "type": "function"
    },
    {
      "inputs": [
        {
          "internalType": "address",
          "name": "_token",
          "type": "address"
        },
        {
          "internalType": "uint256",
          "name": "_amount",
          "type": "uint256"
        }
      ],
      "name": "updatePool",
      "outputs": [
        {
          "components": [
            {
              "internalType": "uint256",
              "name": "totalPooled",
              "type": "uint256"
            }
          ],
          "internalType": "struct TreasuryStorage.Pool",
          "name": "",
          "type": "tuple"
        }
      ],
      "stateMutability": "nonpayable",
      "type": "function"
    },
    {
      "inputs": [
        {
          "internalType": "address",
          "name": "_token",
          "type": "address"
        },
        {
          "internalType": "address",
          "name": "_user",
          "type": "address"
        },
        {
          "internalType": "uint256",
          "name": "_amount",
          "type": "uint256"
        }
      ],
      "name": "withdraw",
      "outputs": [],
      "stateMutability": "nonpayable",
      "type": "function"
    }
  ],
  "bytecode": "0x60806040523480156200001157600080fd5b5060405162002b8538038062002b85833981810160405281019062000037919062000277565b80600160006101000a81548173ffffffffffffffffffffffffffffffffffffffff021916908373ffffffffffffffffffffffffffffffffffffffff1602179055506200008d6000801b336200009460201b60201c565b50620002a9565b620000a68282620000aa60201b60201c565b5050565b620000bc82826200019b60201b60201c565b6200019757600160008084815260200190815260200160002060000160008373ffffffffffffffffffffffffffffffffffffffff1673ffffffffffffffffffffffffffffffffffffffff16815260200190815260200160002060006101000a81548160ff0219169083151502179055506200013c6200020560201b60201c565b73ffffffffffffffffffffffffffffffffffffffff168173ffffffffffffffffffffffffffffffffffffffff16837f2f8788117e7eff1d82e926ec794901d17c78024a50270940304540a733656f0d60405160405180910390a45b5050565b600080600084815260200190815260200160002060000160008373ffffffffffffffffffffffffffffffffffffffff1673ffffffffffffffffffffffffffffffffffffffff16815260200190815260200160002060009054906101000a900460ff16905092915050565b600033905090565b600080fd5b600073ffffffffffffffffffffffffffffffffffffffff82169050919050565b60006200023f8262000212565b9050919050565b620002518162000232565b81146200025d57600080fd5b50565b600081519050620002718162000246565b92915050565b60006020828403121562000290576200028f6200020d565b5b6000620002a08482850162000260565b91505092915050565b6128cc80620002b96000396000f3fe608060405234801561001057600080fd5b50600436106101425760003560e01c806391d14854116100b8578063bbe4f6db1161007c578063bbe4f6db146103a9578063c346771b146103d9578063d547741f146103f7578063d9caed1214610413578063f2866c781461042f578063f897e3761461045f57610142565b806391d14854146102cb57806392a576e6146102fb578063999126d71461032b578063a217fddf1461035b578063b6f867a81461037957610142565b80632f2ff15d1161010a5780632f2ff15d1461020f57806336568abe1461022b5780633aac84591461024757806361c81120146102635780638340f5491461027f5780638ed7333d1461029b57610142565b80630122a7e81461014757806301ce30701461017757806301ffc9a714610193578063248a9ca3146101c3578063259242d3146101f3575b600080fd5b610161600480360381019061015c9190611bca565b61047d565b60405161016e9190611c23565b60405180910390f35b610191600480360381019061018c9190611c6a565b61054f565b005b6101ad60048036038101906101a89190611d02565b610615565b6040516101ba9190611d4a565b60405180910390f35b6101dd60048036038101906101d89190611d9b565b61068f565b6040516101ea9190611dd7565b60405180910390f35b61020d60048036038101906102089190611df2565b6106ae565b005b61022960048036038101906102249190611e45565b61084b565b005b61024560048036038101906102409190611e45565b610874565b005b610261600480360381019061025c9190611df2565b6108f7565b005b61027d60048036038101906102789190611df2565b6109cb565b005b61029960048036038101906102949190611df2565b610c06565b005b6102b560048036038101906102b09190611c6a565b610e1b565b6040516102c29190611eb0565b60405180910390f35b6102e560048036038101906102e09190611e45565b610ea0565b6040516102f29190611d4a565b60405180910390f35b61031560048036038101906103109190611bca565b610f0a565b6040516103229190611efa565b60405180910390f35b61034560048036038101906103409190611f15565b610fb5565b6040516103529190611d4a565b60405180910390f35b610363611003565b6040516103709190611dd7565b60405180910390f35b610393600480360381019061038e9190611bca565b61100a565b6040516103a09190611d4a565b60405180910390f35b6103c360048036038101906103be9190611f15565b611096565b6040516103d09190611eb0565b60405180910390f35b6103e16110f9565b6040516103ee9190611dd7565b60405180910390f35b610411600480360381019061040c9190611e45565b61111d565b005b61042d60048036038101906104289190611df2565b611146565b005b61044960048036038101906104449190611f15565b611291565b6040516104569190611c23565b60405180910390f35b610467611314565b6040516104749190611dd7565b60405180910390f35b60007f8e34397ebfb2b30de879ba566695932178f46861e3b05dcf2f402a62b072e4ac6104b1816104ac611338565b611340565b6000600260008573ffffffffffffffffffffffffffffffffffffffff1673ffffffffffffffffffffffffffffffffffffffff16815260200190815260200160002060008673ffffffffffffffffffffffffffffffffffffffff1673ffffffffffffffffffffffffffffffffffffffff1681526020019081526020016000209050806001015481600001546105459190611f71565b9250505092915050565b7f8e34397ebfb2b30de879ba566695932178f46861e3b05dcf2f402a62b072e4ac6105818161057c611338565b611340565b600160009054906101000a900473ffffffffffffffffffffffffffffffffffffffff1673ffffffffffffffffffffffffffffffffffffffff166340c10f1984846040518363ffffffff1660e01b81526004016105de929190611fb4565b600060405180830381600087803b1580156105f857600080fd5b505af115801561060c573d6000803e3d6000fd5b50505050505050565b60007f7965db0b000000000000000000000000000000000000000000000000000000007bffffffffffffffffffffffffffffffffffffffffffffffffffffffff1916827bffffffffffffffffffffffffffffffffffffffffffffffffffffffff191614806106885750610687826113dd565b5b9050919050565b6000806000838152602001908152602001600020600101549050919050565b7f8e34397ebfb2b30de879ba566695932178f46861e3b05dcf2f402a62b072e4ac6106e0816106db611338565b611340565b3073ffffffffffffffffffffffffffffffffffffffff1663b6f867a884866040518363ffffffff1660e01b815260040161071b929190611fdd565b602060405180830381865afa158015610738573d6000803e3d6000fd5b505050506040513d601f19601f8201168201806040525081019061075c9190612032565b1561079c576040517f08c379a0000000000000000000000000000000000000000000000000000000008152600401610793906120e2565b60405180910390fd5b60405180604001604052808381526020016000815250600260008573ffffffffffffffffffffffffffffffffffffffff1673ffffffffffffffffffffffffffffffffffffffff16815260200190815260200160002060008673ffffffffffffffffffffffffffffffffffffffff1673ffffffffffffffffffffffffffffffffffffffff168152602001908152602001600020600082015181600001556020820151816001015590505050505050565b6108548261068f565b61086581610860611338565b611340565b61086f8383611447565b505050565b61087c611338565b73ffffffffffffffffffffffffffffffffffffffff168173ffffffffffffffffffffffffffffffffffffffff16146108e9576040517f08c379a00000000000000000000000000000000000000000000000000000000081526004016108e090612174565b60405180910390fd5b6108f38282611527565b5050565b7f8e34397ebfb2b30de879ba566695932178f46861e3b05dcf2f402a62b072e4ac61092981610924611338565b611340565b6000600260008573ffffffffffffffffffffffffffffffffffffffff1673ffffffffffffffffffffffffffffffffffffffff16815260200190815260200160002060008673ffffffffffffffffffffffffffffffffffffffff1673ffffffffffffffffffffffffffffffffffffffff1681526020019081526020016000209050828160000160008282546109bd9190612194565b925050819055505050505050565b7f8e34397ebfb2b30de879ba566695932178f46861e3b05dcf2f402a62b072e4ac6109fd816109f8611338565b611340565b818473ffffffffffffffffffffffffffffffffffffffff166370a08231306040518263ffffffff1660e01b8152600401610a3791906121ea565b602060405180830381865afa158015610a54573d6000803e3d6000fd5b505050506040513d601f19601f82011682018060405250810190610a78919061221a565b11610ab8576040517f08c379a0000000000000000000000000000000000000000000000000000000008152600401610aaf906122b9565b60405180910390fd5b6000600260008573ffffffffffffffffffffffffffffffffffffffff1673ffffffffffffffffffffffffffffffffffffffff16815260200190815260200160002060008673ffffffffffffffffffffffffffffffffffffffff1673ffffffffffffffffffffffffffffffffffffffff168152602001908152602001600020905082816001016000828254610b4c9190612194565b925050819055508473ffffffffffffffffffffffffffffffffffffffff1663095ea7b330856040518363ffffffff1660e01b8152600401610b8e929190611fb4565b6020604051808303816000875af1158015610bad573d6000803e3d6000fd5b505050506040513d601f19601f82011682018060405250810190610bd19190612032565b50610bff3085858873ffffffffffffffffffffffffffffffffffffffff16611608909392919063ffffffff16565b5050505050565b3073ffffffffffffffffffffffffffffffffffffffff1663b6f867a833846040518363ffffffff1660e01b8152600401610c41929190611fdd565b602060405180830381865afa158015610c5e573d6000803e3d6000fd5b505050506040513d601f19601f82011682018060405250810190610c829190612032565b610cfa573073ffffffffffffffffffffffffffffffffffffffff1663259242d38333846040518463ffffffff1660e01b8152600401610cc3939291906122d9565b600060405180830381600087803b158015610cdd57600080fd5b505af1158015610cf1573d6000803e3d6000fd5b50505050610d6a565b3073ffffffffffffffffffffffffffffffffffffffff16633aac84598333846040518463ffffffff1660e01b8152600401610d37939291906122d9565b600060405180830381600087803b158015610d5157600080fd5b505af1158015610d65573d6000803e3d6000fd5b505050505b8173ffffffffffffffffffffffffffffffffffffffff1663095ea7b384836040518363ffffffff1660e01b8152600401610da5929190611fb4565b6020604051808303816000875af1158015610dc4573d6000803e3d6000fd5b505050506040513d601f19601f82011682018060405250810190610de89190612032565b50610e168330838573ffffffffffffffffffffffffffffffffffffffff16611608909392919063ffffffff16565b505050565b610e23611b3a565b6000600360008573ffffffffffffffffffffffffffffffffffffffff1673ffffffffffffffffffffffffffffffffffffffff168152602001908152602001600020905082816000016000828254610e7a9190612194565b925050819055508060405180602001604052908160008201548152505091505092915050565b600080600084815260200190815260200160002060000160008373ffffffffffffffffffffffffffffffffffffffff1673ffffffffffffffffffffffffffffffffffffffff16815260200190815260200160002060009054906101000a900460ff16905092915050565b610f12611b4d565b600260008373ffffffffffffffffffffffffffffffffffffffff1673ffffffffffffffffffffffffffffffffffffffff16815260200190815260200160002060008473ffffffffffffffffffffffffffffffffffffffff1673ffffffffffffffffffffffffffffffffffffffff16815260200190815260200160002060405180604001604052908160008201548152602001600182015481525050905092915050565b600080600360008473ffffffffffffffffffffffffffffffffffffffff1673ffffffffffffffffffffffffffffffffffffffff16815260200190815260200160002060000154119050919050565b6000801b81565b600080600260008573ffffffffffffffffffffffffffffffffffffffff1673ffffffffffffffffffffffffffffffffffffffff16815260200190815260200160002060008473ffffffffffffffffffffffffffffffffffffffff1673ffffffffffffffffffffffffffffffffffffffff1681526020019081526020016000206000015411905092915050565b61109e611b3a565b600360008373ffffffffffffffffffffffffffffffffffffffff1673ffffffffffffffffffffffffffffffffffffffff1681526020019081526020016000206040518060200160405290816000820154815250509050919050565b7f8e34397ebfb2b30de879ba566695932178f46861e3b05dcf2f402a62b072e4ac81565b6111268261068f565b61113781611132611338565b611340565b6111418383611527565b505050565b80611151848461047d565b11611191576040517f08c379a000000000000000000000000000000000000000000000000000000000815260040161118890612382565b60405180910390fd5b3073ffffffffffffffffffffffffffffffffffffffff16633aac84598484846040518463ffffffff1660e01b81526004016111ce939291906122d9565b600060405180830381600087803b1580156111e857600080fd5b505af11580156111fc573d6000803e3d6000fd5b505050506000600360008573ffffffffffffffffffffffffffffffffffffffff1673ffffffffffffffffffffffffffffffffffffffff1681526020019081526020016000209050818160000160008282546112579190611f71565b9250508190555061128b3084848773ffffffffffffffffffffffffffffffffffffffff16611608909392919063ffffffff16565b50505050565b60008173ffffffffffffffffffffffffffffffffffffffff166370a08231306040518263ffffffff1660e01b81526004016112cc91906121ea565b602060405180830381865afa1580156112e9573d6000803e3d6000fd5b505050506040513d601f19601f8201168201806040525081019061130d919061221a565b9050919050565b7ffa146205d79c04d22c6b2309d75a6844cd1b28ad727f2383e3ee22681f00139981565b600033905090565b61134a8282610ea0565b6113d95761136f8173ffffffffffffffffffffffffffffffffffffffff166014611691565b61137d8360001c6020611691565b60405160200161138e9291906124b4565b6040516020818303038152906040526040517f08c379a00000000000000000000000000000000000000000000000000000000081526004016113d09190612538565b60405180910390fd5b5050565b60007f01ffc9a7000000000000000000000000000000000000000000000000000000007bffffffffffffffffffffffffffffffffffffffffffffffffffffffff1916827bffffffffffffffffffffffffffffffffffffffffffffffffffffffff1916149050919050565b6114518282610ea0565b61152357600160008084815260200190815260200160002060000160008373ffffffffffffffffffffffffffffffffffffffff1673ffffffffffffffffffffffffffffffffffffffff16815260200190815260200160002060006101000a81548160ff0219169083151502179055506114c8611338565b73ffffffffffffffffffffffffffffffffffffffff168173ffffffffffffffffffffffffffffffffffffffff16837f2f8788117e7eff1d82e926ec794901d17c78024a50270940304540a733656f0d60405160405180910390a45b5050565b6115318282610ea0565b1561160457600080600084815260200190815260200160002060000160008373ffffffffffffffffffffffffffffffffffffffff1673ffffffffffffffffffffffffffffffffffffffff16815260200190815260200160002060006101000a81548160ff0219169083151502179055506115a9611338565b73ffffffffffffffffffffffffffffffffffffffff168173ffffffffffffffffffffffffffffffffffffffff16837ff6391f5c32d9c69d2a47ea670b442974b53935d1edc7fd64eb21e047a839171b60405160405180910390a45b5050565b61168b846323b872dd60e01b858585604051602401611629939291906122d9565b604051602081830303815290604052907bffffffffffffffffffffffffffffffffffffffffffffffffffffffff19166020820180517bffffffffffffffffffffffffffffffffffffffffffffffffffffffff83818316178352505050506118cd565b50505050565b6060600060028360026116a4919061255a565b6116ae9190612194565b67ffffffffffffffff8111156116c7576116c66125b4565b5b6040519080825280601f01601f1916602001820160405280156116f95781602001600182028036833780820191505090505b5090507f300000000000000000000000000000000000000000000000000000000000000081600081518110611731576117306125e3565b5b60200101907effffffffffffffffffffffffffffffffffffffffffffffffffffffffffffff1916908160001a9053507f780000000000000000000000000000000000000000000000000000000000000081600181518110611795576117946125e3565b5b60200101907effffffffffffffffffffffffffffffffffffffffffffffffffffffffffffff1916908160001a905350600060018460026117d5919061255a565b6117df9190612194565b90505b600181111561187f577f3031323334353637383961626364656600000000000000000000000000000000600f861660108110611821576118206125e3565b5b1a60f81b828281518110611838576118376125e3565b5b60200101907effffffffffffffffffffffffffffffffffffffffffffffffffffffffffffff1916908160001a905350600485901c94508061187890612612565b90506117e2565b50600084146118c3576040517f08c379a00000000000000000000000000000000000000000000000000000000081526004016118ba90612688565b60405180910390fd5b8091505092915050565b600061192f826040518060400160405280602081526020017f5361666545524332303a206c6f772d6c6576656c2063616c6c206661696c65648152508573ffffffffffffffffffffffffffffffffffffffff166119949092919063ffffffff16565b905060008151111561198f578080602001905181019061194f9190612032565b61198e576040517f08c379a00000000000000000000000000000000000000000000000000000000081526004016119859061271a565b60405180910390fd5b5b505050565b60606119a384846000856119ac565b90509392505050565b6060824710156119f1576040517f08c379a00000000000000000000000000000000000000000000000000000000081526004016119e8906127ac565b60405180910390fd5b6119fa85611ac0565b611a39576040517f08c379a0000000000000000000000000000000000000000000000000000000008152600401611a3090612818565b60405180910390fd5b6000808673ffffffffffffffffffffffffffffffffffffffff168587604051611a62919061287f565b60006040518083038185875af1925050503d8060008114611a9f576040519150601f19603f3d011682016040523d82523d6000602084013e611aa4565b606091505b5091509150611ab4828286611ad3565b92505050949350505050565b600080823b905060008111915050919050565b60608315611ae357829050611b33565b600083511115611af65782518084602001fd5b816040517f08c379a0000000000000000000000000000000000000000000000000000000008152600401611b2a9190612538565b60405180910390fd5b9392505050565b6040518060200160405280600081525090565b604051806040016040528060008152602001600081525090565b600080fd5b600073ffffffffffffffffffffffffffffffffffffffff82169050919050565b6000611b9782611b6c565b9050919050565b611ba781611b8c565b8114611bb257600080fd5b50565b600081359050611bc481611b9e565b92915050565b60008060408385031215611be157611be0611b67565b5b6000611bef85828601611bb5565b9250506020611c0085828601611bb5565b9150509250929050565b6000819050919050565b611c1d81611c0a565b82525050565b6000602082019050611c386000830184611c14565b92915050565b611c4781611c0a565b8114611c5257600080fd5b50565b600081359050611c6481611c3e565b92915050565b60008060408385031215611c8157611c80611b67565b5b6000611c8f85828601611bb5565b9250506020611ca085828601611c55565b9150509250929050565b60007fffffffff0000000000000000000000000000000000000000000000000000000082169050919050565b611cdf81611caa565b8114611cea57600080fd5b50565b600081359050611cfc81611cd6565b92915050565b600060208284031215611d1857611d17611b67565b5b6000611d2684828501611ced565b91505092915050565b60008115159050919050565b611d4481611d2f565b82525050565b6000602082019050611d5f6000830184611d3b565b92915050565b6000819050919050565b611d7881611d65565b8114611d8357600080fd5b50565b600081359050611d9581611d6f565b92915050565b600060208284031215611db157611db0611b67565b5b6000611dbf84828501611d86565b91505092915050565b611dd181611d65565b82525050565b6000602082019050611dec6000830184611dc8565b92915050565b600080600060608486031215611e0b57611e0a611b67565b5b6000611e1986828701611bb5565b9350506020611e2a86828701611bb5565b9250506040611e3b86828701611c55565b9150509250925092565b60008060408385031215611e5c57611e5b611b67565b5b6000611e6a85828601611d86565b9250506020611e7b85828601611bb5565b9150509250929050565b611e8e81611c0a565b82525050565b602082016000820151611eaa6000850182611e85565b50505050565b6000602082019050611ec56000830184611e94565b92915050565b604082016000820151611ee16000850182611e85565b506020820151611ef46020850182611e85565b50505050565b6000604082019050611f0f6000830184611ecb565b92915050565b600060208284031215611f2b57611f2a611b67565b5b6000611f3984828501611bb5565b91505092915050565b7f4e487b7100000000000000000000000000000000000000000000000000000000600052601160045260246000fd5b6000611f7c82611c0a565b9150611f8783611c0a565b925082821015611f9a57611f99611f42565b5b828203905092915050565b611fae81611b8c565b82525050565b6000604082019050611fc96000830185611fa5565b611fd66020830184611c14565b9392505050565b6000604082019050611ff26000830185611fa5565b611fff6020830184611fa5565b9392505050565b61200f81611d2f565b811461201a57600080fd5b50565b60008151905061202c81612006565b92915050565b60006020828403121561204857612047611b67565b5b60006120568482850161201d565b91505092915050565b600082825260208201905092915050565b7f546865207573657220706f736974696f6e20697320616c72656164792065786960008201527f7374730000000000000000000000000000000000000000000000000000000000602082015250565b60006120cc60238361205f565b91506120d782612070565b604082019050919050565b600060208201905081810360008301526120fb816120bf565b9050919050565b7f416363657373436f6e74726f6c3a2063616e206f6e6c792072656e6f756e636560008201527f20726f6c657320666f722073656c660000000000000000000000000000000000602082015250565b600061215e602f8361205f565b915061216982612102565b604082019050919050565b6000602082019050818103600083015261218d81612151565b9050919050565b600061219f82611c0a565b91506121aa83611c0a565b9250827fffffffffffffffffffffffffffffffffffffffffffffffffffffffffffffffff038211156121df576121de611f42565b5b828201905092915050565b60006020820190506121ff6000830184611fa5565b92915050565b60008151905061221481611c3e565b92915050565b6000602082840312156122305761222f611b67565b5b600061223e84828501612205565b91505092915050565b7f54686520616d6f756e742065786365656420746865207472656173757279206260008201527f616c616e63652e00000000000000000000000000000000000000000000000000602082015250565b60006122a360278361205f565b91506122ae82612247565b604082019050919050565b600060208201905081810360008301526122d281612296565b9050919050565b60006060820190506122ee6000830186611fa5565b6122fb6020830185611fa5565b6123086040830184611c14565b949350505050565b7f57697468647261776e20616d6f756e742065786365656420746865207573657260008201527f2062616c616e6365000000000000000000000000000000000000000000000000602082015250565b600061236c60288361205f565b915061237782612310565b604082019050919050565b6000602082019050818103600083015261239b8161235f565b9050919050565b600081905092915050565b7f416363657373436f6e74726f6c3a206163636f756e7420000000000000000000600082015250565b60006123e36017836123a2565b91506123ee826123ad565b601782019050919050565b600081519050919050565b60005b83811015612422578082015181840152602081019050612407565b83811115612431576000848401525b50505050565b6000612442826123f9565b61244c81856123a2565b935061245c818560208601612404565b80840191505092915050565b7f206973206d697373696e6720726f6c6520000000000000000000000000000000600082015250565b600061249e6011836123a2565b91506124a982612468565b601182019050919050565b60006124bf826123d6565b91506124cb8285612437565b91506124d682612491565b91506124e28284612437565b91508190509392505050565b6000601f19601f8301169050919050565b600061250a826123f9565b612514818561205f565b9350612524818560208601612404565b61252d816124ee565b840191505092915050565b6000602082019050818103600083015261255281846124ff565b905092915050565b600061256582611c0a565b915061257083611c0a565b9250817fffffffffffffffffffffffffffffffffffffffffffffffffffffffffffffffff04831182151516156125a9576125a8611f42565b5b828202905092915050565b7f4e487b7100000000000000000000000000000000000000000000000000000000600052604160045260246000fd5b7f4e487b7100000000000000000000000000000000000000000000000000000000600052603260045260246000fd5b600061261d82611c0a565b9150600082141561263157612630611f42565b5b600182039050919050565b7f537472696e67733a20686578206c656e67746820696e73756666696369656e74600082015250565b600061267260208361205f565b915061267d8261263c565b602082019050919050565b600060208201905081810360008301526126a181612665565b9050919050565b7f5361666545524332303a204552433230206f7065726174696f6e20646964206e60008201527f6f74207375636365656400000000000000000000000000000000000000000000602082015250565b6000612704602a8361205f565b915061270f826126a8565b604082019050919050565b60006020820190508181036000830152612733816126f7565b9050919050565b7f416464726573733a20696e73756666696369656e742062616c616e636520666f60008201527f722063616c6c0000000000000000000000000000000000000000000000000000602082015250565b600061279660268361205f565b91506127a18261273a565b604082019050919050565b600060208201905081810360008301526127c581612789565b9050919050565b7f416464726573733a2063616c6c20746f206e6f6e2d636f6e7472616374000000600082015250565b6000612802601d8361205f565b915061280d826127cc565b602082019050919050565b60006020820190508181036000830152612831816127f5565b9050919050565b600081519050919050565b600081905092915050565b600061285982612838565b6128638185612843565b9350612873818560208601612404565b80840191505092915050565b600061288b828461284e565b91508190509291505056fea26469706673582212204b8ffe0ad66cae6aca75114112891d308a6ca3990d07eef7072206e1de13610464736f6c634300080b0033",
  "linkReferences": {},
  "deployedLinkReferences": {}
}