{
  "_format": "hh-sol-artifact-1",
  "contractName": "TreasuryStorage",
  "sourceName": "contracts/treasury/TreasuryStorage.sol",
  "abi": [
    {
      "inputs": [
        {
          "internalType": "address",
          "name": "_treasuryShares",
          "type": "address"
        }
      ],
      "stateMutability": "nonpayable",
      "type": "constructor"
    },
    {
      "anonymous": false,
      "inputs": [
        {
          "indexed": true,
          "internalType": "bytes32",
          "name": "role",
          "type": "bytes32"
        },
        {
          "indexed": true,
          "internalType": "bytes32",
          "name": "previousAdminRole",
          "type": "bytes32"
        },
        {
          "indexed": true,
          "internalType": "bytes32",
          "name": "newAdminRole",
          "type": "bytes32"
        }
      ],
      "name": "RoleAdminChanged",
      "type": "event"
    },
    {
      "anonymous": false,
      "inputs": [
        {
          "indexed": true,
          "internalType": "bytes32",
          "name": "role",
          "type": "bytes32"
        },
        {
          "indexed": true,
          "internalType": "address",
          "name": "account",
          "type": "address"
        },
        {
          "indexed": true,
          "internalType": "address",
          "name": "sender",
          "type": "address"
        }
      ],
      "name": "RoleGranted",
      "type": "event"
    },
    {
      "anonymous": false,
      "inputs": [
        {
          "indexed": true,
          "internalType": "bytes32",
          "name": "role",
          "type": "bytes32"
        },
        {
          "indexed": true,
          "internalType": "address",
          "name": "account",
          "type": "address"
        },
        {
          "indexed": true,
          "internalType": "address",
          "name": "sender",
          "type": "address"
        }
      ],
      "name": "RoleRevoked",
      "type": "event"
    },
    {
      "inputs": [],
      "name": "DEFAULT_ADMIN_ROLE",
      "outputs": [
        {
          "internalType": "bytes32",
          "name": "",
          "type": "bytes32"
        }
      ],
      "stateMutability": "view",
      "type": "function"
    },
    {
      "inputs": [],
      "name": "REVENUE_CONTROLLER",
      "outputs": [
        {
          "internalType": "bytes32",
          "name": "",
          "type": "bytes32"
        }
      ],
      "stateMutability": "view",
      "type": "function"
    },
    {
      "inputs": [],
      "name": "TREASURY_FUND",
      "outputs": [
        {
          "internalType": "bytes32",
          "name": "",
          "type": "bytes32"
        }
      ],
      "stateMutability": "view",
      "type": "function"
    },
    {
      "inputs": [
        {
          "internalType": "address",
          "name": "_token",
          "type": "address"
        },
        {
          "internalType": "address",
          "name": "_user",
          "type": "address"
        },
        {
          "internalType": "uint256",
          "name": "_totalAmount",
          "type": "uint256"
        }
      ],
      "name": "addUserPosition",
      "outputs": [],
      "stateMutability": "nonpayable",
      "type": "function"
    },
    {
      "inputs": [
        {
          "internalType": "address",
          "name": "_token",
          "type": "address"
        }
      ],
      "name": "checkIfPoolExists",
      "outputs": [
        {
          "internalType": "bool",
          "name": "",
          "type": "bool"
        }
      ],
      "stateMutability": "view",
      "type": "function"
    },
    {
      "inputs": [
        {
          "internalType": "address",
          "name": "_user",
          "type": "address"
        },
        {
          "internalType": "address",
          "name": "_token",
          "type": "address"
        }
      ],
      "name": "checkIfUserPositionExists",
      "outputs": [
        {
          "internalType": "bool",
          "name": "",
          "type": "bool"
        }
      ],
      "stateMutability": "view",
      "type": "function"
    },
    {
      "inputs": [
        {
          "internalType": "address",
          "name": "_user",
          "type": "address"
        },
        {
          "internalType": "uint256",
          "name": "_amount",
          "type": "uint256"
        }
      ],
      "name": "deposit",
      "outputs": [],
      "stateMutability": "nonpayable",
      "type": "function"
    },
    {
      "inputs": [
        {
          "internalType": "bytes32",
          "name": "role",
          "type": "bytes32"
        }
      ],
      "name": "getRoleAdmin",
      "outputs": [
        {
          "internalType": "bytes32",
          "name": "",
          "type": "bytes32"
        }
      ],
      "stateMutability": "view",
      "type": "function"
    },
    {
      "inputs": [
        {
          "internalType": "address",
          "name": "_token",
          "type": "address"
        },
        {
          "internalType": "address",
          "name": "_user",
          "type": "address"
        }
      ],
      "name": "getUnlockedAmount",
      "outputs": [
        {
          "internalType": "uint256",
          "name": "unlockedAmount",
          "type": "uint256"
        }
      ],
      "stateMutability": "view",
      "type": "function"
    },
    {
      "inputs": [
        {
          "internalType": "bytes32",
          "name": "role",
          "type": "bytes32"
        },
        {
          "internalType": "address",
          "name": "account",
          "type": "address"
        }
      ],
      "name": "grantRole",
      "outputs": [],
      "stateMutability": "nonpayable",
      "type": "function"
    },
    {
      "inputs": [
        {
          "internalType": "bytes32",
          "name": "role",
          "type": "bytes32"
        },
        {
          "internalType": "address",
          "name": "account",
          "type": "address"
        }
      ],
      "name": "hasRole",
      "outputs": [
        {
          "internalType": "bool",
          "name": "",
          "type": "bool"
        }
      ],
      "stateMutability": "view",
      "type": "function"
    },
    {
      "inputs": [
        {
          "internalType": "address",
          "name": "_token",
          "type": "address"
        },
        {
          "internalType": "address",
          "name": "_user",
          "type": "address"
        },
        {
          "internalType": "uint256",
          "name": "_amount",
          "type": "uint256"
        }
      ],
      "name": "loan",
      "outputs": [],
      "stateMutability": "nonpayable",
      "type": "function"
    },
    {
      "inputs": [
        {
          "internalType": "address",
          "name": "_destination",
          "type": "address"
        },
        {
          "internalType": "uint256",
          "name": "_amount",
          "type": "uint256"
        }
      ],
      "name": "mintTreasuryShares",
      "outputs": [],
      "stateMutability": "nonpayable",
      "type": "function"
    },
    {
      "inputs": [
        {
          "internalType": "bytes32",
          "name": "role",
          "type": "bytes32"
        },
        {
          "internalType": "address",
          "name": "account",
          "type": "address"
        }
      ],
      "name": "renounceRole",
      "outputs": [],
      "stateMutability": "nonpayable",
      "type": "function"
    },
    {
      "inputs": [
        {
          "internalType": "bytes32",
          "name": "role",
          "type": "bytes32"
        },
        {
          "internalType": "address",
          "name": "account",
          "type": "address"
        }
      ],
      "name": "revokeRole",
      "outputs": [],
      "stateMutability": "nonpayable",
      "type": "function"
    },
    {
      "inputs": [
        {
          "internalType": "address",
          "name": "_token",
          "type": "address"
        },
        {
          "internalType": "address",
          "name": "_user",
          "type": "address"
        },
        {
          "internalType": "uint256",
          "name": "_amount",
          "type": "uint256"
        }
      ],
      "name": "setUserPosition",
      "outputs": [],
      "stateMutability": "nonpayable",
      "type": "function"
    },
    {
      "inputs": [
        {
          "internalType": "bytes4",
          "name": "interfaceId",
          "type": "bytes4"
        }
      ],
      "name": "supportsInterface",
      "outputs": [
        {
          "internalType": "bool",
          "name": "",
          "type": "bool"
        }
      ],
      "stateMutability": "view",
      "type": "function"
    },
    {
      "inputs": [
        {
          "internalType": "address",
          "name": "_token",
          "type": "address"
        },
        {
          "internalType": "address",
          "name": "_user",
          "type": "address"
        },
        {
          "internalType": "uint256",
          "name": "_amount",
          "type": "uint256"
        },
        {
          "internalType": "uint256",
          "name": "_newRewardDebt",
          "type": "uint256"
        }
      ],
      "name": "withdraw",
      "outputs": [],
      "stateMutability": "nonpayable",
      "type": "function"
    }
  ],
  "bytecode": "0x60806040523480156200001157600080fd5b506040516200276938038062002769833981810160405281019062000037919062000277565b80600160006101000a81548173ffffffffffffffffffffffffffffffffffffffff021916908373ffffffffffffffffffffffffffffffffffffffff1602179055506200008d6000801b336200009460201b60201c565b50620002a9565b620000a68282620000aa60201b60201c565b5050565b620000bc82826200019b60201b60201c565b6200019757600160008084815260200190815260200160002060000160008373ffffffffffffffffffffffffffffffffffffffff1673ffffffffffffffffffffffffffffffffffffffff16815260200190815260200160002060006101000a81548160ff0219169083151502179055506200013c6200020560201b60201c565b73ffffffffffffffffffffffffffffffffffffffff168173ffffffffffffffffffffffffffffffffffffffff16837f2f8788117e7eff1d82e926ec794901d17c78024a50270940304540a733656f0d60405160405180910390a45b5050565b600080600084815260200190815260200160002060000160008373ffffffffffffffffffffffffffffffffffffffff1673ffffffffffffffffffffffffffffffffffffffff16815260200190815260200160002060009054906101000a900460ff16905092915050565b600033905090565b600080fd5b600073ffffffffffffffffffffffffffffffffffffffff82169050919050565b60006200023f8262000212565b9050919050565b620002518162000232565b81146200025d57600080fd5b50565b600081519050620002718162000246565b92915050565b60006020828403121562000290576200028f6200020d565b5b6000620002a08482850162000260565b91505092915050565b6124b080620002b96000396000f3fe608060405234801561001057600080fd5b50600436106101165760003560e01c806361c81120116100a2578063a217fddf11610071578063a217fddf146102eb578063b6f867a814610309578063c346771b14610339578063d547741f14610357578063f897e3761461037357610116565b806361c81120146102535780637bfe950c1461026f57806391d148541461028b578063999126d7146102bb57610116565b8063259242d3116100e9578063259242d3146101c75780632f2ff15d146101e357806336568abe146101ff5780633aac84591461021b57806347e7ef241461023757610116565b80630122a7e81461011b57806301ce30701461014b57806301ffc9a714610167578063248a9ca314610197575b600080fd5b610135600480360381019061013091906117d7565b610391565b6040516101429190611830565b60405180910390f35b61016560048036038101906101609190611877565b610463565b005b610181600480360381019061017c919061190f565b610529565b60405161018e9190611957565b60405180910390f35b6101b160048036038101906101ac91906119a8565b6105a3565b6040516101be91906119e4565b60405180910390f35b6101e160048036038101906101dc91906119ff565b6105c2565b005b6101fd60048036038101906101f89190611a52565b61075f565b005b61021960048036038101906102149190611a52565b610788565b005b610235600480360381019061023091906119ff565b61080b565b005b610251600480360381019061024c9190611877565b6108df565b005b61026d600480360381019061026891906119ff565b610aae565b005b61028960048036038101906102849190611a92565b610c6a565b005b6102a560048036038101906102a09190611a52565b610db6565b6040516102b29190611957565b60405180910390f35b6102d560048036038101906102d09190611af9565b610e20565b6040516102e29190611957565b60405180910390f35b6102f3610e6e565b60405161030091906119e4565b60405180910390f35b610323600480360381019061031e91906117d7565b610e75565b6040516103309190611957565b60405180910390f35b610341610f01565b60405161034e91906119e4565b60405180910390f35b610371600480360381019061036c9190611a52565b610f25565b005b61037b610f4e565b60405161038891906119e4565b60405180910390f35b60007f8e34397ebfb2b30de879ba566695932178f46861e3b05dcf2f402a62b072e4ac6103c5816103c0610f72565b610f7a565b6000600260008573ffffffffffffffffffffffffffffffffffffffff1673ffffffffffffffffffffffffffffffffffffffff16815260200190815260200160002060008673ffffffffffffffffffffffffffffffffffffffff1673ffffffffffffffffffffffffffffffffffffffff1681526020019081526020016000209050806001015481600001546104599190611b55565b9250505092915050565b7f8e34397ebfb2b30de879ba566695932178f46861e3b05dcf2f402a62b072e4ac61049581610490610f72565b610f7a565b600160009054906101000a900473ffffffffffffffffffffffffffffffffffffffff1673ffffffffffffffffffffffffffffffffffffffff166340c10f1984846040518363ffffffff1660e01b81526004016104f2929190611b98565b600060405180830381600087803b15801561050c57600080fd5b505af1158015610520573d6000803e3d6000fd5b50505050505050565b60007f7965db0b000000000000000000000000000000000000000000000000000000007bffffffffffffffffffffffffffffffffffffffffffffffffffffffff1916827bffffffffffffffffffffffffffffffffffffffffffffffffffffffff1916148061059c575061059b82611017565b5b9050919050565b6000806000838152602001908152602001600020600101549050919050565b7f8e34397ebfb2b30de879ba566695932178f46861e3b05dcf2f402a62b072e4ac6105f4816105ef610f72565b610f7a565b3073ffffffffffffffffffffffffffffffffffffffff1663b6f867a884866040518363ffffffff1660e01b815260040161062f929190611bc1565b602060405180830381865afa15801561064c573d6000803e3d6000fd5b505050506040513d601f19601f820116820180604052508101906106709190611c16565b156106b0576040517f08c379a00000000000000000000000000000000000000000000000000000000081526004016106a790611cc6565b60405180910390fd5b60405180604001604052808381526020016000815250600260008573ffffffffffffffffffffffffffffffffffffffff1673ffffffffffffffffffffffffffffffffffffffff16815260200190815260200160002060008673ffffffffffffffffffffffffffffffffffffffff1673ffffffffffffffffffffffffffffffffffffffff168152602001908152602001600020600082015181600001556020820151816001015590505050505050565b610768826105a3565b61077981610774610f72565b610f7a565b6107838383611081565b505050565b610790610f72565b73ffffffffffffffffffffffffffffffffffffffff168173ffffffffffffffffffffffffffffffffffffffff16146107fd576040517f08c379a00000000000000000000000000000000000000000000000000000000081526004016107f490611d58565b60405180910390fd5b6108078282611161565b5050565b7f8e34397ebfb2b30de879ba566695932178f46861e3b05dcf2f402a62b072e4ac61083d81610838610f72565b610f7a565b6000600260008573ffffffffffffffffffffffffffffffffffffffff1673ffffffffffffffffffffffffffffffffffffffff16815260200190815260200160002060008673ffffffffffffffffffffffffffffffffffffffff1673ffffffffffffffffffffffffffffffffffffffff1681526020019081526020016000209050828160000160008282546108d19190611d78565b925050819055505050505050565b3073ffffffffffffffffffffffffffffffffffffffff1663b6f867a883600160009054906101000a900473ffffffffffffffffffffffffffffffffffffffff166040518363ffffffff1660e01b815260040161093c929190611bc1565b602060405180830381865afa158015610959573d6000803e3d6000fd5b505050506040513d601f19601f8201168201806040525081019061097d9190611c16565b15610a18573073ffffffffffffffffffffffffffffffffffffffff1663259242d3600160009054906101000a900473ffffffffffffffffffffffffffffffffffffffff1684846040518463ffffffff1660e01b81526004016109e193929190611dce565b600060405180830381600087803b1580156109fb57600080fd5b505af1158015610a0f573d6000803e3d6000fd5b50505050610aaa565b3073ffffffffffffffffffffffffffffffffffffffff16633aac8459600160009054906101000a900473ffffffffffffffffffffffffffffffffffffffff1684846040518463ffffffff1660e01b8152600401610a7793929190611dce565b600060405180830381600087803b158015610a9157600080fd5b505af1158015610aa5573d6000803e3d6000fd5b505050505b5050565b7f8e34397ebfb2b30de879ba566695932178f46861e3b05dcf2f402a62b072e4ac610ae081610adb610f72565b610f7a565b818473ffffffffffffffffffffffffffffffffffffffff166370a08231306040518263ffffffff1660e01b8152600401610b1a9190611e05565b602060405180830381865afa158015610b37573d6000803e3d6000fd5b505050506040513d601f19601f82011682018060405250810190610b5b9190611e35565b11610b9b576040517f08c379a0000000000000000000000000000000000000000000000000000000008152600401610b9290611ed4565b60405180910390fd5b6000600260008573ffffffffffffffffffffffffffffffffffffffff1673ffffffffffffffffffffffffffffffffffffffff16815260200190815260200160002060008673ffffffffffffffffffffffffffffffffffffffff1673ffffffffffffffffffffffffffffffffffffffff168152602001908152602001600020905082816001016000828254610c2f9190611d78565b92505081905550610c633085858873ffffffffffffffffffffffffffffffffffffffff16611242909392919063ffffffff16565b5050505050565b81610c758585610391565b11610cb5576040517f08c379a0000000000000000000000000000000000000000000000000000000008152600401610cac90611f66565b60405180910390fd5b3073ffffffffffffffffffffffffffffffffffffffff16633aac84598585856040518463ffffffff1660e01b8152600401610cf293929190611dce565b600060405180830381600087803b158015610d0c57600080fd5b505af1158015610d20573d6000803e3d6000fd5b505050506000600360008673ffffffffffffffffffffffffffffffffffffffff1673ffffffffffffffffffffffffffffffffffffffff168152602001908152602001600020905082816000016000828254610d7b9190611b55565b92505081905550610daf3085858873ffffffffffffffffffffffffffffffffffffffff16611242909392919063ffffffff16565b5050505050565b600080600084815260200190815260200160002060000160008373ffffffffffffffffffffffffffffffffffffffff1673ffffffffffffffffffffffffffffffffffffffff16815260200190815260200160002060009054906101000a900460ff16905092915050565b600080600360008473ffffffffffffffffffffffffffffffffffffffff1673ffffffffffffffffffffffffffffffffffffffff16815260200190815260200160002060010154119050919050565b6000801b81565b600080600260008573ffffffffffffffffffffffffffffffffffffffff1673ffffffffffffffffffffffffffffffffffffffff16815260200190815260200160002060008473ffffffffffffffffffffffffffffffffffffffff1673ffffffffffffffffffffffffffffffffffffffff1681526020019081526020016000206000015411905092915050565b7f8e34397ebfb2b30de879ba566695932178f46861e3b05dcf2f402a62b072e4ac81565b610f2e826105a3565b610f3f81610f3a610f72565b610f7a565b610f498383611161565b505050565b7ffa146205d79c04d22c6b2309d75a6844cd1b28ad727f2383e3ee22681f00139981565b600033905090565b610f848282610db6565b61101357610fa98173ffffffffffffffffffffffffffffffffffffffff1660146112cb565b610fb78360001c60206112cb565b604051602001610fc8929190612098565b6040516020818303038152906040526040517f08c379a000000000000000000000000000000000000000000000000000000000815260040161100a919061211c565b60405180910390fd5b5050565b60007f01ffc9a7000000000000000000000000000000000000000000000000000000007bffffffffffffffffffffffffffffffffffffffffffffffffffffffff1916827bffffffffffffffffffffffffffffffffffffffffffffffffffffffff1916149050919050565b61108b8282610db6565b61115d57600160008084815260200190815260200160002060000160008373ffffffffffffffffffffffffffffffffffffffff1673ffffffffffffffffffffffffffffffffffffffff16815260200190815260200160002060006101000a81548160ff021916908315150217905550611102610f72565b73ffffffffffffffffffffffffffffffffffffffff168173ffffffffffffffffffffffffffffffffffffffff16837f2f8788117e7eff1d82e926ec794901d17c78024a50270940304540a733656f0d60405160405180910390a45b5050565b61116b8282610db6565b1561123e57600080600084815260200190815260200160002060000160008373ffffffffffffffffffffffffffffffffffffffff1673ffffffffffffffffffffffffffffffffffffffff16815260200190815260200160002060006101000a81548160ff0219169083151502179055506111e3610f72565b73ffffffffffffffffffffffffffffffffffffffff168173ffffffffffffffffffffffffffffffffffffffff16837ff6391f5c32d9c69d2a47ea670b442974b53935d1edc7fd64eb21e047a839171b60405160405180910390a45b5050565b6112c5846323b872dd60e01b85858560405160240161126393929190611dce565b604051602081830303815290604052907bffffffffffffffffffffffffffffffffffffffffffffffffffffffff19166020820180517bffffffffffffffffffffffffffffffffffffffffffffffffffffffff8381831617835250505050611507565b50505050565b6060600060028360026112de919061213e565b6112e89190611d78565b67ffffffffffffffff81111561130157611300612198565b5b6040519080825280601f01601f1916602001820160405280156113335781602001600182028036833780820191505090505b5090507f30000000000000000000000000000000000000000000000000000000000000008160008151811061136b5761136a6121c7565b5b60200101907effffffffffffffffffffffffffffffffffffffffffffffffffffffffffffff1916908160001a9053507f7800000000000000000000000000000000000000000000000000000000000000816001815181106113cf576113ce6121c7565b5b60200101907effffffffffffffffffffffffffffffffffffffffffffffffffffffffffffff1916908160001a9053506000600184600261140f919061213e565b6114199190611d78565b90505b60018111156114b9577f3031323334353637383961626364656600000000000000000000000000000000600f86166010811061145b5761145a6121c7565b5b1a60f81b828281518110611472576114716121c7565b5b60200101907effffffffffffffffffffffffffffffffffffffffffffffffffffffffffffff1916908160001a905350600485901c9450806114b2906121f6565b905061141c565b50600084146114fd576040517f08c379a00000000000000000000000000000000000000000000000000000000081526004016114f49061226c565b60405180910390fd5b8091505092915050565b6000611569826040518060400160405280602081526020017f5361666545524332303a206c6f772d6c6576656c2063616c6c206661696c65648152508573ffffffffffffffffffffffffffffffffffffffff166115ce9092919063ffffffff16565b90506000815111156115c957808060200190518101906115899190611c16565b6115c8576040517f08c379a00000000000000000000000000000000000000000000000000000000081526004016115bf906122fe565b60405180910390fd5b5b505050565b60606115dd84846000856115e6565b90509392505050565b60608247101561162b576040517f08c379a000000000000000000000000000000000000000000000000000000000815260040161162290612390565b60405180910390fd5b611634856116fa565b611673576040517f08c379a000000000000000000000000000000000000000000000000000000000815260040161166a906123fc565b60405180910390fd5b6000808673ffffffffffffffffffffffffffffffffffffffff16858760405161169c9190612463565b60006040518083038185875af1925050503d80600081146116d9576040519150601f19603f3d011682016040523d82523d6000602084013e6116de565b606091505b50915091506116ee82828661170d565b92505050949350505050565b600080823b905060008111915050919050565b6060831561171d5782905061176d565b6000835111156117305782518084602001fd5b816040517f08c379a0000000000000000000000000000000000000000000000000000000008152600401611764919061211c565b60405180910390fd5b9392505050565b600080fd5b600073ffffffffffffffffffffffffffffffffffffffff82169050919050565b60006117a482611779565b9050919050565b6117b481611799565b81146117bf57600080fd5b50565b6000813590506117d1816117ab565b92915050565b600080604083850312156117ee576117ed611774565b5b60006117fc858286016117c2565b925050602061180d858286016117c2565b9150509250929050565b6000819050919050565b61182a81611817565b82525050565b60006020820190506118456000830184611821565b92915050565b61185481611817565b811461185f57600080fd5b50565b6000813590506118718161184b565b92915050565b6000806040838503121561188e5761188d611774565b5b600061189c858286016117c2565b92505060206118ad85828601611862565b9150509250929050565b60007fffffffff0000000000000000000000000000000000000000000000000000000082169050919050565b6118ec816118b7565b81146118f757600080fd5b50565b600081359050611909816118e3565b92915050565b60006020828403121561192557611924611774565b5b6000611933848285016118fa565b91505092915050565b60008115159050919050565b6119518161193c565b82525050565b600060208201905061196c6000830184611948565b92915050565b6000819050919050565b61198581611972565b811461199057600080fd5b50565b6000813590506119a28161197c565b92915050565b6000602082840312156119be576119bd611774565b5b60006119cc84828501611993565b91505092915050565b6119de81611972565b82525050565b60006020820190506119f960008301846119d5565b92915050565b600080600060608486031215611a1857611a17611774565b5b6000611a26868287016117c2565b9350506020611a37868287016117c2565b9250506040611a4886828701611862565b9150509250925092565b60008060408385031215611a6957611a68611774565b5b6000611a7785828601611993565b9250506020611a88858286016117c2565b9150509250929050565b60008060008060808587031215611aac57611aab611774565b5b6000611aba878288016117c2565b9450506020611acb878288016117c2565b9350506040611adc87828801611862565b9250506060611aed87828801611862565b91505092959194509250565b600060208284031215611b0f57611b0e611774565b5b6000611b1d848285016117c2565b91505092915050565b7f4e487b7100000000000000000000000000000000000000000000000000000000600052601160045260246000fd5b6000611b6082611817565b9150611b6b83611817565b925082821015611b7e57611b7d611b26565b5b828203905092915050565b611b9281611799565b82525050565b6000604082019050611bad6000830185611b89565b611bba6020830184611821565b9392505050565b6000604082019050611bd66000830185611b89565b611be36020830184611b89565b9392505050565b611bf38161193c565b8114611bfe57600080fd5b50565b600081519050611c1081611bea565b92915050565b600060208284031215611c2c57611c2b611774565b5b6000611c3a84828501611c01565b91505092915050565b600082825260208201905092915050565b7f546865207573657220706f736974696f6e20697320616c72656164792065786960008201527f7374730000000000000000000000000000000000000000000000000000000000602082015250565b6000611cb0602383611c43565b9150611cbb82611c54565b604082019050919050565b60006020820190508181036000830152611cdf81611ca3565b9050919050565b7f416363657373436f6e74726f6c3a2063616e206f6e6c792072656e6f756e636560008201527f20726f6c657320666f722073656c660000000000000000000000000000000000602082015250565b6000611d42602f83611c43565b9150611d4d82611ce6565b604082019050919050565b60006020820190508181036000830152611d7181611d35565b9050919050565b6000611d8382611817565b9150611d8e83611817565b9250827fffffffffffffffffffffffffffffffffffffffffffffffffffffffffffffffff03821115611dc357611dc2611b26565b5b828201905092915050565b6000606082019050611de36000830186611b89565b611df06020830185611b89565b611dfd6040830184611821565b949350505050565b6000602082019050611e1a6000830184611b89565b92915050565b600081519050611e2f8161184b565b92915050565b600060208284031215611e4b57611e4a611774565b5b6000611e5984828501611e20565b91505092915050565b7f54686520616d6f756e742065786365656420746865207472656173757279206260008201527f616c616e63652e00000000000000000000000000000000000000000000000000602082015250565b6000611ebe602783611c43565b9150611ec982611e62565b604082019050919050565b60006020820190508181036000830152611eed81611eb1565b9050919050565b7f57697468647261776e20616d6f756e742065786365656420746865207573657260008201527f2062616c616e6365000000000000000000000000000000000000000000000000602082015250565b6000611f50602883611c43565b9150611f5b82611ef4565b604082019050919050565b60006020820190508181036000830152611f7f81611f43565b9050919050565b600081905092915050565b7f416363657373436f6e74726f6c3a206163636f756e7420000000000000000000600082015250565b6000611fc7601783611f86565b9150611fd282611f91565b601782019050919050565b600081519050919050565b60005b83811015612006578082015181840152602081019050611feb565b83811115612015576000848401525b50505050565b600061202682611fdd565b6120308185611f86565b9350612040818560208601611fe8565b80840191505092915050565b7f206973206d697373696e6720726f6c6520000000000000000000000000000000600082015250565b6000612082601183611f86565b915061208d8261204c565b601182019050919050565b60006120a382611fba565b91506120af828561201b565b91506120ba82612075565b91506120c6828461201b565b91508190509392505050565b6000601f19601f8301169050919050565b60006120ee82611fdd565b6120f88185611c43565b9350612108818560208601611fe8565b612111816120d2565b840191505092915050565b6000602082019050818103600083015261213681846120e3565b905092915050565b600061214982611817565b915061215483611817565b9250817fffffffffffffffffffffffffffffffffffffffffffffffffffffffffffffffff048311821515161561218d5761218c611b26565b5b828202905092915050565b7f4e487b7100000000000000000000000000000000000000000000000000000000600052604160045260246000fd5b7f4e487b7100000000000000000000000000000000000000000000000000000000600052603260045260246000fd5b600061220182611817565b9150600082141561221557612214611b26565b5b600182039050919050565b7f537472696e67733a20686578206c656e67746820696e73756666696369656e74600082015250565b6000612256602083611c43565b915061226182612220565b602082019050919050565b6000602082019050818103600083015261228581612249565b9050919050565b7f5361666545524332303a204552433230206f7065726174696f6e20646964206e60008201527f6f74207375636365656400000000000000000000000000000000000000000000602082015250565b60006122e8602a83611c43565b91506122f38261228c565b604082019050919050565b60006020820190508181036000830152612317816122db565b9050919050565b7f416464726573733a20696e73756666696369656e742062616c616e636520666f60008201527f722063616c6c0000000000000000000000000000000000000000000000000000602082015250565b600061237a602683611c43565b91506123858261231e565b604082019050919050565b600060208201905081810360008301526123a98161236d565b9050919050565b7f416464726573733a2063616c6c20746f206e6f6e2d636f6e7472616374000000600082015250565b60006123e6601d83611c43565b91506123f1826123b0565b602082019050919050565b60006020820190508181036000830152612415816123d9565b9050919050565b600081519050919050565b600081905092915050565b600061243d8261241c565b6124478185612427565b9350612457818560208601611fe8565b80840191505092915050565b600061246f8284612432565b91508190509291505056fea2646970667358221220dac0b43c36b191e59e519066087aae7e3b8680f51920a43310201ccc2cabc82064736f6c634300080b0033",
  "linkReferences": {},
  "deployedLinkReferences": {}
}