{
  "_format": "hh-sol-artifact-1",
  "contractName": "TreasuryStorage",
  "sourceName": "contracts/treasury/TreasuryStorage.sol",
  "abi": [
    {
      "inputs": [
        {
          "internalType": "address",
          "name": "_treasuryShares",
          "type": "address"
        }
      ],
      "stateMutability": "nonpayable",
      "type": "constructor"
    },
    {
      "anonymous": false,
      "inputs": [
        {
          "indexed": true,
          "internalType": "bytes32",
          "name": "role",
          "type": "bytes32"
        },
        {
          "indexed": true,
          "internalType": "bytes32",
          "name": "previousAdminRole",
          "type": "bytes32"
        },
        {
          "indexed": true,
          "internalType": "bytes32",
          "name": "newAdminRole",
          "type": "bytes32"
        }
      ],
      "name": "RoleAdminChanged",
      "type": "event"
    },
    {
      "anonymous": false,
      "inputs": [
        {
          "indexed": true,
          "internalType": "bytes32",
          "name": "role",
          "type": "bytes32"
        },
        {
          "indexed": true,
          "internalType": "address",
          "name": "account",
          "type": "address"
        },
        {
          "indexed": true,
          "internalType": "address",
          "name": "sender",
          "type": "address"
        }
      ],
      "name": "RoleGranted",
      "type": "event"
    },
    {
      "anonymous": false,
      "inputs": [
        {
          "indexed": true,
          "internalType": "bytes32",
          "name": "role",
          "type": "bytes32"
        },
        {
          "indexed": true,
          "internalType": "address",
          "name": "account",
          "type": "address"
        },
        {
          "indexed": true,
          "internalType": "address",
          "name": "sender",
          "type": "address"
        }
      ],
      "name": "RoleRevoked",
      "type": "event"
    },
    {
      "inputs": [],
      "name": "DEFAULT_ADMIN_ROLE",
      "outputs": [
        {
          "internalType": "bytes32",
          "name": "",
          "type": "bytes32"
        }
      ],
      "stateMutability": "view",
      "type": "function"
    },
    {
      "inputs": [],
      "name": "REVENUE_CONTROLLER",
      "outputs": [
        {
          "internalType": "bytes32",
          "name": "",
          "type": "bytes32"
        }
      ],
      "stateMutability": "view",
      "type": "function"
    },
    {
      "inputs": [
        {
          "internalType": "address",
          "name": "_token",
          "type": "address"
        }
      ],
      "name": "addPool",
      "outputs": [],
      "stateMutability": "nonpayable",
      "type": "function"
    },
    {
      "inputs": [
        {
          "internalType": "address",
          "name": "_token",
          "type": "address"
        }
      ],
      "name": "checkIfPoolExists",
      "outputs": [
        {
          "internalType": "bool",
          "name": "",
          "type": "bool"
        }
      ],
      "stateMutability": "view",
      "type": "function"
    },
    {
      "inputs": [
        {
          "internalType": "address",
          "name": "_user",
          "type": "address"
        },
        {
          "internalType": "address",
          "name": "_token",
          "type": "address"
        }
      ],
      "name": "checkIfUserPositionExists",
      "outputs": [
        {
          "internalType": "bool",
          "name": "",
          "type": "bool"
        }
      ],
      "stateMutability": "view",
      "type": "function"
    },
    {
      "inputs": [
        {
          "internalType": "address",
          "name": "_user",
          "type": "address"
        },
        {
          "internalType": "address",
          "name": "_token",
          "type": "address"
        },
        {
          "internalType": "uint256",
          "name": "_amount",
          "type": "uint256"
        }
      ],
      "name": "deposit",
      "outputs": [],
      "stateMutability": "nonpayable",
      "type": "function"
    },
    {
      "inputs": [
        {
          "internalType": "bytes32",
          "name": "role",
          "type": "bytes32"
        }
      ],
      "name": "getRoleAdmin",
      "outputs": [
        {
          "internalType": "bytes32",
          "name": "",
          "type": "bytes32"
        }
      ],
      "stateMutability": "view",
      "type": "function"
    },
    {
      "inputs": [
        {
          "internalType": "address",
          "name": "_token",
          "type": "address"
        }
      ],
      "name": "getTokenSupply",
      "outputs": [
        {
          "internalType": "uint256",
          "name": "",
          "type": "uint256"
        }
      ],
      "stateMutability": "view",
      "type": "function"
    },
    {
      "inputs": [
        {
          "internalType": "address",
          "name": "_token",
          "type": "address"
        },
        {
          "internalType": "address",
          "name": "_user",
          "type": "address"
        }
      ],
      "name": "getUnlockedAmount",
      "outputs": [
        {
          "internalType": "uint256",
          "name": "unlockedAmount",
          "type": "uint256"
        }
      ],
      "stateMutability": "view",
      "type": "function"
    },
    {
      "inputs": [
        {
          "internalType": "address",
          "name": "_token",
          "type": "address"
        },
        {
          "internalType": "address",
          "name": "_user",
          "type": "address"
        }
      ],
      "name": "getUserPosition",
      "outputs": [
        {
          "components": [
            {
              "internalType": "uint256",
              "name": "totalAmount",
              "type": "uint256"
            },
            {
              "internalType": "uint256",
              "name": "loanedAmount",
              "type": "uint256"
            },
            {
              "internalType": "uint256",
              "name": "profit",
              "type": "uint256"
            },
            {
              "internalType": "uint256",
              "name": "lastAllocRequestBlock",
              "type": "uint256"
            }
          ],
          "internalType": "struct TreasuryStorage.UserPosition",
          "name": "",
          "type": "tuple"
        }
      ],
      "stateMutability": "view",
      "type": "function"
    },
    {
      "inputs": [
        {
          "internalType": "bytes32",
          "name": "role",
          "type": "bytes32"
        },
        {
          "internalType": "address",
          "name": "account",
          "type": "address"
        }
      ],
      "name": "grantRole",
      "outputs": [],
      "stateMutability": "nonpayable",
      "type": "function"
    },
    {
      "inputs": [
        {
          "internalType": "bytes32",
          "name": "role",
          "type": "bytes32"
        },
        {
          "internalType": "address",
          "name": "account",
          "type": "address"
        }
      ],
      "name": "hasRole",
      "outputs": [
        {
          "internalType": "bool",
          "name": "",
          "type": "bool"
        }
      ],
      "stateMutability": "view",
      "type": "function"
    },
    {
      "inputs": [
        {
          "internalType": "address",
          "name": "_token",
          "type": "address"
        },
        {
          "internalType": "address",
          "name": "_user",
          "type": "address"
        },
        {
          "internalType": "uint256",
          "name": "_amount",
          "type": "uint256"
        }
      ],
      "name": "loan",
      "outputs": [],
      "stateMutability": "nonpayable",
      "type": "function"
    },
    {
      "inputs": [
        {
          "internalType": "address",
          "name": "_destination",
          "type": "address"
        },
        {
          "internalType": "uint256",
          "name": "_amount",
          "type": "uint256"
        }
      ],
      "name": "mintTreasuryShares",
      "outputs": [],
      "stateMutability": "nonpayable",
      "type": "function"
    },
    {
      "inputs": [
        {
          "internalType": "bytes32",
          "name": "role",
          "type": "bytes32"
        },
        {
          "internalType": "address",
          "name": "account",
          "type": "address"
        }
      ],
      "name": "renounceRole",
      "outputs": [],
      "stateMutability": "nonpayable",
      "type": "function"
    },
    {
      "inputs": [
        {
          "internalType": "address",
          "name": "_user",
          "type": "address"
        },
        {
          "internalType": "address",
          "name": "_token",
          "type": "address"
        },
        {
          "internalType": "uint256",
          "name": "_principal",
          "type": "uint256"
        }
      ],
      "name": "returnPrincipal",
      "outputs": [],
      "stateMutability": "nonpayable",
      "type": "function"
    },
    {
      "inputs": [
        {
          "internalType": "bytes32",
          "name": "role",
          "type": "bytes32"
        },
        {
          "internalType": "address",
          "name": "account",
          "type": "address"
        }
      ],
      "name": "revokeRole",
      "outputs": [],
      "stateMutability": "nonpayable",
      "type": "function"
    },
    {
      "inputs": [
        {
          "internalType": "address",
          "name": "_token",
          "type": "address"
        },
        {
          "internalType": "address",
          "name": "_user",
          "type": "address"
        },
        {
          "internalType": "uint256",
          "name": "_profit",
          "type": "uint256"
        },
        {
          "internalType": "uint256",
          "name": "_lastAllockRequetBlock",
          "type": "uint256"
        }
      ],
      "name": "setUserPosition",
      "outputs": [],
      "stateMutability": "nonpayable",
      "type": "function"
    },
    {
      "inputs": [
        {
          "internalType": "bytes4",
          "name": "interfaceId",
          "type": "bytes4"
        }
      ],
      "name": "supportsInterface",
      "outputs": [
        {
          "internalType": "bool",
          "name": "",
          "type": "bool"
        }
      ],
      "stateMutability": "view",
      "type": "function"
    },
    {
      "inputs": [
        {
          "internalType": "address",
          "name": "_token",
          "type": "address"
        },
        {
          "internalType": "uint256",
          "name": "_amount",
          "type": "uint256"
        }
      ],
      "name": "updatePool",
      "outputs": [
        {
          "components": [
            {
              "internalType": "uint256",
              "name": "totalPooled",
              "type": "uint256"
            }
          ],
          "internalType": "struct TreasuryStorage.Pool",
          "name": "",
          "type": "tuple"
        }
      ],
      "stateMutability": "nonpayable",
      "type": "function"
    },
    {
      "inputs": [
        {
          "internalType": "address",
          "name": "_token",
          "type": "address"
        },
        {
          "internalType": "address",
          "name": "_user",
          "type": "address"
        },
        {
          "internalType": "uint256",
          "name": "_amount",
          "type": "uint256"
        }
      ],
      "name": "withdraw",
      "outputs": [],
      "stateMutability": "nonpayable",
      "type": "function"
    }
  ],
  "bytecode": "0x60806040523480156200001157600080fd5b5060405162002cac38038062002cac833981810160405281019062000037919062000277565b80600160006101000a81548173ffffffffffffffffffffffffffffffffffffffff021916908373ffffffffffffffffffffffffffffffffffffffff1602179055506200008d6000801b336200009460201b60201c565b50620002a9565b620000a68282620000aa60201b60201c565b5050565b620000bc82826200019b60201b60201c565b6200019757600160008084815260200190815260200160002060000160008373ffffffffffffffffffffffffffffffffffffffff1673ffffffffffffffffffffffffffffffffffffffff16815260200190815260200160002060006101000a81548160ff0219169083151502179055506200013c6200020560201b60201c565b73ffffffffffffffffffffffffffffffffffffffff168173ffffffffffffffffffffffffffffffffffffffff16837f2f8788117e7eff1d82e926ec794901d17c78024a50270940304540a733656f0d60405160405180910390a45b5050565b600080600084815260200190815260200160002060000160008373ffffffffffffffffffffffffffffffffffffffff1673ffffffffffffffffffffffffffffffffffffffff16815260200190815260200160002060009054906101000a900460ff16905092915050565b600033905090565b600080fd5b600073ffffffffffffffffffffffffffffffffffffffff82169050919050565b60006200023f8262000212565b9050919050565b620002518162000232565b81146200025d57600080fd5b50565b600081519050620002718162000246565b92915050565b60006020828403121562000290576200028f6200020d565b5b6000620002a08482850162000260565b91505092915050565b6129f380620002b96000396000f3fe608060405234801561001057600080fd5b50600436106101375760003560e01c806391d14854116100b8578063d2456a951161007c578063d2456a9514610382578063d547741f1461039e578063d914cd4b146103ba578063d9caed12146103d6578063f2866c78146103f2578063f897e3761461042257610137565b806391d14854146102a457806392a576e6146102d4578063999126d714610304578063a217fddf14610334578063b6f867a81461035257610137565b806336568abe116100ff57806336568abe146102045780633e0a56181461022057806361c811201461023c5780638340f549146102585780638ed7333d1461027457610137565b80630122a7e81461013c57806301ce30701461016c57806301ffc9a714610188578063248a9ca3146101b85780632f2ff15d146101e8575b600080fd5b61015660048036038101906101519190611c47565b610440565b6040516101639190611ca0565b60405180910390f35b61018660048036038101906101819190611ce7565b6104de565b005b6101a2600480360381019061019d9190611d7f565b610587565b6040516101af9190611dc7565b60405180910390f35b6101d260048036038101906101cd9190611e18565b610601565b6040516101df9190611e54565b60405180910390f35b61020260048036038101906101fd9190611e6f565b610620565b005b61021e60048036038101906102199190611e6f565b610649565b005b61023a60048036038101906102359190611eaf565b6106cc565b005b61025660048036038101906102519190611eaf565b6107bb565b005b610272600480360381019061026d9190611eaf565b6109c7565b005b61028e60048036038101906102899190611ce7565b610b7b565b60405161029b9190611f2d565b60405180910390f35b6102be60048036038101906102b99190611e6f565b610c33565b6040516102cb9190611dc7565b60405180910390f35b6102ee60048036038101906102e99190611c47565b610c9d565b6040516102fb9190611f9d565b60405180910390f35b61031e60048036038101906103199190611fb8565b610d5c565b60405161032b9190611dc7565b60405180910390f35b61033c610daa565b6040516103499190611e54565b60405180910390f35b61036c60048036038101906103679190611c47565b610db1565b6040516103799190611dc7565b60405180910390f35b61039c60048036038101906103979190611fe5565b610e3d565b005b6103b860048036038101906103b39190611e6f565b610f36565b005b6103d460048036038101906103cf9190611fb8565b610f5f565b005b6103f060048036038101906103eb9190611eaf565b61103a565b005b61040c60048036038101906104079190611fb8565b611231565b6040516104199190611ca0565b60405180910390f35b61042a6112b4565b6040516104379190611e54565b60405180910390f35b600080600260008473ffffffffffffffffffffffffffffffffffffffff1673ffffffffffffffffffffffffffffffffffffffff16815260200190815260200160002060008573ffffffffffffffffffffffffffffffffffffffff1673ffffffffffffffffffffffffffffffffffffffff1681526020019081526020016000209050806001015481600001546104d5919061207b565b91505092915050565b6000801b6104f3816104ee6112d8565b6112e0565b600160009054906101000a900473ffffffffffffffffffffffffffffffffffffffff1673ffffffffffffffffffffffffffffffffffffffff166340c10f1984846040518363ffffffff1660e01b81526004016105509291906120be565b600060405180830381600087803b15801561056a57600080fd5b505af115801561057e573d6000803e3d6000fd5b50505050505050565b60007f7965db0b000000000000000000000000000000000000000000000000000000007bffffffffffffffffffffffffffffffffffffffffffffffffffffffff1916827bffffffffffffffffffffffffffffffffffffffffffffffffffffffff191614806105fa57506105f98261137d565b5b9050919050565b6000806000838152602001908152602001600020600101549050919050565b61062982610601565b61063a816106356112d8565b6112e0565b61064483836113e7565b505050565b6106516112d8565b73ffffffffffffffffffffffffffffffffffffffff168173ffffffffffffffffffffffffffffffffffffffff16146106be576040517f08c379a00000000000000000000000000000000000000000000000000000000081526004016106b59061216a565b60405180910390fd5b6106c882826114c7565b5050565b7ffa146205d79c04d22c6b2309d75a6844cd1b28ad727f2383e3ee22681f0013996106fe816106f96112d8565b6112e0565b6000600260008673ffffffffffffffffffffffffffffffffffffffff1673ffffffffffffffffffffffffffffffffffffffff16815260200190815260200160002060008573ffffffffffffffffffffffffffffffffffffffff1673ffffffffffffffffffffffffffffffffffffffff168152602001908152602001600020905082816001016000828254610792919061207b565b92505081905550828160000160008282546107ad919061218a565b925050819055505050505050565b806107c68484610440565b11610806576040517f08c379a00000000000000000000000000000000000000000000000000000000081526004016107fd90612252565b60405180910390fd5b6000600260008473ffffffffffffffffffffffffffffffffffffffff1673ffffffffffffffffffffffffffffffffffffffff16815260200190815260200160002060008573ffffffffffffffffffffffffffffffffffffffff1673ffffffffffffffffffffffffffffffffffffffff16815260200190815260200160002090508181600101600082825461089a919061218a565b92505081905550818160000160008282546108b5919061207b565b9250508190555081600360008673ffffffffffffffffffffffffffffffffffffffff1673ffffffffffffffffffffffffffffffffffffffff168152602001908152602001600020600001600082825461090e919061207b565b925050819055508373ffffffffffffffffffffffffffffffffffffffff1663095ea7b330846040518363ffffffff1660e01b81526004016109509291906120be565b6020604051808303816000875af115801561096f573d6000803e3d6000fd5b505050506040513d601f19601f82011682018060405250810190610993919061229e565b506109c13084848773ffffffffffffffffffffffffffffffffffffffff166115a8909392919063ffffffff16565b50505050565b6109d082610d5c565b610a0f576040517f08c379a0000000000000000000000000000000000000000000000000000000008152600401610a0690612317565b60405180910390fd5b610a198383610db1565b610a2d57610a28828483611631565b610aca565b6000600260008473ffffffffffffffffffffffffffffffffffffffff1673ffffffffffffffffffffffffffffffffffffffff16815260200190815260200160002060008573ffffffffffffffffffffffffffffffffffffffff1673ffffffffffffffffffffffffffffffffffffffff168152602001908152602001600020905081816000016000828254610ac1919061218a565b92505081905550505b8173ffffffffffffffffffffffffffffffffffffffff1663095ea7b384836040518363ffffffff1660e01b8152600401610b059291906120be565b6020604051808303816000875af1158015610b24573d6000803e3d6000fd5b505050506040513d601f19601f82011682018060405250810190610b48919061229e565b50610b768330838573ffffffffffffffffffffffffffffffffffffffff166115a8909392919063ffffffff16565b505050565b610b83611ba9565b7ffa146205d79c04d22c6b2309d75a6844cd1b28ad727f2383e3ee22681f001399610bb581610bb06112d8565b6112e0565b6000600360008673ffffffffffffffffffffffffffffffffffffffff1673ffffffffffffffffffffffffffffffffffffffff168152602001908152602001600020905083816000016000828254610c0c919061218a565b92505081905550806040518060200160405290816000820154815250509250505092915050565b600080600084815260200190815260200160002060000160008373ffffffffffffffffffffffffffffffffffffffff1673ffffffffffffffffffffffffffffffffffffffff16815260200190815260200160002060009054906101000a900460ff16905092915050565b610ca5611bbc565b600260008373ffffffffffffffffffffffffffffffffffffffff1673ffffffffffffffffffffffffffffffffffffffff16815260200190815260200160002060008473ffffffffffffffffffffffffffffffffffffffff1673ffffffffffffffffffffffffffffffffffffffff168152602001908152602001600020604051806080016040529081600082015481526020016001820154815260200160028201548152602001600382015481525050905092915050565b600080600360008473ffffffffffffffffffffffffffffffffffffffff1673ffffffffffffffffffffffffffffffffffffffff16815260200190815260200160002060000154119050919050565b6000801b81565b600080600260008573ffffffffffffffffffffffffffffffffffffffff1673ffffffffffffffffffffffffffffffffffffffff16815260200190815260200160002060008473ffffffffffffffffffffffffffffffffffffffff1673ffffffffffffffffffffffffffffffffffffffff1681526020019081526020016000206000015411905092915050565b7ffa146205d79c04d22c6b2309d75a6844cd1b28ad727f2383e3ee22681f001399610e6f81610e6a6112d8565b6112e0565b6000600260008673ffffffffffffffffffffffffffffffffffffffff1673ffffffffffffffffffffffffffffffffffffffff16815260200190815260200160002060008773ffffffffffffffffffffffffffffffffffffffff1673ffffffffffffffffffffffffffffffffffffffff168152602001908152602001600020905083816002016000828254610f03919061218a565b9250508190555083816000016000828254610f1e919061218a565b92505081905550828160030181905550505050505050565b610f3f82610601565b610f5081610f4b6112d8565b6112e0565b610f5a83836114c7565b505050565b7ffa146205d79c04d22c6b2309d75a6844cd1b28ad727f2383e3ee22681f001399610f9181610f8c6112d8565b6112e0565b610f9a82610d5c565b15610fda576040517f08c379a0000000000000000000000000000000000000000000000000000000008152600401610fd190612383565b60405180910390fd5b60405180602001604052806000815250600360008473ffffffffffffffffffffffffffffffffffffffff1673ffffffffffffffffffffffffffffffffffffffff168152602001908152602001600020600082015181600001559050505050565b806110458484610440565b11611085576040517f08c379a000000000000000000000000000000000000000000000000000000000815260040161107c90612415565b60405180910390fd5b6000600260008573ffffffffffffffffffffffffffffffffffffffff1673ffffffffffffffffffffffffffffffffffffffff16815260200190815260200160002060008473ffffffffffffffffffffffffffffffffffffffff1673ffffffffffffffffffffffffffffffffffffffff168152602001908152602001600020905081816000016000828254611119919061207b565b925050819055506000600360008673ffffffffffffffffffffffffffffffffffffffff1673ffffffffffffffffffffffffffffffffffffffff168152602001908152602001600020905082816000016000828254611177919061207b565b925050819055508473ffffffffffffffffffffffffffffffffffffffff1663095ea7b330856040518363ffffffff1660e01b81526004016111b99291906120be565b6020604051808303816000875af11580156111d8573d6000803e3d6000fd5b505050506040513d601f19601f820116820180604052508101906111fc919061229e565b5061122a3085858873ffffffffffffffffffffffffffffffffffffffff166115a8909392919063ffffffff16565b5050505050565b60008173ffffffffffffffffffffffffffffffffffffffff166370a08231306040518263ffffffff1660e01b815260040161126c9190612435565b602060405180830381865afa158015611289573d6000803e3d6000fd5b505050506040513d601f19601f820116820180604052508101906112ad9190612465565b9050919050565b7ffa146205d79c04d22c6b2309d75a6844cd1b28ad727f2383e3ee22681f00139981565b600033905090565b6112ea8282610c33565b6113795761130f8173ffffffffffffffffffffffffffffffffffffffff166014611700565b61131d8360001c6020611700565b60405160200161132e9291906125a4565b6040516020818303038152906040526040517f08c379a00000000000000000000000000000000000000000000000000000000081526004016113709190612628565b60405180910390fd5b5050565b60007f01ffc9a7000000000000000000000000000000000000000000000000000000007bffffffffffffffffffffffffffffffffffffffffffffffffffffffff1916827bffffffffffffffffffffffffffffffffffffffffffffffffffffffff1916149050919050565b6113f18282610c33565b6114c357600160008084815260200190815260200160002060000160008373ffffffffffffffffffffffffffffffffffffffff1673ffffffffffffffffffffffffffffffffffffffff16815260200190815260200160002060006101000a81548160ff0219169083151502179055506114686112d8565b73ffffffffffffffffffffffffffffffffffffffff168173ffffffffffffffffffffffffffffffffffffffff16837f2f8788117e7eff1d82e926ec794901d17c78024a50270940304540a733656f0d60405160405180910390a45b5050565b6114d18282610c33565b156115a457600080600084815260200190815260200160002060000160008373ffffffffffffffffffffffffffffffffffffffff1673ffffffffffffffffffffffffffffffffffffffff16815260200190815260200160002060006101000a81548160ff0219169083151502179055506115496112d8565b73ffffffffffffffffffffffffffffffffffffffff168173ffffffffffffffffffffffffffffffffffffffff16837ff6391f5c32d9c69d2a47ea670b442974b53935d1edc7fd64eb21e047a839171b60405160405180910390a45b5050565b61162b846323b872dd60e01b8585856040516024016115c99392919061264a565b604051602081830303815290604052907bffffffffffffffffffffffffffffffffffffffffffffffffffffffff19166020820180517bffffffffffffffffffffffffffffffffffffffffffffffffffffffff838183161783525050505061193c565b50505050565b6040518060800160405280828152602001600081526020016000815260200143815250600260008473ffffffffffffffffffffffffffffffffffffffff1673ffffffffffffffffffffffffffffffffffffffff16815260200190815260200160002060008573ffffffffffffffffffffffffffffffffffffffff1673ffffffffffffffffffffffffffffffffffffffff16815260200190815260200160002060008201518160000155602082015181600101556040820151816002015560608201518160030155905050505050565b6060600060028360026117139190612681565b61171d919061218a565b67ffffffffffffffff811115611736576117356126db565b5b6040519080825280601f01601f1916602001820160405280156117685781602001600182028036833780820191505090505b5090507f3000000000000000000000000000000000000000000000000000000000000000816000815181106117a05761179f61270a565b5b60200101907effffffffffffffffffffffffffffffffffffffffffffffffffffffffffffff1916908160001a9053507f7800000000000000000000000000000000000000000000000000000000000000816001815181106118045761180361270a565b5b60200101907effffffffffffffffffffffffffffffffffffffffffffffffffffffffffffff1916908160001a905350600060018460026118449190612681565b61184e919061218a565b90505b60018111156118ee577f3031323334353637383961626364656600000000000000000000000000000000600f8616601081106118905761188f61270a565b5b1a60f81b8282815181106118a7576118a661270a565b5b60200101907effffffffffffffffffffffffffffffffffffffffffffffffffffffffffffff1916908160001a905350600485901c9450806118e790612739565b9050611851565b5060008414611932576040517f08c379a0000000000000000000000000000000000000000000000000000000008152600401611929906127af565b60405180910390fd5b8091505092915050565b600061199e826040518060400160405280602081526020017f5361666545524332303a206c6f772d6c6576656c2063616c6c206661696c65648152508573ffffffffffffffffffffffffffffffffffffffff16611a039092919063ffffffff16565b90506000815111156119fe57808060200190518101906119be919061229e565b6119fd576040517f08c379a00000000000000000000000000000000000000000000000000000000081526004016119f490612841565b60405180910390fd5b5b505050565b6060611a128484600085611a1b565b90509392505050565b606082471015611a60576040517f08c379a0000000000000000000000000000000000000000000000000000000008152600401611a57906128d3565b60405180910390fd5b611a6985611b2f565b611aa8576040517f08c379a0000000000000000000000000000000000000000000000000000000008152600401611a9f9061293f565b60405180910390fd5b6000808673ffffffffffffffffffffffffffffffffffffffff168587604051611ad191906129a6565b60006040518083038185875af1925050503d8060008114611b0e576040519150601f19603f3d011682016040523d82523d6000602084013e611b13565b606091505b5091509150611b23828286611b42565b92505050949350505050565b600080823b905060008111915050919050565b60608315611b5257829050611ba2565b600083511115611b655782518084602001fd5b816040517f08c379a0000000000000000000000000000000000000000000000000000000008152600401611b999190612628565b60405180910390fd5b9392505050565b6040518060200160405280600081525090565b6040518060800160405280600081526020016000815260200160008152602001600081525090565b600080fd5b600073ffffffffffffffffffffffffffffffffffffffff82169050919050565b6000611c1482611be9565b9050919050565b611c2481611c09565b8114611c2f57600080fd5b50565b600081359050611c4181611c1b565b92915050565b60008060408385031215611c5e57611c5d611be4565b5b6000611c6c85828601611c32565b9250506020611c7d85828601611c32565b9150509250929050565b6000819050919050565b611c9a81611c87565b82525050565b6000602082019050611cb56000830184611c91565b92915050565b611cc481611c87565b8114611ccf57600080fd5b50565b600081359050611ce181611cbb565b92915050565b60008060408385031215611cfe57611cfd611be4565b5b6000611d0c85828601611c32565b9250506020611d1d85828601611cd2565b9150509250929050565b60007fffffffff0000000000000000000000000000000000000000000000000000000082169050919050565b611d5c81611d27565b8114611d6757600080fd5b50565b600081359050611d7981611d53565b92915050565b600060208284031215611d9557611d94611be4565b5b6000611da384828501611d6a565b91505092915050565b60008115159050919050565b611dc181611dac565b82525050565b6000602082019050611ddc6000830184611db8565b92915050565b6000819050919050565b611df581611de2565b8114611e0057600080fd5b50565b600081359050611e1281611dec565b92915050565b600060208284031215611e2e57611e2d611be4565b5b6000611e3c84828501611e03565b91505092915050565b611e4e81611de2565b82525050565b6000602082019050611e696000830184611e45565b92915050565b60008060408385031215611e8657611e85611be4565b5b6000611e9485828601611e03565b9250506020611ea585828601611c32565b9150509250929050565b600080600060608486031215611ec857611ec7611be4565b5b6000611ed686828701611c32565b9350506020611ee786828701611c32565b9250506040611ef886828701611cd2565b9150509250925092565b611f0b81611c87565b82525050565b602082016000820151611f276000850182611f02565b50505050565b6000602082019050611f426000830184611f11565b92915050565b608082016000820151611f5e6000850182611f02565b506020820151611f716020850182611f02565b506040820151611f846040850182611f02565b506060820151611f976060850182611f02565b50505050565b6000608082019050611fb26000830184611f48565b92915050565b600060208284031215611fce57611fcd611be4565b5b6000611fdc84828501611c32565b91505092915050565b60008060008060808587031215611fff57611ffe611be4565b5b600061200d87828801611c32565b945050602061201e87828801611c32565b935050604061202f87828801611cd2565b925050606061204087828801611cd2565b91505092959194509250565b7f4e487b7100000000000000000000000000000000000000000000000000000000600052601160045260246000fd5b600061208682611c87565b915061209183611c87565b9250828210156120a4576120a361204c565b5b828203905092915050565b6120b881611c09565b82525050565b60006040820190506120d360008301856120af565b6120e06020830184611c91565b9392505050565b600082825260208201905092915050565b7f416363657373436f6e74726f6c3a2063616e206f6e6c792072656e6f756e636560008201527f20726f6c657320666f722073656c660000000000000000000000000000000000602082015250565b6000612154602f836120e7565b915061215f826120f8565b604082019050919050565b6000602082019050818103600083015261218381612147565b9050919050565b600061219582611c87565b91506121a083611c87565b9250827fffffffffffffffffffffffffffffffffffffffffffffffffffffffffffffffff038211156121d5576121d461204c565b5b828201905092915050565b7f54686520616d6f756e742065786365656420746865207472656173757279206260008201527f616c616e63652e00000000000000000000000000000000000000000000000000602082015250565b600061223c6027836120e7565b9150612247826121e0565b604082019050919050565b6000602082019050818103600083015261226b8161222f565b9050919050565b61227b81611dac565b811461228657600080fd5b50565b60008151905061229881612272565b92915050565b6000602082840312156122b4576122b3611be4565b5b60006122c284828501612289565b91505092915050565b7f506f6f6c20646f6573206e6f7420657869737400000000000000000000000000600082015250565b60006123016013836120e7565b915061230c826122cb565b602082019050919050565b60006020820190508181036000830152612330816122f4565b9050919050565b7f5468697320706f6f6c20616c7265616479206578697374732e00000000000000600082015250565b600061236d6019836120e7565b915061237882612337565b602082019050919050565b6000602082019050818103600083015261239c81612360565b9050919050565b7f57697468647261776e20616d6f756e74206578636565642074686520616c6c6f60008201527f77616e6365000000000000000000000000000000000000000000000000000000602082015250565b60006123ff6025836120e7565b915061240a826123a3565b604082019050919050565b6000602082019050818103600083015261242e816123f2565b9050919050565b600060208201905061244a60008301846120af565b92915050565b60008151905061245f81611cbb565b92915050565b60006020828403121561247b5761247a611be4565b5b600061248984828501612450565b91505092915050565b600081905092915050565b7f416363657373436f6e74726f6c3a206163636f756e7420000000000000000000600082015250565b60006124d3601783612492565b91506124de8261249d565b601782019050919050565b600081519050919050565b60005b838110156125125780820151818401526020810190506124f7565b83811115612521576000848401525b50505050565b6000612532826124e9565b61253c8185612492565b935061254c8185602086016124f4565b80840191505092915050565b7f206973206d697373696e6720726f6c6520000000000000000000000000000000600082015250565b600061258e601183612492565b915061259982612558565b601182019050919050565b60006125af826124c6565b91506125bb8285612527565b91506125c682612581565b91506125d28284612527565b91508190509392505050565b6000601f19601f8301169050919050565b60006125fa826124e9565b61260481856120e7565b93506126148185602086016124f4565b61261d816125de565b840191505092915050565b6000602082019050818103600083015261264281846125ef565b905092915050565b600060608201905061265f60008301866120af565b61266c60208301856120af565b6126796040830184611c91565b949350505050565b600061268c82611c87565b915061269783611c87565b9250817fffffffffffffffffffffffffffffffffffffffffffffffffffffffffffffffff04831182151516156126d0576126cf61204c565b5b828202905092915050565b7f4e487b7100000000000000000000000000000000000000000000000000000000600052604160045260246000fd5b7f4e487b7100000000000000000000000000000000000000000000000000000000600052603260045260246000fd5b600061274482611c87565b915060008214156127585761275761204c565b5b600182039050919050565b7f537472696e67733a20686578206c656e67746820696e73756666696369656e74600082015250565b60006127996020836120e7565b91506127a482612763565b602082019050919050565b600060208201905081810360008301526127c88161278c565b9050919050565b7f5361666545524332303a204552433230206f7065726174696f6e20646964206e60008201527f6f74207375636365656400000000000000000000000000000000000000000000602082015250565b600061282b602a836120e7565b9150612836826127cf565b604082019050919050565b6000602082019050818103600083015261285a8161281e565b9050919050565b7f416464726573733a20696e73756666696369656e742062616c616e636520666f60008201527f722063616c6c0000000000000000000000000000000000000000000000000000602082015250565b60006128bd6026836120e7565b91506128c882612861565b604082019050919050565b600060208201905081810360008301526128ec816128b0565b9050919050565b7f416464726573733a2063616c6c20746f206e6f6e2d636f6e7472616374000000600082015250565b6000612929601d836120e7565b9150612934826128f3565b602082019050919050565b600060208201905081810360008301526129588161291c565b9050919050565b600081519050919050565b600081905092915050565b60006129808261295f565b61298a818561296a565b935061299a8185602086016124f4565b80840191505092915050565b60006129b28284612975565b91508190509291505056fea26469706673582212200edc1ad544f663e14b68350b33f264623e0b81c4e25700465e532687bddb2cc764736f6c634300080b0033",
  "linkReferences": {},
  "deployedLinkReferences": {}
}